:2000000000400020311D010001C9011001C9011001C9011001C9011001C9011001C901100F
:1C00200001C9011001C9011001C9011001C9011001C9011001C901103FC9011089
:20003C0080B54FF4FC720FF278011A480CF0D4FF194800210170012141740221C17601BD31
:20005C002DE9F0410FF25021144838220B684C688D68CE680F69D1F814C0D1F818E0D1F824
:20007C001C80036044608560C6600761C0F814C0C0F818E0C0F81C8020312030521EE5D1F7
:20009C004A688B68CC680968016042608360C460BDE8F081480400215903002100C000210F
:2000BC00410500217D0500212D06002170B51D46004C204787B2000010B5014800470000FD
:2000DC00D509000070B5614C6148254650358047022809D14034E1885E4A914204D1E97C5E
:2000FC00890601D4911DE18070BD70B557495A4A084650300378002B10D08379012B0DD181
:20011C00037C5B09DB0709D0097D544DC1746C7F20202043687790476C7770BDFF21C17420
:20013C00904770BD10B54E48484C804702280ED121464031CA88474B9A4208D1CA7C5209CE
:20015C00D20704D0227D920601D49A1DCA8010BD70B53E4843494030C07C4009C00707D032
:20017C003E4D41482C8B2043288388472C8370BD884770BD10B53B48344CAC388047214609
:20019C0053310A789309DB0705D04034A2730A7803231A430A7010BD2C4940310871182876
:2001BC0012D004DC0A280BD00B2804D10AE025280CD02A280CD02D4980004018C0687047DE
:2001DC002B4870472B4870472B4870472B4870472B48704770B504461C484E252D5CAE09AB
:2001FC00F60716D0067D3007000F052803D00120054202D00DE00220FAE7E80905D07006D1
:20021C0003D54868800F012803D05B085B0052085200062B03D01020022B11D011E0FB20F7
:20023C00024002232046FFF741FF002807DAC100611A2039497E1422114200D1002070BD93
:20025C00024303432046FFF731FF70BD4401002137CB000004140000EBC80000A800002142
:20027C00F5B4000053AD00002020000080DF00001D050021F9040021CD040021930400210F
:20029C006D04002110B5034CFFF716FF20680028FAD110BD0011044068610000F825F965B0
:2002BC00F9754500450045002600260057A3520052004C00401F401F401F3F000000000053
:2002DC00304000400140034007400F404F40CF40CF41CF43CF47CF4FCF3FCF2FCF1FCF0F6C
:2002FC00000000000000000000000F00080000003F00000040003F000000040068000E0093
:20031C00DC00060043001A00050000000000020000000000000000000400C00000000400B3
:20033C00C000000007000000000000000000000000000000000000003040004001400340A6
:20035C0007400F404F40CF40CF7FCF6FCF5FCF4FCF3FCF2FCF1FCF0F00000000000000009D
:20037C0050C00091007070C00091007082312100319110B10070018101B100A1823132910D
:20039C0010B101911110418141227740F106007051C0019130181039833108D01831416FD1
:2003BC003100319110B18314141683680070251050C00091F4C340C12014036F3110410497
:2003DC005082F0229840512622C082312100319110B163393110410482C08231210031919B
:2003FC0010B163393110A2C082312100319110B150101531051405920070676452C03110A6
:20041C0031066131C1026A6412C13110213971065131E1026A64007051C0019101CCE2C0CC
:20043C006A64676411C1C2C06A6450B054B0007140804022D6440022C94060B08180111EC9
:20045C00C944007054A064B0F0800022C9404012B09032B070C1DF6811C122C16A6470C1C0
:20047C00E46851C00191E2C0823160820200329110B130C2EE68538253395339B16460C347
:20049C00F4688012B09032B00070676401C122C16A6401C1C2C06A645382B164C012B09074
:2004BC0032B00070676472C281C06A6422C111C16A6402C011C16A6462C031C36A6462C3D2
:2004DC0011C16A6402C311C16A6453825339B164E2C36F6411221C4142C281C86A6452C24E
:2004FC0011C16A6472C2E1CE6A6402C281C86A6402C201C86A64B0C030690070676442C211
:20051C0001C86A6452C211C06A6472C2E1C06A6402C001C16A6462C001C36A6422C101C127
:20053C006A6462C301C16A6402C301C16A645382B16400708180111E5C4150B054B000712B
:20055C00408040225D4154A064B0F1800122514500700022514160B04E61000000000000AA
:20057C000000000000000000067305720B720E7250B00071818060B050A09280F0EFF1928C
:20059C0002936A6741228C458080F1C11004301601110114016CB561B661B761B861B9618D
:2005BC00BA61BB61BD61BF61C161C36126632D63F0C002043231412A121432160111211412
:2005DC00016CDA61C561E061C761CB61B561B561B561F461C561FA61C761CB61B561B56104
:2005FC00B561F461C561FA61C761CB61B561B561B561E761C561ED61C761CB61B561B56121
:20061C00B561CF61CF61CF61CF61CF61CF61C064CF61F964CF610665CF613265CF6174676A
:20063C00CF611166CF61C0644E65F964CF61066511663265CF618280E0DFF2926A67B0B044
:20065C00D661B1B00673057230B06C61D0CF6A6784C203C0C0C37C64207851788278E378B7
:20067C001579B6780062C0CF6A6784C203C0C0C37C64307861789278F3781579C678006250
:20069C00B0CF6A6784C203C0C0C37C6440787178A27803791579D678109221923292439281
:2006BC005492659256911FC0FF914039F00601101031101400927067CF61E3B054A0F08076
:2006DC0050221A4640800022BE461262E3A000C86091598150B0918041228E46A0CF6A6734
:2006FC0012828231823942398B641282F2062F101F312F141682D622334640C1346200C5AF
:20071C0020140D6F6D39DE10F4C34E0482C082312E006D39A2C082312D001A828A39FA0606
:20073C002082803180390BC00B18BC10AC18038239149B141082F0060110103110145181C2
:20075C0010140C14C622C94631D0C1266462021011C0013010C00118021882312100C126C2
:20077C00919103B013B063B053B041800122BE46B481C491D581B51C774E95186591F0803E
:20079C00102269428C623D9110B13E9110B1E08000228146E6228142E0B0951865910F926B
:2007BC005981F914F0805022114210228C464D6390CF6A6763B052A03082F2C0200402107E
:2007DC0011C0013010C00118021882312100C1269191919113B003B063B053B064B054B055
:2007FC00007141800122BE4663B064B0F08050221142B181C191D1819118619131B0A462D0
:20081C002967E0A059810582591480C0007163B0BA6A6962E3A0018262818231823D80EF61
:20083C00F19202936A6703A0007037824739873930828039F006021011C0013010C0011849
:20085C00021882312100C126819102B012B030824039F006021011C0013010C001180218E9
:20087C0082312100C126919103B013B063B053B0007153A062B052B041800122BE46A4816E
:20089C00C491D581B51CFE4E95186591F0801022F0428C62B481C491D4814518751C084FEB
:2008BC00F0801022F0428C623D9110B13E9110B1E08000221247E6221243E0B065910F92DC
:2008DC005981F914F0805022114210228C4630632967E0A0598105825914F0C0007162B038
:2008FC00226BF062A2808B64CF6112824239F2068B6050B00071CF6170CF6A674082418096
:20091C000122BE46A481C491D58195186591F18011228C46336B41800122BE46A481C491AB
:20093C00D581C51C1C4B95186591F08010223F438C6260CF6A67408241800122BE46B48169
:20095C00C491D58195186591F18011228C46506B41800122BE46B481C491D581C51CB44A55
:20097C0095186591F08010225C438C62E092D08200226B47C0B20070A080F022874330B033
:20099C0002C1623101C0A080001E8043F022814380F86031603981632010101A136F236E5A
:2009BC0011161216826B00702DE9F84FDFF81885DFF8181588F80000002008600921DFF891
:2009DC00100501700D2141804FF408718180DFF80405DFF8041501608A7EDFF80005027042
:2009FC00FF2ACB7E437008BFFF2B0D7F85704E7FC6708F7F0771C97F417115D1FF2D08BFE8
:200A1C00FF2E11D1FF2F08BFFF290DD1DFF8D0140A7802704A7842708A788270CA78C27025
:200A3C000A79027149794171DFF8B81402780A70FF2542784A7082788A70C278CA7002791E
:200A5C000A7140794871DFF8A014DFF8A004057045708570C5700571457100200880DFF888
:200A7C009014DFF89004466B70780870DFF8881430780870DFF88414B0780870DFF880142D
:200A9C0070690079401E0870DFF87814F0780870DFF87414B069086008B913F02DFEF069A7
:200ABC00DFF86844206008B913F026FE2068DFF86074006880472168091D38460968884760
:200ADC00DFF85004DFF850143862DFF850047862306A086008B913F00FFE706ADFF840141D
:200AFC00086008B913F008FEDFF838B4DFF838649BF8040014F08EF9306008B900F046B910
:200B1C009BF80500DFF8247414F084F9386008B9306838E19BF80600DFF8144414F07AF9E8
:200B3C00206020B9306814F07DF938682BE19BF80700DFF8009414F06DF9C9F8000038B961
:200B5C00306814F06FF9386814F06CF920681AE1DFF8A41309789BF80000DFF8DCA3891C4C
:200B7C00484380B214F056F9CAF8080058B9306814F058F9386814F055F9206814F052F9B8
:200B9C00D9F80000FFE0DC480078010000F00381BBF80210DFF8A4B3484380B214F03AF991
:200BBC00CBF8040078B9306814F03CF9386814F039F9206814F036F9D9F8000014F032F9BF
:200BDC00DAF80800DFE0CC48007814F023F9DC49086098B9306814F025F9386814F022F95D
:200BFC00206814F01FF9D9F8000014F01BF9DAF8080014F017F9DBF80400C4E0BE48007865
:200C1C001C21484314F006F9CE490860B0B9306814F008F9386814F005F9206814F002F93F
:200C3C00D9F8000014F0FEF8DAF8080014F0FAF8DBF8040014F0F6F8C148A3E0AE4800783A
:200C5C00400114F0E7F8C0490860D0B9306814F0E9F8386814F0E6F8206814F0E3F8D9F823
:200C7C00000014F0DFF8DAF8080014F0DBF8DBF8040014F0D7F8B248006814F0D3F8B148F8
:200C9C0080E09D480078000114F0C4F8AF490860F0B9306814F0C6F8386814F0C3F8206870
:200CBC0014F0C0F8D9F8000014F0BCF8DAF8080014F0B8F8DBF8040014F0B4F8A04800686E
:200CDC0014F0B0F89F48006814F0ACF89E4859E089480078000114F09DF89D49086010BB3A
:200CFC00306814F09FF8386814F09CF8206814F099F8D9F8000014F095F8DAF8080014F010
:200D1C0091F8DBF8040014F08DF88D48006814F089F88C48006814F085F88B48006814F010
:200D3C0081F88A482EE0744800783021484314F071F88849086070BB306814F073F83868B6
:200D5C0014F070F8206814F06DF8D9F8000014F069F8DAF8080014F065F8DBF8040014F0CE
:200D7C0061F87748006814F05DF87648006814F059F87548006814F055F87448006814F065
:200D9C0051F87348006814F04DF8002013F0B4FC4FF4804192E0316801200871002230684C
:200DBC00057330684573306885733068C573306805743068457400203168C8723168487148
:200DDC00A0213068C180032101720720316848720020316888722821306841820121C1769C
:200DFC00002031684877316881F85E00012031680877316881F85D00396808713868057315
:200E1C0038684573386885733868C573386805743868457400203968C87239684871396886
:200E3C0088724FF420703968C88008818A7401213A68D17421680D7321684D7321688D7375
:200E5C002168CD7321680D7421684D7400212268D172012122681171002122685171216847
:200E7C00C8800881002088722168887405202168C8743948006880470546294800680068C0
:200E9C00804727490968091D00200968884719481C49C06809780088084330490880284657
:200EBC002F49096888470C212E4800F05DF80F4800F05EF800F060F84FF4005198F800006D
:200EDC00BDE8F44F0AF090BE6E4F0020044F0020604E0020084F0020B63F00502C4E002052
:200EFC00E81200503C4E00200C4F0020344E00206D4F0020C06701007B4F00206B4F0020FD
:200F1C00724F00206C4F0020F04E0020F44E00207C4B0020314E0100F84E0020414E0100DC
:200F3C00FC4E0020F8120020104F0020A0250020184F0020A425002074250020684E00209E
:200F5C00004F0020DC2100209C250020884E00208C4E0020904E0020F80D0020544F002032
:200F7C00FC0D0020F84D0020DFF800F0E5710110DFF800F01D6E0110DFF800F04D710110A0
:200F9C00B0B5174C241D20680004070C23D01248006800688047114991F90720824205DDF8
:200FBC0010F1800FB8BF6FF07F00C8718D88BD4210D80A68D4F8D40F801A801C1F2888BF16
:200FDC001F207F1B4008C7404FF6FF70EF19B84238BF071C8F80B0BDEC01001094250020AB
:040FFC003010094068
:20100000B41200001810000015AB0110FDB301106DC00110FDAE011099B5011000000000F7
:08102000000000002F00000099
:20102800B01200003C100000B1C00110A9BF011067C0011069B80110000000000000000035
:041048002D00000077
:20104C00B012000060100000BDC00110CDB30110D9BD01106DB3011000000000000000005B
:04106C002E00000052
:20107000000000002013002004000000000000000000000020000000E8C9011030000000F7
:2010900028100000281300200400000000000000000000000C000000D8CA011018000000D2
:2010B0004C1000003013002004000000000000000000000024000000F0CA01101800000056
:2010D00000000000381300200400000000000000000000001000000018CA01102C00000062
:2010F0000010000040130020040000000000000000000000200000006CCA011024000000CE
:20111000FFFFFFFF481300200400000000000000000000002800000090CA0110240000008D
:20113000FFFFFFFF501300200400000000000000000000001400000008CB0110180000000C
:20115000FFFFFFFF5813002004000000000000000000000058000000B4C9011034000000DA
:20117000FFFFFFFF601300200400000000000000000000001000000020CB011018000000A8
:20119000FFFFFFFF681300200400000000000000000000001C000000B4CA011024000000D5
:2011B000FFFFFFFF701300200400000000000000000000003800000044CA011028000000FD
:2011D000FFFFFFFF781300200400000000000000000000005400000078C901103C00000072
:0811F00001000000A8670100E6
:0411F80001000000F2
:0411FC0000000E00E1
:0412000000000F00DB
:0412040032000000B4
:0412080001000000E1
:04120C00FC110020B1
:0412100000020000D8
:0412140000000000D6
:0412180001C90110F7
:04121C0000000000CE
:0412200000000000CA
:0412240008000000BE
:04122800000023009F
:04122C00AC100020E2
:0412300001000000B9
:041234001412002070
:0412380008000000AA
:04123C00A0110020DD
:0412400000000000AA
:0412440000000000A6
:04124800080000009A
:04124C00000000009E
:04125000000000009A
:041254000000000096
:041258000000000092
:04125C00010000008D
:041260001411002045
:041264000600000080
:041268000100000081
:04126C00940F0020BB
:04127000000000007A
:041274000000000076
:041278000002000070
:04127C00000000006E
:02128000290043
:02128200010069
:02128400250043
:021286002D0039
:021288002E0036
:02128A002F0033
:02128C0001005F
:01128E00015E
:08129000030000006C6701007F
:0812980000000000000000004E
:0412A0000000010049
:0412A4000000030043
:0412A80013C401105A
:0412AC00134C0100DE
:0412B000B812000070
:0412B400B81200006C
:0412B8000000000032
:0412BC0014120020E8
:0412C0008F4D01004D
:0412C4002000000006
:0412C800F4660100C7
:0412CC00E8650100D0
:0412D00029C101101F
:0412D400032F0100E3
:0412D8004338010096
:0412DC00A1C7011095
:0412E000A3C701108F
:0412E4000000000006
:0412E8001767010083
:0412EC001064010089
:0412F000286401006D
:0412F400F86301009A
:0212F8000200F2
:0212FA000900E9
:0212FC000100EF
:0212FE000000EE
:0113000001EB
:04130400314D010066
:041308005D2E010055
:04130C00414101005A
:04131000793201002D
:04131400433301005E
:04131800952E01000D
:04131C0011EF0000CD
:04132000074F010072
:04132400B10601000D
:0413280015C70110D4
:04132C0025C70110C0
:201330002DE9F04F0D4685B0814615F8010B8DF800004FF49E7009EB00064FF4B0709DF818
:20135000001009EB00044FF4C670891E09EB0007152909F20D1B09F1E70809F1060ADFF82F
:20137000680700F29C83DFE811F00F019A031600440048007A039A03C3009A037D00D600F9
:20139000810088001701E901280204018403E802E8022F02A00209F1A00608222946304626
:2013B00014F0CAFA05460821304614F0C1FA09F1980404222946204614F0BEFA04212046D4
:2013D00014F0B6FA00214842484409EB010290F89F0082F8BF00491C0829F4DB09F1C70293
:2013F000314609F1D70014F09FFA012088F8000066E3012088F8130062E398F80D1098F8D8
:201410001600012900F010000DD130B10020707130684108B0790EF02BFC9AF800000021DA
:2014300014F07EFA11E050B14FF4A17009EB0003306842084946DFF8940613F0EDFD9AF882
:2014500000000122002114F067FA012089F86600484610F096FD09F166010120887188F8AF
:201470000F002DE3012088F8100029E3287888F80E00012088F8140022E398F812100129BC
:201490001DD198F8001001294DD098F81610090704D40E208BF80C00072100E20021421887
:2014B0006B5C567A33436B5452781A4009EB0103491C082983F8FD20F1DB0921EFE198F8B0
:2014D0001610090758BF0E2058D5002142186B5C567A33436B5452781A4009EB0103491C8C
:2014F000082983F8FD20F1DB48460EF057FDDDE2002142186B5C567A33436B5452781A403D
:2015100009EB0103491C082983F8FD20F1DB022088F81500D4E298F81200012804BF98F83E
:201530000000012806D13D208BF80B0001208BF80A00C5E29BF800000128FAD015F8010BBC
:201550008BF8030002224FF489702946484414F0F3F901464FF48A700222484414F0ECF98D
:2015700001208BF800009BF802000028E1D10C2195E198F81600C00658BF122040F19182AC
:2015900048460FF005FF91E228788BF80B00F02100208BF80A000AE198F81600810707D457
:2015B0001121084208BF0F2000F07B821A22F6E009F16601097C012902BF09F16601497CB3
:2015D0000F2911D009F16601497D0A0003D009F16602527C22B109F16602127F012A05D1E7
:2015F000400758BF0F2064D52322D8E021B109F16601497C012904D009F18601897A012974
:2016100005D1400758BF0F2053D52A22C7E02878697800EB0120B081E978A87800EB0120F1
:20163000F0816979287900EB01203082E979A87900EB01207082287A3075A97A687A00EB30
:201650000120F082297BE87A00EB01203083A97B687B00EB01207083297CE87B00EB012008
:20167000B083A97C687C00EB0120F083297DE87C00EB01203084A97D687D00EB01207084CA
:201690004FF4AA7048440490F08A0390307D0290BAF802000190708A0090338AF289B18930
:2016B00048460DF07FFB38B198F81600400758BF0F2040F1F68171E0F08909F186018880FE
:2016D000308AC880708A0881022089F886000020488009F16601BAF82E00C01DC88309F101
:2016F0008600BAF82C108088884201BF09F18600C088BAF82E10884206D109F18600BAF849
:2017100030100089884217D009F16600407D28B109F166010F208876FE21C0E0FC21484651
:201730000EF060FD708A0090338AF289B1899AF8000014F0EDF8C3E10021B0E0A878E978F1
:2017500000EB01262879697900EB0124A879E97900EB012705F10B000490A3B2687AA97A4F
:2017700000EB012080B20390B2B2287A0290BAF802000190B8B200906978287800EB012024
:2017900081B248460DF00EFB58B198F81600400758BF0F208DD548460FF090F81E220F214F
:2017B00034E009F1860000218680C4800781484605B0BDE8F04F11F0C1B9287820706878E0
:2017D0006070012070727BE198F81700C00758BF162040F1668109F16600407C16281ABFC4
:2017F000BA79012A232210D0002818BF01280BD00F281EBF09F16600007F01281EBF09F160
:201810008600807A012807D12A221621484605B0BDE8F04F10F04ABF6978287801F007010A
:2018300008402870797B08401CBF411E0842F8720DD0400703D5B87B08B1042003E0F97A2C
:201850000220014201D0F87201E04008F9D1F87AB97A884204BF0020F872F87A08B938813D
:201870001CE0BAF82E00C01D3881F87A042803D148460FF02CFEA0830123F87A3871A28B2E
:20189000B97B10F0E3FC0146208B884205D3A28BB97B3879012310F0D9FC788018214846C7
:2018B00005B0BDE8F04F0EF09DBC6978287801F0070108402870F97A08401CBF411E08428F
:2018D000F8720DD0400703D5B87B08B1042003E0F97A0220014201D0F87201E04008F9D199
:2018F000F87AB97A884204BF0020F872F87A10B93881B87A0BE0BAF82E00C01D3881F87A23
:20191000042803D148460FF0E2FDA083F87A3871A28BB97B3879012310F098FC0146208B51
:20193000884205D3A28BB97B3879012310F08EFC7880387B40F02000AFE02878697800EB3F
:2019500001206082E978A87800EB0120E0826979287900EB01202082E979A87900EB0120C5
:20197000A082A18AE089884288BF0846B97A042904D1B0F5296FD8BF4FF42960E28BE0839D
:201990009042B87A14BF01250025042803D148460FF09DFD04E0A089E18A884288BF084617
:2019B000A28BA083904214BF012100212089628A238B2943904288BF1046984214BF0122F1
:2019D000002242EA01052083A28BB97B3879012310F03CFC0146208B884205D3A28BB97B9D
:2019F0003879012310F032FC78806189208A628B814288BF01466183914214BF012000203F
:201A100005438A4232499AF80020096801EB4211628B8041121DC00F0A7610B1484611F049
:201A30001FFB9DF80000142810D145B1E08B0090638BA28B218B9AF8000013F065FF48468B
:201A500005B0BDE8F04F15210CF0D0BA1DB1387840F008003870387840F0200015E028782E
:201A70000F2809D0122804D0142808D016280ED026E00020307123E00120307220E03878CB
:201A900040F00200387040F01000387018E0387B40F00200387340F01000387310E09DF87C
:201AB00000008BF80C0048460FF0C0F840B905B0BDE8F04F074800784FF480410AF09AB899
:201AD00005B0BDE8F08F00BF30250020FDE900009C2500206E4F00202DE9F04FCD4C04F1E2
:201AF00028012046ADF1240D0FF012FB04F14C0004F158010BF0C4FA206208B913F000FFDF
:201B100004F164050021284613F0F6FE04F17C004FF47A720023C549E5620FF033FFCF4970
:201B300004F1A0004FF47A7200230FF02BFFCE4904F1C4004FF4FA7200230FF023FFCB4DAA
:201B500005F1180005F10C010BF09AFAC849A86013F002FAC74EA8684FF4E0213246521E6C
:201B700011F030FAA8684FF4E021324611F02AFAC14EA8684FF0C0513246521E11F022FAC5
:201B9000A8684FF0C051324611F01CFABB4905F12400C82200230FF0F5FEB948002168603F
:201BB0004FF080400EF03AFC00274FF008084FF6FF73DFF8D4926062B24EE387022227649D
:201BD000494610204FF4FA6386F8018006F0A2F8102003224FF4FA63494606F09BF8AB4807
:201BF000AB4915233A460090102006F093F801258DF81D508DF8205044F6C74005908DF880
:201C10001E70DFF890928DF81F704FF48162042305AD10204946009506F07CF80DF11D0041
:201C30004FF48062012300904946102006F072F80DF11E0040F20242012300904946102097
:201C500006F068F80DF11F0040F20342012300904946102006F05EF808A80090494640F2CA
:201C700006420123102006F055F8DFF82C931020494606F04FF8207811F0DCFDC749024619
:201C9000102006F047F8C64910204FF0FF3206F041F8C44910204FF0FF3206F03BF81020EB
:201CB000494606F037F8C0491020042206F032F804F13000B060307811F0BCFD024670781A
:201CD00006F1160543460090B8490195102006F1260502950C36039606F01CF8B44904F172
:201CF0004402102006F016F8207811F0A3FDB1490246102006F00EF8207811F09BFDAE498B
:201D10000246102006F006F8606A3946ACA30A4611F05DFFB946DFF8A4B2A06AD44A49461F
:201D30004FF0FF3313F0E4FD061CF6D04846049007A904AA06A811F0B1FA78B9BDF818007E
:201D5000102807D120789DF81C10884202D1049800F0A4FE049808B113F0D0F9F00FC0F06F
:201D7000AA80A2E0E06A054613F0BEFD854208BF4F4602D0876811F073FD381C00F09580A6
:201D90003888401E00F08880401E69D0801E4FD0001F24D0083840F085807868B4F80C8029
:201DB000057849464A460AF009FAB0FBFBF101FB0BF1401A824635B10090606A04214A46D4
:201DD00082A311F004FFA949CDF800A0102042464B4605F09FFF786811F042FD62E07A6853
:201DF000BD78616A1078BDB1012D0CD0022D07D0032D18D1002808BF78A30ED07CA307E0C6
:201E100088B981A309E0002808BF83A305D086A3009002E00802002088A308464A46022189
:201E300011F0D5FE7A681046D6E7C046C14D01007D686A884FF6FF70904233D08A49102051
:201E5000012305F067FF68B36868298810F0EAFD6A888449102005F05DFF23E0E14D0100FE
:201E7000B87800F0A5FB1DE0D14D0100E00F00208D2901000E0005800E000010414C010071
:201E90008D50010020090020BD8401108666010065F0000059500000786800F0FFFD786822
:201EB00013F02CF9384611F0DBFCE06A13F018FD00283FF457AF2078710816D301216171E3
:201ED000A4F81290A78AA4F81090A589A4F80E90391FADF81A1011F0ADFC614900900DF1D6
:201EF0001A032A46102005F015FFB0084BD3E069676B401CE061781C10F0030F60632FD115
:201F1000E178A06B01292CD0401C0127A0630621206AE7703A4610F04DFD606A02214A4651
:201F30004AA311F054FE606A4CA503214A462B4611F04DFE606A04214A462B4611F047FEEF
:201F5000606A05214A462B4611F041FE606A06214A462B4611F03BFE10F0CCFFA06B03E05B
:201F7000A06B68B1401CA063216A032808D1C4F838900846C4F834904A46062110F01AFD1F
:201F90003C4813F0DCF8F008FFF4C7AE206A07214A4610F00FFDC0E675D60000BD4F01002A
:201FB000CD420100A5460100A5490100890F010001450100518801103181011040420F0008
:201FD000424C452043656E7472616C0050617373636F64653A20256400C046C0426F6E64D7
:201FF0002073617665207375636365737300C046426F6E642073617665206661696C65640C
:202010003A20256400C046C0426F6E64696E6720737563636573730050616972696E672043
:20203000737563636573730050616972696E67206661696C3A20256400C046C050616972DC
:20205000696E67207374617274656400446973636F766572696E672E2E2E00C000C046C08E
:20207000D52C010025AB0010B17F011075330100070000C0A80200202DE9F84F5FEA000A43
:2020900027D1002012F03EFB23E050460DF057FE62E2317C012940F07E80C078002877D002
:2020B00098F80000400088F80000B8F802004000A8F80200B8F804004000A8F80400B8F8E4
:2020D00008000001A8F808000120307750460EF0F5FB0AF16606707D002800F064824FF45E
:2020F00089700AEB00094FF4A2700AEB0004717C4FF4C6700AEB000B00290AF186080AF178
:20211000EC050AF10607DFF8A404C2D0012946D0022931D0032957D0062900F0A480072973
:2021300000F01E82082900F0F180092900F00F810A2900F0B3800B2900F0CA800C2900F0D2
:2021500013810F2900F04981112900F06A81122900F03881142900F0CE81162900F06C8158
:20217000182900F09D81F02900F00082FC2926D0FE2900F0048284E7317C012985D1C078ED
:20219000002800F0828150460EF098FB1621F1E1B888F18B10E050460BF0B0FCDCE1317C91
:2021B00001290DD1C07800281CBF012088F80A008CD1B888B8F80C10884200F09581F1E116
:2021D00050460CF07AFDC7E1317C012941D1807850B10020B071A078012805D10020A070D4
:2021F000002150460DF0FEFFA87B01280AD10020286068600621012088F80E00504610F01B
:202210009DFC66E7E87B012818D150460EF056FB002088F80E000120307050460FF0B1FEBB
:202230000120B07100206873697A387806291ABF00221A21002213F06FFB4AE799F8050003
:2022500001286FD0308B401E308380B200284CD0A8E150460BF072F93074F08A308300204E
:20227000A873E8739FE1307C01280ED1A87A01281FD150460EF022FB002028722873E87209
:20229000A873A872E873687323E750460EF0A2FD3074F08A30830020A87284E1307C012841
:2022B0000DD1E87A012802BF002088F80E000B21A4D0308B401E308380B2B0B172E150464E
:2022D0000EF0D5FE3074F08A30830020E8726AE1317C012916D1807808B103218EE7308BC4
:2022F000401E308380B20028E8D1297A3878012903D1222113F014FB29E10022222113F092
:202310000BFB24E150460DF07BFB25E1307C012814D1287C02280AF1FD0204D1397800206B
:2023300013F0DAFAD2E6308B401E308380B200280CD13978222013F0CFFA08E150460DF0C0
:20235000E3F83074F08A3083012028742AE1317C012905D1807810B1B88B3883B6E694E085
:2023700050460DF01BFEF7E0307C01280AF20D1121D1087801280DD14878012809D1B9F8EE
:20239000020000900020CA78B9F80030397813F09FFA9BE6308B401E308380B2002810D183
:2023B000B9F8020000902220CA78B9F80030397813F08EFACBE00120887050460CF0B8FC1F
:2023D0003074EFE0317C012903D180780028E0D15BE050460EF0B4FFBEE0307C01281CD11C
:2023F0006078012809D1207F0F281CBF002012F089F900206070002100E7A078012806D18D
:202410000020A0702322504610F050F961E6207801283AD100202070EDE750460AF0C4FA73
:202430009AE0317C012903D1C078002821D12CE050460DF0E4FD8FE0307C01282CD19BF8C1
:202450000C00810648BF1821D6D4C10712D5207F16281CBF002012F055F99BF80C0000F089
:20247000FE008BF80C0000233978607F00220AF03DFB2BE6810708D500F0FD008BF80C00C6
:202490000023397800221A20F1E7308B401E308380B200285BD085E0504609F0DBFD5BE0CC
:2024B000317C012922D1C078C0B19BF80C009BF80B1059B9810610D500F0DF008BF80C0070
:2024D00000209BF80A2039781346D0E700F0DF008BF80C0001208BF80600F7E57988BBF8B6
:2024F0000800491C88425DD1282143E01821504609F0B0FD30E0307C01282AD19BF8000013
:202510004FF4B3710AEB0105810614D500F0DF0001078BF800000BD500F0F7008BF8000035
:20253000288B0090AB8AEA8A698A387813F0ECF900202870CAE5810704D500F0FD008BF8DC
:202550000000F5E7308B401E308380B250BB222110E050460BF04AFD3074F08A308321E0A9
:2025700050460EF063FB0128E4D01BE0407AD0B199F80610504611F020FE012013E0B07EA8
:202590000F280CD1FC21504610F0D8FA608900902389E288A188387813F0BAF902E0002072
:2025B00012F0B0F80020BDE8F28F00BF5C4D00202DE9F041D54C014620790FF248380A09B7
:2025D000ADF1300D80F071814909C0F0E58194F90220CD49002865D108460078B2F1FF3F7C
:2025F00028D1E078012800F0D78101200025E0700221D1A3606A65702A4611F0E8FA606A20
:20261000434603212A4611F0E2FA606A042143462A4611F0DCFA606A052143462A4611F007
:20263000D6FA606A062143462A4611F0D0FA10F061FCB1E1012104EBC2052171E8356F78A8
:2026500011F0F8F88DF8220000268DF823608DF82460AD1C8DF8257029680DF126000160A2
:20267000AB888380CE490DF12202102005F052FB606A0221CDA3324611F0A9FA676A2846B1
:202690000EF0E6FD034603213246384611F09FFA606A0421324612F035FC66704FF0FF306E
:2026B000A07079E1022840F077810846A289617A678A00781546002970D0BA4B491E33D05E
:2026D000491E00F0DB80491E03D0491E00F0AF8062E119461020012305F01CFB002800F05E
:2026F0005B81A07A02281ABF401CC0B20020A07204EB8000006F0090606A02210022AEA303
:2027100011F065FA606A0321002212F0FBFBA07A2018807D009000230190A3490293A28902
:20273000102005F0F7FA37E1104612F0BBF878BB194610202A46012305F0ECFA002800F007
:202750002B81284612F0AEF8071C15D1E18F4FF6FF7004F13C07884240F01E8124200BF06A
:2027700011FD0028786000F01781C749002213460FF008F97D8002E0786812F0E2FC4FF446
:202790007A70388078684FF47A7110F04BF903E128460FF04FFF04218CA3C9E0002F00F07A
:2027B000FB80207A012800F0F780E679207846B3104612210023012213F086F80028049068
:2027D00000F0EA80618A0127ADF80C10A179ADF80E7000260170A5898DF8146020788DF8A3
:2027F000156011F027F8A949009003AB2A46102005F090FAC5B29DB103A8122113F060F8E7
:202810000BE0ADF80C7011F015F8A14900902A4603AB102005F07EFAC5B2002D40F0BC8049
:2028300001202072E07980F00100E071B4E00326267110F0FFFF02462B461320954900900E
:20285000102005F067FA606A0221002263A311F0BEF9606A43460022314611F0B8F9606AAD
:2028700004210022434611F0B2F9606A05210022434611F0ACF9002060728DE04FF4C870B1
:202890004FF44877ADF81A000026ADF818504FF41674ADF81C708049ADF81E6006AAADF8F5
:2028B0002040102005F036FA76E000284CD1E078012871D094F902006278401C41B2606A74
:2028D0008A4225DDA170491C002248A30091022111F07DF994F90200656A04EBC000EA3045
:2028F0000EF0B6FC034603210022284611F06FF9606A0521002240A311F069F9606A024648
:2029100044E0C04600C046C020090020080200204FF0FF31A17043460022022111F057F9A5
:20293000606A03210022434611F051F9052139A3606A02462CE0C046446973636F7665723E
:20295000696E672E2E2E00C0022825D1607A04281ABF401CC0B20020626A607278B1401ECD
:202970000BD0401E07D0401E03D0401E0ED12CA306E02FA304E034A302E039A300E03DA309
:2029900010460521002211F022F9626A06211DA31046002211F01BF90CB0BDE8F081C04655
:2029B000D5A50000B17F011069070100436F6E6E656374696E6700C0504859207072656655
:2029D0006572656E63653A20257300C0525353492043616E63656C6C656400C044697363A4
:2029F0006F6E6E656374696E6700C04644657669636520256400C046436F6E6E6563742013
:202A10002D3E00C03C2D204E657874204F7074696F6E00C0446973636F766572202D3E0030
:202A3000446973636F6E6E656374202D3E00C0465365742050485920507265666572656E57
:202A50006365202D3E00C046436F6E6E656374696F6E20557064617465202D3E00C046C029
:202A7000546F67676C6520526561642052535349202D3E004741545420526561642F577298
:202A9000697465202D3E00C07D4C01005B5101005F510100E51401107D1501102DE9F84373
:202AB0000546C44C28782179913800F067811F3800F01281203840F0A581A878666A677879
:202AD0000FF20838002800F0EA80401E42D0001F0FF2EC2909D0401E00F0B580401E00F0D4
:202AF000AC80801F57D0BDE8F883687808BB01230227628A237268892771A08122B904F1C9
:202B10007C0012F01CFB666A304639460022BEA311F05DF8646A281D0EF09AFB034603215F
:202B30000022204611F053F80820FFF741FDBDE8F8834FF6FE70A081002727710221B5A327
:202B50003A463046677111F042F8687803214B460090A2E00025E57030460221B1A32A46DE
:202B7000009711F034F8607870B1606A03212A46B1A311F02CF8206A072101220FF01AFFC4
:202B900004F1C40012F0DBFA4FF0FF3005212A464346A0702DE12B69287B1A18521E00E031
:202BB000C3189A4240F22E8113F8010B0028F8D01978022918BF0329F2D1401E5B1CC0B29D
:202BD000022836DB41109A4233D91E78F02E02D15E78FF2E06D0801E491E03F10203C0B2A1
:202BF000F1D126E095F80490082F05F1050880F2098177B104F1EA063D46404631460622F1
:202C100011F060FA002800F0FD806D1E06F10806F3D14246136804EBC700E830811C0B6087
:202C300092888A807F1C80F80190FEB26670BDE8F883012808BF5B1CB3E7E878022182A36D
:202C500000903046BAE0002727714FF6FE70A08167716782042627724FF0FF336672A88834
:202C7000A3700FF0E7FC606A02217CA33A4610F0AEFFA8790090606A03214B463A4610F066
:202C9000A6FF606A31463A4612F03CF9606A06213A4612F037F9052143463A46A9E068893B
:202CB000A082E81C0EF0D4FA034601210022304610F08DFF606A022100226CA310F087FFDF
:202CD000606A05210022434610F081FF04F1A00012F035FABDE8F883022948D16978606AF4
:202CF00016293DD029790B2929D0012902D1297A0A2924D02979132915D0012902D12A7A7E
:202D1000122A10D07E290BD07F2906D0607900282DD0284606F0ACFE29E0298956A321E0C6
:202D3000297A59A31EE0012907D0A1795AA3491CC9B2A171491EC9B20AE05BA307E0297989
:202D5000012903D0E96809785BA301E05EA3297B00910022042110F03AFF0020207206E067
:202D700029795DA300910022042110F030FF297905F1080012F0A4FDBDE8F88368780E3811
:202D90002AD0801E3AD02E383CD1A8780C2839D1E978606A81B90321002254A310F017FFF8
:202DB000E879012814BF56A057A00090606A042157A303E008020020032159A3002219E0F8
:202DD000526561736F6E3A20256400C0446973636F766572202D3E00A88841F205418142A2
:202DF00010D1A86890F903000421002251A340420090606A10F0EBFEBDE8F88308200021DD
:202E100006F0FAF8BDE8F883436F6E6E656374656400C046436F6E6E656374204661696C9B
:202E3000656400C04465766963657320466F756E6420256400C046C03C2D20546F20536587
:202E50006C65637400C046C0506172616D205570646174653A20256400C046C04469736354
:202E70006F6E6E656374656400C046C0496E697469616C697A6564004D54552053697A6505
:202E90003A20256400C046C046432056696F6C617465643A202564005772697465207365B2
:202EB0006E743A20256400C05772697465204572726F7220256400C05265616420727370EE
:202ED0003A20256400C046C052656164204572726F7220256400C046415454205273702086
:202EF00064726F7070656420256400C05048592055706461746520436F6D706C657465009E
:202F100032204D62707300C031204D62707300C043757272656E74205048593A2025730074
:202F3000504859204368616E6765206661696C75726500C052535349202D64423A2025644B
:202F5000000070472DE9F04FC54C20780E46F10BADF1340DC9036DD1B0085DD2606AA16AB7
:202F7000720807D2F00828BF86F0040680F02B82002029E2858861B904F11800C74A009072
:202F90004FF6FF710223012012F096FC0146A16219B304A800900027019702230293FF22A6
:202FB0000392228B284608AB03F034F958B99DF821009DF82020A16A12EB002204D0498912
:202FD00028460EF0BDFFA16A228B08463B464FF6FF7112F06DFC0146A162206A00291CBF3A
:202FF000012186F001061FD168B14368616A5BB18888002201219847206A676A4368B8881E
:20301000032100229847616A888811F061FE11F05DFB86F00106D6E10020014603F0A4FFB6
:2030300030B1012186F00206207808F0E3FDCAE10221F7E70AF0F4FB0028099000F0C18107
:2030500005462878B03800F05081401E00F044811F3840F0B181A878801F00F03981C01EB9
:2030700000F01E81401E57D0401E33D0401E00F02A81801E40F0A281687806281FD1284675
:20309000808812F011FC071C19D0A07B401E12D0401E0ED0401E12D1002140F209400A4639
:2030B00001F0D2FF284681883878052212F0F8FB05E0A988F8E7A88879790EF0B9FE206AA5
:2030D000002800F07B814368002B00F077816A780221DFE011F08CFE002800F06F81276A26
:2030F0000FB1386878B9286900280CBFE0690120698912F0D1FB002800F060816889012175
:2031100012F0C6FB5AE1286900903C6869892A7B6B7BE81CA04751E168784FF0000A0028F1
:2031300040F0A280A8794008C0F09E80606A002840F09A800DF1120051460E2212F00BF8DE
:20315000A88812F0B1FB5FEA000800F03781686900285DD05146814606220A9109F1110036
:2031700011F056FB20B34846062211F051FBD8B999F8100009F1110B57460B907F1C58465E
:20319000FFB28BF8007010F09FFC0A280BDA914B0B9A0101A1EB400158188079824202D179
:2031B000002FEBD100E01FB901200A9057466F610A9850B909F111010DF11200062211F044
:2031D00031FC99F810008DF818000A9801281FD06F69EFB1387C07F1110106228DF81800BF
:2031F0000DF1120011F01EFC08F10C0008F10601062211F017FC08F1060007F11101062222
:2032100011F010FC387C40F0020088F805000AE098F8050008F1060106228DF818000DF1E4
:20323000120011F0FFFBA8799DF81F10C0F3800008438DF81F00A879000905D39DF81F00B4
:2032500040F008008DF81F000DF11200294603F08BFE38B92078022108F0CCFCB1E0C04684
:20327000600B00204FF0150A11F0CAFE206A002800F0A4804368002B00F0A080A8886A78CE
:2032900001219847BAF1000F00F09880206A032152464368A888984790E0C0467468010008
:2032B000E878291D002209F0E5F90A2880F28680410001EB800005F10C0225300421C0B218
:2032D00007F0F6FA7AE0A888297B0BF053FB75E0A8880DF001FD71E0287900286CD16888B9
:2032F000E9882A890EF02CFE66E02879401E26D0083802D0743853D059E068781A284BD0E0
:203310006888804611F076FE022850D12889012201280AD16889032807D1E868807820B93A
:20333000404611460EF09DFA0246206A00283ED04368002B3BD040460521984737E02B7ADB
:20335000688805F10807082B814625D111F052FE022821D1688900210EF083FA8046607DDB
:2033700090B1484612F0A0FA70B119490B784BB94179831D012201F001010846194611F0AA
:2033900020FA01E001202075206A28B143681BB17888052142469847688811F099FC06E099
:2033B0006A8811F027FE0146104610F0B9FB297905F1080012F084FA012002D0284610F013
:2033D000CDFF86F40046B0B20DB0BDE8F08FC0465A4F0020520C00202DE9F84FDA4DDFF866
:2033F0006C832868DA4F807CDFF8689311F052FC296804460020487104F12E0A28680EF089
:20341000F5FC012060711C2598F80100401C88F8010080200BF062FB20607969C160CE4879
:2034300001894900AAF802105146C07940008AF80000BAF804004000AAF80400BAF808000D
:203450000001AAF80800204610F008FF0520A081204611F0E7F8386812F016FA062210F8D6
:20347000081FC1F3801184F82E11811C4FF49470204411F0D7FA3968B84F09680020087149
:2034900041F62202A1793868694342520022A179694301444A80A17969430844426099F88B
:2034B0000200400609D5AE48008841F20A4188420CBFAC48AC48C4F89C012046D4F89C1125
:2034D0008847A27939686A4311448873A1793868694308440021C173A1793868694308449B
:2034F000807B8AF80B0094F8960108B911F00AF9A17938689D4E6943084494F89611491E15
:2035100001740022A17938686943084400214174A1793868694301444A82A179326802EB64
:203530004112694301444A61A1796943084490498161A07909F0F0F8A279316852018850E6
:20355000A07940010A5822B90721204610F035FEF5E008441F2202763068A179DFF814B2DA
:2035700000EB411000214176DBF80000A17900EB011012F085F9A179DBF800203068DFF842
:20359000F8B102EB011200EB41114A6004F16801A27900EB421252680A60A2795201825867
:2035B0008A60DBF8141091F800C094F806E05FEACC714CBF102100215FEA8C724CBF2022E8
:2035D00000225FEA4C734CBF402300235FEA0C7C4CBF4FF0800C4FF0000C1143194300EB93
:2035F0004E104CEA010141F00F0101723068A17900EB41100B2141723068A17900EB4110B6
:20361000042181723068A17900EB41105B49097801291CBFDBF828100978C1723068A179F9
:20363000626A00EB4111CA60A17900EB4110A16A01743068A17900EB4110A16A090A4174B0
:203650003068A17900EB4110A16A090C817408214B48007808F0CEFA2168A2793868CB68EC
:203670006A4302449360CA680A61CA688A60A17969430844017B01F0EF010173A1793868FE
:2036900069430844017B01F07F010173A179386869430844017B01F0F00141F00201017309
:2036B000A179386869430844417B01F0F00141F0010140F6C4134173BAF804203068A1792E
:2036D0005A43DBF830301B6800EB4111D21AA2F516724A61A17900EB4110C17C01F0F0011F
:2036F00041F00401C174A1793868694308442168486099F8010080061BD54FF497702044B6
:20371000408F1B2801BF4FF497702018808F1B280BD14FF497702044C08FB0F5A47F04BF8F
:20373000B4F86E01B0F5A47F03D0142120460CF059FD144908200870A07988F80200BDE899
:20375000F14F00F021B800BF184F0020684E0020AC4B002030250020844C0020DC2100209B
:20377000504F0020130301002D1001009C2500205C4D00208C4E0020C0670100734F002077
:203790006E4F00206F4F00202DE9FE4FDFF85493D9F804601EB9BDE8F74F12F06DB8307877
:2037B000DFF844A3D14FDFF8488301281CBF0228042841F64C5B05D0402818BF802800F095
:2037D000B78088E111F0DAFB0028FAD0307805F015FF0446656815B9002010F093FF98F899
:2037F000010000287CD002F00BFF11F053FA01900068009001464668204609F025FD0228D1
:2038100047D02178022902D004291FD063E10521397018B912F02CF85844A8602869C17E51
:2038300001F0EF01C1762869C17E41F08001C1762869C17E01F0F00141F00201C176B06872
:20385000AC4908182969086202206DE00621397018B912F00DF85844A860A7480068807C39
:203870000FF088F92869C17E01F0EF01C1762869C17E41F08001C1762869C17E01F0F00165
:2038900041F00201C176B0689A4908182969086249E000980078802811D108203870974824
:2038B0000078012803D098F80100022801DB012002E0DAF8280000787169C8720AE0072053
:2038D0008E4938700978706901291CBFDAF828104978C1720198807988F802000098F6E07A
:2038F000002C14D02078A6420DD102281ED0042805D181480068807C0FF03CF916E00020B9
:2039100010F000FF12E0022802D0042804D0E2E005203870022007E006203870764800681E
:20393000807C0FF027F9042089F802002046CEE098F80100002800F0928002F061FE11F094
:20395000A9F9019000680290446898F8020011F0A1F9009011F018FB0721084254D099F886
:20397000020005F04BFE054602996E6809F06CFC022849D02978022902D004291ED040E0BE
:203990000521397018B911F073FF5844B0603069C17E01F0EF01C1763069C17E41F08001DE
:2039B000C1763069C17E01F0F00141F00201C176A068504908183169086270E006213970B6
:2039D00018B911F055FF5844B0604B480068807C0FF0D0F83069C17E01F0EF01C1763069BE
:2039F000C17E41F08001C1763069C17E01F0F00141F00201C176A0683E49081831690862B7
:203A100061E0002010F07EFE00980199884224D002980078802811D1082038703748007866
:203A3000012803D098F80100022801DB012002E0DAF8280000786169C8720AE007202F49E1
:203A500038700978606901291CBFDAF828104978C1720198807988F80200029837E011F09B
:203A700093FA072108423BD099F8020005F0C6FD054646F2A81428786E68022802D0042804
:203A90000FD02DE00520387011F0F2FE2118B06811F0EAFE18B911F0EBFE5844B0600220A9
:203AB00012E00620387011F0E3FE2118B06811F0DBFE18B911F0DCFE5844B0600E48006813
:203AD000807C0FF057F8042089F802002846BDE8FE4F08F0ABB9BDE8FE4F002010F012BE47
:203AF000BDE8F78F74250020C06701006F4F0020684E0020F0D8FFFF184F0020734F0020C7
:203B10002DE9F043CB48CC4D00781E24002885B007D0052808D0062800F09B80072818BFEE
:203B3000082800F083817BE1C44E3068006800F108090F2199F8000008421CBF00F00F01FB
:203B5000062906D002291CBF00F00F00012840F06D81062209F1020102A810F063FF99F842
:203B70000000B74FC0F3801800F00F0001283DD1062209F10801684610F054FF99F80000F1
:203B90004FEAD0196946484611F06AFED0B13868807C022818BF03285AD105F10D01684627
:203BB00011F05AFE002853D039680120C8720622707940F004007071694638680C3010F0A4
:203BD00031FF13E02878814510D10622691C684610F0B4FB50B12878717960F3820171711E
:203BF00006223868691C0C3010F01CFF02A9404611F036FE00282BD0706902A9001F0EF0E7
:203C1000F1FF002824D1294602A80FF088FDFF281ED03968897C60432C180A0018BF02293C
:203C30000BD0012918BF032912D12A5C7069611C001F11F00DFE10280AD0706902AAE11DED
:203C5000001F0CF00DFA062202A9E01D10F0EAFEECE07C4E3068006800F108090F2199F821
:203C7000000008421CBF00F00F00012875D1062209F10201684610F0D5FE99F80000724FA9
:203C9000C0F3801800F00F00012845D1062209F1080102A810F0C6FE99F800004FEAD0193F
:203CB00002A9484611F0DCFD10B33868C07A022818BF032851D105F10D0011F0C5FD002808
:203CD0004BD105F10D0102A811F0C6FD00282ED03868062202A90C3010F0A4FE707940F0B6
:203CF00004007071062202A9E81D10F09BFE13E02878814510D10622691C02A810F01EFBB4
:203D100050B12878717960F38201717106223868691C0C3010F086FE6946404611F0A0FD70
:203D300000284BD0294668460FF0F9FCFF2872D004FB00F83868817A05EB080459BB807C18
:203D500010F0A8FF074697F82E01022811BF032815F8081000F0010081425CD14FF494702F
:203D70003D1806222946601C10F0E8FA30B906222946364810F0E2FA00284CD0012087F82B
:203D90002E010622707940F0080070716946284610F048FE0EE0306915F80820611C001FFF
:203DB00011F056FD102836D030696A46E11D001F0CF056F906226946E01D2AE03868817A37
:203DD00049BB807C10F066FF074697F82E01022818BF03281FD16A46414628460CF015F899
:203DF000FF2818D060432C1804F10D0011F02CFD10B9607F01280ED187F82E8106227079A2
:203E100000F0F70040EAC800707169464FF49470384410F007FE316809680020087105E0D9
:203E3000002010F06FFC862011F00AFD05B0BDE8F08300BF6F4F0020381A0020D04B002022
:203E5000A0250020AC4B0020184F00201C6801002DE9FF47C44C0F460646F80B80F05981F0
:203E7000B80880F04681207BDFF80893B90F80F0BA80A07A002840F09A803809C0F0998026
:203E9000E07A20B10020E07205200FF0B5F800254FF00108B549657004F178002A4684F80B
:203EB000088011F03DF9607901281AD1A079C0B9DFF8BCA2DAF8000000283CD04846006883
:203ED000006B8047A1695346401A000BE0611968226A8018B0EBC11F98BF20622BD92562D3
:203EF00001E084F8058040F609002087A24994F845000A1D00F0F00040F0010084F8450035
:203F10001368658794F8440000F0F00084F8440023F002001060E5636FF002020A6004F12B
:203F3000380341F8103C08688008FCD30A60486840F002004860914A1068914920F00200B7
:203F5000A56140F400701060032341F8043C41F230038B604046086050238B6008604FF450
:203F7000CA638B60086041F80C0C022015600FF043F8112007F09EFE307C10B90E2007F031
:203F900099FE25726572A078012803D006F1400011F052FC7B4810F0BBFF7B490878F8B108
:203FB0000D7004F1D400042110F084FD18E0380914D2B80BC0F0CE8004F1280011F0BBF854
:203FD000061C08D0706830B17568F068B6F91C1000222023A84727F40057BBE00020A0727B
:203FF00027F00807B6E020B104200FF005F800202073B168088840F602084FF0000A80455A
:204010000AD0B0F5C15F07D00A8B4FF61F60104040F43470088306E00A8A4FF61F60104080
:2040300040F434700882A069D8B14D46686D016804208847A8B12868006B8047A1698142D0
:2040500026BF401A401E401A000BF060708AF168401840F6C411F06081422CBFB0F5FA7F2C
:20407000F160B5699DB14948A84210D094F8450010F00F0F0BD1718D08F10700884206D1AE
:2040900030466FF4807152464FF00073A847404904F17800524611F043F8A07958B10220FF
:2040B000ADF8000068460FF033FC84F806A0BDF80800A4F87400012060702079401C207109
:2040D00004F1240084F807A011F035F8002808BF47F0020702D0192010F0C2FE75692DB1B0
:2040F000514630464FF080630A46A84727F0005730E004F13005284611F01DF806F054FCD0
:20411000284611F018F827F0020708B147F0020720E011F08DFB014604F12C0011F00BF802
:204130000646B569A80810D27EB125EA0500B061084611F079FB706850B12A46F068B6F90C
:204150001C1075680023A84702E0084611F06CFB27F4804727B104F1D400394610F0AAFCF4
:204170000090BDE8FF87C046E006002069400100902500208C010010101004400000046084
:204190000C410440A99C00008C25002027E40000B99D00002DE9F04F09AFADF13C0D08907B
:2041B0000A92388809911E46ADF81800101C08BF002000F08481002700F101094FF0FF3A36
:2041D0004FF0010BB8466CE1252940F063811078521C0A922D2818BFADF8068005D158467A
:2041F000551CADF8060010780A9530281CBF4246434605D10A9908785A465B46491C0A91EE
:204210002A28CDF80080554616D1306804930A99CDF808A0C01C4B1C20F00300001D306033
:2042300050F8044C0A93002C0878009418D5ADF806B06442009413E044460AE0610001EBC3
:20425000C40140180A99A0F1300408780094491C0A91302801DB3A28F0DBCDF808A0049350
:204270002E282BD10A9908782A2801F101010A9111D13068CDF80880C01C20F00300001D05
:20429000306050F8045C002D48BF454608782B46491C0A9111E0454643460AE0690001EBE2
:2042B000C50140180A99A0F1300508782B46491C0A91302801DB3A28F0DB02930AB122465D
:2042D00004926C2804D04C2818BFADF8048005D10A990878ADF804B0491C0A910BA9CDF891
:2042F0000C800FAB07916428059300F08B80692800F08880BDF818C0752872D078286ED0DE
:204310006F286AD0702850D063283DD073281ED009980A990128A1F101010A9115D96B49A5
:204330000C68B5F1FF3F03D0A84288BF6D1C00D8099D029508A80AA932466B46A047C71920
:204350000A99039801F1010974E040462AE030680A99C01C20F00300001D306050F8040C00
:20437000BCF1000F01F10109014608B955A00146079110F0C1FC0390B5F1FF3F5BD0A84250
:20439000C4BF281C039056E03068C01C20F00300001D306010F8040C5D468DF82C000A993A
:2043B0000395584601F1010945E0082035680490E81C20F00300001D306050F8041C0822E7
:2043D00010230FA80AF0EEFE401E0790402101700A99079801F1010929E0082302E01023AF
:2043F00000E00A230A99306801F10109C01C20F00300001D306050F8041CAA42BCBF2A1CB8
:20441000049210E00A99306801F10109C01C20F00300001D306050F8041CAA42BCBF2A1C1E
:2044300004926FF009030FA80AF0BCFE0790059D281A0390009C241ABDF8065000945DB963
:2044500006E008A8202109AA0FF0EBFB009C7F1C641E0094F5D503980546401E039075B9C1
:20447000BDF80600E8B10098401E009019D408A8202109AA0FF0D5FB00987F1CF4E7079845
:20449000411C0791017809AA08A80FF0CAFB03987F1CE1E708A809AA0FF0C3FB7F1C09F1C4
:2044B00001094A460A9812F8011C401C00290A907FF48AAE089808B14146017038460FB031
:2044D000BDE8F08F286E756C6C2900C0B4670100BB482DE9F84F0025BA4CB849056094F843
:2044F000E200002800F06581012800F02F81B64E02283CD0032840F05C8151F8250CD4F84B
:20451000B8100029A0F5C060C4F8D400B8BF49420028B8BF4042814226DA4FF08057D7F88A
:20453000A4014568B4F8BC0030214FF47F42082300903046A847D7F8A4014568B4F8C000AF
:2045500004214FF4F802122300903046A847D7F8A401B4F8D070456820214FF440620A235F
:2045700030460097A847012584F8D8501CE151F8258C10F0DFFC2F4600B901273946934FDC
:2045900038680028FCD0B146012609F10409D9F82CA03E6009B110F0D3FCCAF30720C4F8EE
:2045B000BC0010F0C7FCAA4600B9B2463B68002BFCD0D9F800B0BAF1000F3E6001D010F087
:2045D000BFFCCBF38440C4F8C00010F0B3FCAA4600B9B2463B68002BFCD0D9F81C90BAF100
:2045F000000F3E6001D010F0ABFCC9F38120C4F8D000B8F5C061C4F8B81000F09C8094F8B3
:20461000D80068B9C4F8D410D4F8C000C4F8C800D4F8BC70C4F8C470D4F8D030C4F8CC3075
:20463000D4F8D410D4F8BC30002954BF02206FF0010004F1C802176801EB4101401841102F
:2046500000EB917107EBA1001060D4F8C810C4F8C43000291CDD1E293CDDD4F8CC0030B903
:204670003429B4BF15391E21C4F8C81025E02A29BABFD4F8C8000B381E20C4F8C800D4F803
:20469000C4003F28B4BF401C3F20C4F8C4001FE0D4F8CC00032812D011F10B0FC6BFD4F820
:2046B000C8000B30301CC4F8C800D4F8C4000028C4BF401E051CC4F8C450032508E011F17B
:2046D000150FC6BFD4F8C8001530301CC4F8C800C4F8CC504FF08057D7F8A401B4F8C43076
:2046F00030214FF47F424568374800930823A847D7F8A40104214FF4003211234568324813
:204710000096A847B4F8C860D7F8A40104214FF4F802122345682C480096A847D7F8A4010B
:2047300020214FF440620A23B4F8CC60456826480096A84701E084F8D85040F2FF50404513
:2047500002D8801C40452FD2082030E051F8251C1F4F4BF2F5204843060A3868C0F381401C
:2047700001280CD11B480068006880470DF0EAFE10F0ECFB3111C010484306EBE03694F82D
:20479000E50030B91448006820F07F408019460801E084F8E5501148310C0660012741606A
:2047B0000F4D8760287808B90B2000E0052084F8E40003F0E3F9BDE8F88FC0462D400C40FB
:2047D0002C500C40E00C002000A00C4000800C40B43F0050EC010010102009403C600C409C
:2047F00026670100F0B5A24CA24D2778A248A34BA34AA4490D2F83B041F2064600F22F81B8
:20481000DFE817F035012D012D012D012D010E004E002D019600D900D9000A010A011101D2
:2048300099494C881480022C03602FD940F20442A41A29D0641E29D040F2FB32A41A1CD0D2
:204850000A3C012C19D940F6F632A41A1ED0641E1AD0641E012C19D9241F15D0641E15D03D
:20487000641E11D04FF47E72A41A0FD0641E0BD0E41E09D0641E012C0DD88A7B4E80252A07
:204890000CBF2722521E8A73804945E000200FF039FF852086E000200FF034FF842081E0E0
:2048B0007B494C881480022C036037D940F20442A41A30D0641E31D040F2FB32A41A23D052
:2048D0000A3C012C20D940F6F632A41A26D0641E21D0641E012C21D9A41E13D0A41E1AD0DD
:2048F000641E1BD0641E16D0A41E0BD040F2F632A41A13D0641E0ED0E41E0CD0641E012C4E
:2049100002D910E0634907E08A7B4E80252A0CBF2722521E8A736049016045E000200FF038
:20493000F1FE85203EE000200FF0ECFE842039E05A498978FF295DD003601C24584B1B682D
:204950006143194440F204444B8813801B1B012B544A4FD94FF47F741B1B17D00A3B012B7A
:2049700017D940F6F6341B1B16D09B1E012B84BFDB1E012B10D99B1E012B78D940F2FD34EC
:204990001B1B09D05B1E012B03D907E041F2024301E04FF4A0534B80026005E000200FF0D0
:2049B000B1FE852010F04CFF287803B0BDE8F040012107F01FB94888108040F20442801ABD
:2049D00055D040F6FC72801A15D008384FD04FF47F72801A22D1344C344A246834480068F1
:2049F0000023CDE900230834324B24680222A04731490880F7BD092F10D1304800684089E3
:204A100060B12F4800780BF0C1FD0021002010F007FF00202070F7BD4888108000200FF0A3
:204A300071FE85201FE04888108002280DD940F20442801A1BD040F6FC72801A05D0083893
:204A500015D04FF47F72801AE8D1887B801CC0B2B528A8BF6620887300204880F7BD002048
:204A70000FF050FE8420BDE8FE4010F0E9BEF7BD6F4F00206E4F0020204F00202551010036
:204A9000504F0020142500209C4C0020D1DD00006C4C0020E933000025E60000684E002063
:204AB000DC210020F9840000F04E002002000080EC4E00200D310100424F0020A425002039
:204AD000714F00202DE9F44FA84F81463868407901280C461E4604D004200EF029FB012854
:204AF00001D10C2040E1A2480078092818BF0A2804D00B281CBF0C280D2801D1212033E179
:204B100043F6FD70A9F1040181423CBF211F814280F0D880A145C0F0D5809DF8000018B16E
:204B3000012840F0CF8002E00A9800286DD0300018BF012E03D0022E18BF032E65D10B9DB5
:204B5000280018BF012D03D0022D18BF032D5CD111991098814258D30C9840F67B41821F6B
:204B70008A423EBFBDF83420921F8A424DD2BDF83410814249D3BDF83800B0F5FA7F44DAB6
:204B9000BDF83C100A3940F6774291423DD2BDF83410401C49004843BDF83C10B0EBC10F5B
:204BB00033D20DF0AFFF012808BF3A201FD09DF80000002804BF0A98002826D001F018FEB5
:204BD0005FEA000808BF092011D0396898F80600887432463868A0F8069004819DF8001000
:204BF000817240200A9906F0A3FF08B10B20BBE008F1610140460DF069FB08F12404A07D18
:204C1000022803DA40460EF05FFA5BE03868DFF864B1DFF86491DFF864A1C572280018BFFB
:204C3000012D07D1E807386854BF4946594606220C302BE00AF10D0010F006FE70B1E80703
:204C500054BF4946594628460FF0AFFF002839D0E80754BF49465946062208E00AF1070174
:204C70000AF10D0010F0D8FD06220AF1070138680C300FF0D7FE05F001008AF80000E80705
:204C900058BFCB46062259460AF101000FF0CAFE9DF8000050BB88F82E614FF4947008EB69
:204CB00000090A99062248460FF0BCFE022E18BF032E1BD10A9A06F0010150460BF0A5F8DB
:204CD000FF2801D112204FE01E2148430AEB000505F10D0010F0B8FD002804BF687F0028F4
:204CF00004D10622264948460FF09CFE10F090FD60600FF069F92060BDF83400E081BDF8E4
:204D10003C006082BDF8380020823868C07C20720220A0720020A08110F076FD0C2190FBC8
:204D3000F1F10C2202FB1100401DE075042009F0D5FE396808600120487198F8060001F039
:204D50004BFE0B48007870B90E48007810B10E480EF0F4FF3868807C0DF00CFF0449062019
:204D70000870FEF711FD0020BDE8F28F184F00206F4F0020344E00202C4E0020381A00204F
:204D90001C680100784E0020CC4700202DE9FE4F0F46994C0168616241688068A06097482C
:204DB000616080479648616A01606168DFF870B24160A168DFF8648281609249002FA24655
:204DD000C16069D03D68E8788DF8080028798DF8090002A810F014FDA86808B18A490160F0
:204DF000E86808B189490160894C2878207068786070A878BE68A0703178E17073686360C4
:204E100072696261B168A160F168E160316921612E697B68A6621868A0616869E062A869ED
:204E30002063287F84F834002A6AA263786886681EB900200FF066FC00E026627868C06859
:204E500018B900200FF05EFC00E060627868406818B900200FF056FC00E0E0612869A062D8
:204E7000F86881680E6806B96B4E6A494FF001094E60C66881F801902EB900200FF042FCC5
:204E9000F868454601E045462E6000685C46FE68A0617068E06106E000200FF033FC4FF020
:204EB00001095C46454628685E494668621C04F114035020B04710B1286880688047DAF803
:204ED00004008047594F0026834669467E7056483E700422206130460EF05CFA0098B0F5C9
:204EF000801F0CD020B90EF0D9FD04F01BFC08E00DF06CFA0FF00AFF0420788001E00EF021
:204F1000CDFD4B4FB0462868C7F808808069A660804778604748468080F8009014200FF032
:204F30007FFFFF211422A06210F015F9E01CFF21022210F010F914200FF072FF3E490860A1
:204F500008681422314610F006F93046FBF732FD48460EF021F939480188FF2906D10221BC
:204F700001807822001D314610F0F5F8032010F043FC042010F03CFC052010F035FC06204B
:204F900010F02EFC07200BF05DFB2D4E0820307006F1400010F020FC0BF0F0FD363605204E
:204FB0000A2132460FF094FA38B14046C0F10901401C06F8011B0A28F8DB2F6821490920E2
:204FD0000DF10A0201AB7D68087010204146A847A06AE2690A270A309DF80A1000F8011B85
:204FF000DAF808107F1EF7D1921E5846E261884702F064FABDE8FE8FF40D002041490010B5
:20501000F84400205059010079390100FD48010070100020D01200207B150100901300208B
:2050300074110020B1400100054A01008C1300206825002088130020B0250020180F002016
:20505000600B0020C6250020FEB51446A64DA84A03460026A3F58063192B1BD8DFE813F0CD
:205070003A0133012B0123011A0115010D010701FC00F000E800E000CE00C2001A00B80004
:2050900096008000790064005B00510047003A0030002500282880F29980022940F096803F
:2050B000218810F095FB06461CE1012940F019812178284641750121017507F0B7FD11E178
:2050D000012940F00E81002C00F00B8128461330024614E0102940F00481002C00F00181B6
:2050F00028465C30102221460FF09CFCFAE0012940F0F780002C00F0F4802A46921D1046C6
:20511000B9E0262940F0ED80002C00F0EA80284626226C30E7E7012940F0E380002C00F07B
:20513000E0802846401DA6E0602900D144B9012940F0D780002C00F0D48028460D309AE011
:2051500005F19200214660220FF06CFC01206873C8E0012940F0C580207810F035FBC1E0BB
:20517000012940F0BE802178022900F3BA80284600F10C0211702178022918BF301C02D1EE
:205190001021C172012010F01BFBABE0072940F0A880611C684606220FF0DEFA20786946E0
:2051B000324607F067FA04460A2C0FDA10F004FB38B9204604F0F6F80EF038FE0BF0DEFC65
:2051D00090E0284601212C3001558BE0022689E0012940F086802178042980F28280284609
:2051F0000E305EE001297CD12A462178D07B0028D17377D12078012874D1DFE72846027BED
:2052100001296ED1022A04D02178072901DB102904DD022A65D12178102962D1C17261E07B
:2052300001295ED121780A295BDA2846093038E0012956D12178022953DA2846083030E04D
:2052500000294ED110F0B8FA10B90FF0CFFCB3E728460121103024E0042942D1216823480F
:2052700088423ED32B4603F11C0001603AE0012937D128460A30217813E0012931D121781C
:2052900002292EDA2846C01D0BE0102929D128464C3027E7012924D12178022921DA28461E
:2052B000001D01701EE001291BD12178042918DC2846C01CF5E7012913D12178022910DAA0
:2052D0002846801CEDE702290BD1218810461530018007E0012904D121780229D8BF101CA7
:2052F000DFDD18263046FEBD600B00203F420F00610B00202DE9F04F0C46E00789B00CD524
:205310000FF0D2FC30B10021816084480068010018BF804784F00100FCE02007804D40F184
:20533000878080480068807C0FF0B4FC82464FF494709AF82EB10AEB000800200790814680
:2053500078480068807CFF2804BF00200FF0DAF94246594628460AF058FD06461E2070431C
:2053700000902F184146584610F07AFAA8B1FF2E2BD00098285C40F0020BF81D079007F12F
:2053900001080BF001008AF82E0106224FF49470414650440FF046FB17E0414658460FF062
:2053B00004FC002818BFFF2E0FD007F10D0010F04BFA40B907F10D0010F046FA002804BF5F
:2053D000787F012801D14BF0020B56480068C07A022818BF032806D105F10D0010F034FA0F
:2053F00008B905F1070900200AF1060506905B46288E000905900022E88D0490A88DCDF800
:20541000049040080390CDF80080079802900020297810F0CDF9DAF89C01434988422878AB
:205430000CBF0021012108F09DFD84F0080071E0E00610D500200690059004900390029020
:2054500001900090002300220021022010F0B0F984F010005EE0E00413D5E91D05F10D0053
:2054700010F0DAF931484268314800784FF480510CF022FD10B18E2010F096F984F48050C0
:2054900048E0A00505D50FF055FD2A4901200860FEE7600504D507F0D8FA84F4806039E0AB
:2054B000600405D5812010F07FF984F4804031E0A0042ED5204D286810B100200FF022F99D
:2054D0004FF0FF3028600BF033F81C4D296820316846096888471A4841682D68194A0091D3
:2054F0006B468168019100210291016909680391017B00688DF81010ADF812002D6812491D
:205510001248A8471249086003F024FA84F4005000E0002009B0BDE8F08F00BF204F00206B
:20553000381A0020184F002013030100784E00206E4F0020FC002043044F0020F04E002058
:2055500098100020D42400203C120020E0210020EC4E002010B50B7884074CBF43F002035C
:2055700003F0FD0304064CBF43F0800303F07F0304074CBF43F0080303F0F70384064CBF12
:2055900043F0200303F0DF030B70AA21084203D0107840F00C0003E018B9107800F0F3008A
:2055B000107010BD2DE9F0410F461546387802281E464FF0000866D1786801784078069C28
:2055D00001EB002080B221001CBFB0F5285F0B205ED14FF42851401A0CD0401E1ED0401E5F
:2055F0004BD0401E22D0401E28D0A23845D023383FD048E0F8680FF0B0FD079A80B2031B5C
:205610009342B8BF021B92B21019162803DA3280F86801190EE04FF00D0838E0F86800881B
:20563000022131802870000A687030E0062030800622F96828460FF0F5F928E0F868B0B179
:2056500008213180018829700188090A69704188A9704188090AE970818829718188090AF3
:205670006971C188A971C088000AE8710FE030800DE04A480078C00705D401203080F868CB
:205690000078287003E0A6F800804FF001084046BDE8F0812DE9FC4B0E46804630780027BF
:2056B000022891461D4675D17068017840780A9CDFF8E8B001EB002080B24FF42851401ABE
:2056D0000AD0401E2DD0401E50D0401E3CD0A3385ED0233858D05DE0F0680FF03EFD80B210
:2056F000A04204D32919162903DB0D2753E0072751E0F3682A46494618190FF093F92C1961
:20571000F068A4B2C4F11602002120440FF023FDDBF8040000283ED0026810003BD00021A7
:2057300021E07CBB022DE0D199F8000099F8011000EB0120F1680880DBF8040058B30268D5
:20575000100028D001210EE0E4B9062DCDD1F068062249460FF066F9DBF80400D8B102687C
:20577000100018D003214046904714E054B9012DBBD199F80000010013BF0128F168087087
:20579000802708E00B2706E09BF80000C00701D4032700E001273846BDE8F68B0813002012
:2057B0002DE9F04F8246DAF800600C465FEA0208ADF11C0D14BF00214FF0FF3106F148007C
:2057D00083460FF0EDFF002808BF0B2000F00681002565708448F460B8F1010F057004D058
:2057F00065700220F4600DF01DFE2078012840F2AB80801E012868D9801E012833D9801E9F
:20581000012800F2DF8010F013F806904FF0805000F5EE77D0F8DC01A378466A0093217858
:205830002846062908BF0120019001200290A068228AE1686368B047814606980FF0F4FF79
:20585000B9F1000F40F0C080B8F1000F02D00FF0B9F802E050460EF024FB002800F0A48004
:205870003868806A2AE00FF0E3FF06904FF0805000F5EE77D0F8DC01012306680093A168D1
:20589000A27860682478AC46042C08BF9C466346B047814606980FF0C7FFB9F1000F40F0FC
:2058B0009380B8F1000F02D00FF08CF802E050460EF0F7FA002877D0386840688047494941
:2058D000C1F8B0510D6081467EE00FF0B1FF06904FF0805000F5EE76D0F8DC01E38A8769BD
:2058F0000093E0680190208B0290A0780390207D04900121059122782846022A08BF081C3C
:20591000E1786268A368B847814606980FF08CFFB9F1000F58D1B8F1000F02D00FF052F8A6
:2059300002E050460EF0BDFA00283DD03068006A80475FEA000947D13068C569A168E28A87
:205950002369E078A847BEE70FF072FF06904FF0805000F5EE76D0F8DC01E38AC76800937D
:20597000E0680190208B0290A0780390207D2946049001200590257805B901460846626846
:20599000A368E178B847814606980FF04DFFB9F1000F19D1B8F1000F02D00FF013F802E0CB
:2059B00050460EF07EFA08B9142017E03068406980475FEA000907D1306802692169E078C8
:2059D000904780E74FF0FF39B8F1010F02D002200DF012FB58460FF02FFF484607B0BDE896
:2059F000F08FC04650450240C52500202DE9F04F0128ADF1140D40F0E980DFF808B2DBF8F7
:205A1000DC00012840F0DF800220CBF8DC000FF0C3FE029001200CF02DFA5FEA000806D064
:205A30000120CBF8DC0002980FF0B2FED0E00FF0ABFE4FF0000903906748684CC0F800906F
:205A5000A06A016801208847012818BFCDF8009004D148460AF070F8012000906048614FB0
:205A7000C0F80090386811200FF082FA00280CBF4D46012510200FF07BFA08B145F002053D
:205A90000F200FF075FA08B145F004050B200FF06FFA20B12068544E016B308888470A20B7
:205AB0000FF066FA20B12068504E016B308888474F48012606602068816945F020008847D3
:205AD0004C4806600FF04EFA00F001010191400814D2206A8168484888478246BAF1040F6B
:205AF000F7D0BAF1010F04D1206A42684248032190474249086820F003000860484600F092
:205B100083F823683868986B8047019801280CD0BAF1010F04D1206A4268374831469047D6
:205B30003649086840F0030008602D48066020684169284688470B200FF01AFA20B12068EA
:205B5000294BC16A188888470A200FF011FA20B12068264BC16A1888884725480660032297
:205B7000CBF8DC20234BC3F800902068416B284688470128F9D1386804200CF07BF90446BB
:205B900015481F490660386808688009FCD30098012802D1304609F0CFFF0FF0D1F90820A0
:205BB0000CF068F907460398CBF8DC600FF0E8FDFBF7ECF902980FF0EBFD57EA040018BF39
:205BD0004FF0FF3804E06FF0040801E06FF00108404605B0BDE8F08F0C400940B8010010EA
:205BF000000222432C2009408E6301008A6301002820086080010443004003402422084030
:205C100014100940E00C00202DE9F84FDFF8F4B10746ABF13500DFF8E0910068800880F05C
:205C3000D98071480068006880477A490831D1F8008000254FEA28725FEA985102F1010246
:205C50000AD2C0F13E0110F10A0F4FEAE101D8BF08218A42B8BF0A1C644BD3F87C11C1F34F
:205C700004611629A8BF20391B68C3F30443162BA8BF203B9A465118162905DA11F10A0FAB
:205C9000B8BF6FF0090100E01521594B594E01F01F0242F4F8521A80326812F0030F18BF02
:205CB0000125D20828BF45F002050FB145F004054A4692F90730C31A052B04DA9379AB427D
:205CD00008BF918866D0DFF834E10F28A0F10F0C25DB0CEB0013A3F1F00C4FEA2C26072E75
:205CF00088BF07263446062C88BF06245EF82470042303EB84037446E358DB1B03F0FF049C
:205D1000EF0824BFC3F307273C44AF0824BFC3F307473C446F0828BF04EB136401E000244E
:205D300026465EF826E0EF080EF0FF0324BFCEF307273B44AF0824BFCEF307473B446F08A4
:205D500028BF03EB1E63A4B2ACEB0626AAEB01017443002904F1800403EB1423D8BF0121F6
:205D7000342408F0FF074C43A1B27943B1FBF3F14FF6FF738B4238BF191C802889B29180EB
:205D900005DA10F1800FB8BF6FF07F0000E07F20D07195711A4800681F2910604FF00000A8
:205DB00008D340F2FF128A4206D24908401C8A42FBD301E01F219180134F0F39090940EAB2
:205DD000C10047EA0001CBF8FB1F0026CBF8FF6FBDE8F88F0D490E4F4A4608200F60921DD7
:205DF0001070BDE8F88FC046EC0100103C1100506E62084024220840942500209C130050C9
:205E1000082009403500094000E7A48030100940FDFDA400AC3F0050F8B57E4E04463068BB
:205E3000C06E0025002840F0F18010200EF0F8FF31680028C86600F0E7808F6E1022214635
:205E50000EF0F0FD30680178002940F08E80C16ED7F8982011F80CCF02F001030CF0010C36
:205E7000634518BF0023520843EA4202C7F89820C2F34003D1F800C0CCF3400C634506BF35
:205E9000530803F00103002322F0020242EA4302C7F89820C2F38003D1F800C0CCF3800C73
:205EB000634506BF930803F00103002322F0040242EA8302C7F89820C2F3C003D1F800C06F
:205ED000CCF3C00C634506BFD30803F00103002322F0080242EAC302C7F89820C2F3002369
:205EF000D1F800C0CCF3002C634506BF130A03F00103002322F4807242EA0322C7F89820AA
:205F1000C2F34023D1F800C0CCF3402C634506BF530A03F00103002322F4007242EA4322A8
:205F3000C7F89820C2F38023D1F800C0CCF3802C634506BF930A03F00103002322F4806272
:205F500042EA8322C7F89820C2F3C0230968C1F3C0218B4206BFD10A01F00101002122F4B4
:205F7000006242EAC121C7F89810816E91F89520120718D5C26E5268C2F3C0029AB1C17822
:205F900041F00801C170D7F8980023490840C7F898003068C06EC16821F48071C1604908AD
:205FB0004900C16003E091F8330001282AD0617808001CBF7878002808D13068C27812070D
:205FD00008D5002904BF7978002903D03168052008711CE06168C1F3800141B997F895109C
:205FF00011F0040102D10121017110E00AD00078002819BF38782178397820780FF0BCFB9A
:20601000054604E0182502E0132500E011252846F2BD00BF304F0020FEFEFFFF2DE9FE4FFC
:2060300004468946206846684FF49A7004EB000AB0680FF019FC002840F0DC8020680169E9
:2060500048460FF095FB04F1820780463878002804F12E0540F6C41B6DD0218978880FF0D4
:2060700083FB02903878029902280CBFBAF83000A888484301900BFB00F0009020680099EB
:206090000069091848460FF0EFFB00284DD000983A89A8EB00010BFB02F3B1FBF3F003FB33
:2060B000101101B1401C02FB00F12289029B9A1880186081FA880198101801EB0009387858
:2060D000012849D104F1860120460EF0C7F87889E189608400202077E08360890818A0813B
:2060F000AB883889B989984204BF2B89994202BF7A89EB889A4207D00909009142087B8953
:20611000A17900200FF02CFBA888AAF83000387928703889A8807889E880B8892881204622
:206130000EF080FA0220387016E0387801281CBF00200EF0E7FAA8880BFB00F1B8FBF1F2A7
:2061500090B201FB128109B1401C80B2218941186181A98801FB00F9206801690BFB0912F8
:20617000B26003782949802B0AD1C2600B6BAA881B680BFB02F2D21A7369A2F516725A61A1
:206190000278402A2FD1628A02FB09F24FF4C873B2FBF3F2521CC4F818906261B3689A1AB3
:2061B000B2606369DAF8002002EB430273695A61174A3B781268022B09D1A3792F7802EBF1
:2061D0004313D3F814900BFB0799C3F81490A379096B096802EB4312AB880BFB03F3591A00
:2061F000A1F51671D161B1688160E87AA87220460CF04BF96189A0890FF0B6FAE189814235
:2062100038BF0120AAF82E00BDE8F78FC06701009C2500202DE9FE4F0D468146287AC0066D
:2062300093461E464FF000080CD558460FF094FA030000F0E3800A22294648469847002838
:2062500080464DD128780C9F0D9CDDF838A002281AD168680178407801EB002080B24FF412
:206270002051401A012810D9801E3AD0401E14D0FD3876D0401E00F07D80401E6AD0401E8B
:206290006FD0401E00F09180A7E0002C2AD1E868017839800278416883E0002C22D101205A
:2062B00038800021E868007830706889401C80B20FF04EFA398860B10278921C51183980AB
:2062D000418971704189090AB17002784168F01C68E0081D388004220021701C0EF03BFFA6
:2062F0008EE0002C62D1E8680488042038803470200A70700DF1020120460FF029FA0500CD
:206310001ED0EC68BDF802204FF6FF796B4649460FF0CEFA40B92B786A683B4802210FF07D
:2063300013FA08B9ADF80090207802280AD161680222301D0EF076FB3888801C388001E00F
:20635000ADF80040BDF80000B070BDF80000000AF07055E054BBE868016848460EF018FDB6
:2063700002E01CBBE8680088022139803070000A707045E0E8680EF0F0FE82B2A242B8BF26
:206390004FF007083CDB944208BF002206D00AEB04019142B2BF5246121B92B23A80E968A1
:2063B000214430460EF03EFB2AE014B14FF00B0826E0E868072139800178317041787170AF
:2063D0004188B1704188090AF17001793171C1887171C088000AB07112E058460FF0B0F994
:2063F000844658B10F980290CDF804A000943B46324629464846E047804601E04FF00E086B
:206410004046BDE8FE8F00BF626801002DE9F0411C4615468C4208BF854282BF0023002244
:20643000E5E0002C08BF002D0AD100290EBF00286FF000006FF0000100F0E1F8BDE8F081D0
:206450005FF000085FF0000E002C08BF8D429CBF2C1C0025070C47EA01470E0CB44208BF8B
:20647000BD429EBF5FEA044444EA15445FEA0545070A47EA01670E0AB44208BFBD429EBF2A
:206490005FEA042444EA15645FEA0525470847EAC1774E08B44208BFBD4200F29380870803
:2064B00047EA81778E08B44208BFBD427CD8C70847EA4177CE08B44208BFBD4266D8070965
:2064D00047EA01770E09B44208BFBD4250D8470947EAC1674E09B44208BFBD423AD88709AA
:2064F00047EA81678E09B44208BFBD4224D8C70947EA4167CE09B44208BFBD420DD8E6011C
:2065100046EA5566EF01B14208BFB84201D3C01BB14158EB08085EEB0E0EA60146EA9566B1
:206530004FEA8517B14208BFB84201D3C01BB14158EB08084EEB0E0E660146EAD5666F0137
:20655000B14208BFB84201D3C01BB14158EB08084EEB0E0E260146EA15762F01B14208BF62
:20657000B84201D3C01BB14158EB08085EEB0E0EE60046EA5576EF00B14208BFB84201D360
:20659000C01BB14158EB08084EEB0E0EA60046EA9576AF00B14208BFB84201D3C01BB14191
:2065B00058EB08084EEB0E0E660046EAD5766F00B14208BFB84201D3C01BB14158EB08082B
:2065D0005EEB0E0EA14208BFA84201D3401BA14158EB08085EEB0E0EA34208BFAA423EBF54
:2065F0002D0A45EA0465240A89D3734642461E4617460B46024631463846BDE8F0817047D5
:206610002DE9FE4FDFF8D89199F8010008B90EF079F80FF02DF94FF0000A00F6C4140027A2
:20663000704E714D11E038460EF034FB417951B13268817902F80A100AF101015FFA81FAFD
:206650002146FFF7EBFC7F1CFFB228788742EADB99F80100824505D000200EF053F8822033
:206670000FF0EEF899F8010001281DD1002701E07F1CFFB22878874210DA38460EF00AFB54
:20669000044660790028F3D03168A079097888421CBF00200EF036F8A0799FE000200EF002
:2066B00031F882200FF0CCF899F80110306809F079FB306800780EF0EDFA00270068D0F849
:2066D0000480012501E027466D1C7C1C55450ADA3068405D0EF0DEFA00684068D8F8081010
:2066F00080688142EFD0FFB2002F1EBF2746F8B200284FF4D07802D13068047817E0306823
:206710000478012510E0415DD9F8042008FB01F308FB04FC13446244B3F86231B2F86221E2
:20673000934238BF0C466D1CFFB2BD42EBDB4FF6FF7008F071FB019040F6C41520460EF010
:20675000A9FA0027006840680290019840086843009017E020460EF09DFA01680A78802A1A
:2067700003D1DBF81430009A5A610978402908D11E498079096801EB4010009901F5A06169
:20679000C1617F1C574528DA3068C05D8442F8D0D9F8041008FB00F21144B1F86221CB899C
