:20000000004000206116010001C9011001C9011001C9011001C9011001C9011001C90110E6
:1C00200001C9011001C9011001C9011001C9011001C9011001C901103FC9011089
:20003C0080B54FF4FC720FF278011A480CF09CFC194800210170012141740221C17601BD6C
:20005C002DE9F0410FF25021144838220B684C688D68CE680F69D1F814C0D1F818E0D1F824
:20007C001C80036044608560C6600761C0F814C0C0F818E0C0F81C8020312030521EE5D1F7
:20009C004A688B68CC680968016042608360C460BDE8F081480400215903002100C000210F
:2000BC00410500217D0500212D06002170B51D46004C204787B2000010B5014800470000FD
:2000DC00D509000070B5614C6148254650358047022809D14034E1885E4A914204D1E97C5E
:2000FC00890601D4911DE18070BD70B557495A4A084650300378002B10D08379012B0DD181
:20011C00037C5B09DB0709D0097D544DC1746C7F20202043687790476C7770BDFF21C17420
:20013C00904770BD10B54E48484C804702280ED121464031CA88474B9A4208D1CA7C5209CE
:20015C00D20704D0227D920601D49A1DCA8010BD70B53E4843494030C07C4009C00707D032
:20017C003E4D41482C8B2043288388472C8370BD884770BD10B53B48344CAC388047214609
:20019C0053310A789309DB0705D04034A2730A7803231A430A7010BD2C4940310871182876
:2001BC0012D004DC0A280BD00B2804D10AE025280CD02A280CD02D4980004018C0687047DE
:2001DC002B4870472B4870472B4870472B4870472B48704770B504461C484E252D5CAE09AB
:2001FC00F60716D0067D3007000F052803D00120054202D00DE00220FAE7E80905D07006D1
:20021C0003D54868800F012803D05B085B0052085200062B03D01020022B11D011E0FB20F7
:20023C00024002232046FFF741FF002807DAC100611A2039497E1422114200D1002070BD93
:20025C00024303432046FFF731FF70BD4401002137CB000004140000EBC80000A800002142
:20027C00F5B4000053AD00002020000080DF00001D050021F9040021CD040021930400210F
:20029C006D04002110B5034CFFF716FF20680028FAD110BD0011044068610000F825F965B0
:2002BC00F9754500450045002600260057A3520052004C00401F401F401F3F000000000053
:2002DC00304000400140034007400F404F40CF40CF41CF43CF47CF4FCF3FCF2FCF1FCF0F6C
:2002FC00000000000000000000000F00080000003F00000040003F000000040068000E0093
:20031C00DC00060043001A00050000000000020000000000000000000400C00000000400B3
:20033C00C000000007000000000000000000000000000000000000003040004001400340A6
:20035C0007400F404F40CF40CF7FCF6FCF5FCF4FCF3FCF2FCF1FCF0F00000000000000009D
:20037C0050C00091007070C00091007082312100319110B10070018101B100A1823132910D
:20039C0010B101911110418141227740F106007051C0019130181039833108D01831416FD1
:2003BC003100319110B18314141683680070251050C00091F4C340C12014036F3110410497
:2003DC005082F0229840512622C082312100319110B163393110410482C08231210031919B
:2003FC0010B163393110A2C082312100319110B150101531051405920070676452C03110A6
:20041C0031066131C1026A6412C13110213971065131E1026A64007051C0019101CCE2C0CC
:20043C006A64676411C1C2C06A6450B054B0007140804022D6440022C94060B08180111EC9
:20045C00C944007054A064B0F0800022C9404012B09032B070C1DF6811C122C16A6470C1C0
:20047C00E46851C00191E2C0823160820200329110B130C2EE68538253395339B16460C347
:20049C00F4688012B09032B00070676401C122C16A6401C1C2C06A645382B164C012B09074
:2004BC0032B00070676472C281C06A6422C111C16A6402C011C16A6462C031C36A6462C3D2
:2004DC0011C16A6402C311C16A6453825339B164E2C36F6411221C4142C281C86A6452C24E
:2004FC0011C16A6472C2E1CE6A6402C281C86A6402C201C86A64B0C030690070676442C211
:20051C0001C86A6452C211C06A6472C2E1C06A6402C001C16A6462C001C36A6422C101C127
:20053C006A6462C301C16A6402C301C16A645382B16400708180111E5C4150B054B000712B
:20055C00408040225D4154A064B0F1800122514500700022514160B04E61000000000000AA
:20057C000000000000000000067305720B720E7250B00071818060B050A09280F0EFF1928C
:20059C0002936A6741228C458080F1C11004301601110114016CB561B661B761B861B9618D
:2005BC00BA61BB61BD61BF61C161C36126632D63F0C002043231412A121432160111211412
:2005DC00016CDA61C561E061C761CB61B561B561B561F461C561FA61C761CB61B561B56104
:2005FC00B561F461C561FA61C761CB61B561B561B561E761C561ED61C761CB61B561B56121
:20061C00B561CF61CF61CF61CF61CF61CF61C064CF61F964CF610665CF613265CF6174676A
:20063C00CF611166CF61C0644E65F964CF61066511663265CF618280E0DFF2926A67B0B044
:20065C00D661B1B00673057230B06C61D0CF6A6784C203C0C0C37C64207851788278E378B7
:20067C001579B6780062C0CF6A6784C203C0C0C37C64307861789278F3781579C678006250
:20069C00B0CF6A6784C203C0C0C37C6440787178A27803791579D678109221923292439281
:2006BC005492659256911FC0FF914039F00601101031101400927067CF61E3B054A0F08076
:2006DC0050221A4640800022BE461262E3A000C86091598150B0918041228E46A0CF6A6734
:2006FC0012828231823942398B641282F2062F101F312F141682D622334640C1346200C5AF
:20071C0020140D6F6D39DE10F4C34E0482C082312E006D39A2C082312D001A828A39FA0606
:20073C002082803180390BC00B18BC10AC18038239149B141082F0060110103110145181C2
:20075C0010140C14C622C94631D0C1266462021011C0013010C00118021882312100C126C2
:20077C00919103B013B063B053B041800122BE46B481C491D581B51C774E95186591F0803E
:20079C00102269428C623D9110B13E9110B1E08000228146E6228142E0B0951865910F926B
:2007BC005981F914F0805022114210228C464D6390CF6A6763B052A03082F2C0200402107E
:2007DC0011C0013010C00118021882312100C1269191919113B003B063B053B064B054B055
:2007FC00007141800122BE4663B064B0F08050221142B181C191D1819118619131B0A462D0
:20081C002967E0A059810582591480C0007163B0BA6A6962E3A0018262818231823D80EF61
:20083C00F19202936A6703A0007037824739873930828039F006021011C0013010C0011849
:20085C00021882312100C126819102B012B030824039F006021011C0013010C001180218E9
:20087C0082312100C126919103B013B063B053B0007153A062B052B041800122BE46A4816E
:20089C00C491D581B51CFE4E95186591F0801022F0428C62B481C491D4814518751C084FEB
:2008BC00F0801022F0428C623D9110B13E9110B1E08000221247E6221243E0B065910F92DC
:2008DC005981F914F0805022114210228C4630632967E0A0598105825914F0C0007162B038
:2008FC00226BF062A2808B64CF6112824239F2068B6050B00071CF6170CF6A674082418096
:20091C000122BE46A481C491D58195186591F18011228C46336B41800122BE46A481C491AB
:20093C00D581C51C1C4B95186591F08010223F438C6260CF6A67408241800122BE46B48169
:20095C00C491D58195186591F18011228C46506B41800122BE46B481C491D581C51CB44A55
:20097C0095186591F08010225C438C62E092D08200226B47C0B20070A080F022874330B033
:20099C0002C1623101C0A080001E8043F022814380F86031603981632010101A136F236E5A
:2009BC0011161216826B00702DE9F84FDFF81885DFF8181588F80000002008600921DFF891
:2009DC00100501700D2141804FF408718180DFF80405DFF8041501608A7EDFF80005027042
:2009FC00FF2ACB7E437008BFFF2B0D7F85704E7FC6708F7F0771C97F417115D1FF2D08BFE8
:200A1C00FF2E11D1FF2F08BFFF290DD1DFF8D0140A7802704A7842708A788270CA78C27025
:200A3C000A79027149794171DFF8B81402780A70FF2542784A7082788A70C278CA7002791E
:200A5C000A7140794871DFF8A014DFF8A004057045708570C5700571457100200880DFF888
:200A7C009014DFF89004466B70780870DFF8881430780870DFF88414B0780870DFF880142D
:200A9C0070690079401E0870DFF87814F0780870DFF87414B069086008B913F0FFF9F069DA
:200ABC00DFF86844206008B913F0F8F92068DFF86074006880472168091D38460968884793
:200ADC00DFF85004DFF850143862DFF850047862306A086008B913F0E1F9706ADFF8401450
:200AFC00086008B913F0DAF9DFF838B4DFF838649BF8040013F02EFD306008B900F046B9A0
:200B1C009BF80500DFF8247413F024FD386008B9306838E19BF80600DFF8144413F01AFDA2
:200B3C00206020B9306813F01DFD38682BE19BF80700DFF8009413F00DFDC9F8000038B91B
:200B5C00306813F00FFD386813F00CFD20681AE1DFF8A41309789BF80000DFF8DCA3891C06
:200B7C00484380B213F0F6FCCAF8080058B9306813F0F8FC386813F0F5FC206813F0F2FC30
:200B9C00D9F80000FFE0DC480078010000F00381BBF80210DFF8A4B3484380B213F0DAFCEF
:200BBC00CBF8040078B9306813F0DCFC386813F0D9FC206813F0D6FCD9F8000013F0D2FC37
:200BDC00DAF80800DFE0CC48007813F0C3FCDC49086098B9306813F0C5FC386813F0C2FC77
:200BFC00206813F0BFFCD9F8000013F0BBFCDAF8080013F0B7FCDBF80400C4E0BE4800787F
:200C1C001C21484313F0A6FCCE490860B0B9306813F0A8FC386813F0A5FC206813F0A2FCB7
:200C3C00D9F8000013F09EFCDAF8080013F09AFCDBF8040013F096FCC148A3E0AE48007851
:200C5C00400113F087FCC0490860D0B9306813F089FC386813F086FC206813F083FCD9F897
:200C7C00000013F07FFCDAF8080013F07BFCDBF8040013F077FCB248006813F073FCB1486C
:200C9C0080E09D480078000113F064FCAF490860F0B9306813F066FC386813F063FC206887
:200CBC0013F060FCD9F8000013F05CFCDAF8080013F058FCDBF8040013F054FCA0480068E2
:200CDC0013F050FC9F48006813F04CFC9E4859E089480078000113F03DFC9D49086010BB51
:200CFC00306813F03FFC386813F03CFC206813F039FCD9F8000013F035FCDAF8080013F085
:200D1C0031FCDBF8040013F02DFC8D48006813F029FC8C48006813F025FC8B48006813F084
:200D3C0021FC8A482EE0744800783021484313F011FC8849086070BB306813F013FC3868CC
:200D5C0013F010FC206813F00DFCD9F8000013F009FCDAF8080013F005FCDBF8040013F043
:200D7C0001FC7748006813F0FDFB7648006813F0F9FB7548006813F0F5FB7448006813F0DC
:200D9C00F1FB7348006813F0EDFB002013F086F84FF4804192E03168012008710022306839
:200DBC00057330684573306885733068C573306805743068457400203168C8723168487148
:200DDC00A0213068C180032101720720316848720020316888722821306841820121C1769C
:200DFC00002031684877316881F85E00012031680877316881F85D00396808713868057315
:200E1C0038684573386885733868C573386805743868457400203968C87239684871396886
:200E3C0088724FF420703968C88008818A7401213A68D17421680D7321684D7321688D7375
:200E5C002168CD7321680D7421684D7400212268D172012122681171002122685171216847
:200E7C00C8800881002088722168887405202168C8743948006880470546294800680068C0
:200E9C00804727490968091D00200968884719481C49C06809780088084330490880284657
:200EBC002F49096888470C212E4800F05DF80F4800F05EF800F060F84FF4005198F800006D
:200EDC00BDE8F44F0AF0FCBA6E4F0020044F0020604E0020084F0020B63F00502C4E0020EA
:200EFC00E81200503C4E00200C4F0020344E00206D4F0020B85E01007B4F00206B4F00200E
:200F1C00724F00206C4F0020F04E0020F44E00207C4B002071450100F84E0020814501006E
:200F3C00FC4E002008130020104F0020B0250020184F0020B425002084250020684E00205D
:200F5C00004F0020EC210020AC250020884E00208C4E0020904E0020080E0020544F002001
:200F7C000C0E0020F84D0020DFF800F0E5710110DFF800F01D6E0110DFF800F04D7101108F
:200F9C00B0B5174C241D20680004070C23D01248006800688047114991F90720824205DDF8
:200FBC0010F1800FB8BF6FF07F00C8718D88BD4210D80A68D4F8D40F801A801C1F2888BF16
:200FDC001F207F1B4008C7404FF6FF70EF19B84238BF071C8F80B0BDEC010010A42500209B
:040FFC003010094068
:20100000B41200001810000015AB0110FDB301106DC00110FDAE011099B5011000000000F7
:08102000000000002F00000099
:20102800B01200003C100000B1C00110A9BF011067C0011069B80110000000000000000035
:041048002D00000077
:20104C00B012000060100000BDC00110CDB30110D9BD01106DB3011000000000000000005B
:04106C002E00000052
:20107000000000003013002004000000000000000000000020000000E8C9011030000000E7
:2010900028100000381300200400000000000000000000000C000000D8CA011018000000C2
:2010B0004C1000004013002004000000000000000000000024000000F0CA01101800000046
:2010D00000000000481300200400000000000000000000001000000018CA01102C00000052
:2010F0000010000050130020040000000000000000000000200000006CCA011024000000BE
:20111000FFFFFFFF581300200400000000000000000000002800000090CA0110240000007D
:20113000FFFFFFFF601300200400000000000000000000001400000008CB011018000000FC
:20115000FFFFFFFF6813002004000000000000000000000058000000B4C9011034000000CA
:20117000FFFFFFFF701300200400000000000000000000001000000020CB01101800000098
:20119000FFFFFFFF781300200400000000000000000000001C000000B4CA011024000000C5
:2011B000FFFFFFFF801300200400000000000000000000003800000044CA011028000000ED
:2011D000FFFFFFFF881300200400000000000000000000005400000078C901103C00000062
:0811F00001000000A05E0100F7
:0411F80001000000F2
:0411FC0000000E00E1
:0412000000000F00DB
:0412040032000000B4
:0412080001000000E1
:04120C000C120020A0
:0412100000020000D8
:0412140000000000D6
:0412180001C90110F7
:04121C0000000000CE
:0412200000000000CA
:0412240008000000BE
:04122800000023009F
:04122C00BC100020D2
:0412300001000000B9
:041234002412002060
:0412380008000000AA
:04123C00B0110020CD
:0412400000000000AA
:0412440000000000A6
:04124800080000009A
:04124C00000000009E
:04125000000000009A
:041254000000000096
:041258000000000092
:04125C00010000008D
:041260002411002035
:041264000600000080
:041268000100000081
:04126C00A40F0020AB
:04127000000000007A
:041274000000000076
:041278000002000070
:04127C00000000006E
:02128000290043
:02128200010069
:02128400250043
:021286002D0039
:021288002E0036
:02128A002F0033
:02128C0001005F
:01128E00015E
:0812900003000000645E010090
:0812980000000000000000004E
:0412A0000000010049
:0412A4000000030043
:0412A80013C401105A
:0412AC008743010073
:0412B000B812000070
:0412B400B81200006C
:0412B8000000000032
:0412BC0024120020D8
:0412C000EF440100F6
:0412C4002000000006
:0412C800EC5D0100D8
:0412CC00FC5C0100C5
:0412D00029C101101F
:0412D400E72F0100FF
:0412D800A336010038
:0412DC00A1C7011095
:0412E000A3C701108F
:0412E4000000000006
:0412E8000F5E010094
:0412EC00245B01007E
:0412F0003C5B010062
:0412F4000C5B01008E
:0212F8000200F2
:0212FA000900E9
:0212FC000100EF
:0212FE000000EE
:0113000001EB
:04130400914401000F
:041308006526010055
:04130C00E5380100BF
:041310004D2A010061
:04131400172B010092
:041318009D2601000D
:04131C00A1E8000044
:04132000474601003B
:041324004100010083
:0413280015C70110D4
:04132C0025C70110C0
:201330002DE9F04F0D4685B0814615F8010B8DF800004FF49E7009EB00064FF4B0709DF818
:20135000001009EB00044FF4C670891E09EB0007152909F20D1B09F1E70809F1060ADFF82F
:20137000680700F29C83DFE811F00F019A031600440048007A039A03C3009A037D00D600F9
:20139000810088001701E901280204018403E802E8022F02A00209F1A00608222946304626
:2013B00013F054FE05460821304613F04BFE09F1980404222946204613F048FE042120462D
:2013D00013F040FE00214842484409EB010290F89F0082F8BF00491C0829F4DB09F1C70206
:2013F000314609F1D70013F029FE012088F8000066E3012088F8130062E398F80D1098F84B
:201410001600012900F010000DD130B10020707130684108B0790EF0F3F89AF80000002116
:2014300013F008FE11E050B14FF4A17009EB0003306842084946DFF8940613F08DF99AF859
:2014500000000122002113F0F1FD012089F86600484610F00CFA09F166010120887188F8B0
:201470000F002DE3012088F8100029E3287888F80E00012088F8140022E398F812100129BC
:201490001DD198F8001001294DD098F81610090704D40E208BF80C00072100E20021421887
:2014B0006B5C567A33436B5452781A4009EB0103491C082983F8FD20F1DB0921EFE198F8B0
:2014D0001610090758BF0E2058D5002142186B5C567A33436B5452781A4009EB0103491C8C
:2014F000082983F8FD20F1DB48460EF01FFADDE2002142186B5C567A33436B5452781A4078
:2015100009EB0103491C082983F8FD20F1DB022088F81500D4E298F81200012804BF98F83E
:201530000000012806D13D208BF80B0001208BF80A00C5E29BF800000128FAD015F8010BBC
:201550008BF8030002224FF489702946484413F07DFD01464FF48A700222484413F076FD73
:2015700001208BF800009BF802000028E1D10C2195E198F81600C00658BF122040F19182AC
:2015900048460FF09FFB91E228788BF80B00F02100208BF80A000AE198F81600810707D4C1
:2015B0001121084208BF0F2000F07B821A22F6E009F16601097C012902BF09F16601497CB3
:2015D0000F2911D009F16601497D0A0003D009F16602527C22B109F16602127F012A05D1E7
:2015F000400758BF0F2064D52322D8E021B109F16601497C012904D009F18601897A012974
:2016100005D1400758BF0F2053D52A22C7E02878697800EB0120B081E978A87800EB0120F1
:20163000F0816979287900EB01203082E979A87900EB01207082287A3075A97A687A00EB30
:201650000120F082297BE87A00EB01203083A97B687B00EB01207083297CE87B00EB012008
:20167000B083A97C687C00EB0120F083297DE87C00EB01203084A97D687D00EB01207084CA
:201690004FF4AA7048440490F08A0390307D0290BAF802000190708A0090338AF289B18930
:2016B00048460DF047F838B198F81600400758BF0F2040F1F68171E0F08909F18601888039
:2016D000308AC880708A0881022089F886000020488009F16601BAF82E00C01DC88309F101
:2016F0008600BAF82C108088884201BF09F18600C088BAF82E10884206D109F18600BAF849
:2017100030100089884217D009F16600407D28B109F166010F208876FE21C0E0FC21484651
:201730000EF028FA708A0090338AF289B1899AF8000013F077FCC3E10021B0E0A878E9789F
:2017500000EB01262879697900EB0124A879E97900EB012705F10B000490A3B2687AA97A4F
:2017700000EB012080B20390B2B2287A0290BAF802000190B8B200906978287800EB012024
:2017900081B248460CF0D6FF58B198F81600400758BF0F208DD548460EF02AFD1E220F21E6
:2017B00034E009F1860000218680C4800781484605B0BDE8F04F10F0FDBD287820706878A1
:2017D0006070012070727BE198F81700C00758BF162040F1668109F16600407C16281ABFC4
:2017F000BA79012A232210D0002818BF01280BD00F281EBF09F16600007F01281EBF09F160
:201810008600807A012807D12A221621484605B0BDE8F04F10F0A2BB6978287801F00701B6
:2018300008402870797B08401CBF411E0842F8720DD0400703D5B87B08B1042003E0F97A2C
:201850000220014201D0F87201E04008F9D1F87AB97A884204BF0020F872F87A08B938813D
:201870001CE0BAF82E00C01D3881F87A042803D148460FF0C6FAA0830123F87A3871A28B98
:20189000B97B10F059F90146208B884205D3A28BB97B3879012310F04FF9788018214846E1
:2018B00005B0BDE8F04F0EF065B96978287801F0070108402870F97A08401CBF411E0842CA
:2018D000F8720DD0400703D5B87B08B1042003E0F97A0220014201D0F87201E04008F9D199
:2018F000F87AB97A884204BF0020F872F87A10B93881B87A0BE0BAF82E00C01D3881F87A23
:20191000042803D148460FF07CFAA083F87A3871A28BB97B3879012310F00EF90146208B47
:20193000884205D3A28BB97B3879012310F004F97880387B40F02000AFE02878697800EBCC
:2019500001206082E978A87800EB0120E0826979287900EB01202082E979A87900EB0120C5
:20197000A082A18AE089884288BF0846B97A042904D1B0F5296FD8BF4FF42960E28BE0839D
:201990009042B87A14BF01250025042803D148460FF037FA04E0A089E18A884288BF084680
:2019B000A28BA083904214BF012100212089628A238B2943904288BF1046984214BF0122F1
:2019D000002242EA01052083A28BB97B3879012310F0B2F80146208B884205D3A28BB97B2B
:2019F0003879012310F0A8F878806189208A628B814288BF01466183914214BF01200020CD
:201A100005438A4232499AF80020096801EB4211628B8041121DC00F0A7610B1484610F04A
:201A300009FF9DF80000142810D145B1E08B0090638BA28B218B9AF8000013F0EFFA484618
:201A500005B0BDE8F04F15210BF098BF1DB1387840F008003870387840F0200015E0287862
:201A70000F2809D0122804D0142808D016280ED026E00020307123E00120307220E03878CB
:201A900040F00200387040F01000387018E0387B40F00200387340F01000387310E09DF87C
:201AB00000008BF80C0048460EF05AFD40B905B0BDE8F04F074800784FF4804109F006BD8B
:201AD00005B0BDE8F08F00BF402500208DE30000AC2500206E4F00202DE9F84F5FEA000AEB
:201AF00027D1002012F0E0F923E050460DF0EFFD62E2317C012940F07E80C078002877D071
:201B100098F80000400088F80000B8F802004000A8F80200B8F804004000A8F80400B8F889
:201B300008000001A8F808000120307750460EF05FFB0AF16606707D002800F064824FF499
:201B500089700AEB00094FF4A2700AEB0004717C4FF4C6700AEB000B00290AF186080AF11D
:201B7000EC050AF10607DFF8A404C2D0012946D0022931D0032957D0062900F0A480072919
:201B900000F01E82082900F0F180092900F00F810A2900F0B3800B2900F0CA800C2900F078
:201BB00013810F2900F04981112900F06A81122900F03881142900F0CE81162900F06C81FE
:201BD000182900F09D81F02900F00082FC2926D0FE2900F0048284E7317C012985D1C07893
:201BF000002800F0828150460EF002FB1621F1E1B888F18B10E050460BF048FCDCE1317C35
:201C100001290DD1C07800281CBF012088F80A008CD1B888B8F80C10884200F09581F1E1BB
:201C300050460CF012FDC7E1317C012941D1807850B10020B071A078012805D10020A070E1
:201C5000002150460DF096FFA87B01280AD10020286068600621012088F80E00504610F028
:201C7000A9FB66E7E87B012818D150460EF0C0FA002088F80E000120307050460FF0F7FDA8
:201C90000120B07100206873697A387806291ABF00221A21002213F0C9F94AE799F8050051
:201CB00001286FD0308B401E308380B200284CD0A8E150460BF00AF93074F08A308300205C
:201CD000A873E8739FE1307C01280ED1A87A01281FD150460EF08CFA002028722873E87246
:201CF000A873A872E873687323E750460EF00CFD3074F08A30830020A87284E1307C01287D
:201D10000DD1E87A012802BF002088F80E000B21A4D0308B401E308380B2B0B172E15046F3
:201D30000EF03FFE3074F08A30830020E8726AE1317C012916D1807808B103218EE7308BFF
:201D5000401E308380B20028E8D1297A3878012903D1222113F06EF929E10022222113F0DF
:201D700065F924E150460DF013FB25E1307C012814D1287C02280AF1FD0204D13978002021
:201D900013F048F9D2E6308B401E308380B200280CD13978222013F03DF908E150460DF08C
:201DB0007BF83074F08A3083012028742AE1317C012905D1807810B1B88B3883B6E694E093
:201DD00050460DF0B3FDF7E0307C01280AF20D1121D1087801280DD14878012809D1B9F8FD
:201DF000020000900020CA78B9F80030397813F00DF99BE6308B401E308380B2002810D1BC
:201E1000B9F8020000902220CA78B9F80030397813F0FCF8CBE00120887050460CF050FCC0
:201E30003074EFE0317C012903D180780028E0D15BE050460EF01EFFBEE0307C01281CD157
:201E50006078012809D1207F0F281CBF002012F02BF800206070002100E7A078012806D191
:201E70000020A0702322504610F078F861E6207801283AD100202070EDE750460AF05CFA5A
:201E90009AE0317C012903D1C078002821D12CE050460DF07CFD8FE0307C01282CD19BF8CF
:201EB0000C00810648BF1821D6D4C10712D5207F16281CBF002011F0F7FF9BF80C0000F088
:201ED000FE008BF80C0000233978607F00220AF0D5FA2BE6810708D500F0FD008BF80C00D5
:201EF0000023397800221A20F1E7308B401E308380B200285BD085E0504609F073FD5BE0DA
:201F1000317C012922D1C078C0B19BF80C009BF80B1059B9810610D500F0DF008BF80C0015
:201F300000209BF80A2039781346D0E700F0DF008BF80C0001208BF80600F7E57988BBF85B
:201F50000800491C88425DD1282143E01821504609F048FD30E0307C01282AD19BF8000020
:201F70004FF4B3710AEB0105810614D500F0DF0001078BF800000BD500F0F7008BF80000DB
:201F9000288B0090AB8AEA8A698A387813F046F800202870CAE5810704D500F0FD008BF829
:201FB0000000F5E7308B401E308380B250BB222110E050460BF0E2FC3074F08A308321E0B8
:201FD00050460EF0CDFA0128E4D01BE0407AD0B199F80610504611F0C2FC012013E0B07E45
:201FF0000F280CD1FC21504610F0E4F9608900902389E288A188387813F014F802E00020B4
:2020100011F052FF0020BDE8F28F00BF5C4D00202DE9F04FCE4C04F11C012046ADF1240DDA
:202030000EF010FD04F1400004F14C010AF0F0FC606108B912F0E6FF04F1580500212846DE
:2020500012F0DCFF012204F18800C749256213460EF072FFC54904F1AC004FF4FA62002323
:202070000EF06AFFC24904F1D000322200230EF063FFC04D05F1180005F10C010AF0C8FC66
:20209000CF49A86012F008FBCE4EA8684FF4E0213246521E10F080FBA8684FF4E02132466C
:2020B00010F07AFBC84EA8684FF0C0513246521E10F072FBA8684FF0C051324610F06CFB91
:2020D000C24905F12400C82200230EF035FFC048002168604FF080400DF068FE00274FF0D3
:2020F00008084FF6FF73DFF8EC92A061BA4E63860222676349461020642386F8018005F09A
:2021100073FB102003226423494605F06DFBCD48CD4915233A460090102005F065FB01255B
:202130008DF81B508DF81E5044F6C74005908DF81C70DFF818938DF81D704FF481620423E4
:2021500005AD10204946009505F04EFB0DF11B004FF48062012300904946102005F044FB46
:2021700007A840F20242012300904946102005F03BFB0DF11D0040F20342012300904946B7
:20219000102005F031FB0DF11E000090494640F206420123102005F027FBDFF84C931020D8
:2021B000494605F021FB207810F016FFCF490246102005F019FBCE4910204FF0FF3205F07D
:2021D00013FBCC4910204FF0FF3205F00DFB1020494605F009FBC8491020042205F004FB1C
:2021F00004F12400B060307810F0F6FE0246707806F1160543460090C0490195102006F1E9
:20221000260502950C36039605F0EEFABC4904F13802102005F0E8FA207810F0DDFEB94984
:202230000246102005F0E0FA207810F0D5FEB6490246102005F0D8FAA069394684A30A469F
:2022500011F097F8B148DFF8D89200684FF47A71B1FBF0F01FFA80FBE069B04A00214FF04B
:20227000FF3312F0C7FE061CF6D0002004900DF11A0104AA06A810F0FBFB78B9BDF8180050
:20229000102807D120789DF81A10884202D1049800F04AF9049808B112F0D0FAF00FC0F08B
:2022B000AC80A4E0206A054612F0A0FE854208BF002702D0876810F0A5FE381C00F0978075
:2022D0003888401E00F08A80C01E55D0001F24D0083840F089807868B4F80A800578002193
:2022F0000A4609F033FCB0FBF9F101FB09F1401A824635B10090A0690421002257A311F0E8
:2023100038F88549CDF800A010204246002305F06BFA786810F076FE66E07A68BD78A1695A
:202330001078BDB1012D0CD0022D07D0032D18D1002808BF4DA30ED051A307E088B956A39C
:2023500009E0002808BF58A305D05BA3009002E0080200205DA308460022022111F009F896
:202370007A681046D6E7C0461D160100C912010021450100F00F00207D686A884FF6FF7031
:20239000904231D063491020012305F02DFA58B36868B5F800A0804612F07BFA10B1404692
:2023B00012F020FE0AFB0BF1404612F017FE404612F010FE6A885649102005F015FA13E001
:2023D0003D2201000E0005800E000010B5430100CD470100BD84011030090020786800F053
:2023F000A3F8786812F02AFA384610F00BFE206A12F0ECFD00283FF455AFB00815D304F13C
:20241000280003C88DE80300A069002233A3072110F0AFFF12F0D6FD0121E17012F0CEFD55
:2024300009F02AFA3F4812F02AFAF00804D36069072100220FF016FF3009FFF40DAF09F0EB
:202450001BFA09E77E5D0100F5E900002D4B0000424C452043656E7472616C0050617373E2
:20247000636F64653A20256400C046C0426F6E642073617665207375636365737300C04697
:20249000426F6E642073617665206661696C65643A20256400C046C0426F6E64696E6720CB
:2024B000737563636573730050616972696E6720737563636573730050616972696E672046
:2024D0006661696C3A20256400C046C050616972696E67207374617274656400636C6F6325
:2024F0006B3A20257500C04605D00000FD460100713A0100493E010019410100BD080100F9
:20251000A53C010051880110318101109C5E010025AB0010B17F0110492B01000F0000C0BC
:2025300040420F00B40200202DE9F84F0546C14C28782179913800F08D811F3800F0358171
:20255000203840F0BC81A878A6696778002800F00F81401E00F08580001F54D0401E07D025
:20257000401E00F0FF80801F00F0AA80BDE8F88F4FF6FE794FF00008A4F80A904FF0FF33EF
:20259000A4F810804FF0040BA370404684F808B0618E207104F130076071AA88B5F804A0E4
:2025B000E0718A4212D1786812F01CFD788882450BD1786830B112F0FDFC786810F022FDB2
:2025D0004046786009F101007880A669304602214246BCA310F0CDFEA8790090A069032162
:2025F0004246BCA310F0C5FEA0695946424612F029F8A0690621424612F024F80521B8A377
:20261000A069424642E16878C8B902276889277101236081208AE37120B904F1640012F0AC
:202630002EF9A669304639460022B0A310F0A1FEA669281D0EF0A6FA0321034696E000274F
:202650004FF6FE7027710221ABA33A4660813046677110F08EFE6878B84603219DA30090A1
:20267000CEE70097304602210022A7A310F081FE607870B1A06903210022A8A310F079FE70
:202690006069072101220FF0EDFD04F1D00012F0F6F84FF0FF30A070A0690521002290A376
:2026B00010F067FE12F08EFC0546E07818B1E069082112F07BFC284612F080FCBDE8F88FAA
:2026D0002B69287B1A18521E00E0C3189A4240F2F68013F8010B0028F8D01978022918BF38
:2026F0000329F2D1401E5B1CC0B2022836DB41109A4233D91E78F02E02D15E78FF2E06D0C0
:20271000801E491E03F10203C0B2F1D126E095F80490082F05F1050880F2D18077B104F136
:20273000F6063D4640463146062211F09DF8002800F0C5806D1E06F10806F3D1424613689B
:2027500004EBC700F430811C0B6092888A807F1C80F80190FEB26670BDE8F88F012808BF1D
:202770005B1CB3E7E878022170A3009030468CE068896082E81C0EF005FA034601210022CF
:20279000304610F0F6FDA069022100226CA310F0F0FDA0690521002251A310F0EAFD04F155
:2027B000880012F06CF8BDE8F88F02294BD16978A069162940D029790B2929D0012902D1A3
:2027D000297A0A2924D02979132915D0012902D12A7A122A10D07E290BD07F2906D06079C6
:2027F000002830D0284606F0ADFE2CE0298957A324E0297A59A321E0012907D0A1795BA31D
:20281000491CC9B2A171491EC9B20AE05BA307E02979012903D0E96809785CA301E05FA3B2
:20283000297B00910022042110F0A3FD0020E07109E0C0460802002029795CA3009100228E
:20285000042110F096FD297905F1080012F0AAFBBDE8F88F68780E381FD0801E2BD02E3829
:202870002DD1A8780C282AD1E978A06991B90321002253A310F07DFDE879012814BF55A03F
:2028900056A00090A069042156A3002210F071FDBDE8F88F032157A3F7E7A88841F205411A
:2028B00081420CD1A86890F9030040420090A669042155A35AE70820002106F007F9BDE869
:2028D000F88FC046446973636F6E6E656374656400C046C0526561736F6E3A20256400C0B7
:2028F000446973636F766572202D3E00436F6E6E656374656400C046436F6E6E656374207B
:202910004661696C656400C04465766963657320466F756E6420256400C046C03C2D205477
:202930006F2053656C65637400C046C0506172616D205570646174653A20256400C046C0B5
:20295000496E697469616C697A6564004D54552053697A653A20256400C046C04643205698
:20297000696F6C617465643A2025640057726974652073656E743A20256400C05772697454
:2029900065204572726F7220256400C052656164207273703A20256400C046C05265616419
:2029B000204572726F7220256400C046415454205273702064726F7070656420256400C079
:2029D0005048592055706461746520436F6D706C6574650032204D62707300C031204D6276
:2029F000707300C043757272656E74205048593A20257300504859204368616E6765206661
:202A100061696C75726500C052535349202D64423A202564000070472DE9F04FC54C207898
:202A30000E46F10BADF1340DC9036DD1B0085DD2606AA16A720807D2F00828BF86F00406DF
:202A500080F02B82002029E2858861B904F11800C74A00904FF6FF710223012012F09EFAB4
:202A70000146A16219B304A800900027019702230293FF220392228B284608AB03F034F9D7
:202A900058B99DF821009DF82020A16A12EB002204D0498928460EF0C9FEA16A228B084681
:202AB0003B464FF6FF7112F075FA0146A162206A00291CBF012186F001061FD168B1436834
:202AD000616A5BB18888002201219847206A676A4368B888032100229847616A888811F095
:202AF000A7FC11F0C5F986F00106D6E10020014603F0A4FF30B1012186F00206207808F022
:202B1000E5FCCAE10221F7E70AF052FB0028099000F0C18105462878B03800F05081401EEC
:202B300000F044811F3840F0B181A878801F00F03981C01E00F01E81401E57D0401E33D05B
:202B5000401E00F02A81801E40F0A281687806281FD12846808812F019FA071C19D0A07BCB
:202B7000401E12D0401E0ED0401E12D1002140F209400A4601F0D2FF28468188387805228C
:202B900012F000FA05E0A988F8E7A88879790EF0C5FD206A002800F07B814368002B00F0EE
:202BB00077816A780221DFE011F0C2FC002800F06F81276A0FB1386878B9286900280CBFDC
:202BD000E0690120698912F0D9F9002800F060816889012112F0CEF95AE1286900903C68E0
:202BF00069892A7B6B7BE81CA04751E168784FF0000A002840F0A280A8794008C0F09E8051
:202C1000606A002840F09A800DF1120051460E2211F03BFEA88812F0B9F95FEA000800F032
:202C30003781686900285DD05146814606220A9109F1110011F0BEF920B34846062211F038
:202C5000B9F9D8B999F8100009F1110B57460B907F1C5846FFB28BF8007010F007FB0A2821
:202C70000BDA914B0B9A0101A1EB400158188079824202D1002FEBD100E01FB901200A90B1
:202C900057466F610A9850B909F111010DF11200062211F081FA99F810008DF818000A986C
:202CB00001281FD06F69EFB1387C07F1110106228DF818000DF1120011F06EFA08F10C0073
:202CD00008F10601062211F067FA08F1060007F11101062211F060FA387C40F0020088F868
:202CF00005000AE098F8050008F1060106228DF818000DF1120011F04FFAA8799DF81F103C
:202D1000C0F3800008438DF81F00A879000905D39DF81F0040F008008DF81F000DF11200DF
:202D3000294603F08BFE38B92078022108F0CEFBB1E0C046700B00204FF0150A11F000FD9D
:202D5000206A002800F0A4804368002B00F0A080A8886A7801219847BAF1000F00F09880E2
:202D7000206A032152464368A888984790E0C0466C5F0100E878291D002209F043F90A28D2
:202D900080F28680410001EB800005F10C0225300421C0B207F0F8F97AE0A888297B0BF0FD
:202DB000B1FA75E0A8880DF031FC71E0287900286CD16888E9882A890EF038FD66E0287924
:202DD000401E26D0083802D0743853D059E068781A284BD06888804611F0ACFC022850D18E
:202DF0002889012201280AD16889032807D1E868807820B9404611460EF0CDF90246206A63
:202E100000283ED04368002B3BD040460521984737E02B7A688805F10807082B814625D15F
:202E300011F088FC022821D1688900210EF0B3F98046607D90B1484612F0A8F870B119498E
:202E50000B784BB94179831D012201F001010846194611F088F801E001202075206A28B143
:202E700043681BB17888052142469847688811F0DFFA06E06A8811F05DFC0146104610F0A5
:202E900021FA297905F1080012F08CF8012002D0284610F035FE86F40046B0B20DB0BDE8C9
:202EB000F08FC0465A4F0020620C00202DE9F84FDA4DDFF86C832868DA4F807CDFF8689355
:202ED00011F098FA296804460020487104F12E0A28680EF001FC012060711C2598F801001F
:202EF000401C88F8010080200BF0C0FA20607969C160CE4801894900AAF802105146C079A0
:202F100040008AF80000BAF804004000AAF80400BAF808000001AAF80800204610F070FD0B
:202F30000520A081204610F04FFF386812F01EF8062210F8081FC1F3801184F82E11811CDB
:202F50004FF49470204411F027F93968B84F09680020087141F62202A1793868694342528E
:202F70000022A179694301444A80A17969430844426099F80200400609D5AE48008841F22E
:202F90000A4188420CBFAC48AC48C4F89C012046D4F89C118847A27939686A431144887399
:202FB000A1793868694308440021C173A179386869430844807B8AF80B0094F8960108B9DC
:202FD00010F072FFA17938689D4E6943084494F89611491E01740022A179386869430844F0
:202FF00000214174A1793868694301444A82A179326802EB4112694301444A61A17969431E
:20301000084490498161A07909F04EF8A279316852018850A07940010A5822B9072120463D
:2030300010F09DFCF5E008441F2202763068A179DFF814B200EB411000214176DBF80000D7
:20305000A17900EB011011F08DFFA179DBF800203068DFF8F8B102EB011200EB41114A60B1
:2030700004F16801A27900EB421252680A60A279520182588A60DBF8141091F800C094F866
:2030900006E05FEACC714CBF102100215FEA8C724CBF202200225FEA4C734CBF4023002308
:2030B0005FEA0C7C4CBF4FF0800C4FF0000C1143194300EB4E104CEA010141F00F01017229
:2030D0003068A17900EB41100B2141723068A17900EB4110042181723068A17900EB41101F
:2030F0005B49097801291CBFDBF828100978C1723068A179626A00EB4111CA60A17900EBED
:203110004110A16A01743068A17900EB4110A16A090A41743068A17900EB4110A16A090CFF
:20313000817408214B48007808F0D0F92168A2793868CB686A4302449360CA680A61CA6869
:203150008A60A17969430844017B01F0EF010173A179386869430844017B01F07F0101737F
:20317000A179386869430844017B01F0F00141F002010173A179386869430844417B01F028
:20319000F00141F0010140F6C4134173BAF804203068A1795A43DBF830301B6800EB411122
:2031B000D21AA2F516724A61A17900EB4110C17C01F0F00141F00401C174A1793868694303
:2031D00008442168486099F8010080061BD54FF497702044408F1B2801BF4FF49770201858
:2031F000808F1B280BD14FF497702044C08FB0F5A47F04BFB4F86E01B0F5A47F03D014211E
:2032100020460CF0B7FC144908200870A07988F80200BDE8F14F00F021B800BF184F0020FD
:20323000684E0020AC4B002040250020844C0020EC210020504F0020A3FC00006109010026
:20325000AC2500205C4D00208C4E0020B85E0100734F00206E4F00206F4F00202DE9FE4F93
:20327000DFF85493D9F804601EB9BDE8F74F11F075BE3078DFF844A3D14FDFF84883012804
:203290001CBF0228042841F64C5B05D0402818BF802800F0B78088E111F010FA0028FAD0C6
:2032B000307805F015FF0446656815B9002010F0FBFD98F8010000287CD002F00BFF11F04E
:2032D00099F801900068009001464668204609F083FC022847D02178022902D004291FD0FE
:2032F00063E10521397018B911F034FE5844A8602869C17E01F0EF01C1762869C17E41F01A
:203310008001C1762869C17E01F0F00141F00201C176B068AC4908182969086202206DE030
:203330000621397018B911F015FE5844A860A7480068807C0FF05AF82869C17E01F0EF01CF
:20335000C1762869C17E41F08001C1762869C17E01F0F00141F00201C176B0689A49081835
:203370002969086249E000980078802811D10820387097480078012803D098F801000228A0
:2033900001DB012002E0DAF8280000787169C8720AE007208E4938700978706901291CBFC9
:2033B000DAF828104978C1720198807988F802000098F6E0002C14D02078A6420DD10228E5
:2033D0001ED0042805D181480068807C0FF00EF816E0002010F068FD12E0022802D0042826
:2033F00004D0E2E005203870022007E00620387076480068807C0EF0F9FF042089F80200C4
:203410002046CEE098F80100002800F0928002F061FE10F0EFFF019000680290446898F8C7
:20343000020010F0E7FF009011F04EF90721084254D099F8020005F04BFE054602996E6899
:2034500009F0CAFB022849D02978022902D004291ED040E00521397018B911F07BFD5844CD
:20347000B0603069C17E01F0EF01C1763069C17E41F08001C1763069C17E01F0F00141F090
:203490000201C176A068504908183169086270E00621397018B911F05DFD5844B0604B4892
:2034B0000068807C0EF0A2FF3069C17E01F0EF01C1763069C17E41F08001C1763069C17E70
:2034D00001F0F00141F00201C176A0683E4908183169086261E0002010F0E6FC0098019967
:2034F000884224D002980078802811D10820387037480078012803D098F80100022801DB08
:20351000012002E0DAF8280000786169C8720AE007202F4938700978606901291CBFDAF8D0
:2035300028104978C1720198807988F80200029837E011F0C9F8072108423BD099F80200B8
:2035500005F0C6FD054646F2A81428786E68022802D004280FD02DE00520387011F0FAFC16
:203570002118B06811F0F2FC18B911F0F3FC5844B060022012E00620387011F0EBFC21188B
:20359000B06811F0E3FC18B911F0E4FC5844B0600E480068807C0EF029FF042089F802003E
:2035B0002846BDE8FE4F08F0ADB8BDE8FE4F002010F07ABCBDE8F78F84250020B85E0100EB
:2035D0006F4F0020684E0020F0D8FFFF184F0020734F00202DE9F043CB48CC4D00781E24C9
:2035F000002885B007D0052808D0062800F09B80072818BF082800F083817BE1C44E306819
:20361000006800F108090F2199F8000008421CBF00F00F01062906D002291CBF00F00F0040
:20363000012840F06D81062209F1020102A810F0B3FD99F80000B74FC0F3801800F00F00D3
:2036500001283DD1062209F10801684610F0A4FD99F800004FEAD0196946484611F072FC4A
:20367000D0B13868807C022818BF03285AD105F10D01684611F062FC002853D039680120A8
:20369000C8720622707940F004007071694638680C3010F081FD13E02878814510D106224F
:2036B000691C684610F01CFA50B12878717960F38201717106223868691C0C3010F06CFD7C
:2036D00002A9404611F03EFC00282BD0706902A9001F0EF0C3FE002824D1294602A80FF0B4
:2036F000F0FBFF281ED03968897C60432C180A0018BF02290BD0012918BF032912D12A5CB0
:203710007069611C001F11F015FC10280AD0706902AAE11D001F0CF06BF9062202A9E01D2E
:2037300010F03AFDECE07C4E3068006800F108090F2199F8000008421CBF00F00F0001289C
:2037500075D1062209F10201684610F025FD99F80000724FC0F3801800F00F00012845D143
:20377000062209F1080102A810F016FD99F800004FEAD01902A9484611F0E4FB10B3386822
:20379000C07A022818BF032851D105F10D0011F0CDFB00284BD105F10D0102A811F0CEFB09
:2037B00000282ED03868062202A90C3010F0F4FC707940F004007071062202A9E81D10F05E
:2037D000EBFC13E02878814510D10622691C02A810F086F950B12878717960F3820171719F
:2037F00006223868691C0C3010F0D6FC6946404611F0A8FB00284BD0294668460FF061FBCA
:20381000FF2872D004FB00F83868817A05EB080459BB807C10F0EEFD074697F82E01022871
:2038300011BF032815F8081000F0010081425CD14FF494703D1806222946601C10F050F97F
:2038500030B906222946364810F04AF900284CD0012087F82E010622707940F008007071DA
:203870006946284610F098FC0EE0306915F80820611C001F11F05EFB102836D030696A464E
:20389000E11D001F0CF0B4F806226946E01D2AE03868817A49BB807C10F0ACFD074697F855
:2038B0002E01022818BF03281FD16A46414628460BF073FFFF2818D060432C1804F10D00A3
:2038D00011F034FB10B9607F01280ED187F82E810622707900F0F70040EAC8007071694650
:2038F0004FF49470384410F057FC316809680020087105E0002010F0D7FA862011F012FB75
:2039100005B0BDE8F08300BF6F4F0020481A0020D04B0020B0250020AC4B0020184F0020DD
:20393000145F01002DE9FF47C44C0F460646F80B80F05981B80880F04681207BDFF80893A5
:20395000B90F80F0BA80A07A002840F09A803809C0F09980E07A20B10020E07205200EF08F
:2039700035FF00254FF00108B549657004F178002A4684F8088010F073FF607901281AD183
:20399000A079C0B9DFF8BCA2DAF8000000283CD048460068006B8047A1695346401A000B1A
:2039B000E0611968226A8018B0EBC11F98BF20622BD9256201E084F8058040F6090020876A
:2039D000A24994F845000A1D00F0F00040F0010084F845001368658794F8440000F0F0000B
:2039F00084F8440023F002001060E5636FF002020A6004F1380341F8103C08688008FCD3E1
:203A10000A60486840F002004860914A1068914920F00200A56140F400701060032341F8EA
:203A3000043C41F230038B604046086050238B6008604FF4CA638B60086041F80C0C0220FB
:203A500015600EF0C3FE112007F0A0FD307C10B90E2007F09BFD25726572A078012803D0A9
:203A700006F1400011F05AFA7B4810F0F1FD7B490878F8B10D7004F1D400042110F0D4FBD2
:203A900018E0380914D2B80BC0F0CE8004F1280010F0F1FE061C08D0706830B17568F06842
:203AB000B6F91C1000222023A84727F40057BBE00020A07227F00807B6E020B104200EF0D9
:203AD00085FE00202073B168088840F602084FF0000A80450AD0B0F5C15F07D00A8B4FF659
:203AF0001F60104040F43470088306E00A8A4FF61F60104040F434700882A069D8B14D466F
:203B1000686D016804208847A8B12868006B8047A169814226BF401A401E401A000BF0602A
:203B3000708AF168401840F6C411F06081422CBFB0F5FA7FF160B5699DB14948A84210D08B
:203B500094F8450010F00F0F0BD1718D08F10700884206D130466FF4807152464FF00073D7
:203B7000A847404904F17800524610F079FEA07958B10220ADF8000068460FF09BFA84F89A
:203B900006A0BDF80800A4F87400012060702079401C207104F1240084F807A010F06BFE86
:203BB000002808BF47F0020702D0192010F0F8FC75692DB1514630464FF080630A46A8479D
:203BD00027F0005730E004F13005284610F053FE06F056FB284610F04EFE27F0020708B194
:203BF00047F0020720E011F095F9014604F12C0010F041FE0646B569A80810D27EB125EA05
:203C10000500B061084611F081F9706850B12A46F068B6F91C1075680023A84702E008461A
:203C300011F074F927F4804727B104F1D400394610F0FAFA0090BDE8FF87C046F006002039
:203C50000D380100A02500208C01001010100440000004600C4104407D9700009C2500203E
:203C7000B7DD00008D9800002DE9F04F09AFADF13C0D08900A92388809911E46ADF81800D8
:203C9000101C08BF002000F08481002700F101094FF0FF3A4FF0010BB8466CE1252940F05E
:203CB00063811078521C0A922D2818BFADF8068005D15846551CADF8060010780A95302818
:203CD0001CBF4246434605D10A9908785A465B46491C0A912A28CDF80080554616D13068FD
:203CF00004930A99CDF808A0C01C4B1C20F00300001D306050F8044C0A93002C0878009495
:203D100018D5ADF806B06442009413E044460AE0610001EBC40140180A99A0F13004087858
:203D30000094491C0A91302801DB3A28F0DBCDF808A004932E282BD10A9908782A2801F1C1
:203D500001010A9111D13068CDF80880C01C20F00300001D306050F8045C002D48BF4546EC
:203D700008782B46491C0A9111E0454643460AE0690001EBC50140180A99A0F130050878F7
:203D90002B46491C0A91302801DB3A28F0DB02930AB1224604926C2804D04C2818BFADF89B
:203DB000048005D10A990878ADF804B0491C0A910BA9CDF80C800FAB07916428059300F0B2
:203DD0008B80692800F08880BDF818C0752872D078286ED06F286AD0702850D063283DD0D4
:203DF00073281ED009980A990128A1F101010A9115D96B490C68B5F1FF3F03D0A84288BF90
:203E10006D1C00D8099D029508A80AA932466B46A047C7190A99039801F1010974E040468D
:203E30002AE030680A99C01C20F00300001D306050F8040CBCF1000F01F10109014608B979
:203E500055A00146079110F007FB0390B5F1FF3F5BD0A842C4BF281C039056E03068C01CEC
:203E700020F00300001D306010F8040C5D468DF82C000A990395584601F1010945E00820E4
:203E900035680490E81C20F00300001D306050F8041C082210230FA80AF04CFE401E079068
:203EB000402101700A99079801F1010929E0082302E0102300E00A230A99306801F1010955
:203ED000C01C20F00300001D306050F8041CAA42BCBF2A1C049210E00A99306801F1010964
:203EF000C01C20F00300001D306050F8041CAA42BCBF2A1C04926FF009030FA80AF01AFE37
:203F10000790059D281A0390009C241ABDF8065000945DB906E008A8202109AA0FF053FA1E
:203F3000009C7F1C641E0094F5D503980546401E039075B9BDF80600E8B10098401E00907B
:203F500019D408A8202109AA0FF03DFA00987F1CF4E70798411C0791017809AA08A80FF00D
:203F700032FA03987F1CE1E708A809AA0FF02BFA7F1C09F101094A460A9812F8011C401C2C
:203F900000290A907FF48AAE089808B14146017038460FB0BDE8F08F286E756C6C2900C025
:203FB000AC5E0100BB482DE9F84F0025BA4CB849056094F8E200002800F06581012800F070
:203FD0002F81B64E02283CD0032840F05C8151F8250CD4F8B8100029A0F5C060C4F8D40033
:203FF000B8BF49420028B8BF4042814226DA4FF08057D7F8A4014568B4F8BC0030214FF498
:204010007F42082300903046A847D7F8A4014568B4F8C00004214FF4F80212230090304685
:20403000A847D7F8A401B4F8D070456820214FF440620A2330460097A847012584F8D8505B
:204050001CE151F8258C10F015FB2F4600B901273946934F38680028FCD0B146012609F1E6
:204070000409D9F82CA03E6009B110F009FBCAF30720C4F8BC0010F0FDFAAA4600B9B24636
:204090003B68002BFCD0D9F800B0BAF1000F3E6001D010F0F5FACBF38440C4F8C00010F0DF
:2040B000E9FAAA4600B9B2463B68002BFCD0D9F81C90BAF1000F3E6001D010F0E1FAC9F395
:2040D0008120C4F8D000B8F5C061C4F8B81000F09C8094F8D80068B9C4F8D410D4F8C00094
:2040F000C4F8C800D4F8BC70C4F8C470D4F8D030C4F8CC30D4F8D410D4F8BC30002954BF1C
:2041100002206FF0010004F1C802176801EB41014018411000EB917107EBA1001060D4F83C
:20413000C810C4F8C43000291CDD1E293CDDD4F8CC0030B93429B4BF15391E21C4F8C810F3
:2041500025E02A29BABFD4F8C8000B381E20C4F8C800D4F8C4003F28B4BF401C3F20C4F804
:20417000C4001FE0D4F8CC00032812D011F10B0FC6BFD4F8C8000B30301CC4F8C800D4F8BB
:20419000C4000028C4BF401E051CC4F8C450032508E011F1150FC6BFD4F8C8001530301C71
:2041B000C4F8C800C4F8CC504FF08057D7F8A401B4F8C43030214FF47F4245683748009355
:2041D0000823A847D7F8A40104214FF400321123456832480096A847B4F8C860D7F8A4017F
:2041F00004214FF4F802122345682C480096A847D7F8A40120214FF440620A23B4F8CC60D3
:20421000456826480096A84701E084F8D85040F2FF50404502D8801C40452FD2082030E02F
:2042300051F8251C1F4F4BF2F5204843060A3868C0F3814001280CD11B4800680068804775
:204250000DF0F6FD10F022FA3111C010484306EBE03694F8E50030B91448006820F07F40B1
:204270008019460801E084F8E5501148310C0660012741600F4D8760287808B90B2000E041
:20429000052084F8E40003F0E3F9BDE8F88FC0462D400C402C500C40F00C002000A00C40FF
:2042B00000800C40B43F0050EC010010102009403C600C401E5E0100F0B5A24CA24D2778E3
:2042D000A248A34BA34AA4490D2F83B041F2064600F22F81DFE817F035012D012D012D01FE
:2042F0002D010E004E002D019600D900D9000A010A01110199494C881480022C03602FD9A3
:2043100040F20442A41A29D0641E29D040F2FB32A41A1CD00A3C012C19D940F6F632A41A59
:204330001ED0641E1AD0641E012C19D9241F15D0641E15D0641E11D04FF47E72A41A0FD0B0
:20435000641E0BD0E41E09D0641E012C0DD88A7B4E80252A0CBF2722521E8A73804945E0F0
:2043700000200FF0A1FD852086E000200FF09CFD842081E07B494C881480022C036037D9DB
:2043900040F20442A41A30D0641E31D040F2FB32A41A23D00A3C012C20D940F6F632A41ABC
:2043B00026D0641E21D0641E012C21D9A41E13D0A41E1AD0641E1BD0641E16D0A41E0BD018
:2043D00040F2F632A41A13D0641E0ED0E41E0CD0641E012C02D910E0634907E08A7B4E80B4
:2043F000252A0CBF2722521E8A736049016045E000200FF059FD85203EE000200FF054FD06
:20441000842039E05A498978FF295DD003601C24584B1B686143194440F204444B8813802C
:204430001B1B012B544A4FD94FF47F741B1B17D00A3B012B17D940F6F6341B1B16D09B1E5B
:20445000012B84BFDB1E012B10D99B1E012B78D940F2FD341B1B09D05B1E012B03D907E0BF
:2044700041F2024301E04FF4A0534B80026005E000200FF019FD852010F054FD287803B00D
:20449000BDE8F040012107F021B84888108040F20442801A55D040F6FC72801A15D008384B
:2044B0004FD04FF47F72801A22D1344C344A2468344800680023CDE900230834324B24685D
:2044D0000222A04731490880F7BD092F10D130480068408960B12F4800780BF01FFD002111
:2044F000002010F00FFD00202070F7BD4888108000200FF0D9FC85201FE04888108002289A
:204510000DD940F20442801A1BD040F6FC72801A05D0083815D04FF47F72801AE8D1887BE6
:20453000801CC0B2B528A8BF6620887300204880F7BD00200FF0B8FC8420BDE8FE4010F0A2
:20455000F1BCF7BD6F4F00206E4F0020204F002065480100504F0020242500209C4C0020C2
:2045700061D700006C4C0020BD2E0000B5DF0000684E0020EC210020CD7F0000F04E0020EF
:2045900002000080EC4E0020E1280100424F0020B4250020714F00202DE9F44FA84F814684
:2045B0003868407901280C461E4604D004200EF0A9F9012801D10C2040E1A2480078092840
:2045D00018BF0A2804D00B281CBF0C280D2801D1212033E143F6FD70A9F1040181423CBF4D
:2045F000211F814280F0D880A145C0F0D5809DF8000018B1012840F0CF8002E00A98002843
:204610006DD0300018BF012E03D0022E18BF032E65D10B9D280018BF012D03D0022D18BF28
:20463000032D5CD111991098814258D30C9840F67B41821F8A423EBFBDF83420921F8A4247
:204650004DD2BDF83410814249D3BDF83800B0F5FA7F44DABDF83C100A3940F67742914224
:204670003DD2BDF83410401C49004843BDF83C10B0EBC10F33D20DF081FE012808BF3A20BB
:204690001FD09DF80000002804BF0A98002826D001F018FE5FEA000808BF092011D0396811
:2046B00098F80600887432463868A0F8069004819DF80010817240200A9906F0A5FE08B1A0
:2046D0000B20BBE008F1610140460DF075FA08F12404A07D022803DA40460EF0DFF85BE0DC
:2046F0003868DFF864B1DFF86491DFF864A1C572280018BF012D07D1E807386854BF494609
:20471000594606220C302BE00AF10D0010F00EFC70B1E80754BF4946594628460FF0FFFDAF
:20473000002839D0E80754BF49465946062208E00AF107010AF10D0010F0E0FB06220AF1EF
:20475000070138680C300FF027FD05F001008AF80000E80758BFCB46062259460AF10100F0
:204770000FF01AFD9DF8000050BB88F82E614FF4947008EB00090A99062248460FF00CFDC0
:20479000022E18BF032E1BD10A9A06F0010150460BF003F8FF2801D112204FE01E21484399
:2047B0000AEB000505F10D0010F0C0FB002804BF687F002804D10622264948460FF0ECFC56
:2047D00010F098FB60600EF0D1FF2060BDF83400E081BDF83C006082BDF8380020823868DC
:2047F000C07C20720220A0720020A08110F07EFB0C2190FBF1F10C2202FB1100401DE07565
:20481000042009F033FE396808600120487198F8060001F04BFE0B48007870B90E480078C5
:2048300010B10E480EF05CFE3868807C0DF0DEFD044906200870FEF711FD0020BDE8F28F51
:20485000184F00206F4F0020344E00202C4E0020481A0020145F0100784E0020CC47002098
:204870002DE9FE4F0F46994C0168616241688068A0609748616080479648616A0160616894
:20489000DFF870B24160A168DFF8648281609249002FA246C16069D03D68E8788DF80800E9
:2048B00028798DF8090002A810F01CFBA86808B18A490160E86808B189490160894C28784A
:2048D000207068786070A878BE68A0703178E1707368636072696261B168A160F168E16048
:2048F000316921612E697B68A6621868A0616869E062A8692063287F84F834002A6AA263F2
:20491000786886681EB900200FF0CEFA00E026627868C06818B900200FF0C6FA00E0606239
:204930007868406818B900200FF0BEFA00E0E0612869A062F86881680E6806B96B4E6A4999
:204950004FF001094E60C66881F801902EB900200FF0AAFAF868454601E045462E60006821
:204970005C46FE68A0617068E06106E000200FF09BFA4FF001095C46454628685E49466810
:20499000621C04F114035020B04710B1286880688047DAF804008047594F00268346694633
:2049B0007E7056483E700422206130460EF0DCF80098B0F5801F0CD020B90EF041FC04F0FE
:2049D0001BFC08E00DF078F90FF050FD0420788001E00EF035FC4B4FB0462868C7F808807B
:2049F0008069A660804778604748468080F8009014200FF0B5FDFF211422A0620FF045FF3C
:204A1000E01CFF2102220FF040FF14200FF0A8FD3E4908600868142231460FF036FF30467A
:204A3000FBF7C8FF48460DF0A1FF39480188FF2906D1022101807822001D31460FF025FF84
:204A5000032010F04BFA042010F044FA052010F03DFA062010F036FA07200BF0BBFA2D4E78
:204A70000820307006F1400010F028FA0BF020FD363605200A2132460FF0FCF838B1404657
:204A9000C0F10901401C06F8011B0A28F8DB2F68214909200DF10A0201AB7D680870102063
:204AB0004146A847A06AE2690A270A309DF80A1000F8011BDAF808107F1EF7D1921E584650
:204AD000E261884702F064FABDE8FE8F040E002041490010F8440020645001001D31010006
:204AF0008940010080100020E01200204F150100A0130020841100205538010079410100E4
:204B10009C1300207825002098130020C0250020280F0020700B0020D6250020FEB514460F
:204B3000A64DA84A03460026A3F58063192B1BD8DFE813F03A0133012B0123011A011501A5
:204B50000D010701FC00F000E800E000CE00C2001A00B80096008000790064005B0051007A
:204B700047003A0030002500282880F29980022940F09680218810F09DF906461CE1012951
:204B900040F019812178284641750121017507F015FD11E1012940F00E81002C00F00B815A
:204BB00028461330024614E0102940F00481002C00F0018128465C30102221460FF0ECFAF4
:204BD000FAE0012940F0F780002C00F0F4802A46921D1046B9E0262940F0ED80002C00F074
:204BF000EA80284626226C30E7E7012940F0E380002C00F0E0802846401DA6E0602900D137
:204C100044B9012940F0D780002C00F0D48028460D309AE005F19200214660220FF0BCFA1B
:204C300001206873C8E0012940F0C580207810F03DF9C1E0012940F0BE802178022900F363
:204C5000BA80284600F10C0211702178022918BF301C02D11021C172012010F023F9ABE036
:204C7000072940F0A880611C684606220FF046F920786946324607F0C5F904460A2C0FDA2E
:204C900010F00CF938B9204604F0F6F80EF0A0FC0BF00EFC90E0284601212C3001558BE00A
:204CB000022689E0012940F086802178042980F2828028460E305EE001297CD12A4621784F
:204CD000D07B0028D17377D12078012874D1DFE72846027B01296ED1022A04D021780729DC
:204CF00001DB102904DD022A65D12178102962D1C17261E001295ED121780A295BDA28460B
:204D1000093038E0012956D12178022953DA2846083030E000294ED110F0C0F810B90FF072
:204D30001FFBB3E728460121103024E0042942D12168234888423ED32B4603F11C000160EA
:204D50003AE0012937D128460A30217813E0012931D1217802292EDA2846C01D0BE010295C
:204D700029D128464C3027E7012924D12178022921DA2846001D01701EE001291BD12178AA
:204D9000042918DC2846C01CF5E7012913D12178022910DA2846801CEDE702290BD1218872
:204DB00010461530018007E0012904D121780229D8BF101CDFDD18263046FEBD700B002094
:204DD0003F420F00710B00202DE9F04F0C46E00789B00CD50FF018FB30B10021816084482E
:204DF0000068010018BF804784F00100FCE02007804D40F1878080480068807C0FF0FAFA00
:204E100082464FF494709AF82EB10AEB000800200790814678480068807CFF2804BF002059
:204E30000FF042F84246594628460AF0B6FC06461E20704300902F184146584610F082F835
:204E5000A8B1FF2E2BD00098285C40F0020BF81D079007F101080BF001008AF82E010622E6
:204E70004FF49470414650440FF096F917E0414658460FF054FA002818BFFF2E0FD007F1C6
:204E90000D0010F053F840B907F10D0010F04EF8002804BF787F012801D14BF0020B5648A3
:204EB0000068C07A022818BF032806D105F10D0010F03CF808B905F1070900200AF1060519
:204ED00006905B46288E000905900022E88D0490A88DCDF8049040080390CDF800800798BF
:204EF0000290002029780FF0D5FFDAF89C014349884228780CBF0021012108F0FBFC84F0A6
:204F1000080071E0E00610D5002006900590049003900290019000900023002200210220B0
:204F30000FF0B8FF84F010005EE0E00413D5E91D05F10D000FF0E2FF314842683148007820
:204F50004FF480510CF02EFC10B18E200FF09EFF84F4805048E0A00505D50FF08BFB2A4915
:204F700001200860FEE7600504D507F036FA84F4806039E0600405D581200FF087FF84F401
:204F9000804031E0A0042ED5204D286810B100200EF08AFF4FF0FF3028600AF091FF1C4D3B
:204FB000296820316846096888471A4841682D68194A00916B468168019100210291016933
:204FD00009680391017B00688DF81010ADF812002D6812491248A8471249086003F024FA6F
:204FF00084F4005000E0002009B0BDE8F08F00BF204F0020481A0020184F0020A3FC000006
:20501000784E00206E4F0020FC002043044F0020F04E0020A8100020E42400204C1200200F
:20503000F0210020EC4E002010B50B7884074CBF43F0020303F0FD0304064CBF43F0800301
:2050500003F07F0304074CBF43F0080303F0F70384064CBF43F0200303F0DF030B70AA2184
:20507000084203D0107840F00C0003E018B9107800F0F300107010BD2DE9F0410F461546DC
:20509000387802281E464FF0000866D1786801784078069C01EB002080B221001CBFB0F5B2
:2050B000285F0B205ED14FF42851401A0CD0401E1ED0401E4BD0401E22D0401E28D0A238C8
:2050D00045D023383FD048E0F8680FF0E0FB079A80B2031B9342B8BF021B92B210191628DA
:2050F00003DA3280F86801190EE04FF00D0838E0F8680088022131802870000A687030E0F7
:20511000062030800622F96828460FF045F828E0F868B0B108213180018829700188090A15
:2051300069704188A9704188090AE970818829718188090A6971C188A971C088000AE871C8
:205150000FE030800DE04A480078C00705D401203080F8680078287003E0A6F800804FF088
:2051700001084046BDE8F0812DE9FC4B0E46804630780027022891461D4675D17068017839
:2051900040780A9CDFF8E8B001EB002080B24FF42851401A0AD0401E2DD0401E50D0401ECD
:2051B0003CD0A3385ED0233858D05DE0F0680FF06EFB80B2A04204D32919162903DB0D27CC
:2051D00053E0072751E0F3682A46494618190EF0E3FF2C19F068A4B2C4F11602002120447D
:2051F0000FF053FBDBF8040000283ED0026810003BD0002121E07CBB022DE0D199F80000F6
:2052100099F8011000EB0120F1680880DBF8040058B30268100028D001210EE0E4B9062DBB
:20523000CDD1F068062249460EF0B6FFDBF80400D8B10268100018D003214046904714E0C7
:2052500054B9012DBBD199F80000010013BF0128F1680870802708E00B2706E09BF80000DF
:20527000C00701D4032700E001273846BDE8F68B181300202DE9F04F8246DAF800600C46C0
:205290005FEA0208ADF11C0D14BF00214FF0FF3106F1480083460FF0F5FD002808BF0B206E
:2052B00000F00681002565708448F460B8F1010F057004D065700220F4600DF09DFC2078D2
:2052D000012840F2AB80801E012868D9801E012833D9801E012800F2DF800FF01BFE069097
:2052F0004FF0805000F5EE77D0F8DC01A378466A009321782846062908BF01200190012062
:205310000290A068228AE1686368B047814606980FF0FCFDB9F1000F40F0C080B8F1000FEE
:2053300002D00EF009FF02E050460EF08CF9002800F0A4803868806A2AE00FF0EBFD06903D
:205350004FF0805000F5EE77D0F8DC01012306680093A168A27860682478AC46042C08BF9A
:205370009C466346B047814606980FF0CFFDB9F1000F40F09380B8F1000F02D00EF0DCFE0D
:2053900002E050460EF05FF9002877D03868406880474949C1F8B0510D6081467EE00FF0D4
:2053B000B9FD06904FF0805000F5EE76D0F8DC01E38A87690093E0680190208B0290A07866
:2053D0000390207D04900121059122782846022A08BF081CE1786268A368B8478146069890
:2053F0000FF094FDB9F1000F58D1B8F1000F02D00EF0A2FE02E050460EF025F900283DD03A
:205410003068006A80475FEA000947D13068C569A168E28A2369E078A847BEE70FF07AFD20
:2054300006904FF0805000F5EE76D0F8DC01E38AC7680093E0680190208B0290A0780390C9
:20545000207D2946049001200590257805B9014608466268A368E178B847814606980FF065
:2054700055FDB9F1000F19D1B8F1000F02D00EF063FE02E050460EF0E6F808B9142017E0FE
:205490003068406980475FEA000907D1306802692169E078904780E74FF0FF39B8F1010F77
:2054B00002D002200DF092F958460FF037FD484607B0BDE8F08FC04650450240D52500202F
:2054D0002DE9F04F0128ADF1140D40F0E980DFF808B2DBF8DC00012840F0DF800220CBF809
:2054F000DC000FF0CBFC029001200CF039F95FEA000806D00120CBF8DC0002980FF0BAFCE3
:20551000D0E00FF05FFD4FF0000903906748684CC0F80090A06A016801208847012818BF87
:20553000CDF8009004D1484609F0CEFF012000906048614FC0F80090386811200FF0B8F80C
:2055500000280CBF4D46012510200FF0B1F808B145F002050F200FF0ABF808B145F00405FA
:205570000B200FF0A5F820B12068544E016B308888470A200FF09CF820B12068504E016B46
:20559000308888474F48012606602068816945F0200088474C4806600FF084F800F0010153
:2055B0000191400814D2206A8168484888478246BAF1040FF7D0BAF1010F04D1206A426838
:2055D0004248032190474249086820F003000860484600F083F823683868986B8047019839
:2055F00001280CD0BAF1010F04D1206A42683748314690473649086840F0030008602D4806
:20561000066020684169284688470B200FF050F820B12068294BC16A188888470A200FF0A3
:2056300047F820B12068264BC16A18888847254806600322CBF8DC20234BC3F800902068BF
:20565000416B284688470128F9D1386804200CF087F8044615481F49066038680868800911
:20567000FCD30098012802D1304609F02DFF0FF007F808200CF074F807460398CBF8DC60A7
:205690000FF09CFCFBF782FC02980FF0F3FB57EA040018BF4FF0FF3804E06FF0040801E0AA
:2056B0006FF00108404605B0BDE8F08F0C400940B8010010000222432C200940A25A0100BC
:2056D0009E5A01002820086080010443004003402422084014100940F00C00202DE9F84F52
:2056F000DFF8F4B10746ABF13500DFF8E0910068800880F0D98071480068006880477A49EC
:205710000831D1F8008000254FEA28725FEA985102F101020AD2C0F13E0110F10A0F4FEAB8
:20573000E101D8BF08218A42B8BF0A1C644BD3F87C11C1F304611629A8BF20391B68C3F3F6
:205750000443162BA8BF203B9A465118162905DA11F10A0FB8BF6FF0090100E01521594BD3
:20577000594E01F01F0242F4F8521A80326812F0030F18BF0125D20828BF45F002050FB1DE
:2057900045F004054A4692F90730C31A052B04DA9379AB4208BF918866D0DFF834E10F284C
:2057B000A0F10F0C25DB0CEB0013A3F1F00C4FEA2C26072E88BF07263446062C88BF062442
:2057D0005EF82470042303EB84037446E358DB1B03F0FF04EF0824BFC3F307273C44AF085D
:2057F00024BFC3F307473C446F0828BF04EB136401E0002426465EF826E0EF080EF0FF03AA
:2058100024BFCEF307273B44AF0824BFCEF307473B446F0828BF03EB1E63A4B2ACEB062619
:20583000AAEB01017443002904F1800403EB1423D8BF0121342408F0FF074C43A1B2794396
:20585000B1FBF3F14FF6FF738B4238BF191C802889B2918005DA10F1800FB8BF6FF07F0040
:2058700000E07F20D07195711A4800681F2910604FF0000008D340F2FF128A4206D249087E
:20589000401C8A42FBD301E01F219180134F0F39090940EAC10047EA0001CBF8FB1F0026F4
:2058B000CBF8FF6FBDE8F88F0D490E4F4A4608200F60921D1070BDE8F88FC046EC01001043
:2058D0003C1100506E62084024220840A42500209C130050082009403500094000E7A48093
:2058F00030100940FDFDA400AC3F0050F8B57E4E04463068C06E0025002840F0F18010208F
:205910000EF02EFE31680028C86600F0E7808F6E102221460EF040FC30680178002940F0CD
:205930008E80C16ED7F8982011F80CCF02F001030CF0010C634518BF0023520843EA420243
:20595000C7F89820C2F34003D1F800C0CCF3400C634506BF530803F00103002322F002023C
:2059700042EA4302C7F89820C2F38003D1F800C0CCF3800C634506BF930803F00103002301
:2059900022F0040242EA8302C7F89820C2F3C003D1F800C0CCF3C00C634506BFD30803F0F0
:2059B0000103002322F0080242EAC302C7F89820C2F30023D1F800C0CCF3002C634506BF73
:2059D000130A03F00103002322F4807242EA0322C7F89820C2F34023D1F800C0CCF3402CE4
:2059F000634506BF530A03F00103002322F4007242EA4322C7F89820C2F38023D1F800C042
:205A1000CCF3802C634506BF930A03F00103002322F4806242EA8322C7F89820C2F3C0230F
:205A30000968C1F3C0218B4206BFD10A01F00101002122F4006242EAC121C7F89810816EF3
:205A500091F89520120718D5C26E5268C2F3C0029AB1C17841F00801C170D7F898002349CF
:205A70000840C7F898003068C06EC16821F48071C16049084900C16003E091F833000128DE
:205A90002AD0617808001CBF7878002808D13068C278120708D5002904BF7978002903D0AE
:205AB0003168052008711CE06168C1F3800141B997F8951011F0040102D10121017110E01A
:205AD0000AD00078002819BF38782178397820780FF0CCF9054604E0182502E0132500E0A8
:205AF00011252846F2BD00BF304F0020FEFEFFFF2DE9FE4F04468946206846684FF49A70EC
:205B100004EB000AB0680FF021FA002840F0DC802068016948460FF0A5F904F18207804635
:205B30003878002804F12E0540F6C41B6DD0218978880FF093F902903878029902280CBFFC
:205B5000BAF83000A888484301900BFB00F00090206800990069091848460FF0F7F9002831
:205B70004DD000983A89A8EB00010BFB02F3B1FBF3F003FB101101B1401C02FB00F12289B9
:205B9000029B9A1880186081FA880198101801EB00093878012849D104F1860120460DF023
:205BB0002FFF7889E189608400202077E08360890818A081AB883889B989984204BF2B898D
:205BD000994202BF7A89EB889A4207D00909009142087B89A17900200FF03CF9A888AAF8BF
:205BF0003000387928703889A8807889E880B889288120460EF0E8F80220387016E038782C
:205C100001281CBF00200EF04FF9A8880BFB00F1B8FBF1F290B201FB128109B1401C80B234
:205C3000218941186181A98801FB00F9206801690BFB0912B26003782949802B0AD1C2608F
:205C50000B6BAA881B680BFB02F2D21A7369A2F516725A610278402A2FD1628A02FB09F2A5
:205C70004FF4C873B2FBF3F2521CC4F818906261B3689A1AB2606369DAF8002002EB43029E
:205C900073695A61174A3B781268022B09D1A3792F7802EB4313D3F814900BFB0799C3F8F2
:205CB0001490A379096B096802EB4312AB880BFB03F3591AA1F51671D161B1688160E87AA0
:205CD000A87220460CF057F86189A0890FF0C6F8E189814238BF0120AAF82E00BDE8F78FD9
:205CF000B85E0100AC2500202DE9FE4F0D468146287AC00693461E464FF000080CD55846A4
:205D10000FF0A4F8030000F0E3800A22294648469847002880464DD128780C9F0D9CDDF8A5
:205D300038A002281AD168680178407801EB002080B24FF42051401A012810D9801E3AD05F
:205D5000401E14D0FD3876D0401E00F07D80401E6AD0401E6FD0401E00F09180A7E0002CE4
:205D70002AD1E868017839800278416883E0002C22D1012038800021E8680078307068899E
:205D9000401C80B20FF05EF8398860B10278921C51183980418971704189090AB1700278D1
:205DB0004168F01C68E0081D388004220021701C0EF06BFD8EE0002C62D1E86804880420F3
:205DD00038803470200A70700DF1020120460FF039F805001ED0EC68BDF802204FF6FF79DB
:205DF0006B4649460FF0D6F840B92B786A683B4802210FF023F808B9ADF8009020780228A0
:205E10000AD161680222301D0EF0C6F93888801C388001E0ADF80040BDF80000B070BDF83C
:205E30000000000AF07055E054BBE868016848460EF05EFB02E01CBBE86800880221398099
:205E50003070000A707045E0E8680EF020FD82B2A242B8BF4FF007083CDB944208BF002265
:205E700006D00AEB04019142B2BF5246121B92B23A80E968214430460EF08EF92AE014B1BB
:205E90004FF00B0826E0E8680721398001783170417871704188B1704188090AF170017914
:205EB0003171C1887171C088000AB07112E058460EF0C0FF844658B10F980290CDF804A0D0
:205ED00000943B46324629464846E047804601E04FF00E084046BDE8FE8F00BF5A5F0100D4
:205EF0002DE9F0411C4615468C4208BF854282BF00230022E5E0002C08BF002D0AD10029C3
:205F10000EBF00286FF000006FF0000100F0E1F8BDE8F0815FF000085FF0000E002C08BF37
:205F30008D429CBF2C1C0025070C47EA01470E0CB44208BFBD429EBF5FEA044444EA1544E3
:205F50005FEA0545070A47EA01670E0AB44208BFBD429EBF5FEA042444EA15645FEA052538
:205F7000470847EAC1774E08B44208BFBD4200F29380870847EA81778E08B44208BFBD4238
:205F90007CD8C70847EA4177CE08B44208BFBD4266D8070947EA01770E09B44208BFBD4289
:205FB00050D8470947EAC1674E09B44208BFBD423AD8870947EA81678E09B44208BFBD42DF
:205FD00024D8C70947EA4167CE09B44208BFBD420DD8E60146EA5566EF01B14208BFB8421E
:205FF00001D3C01BB14158EB08085EEB0E0EA60146EA95664FEA8517B14208BFB84201D309
:20601000C01BB14158EB08084EEB0E0E660146EAD5666F01B14208BFB84201D3C01BB14164
:2060300058EB08084EEB0E0E260146EA15762F01B14208BFB84201D3C01BB14158EB0808EE
:206050005EEB0E0EE60046EA5576EF00B14208BFB84201D3C01BB14158EB08084EEB0E0EFE
:20607000A60046EA9576AF00B14208BFB84201D3C01BB14158EB08084EEB0E0E660046EAED
:20609000D5766F00B14208BFB84201D3C01BB14158EB08085EEB0E0EA14208BFA84201D3C1
:2060B000401BA14158EB08085EEB0E0EA34208BFAA423EBF2D0A45EA0465240A89D3734634
:2060D00042461E4617460B46024631463846BDE8F08170472DE9FE4FDFF8D89199F80100D7
:2060F00008B90DF0E1FE0EF035FF4FF0000A00F6C4140027704E714D11E038460EF07AF927
:20611000417951B13268817902F80A100AF101015FFA81FA2146FFF7EBFC7F1CFFB228780A
:206130008742EADB99F80100824505D000200DF0BBFE82200EF0F6FE99F8010001281DD180
:20615000002701E07F1CFFB22878874210DA38460EF050F9044660790028F3D03168A07903
:20617000097888421CBF00200DF09EFEA0799FE000200DF099FE82200EF0D4FE99F80110D0
:20619000306809F0D7FA306800780EF033F900270068D0F80480012501E027466D1C7C1CE3
:2061B00055450ADA3068405D0EF024F900684068D8F8081080688142EFD0FFB2002F1EBFE2
:2061D0002746F8B200284FF4D07802D13068047817E030680478012510E0415DD9F804204A
:2061F00008FB01F308FB04FC13446244B3F86231B2F86221934238BF0C466D1CFFB2BD42D6
:20621000EBDB4FF6FF7008F0CFFA019040F6C41520460EF0EFF800270068406802900198E6
:2062300040086843009017E020460EF0E3F801680A78802A03D1DBF81430009A5A6109783F
:20625000402908D11E498079096801EB4010009901F5A061C1617F1C574528DA3068C05D3F
:206270008442F8D0D9F8041008FB00F21144B1F86221CB895908914202D2991A8A45EADA83
:206290000EF0B8F80068D0F804B0029A0198DBF80810926800EBD0704010A1F6C41105FB5B
:2062B00000200EF053FE0028BED03068C45D2046BDE8FE8F684E0020004F00207B4F002029
:2062D000AC2500202DE9F0476F48DFF8C091007899F80010814200F0D480002700E07F1CCF
:2062F000874280F2CB80D9F804104FF4D0727A43114409790029F2D1F8B20EF07BF882463B
:206310000AF1040601203070B7700020707030620AF161070120787101210AF168000022DA
:2063300001714FF0FF08002101608160B180F1800AF1EC040121317300218AF83910716121
:20635000317671830AF190010A70827680F818808022027300228273C2740AF20D10027095
:2063700042708270C2704FF4897050440280428042710A710AF1E7010A704A70226062609A
:20639000A272227322726273A273E27347F23051028142818281C2814FF492705044816170
:2063B0004FF4C6710AEB0105026080F80C80C2810277427780F81E800121A9720221E972AC
:2063D000AA732A73324909786973AA718272027142718271C271027242724FF4B37050449E
:2063F0002C4902702A701B220988C1802A49098801812A49098841802949098881804281EB
:206410004FF4A471C18101828281C18201834282828241838183C1830184418481846A8078
:2064300001202871FF2204210AF1770007F02EFF1F2087F8008087F8018087F8028087F8F8
:206450000380387100271748C1190AEB0702497882F8FD107F1C082FF6DB134828610020B3
:20647000207499F80000401C89F80000C0B2012804BFB07889F80200504603E000200DF06B
:2064900013FD0020BDE8F0877B4F0020684E0020CE250020464F00204E4F0020444F0020A8
:2064B0004C4F002040250020A3FC00002DE9F0410DF0A0FF80466A4D6A4E6B4F6B4C41F62D
:2064D000080028802520A8730020E873688068600EF040FD00F51C404030A8603168CA8882
:2064F0000989287B2F618A420EBF00F0700000F0F00040F082002873687B00F0F00040F0AE
:20651000010068736C610CF017FE38605848006A0078C1074CBF1021002182074CBF20229C
:20653000002243074CBF4023002300074CBF8020002011431943084340F00F003871002079
:2065500078713068817A01F0010141F002017971C27A920002F004021143797198F82E21BB
:20657000D20002F0080242F01002114379711621F97108F124013F4A0B6813604B68137156
:206590004B681B0A53714B681B0C93710023D37113810223D371CB8953810B8A93814B8A67
:2065B000D38108F1610393F800C082F810C093F801C082F811C093F802C082F812C093F8CA
:2065D00003C082F813C01B7913750B7AC97D01F01F0141EA43115175BA6000F10C01F960ED
:2065F00040F6C412817A002906BF4FF49471414421493961B97E01F0E00141F08401B976D7
:2066100001895143F961F97E01F0E00141F08101F976002139621949097851B1C07A022882
:2066300007D117480EF082FC18B9787940F00400787114498978787949064CBF40F02000BF
:2066500000F0DF0078710020207060706080A080A071E071A060306800684560BDE8F081D5
:206670006C4C0020184F0020AC4B0020D44D0020B85E0100844C0020D0470020784E00202F
:20669000551A0020402500202DE9F04F6C4C22690746880FADF1140DC0F0CF80506840683C
:2066B00008B1804722695168664E886808B9CD6875B13568002DFCD00022326010B1804774
:2066D00020694168C86800B180475F480CF0F2FC4FF00008C6F800805C4846F81C0C5C480C
:2066F0000DF0B6FF40F60A09A4F838906379A4F83A80BD6894F84400C34604F1380A00F0D4
:20671000F00084F84400012BC4F83CB094F84500A5F8028000F0F00040F0010084F8450023
:2067300001D17B7CABB1B8680088A9F10801814208D0B0F5C15F05D0298B4FF60F40084014
:20675000288304E0298A4FF60F400840288287F811804048016883680193C368406B00917A
:206770001022694620F0784040F0805003903A48029306F0FFF8494600E01D466B6813B160
:2067900018888142F9D1C5F804A0687B00F0F000687304F124000EF06EF880680088A9F136
