:20000000004000203562010001C9011001C9011001C9011001C9011001C9011001C90110C6
:1C00200001C9011001C9011001C9011001C9011001C9011001C901103FC9011089
:20003C0080B54FF4FC720FF278011A4810F0E2FE194800210170012141740221C17601BD20
:20005C002DE9F0410FF25021144838220B684C688D68CE680F69D1F814C0D1F818E0D1F824
:20007C001C80036044608560C6600761C0F814C0C0F818E0C0F81C8020312030521EE5D1F7
:20009C004A688B68CC680968016042608360C460BDE8F081480400215903002100C000210F
:2000BC00410500217D0500212D06002170B51D46004C204787B2000010B5014800470000FD
:2000DC00D509000070B5614C6148254650358047022809D14034E1885E4A914204D1E97C5E
:2000FC00890601D4911DE18070BD70B557495A4A084650300378002B10D08379012B0DD181
:20011C00037C5B09DB0709D0097D544DC1746C7F20202043687790476C7770BDFF21C17420
:20013C00904770BD10B54E48484C804702280ED121464031CA88474B9A4208D1CA7C5209CE
:20015C00D20704D0227D920601D49A1DCA8010BD70B53E4843494030C07C4009C00707D032
:20017C003E4D41482C8B2043288388472C8370BD884770BD10B53B48344CAC388047214609
:20019C0053310A789309DB0705D04034A2730A7803231A430A7010BD2C4940310871182876
:2001BC0012D004DC0A280BD00B2804D10AE025280CD02A280CD02D4980004018C0687047DE
:2001DC002B4870472B4870472B4870472B4870472B48704770B504461C484E252D5CAE09AB
:2001FC00F60716D0067D3007000F052803D00120054202D00DE00220FAE7E80905D07006D1
:20021C0003D54868800F012803D05B085B0052085200062B03D01020022B11D011E0FB20F7
:20023C00024002232046FFF741FF002807DAC100611A2039497E1422114200D1002070BD93
:20025C00024303432046FFF731FF70BD4401002137CB000004140000EBC80000A800002142
:20027C00F5B4000053AD00002020000080DF00001D050021F9040021CD040021930400210F
:20029C006D04002110B5034CFFF716FF20680028FAD110BD0011044068610000F825F965B0
:2002BC00F9754500450045002600260057A3520052004C00401F401F401F3F000000000053
:2002DC00304000400140034007400F404F40CF40CF41CF43CF47CF4FCF3FCF2FCF1FCF0F6C
:2002FC00000000000000000000000F00080000003F00000040003F000000040068000E0093
:20031C00DC00060043001A00050000000000020000000000000000000400C00000000400B3
:20033C00C000000007000000000000000000000000000000000000003040004001400340A6
:20035C0007400F404F40CF40CF7FCF6FCF5FCF4FCF3FCF2FCF1FCF0F00000000000000009D
:20037C0050C00091007070C00091007082312100319110B10070018101B100A1823132910D
:20039C0010B101911110418141227740F106007051C0019130181039833108D01831416FD1
:2003BC003100319110B18314141683680070251050C00091F4C340C12014036F3110410497
:2003DC005082F0229840512622C082312100319110B163393110410482C08231210031919B
:2003FC0010B163393110A2C082312100319110B150101531051405920070676452C03110A6
:20041C0031066131C1026A6412C13110213971065131E1026A64007051C0019101CCE2C0CC
:20043C006A64676411C1C2C06A6450B054B0007140804022D6440022C94060B08180111EC9
:20045C00C944007054A064B0F0800022C9404012B09032B070C1DF6811C122C16A6470C1C0
:20047C00E46851C00191E2C0823160820200329110B130C2EE68538253395339B16460C347
:20049C00F4688012B09032B00070676401C122C16A6401C1C2C06A645382B164C012B09074
:2004BC0032B00070676472C281C06A6422C111C16A6402C011C16A6462C031C36A6462C3D2
:2004DC0011C16A6402C311C16A6453825339B164E2C36F6411221C4142C281C86A6452C24E
:2004FC0011C16A6472C2E1CE6A6402C281C86A6402C201C86A64B0C030690070676442C211
:20051C0001C86A6452C211C06A6472C2E1C06A6402C001C16A6462C001C36A6422C101C127
:20053C006A6462C301C16A6402C301C16A645382B16400708180111E5C4150B054B000712B
:20055C00408040225D4154A064B0F1800122514500700022514160B04E61000000000000AA
:20057C000000000000000000067305720B720E7250B00071818060B050A09280F0EFF1928C
:20059C0002936A6741228C458080F1C11004301601110114016CB561B661B761B861B9618D
:2005BC00BA61BB61BD61BF61C161C36126632D63F0C002043231412A121432160111211412
:2005DC00016CDA61C561E061C761CB61B561B561B561F461C561FA61C761CB61B561B56104
:2005FC00B561F461C561FA61C761CB61B561B561B561E761C561ED61C761CB61B561B56121
:20061C00B561CF61CF61CF61CF61CF61CF61C064CF61F964CF610665CF613265CF6174676A
:20063C00CF611166CF61C0644E65F964CF61066511663265CF618280E0DFF2926A67B0B044
:20065C00D661B1B00673057230B06C61D0CF6A6784C203C0C0C37C64207851788278E378B7
:20067C001579B6780062C0CF6A6784C203C0C0C37C64307861789278F3781579C678006250
:20069C00B0CF6A6784C203C0C0C37C6440787178A27803791579D678109221923292439281
:2006BC005492659256911FC0FF914039F00601101031101400927067CF61E3B054A0F08076
:2006DC0050221A4640800022BE461262E3A000C86091598150B0918041228E46A0CF6A6734
:2006FC0012828231823942398B641282F2062F101F312F141682D622334640C1346200C5AF
:20071C0020140D6F6D39DE10F4C34E0482C082312E006D39A2C082312D001A828A39FA0606
:20073C002082803180390BC00B18BC10AC18038239149B141082F0060110103110145181C2
:20075C0010140C14C622C94631D0C1266462021011C0013010C00118021882312100C126C2
:20077C00919103B013B063B053B041800122BE46B481C491D581B51C774E95186591F0803E
:20079C00102269428C623D9110B13E9110B1E08000228146E6228142E0B0951865910F926B
:2007BC005981F914F0805022114210228C464D6390CF6A6763B052A03082F2C0200402107E
:2007DC0011C0013010C00118021882312100C1269191919113B003B063B053B064B054B055
:2007FC00007141800122BE4663B064B0F08050221142B181C191D1819118619131B0A462D0
:20081C002967E0A059810582591480C0007163B0BA6A6962E3A0018262818231823D80EF61
:20083C00F19202936A6703A0007037824739873930828039F006021011C0013010C0011849
:20085C00021882312100C126819102B012B030824039F006021011C0013010C001180218E9
:20087C0082312100C126919103B013B063B053B0007153A062B052B041800122BE46A4816E
:20089C00C491D581B51CFE4E95186591F0801022F0428C62B481C491D4814518751C084FEB
:2008BC00F0801022F0428C623D9110B13E9110B1E08000221247E6221243E0B065910F92DC
:2008DC005981F914F0805022114210228C4630632967E0A0598105825914F0C0007162B038
:2008FC00226BF062A2808B64CF6112824239F2068B6050B00071CF6170CF6A674082418096
:20091C000122BE46A481C491D58195186591F18011228C46336B41800122BE46A481C491AB
:20093C00D581C51C1C4B95186591F08010223F438C6260CF6A67408241800122BE46B48169
:20095C00C491D58195186591F18011228C46506B41800122BE46B481C491D581C51CB44A55
:20097C0095186591F08010225C438C62E092D08200226B47C0B20070A080F022874330B033
:20099C0002C1623101C0A080001E8043F022814380F86031603981632010101A136F236E5A
:2009BC0011161216826B00702DE9F84FDFF81885DFF8181588F80000002008600921DFF891
:2009DC00100501700D2141804FF408718180DFF80405DFF8041501608A7EDFF80005027042
:2009FC00FF2ACB7E437008BFFF2B0D7F85704E7FC6708F7F0771C97F417115D1FF2D08BFE8
:200A1C00FF2E11D1FF2F08BFFF290DD1DFF8D0140A7802704A7842708A788270CA78C27025
:200A3C000A79027149794171DFF8B81402780A70FF2542784A7082788A70C278CA7002791E
:200A5C000A7140794871DFF8A014DFF8A004057045708570C5700571457100200880DFF888
:200A7C009014DFF89004466B70780870DFF8881430780870DFF88414B0780870DFF880142D
:200A9C0070690079401E0870DFF87814F0780870DFF87414B069086008B918F06FFAF06964
:200ABC00DFF86844206008B918F068FA2068DFF86074006880472168091D3846096888471D
:200ADC00DFF85004DFF850143862DFF850047862306A086008B918F051FA706ADFF84014DA
:200AFC00086008B918F04AFADFF838B4DFF838649BF8040018F002FE306008B900F046B950
:200B1C009BF80500DFF8247418F0F8FD386008B9306838E19BF80600DFF8144418F0EEFDF0
:200B3C00206020B9306818F0F1FD38682BE19BF80700DFF8009418F0E1FDC9F8000038B969
:200B5C00306818F0E3FD386818F0E0FD20681AE1DFF8A41309789BF80000DFF8DCA3C91C14
:200B7C00484380B218F0CAFDCAF8080058B9306818F0CCFD386818F0C9FD206818F0C6FDC8
:200B9C00D9F80000FFE0DC480078010000F00381BBF80210DFF8A4B3484380B218F0AEFD15
:200BBC00CBF8040078B9306818F0B0FD386818F0ADFD206818F0AAFDD9F8000018F0A6FDCF
:200BDC00DAF80800DFE0CC48007818F097FDDC49086098B9306818F099FD386818F096FDE9
:200BFC00206818F093FDD9F8000018F08FFDDAF8080018F08BFDDBF80400C4E0BE480078F1
:200C1C001C21484318F07AFDCE490860B0B9306818F07CFD386818F079FD206818F076FD4F
:200C3C00D9F8000018F072FDDAF8080018F06EFDDBF8040018F06AFDC148A3E0AE480078C3
:200C5C00400118F05BFDC0490860D0B9306818F05DFD386818F05AFD206818F057FDD9F82F
:200C7C00000018F053FDDAF8080018F04FFDDBF8040018F04BFDB248006818F047FDB14804
:200C9C0080E09D480078000118F038FDAF490860F0B9306818F03AFD386818F037FD2068F9
:200CBC0018F034FDD9F8000018F030FDDAF8080018F02CFDDBF8040018F028FDA04800687A
:200CDC0018F024FD9F48006818F020FD9E4859E089480078000118F011FD9D49086010BBC3
:200CFC00306818F013FD386818F010FD206818F00DFDD9F8000018F009FDDAF8080018F018
:200D1C0005FDDBF8040018F001FD8D48006818F0FDFC8C48006818F0F9FC8B48006818F01E
:200D3C00F5FC8A482EE0744800783021484318F0E5FC8849086070BB306818F0E7FC386846
:200D5C0018F0E4FC206818F0E1FCD9F8000018F0DDFCDAF8080018F0D9FCDBF8040018F0DA
:200D7C00D5FC7748006818F0D1FC7648006818F0CDFC7548006818F0C9FC7448006818F075
:200D9C00C5FC7348006818F0C1FC002018F0F6F84FF4804192E03168012008710022306815
:200DBC00057330684573306885733068C573306805743068457400203168C8723168487148
:200DDC00A0213068C180032101720720316848720020316888722821306841820121C1769C
:200DFC00002031684877316881F85E00012031680877316881F85D00396808713868057315
:200E1C0038684573386885733868C573386805743868457400203968C87239684871396886
:200E3C0088724FF420703968C88008818A7401213A68D17421680D7321684D7321688D7375
:200E5C002168CD7321680D7421684D7400212268D172012122681171002122685171216847
:200E7C00C8800881002088722168887405202168C8743948006880470546294800680068C0
:200E9C00804727490968091D00200968884719481C49C06809780088084330490880284657
:200EBC002F49096888470C212E4800F05DF80F4800F05EF800F060F84FF4005198F800006D
:200EDC00BDE8F44F0EF08CBB6E4F0020044F0020604E0020084F0020B63F00502C4E002055
:200EFC00E81200503C4E00200C4F0020344E00206D4F002048B101007B4F00206B4F00202B
:200F1C00724F00206C4F0020F04E0020F44E00207C4B002019970100F84E0020299701007A
:200F3C00FC4E0020901C0020104F00207C2F0020184F0020802F0020442F0020684E002056
:200F5C00004F0020742F0020782F0020884E00208C4E0020904E002000160020544F002095
:200F7C0004160020F84D0020DFF800F0E5710110DFF800F01D6E0110DFF800F04D7101108F
:200F9C00B0B5174C241D20680004070C23D01248006800688047114991F90720824205DDF8
:200FBC0010F1800FB8BF6FF07F00C8718D88BD4210D80A68D4F8D40F801A801C1F2888BF16
:200FDC001F207F1B4008C7404FF6FF70EF19B84238BF071C8F80B0BDEC0100106C2F0020C9
:040FFC003010094068
:20100000B41200001810000015AB0110FDB301106DC00110FDAE011099B5011000000000F7
:08102000000000002F00000099
:20102800B01200003C100000B1C00110A9BF011067C0011069B80110000000000000000035
:041048002D00000077
:20104C00B012000060100000BDC00110CDB30110D9BD01106DB3011000000000000000005B
:04106C002E00000052
:2010700000000000B81C002004000000000000000000000020000000E8C901103000000056
:2010900028100000C01C00200400000000000000000000000C000000D8CA01101800000031
:2010B0004C100000C81C002004000000000000000000000024000000F0CA011018000000B5
:2010D00000000000D01C00200400000000000000000000001000000018CA01102C000000C1
:2010F00000100000D81C0020040000000000000000000000200000006CCA0110240000002D
:20111000FFFFFFFFE01C00200400000000000000000000002800000090CA011024000000EC
:20113000FFFFFFFFE81C00200400000000000000000000001400000008CB0110180000006B
:20115000FFFFFFFFF01C002004000000000000000000000058000000B4C901103400000039
:20117000FFFFFFFFF81C00200400000000000000000000001000000020CB01101800000007
:20119000FFFFFFFF001D00200400000000000000000000001C000000B4CA01102400000033
:2011B000FFFFFFFF081D00200400000000000000000000003800000044CA0110280000005B
:2011D000FFFFFFFF101D00200400000000000000000000005400000078C901103C000000D0
:0811F000010000000CB1010038
:0411F80001000000F2
:0411FC0000000E00E1
:0412000000000F00DB
:0412040032000000B4
:0412080001000000E1
:04120C00201B002083
:0412100000020000D8
:0412140000000000D6
:0412180001C90110F7
:04121C0000000000CE
:0412200000000000CA
:0412240008000000BE
:04122800000023009F
:04122C00C8190020BD
:0412300001000000B9
:04123400381B002043
:0412380008000000AA
:04123C00E01A002094
:0412400000000000AA
:0412440000000000A6
:04124800080000009A
:04124C00000000009E
:04125000000000009A
:041254000000000096
:041258000000000092
:04125C00010000008D
:04126000301A002020
:041264000600000080
:041268000100000081
:04126C0074180020D2
:04127000000000007A
:041274000000000076
:041278000002000070
:04127C00000000006E
:02128000290043
:02128200010069
:02128400250043
:021286002D0039
:021288002E0036
:02128A002F0033
:02128C0001005F
:01128E00015E
:0812900003000000C0B00100E2
:0812980000000000000000004E
:0412A0000000010049
:0412A4000000030043
:0412A80013C401105A
:0412AC00DD940100CC
:0412B000B812000070
:0412B400B81200006C
:0412B8000000000032
:0412BC00381B0020BB
:0412C000659601002E
:0412C4002000000006
:0412C80014B001005D
:0412CC003CAF010032
:0412D00029C101101F
:0412D400737501002D
:0412D800AF790100E9
:0412DC00A1C7011095
:0412E000A3C701108F
:0412E4000000000006
:0412E80037B001001A
:0412EC0038AD010018
:0412F00050AD0100FC
:0412F40020AD010028
:0212F8000200F2
:0212FA000900E9
:0212FC000100EF
:0212FE000000EE
:0113000001EB
:04130400E59501006A
:04130800CD7401009F
:04130C00A1890100B2
:0413100081780100DF
:041314007D790100DE
:041318000575010056
:04131C008133010018
:041320002F98010001
:04132400994A0100E1
:0413280015C70110D4
:04132C0025C70110C0
:201330002DE9F04FCE4C04F118012046ADF1540D14F0B2F804F190050021284618F068FF85
:20135000CC4E1020CC49E561F21D0AF0D1F8CB490025012204F592700095134614F014F9B0
:201370004FF400510091C6494FF4FA622B4604F5A47014F009F94FF480410091C1494FF424
:201390007A622B4604F5B67014F0FEF84FF480310091BD4941F288322B4604F5C87014F0B9
:2013B000F3F84FF400310091B8494FF4FA622B4604F5DA7014F0E8F84FF480010091B449A3
:2013D00041F270722B4604F5EC7014F0DDF8B14F07F1180007F10C010FF060FDAE49B860C9
:2013F00018F04EFADFF8B482B8684FF4E0214246521E16F0EBF8B8684FF4E021424616F049
:20141000E5F8DFF89C82B8684FF0C0514246521E16F0DCF8B8684FF0C051424616F0D6F8DC
:20143000A0490095C8222B4607F1240014F0ACF89D48294678604FF0804013F0E3F9606134
:2014500004F1A80104F19C000FF028FDDFF85C92A06221211E22484617F0E4F89448294624
:201470004FF6FF7217F0DEF8924829464FF6FF7217F0D8F8904829464FF6FF7217F0D2F825
:201490008E4829464FF6FF7217F0CCF86769DFF83082B3464FB14846067936B141468F60BA
:2014B000CD6003220A7015F0EDFF864E10200622A02331460AF01CF810200722A023314658
:2014D0000AF016F810200822A02331460AF010F810200922A02331460AF00AF810200A2271
:2014F000A02331460AF004F810200B22A023314609F0FEFF102002224FF4FA63314609F0BB
:20151000F7FF10200C225023314609F0F1FF10200D225023314609F0EBFF10200E22502395
:20153000314609F0E5FF314610200F22502309F0DFFF102031465023024609F0D9FF31467B
:2015500010201122502309F0D3FF314610201222502309F0CDFF314610201322502309F07F
:20157000C7FF314610201722502309F0C1FF314610201822502309F0BBFF314610201522A4
:20159000C82309F0B5FF314610201622C82309F0AFFF3146102019224FF47A7309F0A8FF80
:2015B000314610201A222B4609F0A2FF207816F0BFFCD9490246102009F09AFF8DF83150A2
:2015D000ADF8225040F2053001210DF131020AF02FFC40F2063002210DF122020AF028FC3A
:2015F00004F1C0024FF442700F210AF021FC04F1F402162140F207300AF01AFC0F200121FC
:201610000DF132028DF8320040F204400AF010FCCE4F04F18000CE4EB8613078A072387824
:2016300016F086FC0246F87A07F134030090C949019307F14403029307F1140303937B7887
:20165000102009F055FFA17A480000EB011080B210F09CFEE062002836D0A77AAFB301E0FE
:20167000080200204FF6FF713B465B1E20F8121BFBD12AE038B00100A1B500105D69010050
:2016900071970100F99601005197010061970100A1970100C0180020C56F01000E000580C6
:2016B0000E00001009950100CD9201008C190020901600202818002090170020DC17002038
:2016D000A81B0020BD840110A77A380110F05EFE606350B1A37A43B10746FD803D70BD8086
:2016F0007D805B1E07F11007F7D104F1DF00C54900902A461523102009F0FAFEC249102017
:201710004FF0FF3209F0F4FEC04910204FF0FF3209F0EEFE1020D44F0090BD4AD348132395
:2017300039460190102009F0E3FE3078800010F02DFE0146CE488146816069B14FF6FF7059
:2017500015F010FFD449102009F12402009011230191394609F0CCFEDFF840A310205146DF
:2017700009F0C6FECE491020042209F0C1FE012602274FF003088DF8336004208DF8347078
:201790000BF102018DF8358009AB8DF8360028460A6809791A600DF13302197131460DF084
:2017B00065F80DAA304601460DF060F80DF13502384631460DF05AF80DF136024046314647
:2017D0000DF054F80420052109AA0DF04FF804F14800C9F804005146102009F089FE20788E
:2017F00016F0A6FBC4490246102009F081FE207816F09EFBC1490246102009F079FEB24614
:2018100028468DF83700BB468DF83B802E468DF838A0C94F8DF839B04FF480628DF83AA072
:2018300053468DF83C600DF1390039460090102009F05EFE0DF13A0040F20242009053463C
:201850003946102009F054FE0DF13B000090394640F203425346102009F04AFE0FA839467F
:2018700040F2064253460090102009F041FE0DF13700394640F2114253460090102009F0C2
:2018900037FE0EA8394640F2044253460090102009F02EFE04F1CF001023394640F20542E9
:2018B0000090184609F024FEBE4904F18802102009F01EFEBC49102009F01AFEBC4E04F2FE
:2018D0000B171197B94B1293139306F110001090DDE2B90DC0F0DB820F212A46CBA316F092
:2018F00020FD6570D3E2E078401E77D0401E33D0401E1CD0401E11D0401E40F0C882780BEF
:20191000C0F0C58294F90A01B0F1FF3F72D1C74818F0A5F86EE0C04651880110B80AC0F0A2
:20193000B68217F023FB04F17803052207E0B80AC0F0AD8217F01AFB04F1600304220F462C
:20195000064683E8C00016F0C1FCA0E2280A0020694F0020A1410100380AC0F09882CA498F
:2019700009686069CF88564657B3E06A008812215A462B4618F048FC059030B3C2490968CA
:201990008989ADF812B0891CADF8101080F800A08DF8185005984570E66A20788DF8195027
:2019B00016F0C6FA0090CD49328804AB102009F09FFDC6B24EB104A8122118F021FC04E01E
:2019D00011212A46CEA316F0ACFCA06926B90321E1704FF4007154E1802152E1780D80F027
:2019F0005682A089390E08D2780EC0F05082284614F0CCFF16F0D0FB49E214F041FB84F8B8
:201A100003B044E28D220100398B01000D8F010054100020A078002800F0A080401E00F0A9
:201A30008D80401E57D0401E3CD0401E40F02F82A06A390D2ED2780A1CD2780BC0F02782BF
:201A5000284614F0A3FF94F90A01B0F1FF3F02D1764818F004F8BF482946FA2211F015F9B5
:201A7000E563A57025713CE7877E01009CB001000413002017F07AFA04F1700282E8030067
:201A9000D44A032008210CF0F1FE012840F0FF81C7A3D9E12A46F7E1A8B0010055160100D7
:201AB0003D920100780D43D2380D80F0F081380E0ED2780EC0F0EB81284614F067FFA548F9
:201AD0002946FA2211F0E1F8E563A5702571DEE10420A070FAE7380C08D2F80C04D2F80BCF
:201AF00026D2380D06D2D2E1D84834E015F0B0F9071C05D1A570CAE131810110F198010026
:201B100028468DF83F0051460DF13F0240F209300AF08EF926492B20109EC872BB88B380A9
:201B300039683160224A40F2073016210AF080F916F0B6F8ABE1C046DD780000F80C09D26A
:201B5000B80BF5D2380DC0F0A28184F802B04FF4004195E0C94817F082FF98E17D48294666
:201B7000FA2211F092F85846E56351460DF13E028DF83E0040F209300AF05AF90C490C4ACD
:201B90002A20C87240F2073016210AF051F916F087F8A06A0621524615F028FA84F802A03A
:201BB00075E1C0467D8D0100C5AB001040E20100FC020020780D3BD2B80DC0F0688166692E
:201BD000119813F009FD00900F212A46D6A3304616F0A7FB5F482946FA2211F056F85F4656
:201BF0002846E563514660640CAA8DF8307040F209300AF01DF9D449FF200A46C87240F276
:201C1000073016210AF014F96BE6C046476F696E67206261636B20746F2070726576696F8B
:201C300075732073746174652100C0469803002016F036F8CB4F1020119E396884F80A0134
:201C50000A6832608988B1806069CEA32A460F2116F067FBA06A0721524615F0C7F92846EF
:201C700014F094FE13E1F80DBFF462AFA06A390D0CD2780DC0F00B8107204FF48011607047
:201C9000A06918F0B9FA02E13C02002006212A4615F0ACF960690F212A46D0A316F041FBD0
:201CB0002C482946FA2210F0F0FF5F462846E563514660640DF12F028DF82F7040F20930B2
:201CD0000AF0B6F8FF20A0499F4AC87240F2073016210AF0ADF804206070D8E0779A010024
:201CF000380B10D2F80CC0F0D280CE4817F0B7FEA06A0621524615F079F90620ECE7C04698
:201D10006C6F6461210015F0A3F8666C071C63D1206A401C206260690F212A46C9A316F0E6
:201D300000FB206A0128D6D10A482946FA2210F0ACFF03206070E563606925620F212A468B
:201D5000C8A316F0EEFAD0480C300068C00A11D202E0C04654040020CA48006803685246D4
:201D70004FF48070014698475046D049CE4F08602E463E60C44800684008FBD3C1480068B9
:201D9000416858468847C849096881421ABFC6490860CE4803220321B0FBF1F15143401AAE
:201DB0000830606200906669CAA3102137E0C0464572726F7221204E6F7469666963617413
:201DD000696F6E2073656E64206661696C65642100C046C07802002006B96764284651464E
:201DF0000DF12E028DF82E0040F209300AF020F855492C20109EC872BB88B38039683160FB
:201E1000514A40F2073016210AF012F815F048FF6669384613F0E0FB0F21C8A3009030465B
:201E3000DFE2656204206070380BBFF481AEF80C06D2B80CBFF47CAE380D28D305204BE7DD
:201E5000BC4817F00CFEC3A36069C9E274030020380B15D2780C1AD360690F212A46C9A37C
:201E700016F05FFA584651460DF12D028DF82D0040F2093009F0DCFF2C2024E750030020D6
:201E90000DF08AFD5246A06A062115F0AFF8A069C34A29464FF0FF3318F0AAF9071CF6D0AF
:201EB000284607900BA907AA08A815F0FBFC002864D1BDF82000D046102858D120789DF826
:201ED0002C10884253D1079801884FF6FF728A424AD14088C0084AD3266B002E47D06079A7
:201EF00006F10803401C6071C349009372883379102009F0FDFA5FFA80F9B9F1160F25D0A8
:201F10002078B9F1040F21D0266B16F011F803462846C84900907288102009F0E9FA4846DF
:201F300011F0ECF923E0C046526F75746520646973636F7665727920746F20257320636FEE
:201F50006D706C6574652100FC0200206079BA490090097860692A46B2A3491DC9B216F049
:201F7000E0F904E04C02002000F07EFA8046079820B1B8F1000F01D017F050FDF80FC0F0F4
:201F9000EC81E4E1436F6E6E656374656420746F20726F7574652100E669304618F024F90F
:201FB000864208BF2E1C02D0866815F0D7FF301C00F0CD81A048338862690178581E00F0C6
:201FD000BD81401E00F01281801F00F08E80083812D0103800F07481B6E1C046526F75749F
:201FF0006520646972656374206164762074696D6564206F7574210070688378002B67D075
:20201000012B43D0022B0FD0032B40F0EB80C378002B08BFB5A30CD003880093C078BAA388
:20203000019008E0E0030020C378002B40F0DA80BCA3008800901046C91C2A46C9B216F081
:2020500070F9CFE04E6F20746172676574206164647220666F756E642120476F20626163C0
:202070006B2100C0526F75746520627573792C2074727920616761696E206C6174657221EE
:2020900000C046C0CC01001008800240C3787BB90088C91CCAA30090C9B210462A4616F0A3
:2020B00040F94FF4000101E1742B0020A802504200880090C91C0193C9B21046CBA32A4676
:2020D00016F02FF94FF08071F0E0C046EFBEADDECBA3AEE752616E646F6D2077616974202B
:2020F000636F756E743A2025640070680078010958D2400976D30E2017F008FA002871D10D
:202110004D484D494068497803790A46934213D0FF2A67D000EBC203DB682BB900EBC100B4
:20213000006915F0AFF95DE000EBC20003690846984757E0BC0300208068F2E7526F757475
:2021500065206469726563742061647620746F3A202573005374617274656420726F75745E
:202170006520646973636F76657279206E6F6E20636F6E6E65637461626C6520616476216D
:2021900000C046C05374617274696E6720726F75746520646973636F766572792100C046AF
:2021B000FFFBFFC10D2017F0B1F9D8B92249224849684078097981420FD0FF2812D0401C1F
:2021D000C0B215F03BFBFF2802D1284615F036FB194948700BF082FE04E0284615F02EFB8F
:2021F00015494870706815F0B9FEADE07068037823B19B1E5ED0F6E7DDFE00102379EBB982
:2022100016F0B4FE04F1680282E803009449284614F01CFAA0694FF4807117F0EDFF84F819
:2022300004A0DFE75273702073656E642072657472793A004B960100A81B00208949284690
:2022500014F004FA04F168020CCA04F1600003C8121A04F178008B4103C8121A04F1700056
:202270008B4103C8801841EB0301CA0F002312184FEA520043EB01030022D9070843D0F1FE
:2022900000084FEA630162EB010917F0A9FF04F1580106C904F1580311EB080142EB0902D9
:2022B00083E8060017F098FF4FF48051A06917F0A3FF97E758460DF13D0114F0C7F991E7A5
:2022D000D6F804801298C91C53A30090C9B210462A4616F026F8139800906049B8F80A2064
:2022F0002B46102009F004F97CE7C04643786E20256420626F6E64207361766520737563FF
:202310006365737300C046C043786E20256420626F6E642073617665206661696C65643A16
:202330002025640043786E20256420626F6E64696E67207375636365737300C0706800F070
:2023500093F8706817F06AFB304615F007FEE06917F03EFF00283FF41FAE380B11D304F14D
:20237000580003C88DE8030060692A462EA30C2115F0D7FF606A002803DD401E3FF451AD3F
:20239000606260780A283FF682AD800001A109588F46C046611E00009F1E0000E723000059
:2023B000611E0000391E0000F11C0000771C0000C51B00009F1E0000251A0000F7180000AC
:2023D000636F6E6E48616E646C652025642070616972656400C06069790DFFF47AAA14A3D8
:2023F0000F212A4615F09DFF51E5C04670616972696E67206661696C65643A20256400C03E
:20241000636F6E6E48616E646C652025642070616972696E6700C04650617373636F6465C7
:202430003A20256400C046C0703A20256400C0464920616D20616C736F20726F7574652015
:20245000636F6E6E6563746564212057616974696E6720746F20706169722100B17901008A
:2024700068020020800200202DE9F04F05460120ADF11C0DBA4C06902878913800F0BE8362
:20249000DFF8E0A2DFF8E0921F3800F00A83203840F01A845046A846059005786178A26A15
:2024B000666998F80200002800F0C282401E00F02782801E00F08982401E00F0E081DFF839
:2024D000ACA2DFF8ACB2401E00F01281401E00F08580401E00F07482801F40F0F58398F81A
:2024F0000300002861D1256C08F10507002D12DD04F5527630463946062216F001FA30B9F5
:20251000D8F810002B2116F0C5F920B10EE06D1E06F11906EED198F80300002845D1D8F8FB
:2025300010002C2116F0B6F900283ED00DF034FAA06A0621002214F059FDD8F810002B213F
:2025500016F0A8F918B90220069D607003E00A206070069DE57098F8040008F1050114F0F2
:2025700015F8059E606931780022D5A3091DC9B215F0D7FE6769367808F1050013F02CF871
:20259000761D03460022F1B2384615F0CAFEE571E56C666908F105006D1CE56413F01CF8E2
:2025B00000901221CAA3019576E198F80300022840F08A83D8F81000C07A2A2840F0848351
:2025D000D8F810000090D8F80410D8F80820D8F80C30D8F8000010F06FFD75E309290AD1F2
:2025F000A078022807D104F513700021FA2210F04CFB0020A070A16B192204F588604A43CC
:20261000002110F042FB002510204946A56308F06FFFC7B2B8F8040015F016FE2082A17AF7
:20263000814240F35183E26A41004FF6FF7301EB0011069E5352626B0301D55406FA00F04C
:20265000D118CD8082B22946504615F0EBFF208A294606FA00F082B2584615F0E3FF208AA0
:202670008640C1482946B2B215F0DCFF27B9D34829461C2215F0D6FFDDF814A0D4F814805D
:202690009AF800601020494608F032FF761C00902A46D3A3F1B2404615F043FE60699AF87E
:2026B00000102A46D2A3091DC9B215F03AFEA07A401EB84210D15646317860692A46D0A3F3
:2026D000891CC9B215F02DFE317860692A46D1A3491DC9B215F025FE6178A0690A2904D151
:2026F0004FF4805117F088FDA0694FF40011E4E098F80170002F40F0B1802D1D3046002296
:20271000C8A3E9B215F00DFE0598666905784946102008F0EDFE6D1C00900022B0A3E9B2DF
:20273000304615F0FEFD0020E071B8F80AE0A77A08F1040C87B1E56A064601463A464FF6FF
:20275000FF70123D35F8123F984213D0521E06F1120601F10101F5D1984D152643E0C046EE
:2027700008020020A81B0020F17F01102818002090170020A5F800E00F46604612F02CFFEF
:20279000AD1C01460F2228460EF03AFB06980022B8401FFA80F95046494615F043FF5846F3
:2027B0000022494615F03EFF5546DFF8BCA100224946504615F036FFE06AFB0036185919C1
:2027D00003EB0B02B61C7D4DCE60E888D66003EB0A01CE60400904D228461C21002215F066
:2027F00021FFFEB2A77AC749102008F081FE874211D80699002740F2053004AA8DF810708F
:2028100009F016FB059960690978B9A33A46891CC9B215F086FD0599E36A0978606972008B
:2028300002EB0612491D9B18C9B200229B1C15F078FD284614F026FEB8F80A00A081607853
:20285000022804D0092804BF0320A07003E0B8F80A0013F015FC4FF480112DE02D1D3046F1
:202870000022CCA3E9B215F05CFD98F801000090059866690078CBA3401DC1B20CE0A57A70
:202890004946102008F034FE85420AD8504666690578CEA3AD1CE9B20022304615F041FD04
:2028B00012E2514660690978002255A3891CC9B215F037FD4FF40021A06917F09DFC03E2CE
:2028D000436F6E6E656374696E6720746F3A00C054617267657420636F6E6E6563746162AF
:2028F0006C65206469722061647620616464723A2025732C20636F756E743A20256400C078
:202910000020A07106211046002214F06FFB98F80300A06398F80300E8B1284802210022F2
:2029300015F080FE069E04F5886A00254FF0190BB14698F80300A84218DC0E2D0BDA4E46D1
:2029500006FA05F082B2AC48002115F06BFE6D1CEDB20E2DF4DB98F80300009066690598FA
:20297000C6A305782D1D96E7DC170020D8F80400EF0039184B780BFB05F202EB0A067370D3
:20299000C05D891C0AF802000A68B01C02608988818012F021FE083601460F2230460EF064
:2029B0002FFA954809FA05F3002299B23F18FE6015F038FE6F1CFDB2BBE7C0468C19002002
:2029D00098F80300C2A30090CCE7AD1C30460022C3A3E9B215F0A5FC4FF480216CE7C04667
:2029F000436F6E6E656374656420746F20256400446973636F6E6E65637465642100C0468E
:202A1000526561647920746F2041647665727469736500C0526561647920746F20536361F8
:202A30006E00C046436F6E6E65637465642100C0B8F80A00E08108F1030012F0CDFD034672
:202A500029460022304615F06CFC5546297860690022A6A3491CC9B215F063FC29786069D4
:202A70000022A6A3091DC9B215F05BFC08F10300BD4902680A6040684860069ABB491020E4
:202A900008F036FD04F150014FF441700CF084FC4FF0FF3084F80A0104F5927016F0DFFF71
:202AB00012E16978207816292ED051460A78606929797E2902F1040212D07F290DD01B298E
:202AD0002ED1E9686A8904F170000EF099F9A0694FF4007117F090FB22E029898AA301E09D
:202AF000297A8DA30091D1B2002215F01AFC17E043616E2774206164763A206E6F206C6977
:202B10006E6B7300F17F011015F012FA03460420974900906A88102008F0EAFC002864D08E
:202B30004946102008F0E4FC002849D0688815F08BFB20822A790B2A23D0012A02D1297A24
:202B50000A291ED0132A0DD0012A02D1297A122908D0616B0001085C002831D0284609F0B5
:202B7000D9FA2DE0514660690978012A07D0227A6DA3521CD2B22272521ED2B21AE06EA351
:202B900017E0514660690978012A11D0EA6812786DA30FE0436F6E6E656374204661696C00
:202BB000656400C0526561736F6E3A20256400C069A32A7B0092491D0022C9B215F0B1FB7A
:202BD000297905F1080017F01BFB7DE043616E277420416476203A204D617820636F6E6E75
:202BF00073207265616368656400069810F086FB25630020069067E09016002068780E38D6
:202C100045D0801E5CD02E385ED1A878E66B80285AD10A2E58D0002E05F10509A0460DDD8A
:202C300008F24E27344648463946062215F068FE002849D0641E07F11907F4D14A46116852
:202C5000192000FB068404F51374A01C016091888180104612F0C0FC01460F2204F1080066
:202C70000EF0CEF8E87AE07595F90C00207628796070771CC8F83C7026E0C0464465766995
:202C900063657320466F756E6420256400C0A88842F20301814217D1A9680878A0B9491C02
:202CB00002A80A684968026002AF41603878314902AA00F0FD003870102008F019FC03E0F8
:202CD0000820002107F020FF069807B0BDE8F08F506172616D2055706461746520256400EF
:202CF0004164766572746973696E6700436F6E6E656374656420746F203000C0496E69740A
:202D100069616C697A6564004D54552053697A653A20256400C046C046432056696F6C61C3
:202D30007465643A2025640057726974652073656E743A20256400C05772697465204572F9
:202D5000726F7220256400C052656164207273703A20256400C046C0526561642045727248
:202D70006F7220256400C046BF0F00205D8601004B96010095B400102DE9F04F0F4685B0C7
:202D9000804617F8010B8DF800004FF4B07008EB00044FF49C7008EB00059DF800104FF434
:202DB000C67008EB0006182908F1E70A08F1660908F20D1BDFF86C0700F2A183DFE811F0F7
:202DD00019007200660194009F039F03FD007903140127010101100138019F039F0384014E
:202DF0009F0368015C018503E402E40236029F03810217F8010B88F886000222394608F1ED
:202E1000880017F0E1F90146022208F18A0017F0DBF90146022208F18C0017F0D5F9014664
:202E3000022208F18E0017F0CFF9074698F88600400088F8860008F1860108F1860002223C
:202E500040884000488008F1860080884000888008F18600008900010881394608F1840035
:202E700017F0B2F908F10601B9F81E004988401A80B247F6FF7188422BDA08F1860008F170
:202E90008601C0888988401C4900484308F186010989884228BF3B2080F04082012089F820
:202EB0001C001CE00522394608F1610017F08CF90146022208F1920017F086F908F1860063
:202ED00008F1060180894988401A80B247F6FF71884280F2228208F186010120887208F15B
:202EF0000601002008834CE29AF81600C0070AD41A208AF80E009AF80D00012808BF0D210E
:202F10003FD00D21D7E1002089F8000089F80600082201208AF81100394608F1B00017F077
:202F300053F90146022208F1B80017F04DF908F1A80401460822204617F046F90746082194
:202F5000204617F03DF908F19C0404223946204617F03AF90421204617F032F908F1A0008A
:202F700017F02AF908F1980017F022F9DFF8B805018841F0800101809AF80D00012806D175
:202F90000421404605B0BDE8F04F14F0F3B899F81000012804BF99F811000F280BD1404666
:202FB00011F052FE0421404611F010FB0F2089F81A00FD217FE104217DE101208AF80F007C
:202FD000ACE2002089F8000089F806008AF800000B2101208AF80D0000208AF801006AE1DF
:202FF00001208AF8100099E2002142187B5C547A23437B5452781A4008EB0103491C08298D
:2030100083F8FD20F1DB404611F0BCF97CE2002142187B5C547A23437B5452781A4008EB36
:203030000103491C082983F8FD20F1DB022053E299F8060008B93D2070E19BF80000012869
:20305000D1D017F8010B8BF8030002224FF489703946404417F0B8F801464FF48A7002225C
:20307000404417F0B1F801208BF800009BF8020000281BD10C211EE19AF81600C00601D450
:203090001220D9E0404612F047FB3DE2387845E1387820707878607099F8100001280DD1CE
:2030B00099F811000F2802D0162803D036E20120687333E2307B40F001001EE205B0BDE8E5
:2030D000F04F002015F060BF9AF81600810706D41121084201D10F20AEE01A2254E0387828
:2030F000797800EB01202882F978B87800EB012068827979387900EB0120A882F979B87906
:2031100000EB0120E882387A2876B97A787A00EB01206883397BF87A00EB0120A883B97B2C
:20313000787B00EB0120E883397CF87B00EB01202884B97C787C00EB01206884397DF87CEA
:2031500000EB0120A884B97D787D00EB0120E8844FF4AA7040440490688B0390287E029051
:2031700008F1060040880190E88A0090AB8A6A8A298A404610F014F868B19AF8160040076F
:2031900001D40F2058E01E22404605B0BDE8F04F0F2113F06DBD688A08F186018880A88A7B
:2031B000C880E88A0881022088F886000020488008F1060108F10600C08DC01DA9F81E00C4
:2031D00008F18600898D808888420FD108F1860008F10601C088C98D884207D108F186005A
:2031F00008F106010089098E88421DD099F81000012804BF99F811000F2807D099F8150005
:2032100020B10F2089F81A00FE2154E0FC21404611F0DCF9E88A0090AB8A6A8A298A98F8C9
:20323000060016F0C1FF79E1102144E09AF817000921084203D116208BF80C0061E179781A
:20325000387801F00701084038700146707B0840F07212D0411E08420DD0400703D5B07B37
:2032700008B1042003E0F17A0220014201D0F07201E04008F9D1F07A08B9B07AF072F07A67
:20329000042803D1404612F00EFBA083F07A16F087FF3071A28BB17B012313F077FA01469B
:2032B000208B884205D3A28BB17B3079012313F06DFA70801721404605B0BDE8F04F11F0D9
:2032D00085B978783978814207D100F007000840387034D0421E10420FD01E2218214046E9
:2032F00013F0C6FC98F80610002300221E200DF00BFB307B40F04000FFE0F072F978B878D0
:2033100000EB0120308108F1060130894988401A80B247F6FF71884206DB28208BF80B009C
:2033300001208BF80A00F9E00120B071F07A042803D1404612F0B7FAA083F07A0BE099F808
:203350001100162806D1B27A98F80610134600200DF0DAFAB07A3071A28BB17B307901232A
:2033700013F014FA0146208B884205D3A28BB17B3079012313F00AFA7080307B40F0400060
:20339000307301202870C9E03878797800EB01206082F978B87800EB0120E08279793879D7
:2033B00000EB01202082F979B87900EB0120A082A18AE089884288BF0846B17A042904D15E
:2033D000B0F5296FD8BF4FF42960E28BE0839042B07A14BF4FF001094FF00009042803D10D
:2033F000404612F060FA04E0A089E18A884288BF0846A28BA08390422089628A238B14BFCC
:2034100001210021904288BF1046984241EA090114BF0122002242EA01052083A28BB17B95
:203430003079012313F0B2F90146208B884205D3A28BB17B3079012313F0A8F970806189C9
:20345000208A628B814288BF01466183914214BF0120002005438A42344998F806200968F1
:2034700001EB4211628B8041121DC00F0A7610B1404614F0F9F89DF80000142810D145B1ED
:20349000E08B0090638BA28B218B98F8060016F083FE404605B0BDE8F04F15210EF0DEBD4F
:2034B0001DB1307840F008003070307840F020001BE038780E280ED00F2809D0122804D0D9
:2034D00014280CD0162812D028E00020287225E00120287322E003208AF815001EE03078BF
:2034F00040F00200307040F01000307016E0307B40F00200307340F0100030730EE08BF840
:203510000C10404611F02CFD40B905B0BDE8F04F074800784FF480410CF068B805B0BDE8FC
:20353000F08F00BF002F0020524F0020782F00206E4F00202DE9F04F0D4685B0814615F8D8
:20355000010B8DF800004FF49E7009EB00064FF4B0709DF8001009EB00044FF4C670891E5F
:2035700009EB0007152909F20D1B09F1E70809F1060ADFF8680700F29C83DFE811F00F01BD
:203590009A031600440048007A039A03C3009A037D00D600810088001701E90128020401D5
:2035B0008403E802E8022F02A00209F1A00608222946304616F008FE05460821304616F022
:2035D000FFFD09F1980404222946204616F0FCFD0421204616F0F4FD00214842484409EBA2
:2035F000010290F89F0082F8BF00491C0829F4DB09F1C702314609F1D70016F0C9FD0120FB
:2036100088F8000066E3012088F8130062E398F80D1098F81600012900F010000DD130B19C
:203630000020707130684108B07910F0B1FC9AF80000002116F0A8FD11E050B14FF4A1701E
:2036500009EB0003306842084946DFF8940616F07DF99AF800000122002116F091FD01207A
:2036700089F86600484612F0ECFE09F166010120887188F80F002DE3012088F8100029E302
:20369000287888F80E00012088F8140022E398F8121001291DD198F8001001294DD098F8F1
:2036B0001610090704D40E208BF80C00072100E2002142186B5C567A33436B5452781A40BA
:2036D00009EB0103491C082983F8FD20F1DB0921EFE198F81610090758BF0E2058D5002195
:2036F00042186B5C567A33436B5452781A4009EB0103491C082983F8FD20F1DB484610F0F0
:2037100041FEDDE2002142186B5C567A33436B5452781A4009EB0103491C082983F8FD200A
:20373000F1DB022088F81500D4E298F81200012804BF98F80000012806D13D208BF80B0037
:2037500001208BF80A00C5E29BF800000128FAD015F8010B8BF8030002224FF48970294610
:20377000484416F031FD01464FF48A700222484416F02AFD01208BF800009BF802000028B7
:20379000E1D10C2195E198F81600C00658BF122040F19182484611F0BFFF91E228788BF8E8
:2037B0000B00F02100208BF80A000AE198F81600810707D41121084208BF0F2000F07B82DD
:2037D0001A22F6E009F16601097C012902BF09F16601497C0F2911D009F16601497D0A0086
:2037F00003D009F16602527C22B109F16602127F012A05D1400758BF0F2064D52322D8E02C
:2038100021B109F16601497C012904D009F18601897A012905D1400758BF0F2053D52A221D
:20383000C7E02878697800EB0120B081E978A87800EB0120F0816979287900EB01203082D4
:20385000E979A87900EB01207082287A3075A97A687A00EB0120F082297BE87A00EB0120FB
:203870003083A97B687B00EB01207083297CE87B00EB0120B083A97C687C00EB0120F083B0
:20389000297DE87C00EB01203084A97D687D00EB012070844FF4AA7048440490F08A0390B9
:2038B000307D0290BAF802000190708A0090338AF289B18948460FF073FC38B198F81600ED
:2038D000400758BF0F2040F1F68171E0F08909F186018880308AC880708A0881022089F828
:2038F00086000020488009F16601BAF82E00C01DC88309F18600BAF82C108088884201BFE1
:2039100009F18600C088BAF82E10884206D109F18600BAF830100089884217D009F1660032
:20393000407D28B109F166010F208876FE21C0E0FC21484610F04AFE708A0090338AF289DF
:20395000B1899AF8000016F02FFCC3E10021B0E0A878E97800EB01262879697900EB0124DF
:20397000A879E97900EB012705F10B000490A3B2687AA97A00EB012080B20390B2B2287ADB
:203990000290BAF802000190B8B200906978287800EB012081B248460FF002FC58B198F862
:2039B0001600400758BF0F208DD5484611F04CF91E220F2134E009F1860000218680C480AF
:2039D0000781484605B0BDE8F04F13F0D3BB2878207068786070012070727BE198F81700B1
:2039F000C00758BF162040F1668109F16600407C16281ABFBA79012A232210D0002818BFD6
:203A100001280BD00F281EBF09F16600007F01281EBF09F18600807A012807D12A2216219B
:203A3000484605B0BDE8F04F13F022B96978287801F0070108402870797B08401CBF411EA1
:203A50000842F8720DD0400703D5B87B08B1042003E0F97A0220014201D0F87201E0400877
:203A7000F9D1F87AB97A884204BF0020F872F87A08B938811CE0BAF82E00C01D3881F87AE0
:203A9000042803D1484611F00EFFA0830123F87A3871A28BB97B12F079FE0146208B884282
:203AB00005D3A28BB97B3879012312F06FFE78801821484605B0BDE8F04F10F087BD6978FC
:203AD000287801F0070108402870F97A08401CBF411E0842F8720DD0400703D5B87B08B1CC
:203AF000042003E0F97A0220014201D0F87201E04008F9D1F87AB97A884204BF0020F872ED
:203B1000F87A10B93881B87A0BE0BAF82E00C01D3881F87A042803D1484611F0C4FEA08328
:203B3000F87A3871A28BB97B3879012312F02EFE0146208B884205D3A28BB97B387901232C
:203B500012F024FE7880387B40F02000AFE02878697800EB01206082E978A87800EB0120AB
:203B7000E0826979287900EB01202082E979A87900EB0120A082A18AE089884288BF0846FE
:203B9000B97A042904D1B0F5296FD8BF4FF42960E28BE0839042B87A14BF01250025042822
:203BB00003D1484611F07FFE04E0A089E18A884288BF0846A28BA083904214BF0121002106
:203BD0002089628A238B2943904288BF1046984214BF0122002242EA01052083A28BB97B8F
:203BF0003879012312F0D2FD0146208B884205D3A28BB97B3879012312F0C8FD788061899C
:203C1000208A628B814288BF01466183914214BF0120002005438A4232499AF8002009682F
:203C300001EB4211628B8041121DC00F0A7610B1484613F019FD9DF80000142810D145B1F9
:203C5000E08B0090638BA28B218B9AF8000016F0A3FA484605B0BDE8F04F15210EF0FEB94B
:203C70001DB1387840F008003870387840F0200015E028780F2809D0122804D0142808D00F
:203C900016280ED026E00020307123E00120307220E0387840F00200387040F010003870F9
:203CB00018E0387B40F00200387340F01000387310E09DF800008BF80C00484611F050F995
:203CD00040B905B0BDE8F04F074800784FF480410BF08CBC05B0BDE8F08F00BF002F00204D
:203CF000852D0100782F00206E4F00202DE9F04FDFF800B5DFF800659BF800001E2508283A
:203D100087B000F26E82DFE810F072020900090009000900F000860172027202DFF8DC44C5
:203D3000DFF8DC942068DFF8DC84006800F10807062207F1080102A815F0D8FA0622B91C5E
:203D5000684615F0D3FA3978C1F380108DF8140001F00F02C809032A35D16179C1F3800130
:203D7000884239D12169062202A814F031FF00283AD09DF81400694616F0FEF9002833D01D
:203D90003146684614F049F8FF282DD0D8F80010897A684335180A0018BF02290AD001299A
:203DB00018BF032918D1325C691C484616F0E0F9102819D06A46E91D484610F045FB0622BA
:203DD0006946E81D06E201F00F01052940F00F826179C1F38001884240F0FE81216906220D
:203DF00002A814F0F5FE002800F0F681387847099DF81400694616F0BFF940F2024A70B3CC
:203E10003146684614F009F88346BBF1FF0F6BD005FB0BF031180491D8F80010897A0A00E4
:203E300018BF01290BD0022918BF03295CD1325C0498411C484616F09BF9102854D050469A
:203E500016F092F90498C11D6A46484610F0FCFA049806226946C01D15F048FA1DE09BF8EC
:203E70000000022840D19DF814106A46304610F05CF98346BBF1FF0F36D005FB0BF03044CB
:203E9000417F012906D000292ED10D3016F068F9002829D0504616F067F905FB0BF0D8F89E
:203EB0000020315C91763044411CD8F800000622143015F01BFAD449D4488978490604D5B5
:203ED000F90758BF41F20A4101D541F20441418041834186CE480180CE49CF480860012154
:203EF000CE4800780BF082FB76E1CD4C2068006800F108070F21387808421CBF00F00F0147
:203F1000062906D002291CBF00F00F00012840F06E810622B91C02A815F0E8F93878DFF82B
:203F30000493C0F3801800F00F0001283FD1062207F10801684615F0D9F93878C70969467A
:203F5000384616F019F9E8B1D9F80000807C022818BF03285ED106F10D01684616F0FCF84D
:203F7000002857D0D9F800100120C8720622607940F0040060716946D9F800000C3015F0DF
:203F9000B5F914E03078874211D10622711C684614F01EFE58B13078617960F38201617166
:203FB0000622D9F80000711C0C3015F09FF902A9404616F0E1F800282CD0606902A9001FCB
:203FD00013F02CF9002825D1314602A813F025FFFF281FD0D9F80010897C684335180A0045
:203FF00018BF02290BD0012918BF032912D1325C6069691C001F16F0BBF810280AD0606935
:2040100002AAE91D001F10F01FFA062202A9E81D15F06CF9EBE0844C2068006800F10807D9
:204030000F21387808421CBF00F00F00012874D10622B91C02A815F059F93878DFF8EC91FC
:20405000C0F3801800F00F00012846D1062207F10801684615F04AF93878C70969463846FA
:2040700016F08AF820B3D9F80000C07A022818BF032852D106F10D0016F072F800284CD1C2
:2040900006F10D01684616F067F8002830D0D9F80000062269460C3015F028F9607940F0BD
:2040B0000400607106226946F01D15F01FF914E03078874211D10622711C684614F088FDE7
:2040D00058B13078617960F3820161710622D9F80000711C0C3015F009F902A9404616F09D
:2040F0004BF800284AD0314602A813F096FEFF2872D005FB00F7D9F80000817AF51959BB25
:20411000807C15F021FA814699F82E01022811BF0328F15D00F0010081425DD14FF4947050
:2041300009EB000606223146681C14F051FD30B9062231463E4814F04BFD00284CD0012041
:2041500089F82E010622607940F00800607102A9304615F0CBF80DE02069F25D691C001F43
:2041700016F006F8102837D0206902AAE91D001F10F06AF9062202A9E81D2BE0D9F800007B
:20419000817A49BB807C15F0DFF9074697F82E01022818BF03281FD102AA414630460FF068
:2041B000C4FFFF2818D06843351805F10D0015F0D7FF10B9687F01280ED187F82E81062239
:2041D000607900F0F70040EAC800607102A94FF49470384415F08AF82168096800200871C4
:2041F00005E0002014F0D0FE862015F0B1FF07B0BDE8F08F6F4F0020D0230020F44B002052
:20421000CC470020104F0020002F0020204A0020504F0020204F0020454200006E4F002051
:20423000D04B00207C2F0020AC4B0020184F0020A4B101002DE9F84F012013F063FA01286D
:204250000ED1DFF8E454296800204871286812F02DF805F047FB040003D1812015F078FF13
:204270005DE201206071DFF8C464DFF8C4044178491C41702968A07981F8A00040200EF06F
:20429000F1FD2060307901281CBF002014F07CFEF0682168DFF89C6400F5B060C8603068D8
:2042B0000068007903281CBF002014F06DFE3068DFF88494006800F1080A4FF4977004EB4D
:2042D00000089AF80000C0F3801088F8000006224FF494700AF10201204415F007F8042276
:2042F0000AF10E0104F1240015F000F8D9F80000A37900EB431004220AF10E010C3014F0F3
:20431000F5FFD9F80000A37900EB431003220AF11201103014F0EAFF04F12C079AF815003F
:20433000B87002220AF1160104F1300014F0DEFF02220AF1180104F1320014F0D7FF0222AC
:204350000AF11A0104F1340014F0D0FF3889608402220AF11C0104F1360014F0C7FFB87835
:2043700079894000B8700901B88879814000B88089B2F8884000F88080B2628C521C4300C3
:204390005A438A4200D238B9DFF8B003007880210BF02CF93B21F5E004F12E01204614F05F
:2043B00093FB0520A081204614F06CFD05220AF11E0104F1610014F099FF9AF82300400915
:2043D000387015F0C1FE60822968DD4D498A401AA8F80C0004F161019AF82300DFF864A301
:2043F00000F01F00F873204612F0F0F931680968002008711C26A1792868714341F6210245
:2044100042520022A179714301444A80A1797143084442609AF80200400609D5CA480088EB
:2044300041F20A4188420CBFC848C948C4F89C012046D4F89C118847A2792968724311447B
:204450008873A1792868714308440021C173C148007870B1B88860B97873012020816081C9
:204470002046D4F89C118847A2792968724311448873A179286871430844807B787394F8B1
:20449000960108B914F080FDA1792868DFF8C8B27143084494F89611491E01740022A179ED
:2044B00028687143084400214174A0792968704308444282A279D9F8000000EB4213724338
:2044D0000A445361A27972431144A44A8A61DBF8141091F800C094F806E05FEACC714CBF89
:2044F000102100215FEA8C724CBF202200225FEA4C734CBF402300235FEA0C7C4CBF4FF0F0
:20451000800C4FF0000C1143194300EB4E104CEA010141F00F010172D9F80000A17900EBF9
:2045300041100B214172D9F80000A17900EB411004218172D9F80000A17900EB4110884904
:20455000097801291CBFDBF828104978C172D9F80000A17900EB41101F210176D9F8000017
:20457000A17900EB411000214176A0790BF092FFA279D9F8001052018850A07942018958F4
:2045900021B90721204614F048FAC8E07549096801EB001015F0D4FD724AA1791268D9F893
:2045B000000002EB011200EB41114A60A17900EB41114968F963A1794901405878640421A3
:2045D0005E4800780BF012F86249B888097800F1020E19B110B9F88800F1020E608A00FB42
:2045F0000EF04FF4C871B0FBF1F0401CC4F818E0606140F6C41394F806C02968226806FB59
:204610000CFC8C44CDF800C0D2F80CC003FB0ECCACEB0000A0F5A86C0098C0F808C0A0794E
:204630007043084480689060A07970430844017B01F0EF010173A179286871430844017B84
:2046500001F07F010173A179286871430844017B01F0F00141F002010173A1792868714357
:204670000844417B01F0F00141F001014173A1792868714308442168806808616269D9F839
:204690000000A17997F802C0520000EB411103FB0C2202F5F6624A61A17900EB4110C17C57
:2046B00001F0F00141F00401C174FA88D9F80000A1795A43DBF830301B6800EB4111D21AB4
:2046D000A2F51672CA61A17900EB4110C17E01F0F00141F00401C176A179286871430844F2
:2046F000216848609AF80100800615D5B8F83A001B2804BFB8F83C001B2809D1B8F83E008F
:20471000B0F5A47F04BFB4F86E01B0F5A47F03D0142120460FF05AFF134907200870BDE8B5
:20473000F14F00F02DBD00BF104F0020B44D0020684E0020F44B0020782F00206E4F002017
:20475000742F0020002F0020504F0020FB46010063530100784E002048B101005C4D0020D6
:20477000734F00208C4E00206F4F00202DE9F84F5FEA000A27D1002014F006FC23E0504608
:204790000FF06DFC62E2317C012940F07E80C078002877D098F80000400088F80000B8F8B1
:2047B00002004000A8F80200B8F804004000A8F80400B8F808000001A8F808000120307744
:2047D000504610F041FA0AF16606707D002800F064824FF489700AEB00094FF4A2700AEB22
:2047F0000004717C4FF4C6700AEB000B00290AF186080AF1EC050AF10607DFF8A404C2D088
:20481000012946D0022931D0032957D0062900F0A480072900F01E82082900F0F180092902
:2048300000F00F810A2900F0B3800B2900F0CA800C2900F013810F2900F04981112900F04F
:204850006A81122900F03881142900F0CE81162900F06C81182900F09D81F02900F0008207
:20487000FC2926D0FE2900F0048284E7317C012985D1C078002800F08281504610F0E4F912
:204890001621F1E1B888F18B10E050460DF026F9DCE1317C01290DD1C07800281CBF0120D3
:2048B00088F80A008CD1B888B8F80C10884200F09581F1E150460EF0C4FBC7E1317C012981
:2048D00041D1807850B10020B071A078012805D10020A070002150460FF078FEA87B0128BD
:2048F0000AD10020286068600621012088F80E00504612F03FFC66E7E87B012818D150465C
:2049100010F0A2F9002088F80E0001203070504611F097FD0120B07100206873697A387882
:2049300006291ABF00221A21002215F029FC4AE799F8050001286FD0308B401E308380B289
:2049500000284CD0A8E150460CF0E8FD3074F08A30830020A873E8739FE1307C01280ED168
:20497000A87A01281FD1504610F06EF9002028722873E872A873A872E873687323E7504635
:2049900010F0ECFB3074F08A30830020A87284E1307C01280DD1E87A012802BF002088F811
:2049B0000E000B21A4D0308B401E308380B2B0B172E1504610F0F6FC3074F08A308300200E
:2049D000E8726AE1317C012916D1807808B103218EE7308B401E308380B20028E8D1297A98
:2049F0003878012903D1222115F0CEFB29E10022222115F0C5FB24E150460FF05DF925E1BE
:204A1000307C012814D1287C02280AF1FD0204D13978002015F090FBD2E6308B401E30834A
:204A300080B200280CD13978222015F085FB08E150460EF0C3FE3074F08A308301202874EB
:204A50002AE1317C012905D1807810B1B88B3883B6E694E050460FF095FCF7E0307C0128F5
:204A70000AF20D1121D1087801280DD14878012809D1B9F8020000900020CA78B9F800304A
:204A9000397815F055FB9BE6308B401E308380B2002810D1B9F8020000902220CA78B9F800
:204AB0000030397815F044FBCBE00120887050460EF03CFB3074EFE0317C012903D180781C
:204AD0000028E0D15BE0504610F0FEFDBEE0307C01281CD16078012809D1207F0F281CBF35
:204AF000002014F051FA00206070002100E7A078012806D10020A0702322504612F0B8F86A
:204B100061E6207801283AD100202070EDE750460BF008FE9AE0317C012903D1C0780028D2
:204B300021D12CE050460FF05EFC8FE0307C01282CD19BF80C00810648BF1821D6D4C1075F
:204B500012D5207F16281CBF002014F01DFA9BF80C0000F0FE008BF80C0000233978607F9C
:204B700000220BF0D1FE2BE6810708D500F0FD008BF80C000023397800221A20F1E7308B84
:204B9000401E308380B200285BD085E050460BF06DF85BE0317C012922D1C078C0B19BF8D3
:204BB0000C009BF80B1059B9810610D500F0DF008BF80C0000209BF80A2039781346D0E7B1
:204BD00000F0DF008BF80C0001208BF80600F7E57988BBF80800491C88425DD1282143E05C
:204BF000182150460BF042F830E0307C01282AD19BF800004FF4B3710AEB0105810614D55C
:204C100000F0DF0001078BF800000BD500F0F7008BF80000288B0090AB8AEA8A698A387851
:204C300015F0BAFA00202870CAE5810704D500F0FD008BF80000F5E7308B401E308380B299
:204C500050BB222110E050460DF008FA3074F08A308321E0504610F083F90128E4D01BE0B5
:204C7000407AD0B199F80610504613F0D6FE012013E0B07E0F280CD1FC21504612F07AFA56
:204C9000608900902389E288A188387815F08CFA02E0002014F078F90020BDE8F28F00BF95
:204CB0005C4D00202DE9F0475FEA000882B00BD1002014F069F907E0404610F051F9012809
:204CD00064D140460FF0C0FF08F16605687D00285CD04FF49E7008EB00044FF4B070697C1E
:204CF000DFF894A408EB00094FF4C670022908F1EC07404408F1060635D0042949D0052907
:204D10005FD0062900F08E800729D5D0092900F0F4800B2900F0C6800C2900F026810D2950
:204D300000F0D5800E2900F0F6800F2900F05D81102900F07881112900F09681122900F0ED
:204D50004181142900F0D681162900F09781172900F0C381FC2919D0FD2900F0F481FE2982
:204D700000F0F681A4E7287C012809D19AF80300002814D01621404613F04FFE012006E0D5
:204D900040460FF06CF92874E88A28830020BDE8F687287C012810D19AF80200002800F0C4
:204DB0001881FC21404612F0E5F9307808F1B80208F1B00115F0B8F986E740460CF0B4FD6C
:204DD000E1E7287C012810D19AF8020028B1012088F89400002038607860B87A012869D186
:204DF0000621404612F0C6F96EE708F1E7063078012809D1404612F0A3F80128C6D100204C
:204E1000B87201202874C1E770780028BED008F1C70208F1A00108F1D70015F0B9F9012051
:204E3000307051E7287C012838D19AF80200002840D0B08B308340460FF006FF01202870B7
:204E5000404611F0FEFA0120A871397A787C012900F010000CD130B1002060712068410838
:204E7000A0790FF095F83078002115F08DF90FE048B14FF4A17008EB00032068420841469E
:204E9000BE4814F063FD30780122002115F078F9002038723873F872B87215E7404610F0AB
:204EB0005DF970E7287C012805D1F87A012808BFFC2196D08DE040460EF0FEFE012853D173
:204ED0000020F87288F8940001202874FCE6287C01280ED19AF80200002809D0002088F8A4
:204EF000940001202870404611F0ABFA0120A871BDE0404611F08AFC45E7287C012806D175
:204F10009AF8020000281CBFB08B3083A6E040460FF038FA37E7287C01281DD1387C022808
:204F300008F1FD0204D13178002015F005F9C8E6032806D131781A2015F0FEF8002038746E
:204F5000BFE6288B411E298389B200290CD13178222015F0F1F842E040460EF02FFC287457
:204F7000E88A28830120387410E7297C012908F20D1021D14FF4897108EB01020178012992
:204F90000BD14178012907D1518800911388C2783178002015F0CCF893E6298B491E298359
:204FB00089B20029E0D1518800911388C2783178222015F0BDF812E00121817040460EF05F
:204FD000B5F8E0E6287C01280BD19AF802000028E2D1288B401E288380B20028C4D1222148
:204FF000C9E6404610F070FBCDE6287C012816D1607A012803D199F800000F281CE0207A65
:20501000012829D100202072288D00090090A88CEB8C317842081A2015F082F851E6404649
:205030000BF080FBAFE6287C012819D1607A012812D199F8000010281CBF002013F0A4FF4E
:2050500000206072288D00090090A88CEB8C3178420899F80100DFE7287F0028DED1B8E7ED
:2050700040460BF0B0FB8EE6287C012802D19AF80300F2E740460FF0B6F984E6297C012905
:2050900026D1017B4A062ED4CA070AD501F0FE0101730023317899F8010000220BF034FC7C
:2050B0000FE68A0707D501F0FD0101730023317800221A20F2E7288B411E298389B20029F8
:2050D00055D131780023002222200BF01DFC86E7162140460AF0CAFD55E6297C012907D189
:2050F000017B4906BBD5017B01F0BF010173E8E51721EEE7297C012920D101788A0617D515
:2051100001F0DF010A0701700ED501F0F7010170B9F81E000090B9F81A30B9F81C20B9F8F7
:205130001810307815F038F8002089F80600C8E58A0794D501F0FD010170F5E71421404615
:205150000CF08CFF1FE6A97E404612F013F8BBE6A87E0F280CD1FC21404612F00BF8608A8C
:205170000090238AE289A189307815F01DF80DE6002013F009FF09E65C4D0020852D010002
:205190002DE9FE4FDFF85084D8F80400009018B9BDE8F74F14F0C0BF0078DFF84094DFF854
:2051B00040A4DFF8404401281CBF0228042846F2A81741F64C5B05D0402818BF802800F0C5
:2051D000F98001E214F074FB0028FAD00098007807F090FE05466E6816B9002013F0D4FE84
:2051F000DFF804044078002800F0A58004F082FA14F0AAF9019000680290014647682846C5
:205210000BF030FF02286FD02978012904D0022927D0042945D0D7E1DFF8D0130968097A82
:205230001AF80110217018B914F072FF5844B0603069C17E01F0EF01C1763069C17E41F0BF
:205250008001C1763069C17E01F0F00141F00201C176B868DFF8981308183169C8610120BB
:20527000A4E00521217018B914F052FF5844B0603069C17E01F0EF01C1763069C17E41F018
:205290008001C1763069C17E01F0F00141F00201C176B868DFF85813081831690862022079
:2052B00084E00621217018B914F032FF5844B060D0480068807C11F079FF3069C17E01F052
:2052D000EF01C1763069C17E41F08001C1763069C17E01F0F00141F00201C176B868C44984
:2052F00008183169086260E002980078802811D108202070C0480078012803D0BA484078B0
:20531000022801DB012002E0D9F8280000787969C8720AE00720B8492070097878690129B9
:205330001CBFD9F828104978C1720198AE4980798870029844E1002D18D000992878A9420C
:205350000ED1401E012833D9C01E05D1A9480068807C11F02BFF2BE0002013F015FE27E04F
:20537000012804D0022815D0042817D02CE19F480068007A1AF80000207014F0C9FE39186A
:20539000B06814F0C1FE18B914F0C2FE5844B06001200BE005202070022007E00620207061
:2053B00094480068807C11F001FF042088F80200284605E18C484078002800F0B68004F0D4
:2053D00099F914F0C1F800900068019045688648807814F0B9F8029014F070FA072108424B
:2053F00078D098F8020007F085FD0646019977680BF038FE02286DD03178012904D002291B
:2054100024D0042940D062E078490968097A1AF80110217018B914F07BFE5844B8603869FD
:20543000C17E01F0EF01C1763869C17E41F08001C1763869C17E01F0F00141F00201C1760F
:20545000A8686B4908183969C86192E00521217018B914F05DFE5844B8603869C17E01F0AF
:20547000EF01C1763869C17E41F08001C1763869C17E01F0F00141F00201C176A8685C494A
:2054900008183969086283E00621217018B914F03FFE5844B86057480068807C11F086FE67
:2054B0003869C17E01F0EF01C1763869C17E41F08001C1763869C17E01F0F00141F0020125
:2054D000C176A8684A4908183969086274E0002013F05AFD02980099884224D001980078E6
:2054F000802811D10820207043480078012803D03D484078022801DB012002E0D9F828001C
:2055100000786969C8720AE007203B4920700978686901291CBFD9F828104978C1720098E6
:2055300031498079887001984AE014F0C7F9072108424ED098F8020007F0DCFC0646307884
:205550007568012804D0022815D0042822D040E026480068007A1AF80000207014F0D8FD49
:205570003918A86814F0D0FD18B914F0D1FD5844A860012021E00520207014F0C9FD3918B0
:20559000A86814F0C1FD18B914F0C2FD5844A860022012E00620207014F0BAFD3918A8680B
:2055B00014F0B2FD18B914F0B3FD5844A86011480068807C11F0FAFD042088F8020030462E
:2055D000BDE8FE4F09F0AEBDBDE8FE4F002013F0DBBCBDE8F78F00BF442F002048B1010042
:2055F000289A01106F4F0020684E0020104F0020F0D8FFFF184F0020734F00202DE9F04F11
:205610000C46E00789B00DD513F0A8FF38B100218160DFF800040068010018BF804784F03B
:205630000100F4E11E252007DFF8EC6340F18A80DFF8E8030068807C13F086FF07464FF47B
:20565000947097F82E8107EB0009002007908246DFF8C8030068807CFF2804BF002013F06B
:2056700093FC4A46414630460EF05FFD834605FB0BF0009035184946404614F07DFDB0B10F
:20569000BBF1FF0F2CD00098305C40F00208E81D079005F1010908F0010087F82E0106227B
:2056B0004FF494704946384413F020FE18E04946404613F0DBFE002818BFBBF1FF0F0FD0E6
:2056D00005F10D0014F04CFD40B905F10D0014F047FD002804BF687F012801D148F0020817
:2056F000CE480068C07A022818BF032806D106F10D0014F035FD08B906F1070A0020BD1DE2
:2057100006904346288E000905900022E88D0490A88DCDF804A040080390CDF8009007986E
:2057300002900020297814F0EBFCD7F89C01BC49884228780CBF002101210CF04BFC84F07B
:20575000080064E1E00610D500200690059004900390029001900090002300220021022074
:2057700014F0CEFC84F0100051E1A00710D5002006900590049003900290019000900023C1
:20579000012200213C2014F0BBFC84F002003EE16007A44F40F1A180A34880784FF0000833
:2057B000CDF81C80FF2804BF002013F0EDFB386890F8A00013F0C8FE81464FF4947009EBF0
:2057D000000B3868C07A99F82EA1022818BF032806D106F10D0014F0C3FC08B9F01D079045
:2057F0005946504614F0C8FC90B33868807A010018BF012804D13146584612F00EFB04E0E5
:205810005A46514630460EF090FCFF283ED005FB00F806EB080506225946E81D13F066FDE4
:2058300016F8080040F0020A3868807E00F0010089F82E010622386800F114014FF49470B2
:20585000484413F053FD05F1010B05F107081DE05946504613F00AFEC0B15A4651463046F7
:205870000EF063FCFF2811D06843351805F10D0014F076FC40B905F10D0014F071FC0028AD
:2058900004BF687F012801D14AF0020A09F12C0009F10605017806915346418909090591C7
:2058B0000122A98B0491C088CDF8088040080390CDF800B0079801900020297814F020FCF6
:2058D000D9F89C015649884228780CBF002101210CF080FB84F0040099E0200610D50020A0
:2058F00006900590049003900290019000900023012200213B2014F003FC84F0800086E074
:20591000E0043BD5F11D06F10D0014F0F5FB38684179012923D1017A012918BF04291ED16D
:20593000C17A022918BF032919D1817E00F1140230460EF0FAFBFF2811D06843351805F19F
:205950000D0014F00DFC50B9E91D05F10D0014F0D3FB38680622E91D143013F0C7FC3348E6
:205970004268334800784FF4805110F005FD10B18E2014F0BDFB84F4805048E0A00505D54A
:2059900013F06CFF2B4901200860FEE7600504D509F0C9FD84F4806039E0600405D581205A
:2059B00014F0A6FB84F4804031E0A0042ED5224D286810B1002013F0E7FA4FF0FF30286088
:2059D0000EF0AAFF1D4D296820316846096888471B4841682D681B4A00916B468168019113
:2059F00000210291016909680391017B00688DF81010ADF812002D6813491448A84714499B
:205A1000086004F0E1FD84F4005000E0002009B0BDE8F08F204F0020D0230020184F00206E
:205A3000FB460100104F0020684E0020784E00206E4F0020FC002043044F0020F04E0020CC
:205A500078190020A42E0020C81B0020782B0020EC4E00202DE9F043DFF8AC43DFF8AC33AE
:205A700094F80080DFF8A8E3DFF8A893DFF8A863DFF8A813B8F10D0F83B0404641F2064724
:205A900041F202424FF4A05553D8DFE818F0BB010E000E000E000E006D00A500E9001D0140
:205AB0005F015F01900190019701DFF87413DFF87473C3F800E041F2044E4C8874451CBFB8
:205AD000B1F81A80F0450BD0B1F83290F1451CBF41F20A4E744503D0F04518BFF14502D1BB
:205AF000A6F800E02AE0022CDFF83C73348036D94FF4806CB4EB0C041CD0241F012C1FD965
:205B10004FF47F7CB4EB0C041CD04FF4406CB4EB0C040FD0A41E012C0CD9241F0AD0641EAC
:205B3000012C0DD940F2F930241A012C17D9241F08D05FE1022814BF3580BC4F1F60FDE018
:205B5000BB4FFBE7BB480068007A012803D14A804A834A86F2E74D804D834D86EEE70020C2
:205B700013F012FA832049E1B348418831800229C3F800E014D940F20442891A2AD0491E95
:205B90000ED040F2FB32891A1DD00A3901291AD940F6F632891A03D0491E1BD0491E012911
:205BB00040F2C680091F15D0491EF9D0491E11D04FF47E72891AF3D0491E0BD0C91E09D03D
:205BD000491E012947D8817B478025290CBF2721491E817399483CE0994841883180022903
:205BF000C3F800E068D940F20442891A30D0491E62D040F2FB32891A23D00A39012920D9AA
:205C100040F6F632891A57D0491E21D0491E012952D9891E13D0891E1AD0491E4CD0491E33
:205C300016D0891E0BD040F2F632891A44D0491E0ED0C91E0CD0491E012902D90BE08148B3
:205C500007E0817B478025290CBF2721491E81737D48186072E0002013F096F984206BE09E
:205C700099F80200FF2855D07849C3F800E01C2209685043084440F204444188744A318099
:205C9000091B012946D94FF47F74091B15D00A39012916D940F6F634091B032984BF491F91
:205CB00001290FD9891E012934D940F2FD34091B08D0491E012904D93AE041F201414180C7
:205CD00000E045801A6039E099F80200FF2821D05E49C3F800E01C240968604308445D4C46
:205CF0004188318040F20446891B012912D94FF47F76891B17D00A39012916D940F6F63664
:205D1000891B13D0891E012984BFC91E01290DD9891E012976D940F2FD36891B06D0491E7B
:205D3000012902D904E0428000E045801C6005E0002013F029F9852014F00AFA03B0BDE858
:205D5000F04345480078012109F050BC4A88328040F20443D21A55D040F6FC73D21A15D050
:205D7000083A4FD04FF47F73D21A22D13B4C3C4A24683C4800680023CDE9002308343A4B5C
:205D900024680222A047394908803BE0092810D137480068408960B1364800780EF0EAFD89
:205DB0000021002014F0A0F9002020702AE048883080002013F0E8F885201FE04A88328090
:205DD000022A0DD940F20440121A1BD040F6FC70121A05D0083A15D04FF47F70121AE8D133
:205DF000887B801CC0B2B528A8BF662088730020488007E0002013F0C7F88420BDE8FE4382
:205E100014F0A6B9BDE8F7836F4F0020204F0020459A0100684E0020504F0020E42E0020DC
:205E3000204A002045420000C9D60000C9FB0000755B0110104F00209C4C0020411E010016
:205E50006C4C0020AD620000AD290100742F0020E186000045BB00006E4F0020F04E00200F
:205E700002000080EC4E00205D680100424F0020802F0020714F00202DE9F84FDFF8F443A5
:205E9000A078FF2804BF002013F07EF8A07813F05BFB04464FF4C97004F1680625183068E8
:205EB000006804F1900708B100200EE0B07B002804BFB07E002809D13878002801BF287899
:205ED0000028207F012801D1608CE0832089E18B0818401C6081204612F082FC01281EBF43
:205EF000E5480078012804D10020E0832089401C6081B07E01280CD1B28B6189208914F07E
:205F1000EFF830B121896289481C82422AD0B28B1FE0387801280CD17A886189208914F067
:205F3000DFF830B121896289481C82421AD07A880FE02878012815D16A886189208914F0C9
:205F5000CFF800281FBF2189481C6289824209D06A88824206D0501E608180B214F0BCF809
:205F7000401EE0832878012801BF68882189491C884207D16A792A71002028701346A1797D
:205F90000AF0C2FC4FF49A702044007920B10020E0832089401C608104F12E07B07E012854
:205FB00001BFB08B2189491C884237D1608104F18601204612F088FDB08CE1896084002001
:205FD0002077E08360890818A0812189B08B14F083F8B988328C01FB0028708CF28C8842C2
:205FF00004BF3B899A4202BFB18CFB88994207D0110900914208B38CA179002014F090F801
:20601000B07F3870708CB880B08CF880F08C3881204612F037FF0220B07601E0B7F8048082
:20603000E08BDFF85892411C01FB08F140F6C41808FB01F200922268DDF800C0D368634437
:20605000DFF83CC2D360DCF800C08E4A9CF800C013884FEA9C1CBCF1030F12D199F80FC0DA
:206070005FEACC7C48BF00230BD45B1C9BB2012B07D14FF49A7CA444BCF806C00CF2DC5CBD
:2060900001E0B4F812C00CFB01FC4FF4C87EBCFBFEFCDFF8F4A10CF1010CC4F814C04FF00E
:2060B0001C0B138084F82000A161A279DAF800102068C3680BFB02F20A4492680261A27908
:2060D000D4F814C00BFB02F20A44A3EB0C039360A2790BFB02F20A4492688260A0790BFBDA
:2060F00000F00844017B01F0F00141F002010173A179DAF800000BFB01F10844002141803C
:20611000287908B912F040FFA179DAF800000BFB01F10844297949080174A179DAF8000048
:206130000BFB01F10844002141742879042812D1A179DAF800002A7A0BFB01F10844017C34
:2061500041EA82010174A179DAF800000BFB01F10844202141740022A079DAF800100BFBC3
:2061700000F0084442824948A2790068D4F814C000EB4212536903EB4C035361B27E022A13
:2061900007D1A2793E7800EB4212536908FB0633536199F80F20D20740D5A2790BFB02F298
:2061B0000A449368A3F5A8639360A2790BFB02F21144226889689160009BC91A1161A17910
:2061D00000EB41114A6902F5F6624A612979042906D1A17900EB41114A6902F5B0624A6161
:2061F000A17900EB41114969C4F8341128490D6BBB88A2792D6808FB03F300EB42125B1BFB
:20621000A3F51673D361A27900EB4210214A1278012A0EBF0121896A497818E0A279297949
:2062300000EB4212042952690CBF4FF44B614FF4E661511ABA8808FB02F2A2F5167291424D
:20625000D4D30821204612F0E8FB01200FE0C172A179DAF800000BFB01F10844216848606F
:2062700007200D490870204610F00FFC0020BDE8F28F00BF684E0020784F00205C4D00201D
:20629000084F0020982F0020742F0020782F002048B10100734F00206F4F00202DE9F84FEF
:2062B000DA4DDFF86C832868DA4F807CDFF8689313F04AF9296804460020487104F12E0A33
:2062D00028680FF0F3FF012060711C2598F80100401C88F8010080200CF0C4FD20607969CD
:2062F000C160CE4801894900AAF802105146C07940008AF80000BAF804004000AAF80400A2
:20631000BAF808000001AAF80800204612F0DCFB0520A081204612F0B5FD386813F0D8FEF0
:20633000062210F8081FC1F3801184F82E11811C4FF49470204412F0D9FF3968B84F0968BB
:206350000020087141F62202A1793868694342520022A179694301444A80A1796943084436
:20637000426099F80200400609D5AE48008841F20A4188420CBFAC48AC48C4F89C0120467C
:20639000D4F89C118847A27939686A4311448873A1793868694308440021C173A17938682B
:2063B00069430844807B8AF80B0094F8960108B912F0EAFDA17938689D4E6943084494F857
:2063D0009611491E01740022A17938686943084400214174A1793868694301444A82A179EF
:2063F000326802EB4112694301444A61A1796943084490498161A0790AF04CF8A27931683F
:2064100052018850A07940010A5822B90721204612F003FBF5E008441F2202763068A17990
:20643000DFF814B200EB411000214176DBF80000A17900EB011013F083FEA179DBF8002021
:206450003068DFF8F8B102EB011200EB41114A6004F16801A27900EB421252680A60A27936
:20647000520182588A60DBF8141091F800C094F806E05FEACC714CBF102100215FEA8C7219
:206490004CBF202200225FEA4C734CBF402300235FEA0C7C4CBF4FF0800C4FF0000C11439E
:2064B000194300EB4E104CEA010141F00F0101723068A17900EB41100B2141723068A179BC
:2064D00000EB4110042181723068A17900EB41105B49097801291CBFDBF828100978C17281
:2064F0003068A179626A00EB4111CA60A17900EB4110A16A01743068A17900EB4110A16AD8
:20651000090A41743068A17900EB4110A16A090C817408214B48007809F068F82168A2796F
:206530003868CB686A4302449360CA680A61CA688A60A17969430844017B01F0EF010173F6
:20655000A179386869430844017B01F07F010173A179386869430844017B01F0F00141F0D7
:2065700002010173A179386869430844417B01F0F00141F0010140F6C4134173BAF804207A
:206590003068A1795A43DBF830301B6800EB4111D21AA2F516724A61A17900EB4110C17C60
:2065B00001F0F00141F00401C174A1793868694308442168486099F8010080061BD54FF450
:2065D00097702044408F1B2801BF4FF497702018808F1B280BD14FF497702044C08FB0F51C
:2065F000A47F04BFB4F86E01B0F5A47F03D0142120460DF0EBFF144908200870A07988F8D7
:206610000200BDE8F14FFEF7BBBD00BF184F0020684E0020AC4B0020002F0020844C0020A4
:20663000742F0020504F0020FB46010063530100782F00205C4D00208C4E002048B101004B
:20665000734F00206E4F00206F4F00202DE9F04F0F46BD4C0168616241688068ADF1140D5E
:20667000A060BA4861608047B948616A01606168DFF8FC924160A168DFF8F0828160B54953
:20669000002FA246C16068D03D68E8788DF8080028798DF8090002A813F016FDA86808B130
:2066B000AD490160E86808B1AC490160AC4C2878207068786070A878BE68A0703178E170EC
:2066D0007368636072696261B168A160F168E160316921612E697B68A6621868A0616869CA
:2066F000E062A8692063287F84F834002A6AA263786886681EB9002012F046FC00E0266253
:206710007868C06818B9002012F03EFC00E060627868406818B9002012F036FC00E0E061C4
:206730002869A062F86881680E6806B98E4E8D494FF0010B4E60C66881F801B026B9002036
:2067500012F022FCF86801E041460E6000684D46FE68A8617068E86105E0002012F014FC31
:206770004FF0010B4D46D8F80000824944686A1C05F114035020A04718B1D8F80000806879
:206790008047DAF80400804703907B487C4C286100272771B946E770784EA770300BC6B239
