:20000000004000203D5A010001C9011001C9011001C9011001C9011001C9011001C90110C6
:1C00200001C9011001C9011001C9011001C9011001C9011001C901103FC9011089
:20003C0080B54FF4FC720FF278011A4810F0EAFB194800210170012141740221C17601BD1B
:20005C002DE9F0410FF25021144838220B684C688D68CE680F69D1F814C0D1F818E0D1F824
:20007C001C80036044608560C6600761C0F814C0C0F818E0C0F81C8020312030521EE5D1F7
:20009C004A688B68CC680968016042608360C460BDE8F081480400215903002100C000210F
:2000BC00410500217D0500212D06002170B51D46004C204787B2000010B5014800470000FD
:2000DC00D509000070B5614C6148254650358047022809D14034E1885E4A914204D1E97C5E
:2000FC00890601D4911DE18070BD70B557495A4A084650300378002B10D08379012B0DD181
:20011C00037C5B09DB0709D0097D544DC1746C7F20202043687790476C7770BDFF21C17420
:20013C00904770BD10B54E48484C804702280ED121464031CA88474B9A4208D1CA7C5209CE
:20015C00D20704D0227D920601D49A1DCA8010BD70B53E4843494030C07C4009C00707D032
:20017C003E4D41482C8B2043288388472C8370BD884770BD10B53B48344CAC388047214609
:20019C0053310A789309DB0705D04034A2730A7803231A430A7010BD2C4940310871182876
:2001BC0012D004DC0A280BD00B2804D10AE025280CD02A280CD02D4980004018C0687047DE
:2001DC002B4870472B4870472B4870472B4870472B48704770B504461C484E252D5CAE09AB
:2001FC00F60716D0067D3007000F052803D00120054202D00DE00220FAE7E80905D07006D1
:20021C0003D54868800F012803D05B085B0052085200062B03D01020022B11D011E0FB20F7
:20023C00024002232046FFF741FF002807DAC100611A2039497E1422114200D1002070BD93
:20025C00024303432046FFF731FF70BD4401002137CB000004140000EBC80000A800002142
:20027C00F5B4000053AD00002020000080DF00001D050021F9040021CD040021930400210F
:20029C006D04002110B5034CFFF716FF20680028FAD110BD0011044068610000F825F965B0
:2002BC00F9754500450045002600260057A3520052004C00401F401F401F3F000000000053
:2002DC00304000400140034007400F404F40CF40CF41CF43CF47CF4FCF3FCF2FCF1FCF0F6C
:2002FC00000000000000000000000F00080000003F00000040003F000000040068000E0093
:20031C00DC00060043001A00050000000000020000000000000000000400C00000000400B3
:20033C00C000000007000000000000000000000000000000000000003040004001400340A6
:20035C0007400F404F40CF40CF7FCF6FCF5FCF4FCF3FCF2FCF1FCF0F00000000000000009D
:20037C0050C00091007070C00091007082312100319110B10070018101B100A1823132910D
:20039C0010B101911110418141227740F106007051C0019130181039833108D01831416FD1
:2003BC003100319110B18314141683680070251050C00091F4C340C12014036F3110410497
:2003DC005082F0229840512622C082312100319110B163393110410482C08231210031919B
:2003FC0010B163393110A2C082312100319110B150101531051405920070676452C03110A6
:20041C0031066131C1026A6412C13110213971065131E1026A64007051C0019101CCE2C0CC
:20043C006A64676411C1C2C06A6450B054B0007140804022D6440022C94060B08180111EC9
:20045C00C944007054A064B0F0800022C9404012B09032B070C1DF6811C122C16A6470C1C0
:20047C00E46851C00191E2C0823160820200329110B130C2EE68538253395339B16460C347
:20049C00F4688012B09032B00070676401C122C16A6401C1C2C06A645382B164C012B09074
:2004BC0032B00070676472C281C06A6422C111C16A6402C011C16A6462C031C36A6462C3D2
:2004DC0011C16A6402C311C16A6453825339B164E2C36F6411221C4142C281C86A6452C24E
:2004FC0011C16A6472C2E1CE6A6402C281C86A6402C201C86A64B0C030690070676442C211
:20051C0001C86A6452C211C06A6472C2E1C06A6402C001C16A6462C001C36A6422C101C127
:20053C006A6462C301C16A6402C301C16A645382B16400708180111E5C4150B054B000712B
:20055C00408040225D4154A064B0F1800122514500700022514160B04E61000000000000AA
:20057C000000000000000000067305720B720E7250B00071818060B050A09280F0EFF1928C
:20059C0002936A6741228C458080F1C11004301601110114016CB561B661B761B861B9618D
:2005BC00BA61BB61BD61BF61C161C36126632D63F0C002043231412A121432160111211412
:2005DC00016CDA61C561E061C761CB61B561B561B561F461C561FA61C761CB61B561B56104
:2005FC00B561F461C561FA61C761CB61B561B561B561E761C561ED61C761CB61B561B56121
:20061C00B561CF61CF61CF61CF61CF61CF61C064CF61F964CF610665CF613265CF6174676A
:20063C00CF611166CF61C0644E65F964CF61066511663265CF618280E0DFF2926A67B0B044
:20065C00D661B1B00673057230B06C61D0CF6A6784C203C0C0C37C64207851788278E378B7
:20067C001579B6780062C0CF6A6784C203C0C0C37C64307861789278F3781579C678006250
:20069C00B0CF6A6784C203C0C0C37C6440787178A27803791579D678109221923292439281
:2006BC005492659256911FC0FF914039F00601101031101400927067CF61E3B054A0F08076
:2006DC0050221A4640800022BE461262E3A000C86091598150B0918041228E46A0CF6A6734
:2006FC0012828231823942398B641282F2062F101F312F141682D622334640C1346200C5AF
:20071C0020140D6F6D39DE10F4C34E0482C082312E006D39A2C082312D001A828A39FA0606
:20073C002082803180390BC00B18BC10AC18038239149B141082F0060110103110145181C2
:20075C0010140C14C622C94631D0C1266462021011C0013010C00118021882312100C126C2
:20077C00919103B013B063B053B041800122BE46B481C491D581B51C774E95186591F0803E
:20079C00102269428C623D9110B13E9110B1E08000228146E6228142E0B0951865910F926B
:2007BC005981F914F0805022114210228C464D6390CF6A6763B052A03082F2C0200402107E
:2007DC0011C0013010C00118021882312100C1269191919113B003B063B053B064B054B055
:2007FC00007141800122BE4663B064B0F08050221142B181C191D1819118619131B0A462D0
:20081C002967E0A059810582591480C0007163B0BA6A6962E3A0018262818231823D80EF61
:20083C00F19202936A6703A0007037824739873930828039F006021011C0013010C0011849
:20085C00021882312100C126819102B012B030824039F006021011C0013010C001180218E9
:20087C0082312100C126919103B013B063B053B0007153A062B052B041800122BE46A4816E
:20089C00C491D581B51CFE4E95186591F0801022F0428C62B481C491D4814518751C084FEB
:2008BC00F0801022F0428C623D9110B13E9110B1E08000221247E6221243E0B065910F92DC
:2008DC005981F914F0805022114210228C4630632967E0A0598105825914F0C0007162B038
:2008FC00226BF062A2808B64CF6112824239F2068B6050B00071CF6170CF6A674082418096
:20091C000122BE46A481C491D58195186591F18011228C46336B41800122BE46A481C491AB
:20093C00D581C51C1C4B95186591F08010223F438C6260CF6A67408241800122BE46B48169
:20095C00C491D58195186591F18011228C46506B41800122BE46B481C491D581C51CB44A55
:20097C0095186591F08010225C438C62E092D08200226B47C0B20070A080F022874330B033
:20099C0002C1623101C0A080001E8043F022814380F86031603981632010101A136F236E5A
:2009BC0011161216826B00702DE9F84FDFF81885DFF8181588F80000002008600921DFF891
:2009DC00100501700D2141804FF408718180DFF80405DFF8041501608A7EDFF80005027042
:2009FC00FF2ACB7E437008BFFF2B0D7F85704E7FC6708F7F0771C97F417115D1FF2D08BFE8
:200A1C00FF2E11D1FF2F08BFFF290DD1DFF8D0140A7802704A7842708A788270CA78C27025
:200A3C000A79027149794171DFF8B81402780A70FF2542784A7082788A70C278CA7002791E
:200A5C000A7140794871DFF8A014DFF8A004057045708570C5700571457100200880DFF888
:200A7C009014DFF89004466B70780870DFF8881430780870DFF88414B0780870DFF880142D
:200A9C0070690079401E0870DFF87814F0780870DFF87414B069086008B917F0CFFDF06902
:200ABC00DFF86844206008B917F0C8FD2068DFF86074006880472168091D384609688847BB
:200ADC00DFF85004DFF850143862DFF850047862306A086008B917F0B1FD706ADFF8401478
:200AFC00086008B917F0AAFDDFF838B4DFF838649BF8040018F07AF9306008B900F046B97B
:200B1C009BF80500DFF8247418F070F9386008B9306838E19BF80600DFF8144418F066F908
:200B3C00206020B9306818F069F938682BE19BF80700DFF8009418F059F9C9F8000038B981
:200B5C00306818F05BF9386818F058F920681AE1DFF8A41309789BF80000DFF8DCA3C91C2C
:200B7C00484380B218F042F9CAF8080058B9306818F044F9386818F041F9206818F03EF9F8
:200B9C00D9F80000FFE0DC480078010000F00381BBF80210DFF8A4B3484380B218F026F9A1
:200BBC00CBF8040078B9306818F028F9386818F025F9206818F022F9D9F8000018F01EF9FF
:200BDC00DAF80800DFE0CC48007818F00FF9DC49086098B9306818F011F9386818F00EF98D
:200BFC00206818F00BF9D9F8000018F007F9DAF8080018F003F9DBF80400C4E0BE48007895
:200C1C001C21484318F0F2F8CE490860B0B9306818F0F4F8386818F0F1F8206818F0EEF883
:200C3C00D9F8000018F0EAF8DAF8080018F0E6F8DBF8040018F0E2F8C148A3E0AE4800786A
:200C5C00400118F0D3F8C0490860D0B9306818F0D5F8386818F0D2F8206818F0CFF8D9F863
:200C7C00000018F0CBF8DAF8080018F0C7F8DBF8040018F0C3F8B248006818F0BFF8B14838
:200C9C0080E09D480078000118F0B0F8AF490860F0B9306818F0B2F8386818F0AFF82068A0
:200CBC0018F0ACF8D9F8000018F0A8F8DAF8080018F0A4F8DBF8040018F0A0F8A0480068AE
:200CDC0018F09CF89F48006818F098F89E4859E089480078000118F089F89D49086010BB6A
:200CFC00306818F08BF8386818F088F8206818F085F8D9F8000018F081F8DAF8080018F04C
:200D1C007DF8DBF8040018F079F88D48006818F075F88C48006818F071F88B48006818F050
:200D3C006DF88A482EE0744800783021484318F05DF88849086070BB306818F05FF83868EA
:200D5C0018F05CF8206818F059F8D9F8000018F055F8DAF8080018F051F8DBF8040018F00A
:200D7C004DF87748006818F049F87648006818F045F87548006818F041F87448006818F0A5
:200D9C003DF87348006818F039F8002017F056FC4FF4804192E031680120087100223068CA
:200DBC00057330684573306885733068C573306805743068457400203168C8723168487148
:200DDC00A0213068C180032101720720316848720020316888722821306841820121C1769C
:200DFC00002031684877316881F85E00012031680877316881F85D00396808713868057315
:200E1C0038684573386885733868C573386805743868457400203968C87239684871396886
:200E3C0088724FF420703968C88008818A7401213A68D17421680D7321684D7321688D7375
:200E5C002168CD7321680D7421684D7400212268D172012122681171002122685171216847
:200E7C00C8800881002088722168887405202168C8743948006880470546294800680068C0
:200E9C00804727490968091D00200968884719481C49C06809780088084330490880284657
:200EBC002F49096888470C212E4800F05DF80F4800F05EF800F060F84FF4005198F800006D
:200EDC00BDE8F44F0EF038B86E4F0020044F0020604E0020084F0020B63F00502C4E0020AC
:200EFC00E81200503C4E00200C4F0020344E00206D4F002020A801007B4F00206B4F00205C
:200F1C00724F00206C4F0020F04E0020F44E00207C4B0020098E0100F84E0020198E0100AC
:200F3C00FC4E0020C81A0020104F0020B02D0020184F0020B42D00207C2D0020684E002086
:200F5C00004F0020AC290020AC2D0020884E00208C4E0020904E002038140020544F0020FB
:200F7C003C140020F84D0020DFF800F0E5710110DFF800F01D6E0110DFF800F04D71011059
:200F9C00B0B5174C241D20680004070C23D01248006800688047114991F90720824205DDF8
:200FBC0010F1800FB8BF6FF07F00C8718D88BD4210D80A68D4F8D40F801A801C1F2888BF16
:200FDC001F207F1B4008C7404FF6FF70EF19B84238BF071C8F80B0BDEC010010A42D002093
:040FFC003010094068
:20100000B41200001810000015AB0110FDB301106DC00110FDAE011099B5011000000000F7
:08102000000000002F00000099
:20102800B01200003C100000B1C00110A9BF011067C0011069B80110000000000000000035
:041048002D00000077
:20104C00B012000060100000BDC00110CDB30110D9BD01106DB3011000000000000000005B
:04106C002E00000052
:2010700000000000F01A002004000000000000000000000020000000E8C901103000000020
:2010900028100000F81A00200400000000000000000000000C000000D8CA011018000000FB
:2010B0004C100000001B002004000000000000000000000024000000F0CA0110180000007E
:2010D00000000000081B00200400000000000000000000001000000018CA01102C0000008A
:2010F00000100000101B0020040000000000000000000000200000006CCA011024000000F6
:20111000FFFFFFFF181B00200400000000000000000000002800000090CA011024000000B5
:20113000FFFFFFFF201B00200400000000000000000000001400000008CB01101800000034
:20115000FFFFFFFF281B002004000000000000000000000058000000B4C901103400000002
:20117000FFFFFFFF301B00200400000000000000000000001000000020CB011018000000D0
:20119000FFFFFFFF381B00200400000000000000000000001C000000B4CA011024000000FD
:2011B000FFFFFFFF401B00200400000000000000000000003800000044CA01102800000025
:2011D000FFFFFFFF481B00200400000000000000000000005400000078C901103C0000009A
:0811F00001000000E4A701006A
:0411F80001000000F2
:0411FC0000000E00E1
:0412000000000F00DB
:0412040032000000B4
:0412080001000000E1
:04120C00581900204D
:0412100000020000D8
:0412140000000000D6
:0412180001C90110F7
:04121C0000000000CE
:0412200000000000CA
:0412240008000000BE
:04122800000023009F
:04122C000018002086
:0412300001000000B9
:04123400701900200D
:0412380008000000AA
:04123C00181900205D
:0412400000000000AA
:0412440000000000A6
:04124800080000009A
:04124C00000000009E
:04125000000000009A
:041254000000000096
:041258000000000092
:04125C00010000008D
:0412600068180020EA
:041264000600000080
:041268000100000081
:04126C00AC1600209C
:04127000000000007A
:041274000000000076
:041278000002000070
:04127C00000000006E
:02128000290043
:02128200010069
:02128400250043
:021286002D0039
:021288002E0036
:02128A002F0033
:02128C0001005F
:01128E00015E
:081290000300000090A701001B
:0812980000000000000000004E
:0412A0000000010049
:0412A4000000030043
:0412A80013C401105A
:0412AC00AD8B010005
:0412B000B812000070
:0412B400B81200006C
:0412B8000000000032
:0412BC007019002085
:0412C000358D010067
:0412C4002000000006
:0412C800F4A6010087
:0412CC001CA601005B
:0412D00029C101101F
:0412D400C3760100DC
:0412D8004B81010045
:0412DC00A1C7011095
:0412E000A3C701108F
:0412E4000000000006
:0412E80017A7010043
:0412EC0018A4010041
:0412F00030A4010025
:0412F40000A4010051
:0212F8000200F2
:0212FA000900E9
:0212FC000100EF
:0212FE000000EE
:0113000001EB
:04130400B58C0100A3
:041308004D6C010027
:04130C007D800100DF
:041310003570010033
:041314003171010032
:04131800856C0100DF
:04131C00E92B0100B8
:04132000DF8E01005B
:04132400F142010091
:0413280015C70110D4
:04132C0025C70110C0
:201330002DE9F04FC84C201D04F12001ADF1340D13F0DEFC04F160050021284618F0D8FA62
:201350006562B14D05F1180005F10C010FF0AEFAAE49A86017F0ECFDAD4EA8684FF4E021C2
:201370003246521E15F00CFDA8684FF4E021324615F006FDA74EA8684FF0C0513246521E56
:2013900015F0FEFCA8684FF0C051324615F0F8FCA14905F12400C822002314F031F99F4847
:2013B000002168604FF0804012F02AFE9C4E206121211E22304616F0B5FC9A4800214FF6A9
:2013D000FF7216F0AFFC984800214FF6FF7216F0A9FC964800214FF6FF7216F0A3FC944843
:2013F00000214FF6FF7216F09DFC2769914D4FB13046067936B103212970AF600021E960E7
:2014100015F000FC04F1480004F154010FF04EFAE06108B918F068FA874904F1D80064225E
:20143000002314F0EDF8854904F1FC004FF47A72002314F0E5F8824904F59070062200238F
:2014500014F0DEF87F4E10200622A023314609F023FD10200722A023314609F01DFD102054
:201470000822A023314609F017FD10200922A023314609F011FD10200A22A023314609F0C0
:201490000BFD10200B22A023314609F005FD102002224FF4FA63314609F0FEFC314610209D
:2014B0000C22502309F0F8FC314610200D22502309F0F2FC314610200E22502309F0ECFC33
:2014D000314610200F22502309F0E6FC102031465023024609F0E0FC314610201122502352
:2014F00009F0DAFC314610201222502309F0D4FC314610201322502309F0CEFC314610203D
:201510001722502309F0C8FC314610201822502309F0C2FC314610201522142309F0BCFC81
:20153000314610201622142309F0B6FC314610201922C82309F0B0FC314610201A22002362
:2015500009F0AAFC207916F0B5F8D1490246102009F0A2FC002080468DF8250001210DF1B7
:201570002502ADF81A8040F2053009F0B7FF40F2063002210DF11A0209F0B0FF04F1780223
:201590004FF442700F2109F0A9FF04F19C0240F20730182109F0A2FF0F2001210DF126022F
:2015B0008DF8260040F2044009F098FFCB4F04F13800CB4EB8613078A072387816F07AF80F
:2015D0000246F87A07F134030090C649019307F14403029307F1140303937B78102009F04A
:2015F0005BFCA17A480000EB011080B210F03EFBA06258B3A77A57B34FF6FF713B465B1ED3
:2016100020F8121BFBD122E0F81600200D6701000E0005800E000010D98B01009D890100C7
:20163000C4170020C814002060160020C815002014160020E0190020818D0100918D01007F
:20165000718D0100BD84011008020020A77AF80010F00CFB0746276357B1A37A43B1404669
:20167000F8803870B88078805B1E07F10807F7D104F18700AF49009042461523102009F0D5
:201690000BFCAD4910204FF0FF3209F005FCAB4910204FF0FF3209F0FFFB1020A84F009065
:2016B000A94AA848132339460190102009F0F4FB3078800010F0DAFAD04A014692469160B3
:2016D00069B14FF6FF7015F027FBD34910200AF11402009011230191394609F0DDFBDFF82B
:2016F0003C931020494609F0D7FBCD491020042209F0D2FB012702264FF0040B8DF8277095
:2017100003208DF82860CE498DF82AB007AB8DF8290040460A6809791A600DF1270219710E
:2017300039460DF0AFFB0AAA384601460DF0AAFB0DF12902304639460DF0A4FB03200DF17D
:201750002A0239460DF09EFB052107AA58460DF099FB04F13400CAF804004946102009F08B
:201770009BFB207915F0A6FFC6490246102009F093FB207915F09EFFC3490246102009F0BA
:201790008BFB8DF82C703B468DF82E7030460DF12B078DF82D804FF480628DF82B00C94E2A
:2017B00000971020314609F077FB0BA840F20242012300903146102009F06EFB0DF12D005F
:2017D00040F20342012300903146102009F064FB0DF12E0040F206420123009031461020CE
:2017F00009F05AFBBF4904F14002102009F054FBBD49102009F050FBDFF8F0B2B1E05FEA07
:201810001830C0F0AE806069002828DDB84E02280CDB06F11901401E96F9182091F918307D
:201830009A42B8BF0E1C1931401EF5D1B0780090F07801903079029070790390B079049088
:20185000206918210022BEA316F001F9B11C01200DF014FF01201421C3A3E0707DE0A448E0
:2018700000210A2210F07FFE00206061C54831E020695FEA182137D25FEA98210AD25FEA54
:2018900058206ED3E0690721002214F053FF68E05188011011210022C7A316F0D8F8E06987
:2018B0000621002214F046FFA07948B116F046FC297820690022CAA3091DC9B216F0C7F80D
:2018D000206910210022334616F0C1F800200DF045F9C84817F015FC43E0C04670080020A0
:2018F000694F00209D39010010210022C8A316F0AEF8206933461121002216F0A8F820693A
:2019100012210022334616F0A2F8E0690621012214F010FFA079012823D015F0E3F92978EC
:2019300020690022C1A3091DC9B216F090F80120A07116E06D1B01002D820100E985010089
:201950000B7601006CA701009C0E00205FEAD82007D30020C3A3E07015212069002216F03F
:2019700076F8206AC74A00214FF0FF3317F0B8FF5FEA0008F5D00020059009A905AA06A824
:2019900015F06AFB002855D1BDF81800012710284BD120799DF82410884246D105980188CD
:2019B0004FF6FF728A423DD14088C0083DD3E66A002E3AD0607906F10803401C6071C94945
:2019D000009372883379102009F066FA5FFA80F9B9F1160F14D02079B9F1040F10D0E66A2A
:2019F00015F068FE03460020CB4900907288102009F052FA484611F0B5F816E04C11002041
:201A100060790090297820690022C5A3491DC9B216F01DF809E0C04678A70100350F010049
:201A30000D89010000F0F4F90746059810B10FB117F046FB5FEAD870C0F04A8142E1C0463A
:201A50009EA70100606A064617F046FF864208BF002702D0876815F043FE381C00F032811A
:201A7000216938882E788946401E00F02281401E00F0C280801F3DD0083807D0103800F01B
:201A900003811CE131810110958F0100786883781BB3012B18D0022B0DD0032B40F09C808C
:201AB000C378002B08BFA2A318D00188A7A30091C278019214E0C378002B40F08D80AAA3A7
:201AD0000CE0C04685720000C278002A08BFACA304D00088B0A30090EBE7B4A30088009013
:201AF000F61CB8E061840100C5AB001040E201009C03002078680078010945D240096BD3E4
:201B10000E2017F06BF8002866D16868697803790A46934211D0FF2A5ED000EBC203DE683E
:201B30002EB900EBC100006915F06CF854E000EBC2000369084698474EE08068F4E7C046BF
:201B50005065657220616464723A20307825782C307825782C307825782C307825782C30E0
:201B70007825780A00C046C0446972656374206164766572746973696E6720737461727407
:201B900065642100280300200D2017F027F818BB69686878097981421AD0FF281CD0401C8B
:201BB000C0B215F025FAFF2802D1002015F020FA68700BF055FE0FE054696D652073796E28
:201BD000632068617320737461727465642100C0002015F00DFA6870786815F081FD6EE089
:201BF000446973636F766572792043616E63656C6C65640004030020786803780BB39B1E89
:201C1000EBD102200DF12F0114F0B8FB6DA31EE053746172746564205061737369766520F1
:201C30007363616E6E696E672100C046506173736976656C79205363616E6E696E672E2EAF
:201C50002E0000200DF12F0114F098FB60A39DF82F00761D0090F1B24846002215F0F7FE2A
:201C7000BAE7C046446972656374206164766572746973696E672074696D6564206F7574E7
:201C90002100C046FF0F00C0D7F804A0F61C4846002252A3CDF800B0F1B215F0D8FECDF85D
:201CB00000B05949BAF80A201020002309F0F4F892E7786800F0ACF8786817F001FA384661
:201CD00015F00EFD606A17F003FE00283FF4BAAEE07812A640B1401E3FF438AE801E3FF406
:201CF000C7AD3EE6DDFE0010E0695FEA1821FFF486AD0621012214F01DFD002001460DF094
:201D1000BDFC424817F0FDF920691421002237A315F09DFE33461FE61B8D010000C046C02C
:201D30005273702073656E642072657472793A0043786E20256420626F6E642073617665A0
:201D5000207375636365737300C046C043786E20256420626F6E64207361766520666169E0
:201D70006C65643A2025640043786E20256420626F6E64696E67207375636365737300C08F
:201D9000636F6E6E48616E646C652025642070616972656400C046C070616972696E67202B
:201DB0006661696C65643A20256400C0636F6E6E48616E646C652025642070616972696EC5
:201DD0006700C0464368617220333A20256400C04368617220313A20256400C05061737309
:201DF000636F64653A20256400C046C04164766572746973696E67206F6E6C7920736361D6
:201E10006E6E61626C65210065710100280300202DE9F04F05460120ADF12C0DA14C0990E1
:201E30002878913800F08283DFF87C92DFF800831F3800F0CE82203840F0EC83484629466A
:201E500006780890D4F81CA0256988780A91002800F09282401E00F0FB81801E00F05F8246
:201E7000401E00F0C681DFF8CC92401E00F0DF80401E69D0401E00F04C82801F40F0CA830C
:201E90000846C07804285CD06578012840F0C283084690F804900F2D00F1050880F2BA8386
:201EB00075B104F524772E4640463946062216F095F8002800F0AE83761E07F11907F3D16B
:201ED00043461E689B88192104F28E2069436D1C07464218921CEDB21660091993800A986C
:201EF00081F88F9200696570C67AEEB9A669DDF8288008F1050886B97DB13E46BF1C40462F
:201F10003946062216F06AF830B16D1E06F1190607F11907F3D100E0A661206A4FF400711F
:201F300017F0D2FCD4F81CA0099A5046072114F001FC04F1D80017F0E4F815210022B5A372
:201F500071E01521BCA3EDE150460721002214F0F1FB1020414608F09FFFC7B20A9880887D
:201F700015F01EFDE081A17A814240F35383A26A41004FF6FF7301EB0011099D5352226B10
:201F90000026C30005FA00F0D118D65482B2CE804846314615F0C6FEE08905FA00F082B26A
:201FB000C548314615F0BEFEE0898540C3483146AAB215F0B7FE47B9C14831461C2215F043
:201FD000B1FE04F1B40017F09EF8DDF820A0D4F810909AF800501020414608F05DFF6D1C85
:201FF00000903246D0A3E9B2484615F030FD20699AF800103246D0A3091DC9B215F027FD1B
:20201000A07A401EB84240F005835546297820693246CDA3891CC9B215F019FD2878324686
:20203000CEA3401DC1B2206915F011FDF2E208464778002F40F0CD80361D28460022CBA3D5
:20205000F1B215F004FD0898266905784146102008F022FF6D1C00900022B3A3E9B23046A9
:2020700015F0F5FC4FF0000884F80780DDF828C0A77ABCF80AE00CF1040C87B1A56A3A46C0
:20209000464641464FF6FF70123D35F8123F98420CD0521E06F1120601F10101F5D1884DD8
:2020B00015263EE008020020E0190020A5F800E00F46604612F094FEAD1C01460F222846B9
:2020D0000EF0A6FB09984246B8401FFA80FA4846514615F027FE4D46DFF8DC914246514658
:2020F000484615F01FFEDFF8D4B142465146584615F018FEA06AFB0036185919B61C03EB67
:2021100009026F4DCE60E888D66003EB0B01CE60400904D228461C21424615F003FEFEB2E4
:20213000A77A0349102008F0B7FE874216D803E0F17F01106016002009998DF81E8040F29D
:2021500005300DF11E0209F0C9F90899206909784246CAA3891CC9B215F079FC0899A36A79
:2021700009782069720002EB0612491D9B18C9B242469B1C15F06BFC284614F043FD0A983B
:202190004089054615F00CFCE081A17A814208DD226B0999C00011548018A0F80480A0F84A
:2021B0000280A089001FADF81400207915F082FAC34900902A4605AB102008F06DFEC14919
:2021D000102008F069FEE069099A072114F0B2FA20E2361D28460022BFA3F1B215F037FC7A
:2021F0000A984078089F00903878BFA3401DC1B2EEE1A57A4146102008F04EFE854294BF59
:20221000BCA351A3494620690E78B61CF1B200220AE7C046446972656374206164766572A2
:20223000746973696E67207061636B657420726563656976656421005363616E20726573F1
:20225000706F6E736520726563656976656421000020A07106210022504614F06BFA0A98A6
:20227000C078F8B116480221002215F05BFD099EDFF8B4A204F28E2800254FF0190BB1466E
:202290000A98C078A8421DDC0E2D0BDA4E4606FA05F082B20021504615F044FD6D1CEDB26F
:2022B0000E2DF4DB0A989BA3C0780899009020690E78361DAAE7C046C8150020141600207B
:2022D000C41700200A984068EF0039184B780BFB05F202EB08067370C05D891C08F8020007
:2022F0000A68B01C02608988818012F079FD083601460F2230460EF08BFA574409FA05F062
:20231000002281B2FE60504615F00CFD6F1CFDB2B6E70846C078C2A300902846C9E7B61C14
:20233000C3A3F1B2284672E7436F6E6E656374656420746F20256400446973636F6E6E654B
:20235000637465642100C046526561647920746F2041647665727469736500C052656164AB
:202370007920746F205363616E00C046436F6E6E65637465642100C00F467889A081F81C27
:2023900012F02EFD034631460022284615F05FFB4D46297820690022A8A3491CC9B215F042
:2023B00056FB297820690022A8A3091DC9B215F04EFBF81C994902680A6040684860099A79
:2023D000D449102008F068FD206A802117F07CFA20E169782079162913D049462A79206943
:2023F00009787E2A04D07F2A17D12A899AA301E02A7A9DA30092091D0022C9B215F027FB0E
:202410000BE015F057F903460420C34900906A88102008F041FD002856D04146102008F00E
:202430003BFD002845D0688815F0BAFAE0812A790B2A2DD0012A02D1297A0A2928D0132A2F
:202450000DD0012A02D1297A122908D0216B11F8300000282DD028460AF0E2F829E0494617
:2024700020690978012A07D0227A83A3521CD2B22272521ED2B216E083A313E043616E27BC
:2024900074206164763A206E6F206C696E6B7300494620690978012A03D0EA6812787EA351
:2024B00001E081A32A7B0092491D0022C9B215F0CEFA297905F1080017F002FAAAE0C046CD
:2024D0008D6A0100F17F0110099810F04BFBE562002009909EE0C046436F6E6E656374201E
:2024F0004661696C656400C0526561736F6E3A20256400C043616E277420416476203A205A
:202510004D617820636F6E6E73207265616368656400C0464465766963657320466F756ED7
:202530006420256400C046C0C814002068780E3850D0801E6AD02E386CD1A878802869D1F9
:202550002069142100225CA315F081FAD4F81490A846B9F10A0F5DD0B9F1000F08F1050601
:202570000DDD04F5CB754F4630462946062215F035FD00284ED07F1E05F11905F4D13268F9
:20259000192000FB094000F5CA70811C0A60B7888F8098F80B10C17598F90C10017698F895
:2025B000041041703078009070780190B0780290F078039030790490206945A300221721D8
:2025D00015F045FA60691521401C60614BA3009020691CE6A88842F2030181421AD1A9685B
:2025F0000878B8B9491C0DF116000A68496802600DF116074160387848490DF1160200F0D9
:20261000FD003870102008F047FC03E00820002107F04EFF09980BB0BDE8F08F070E002075
:20263000506172616D20557064617465202564004164766572746973696E6700436F6E6E5F
:20265000656374656420746F203000C0496E697469616C697A6564004D54552053697A652B
:202670003A20256400C046C046432056696F6C617465643A202564005772697465207365DA
:202690006E743A20256400C05772697465204572726F7220256400C0526561642072737016
:2026B0003A20256400C046C052656164204572726F7220256400C046466F756E642061206F
:2026D0007363616E20726571756573742100C04666757273747420506565722061646472E6
:2026F0003A20307825782C307825782C307825782C307825782C307825780A004E756D200D
:202710007363616E2072657175657374733A20256400C0465D7D01001B8D010095B40010A2
:202730002DE9F04F0F4685B0804617F8010B8DF800004FF4B07008EB00044FF49C7008EBA8
:2027500000059DF800104FF4C67008EB0006182908F1E70A08F1660908F20D1BDFF86C074E
:2027700000F2A183DFE811F019007200660194009F039F03FD0079031401270101011001D8
:2027900038019F039F0384019F0368015C018503E402E40236029F03810217F8010B88F873
:2027B00086000222394608F1880017F085F80146022208F18A0017F07FF80146022208F10B
:2027D0008C0017F079F80146022208F18E0017F073F8074698F88600400088F8860008F1DF
:2027F000860108F18600022240884000488008F1860080884000888008F1860000890001F7
:202810000881394608F1840017F056F808F10601B9F81E004988401A80B247F6FF7188422B
:202830002BDA08F1860008F18601C0888988401C4900484308F186010989884228BF3B20DD
:2028500080F04082012089F81C001CE00522394608F1610017F030F80146022208F1920057
:2028700017F02AF808F1860008F1060180894988401A80B247F6FF71884280F2228208F1B4
:2028900086010120887208F10601002008834CE29AF81600C0070AD41A208AF80E009AF804
:2028B0000D00012808BF0D213FD00D21D7E1002089F8000089F80600082201208AF81100E2
:2028D000394608F1B00016F0F7FF0146022208F1B80016F0F1FF08F1A80401460822204636
:2028F00016F0EAFF07460821204616F0E1FF08F19C0404223946204616F0DEFF0421204605
:2029100016F0D6FF08F1A00016F0CEFF08F1980016F0C6FFDFF8B805018841F080010180B4
:202930009AF80D00012806D10421404605B0BDE8F04F13F0C3BF99F81000012804BF99F801
:2029500011000F280BD1404611F0AAFD0421404611F03AFA0F2089F81A00FD217FE10421C8
:202970007DE101208AF80F00ACE2002089F8000089F806008AF800000B2101208AF80D0023
:2029900000208AF801006AE101208AF8100099E2002142187B5C547A23437B5452781A4092
:2029B00008EB0103491C082983F8FD20F1DB404611F0E6F87CE2002142187B5C547A2343CD
:2029D0007B5452781A4008EB0103491C082983F8FD20F1DB022053E299F8060008B93D20F7
:2029F00070E19BF800000128D1D017F8010B8BF8030002224FF489703946404416F05CFFB4
:202A100001464FF48A700222404416F055FF01208BF800009BF8020000281BD10C211EE1A7
:202A30009AF81600C00601D41220D9E0404612F077FA3DE2387845E138782070787860706A
:202A500099F8100001280DD199F811000F2802D0162803D036E20120687333E2307B40F0FE
:202A700001001EE205B0BDE8F04F002015F0ECBD9AF81600810706D41121084201D10F2057
:202A9000AEE01A2254E03878797800EB01202882F978B87800EB012068827979387900EBAC
:202AB0000120A882F979B87900EB0120E882387A2876B97A787A00EB01206883397BF87A10
:202AD00000EB0120A883B97B787B00EB0120E883397CF87B00EB01202884B97C787C00EB1D
:202AF00001206884397DF87C00EB0120A884B97D787D00EB0120E8844FF4AA70404404903F
:202B1000688B0390287E029008F1060040880190E88A0090AB8A6A8A298A40460FF074FFB9
:202B300068B19AF81600400701D40F2058E01E22404605B0BDE8F04F0F2113F05BBC688AA6
:202B500008F186018880A88AC880E88A0881022088F886000020488008F1060108F1060059
:202B7000C08DC01DA9F81E0008F18600898D808888420FD108F1860008F10601C088C98DF8
:202B9000884207D108F1860008F106010089098E88421DD099F81000012804BF99F81100FE
:202BB0000F2807D099F8150020B10F2089F81A00FE2154E0FC21404611F006F9E88A0090BE
:202BD000AB8A6A8A298A98F8060016F065FE79E1102144E09AF817000921084203D1162034
:202BF0008BF80C0061E17978387801F00701084038700146707B0840F07212D0411E084203
:202C10000DD0400703D5B07B08B1042003E0F17A0220014201D0F07201E04008F9D1F07A5D
:202C300008B9B07AF072F07A042803D1404612F03EFAA083F07A16F02BFE3071A28BB17B57
:202C5000012313F067F90146208B884205D3A28BB17B3079012313F05DF97080172140461C
:202C700005B0BDE8F04F11F0AFB878783978814207D100F007000840387034D0421E10426A
:202C90000FD01E221821404613F0B4FB98F80610002300221E200DF03FFB307B40F0400019
:202CB000FFE0F072F978B87800EB0120308108F1060130894988401A80B247F6FF718842D8
:202CD00006DB28208BF80B0001208BF80A00F9E00120B071F07A042803D1404612F0E7F992
:202CF000A083F07A0BE099F81100162806D1B27A98F80610134600200DF00EFBB07A307179
:202D1000A28BB17B3079012313F004F90146208B884205D3A28BB17B3079012313F0FAF8CE
:202D30007080307B40F04000307301202870C9E03878797800EB01206082F978B87800EB58
:202D50000120E0827979387900EB01202082F979B87900EB0120A082A18AE089884288BF19
:202D70000846B17A042904D1B0F5296FD8BF4FF42960E28BE0839042B07A14BF4FF0010940
:202D90004FF00009042803D1404612F090F904E0A089E18A884288BF0846A28BA0839042D1
:202DB0002089628A238B14BF01210021904288BF1046984241EA090114BF0122002242EAE8
:202DD00001052083A28BB17B3079012313F0A2F80146208B884205D3A28BB17B30790123BD
:202DF00013F098F870806189208A628B814288BF01466183914214BF0120002005438A428F
:202E1000344998F80620096801EB4211628B8041121DC00F0A7610B1404613F0FFFF9DF8B6
:202E30000000142810D145B1E08B0090638BA28B218B98F8060016F027FD404605B0BDE80D
:202E5000F04F15210EF07ABD1DB1307840F008003070307840F020001BE038780E280ED0B3
:202E70000F2809D0122804D014280CD0162812D028E00020287225E00120287322E0032044
:202E90008AF815001EE0307840F00200307040F01000307016E0307B40F00200307340F08D
:202EB000100030730EE08BF80C10404611F084FC40B905B0BDE8F04F074800784FF480415E
:202ED0000CF040B805B0BDE8F08F00BF382D0020524F0020AC2D00206E4F00202DE9F04FE5
:202EF0000D4685B0814615F8010B8DF800004FF49E7009EB00064FF4B0709DF8001009EB8E
:202F100000044FF4C670891E09EB0007152909F20D1B09F1E70809F1060ADFF8680700F2F6
:202F30009C83DFE811F00F019A031600440048007A039A03C3009A037D00D6008100880075
:202F50001701E901280204018403E802E8022F02A00209F1A00608222946304616F0ACFCA5
:202F700005460821304616F0A3FC09F1980404222946204616F0A0FC0421204616F098FC5A
:202F900000214842484409EB010290F89F0082F8BF00491C0829F4DB09F1C702314609F1FA
:202FB000D70016F06DFC012088F8000066E3012088F8130062E398F80D1098F8160001295B
:202FD00000F010000DD130B10020707130684108B07910F0DBFB9AF80000002116F04CFC40
:202FF00011E050B14FF4A17009EB0003306842084946DFF8940615F0FBFF9AF800000122EE
:20301000002116F035FC012089F86600484612F01CFE09F166010120887188F80F002DE37C
:20303000012088F8100029E3287888F80E00012088F8140022E398F8121001291DD198F881
:20305000001001294DD098F81610090704D40E208BF80C00072100E2002142186B5C567A92
:2030700033436B5452781A4009EB0103491C082983F8FD20F1DB0921EFE198F81610090735
:2030900058BF0E2058D5002142186B5C567A33436B5452781A4009EB0103491C082983F83A
:2030B000FD20F1DB484610F06BFDDDE2002142186B5C567A33436B5452781A4009EB0103FF
:2030D000491C082983F8FD20F1DB022088F81500D4E298F81200012804BF98F80000012832
:2030F00006D13D208BF80B0001208BF80A00C5E29BF800000128FAD015F8010B8BF8030084
:2031100002224FF489702946484416F0D5FB01464FF48A700222484416F0CEFB01208BF8C7
:2031300000009BF802000028E1D10C2195E198F81600C00658BF122040F19182484611F0E5
:20315000EFFE91E228788BF80B00F02100208BF80A000AE198F81600810707D411210842A3
:2031700008BF0F2000F07B821A22F6E009F16601097C012902BF09F16601497C0F2911D03A
:2031900009F16601497D0A0003D009F16602527C22B109F16602127F012A05D1400758BFC6
:2031B0000F2064D52322D8E021B109F16601497C012904D009F18601897A012905D14007D9
:2031D00058BF0F2053D52A22C7E02878697800EB0120B081E978A87800EB0120F0816979E0
:2031F000287900EB01203082E979A87900EB01207082287A3075A97A687A00EB0120F08215
:20321000297BE87A00EB01203083A97B687B00EB01207083297CE87B00EB0120B083A97C67
:20323000687C00EB0120F083297DE87C00EB01203084A97D687D00EB012070844FF4AA70E9
:2032500048440490F08A0390307D0290BAF802000190708A0090338AF289B18948460FF024
:20327000D3FB38B198F81600400758BF0F2040F1F68171E0F08909F186018880308AC88057
:20329000708A0881022089F886000020488009F16601BAF82E00C01DC88309F18600BAF8EF
:2032B0002C108088884201BF09F18600C088BAF82E10884206D109F18600BAF830100089DC
:2032D000884217D009F16600407D28B109F166010F208876FE21C0E0FC21484610F074FDCE
:2032F000708A0090338AF289B1899AF8000016F0D3FAC3E10021B0E0A878E97800EB012675
:203310002879697900EB0124A879E97900EB012705F10B000490A3B2687AA97A00EB012079
:2033300080B20390B2B2287A0290BAF802000190B8B200906978287800EB012081B2484693
:203350000FF062FB58B198F81600400758BF0F208DD5484611F0A4F81E220F2134E009F1BA
:20337000860000218680C4800781484605B0BDE8F04F13F0A3BA287820706878607001203C
:2033900070727BE198F81700C00758BF162040F1668109F16600407C16281ABFBA79012A7B
:2033B000232210D0002818BF01280BD00F281EBF09F16600007F01281EBF09F18600807A62
:2033D000012807D12A221621484605B0BDE8F04F13F010B86978287801F00701084028700D
:2033F000797B08401CBF411E0842F8720DD0400703D5B87B08B1042003E0F97A02200142CC
:2034100001D0F87201E04008F9D1F87AB97A884204BF0020F872F87A08B938811CE0BAF818
:203430002E00C01D3881F87A042803D1484611F03EFEA0830123F87A3871A28BB97B12F0B6
:2034500069FD0146208B884205D3A28BB97B3879012312F05FFD78801821484605B0BDE8B5
:20347000F04F10F0B1BC6978287801F0070108402870F97A08401CBF411E0842F8720DD0B0
:20349000400703D5B87B08B1042003E0F97A0220014201D0F87201E04008F9D1F87AB97A5F
:2034B000884204BF0020F872F87A10B93881B87A0BE0BAF82E00C01D3881F87A042803D1EC
:2034D000484611F0F4FDA083F87A3871A28BB97B3879012312F01EFD0146208B884205D337
:2034F000A28BB97B3879012312F014FD7880387B40F02000AFE02878697800EB012060827A
:20351000E978A87800EB0120E0826979287900EB01202082E979A87900EB0120A082A18A9F
:20353000E089884288BF0846B97A042904D1B0F5296FD8BF4FF42960E28BE0839042B87A0A
:2035500014BF01250025042803D1484611F0AFFD04E0A089E18A884288BF0846A28BA083DB
:20357000904214BF012100212089628A238B2943904288BF1046984214BF0122002242EA17
:2035900001052083A28BB97B3879012312F0C2FC0146208B884205D3A28BB97B38790123B2
:2035B00012F0B8FC78806189208A628B814288BF01466183914214BF0120002005438A429C
:2035D00032499AF80020096801EB4211628B8041121DC00F0A7610B1484613F01FFC9DF8D0
:2035F0000000142810D145B1E08B0090638BA28B218B9AF8000016F047F9484605B0BDE826
:20361000F04F15210EF09AB91DB1387840F008003870387840F0200015E028780F2809D0D1
:20363000122804D0142808D016280ED026E00020307123E00120307220E0387840F00200CD
:20365000387040F01000387018E0387B40F00200387340F01000387310E09DF800008BF84F
:203670000C00484611F0A8F840B905B0BDE8F04F074800784FF480410BF064BC05B0BDE82D
:20369000F08F00BF382D002061260100AC2D00206E4F00202DE9F04FDFF800B5DFF80065DC
:2036B0009BF800001E25082887B000F26E82DFE810F072020900090009000900F000860105
:2036D00072027202DFF8DC44DFF8DC942068DFF8DC84006800F10807062207F1080102A8BA
:2036F00015F06CF90622B91C684615F067F93978C1F380108DF8140001F00F02C809032AB2
:2037100035D16179C1F38001884239D12169062202A814F0D3FD00283AD09DF814006946F6
:2037300016F0A2F8002833D03146684613F037FFFF282DD0D8F80010897A684335180A0047
:2037500018BF02290AD0012918BF032918D1325C691C484616F084F8102819D06A46E91D6D
:20377000484610F06FFA06226946E81D06E201F00F01052940F00F826179C1F380018842B5
:2037900040F0FE812169062202A814F097FD002800F0F681387847099DF81400694616F089
:2037B00063F840F2024A70B33146684613F0F7FE8346BBF1FF0F6BD005FB0BF03118049149
:2037D000D8F80010897A0A0018BF01290BD0022918BF03295CD1325C0498411C484616F09A
:2037F0003FF8102854D0504616F036F80498C11D6A46484610F026FA049806226946C01D34
:2038100015F0DCF81DE09BF80000022840D19DF814106A46304610F086F88346BBF1FF0F14
:2038300036D005FB0BF03044417F012906D000292ED10D3016F00CF8002829D0504616F017
:203850000BF805FB0BF0D8F80020315C91763044411CD8F800000622143015F0AFF8D44900
:20387000D4488978490604D5F90758BF41F20A4101D541F20441418041834186CE4801802D
:20389000CE49CF4808600121CE4800780BF05AFB76E1CD4C2068006800F108070F21387842
:2038B00008421CBF00F00F01062906D002291CBF00F00F00012840F06E810622B91C02A8DA
:2038D00015F07CF83878DFF80493C0F3801800F00F0001283FD1062207F10801684615F0E2
:2038F0006DF83878C7096946384615F0BDFFE8B1D9F80000807C022818BF03285ED106F12D
:203910000D01684615F0A0FF002857D0D9F800100120C8720622607940F0040060716946F7
:20393000D9F800000C3015F049F814E03078874211D10622711C684614F0C0FC58B1307809
:20395000617960F3820161710622D9F80000711C0C3015F033F802A9404615F085FF002801
:203970002CD0606902A9001F12F0FCFF002825D1314602A813F013FEFF281FD0D9F8001061
:20399000897C684335180A0018BF02290BD0012918BF032912D1325C6069691C001F15F023
:2039B0005FFF10280AD0606902AAE91D001F10F049F9062202A9E81D15F000F8EBE0844C3B
:2039D0002068006800F108070F21387808421CBF00F00F00012874D10622B91C02A814F0CA
:2039F000EDFF3878DFF8EC91C0F3801800F00F00012846D1062207F10801684614F0DEFF85
:203A10003878C7096946384615F02EFF20B3D9F80000C07A022818BF032852D106F10D0086
:203A300015F016FF00284CD106F10D01684615F00BFF002830D0D9F80000062269460C3049
:203A500014F0BCFF607940F00400607106226946F01D14F0B3FF14E03078874211D10622B0
:203A7000711C684614F02AFC58B13078617960F3820161710622D9F80000711C0C3014F0D8
:203A90009DFF02A9404615F0EFFE00284AD0314602A813F084FDFF2872D005FB00F7D9F83F
:203AB0000000817AF51959BB807C15F0B5F8814699F82E01022811BF0328F15D00F0010040
:203AD00081425DD14FF4947009EB000606223146681C14F0F3FB30B9062231463E4814F07D
:203AF000EDFB00284CD0012089F82E010622607940F00800607102A9304614F05FFF0DE03F
:203B10002069F25D691C001F15F0AAFE102837D0206902AAE91D001F10F094F8062202A974
:203B3000E81D2BE0D9F80000817A49BB807C15F073F8074697F82E01022818BF03281FD102
:203B500002AA414630460FF0EEFEFF2818D06843351805F10D0015F07BFE10B9687F012860
:203B70000ED187F82E810622607900F0F70040EAC800607102A94FF49470384414F01EFFEE
:203B9000216809680020087105E0002014F05CFD862015F055FE07B0BDE8F08F6F4F002069
:203BB00008220020F44B0020CC470020104F0020382D0020204A0020504F0020204F00203D
:203BD000ED3B00006E4F0020D04B0020B02D0020AC4B0020184F00207CA801002DE9F84F78
:203BF000012013F069F901280ED1DFF8E454296800204871286811F05DFF05F047FB040086
:203C100003D1812015F01CFE5DE201206071DFF8C464DFF8C4044178491C41702968A079B8
:203C300081F8A00040200EF08BFD2060307901281CBF002014F008FDF0682168DFF89C6467
:203C500000F5B060C86030680068007903281CBF002014F0F9FC3068DFF88494006800F1AF
:203C7000080A4FF4977004EB00089AF80000C0F3801088F8000006224FF494700AF102011F
:203C9000204414F09BFE04220AF10E0104F1240014F094FED9F80000A37900EB43100422E3
:203CB0000AF10E010C3014F089FED9F80000A37900EB431003220AF11201103014F07EFE05
:203CD00004F12C079AF81500B87002220AF1160104F1300014F072FE02220AF1180104F1E1
:203CF000320014F06BFE02220AF11A0104F1340014F064FE3889608402220AF11C0104F176
:203D1000360014F05BFEB87879894000B8700901B88879814000B88089B2F8884000F88037
:203D300080B2628C521C43005A438A4200D238B9DFF8B003007880210BF004F93B21F5E0AA
:203D500004F12E01204614F039FA0520A081204614F00AFC05220AF11E0104F1610014F041
:203D70002DFE9AF823004009387015F065FD60822968DD4D498A401AA8F80C0004F161012E
:203D90009AF82300DFF864A300F01F00F873204612F0E0F831680968002008711C26A179C7
:203DB0002868714341F6210242520022A179714301444A80A1797143084442609AF8020072
:203DD000400609D5CA48008841F20A4188420CBFC848C948C4F89C012046D4F89C118847DA
:203DF000A2792968724311448873A1792868714308440021C173C148007870B1B88860B908
:203E100078730120208160812046D4F89C118847A2792968724311448873A1792868714347
:203E30000844807B787394F8960108B914F00CFCA1792868DFF8C8B27143084494F8961122
:203E5000491E01740022A17928687143084400214174A0792968704308444282A279D9F87B
:203E7000000000EB421372430A445361A27972431144A44A8A61DBF8141091F800C094F871
:203E900006E05FEACC714CBF102100215FEA8C724CBF202200225FEA4C734CBF40230023FA
:203EB0005FEA0C7C4CBF4FF0800C4FF0000C1143194300EB4E104CEA010141F00F0101721B
:203ED000D9F80000A17900EB41100B214172D9F80000A17900EB411004218172D9F80000BC
:203EF000A17900EB41108849097801291CBFDBF828104978C172D9F80000A17900EB4110DF
:203F10001F210176D9F80000A17900EB411000214176A0790BF0C6FFA279D9F800105201B3
:203F30008850A0794201895821B90721204614F0E2F8C8E07549096801EB001015F078FCCA
:203F5000724AA1791268D9F8000002EB011200EB41114A60A17900EB41114968F963A179CB
:203F700049014058786404215E4800780AF0EAFF6249B888097800F1020E19B110B9F888CD
:203F900000F1020E608A00FB0EF04FF4C871B0FBF1F0401CC4F818E0606140F6C41394F8BB
:203FB00006C02968226806FB0CFC8C44CDF800C0D2F80CC003FB0ECCACEB0000A0F5A86C04
:203FD0000098C0F808C0A0797043084480689060A07970430844017B01F0EF010173A179C6
:203FF000286871430844017B01F07F010173A179286871430844017B01F0F00141F0020184
:204010000173A179286871430844417B01F0F00141F001014173A1792868714308442168BA
:20403000806808616269D9F80000A17997F802C0520000EB411103FB0C2202F5F6624A6163
:20405000A17900EB4110C17C01F0F00141F00401C174FA88D9F80000A1795A43DBF8303033
:204070001B6800EB4111D21AA2F51672CA61A17900EB4110C17E01F0F00141F00401C17656
:20409000A179286871430844216848609AF80100800615D5B8F83A001B2804BFB8F83C0056
:2040B0001B2809D1B8F83E00B0F5A47F04BFB4F86E01B0F5A47F03D0142120460FF084FE88
:2040D000134907200870BDE8F14F00F02DBD00BF104F0020B44D0020684E0020F44B002082
:2040F000AC2D00206E4F0020AC290020382D0020504F0020F73E0100BB4B0100784E00207E
:2041100020A801005C4D0020734F00208C4E00206F4F00202DE9F84F5FEA000A27D100207B
:2041300014F092FA23E050460FF097FB62E2317C012940F07E80C078002877D098F8000035
:20415000400088F80000B8F802004000A8F80200B8F804004000A8F80400B8F808000001AA
:20417000A8F8080001203077504610F099F90AF16606707D002800F064824FF489700AEB14
:2041900000094FF4A2700AEB0004717C4FF4C6700AEB000B00290AF186080AF1EC050AF1B9
:2041B0000607DFF8A404C2D0012946D0022931D0032957D0062900F0A480072900F01E820F
:2041D000082900F0F180092900F00F810A2900F0B3800B2900F0CA800C2900F013810F29D6
:2041F00000F04981112900F06A81122900F03881142900F0CE81162900F06C81182900F033
:204210009D81F02900F00082FC2926D0FE2900F0048284E7317C012985D1C078002800F045
:204230008281504610F03CF91621F1E1B888F18B10E050460DF0C2F8DCE1317C01290DD12C
:20425000C07800281CBF012088F80A008CD1B888B8F80C10884200F09581F1E150460EF0C9
:204270005EFBC7E1317C012941D1807850B10020B071A078012805D10020A070002150460C
:204290000FF0A2FDA87B01280AD10020286068600621012088F80E00504612F00FFB66E714
:2042B000E87B012818D1504610F0FAF8002088F80E0001203070504611F0C7FC0120B071E6
:2042D00000206873697A387806291ABF00221A21002215F0CDFA4AE799F8050001286FD0BE
:2042F000308B401E308380B200284CD0A8E150460CF084FD3074F08A30830020A873E87369
:204310009FE1307C01280ED1A87A01281FD1504610F0C6F8002028722873E872A873A872E6
:20433000E873687323E7504610F044FB3074F08A30830020A87284E1307C01280DD1E87AD3
:20435000012802BF002088F80E000B21A4D0308B401E308380B2B0B172E1504610F04EFC83
:204370003074F08A30830020E8726AE1317C012916D1807808B103218EE7308B401E3083C3
:2043900080B20028E8D1297A3878012903D1222115F072FA29E10022222115F069FA24E119
:2043B00050460FF087F825E1307C012814D1287C02280AF1FD0204D13978002015F034FA78
:2043D000D2E6308B401E308380B200280CD13978222015F029FA08E150460EF023FE3074B5
:2043F000F08A3083012028742AE1317C012905D1807810B1B88B3883B6E694E050460FF0AF
:20441000BFFBF7E0307C01280AF20D1121D1087801280DD14878012809D1B9F8020000908D
:204430000020CA78B9F80030397815F0F9F99BE6308B401E308380B2002810D1B9F8020046
:2044500000902220CA78B9F80030397815F0E8F9CBE00120887050460EF09CFA3074EFE05F
:20447000317C012903D180780028E0D15BE0504610F02EFDBEE0307C01281CD16078012853
:2044900009D1207F0F281CBF002014F0DDF800206070002100E7A078012806D10020A07048
:2044B0002322504611F0A6FF61E6207801283AD100202070EDE750460BF03CFE9AE0317CE2
:2044D000012903D1C078002821D12CE050460FF088FB8FE0307C01282CD19BF80C008106F1
:2044F00048BF1821D6D4C10712D5207F16281CBF002014F0A9F89BF80C0000F0FE008BF886
:204510000C0000233978607F00220BF005FF2BE6810708D500F0FD008BF80C0000233978E5
:2045300000221A20F1E7308B401E308380B200285BD085E050460BF047F85BE0317C01299F
:2045500022D1C078C0B19BF80C009BF80B1059B9810610D500F0DF008BF80C0000209BF8D3
:204570000A2039781346D0E700F0DF008BF80C0001208BF80600F7E57988BBF80800491C3B
:2045900088425DD1282143E0182150460BF01CF830E0307C01282AD19BF800004FF4B371EF
:2045B0000AEB0105810614D500F0DF0001078BF800000BD500F0F7008BF80000288B009099
:2045D000AB8AEA8A698A387815F05EF900202870CAE5810704D500F0FD008BF80000F5E70F
:2045F000308B401E308380B250BB222110E050460DF0A4F93074F08A308321E0504610F0D7
:20461000DBF80128E4D01BE0407AD0B199F80610504613F070FD012013E0B07E0F280CD1A1
:20463000FC21504612F04AF9608900902389E288A188387815F030F902E0002014F004F8DA
:204650000020BDE8F28F00BF5C4D00202DE9F0475FEA000882B00BD1002013F0F5FF07E0D2
:20467000404610F0A9F8012864D140460FF018FF08F16605687D00285CD04FF49E7008EB28
:2046900000044FF4B070697CDFF894A408EB00094FF4C670022908F1EC07404408F106069A
:2046B00035D0042949D005295FD0062900F08E800729D5D0092900F0F4800B2900F0C68040
:2046D0000C2900F026810D2900F0D5800E2900F0F6800F2900F05D81102900F07881112984
:2046F00000F09681122900F04181142900F0D681162900F09781172900F0C381FC2919D069
:20471000FD2900F0F481FE2900F0F681A4E7287C012809D19AF80300002814D016214046E0
:2047300013F0E9FC012006E040460FF096F82874E88A28830020BDE8F687287C012810D1BE
:204750009AF80200002800F01881FC21404612F0B5F8307808F1B80208F1B00115F05CF854
:2047700086E740460CF050FDE1E7287C012810D19AF8020028B1012088F89400002038601D
:204790007860B87A012869D10621404612F096F86EE708F1E7063078012809D1404611F0F2
:2047B00073FF0128C6D10020B87201202874C1E770780028BED008F1C70208F1A00108F115
:2047D000D70015F05DF80120307051E7287C012838D19AF80200002840D0B08B3083404689
:2047F0000FF05EFE01202870404611F02EFA0120A871397A787C012900F010000CD130B11D
:204810000020607120684108A0790EF0BFFF3078002115F031F80FE048B14FF4A17008EBCB
:204830000003206842084146BE4814F0E1FB30780122002115F01CF8002038723873F87242
:20485000B87215E7404610F0B5F870E7287C012805D1F87A012808BFFC2196D08DE040461D
:204870000EF028FE012853D10020F87288F8940001202874FCE6287C01280ED19AF802003A
:20489000002809D0002088F8940001202870404611F0DBF90120A871BDE0404611F07AFBEC
:2048B00045E7287C012806D19AF8020000281CBFB08B3083A6E040460FF062F937E7287C6B
:2048D00001281DD1387C022808F1FD0204D13178002014F0A9FFC8E6032806D131781A20FE
:2048F00014F0A2FF00203874BFE6288B411E298389B200290CD13178222014F095FF42E0EE
:2049100040460EF08FFB2874E88A28830120387410E7297C012908F20D1021D14FF48971E7
:2049300008EB0102017801290BD14178012907D1518800911388C2783178002014F070FFBC
:2049500093E6298B491E298389B20029E0D1518800911388C2783178222014F061FF12E072
:204970000121817040460EF015F8E0E6287C01280BD19AF802000028E2D1288B401E2883E9
:2049900080B20028C4D12221C9E6404610F0A0FACDE6287C012816D1607A012803D199F837
:2049B00000000F281CE0207A012829D100202072288D00090090A88CEB8C317842081A201F
:2049D00014F026FF51E640460BF0B4FBAFE6287C012819D1607A012812D199F8000010283C
:2049F0001CBF002013F030FE00206072288D00090090A88CEB8C3178420899F80100DFE745
:204A1000287F0028DED1B8E740460BF0E4FB8EE6287C012802D19AF80300F2E740460FF002
:204A3000E0F884E6297C012926D1017B4A062ED4CA070AD501F0FE0101730023317899F81F
:204A5000010000220BF068FC0FE68A0707D501F0FD0101730023317800221A20F2E7288B4B
:204A7000411E298389B2002955D131780023002222200BF051FC86E7162140460AF0A4FD54
:204A900055E6297C012907D1017B4906BBD5017B01F0BF010173E8E51721EEE7297C01297F
:204AB00020D101788A0617D501F0DF010A0701700ED501F0F7010170B9F81E000090B9F860
:204AD0001A30B9F81C20B9F81810307814F0DCFE002089F80600C8E58A0794D501F0FD01F3
:204AF0000170F5E7142140460CF028FF1FE6A97E404611F0E3FEBBE6A87E0F280CD1FC21EF
:204B1000404611F0DBFE608A0090238AE289A189307814F0C1FE0DE6002013F095FD09E667
:204B30005C4D0020612601002DE9FE4FDFF85084D8F80400009018B9BDE8F74F14F064BEC0
:204B50000078DFF84094DFF840A4DFF8404401281CBF0228042846F2A81741F64C5B05D008
:204B7000402818BF802800F0F98001E214F0F2F90028FAD00098007807F07EFE05466E686D
:204B900016B9002013F060FDDFF804044078002800F0A58004F08AF914F03EF80190006838
:204BB00002900146476828460BF064FF02286FD02978012904D0022927D0042945D0D7E16D
:204BD000DFF8D0130968097A1AF80110217018B914F016FE5844B0603069C17E01F0EF0115
:204BF000C1763069C17E41F08001C1763069C17E01F0F00141F00201C176B868DFF89813E6
:204C100008183169C8610120A4E00521217018B914F0F6FD5844B0603069C17E01F0EF0118
:204C3000C1763069C17E41F08001C1763069C17E01F0F00141F00201C176B868DFF85813E5
:204C5000081831690862022084E00621217018B914F0D6FD5844B060D0480068807C11F011
:204C700049FE3069C17E01F0EF01C1763069C17E41F08001C1763069C17E01F0F00141F041
:204C90000201C176B868C44908183169086260E002980078802811D108202070C048007865
:204CB000012803D0BA484078022801DB012002E0D9F8280000787969C8720AE00720B84986
:204CD00020700978786901291CBFD9F828104978C1720198AE4980798870029844E1002D63
:204CF00018D000992878A9420ED1401E012833D9C01E05D1A9480068807C11F0FBFD2BE019
:204D1000002013F0A1FC27E0012804D0022815D0042817D02CE19F480068007A1AF80000B5
:204D3000207014F06DFD3918B06814F065FD18B914F066FD5844B06001200BE005202070F1
:204D5000022007E00620207094480068807C11F0D1FD042088F80200284605E18C484078EF
:204D7000002800F0B68004F0A1F813F055FF00900068019045688648807813F04DFF029014
:204D900014F0EEF80721084278D098F8020007F073FD0646019977680BF06CFE02286DD0D5
:204DB0003178012904D0022924D0042940D062E078490968097A1AF80110217018B914F060
:204DD0001FFD5844B8603869C17E01F0EF01C1763869C17E41F08001C1763869C17E01F061
:204DF000F00141F00201C176A8686B4908183969C86192E00521217018B914F001FD584400
:204E1000B8603869C17E01F0EF01C1763869C17E41F08001C1763869C17E01F0F00141F0B6
:204E30000201C176A8685C4908183969086283E00621217018B914F0E3FC5844B860574825
:204E50000068807C11F056FD3869C17E01F0EF01C1763869C17E41F08001C1763869C17EE9
:204E700001F0F00141F00201C176A8684A4908183969086274E0002013F0E6FB029800997B
:204E9000884224D001980078802811D10820207043480078012803D03D484078022801DBAF
:204EB000012002E0D9F8280000786969C8720AE007203B4920700978686901291CBFD9F815
:204ED00028104978C172009831498079887001984AE014F045F8072108424ED098F802006D
:204EF00007F0CAFC064630787568012804D0022815D0042822D040E026480068007A1AF868
:204F10000000207014F07CFC3918A86814F074FC18B914F075FC5844A860012021E005206F
:204F3000207014F06DFC3918A86814F065FC18B914F066FC5844A860022012E006202070F9
:204F500014F05EFC3918A86814F056FC18B914F057FC5844A86011480068807C11F0CAFCDC
:204F7000042088F802003046BDE8FE4F09F0BABCBDE8FE4F002013F067BBBDE8F78F00BF83
:204F90007C2D002020A80100289A01106F4F0020684E0020104F0020F0D8FFFF184F00201C
:204FB000734F00202DE9F04F0C46E00789B00DD513F03CFE38B100218160DFF800040068EB
:204FD000010018BF804784F00100F4E11E252007DFF8EC6340F18A80DFF8E8030068807CE7
:204FF00013F01AFE07464FF4947097F82E8107EB0009002007908246DFF8C8030068807C34
:20501000FF2804BF002013F01FFB4A46414630460EF089FC834605FB0BF000903518494619
:20503000404614F021FCB0B1BBF1FF0F2CD00098305C40F00208E81D079005F1010908F0B0
:20505000010087F82E0106224FF494704946384413F0B4FC18E04946404613F06FFD0028C0
:2050700018BFBBF1FF0F0FD005F10D0014F0F0FB40B905F10D0014F0EBFB002804BF687F06
:20509000012801D148F00208CE480068C07A022818BF032806D106F10D0014F0D9FB08B96B
:2050B00006F1070A0020BD1D06904346288E000905900022E88D0490A88DCDF804A040085A
:2050D0000390CDF80090079802900020297814F08FFBD7F89C01BC49884228780CBF002191
:2050F00001210CF0E7FB84F0080064E1E00610D500200690059004900390029001900090EF
:20511000002300220021022014F072FB84F0100051E1A00710D500200690059004900390D2
:205130000290019000900023012200213C2014F05FFB84F002003EE16007A44F40F1A1804A
:20515000A34880784FF00008CDF81C80FF2804BF002013F079FA386890F8A00013F05CFD10
:2051700081464FF4947009EB000B3868C07A99F82EA1022818BF032806D106F10D0014F0CD
:2051900067FB08B9F01D07905946504614F06CFB90B33868807A010018BF012804D131466E
:2051B000584612F0FCF904E05A46514630460EF0BAFBFF283ED005FB00F806EB08050622B3
:2051D0005946E81D13F0FAFB16F8080040F0020A3868807E00F0010089F82E0106223868CA
:2051F00000F114014FF49470484413F0E7FB05F1010B05F107081DE05946504613F09EFC0B
:20521000C0B15A46514630460EF08DFBFF2811D06843351805F10D0014F01AFB40B905F1CF
:205230000D0014F015FB002804BF687F012801D14AF0020A09F12C0009F1060501780691EF
:2052500053464189090905910122A98B0491C088CDF8088040080390CDF800B00798019032
:205270000020297814F0C4FAD9F89C015649884228780CBF002101210CF01CFB84F004008B
:2052900099E0200610D5002006900590049003900290019000900023012200213B2014F08F
:2052B000A7FA84F0800086E0E0043BD5F11D06F10D0014F099FA38684179012923D1017A53
:2052D000012918BF04291ED1C17A022918BF032919D1817E00F1140230460EF024FBFF288E
:2052F00011D06843351805F10D0014F0B1FA50B9E91D05F10D0014F077FA38680622E91DBE
:20531000143013F05BFB33484268334800784FF4805110F035FC10B18E2014F061FA84F43D
:20533000805048E0A00505D513F0F0FD2B4901200860FEE7600504D50BF0CDF984F48060BD
:2053500039E0600405D5812014F04AFA84F4804031E0A0042ED5224D286810B1002013F02A
:2053700073F94FF0FF3028600EF0D4FE1D4D296820316846096888471B4841682D681B4AAB
:2053900000916B468168019100210291016909680391017B00688DF81010ADF812002D6848
:2053B00013491448A8471449086004F0E1FD84F4005000E0002009B0BDE8F08F204F00206B
:2053D00008220020184F0020F73E0100104F0020684E0020784E00206E4F0020FC0020433F
:2053F000044F0020F04E0020B0170020DC2C0020001A0020B0290020EC4E00202DE9F043E7
:20541000DFF8AC43DFF8AC3394F80080DFF8A8E3DFF8A893DFF8A863DFF8A813B8F10D0F47
:2054300083B0404641F2064741F202424FF4A05553D8DFE818F0BB010E000E000E000E0086
:205450006D00A500E9001D015F015F01900190019701DFF87413DFF87473C3F800E041F2BF
:20547000044E4C8874451CBFB1F81A80F0450BD0B1F83290F1451CBF41F20A4E744503D07C
:20549000F04518BFF14502D1A6F800E02AE0022CDFF83C73348036D94FF4806CB4EB0C040A
:2054B0001CD0241F012C1FD94FF47F7CB4EB0C041CD04FF4406CB4EB0C040FD0A41E012C43
:2054D0000CD9241F0AD0641E012C0DD940F2F930241A012C17D9241F08D05FE1022814BF17
:2054F0003580BC4F1F60FDE0BB4FFBE7BB480068007A012803D14A804A834A86F2E74D80A5
:205510004D834D86EEE7002013F09EF8832049E1B348418831800229C3F800E014D940F223
:205530000442891A2AD0491E0ED040F2FB32891A1DD00A3901291AD940F6F632891A03D010
:20555000491E1BD0491E012940F2C680091F15D0491EF9D0491E11D04FF47E72891AF3D0C2
:20557000491E0BD0C91E09D0491E012947D8817B478025290CBF2721491E817399483CE0ED
:205590009948418831800229C3F800E068D940F20442891A30D0491E62D040F2FB32891AE3
:2055B00023D00A39012920D940F6F632891A57D0491E21D0491E012952D9891E13D0891E15
:2055D0001AD0491E4CD0491E16D0891E0BD040F2F632891A44D0491E0ED0C91E0CD0491EFF
:2055F000012902D90BE0814807E0817B478025290CBF2721491E81737D48186072E00020CD
:2056100013F022F884206BE099F80200FF2855D07849C3F800E01C2209685043084440F273
:2056300004444188744A3180091B012946D94FF47F74091B15D00A39012916D940F6F63472
:20565000091B032984BF491F01290FD9891E012934D940F2FD34091B08D0491E012904D982
:205670003AE041F20141418000E045801A6039E099F80200FF2821D05E49C3F800E01C2465
:205690000968604308445D4C4188318040F20446891B012912D94FF47F76891B17D00A393C
:2056B000012916D940F6F636891B13D0891E012984BFC91E01290DD9891E012976D940F27B
:2056D000FD36891B06D0491E012902D904E0428000E045801C6005E0002012F0B5FF85207A
:2056F00014F0AEF803B0BDE8F04345480078012109F028BC4A88328040F20443D21A55D053
:2057100040F6FC73D21A15D0083A4FD04FF47F73D21A22D13B4C3C4A24683C4800680023E6
:20573000CDE9002308343A4B24680222A047394908803BE0092810D137480068408960B130
:20575000364800780EF014FD0021002014F044F8002020702AE048883080002012F074FFE4
:2057700085201FE04A883280022A0DD940F20440121A1BD040F6FC70121A05D0083A15D088
:205790004FF47F70121AE8D1887B801CC0B2B528A8BF662088730020488007E0002012F01B
:2057B00053FF8420BDE8FE4314F04AB8BDE8F7836F4F0020204F0020E9900100684E00201B
:2057D000504F00201C2D0020204A0020ED3B00004DD0000025F50000755B0110104F002048
:2057F0009C4C0020211701006C4C0020555C000089220100AC290020AD82000075B60000D4
:205810006E4F0020F04E002002000080EC4E0020E55F0100424F0020B42D0020714F00208A
:205830002DE9F84FDFF8F443A078FF2804BF002012F00AFFA07813F0EFF904464FF4C970F7
:2058500004F1680625183068006804F1900708B100200EE0B07B002804BFB07E002809D1FF
:205870003878002801BF28780028207F012801D1608CE0832089E18B0818401C60812046F7
:2058900012F02EFB01281EBFE5480078012804D10020E0832089401C6081B07E01280CD187
:2058B000B28B6189208913F093FF30B121896289481C82422AD0B28B1FE0387801280CD1E9
:2058D0007A886189208913F083FF30B121896289481C82421AD07A880FE02878012815D176
:2058F0006A886189208913F073FF00281FBF2189481C6289824209D06A88824206D0501E08
:20591000608180B213F060FF401EE0832878012801BF68882189491C884207D16A792A7199
:20593000002028701346A1790AF0F6FC4FF49A702044007920B10020E0832089401C6081DC
:2059500004F12E07B07E012801BFB08B2189491C884237D1608104F18601204612F02EFCEB
:20597000B08CE189608400202077E08360890818A0812189B08B13F027FFB988328C01FB40
:205990000028708CF28C884204BF3B899A4202BFB18CFB88994207D0110900914208B38CC1
:2059B000A179002013F034FFB07F3870708CB880B08CF880F08C3881204612F0D5FD022017
:2059D000B07601E0B7F80480E08BDFF85892411C01FB08F140F6C41808FB01F200922268DB
:2059F000DDF800C0D3686344DFF83CC2D360DCF800C08E4A9CF800C013884FEA9C1CBCF11F
:205A1000030F12D199F80FC05FEACC7C48BF00230BD45B1C9BB2012B07D14FF49A7CA4447E
:205A3000BCF806C00CF2DC5C01E0B4F812C00CFB01FC4FF4C87EBCFBFEFCDFF8F4A10CF1A0
:205A5000010CC4F814C04FF01C0B138084F82000A161A279DAF800102068C3680BFB02F258
:205A70000A4492680261A279D4F814C00BFB02F20A44A3EB0C039360A2790BFB02F20A4475
:205A900092688260A0790BFB00F00844017B01F0F00141F002010173A179DAF800000BFBC7
:205AB00001F1084400214180287908B912F0CCFDA179DAF800000BFB01F108442979490866
:205AD0000174A179DAF800000BFB01F10844002141742879042812D1A179DAF800002A7AFB
:205AF0000BFB01F10844017C41EA82010174A179DAF800000BFB01F108442021417400226A
:205B1000A079DAF800100BFB00F0084442824948A2790068D4F814C000EB4212536903EBD7
:205B30004C035361B27E022A07D1A2793E7800EB4212536908FB0633536199F80F20D207C9
:205B500040D5A2790BFB02F20A449368A3F5A8639360A2790BFB02F2114422688968916056
:205B7000009BC91A1161A17900EB41114A6902F5F6624A612979042906D1A17900EB411124
:205B90004A6902F5B0624A61A17900EB41114969C4F8341128490D6BBB88A2792D6808FBA5
:205BB00003F300EB42125B1BA3F51673D361A27900EB4210214A1278012A0EBF0121896A7B
:205BD000497818E0A279297900EB4212042952690CBF4FF44B614FF4E661511ABA8808FB24
:205BF00002F2A2F516729142D4D30821204612F082FA01200FE0C172A179DAF800000BFBC6
:205C100001F108442168486007200D490870204610F0DFFA0020BDE8F28F00BF684E0020F6
:205C3000784F00205C4D0020084F0020CC2D0020AC290020AC2D002020A80100734F00207B
:205C50006F4F00202DE9F84FDA4DDFF86C832868DA4F807CDFF8689312F0DEFF29680446CB
:205C70000020487104F12E0A28680FF023FF012060711C2598F80100401C88F8010080201C
:205C90000CF05EFD20607969C160CE4801894900AAF802105146C07940008AF80000BAF839
:205CB00004004000AAF80400BAF808000001AAF80800204612F082FA0520A081204612F0F3
:205CD00053FC386813F07CFD062210F8081FC1F3801184F82E11811C4FF49470204412F0A8
:205CF0006DFE3968B84F09680020087141F62202A1793868694342520022A17969430144F5
:205D10004A80A17969430844426099F80200400609D5AE48008841F20A4188420CBFAC48B9
:205D3000AC48C4F89C012046D4F89C118847A27939686A4311448873A179386869430844ED
:205D50000021C173A179386869430844807B8AF80B0094F8960108B912F076FCA179386892
:205D70009D4E6943084494F89611491E01740022A17938686943084400214174A1793868BD
:205D9000694301444A82A179326802EB4112694301444A61A1796943084490498161A079C0
:205DB0000AF080F8A279316852018850A07940010A5822B90721204612F09DF9F5E00844A4
:205DD0001F2202763068A179DFF814B200EB411000214176DBF80000A17900EB011013F0AB
:205DF00027FDA179DBF800203068DFF8F8B102EB011200EB41114A6004F16801A27900EBFF
:205E1000421252680A60A279520182588A60DBF8141091F800C094F806E05FEACC714CBF85
:205E3000102100215FEA8C724CBF202200225FEA4C734CBF402300235FEA0C7C4CBF4FF096
:205E5000800C4FF0000C1143194300EB4E104CEA010141F00F0101723068A17900EB411088
:205E70000B2141723068A17900EB4110042181723068A17900EB41105B49097801291CBF15
:205E9000DBF828100978C1723068A179626A00EB4111CA60A17900EB4110A16A01743068E0
:205EB000A17900EB4110A16A090A41743068A17900EB4110A16A090C817408214B48007872
:205ED00009F040F82168A2793868CB686A4302449360CA680A61CA688A60A1796943084459
:205EF000017B01F0EF010173A179386869430844017B01F07F010173A179386869430844FC
:205F1000017B01F0F00141F002010173A179386869430844417B01F0F00141F0010140F6B2
:205F3000C4134173BAF804203068A1795A43DBF830301B6800EB4111D21AA2F516724A61F8
:205F5000A17900EB4110C17C01F0F00141F00401C174A1793868694308442168486099F8DD
:205F7000010080061BD54FF497702044408F1B2801BF4FF497702018808F1B280BD14FF427
:205F900097702044C08FB0F5A47F04BFB4F86E01B0F5A47F03D0142120460DF015FF1449ED
:205FB00008200870A07988F80200BDE8F14FFEF7BBBD00BF184F0020684E0020AC4B002011
:205FD000382D0020844C0020AC290020504F0020F73E0100BB4B0100AC2D00205C4D002089
:205FF0008C4E002020A80100734F00206E4F00206F4F00202DE9F04F0F46BD4C0168616252
:2060100041688068ADF1140DA060BA4861608047B948616A01606168DFF8FC924160A16891
:20603000DFF8F0828160B549002FA246C16068D03D68E8788DF8080028798DF8090002A84D
:2060500013F0BAFBA86808B1AD490160E86808B1AC490160AC4C2878207068786070A87801
:20607000BE68A0703178E1707368636072696261B168A160F168E160316921612E697B685A
:20609000A6621868A0616869E062A8692063287F84F834002A6AA263786886681EB900200B
:2060B00012F0D2FA00E026627868C06818B9002012F0CAFA00E060627868406818B90020C0
:2060D00012F0C2FA00E0E0612869A062F86881680E6806B98E4E8D494FF0010B4E60C668E7
:2060F00081F801B026B9002012F0AEFAF86801E041460E6000684D46FE68A8617068E861FC
:2061100005E0002012F0A0FA4FF0010B4D46D8F80000824944686A1C05F114035020A047BF
:2061300018B1D8F8000080688047DAF80400804703907B487C4C286100272771B946E770AE
:20615000784EA770300BC6B2401CC1B226703846617028E0304639466A46042311F012F80C
:20617000009BA078B3F5801F0ED043B9B9F1000F03D048460FF088FBA078B14610E030462A
:206190000FF082FBA0780BE0002804BF301CA67006D00FF079FB30460FF076FBA77038465F
:2061B0006178761CF6B2B142D4DA98B9B9F1000F08D1207811F024FF0420E08020793946E0
:2061D000A0B912E084F8029011F02CF9484607F031FE07E0B9F1000F02D048460FF054FB2E
:2061F00011F020F92079394600B95946081C02D1384612F029FA3C464C4ED8F80000B4606B
:206210008069AC60804770604948478080F800B0142012F0F1FDFF211422A86212F07FFF5E
:20623000E81CFF21022212F07AFF142012F0E4FD4049086008681422394612F070FF38466F
:20625000FAF7B8FB584610F06BFE3B480188FF2906D1022101807822001D394612F05FFF3E
:20627000032013F0A5FA042013F09EFA052013F097FA062013F090FA07200DF0D5FF2F4EA9
:206290000820307006F1400013F082FA0EF03CFA363605200A21324611F098FB38B138460D
:2062B000C0F10901401C06F8011B0A28F8DBD8F80070234909200DF10A0201AB7E680870AF
:2062D00010202146B047A86AEA690A270A309DF80A1000F8011BDAF808107F1EF7D1921E8E
:2062F0000398EA61884704F003F805B0BDE8F08F3414002041490010F84400200899010011
:20631000CD7701004588010088170020A81A00206F590100641B0020C8180020C97F010008
:206330006D89010000D00100942D0020702D0020601B0020C02D00204C150020CC0F0020C3
:20635000D92D00202DE9FF47C44C0F460646F80B80F05981B80880F04681207BDFF80893A9
:20637000B90F80F0BA80A07A002840F09A803809C0F09980E07A20B10020E072052010F043
:2063900019FD00254FF00108B549657004F178002A4684F8088012F0A5FE607901281AD124
:2063B000A079C0B9DFF8BCA2DAF8000000283CD048460068006B8047A1695346401A000BD0
:2063D000E0611968226A8018B0EBC11F98BF20622BD9256201E084F8058040F60900208720
:2063F000A24994F845000A1D00F0F00040F0010084F845001368658794F8440000F0F000C1
:2064100084F8440023F002001060E5636FF002020A6004F1380341F8103C08688008FCD396
:206430000A60486840F002004860914A1068914920F00200A56140F400701060032341F8A0
:20645000043C41F230038B604046086050238B6008604FF4CA638B60086041F80C0C0220B1
:20647000156010F0A7FC112008F0CCFD307C10B90E2008F0C7FD25726572A078012803D021
:2064900006F1400013F080F97B4812F02DFD7B490878F8B10D7004F1D400042112F0DAFA1C
:2064B00018E0380914D2B80BC0F0CE8004F1280012F023FE061C08D0706830B17568F068C4
:2064D000B6F91C1000222023A84727F40057BBE00020A07227F00807B6E020B1042010F08D
:2064F00069FC00202073B168088840F602084FF0000A80450AD0B0F5C15F07D00A8B4FF62D
:206510001F60104040F43470088306E00A8A4FF61F60104040F434700882A069D8B14D4624
:20653000686D016804208847A8B12868006B8047A169814226BF401A401E401A000BF060E0
:20655000708AF168401840F6C411F06081422CBFB0F5FA7FF160B5699DB14948A84210D041
:2065700094F8450010F00F0F0BD1718D08F10700884206D130466FF4807152464FF000738D
:20659000A847404904F17800524612F0ABFDA07958B10220ADF80000684611F0E3F884F8D5
:2065B00006A0BDF80800A4F87400012060702079401C207104F1240084F807A012F09DFD09
:2065D000002808BF47F0020702D0192012F030FC75692DB1514630464FF080630A46A84719
:2065F00027F0005730E004F13005284612F085FD07F028FB284612F080FD27F0020708B111
:2066100047F0020720E013F0BBF8014604F12C0012F073FD0646B569A80810D27EB125EA60
:206630000500B061084613F0A7F8706850B12A46F068B6F91C1075680023A84702E00846A9
:2066500013F09AF827F4804727B104F1D400394612F000FA0090BDE8FF87C046B80B0020F3
:20667000817F0100A02D00208C01001010100440000004600C4104403DCF00009C2D002031
:20669000AB2D010059D100002DE9F04F09AFADF13C0D08900A92388809911E46ADF8180044
:2066B000101C08BF002000F08481002700F101094FF0FF3A4FF0010BB8466CE1252940F014
:2066D00063811078521C0A922D2818BFADF8068005D15846551CADF8060010780A953028CE
:2066F0001CBF4246434605D10A9908785A465B46491C0A912A28CDF80080554616D13068B3
:2067100004930A99CDF808A0C01C4B1C20F00300001D306050F8044C0A93002C087800944A
:2067300018D5ADF806B06442009413E044460AE0610001EBC40140180A99A0F1300408780E
:206750000094491C0A91302801DB3A28F0DBCDF808A004932E282BD10A9908782A2801F177
:2067700001010A9111D13068CDF80880C01C20F00300001D306050F8045C002D48BF4546A2
:2067900008782B46491C0A9111E0454643460AE0690001EBC50140180A99A0F130050878AD
