:2000000000400020D565010001C9011001C9011001C9011001C9011001C9011001C9011023
:1C00200001C9011001C9011001C9011001C9011001C9011001C901103FC9011089
:20003C0080B54FF4FC720FF278011A4810F0F8FE194800210170012141740221C17601BD0A
:20005C002DE9F0410FF25021144838220B684C688D68CE680F69D1F814C0D1F818E0D1F824
:20007C001C80036044608560C6600761C0F814C0C0F818E0C0F81C8020312030521EE5D1F7
:20009C004A688B68CC680968016042608360C460BDE8F081480400215903002100C000210F
:2000BC00410500217D0500212D06002170B51D46004C204787B2000010B5014800470000FD
:2000DC00D509000070B5614C6148254650358047022809D14034E1885E4A914204D1E97C5E
:2000FC00890601D4911DE18070BD70B557495A4A084650300378002B10D08379012B0DD181
:20011C00037C5B09DB0709D0097D544DC1746C7F20202043687790476C7770BDFF21C17420
:20013C00904770BD10B54E48484C804702280ED121464031CA88474B9A4208D1CA7C5209CE
:20015C00D20704D0227D920601D49A1DCA8010BD70B53E4843494030C07C4009C00707D032
:20017C003E4D41482C8B2043288388472C8370BD884770BD10B53B48344CAC388047214609
:20019C0053310A789309DB0705D04034A2730A7803231A430A7010BD2C4940310871182876
:2001BC0012D004DC0A280BD00B2804D10AE025280CD02A280CD02D4980004018C0687047DE
:2001DC002B4870472B4870472B4870472B4870472B48704770B504461C484E252D5CAE09AB
:2001FC00F60716D0067D3007000F052803D00120054202D00DE00220FAE7E80905D07006D1
:20021C0003D54868800F012803D05B085B0052085200062B03D01020022B11D011E0FB20F7
:20023C00024002232046FFF741FF002807DAC100611A2039497E1422114200D1002070BD93
:20025C00024303432046FFF731FF70BD4401002137CB000004140000EBC80000A800002142
:20027C00F5B4000053AD00002020000080DF00001D050021F9040021CD040021930400210F
:20029C006D04002110B5034CFFF716FF20680028FAD110BD0011044068610000F825F965B0
:2002BC00F9754500450045002600260057A3520052004C00401F401F401F3F000000000053
:2002DC00304000400140034007400F404F40CF40CF41CF43CF47CF4FCF3FCF2FCF1FCF0F6C
:2002FC00000000000000000000000F00080000003F00000040003F000000040068000E0093
:20031C00DC00060043001A00050000000000020000000000000000000400C00000000400B3
:20033C00C000000007000000000000000000000000000000000000003040004001400340A6
:20035C0007400F404F40CF40CF7FCF6FCF5FCF4FCF3FCF2FCF1FCF0F00000000000000009D
:20037C0050C00091007070C00091007082312100319110B10070018101B100A1823132910D
:20039C0010B101911110418141227740F106007051C0019130181039833108D01831416FD1
:2003BC003100319110B18314141683680070251050C00091F4C340C12014036F3110410497
:2003DC005082F0229840512622C082312100319110B163393110410482C08231210031919B
:2003FC0010B163393110A2C082312100319110B150101531051405920070676452C03110A6
:20041C0031066131C1026A6412C13110213971065131E1026A64007051C0019101CCE2C0CC
:20043C006A64676411C1C2C06A6450B054B0007140804022D6440022C94060B08180111EC9
:20045C00C944007054A064B0F0800022C9404012B09032B070C1DF6811C122C16A6470C1C0
:20047C00E46851C00191E2C0823160820200329110B130C2EE68538253395339B16460C347
:20049C00F4688012B09032B00070676401C122C16A6401C1C2C06A645382B164C012B09074
:2004BC0032B00070676472C281C06A6422C111C16A6402C011C16A6462C031C36A6462C3D2
:2004DC0011C16A6402C311C16A6453825339B164E2C36F6411221C4142C281C86A6452C24E
:2004FC0011C16A6472C2E1CE6A6402C281C86A6402C201C86A64B0C030690070676442C211
:20051C0001C86A6452C211C06A6472C2E1C06A6402C001C16A6462C001C36A6422C101C127
:20053C006A6462C301C16A6402C301C16A645382B16400708180111E5C4150B054B000712B
:20055C00408040225D4154A064B0F1800122514500700022514160B04E61000000000000AA
:20057C000000000000000000067305720B720E7250B00071818060B050A09280F0EFF1928C
:20059C0002936A6741228C458080F1C11004301601110114016CB561B661B761B861B9618D
:2005BC00BA61BB61BD61BF61C161C36126632D63F0C002043231412A121432160111211412
:2005DC00016CDA61C561E061C761CB61B561B561B561F461C561FA61C761CB61B561B56104
:2005FC00B561F461C561FA61C761CB61B561B561B561E761C561ED61C761CB61B561B56121
:20061C00B561CF61CF61CF61CF61CF61CF61C064CF61F964CF610665CF613265CF6174676A
:20063C00CF611166CF61C0644E65F964CF61066511663265CF618280E0DFF2926A67B0B044
:20065C00D661B1B00673057230B06C61D0CF6A6784C203C0C0C37C64207851788278E378B7
:20067C001579B6780062C0CF6A6784C203C0C0C37C64307861789278F3781579C678006250
:20069C00B0CF6A6784C203C0C0C37C6440787178A27803791579D678109221923292439281
:2006BC005492659256911FC0FF914039F00601101031101400927067CF61E3B054A0F08076
:2006DC0050221A4640800022BE461262E3A000C86091598150B0918041228E46A0CF6A6734
:2006FC0012828231823942398B641282F2062F101F312F141682D622334640C1346200C5AF
:20071C0020140D6F6D39DE10F4C34E0482C082312E006D39A2C082312D001A828A39FA0606
:20073C002082803180390BC00B18BC10AC18038239149B141082F0060110103110145181C2
:20075C0010140C14C622C94631D0C1266462021011C0013010C00118021882312100C126C2
:20077C00919103B013B063B053B041800122BE46B481C491D581B51C774E95186591F0803E
:20079C00102269428C623D9110B13E9110B1E08000228146E6228142E0B0951865910F926B
:2007BC005981F914F0805022114210228C464D6390CF6A6763B052A03082F2C0200402107E
:2007DC0011C0013010C00118021882312100C1269191919113B003B063B053B064B054B055
:2007FC00007141800122BE4663B064B0F08050221142B181C191D1819118619131B0A462D0
:20081C002967E0A059810582591480C0007163B0BA6A6962E3A0018262818231823D80EF61
:20083C00F19202936A6703A0007037824739873930828039F006021011C0013010C0011849
:20085C00021882312100C126819102B012B030824039F006021011C0013010C001180218E9
:20087C0082312100C126919103B013B063B053B0007153A062B052B041800122BE46A4816E
:20089C00C491D581B51CFE4E95186591F0801022F0428C62B481C491D4814518751C084FEB
:2008BC00F0801022F0428C623D9110B13E9110B1E08000221247E6221243E0B065910F92DC
:2008DC005981F914F0805022114210228C4630632967E0A0598105825914F0C0007162B038
:2008FC00226BF062A2808B64CF6112824239F2068B6050B00071CF6170CF6A674082418096
:20091C000122BE46A481C491D58195186591F18011228C46336B41800122BE46A481C491AB
:20093C00D581C51C1C4B95186591F08010223F438C6260CF6A67408241800122BE46B48169
:20095C00C491D58195186591F18011228C46506B41800122BE46B481C491D581C51CB44A55
:20097C0095186591F08010225C438C62E092D08200226B47C0B20070A080F022874330B033
:20099C0002C1623101C0A080001E8043F022814380F86031603981632010101A136F236E5A
:2009BC0011161216826B00702DE9F84FDFF81885DFF8181588F80000002008600921DFF891
:2009DC00100501700D2141804FF408718180DFF80405DFF8041501608A7EDFF80005027042
:2009FC00FF2ACB7E437008BFFF2B0D7F85704E7FC6708F7F0771C97F417115D1FF2D08BFE8
:200A1C00FF2E11D1FF2F08BFFF290DD1DFF8D0140A7802704A7842708A788270CA78C27025
:200A3C000A79027149794171DFF8B81402780A70FF2542784A7082788A70C278CA7002791E
:200A5C000A7140794871DFF8A014DFF8A004057045708570C5700571457100200880DFF888
:200A7C009014DFF89004466B70780870DFF8881430780870DFF88414B0780870DFF880142D
:200A9C0070690079401E0870DFF87814F0780870DFF87414B069086008B918F0DDFCF069F4
:200ABC00DFF86844206008B918F0D6FC2068DFF86074006880472168091D384609688847AD
:200ADC00DFF85004DFF850143862DFF850047862306A086008B918F0BFFC706ADFF840146A
:200AFC00086008B918F0B8FCDFF838B4DFF838649BF8040019F08EF8306008B900F046B959
:200B1C009BF80500DFF8247419F084F8386008B9306838E19BF80600DFF8144419F07AF8E0
:200B3C00206020B9306819F07DF838682BE19BF80700DFF8009419F06DF8C9F8000038B959
:200B5C00306819F06FF8386819F06CF820681AE1DFF8A41309789BF80000DFF8DCA3C91C04
:200B7C00484380B219F056F8CAF8080058B9306819F058F8386819F055F8206819F052F8A8
:200B9C00D9F80000FFE0DC480078010000F00381BBF80210DFF8A4B3484380B219F03AF88D
:200BBC00CBF8040078B9306819F03CF8386819F039F8206819F036F8D9F8000019F032F8AF
:200BDC00DAF80800DFE0CC48007819F023F8DC49086098B9306819F025F8386819F022F851
:200BFC00206819F01FF8D9F8000019F01BF8DAF8080019F017F8DBF80400C4E0BE48007859
:200C1C001C21484319F006F8CE490860B0B9306819F008F8386819F005F8206819F002F82F
:200C3C00D9F8000018F0FEFFDAF8080018F0FAFFDBF8040018F0F6FFC148A3E0AE48007819
:200C5C00400118F0E7FFC0490860D0B9306818F0E9FF386818F0E6FF206818F0E3FFD9F8F7
:200C7C00000018F0DFFFDAF8080018F0DBFFDBF8040018F0D7FFB248006818F0D3FFB148CC
:200C9C0080E09D480078000118F0C4FFAF490860F0B9306818F0C6FF386818F0C3FF20684F
:200CBC0018F0C0FFD9F8000018F0BCFFDAF8080018F0B8FFDBF8040018F0B4FFA048006842
:200CDC0018F0B0FF9F48006818F0ACFF9E4859E089480078000118F09DFF9D49086010BB19
:200CFC00306818F09FFF386818F09CFF206818F099FFD9F8000018F095FFDAF8080018F0E0
:200D1C0091FFDBF8040018F08DFF8D48006818F089FF8C48006818F085FF8B48006818F0E4
:200D3C0081FF8A482EE0744800783021484318F071FF8849086070BB306818F073FF386899
:200D5C0018F070FF206818F06DFFD9F8000018F069FFDAF8080018F065FFDBF8040018F09E
:200D7C0061FF7748006818F05DFF7648006818F059FF7548006818F055FF7448006818F039
:200D9C0051FF7348006818F04DFF002018F064FB4FF4804192E03168012008710022306886
:200DBC00057330684573306885733068C573306805743068457400203168C8723168487148
:200DDC00A0213068C180032101720720316848720020316888722821306841820121C1769C
:200DFC00002031684877316881F85E00012031680877316881F85D00396808713868057315
:200E1C0038684573386885733868C573386805743868457400203968C87239684871396886
:200E3C0088724FF420703968C88008818A7401213A68D17421680D7321684D7321688D7375
:200E5C002168CD7321680D7421684D7400212268D172012122681171002122685171216847
:200E7C00C8800881002088722168887405202168C8743948006880470546294800680068C0
:200E9C00804727490968091D00200968884719481C49C06809780088084330490880284657
:200EBC002F49096888470C212E4800F05DF80F4800F05EF800F060F84FF4005198F800006D
:200EDC00BDE8F44F0EF04CBB6E4F0020044F0020604E0020084F0020B63F00502C4E002095
:200EFC00E81200503C4E00200C4F0020344E00206D4F002070B601007B4F00206B4F0020FE
:200F1C00724F00206C4F0020F04E0020F44E00207C4B0020319C0100F84E0020419C010040
:200F3C00FC4E0020201D0020104F00200C300020184F002010300020D42F0020684E002013
:200F5C00004F00200430002008300020884E00208C4E0020904E002090160020544F0020E3
:200F7C0094160020F84D0020DFF800F0E5710110DFF800F01D6E0110DFF800F04D710110FF
:200F9C00B0B5174C241D20680004070C23D01248006800688047114991F90720824205DDF8
:200FBC0010F1800FB8BF6FF07F00C8718D88BD4210D80A68D4F8D40F801A801C1F2888BF16
:200FDC001F207F1B4008C7404FF6FF70EF19B84238BF071C8F80B0BDEC010010FC2F002039
:040FFC003010094068
:20100000B41200001810000015AB0110FDB301106DC00110FDAE011099B5011000000000F7
:08102000000000002F00000099
:20102800B01200003C100000B1C00110A9BF011067C0011069B80110000000000000000035
:041048002D00000077
:20104C00B012000060100000BDC00110CDB30110D9BD01106DB3011000000000000000005B
:04106C002E00000052
:2010700000000000481D002004000000000000000000000020000000E8C9011030000000C5
:2010900028100000501D00200400000000000000000000000C000000D8CA011018000000A0
:2010B0004C100000581D002004000000000000000000000024000000F0CA01101800000024
:2010D00000000000601D00200400000000000000000000001000000018CA01102C00000030
:2010F00000100000681D0020040000000000000000000000200000006CCA0110240000009C
:20111000FFFFFFFF701D00200400000000000000000000002800000090CA0110240000005B
:20113000FFFFFFFF781D00200400000000000000000000001400000008CB011018000000DA
:20115000FFFFFFFF801D002004000000000000000000000058000000B4C9011034000000A8
:20117000FFFFFFFF881D00200400000000000000000000001000000020CB01101800000076
:20119000FFFFFFFF901D00200400000000000000000000001C000000B4CA011024000000A3
:2011B000FFFFFFFF981D00200400000000000000000000003800000044CA011028000000CB
:2011D000FFFFFFFFA01D00200400000000000000000000005400000078C901103C00000040
:0811F0000100000034B601000B
:0411F80001000000F2
:0411FC0000000E00E1
:0412000000000F00DB
:0412040032000000B4
:0412080001000000E1
:04120C00B01B0020F3
:0412100000020000D8
:0412140000000000D6
:0412180001C90110F7
:04121C0000000000CE
:0412200000000000CA
:0412240008000000BE
:04122800000023009F
:04122C00581A00202C
:0412300001000000B9
:04123400C81B0020B3
:0412380008000000AA
:04123C00701B002003
:0412400000000000AA
:0412440000000000A6
:04124800080000009A
:04124C00000000009E
:04125000000000009A
:041254000000000096
:041258000000000092
:04125C00010000008D
:04126000C01A002090
:041264000600000080
:041268000100000081
:04126C000419002041
:04127000000000007A
:041274000000000076
:041278000002000070
:04127C00000000006E
:02128000290043
:02128200010069
:02128400250043
:021286002D0039
:021288002E0036
:02128A002F0033
:02128C0001005F
:01128E00015E
:0812900003000000E8B50100B5
:0812980000000000000000004E
:0412A0000000010049
:0412A4000000030043
:0412A80013C401105A
:0412AC00D5990100CF
:0412B000B812000070
:0412B400B81200006C
:0412B8000000000032
:0412BC00C81B00202B
:0412C0005D9B010031
:0412C4002000000006
:0412C8003CB5010030
:0412CC0064B4010005
:0412D00029C101101F
:0412D400DB780100C2
:0412D8007F7D010015
:0412DC00A1C7011095
:0412E000A3C701108F
:0412E4000000000006
:0412E8005FB50100ED
:0412EC0060B20100EB
:0412F00078B20100CF
:0412F40048B20100FB
:0212F8000200F2
:0212FA000900E9
:0212FC000100EF
:0212FE000000EE
:0113000001EB
:04130400DD9A01006D
:041308003578010033
:04130C00F18D01005E
:041310001D7C01003F
:041314004D7D01000A
:041318006D780100EB
:04131C00CD340100CB
:04132000579D0100D4
:04132400554C010023
:0413280015C70110D4
:04132C0025C70110C0
:201330002DE9F04FE54C04F11C012046ADF14C0D14F03CFA04F1B8050021284619F0FCF92F
:201350002562E449E24D1020EA1D0AF09BF8002001228146E0490090134604F5A670CDF8E6
:20137000049013F0B3FFCDF800904FF400510191DA4944F620624B4604F5B87013F0A6FF60
:20139000CDF800904FF480410191D54949F640424B4604F5CA7013F099FF4FF480004EF60D
:2013B0006022D049CDF800904B46019004F5DC7013F08CFFCDF800904FF480510191CA492A
:2013D00049F640424B4604F5EE7013F07FFFCDF800904FF400010191C4494CF250324B464A
:2013F00004F5007013F072FFCDF800904FF480710191BF4904F5127044F620624B4613F012
:2014100065FFBD4ACDF800904FF4007104F51B704B460191B749119213F058FFB74E06F1A8
:20143000180006F10C010FF04FFDB549B06018F0C3FCB44FB0684FF4E0213A46521E16F00B
:2014500079FAB0684FF4E0213A4616F073FAAE4FB0684FF0C0513A46521E16F06BFAB068E2
:201470004FF0C0513A4616F065FAA849CDF8009006F12400C8224B46CDF8049013F026FFCA
:20149000A348494670604FF0804013F099FAA06104F1D00104F1C4000FF016FD9D4E20635D
:2014B00021211E22304617F0DFFA9B4849464FF6FF7217F0D9FA994849464FF6FF7217F015
:2014D000D3FA974849464FF6FF7217F0CDFA954849464FF6FF7217F0C7FAA769DFF84882A2
:2014F00057B1304606793EB1414603220A708F604A46CA6016F07AF98C4910200B2209F07D
:20151000C1FF8B4D10200622A023294609F0BAFF10200722A023294609F0B4FF1020082256
:20153000A023294609F0AEFF10200922A023294609F0A8FF10200A22A023294609F0A2FF6E
:2015500010200B22A023294609F09CFF102002224FF4FA63294609F095FF294610200C229B
:20157000502309F08FFF294610200D22502309F089FF294610200E22502309F083FF294673
:2015900010200F22502309F07DFF102029465023024609F077FF294610201122502309F0EB
:2015B00071FF294610201222502309F06BFF294610201322502309F065FF29461020172286
:2015D000502309F05FFF294610201822502309F059FF294610201522C82309F053FF294619
:2015F00010201622C82309F04DFF2946102019224FF47A7309F046FF294610201A224B468F
:2016100009F040FF207816F0C3FEDA490246102009F038FF8DF82190ADF8169040F2053070
:2016300001210DF121020AF0CDFB40F2063002210DF116020AF0C6FB04F1E8024FF4427065
:201650000F210AF0BFFB04F58E7240F2073016210AF0B8FB0F2001210DF122028DF8220036
:2016700040F204400AF0AEFBC34E04F1A800C34DB06128786072307816F08AFE0246F07A18
:2016900006F13407009006F144030197BC49029306F1140703977378102009F0F3FE617A7C
:2016B000480000EB011080B210F0D0FE6063002840D0677A002F3ED002E0C04608020020AB
:2016D0004FF6FF713E46761E20F8121BFBD132E060B50100A1B50010FD6C0100799C01000E
:2016F000119C0100B99C0100019C0100699C0100A99B0100899C0100803801005019002085
:20171000657301000E0005800E000010019A0100C59701001C1A002020170020B818002099
:20173000201800206C180020381C002081B30010BD840110677A380110F088FE0746E7635C
:2017500057B1667A46B14846F8803870B8807880761E07F11007F7D104F20710D249009099
:201770004A461523102009F08DFED04910204FF0FF3209F087FED44910204FF0FF3209F0F0
:2017900081FED24ED24F10201323D24A00903146019709F077FE2878800010F057FECE4A5D
:2017B00001469346916069B14FF6FF7016F08EF8CA4910200BF1240200901123019131467C
:2017D00009F060FEDFF818A31020514609F05AFEC4491020042209F055FE012503270426CF
:2017F0008DF8235002208DF82570D64A8DF8266006AB8DF82400921C1079116818710DF1E9
:2018100023021960484629460CF0F0FF09AA284601460CF0EBFF02200DF1250229460CF032
:20183000E5FF0DF12602384629460CF0DFFF052106AA30460CF0DAFF04F14C00CBF804009E
:201850005146102009F01EFE207816F0A1FDCD490246102009F016FE207816F099FDCA497E
:201870000246102009F00EFE8DF82790AA468DF82B7002208DF829000DF129068DF828A045
:20189000C24D8DF82AA04FF480628DF82CA0534600962946102009F0F5FD0DF12A0040F251
:2018B0000242009053462946102009F0EBFD0DF12B0040F20342009053462946102009F0CA
:2018D000E1FD0BA80090294640F206425346102009F0D8FD0DF12700294640F211425346A5
:2018F0000090102009F0CEFD0AA8294640F2044253460090102009F0C5FD04F1F700102388
:20191000294640F205420090184609F0BBFDCDF800902946102040F209424B4609F0B2FD86
:20193000CD4904F1B002102009F0ACFDCB49102009F0A8FD04F2E2270C9700210D910E9126
:20195000D14E0F96D34610961BE317F07DFDCD4A002307F09DFDCB49CC48891A63E2A06991
:20197000B90F0FD2780AC0F00C83072017F05CFA4AE0C04651880110B80A0020694F002095
:20199000C143010012210022CBA316F0E4FED0480C300068C00A0DD2CB48006803684FF4F9
:2019B00080715A4608469847C848C649C0F800B000270F60C64800684008FBD3C24800683E
:2019D000416802208847BF49096881421ABFBD490860CA480D9904F1780200F0010082E858
:2019F0000300072017F032FA04F1700003C804F178020CCA8B4208BF824207D1A069122199
:201A10000022C5A316F0A7FE0020BEE1C64886E2A16AB80E56D2B80D80F06482207B002875
:201A300046D0401E2ED0401E1ED0401E40F0A982380A1BD3D24818F0A7F810B1D04818F04D
:201A5000AFFAA06904F19801002306C99A4203BF1A1C9142CEA3D3A3CA490978002200916F
:201A7000142116F078FE22E2380A03D2B80A80F01E8286E211F010FB012800F0F781032090
:201A90002073CEE1380E0AD207F0807007F40076064300F07682780E80F0068207E20220C0
:201AB000207314F007FABCE14D230100F58F0100780B80F01182780DC0F0638284F80CB013
:201AD000AF482CE2CF4817E2E9930100E7820100C4B50100E410002094130020D0B501001F
:201AF0008116010035970100A16AB80E48D2E06AB90D80F0E081E07A002834D0401E23D0CE
:201B1000401E40F03E82780FC0F03B82CE4A032008210CF06BFE01280AD0032004F1780710
:201B3000E07297E8030004F1700282E8030028E2A0690F2100224B4616F00DFE4FF08051D6
:201B500095E1C04660B50100380E09D2780EC0F01882A06911210022C7A316F0FCFDA9E1A2
:201B70000220E0720DE2780A07D2780DC0F0098284F80BB013F0FEFA03E213F0FBFA99E14E
:201B9000CE48B9E1318101101D9E010059780000B80D80F08B80E07B002879D0401E5FD09C
:201BB000401E3ED0401E40F0EC81F80AC0F0E981CB49002014F01AFF04F190020CCA04F1EF
:201BD000880003C8DDF838C004F1A007121A8B4197E8030004F19806121A8B4196E80300B3
:201BF0006546801841EB0301CA0F12184FEA520045EB0103D90708435910D0F100096CEBEB
:201C1000010A18F095FD04F1680106C904F1680311EB090142EB0A0283E8060018F084FD49
:201C300048E1F80AC0F0AD8117F00EFC04F1980282E80300BE4A032008210CF0D7FD012831
:201C50001CBF0320E07340F09C81A0690F2100224B4616F080FD12E059920100C5AB001009
:201C7000F80AC0F08E8117F0EFFB04F1900282E80300C149002014F0B9FE0220E0734FF411
:201C90008061F4E0400D030040E201002C040020380E0ED2780EC0F07481A0690F21002210
:201CB000ADA316F058FD002015F040F814F02CFA67E184F80FB064E177616B696E67207504
:201CD000702100C0042C0020CC010010A802504208800240A16AB80E7ED2A07B00286CD0D0
:201CF000401E0DD0401E40F04C81F80BBFF442AF380D49D2780D80F0DD8042E1EFBEADDE8A
:201D1000656C380C12D2F80CC0F03B81C34818F045F90220A07334E1656E746572696E6753
:201D300020736C656570210050040020002D2BDDC148DDF8309090F918A0022D14DB064647
:201D500007466D1E19361B37384617F07FF928B196F918008245BCBF8246B9466D1E06F1F2
:201D7000190607F11907EFD1BA48B9F1000F80F800A009D000202B214A460FF0A1FD00E136
:201D90007404002061020020032011F0C1F9F8E02053706F74202564206973206F70656E25
:201DB0002100C04653706F74202564206973206F636375706965642100C0F80C0AD2B80BB1
:201DD000BFF4D8AE380DC0F0DC8084F80EB04FF400414CE0BF48A2E0B0488DE0A16AB80EC0
:201DF00080F08980B80D7DD2607B00286DD0401E50D0401E2AD0401E18D0401E04D0401E5A
:201E100026D0BEE014020020380A21D317F01CFB04F1A00282E8030016F0F4FF30BB052087
:201E30006073BD48119915F0D3FDAAE0380A0FD317F00AFB04F1880282E8030016F0E2FFAE
:201E5000A0B90420ECE7C04680020020380A02D2B80A2CD295E011F01FF9012806D00320F4
:201E70006073E069802118F05BFCDAE78021E06918F056FC85E0C046426F6E64696E6720E5
:201E90006661696C65642077697468206D61737465722100380E13D207F0807007F40076A1
:201EB00006436ED0780E02D39B4818F079F8002014F03CFFE06A804763E0C04613020020E6
:201ED00013F0F8FF02206073FAE5780B04D2780D57D384F80DB0F3E514F03AF9EAE7C046FD
:201EF000A80200208C4817F04FFE0028E2D08A4818F056F8DEE7BE48884742E06679380B00
:201F100018D2B80C0ED2F80E03D2380F39D3062000E0022011F0FCF813F07CF8BC4818F055
:201F30003DF82EE0BB4804F180020021FDE5C046A0020020002E1CBF0020071C03D10DF0EC
:201F5000EBFC4FF0FF37A069C7B914210022BCA316F001FC15E0C04650616972696E6720EE
:201F70006661696C65642120446973636F6E6E656374206E6F77210090020020062016F02E
:201F900065FFE0694FF0FF320021134618F0C4FB071CF6D00020049008A904AA05A815F025
:201FB00069FE002852D1BDF814005E46102848D120789DF82010884243D1049801884FF6FC
:201FD000FF728A423AD14088C0083AD3A56B002D37D0207905F10803401C2071B8490093AD
:201FF0006A882B79102009F04DFA5FFA80F9B9F1160F15D02078B9F1040F11D0A56B16F0F9
:20201000C7F903460020BD4900906A88102009F039FA484611F018FA13E0C0469C0300204A
:202030002079009098F80010A0690022BDA3491DC9B216F090FB04E0E804002000F0DAF917
:202050000646049810B10EB117F07EFFF80FC0F013810BE150030020256A284618F058FB82
:20207000854208BF002602D0866815F0C9FE301C00F0FC80A269318898F800009446491EC3
:2020900000F0EB80491E00F0A780891F59D0083906D0103900F0C080E5E0C04616020020F3
:2020B00071688D78002D4AD0012D37D0022D24D0032D40F08D80CD7875B90988C01C002224
:2020D0009CA30091C1B2604616F045FBC64817F065FF7DE0780300200A880092C978C01C0F
:2020F0009BA300220191C1B2604616F034FB4FF08071E06918F014FB6AE0CD78002D67D10C
:202110000988C01C009199A3C1B21046002216F022FB4FF40001ECE774040020CD784DB96D
:2021300098A309880091C01CC1B21046002216F012FB4DE00988009198A30195F3E79CA31F
:20215000EFE770680078010922D2400940D30E2017F058FC00283BD1D8F8040098F80110BD
:2021700003790A46934211D0FF2A31D000EBC203DD682DB900EBC100006915F037FB27E075
:2021900000EBC20003690846984721E08068F4E70D2017F037FCD8B9D8F8041098F80100B8
:2021B000097981420FD0FF2812D0401CC0B215F013FDFF2802D1002015F00EFD88F8010054
:2021D0000BF04CFE04E0002015F006FD88F80100706815F015FE46E07268E069117879B131
:2021F000891E07D0891E10D14FF080510AE0C0461502002002200DF12D0114F0F7FB03E06B
:202210004FF4806118F08CFA72681046E1E7C046E4030020400D030075680F99C01C0091B5
:2022300069A3C1B21046002216F095FA109800906B496A890023102009F024F9C8E7C04605
:202250004572726F722121416C7265616479207363616E6E696E672100C0706800F0CAF884
:20227000706817F071FE304615F0CAFD206A18F04BFA00283FF4F0AE380B09D317F0E4F8EC
:202290008DE80300A069002253A30C2116F063FA666ABEB1761E3FF431AE761E3FF49EAD0E
:2022B000761E3FF417AD761E0FF254093FF470AC761E3FF419AC761E3FF4AAAB61E6C0464D
:2022D000DDFE0010A07AB90EFFF449AB00283FF43CAB17F0B9F8454A002307F0D9F843483C
:2022F000821A43485F464FF00056009700233D49019612F0EBFF0020A07242E6439B010071
:202310004572726F7221204E6F74696669636174696F6E2073656E64206661696C6564210B
:2023300000C046C05273702073656E642072657472793A0043786E20256420626F6E642083
:2023500073617665207375636365737300C046C043786E20256420626F6E6420736176657B
:20237000206661696C65643A2025640043786E20256420626F6E64696E67207375636365DF
:20239000737300C0636F6E6E48616E646C652025642070616972656400C046C070616972DD
:2023B000696E67206661696C65643A20256400C0636F6E6E48616E646C6520256420706113
:2023D0006972696E6700C04650617373636F64653A20256400C046C0703A20256400C0469A
:2023F000817D0100C99C010008040020400D03002C0400202DE9F04F05460120ADF1240D0C
:202410009B4C07902878913800F0BB83DFF864A2DFF838931F3800F0E582203840F0168448
:202430005046A84605900578216CA66998F80200002800F09B82401E00F0D781801E00F05F
:202450008B82401E00F0B181DFF838A3DFF838B3401E00F0D380401E5DD0401E00F06F8200
:20247000801F40F0F38398F80300002837D1A56C08F10507002D1DDD04F57776304639462C
:20249000062216F065FC88B9D8F810002B2116F029FC78B198F8040008F1050111F088FEC2
:2024B000002840F0D3834FF080619AE16D1E06F11906E3D198F8030088B9D8F810002C216D
:2024D00016F010FC58B198F8040008F1050111F06FFE002840F0BA834FF0006181E198F8A9
:2024F0000300022840F0B283D8F81000C07A2A2840F0AC83A078401CA070D8F8100000907B
:20251000D8F80410D8F80820D8F80C30D8F800000DF02EFE9AE3192204F2D4404A4300215A
:2025300010F055FC002510204946256408F0AAFFC7B2B8F8040016F08BF8617AA0828142B6
:2025500040F38483626B41004FF6FF7301EB0011079E5352E26B0301D55406FA00F0D118D2
:20257000CD8082B22946504616F07EFAA08A294606FA00F082B2584616F076FAA08A864086
:20259000C4482946B2B216F06FFA27B9C24829461C2216F069FADDF814A0D4F818809AF85E
:2025B00000601020494608F06DFF761C00902A46B0A3F1B2404616F0CEF8A0699AF8001003
:2025D0002A46B0A3091DC9B216F0C5F8607A401EB84210D156463178A0692A46CFA3891CDC
:2025F000C9B216F0B8F83178A0692A46D0A3491DC9B216F0B0F84FF40011F2E098F801704F
:20261000002F40F0C3802D1D30460022CFA3E9B216F0A1F80598A66905784946102008F09A
:2026300031FF6D1C0090002292A3E9B2304616F092F808F104050020A07108F1040CB8F85D
:202650000AE0677A069587B1656B064601463A464FF6FF70123D35F8123F98420CD0521E42
:2026700006F1120601F10101F5D18B4D15263CE008020020381C0020A5F800E00F4660463C
:2026900013F00CF9AD1C01460F2228460EF0CEFB07980022B8401FFA80F95046494616F036
:2026B000E3F958460022494616F0DEF95546DFF8E4A100224946504616F0D6F9606BFB0029
:2026D0003618591903EB0B02B61C734DCE60E888D66003EB0A01CE60400904D228461C21D8
:2026F000002216F0C1F9FEB2677A1849102008F0C9FE874211D80799002740F2053004AA79
:202710008DF8107009F05EFB0599A0690978CEA33A46891CC9B216F01EF80599636B097810
:20273000A069720002EB0612491D9B18C9B200229B1C16F010F8284615F058F8676AB8F84A
:202750000A00032F20821AD102E0C046F17F0110069904F233100A68898802601025818044
:20277000A66984F8325113F099F8009094F948010022BAA329460190304615F0ECFF4FF419
:2027900080112EE0B8180020201800202D1D30460022B9A3E9B215F0DEFF98F80100009066
:2027B00005990D78B8A36D1D0AE0657A4946102008F068FE854209D851460D78CCA3AD1C1F
:2027D000A069E9B2002215F0C6FF3FE25146A0690978002251A3891CC9B215F0BCFF4FF4DE
:2027F0000021E06917F09CFF30E200206071062016F01AFB98F80300206498F80300D8B146
:2028100025480221002216F02FF90798002504F2D44B069098F80300A8423FDC0E2D0BDAA1
:20283000069E06FA05F082B2CC48002116F01CF96D1CEDB20E2DF4DB98F803000090059978
:20285000A06909780022CAA3091DC9B215F083FFA07848B9E078401CC0B20528E07040F03B
:20287000F5814FF40031BCE70020A0700746E770ECE1C046436F6E6E656374656420746F7E
:2028900020256400446973636F6E6E65637465642100C0466C1800201C1A0020D8F80410A7
:2028B000EF007818427819266E430BEB06035A70C95D0BF8061094F80290801C16F0C6FB56
:2028D0004FF0000A08B1DDF818A0A448BAF1000F00F10C00074403D009F10100C0B2A0701B
:2028F000D8F8041001EBC501891C0A685E44B01C02608988818012F0D1FF083601460F22B1
:2029100030460EF093FA0699002294483E60A94089B216F0A9F86F1CFDB27BE75265616488
:202930007920746F2041647665727469736500C0526561647920746F205363616E0098F857
:2029500003002D1DBBA3009030463AE7436F6E6E65637465642100C0AD1C30460022BDA360
:20297000E9B215F0F8FE4FF480213AE7B8F80A00608208F1030012F091FF034629460022A8
:20299000304615F0E8FE55462978A0690022B4A3491CC9B215F0DFFE2978A0690022B4A323
:2029B000091DC9B215F0D7FE08F10300CD4902680A6040684860079ACB49102008F062FD1A
:2029D00004F15F014FF441700CF0A6FC4FF0FF3084F83201032010F09BFB04F5A67017F014
:2029F000DDFA33E169782078162953D050462979A66900787E2900F104001CD07F2917D02B
:202A10001B2953D1E9686A8904F198000EF00EFA04F1980003C8002298A38DE803003046C4
:202A30000C2115F098FEE069802117F079FE3DE0298994A301E0297A96A30091C1B200226D
:202A5000304615F088FE31E043616E2774206164763A206E6F206C696E6B73004E65787435
:202A700020686F7020616464723A2025732C20727373693A20256400436F6E6E6563742058
:202A90004661696C656400C0526561736F6E3A20256400C015F07CFC0346042093490090C0
:202AB0006A88102008F0EEFC002859D04946102008F0E8FC00284AD0688815F0C9FDA082F7
:202AD0002A790B2A32D0012A02D1297A0A292DD0132A1CD0012A02D1297A122917D0E16B03
:202AF0000001085C002832D0284609F08DFB2EE043616E277420416476203A204D61782092
:202B1000636F6E6E732072656163686564005146A0690978012A07D0E27962A3521CD2B223
:202B3000E271521ED2B20CE062A309E05146A0690978012A03D0EA68127862A301E065A37B
:202B50002A7B0092491D0022C9B215F004FE297905F1080017F0D4FD78E0C04620170020F7
:202B7000079810F071FCA563002007906EE0C0464465766963657320466F756E642025649E
:202B900000C068780E383BD0801E5BD02E385DD1A878666C802859D10A2E57D0002E05F190
:202BB0000509A0460DDD08F2E227344648463946062216F0CDF8002848D0641E07F11907D0
:202BD000F4D14A461168192000FB068404F53874A01C016091888180104612F05FFE014681
:202BF0000F2204F108000EF021F9E87AE07595F90C00207628796070771CC8F8447025E01B
:202C1000A88842F20301814220D1A9680878E8B9491C02A80A684968026002AF41603878C0
:202C3000334902AA00F0FD003870102008F02AFC0CE0C046506172616D2055706461746513
:202C5000202564000820002107F028FF079809B0BDE8F08F4164766572746973696E670058
:202C7000436F6E6E656374656420746F203000C0496E697469616C697A65640054323A2048
:202C9000257500C04D54552053697A653A20256400C046C046432056696F6C617465643A55
:202CB0002025640057726974652073656E743A20256400C05772697465204572726F72207E
:202CD000256400C052656164207273703A20256400C046C052656164204572726F72202516
:202CF0006400C0464F100020A18A0100439B010095B400102DE9F04F0F4685B0804617F8C3
:202D1000010B8DF800004FF4B07008EB00044FF49C7008EB00059DF800104FF4C67008EB60
:202D30000006182908F1E70A08F1660908F20D1BDFF86C0700F2A183DFE811F01900720015
:202D5000660194009F039F03FD007903140127010101100138019F039F0384019F0368014E
:202D70005C018503E402E40236029F03810217F8010B88F886000222394608F1880017F0E9
:202D9000BBFC0146022208F18A0017F0B5FC0146022208F18C0017F0AFFC0146022208F1C0
:202DB0008E0017F0A9FC074698F88600400088F8860008F1860108F18600022240884000F5
:202DD000488008F1860080884000888008F18600008900010881394608F1840017F08CFC2F
:202DF00008F10601B9F81E004988401A80B247F6FF7188422BDA08F1860008F18601C088D4
:202E10008988401C4900484308F186010989884228BF3B2080F04082012089F81C001CE057
:202E30000522394608F1610017F066FC0146022208F1920017F060FC08F1860008F1060141
:202E500080894988401A80B247F6FF71884280F2228208F186010120887208F106010020B4
:202E700008834CE29AF81600C0070AD41A208AF80E009AF80D00012808BF0D213FD00D2178
:202E9000D7E1002089F8000089F80600082201208AF81100394608F1B00017F02DFC0146C5
:202EB000022208F1B80017F027FC08F1A80401460822204617F020FC07460821204617F081
:202ED00017FC08F19C0404223946204617F014FC0421204617F00CFC08F1A00017F004FCDA
:202EF00008F1980017F0FCFBDFF8B805018841F0800101809AF80D00012806D10421404699
:202F100005B0BDE8F04F14F0E9BA99F81000012804BF99F811000F280BD1404611F072FF27
:202F30000421404611F030FC0F2089F81A00FD217FE104217DE101208AF80F00ACE200207E
:202F500089F8000089F806008AF800000B2101208AF80D0000208AF801006AE101208AF86A
:202F7000100099E2002142187B5C547A23437B5452781A4008EB0103491C082983F8FD2018
:202F9000F1DB404611F0DCFA7CE2002142187B5C547A23437B5452781A4008EB0103491CC5
:202FB000082983F8FD20F1DB022053E299F8060008B93D2070E19BF800000128D1D017F8A3
:202FD000010B8BF8030002224FF489703946404417F092FB01464FF48A700222404417F025
:202FF0008BFB01208BF800009BF8020000281BD10C211EE19AF81600C00601D41220D9E094
:20301000404612F0EBFC3DE2387845E1387820707878607099F8100001280DD199F81100F2
:203030000F2802D0162803D036E20120687333E2307B40F001001EE205B0BDE8F04F0020A8
:2030500016F010BA9AF81600810706D41121084201D10F20AEE01A2254E03878797800EB7F
:2030700001202882F978B87800EB012068827979387900EB0120A882F979B87900EB012056
:20309000E882387A2876B97A787A00EB01206883397BF87A00EB0120A883B97B787B00EBDB
:2030B0000120E883397CF87B00EB01202884B97C787C00EB01206884397DF87C00EB01203D
:2030D000A884B97D787D00EB0120E8844FF4AA7040440490688B0390287E029008F10600DF
:2030F00040880190E88A0090AB8A6A8A298A40460FF0FAFB68B19AF81600400701D40F2003
:2031100058E01E22404605B0BDE8F04F0F2113F09DBF688A08F186018880A88AC880E88A13
:203130000881022088F886000020488008F1060108F10600C08DC01DA9F81E0008F186007F
:20315000898D808888420FD108F1860008F10601C088C98D884207D108F1860008F1060159
:203170000089098E88421DD099F81000012804BF99F811000F2807D099F8150020B10F2085
:2031900089F81A00FE2154E0FC21404611F0FCFAE88A0090AB8A6A8A298A98F8060017F01C
:2031B0009BFA79E1102144E09AF817000921084203D116208BF80C0061E17978387801F031
:2031D0000701084038700146707B0840F07212D0411E08420DD0400703D5B07B08B104207C
:2031F00003E0F17A0220014201D0F07201E04008F9D1F07A08B9B07AF072F07A042803D1C5
:20321000404612F0B2FCA083F07A17F061FA3071A28BB17B012313F089FC0146208B884217
:2032300005D3A28BB17B3079012313F07FFC70801721404605B0BDE8F04F11F0A5BA78786B
:203250003978814207D100F007000840387034D0421E10420FD01E221821404613F0F6FEA0
:2032700098F80610002300221E200DF063FB307B40F04000FFE0F072F978B87800EB0120B1
:20329000308108F1060130894988401A80B247F6FF71884206DB28208BF80B0001208BF885
:2032B0000A00F9E00120B071F07A042803D1404612F05BFCA083F07A0BE099F81100162838
:2032D00006D1B27A98F80610134600200DF032FBB07A3071A28BB17B3079012313F026FC7C
:2032F0000146208B884205D3A28BB17B3079012313F01CFC7080307B40F04000307301201A
:203310002870C9E03878797800EB01206082F978B87800EB0120E0827979387900EB01200F
:203330002082F979B87900EB0120A082A18AE089884288BF0846B17A042904D1B0F5296FAD
:20335000D8BF4FF42960E28BE0839042B07A14BF4FF001094FF00009042803D1404612F042
:2033700004FC04E0A089E18A884288BF0846A28BA08390422089628A238B14BF01210021EB
:20339000904288BF1046984241EA090114BF0122002242EA01052083A28BB17B307901238C
:2033B00013F0C4FB0146208B884205D3A28BB17B3079012313F0BAFB70806189208A628B58
:2033D000814288BF01466183914214BF0120002005438A42344998F80620096801EB4211CA
:2033F000628B8041121DC00F0A7610B1404614F009FB9DF80000142810D145B1E08B00909F
:20341000638BA28B218B98F8060017F05DF9404605B0BDE8F04F15210EF080BE1DB13078DB
:2034300040F008003070307840F020001BE038780E280ED00F2809D0122804D014280CD0B7
:20345000162812D028E00020287225E00120287322E003208AF815001EE0307840F0020025
:20347000307040F01000307016E0307B40F00200307340F0100030730EE08BF80C10404650
:2034900011F0A4FE40B905B0BDE8F04F074800784FF480410CF06AB805B0BDE8F08F00BF66
:2034B000902F0020524F0020083000206E4F00202DE9F04F0D4685B0814615F8010B8DF8E5
:2034D00000004FF49E7009EB00064FF4B0709DF8001009EB00044FF4C670891E09EB000776
:2034F000152909F20D1B09F1E70809F1060ADFF8680700F29C83DFE811F00F019A03160086
:20351000440048007A039A03C3009A037D00D600810088001701E901280204018403E80297
:20353000E8022F02A00209F1A00608222946304617F0E2F805460821304617F0D9F809F172
:20355000980404222946204617F0D6F80421204617F0CEF800214842484409EB010290F8E1
:203570009F0082F8BF00491C0829F4DB09F1C702314609F1D70017F0A3F8012088F80000B0
:2035900066E3012088F8130062E398F80D1098F81600012900F010000DD130B1002070719C
:2035B00030684108B07910F0CFFD9AF80000002117F082F811E050B14FF4A17009EB0003B4
:2035D000306842084946DFF8940616F055FC9AF800000122002117F06BF8012089F866005A
:2035F000484613F020F909F166010120887188F80F002DE3012088F8100029E3287888F81A
:203610000E00012088F8140022E398F8121001291DD198F8001001294DD098F8161009075B
:2036300004D40E208BF80C00072100E2002142186B5C567A33436B5452781A4009EB010378
:20365000491C082983F8FD20F1DB0921EFE198F81610090758BF0E2058D5002142186B5CEC
:20367000567A33436B5452781A4009EB0103491C082983F8FD20F1DB484610F061FFDDE272
:20369000002142186B5C567A33436B5452781A4009EB0103491C082983F8FD20F1DB02209B
:2036B00088F81500D4E298F81200012804BF98F80000012806D13D208BF80B0001208BF802
:2036D0000A00C5E29BF800000128FAD015F8010B8BF8030002224FF489702946484417F0A2
:2036F0000BF801464FF48A700222484417F004F801208BF800009BF802000028E1D10C2140
:2037100095E198F81600C00658BF122040F19182484612F063F991E228788BF80B00F0218C
:2037300000208BF80A000AE198F81600810707D41121084208BF0F2000F07B821A22F6E067
:2037500009F16601097C012902BF09F16601497C0F2911D009F16601497D0A0003D009F14B
:203770006602527C22B109F16602127F012A05D1400758BF0F2064D52322D8E021B109F1AD
:203790006601497C012904D009F18601897A012905D1400758BF0F2053D52A22C7E0287823
:2037B000697800EB0120B081E978A87800EB0120F0816979287900EB01203082E979A87919
:2037D00000EB01207082287A3075A97A687A00EB0120F082297BE87A00EB01203083A97B28
:2037F000687B00EB01207083297CE87B00EB0120B083A97C687C00EB0120F083297DE87CFE
:2038100000EB01203084A97D687D00EB012070844FF4AA7048440490F08A0390307D029004
:20383000BAF802000190708A0090338AF289B18948460FF059F838B198F81600400758BF6C
:203850000F2040F1F68171E0F08909F186018880308AC880708A0881022089F88600002060
:20387000488009F16601BAF82E00C01DC88309F18600BAF82C108088884201BF09F1860087
:20389000C088BAF82E10884206D109F18600BAF830100089884217D009F16600407D28B19D
:2038B00009F166010F208876FE21C0E0FC21484610F06AFF708A0090338AF289B1899AF809
:2038D000000016F009FFC3E10021B0E0A878E97800EB01262879697900EB0124A879E979CC
:2038F00000EB012705F10B000490A3B2687AA97A00EB012080B20390B2B2287A0290BAF89B
:2039100002000190B8B200906978287800EB012081B248460EF0E8FF58B198F816004007E1
:2039300058BF0F208DD5484611F06CFA1E220F2134E009F1860000218680C4800781484655
:2039500005B0BDE8F04F13F0C9BD2878207068786070012070727BE198F81700C00758BF71
:20397000162040F1668109F16600407C16281ABFBA79012A232210D0002818BF01280BD030
:203990000F281EBF09F16600007F01281EBF09F18600807A012807D12A221621484605B0DD
:2039B000BDE8F04F13F052BB6978287801F0070108402870797B08401CBF411E0842F8727F
:2039D0000DD0400703D5B87B08B1042003E0F97A0220014201D0F87201E04008F9D1F87A70
:2039F000B97A884204BF0020F872F87A08B938811CE0BAF82E00C01D3881F87A042803D19D
:203A1000484612F0B2F8A0830123F87A3871A28BB97B13F08BF80146208B884205D3A28B52
:203A3000B97B3879012313F081F878801821484605B0BDE8F04F10F0A7BE6978287801F0C2
:203A5000070108402870F97A08401CBF411E0842F8720DD0400703D5B87B08B1042003E0D6
:203A7000F97A0220014201D0F87201E04008F9D1F87AB97A884204BF0020F872F87A10B939
:203A90003881B87A0BE0BAF82E00C01D3881F87A042803D1484612F068F8A083F87A38712A
:203AB000A28BB97B3879012313F040F80146208B884205D3A28BB97B3879012313F036F88A
:203AD0007880387B40F02000AFE02878697800EB01206082E978A87800EB0120E08269790C
:203AF000287900EB01202082E979A87900EB0120A082A18AE089884288BF0846B97A042963
:203B100004D1B0F5296FD8BF4FF42960E28BE0839042B87A14BF01250025042803D14846A0
:203B300012F023F804E0A089E18A884288BF0846A28BA083904214BF012100212089628AB4
:203B5000238B2943904288BF1046984214BF0122002242EA01052083A28BB97B38790123CF
:203B700012F0E4FF0146208B884205D3A28BB97B3879012312F0DAFF78806189208A628B32
:203B9000814288BF01466183914214BF0120002005438A4232499AF80020096801EB421108
:203BB000628B8041121DC00F0A7610B1484613F029FF9DF80000142810D145B1E08B0090AC
:203BD000638BA28B218B9AF8000016F07DFD484605B0BDE8F04F15210EF0A0BA1DB13878C9
:203BF00040F008003870387840F0200015E028780F2809D0122804D0142808D016280ED0F2
:203C100026E00020307123E00120307220E0387840F00200387040F01000387018E0387BEA
:203C300040F00200387340F01000387310E09DF800008BF80C00484611F0C8FA40B905B099
:203C5000BDE8F04F074800784FF480410BF08EBC05B0BDE8F08F00BF902F0020C92E0100F1
:203C7000083000206E4F00202DE9F04FDFF800B5DFF800659BF800001E25082887B000F2B3
:203C90006E82DFE810F072020900090009000900F000860172027202DFF8DC44DFF8DC9428
:203CB0002068DFF8DC84006800F10807062207F1080102A815F096FD0622B91C684615F0B2
:203CD00091FD3978C1F380108DF8140001F00F02C809032A35D16179C1F38001884239D1CF
:203CF0002169062202A815F0E1F900283AD09DF81400694616F0D8FC002833D031466846C5
:203D100014F0BBFAFF282DD0D8F80010897A684335180A0018BF02290AD0012918BF0329C8
:203D300018D1325C691C484616F0BAFC102819D06A46E91D484610F065FC06226946E81D8B
:203D500006E201F00F01052940F00F826179C1F38001884240F0FE812169062202A815F092
:203D7000A5F9002800F0F681387847099DF81400694616F099FC40F2024A70B3314668464D
:203D900014F07BFA8346BBF1FF0F6BD005FB0BF031180491D8F80010897A0A0018BF012915
:203DB0000BD0022918BF03295CD1325C0498411C484616F075FC102854D0504616F06CFCD1
:203DD0000498C11D6A46484610F01CFC049806226946C01D15F006FD1DE09BF800000228F1
:203DF00040D19DF814106A46304610F0AEFA8346BBF1FF0F36D005FB0BF03044417F012939
:203E100006D000292ED10D3016F042FC002829D0504616F041FC05FB0BF0D8F80020315CA1
:203E300091763044411CD8F800000622143015F0D9FCD449D4488978490604D5F90758BF0B
:203E500041F20A4101D541F20441418041834186CE480180CE49CF4808600121CE4800785D
:203E70000BF084FB76E1CD4C2068006800F108070F21387808421CBF00F00F01062906D04E
:203E900002291CBF00F00F00012840F06E810622B91C02A815F0A6FC3878DFF80493C0F3A6
:203EB000801800F00F0001283FD1062207F10801684615F097FC3878C7096946384616F000
:203ED000F3FBE8B1D9F80000807C022818BF03285ED106F10D01684616F0D6FB002857D04A
:203EF000D9F800100120C8720622607940F0040060716946D9F800000C3015F073FC14E04C
:203F10003078874211D10622711C684615F0CEF858B13078617960F3820161710622D9F8E4
:203F30000000711C0C3015F05DFC02A9404616F0BBFB00282CD0606902A9001F13F022FB86
:203F5000002825D1314602A814F097F9FF281FD0D9F80010897C684335180A0018BF02297E
:203F70000BD0012918BF032912D1325C6069691C001F16F095FB10280AD0606902AAE91D28
:203F9000001F10F03FFB062202A9E81D15F02AFCEBE0844C2068006800F108070F2138784A
:203FB00008421CBF00F00F00012874D10622B91C02A815F017FC3878DFF8EC91C0F3801851
:203FD00000F00F00012846D1062207F10801684615F008FC3878C7096946384616F064FBA0
:203FF00020B3D9F80000C07A022818BF032852D106F10D0016F04CFB00284CD106F10D01E9
:20401000684616F041FB002830D0D9F80000062269460C3015F0E6FB607940F004006071D0
:2040300006226946F01D15F0DDFB14E03078874211D10622711C684615F038F858B130781F
:20405000617960F3820161710622D9F80000711C0C3015F0C7FB02A9404616F025FB0028C6
:204070004AD0314602A814F008F9FF2872D005FB00F7D9F80000817AF51959BB807C15F0A1
:20409000DFFC814699F82E01022811BF0328F15D00F0010081425DD14FF4947009EB000618
:2040B00006223146681C15F001F830B9062231463E4814F0FBFF00284CD0012089F82E01AE
:2040D0000622607940F00800607102A9304615F089FB0DE02069F25D691C001F16F0E0FAD3
:2040F000102837D0206902AAE91D001F10F08AFA062202A9E81D2BE0D9F80000817A49BBE0
:20411000807C15F09DFC074697F82E01022818BF03281FD102AA4146304610F016F9FF28EF
:2041300018D06843351805F10D0016F0B1FA10B9687F01280ED187F82E810622607900F004
:20415000F70040EAC800607102A94FF49470384415F048FB216809680020087105E0002047
:2041700015F080F9862016F08BFA07B0BDE8F08F6F4F002060240020F44B0020CC47002091
:20419000104F0020902F0020204A0020504F0020204F0020C14100006E4F0020D04B0020BF
:2041B0000C300020AC4B0020184F0020CCB601002DE9F84F012013F073FC01280ED1DFF8A3
:2041D000E454296800204871286812F061FA05F051FB040003D1812016F052FA5DE20120D4
:2041F0006071DFF8C464DFF8C4044178491C41702968A07981F8A00040200EF0D5FE2060FD
:20421000307901281CBF002015F02CF9F0682168DFF89C6400F5B060C86030680068007939
:2042300003281CBF002015F01DF93068DFF88494006800F1080A4FF4977004EB00089AF868
:204250000000C0F3801088F8000006224FF494700AF10201204415F0C5FA04220AF10E01C6
:2042700004F1240015F0BEFAD9F80000A37900EB431004220AF10E010C3015F0B3FAD9F83E
:204290000000A37900EB431003220AF11201103015F0A8FA04F12C079AF81500B87002227F
:2042B0000AF1160104F1300015F09CFA02220AF1180104F1320015F095FA02220AF11A01EF
:2042D00004F1340015F08EFA3889608402220AF11C0104F1360015F085FAB8787989400016
:2042F000B8700901B88879814000B88089B2F8884000F88080B2628C521C43005A438A421D
:2043100000D238B9DFF8B003007880210BF02EF93B21F5E004F12E01204614F033FE0520F0
:20433000A081204615F01CF805220AF11E0104F1610015F057FA9AF823004009387016F034
:204350009BF960822968DD4D498A401AA8F80C0004F161019AF82300DFF864A300F01F004A
:20437000F873204612F002FC31680968002008711C26A1792868714341F621024252002209
:20439000A179714301444A80A1797143084442609AF80200400609D5CA48008841F20A41A4
:2043B00088420CBFC848C948C4F89C012046D4F89C118847A2792968724311448873A17965
:2043D0002868714308440021C173C148007870B1B88860B978730120208160812046D4F82D
:2043F0009C118847A2792968724311448873A179286871430844807B787394F8960108B90C
:2044100015F030F8A1792868DFF8C8B27143084494F89611491E01740022A17928687143D5
:20443000084400214174A0792968704308444282A279D9F8000000EB421372430A445361FA
:20445000A27972431144A44A8A61DBF8141091F800C094F806E05FEACC714CBF10210021B9
:204470005FEA8C724CBF202200225FEA4C734CBF402300235FEA0C7C4CBF4FF0800C4FF0F7
:20449000000C1143194300EB4E104CEA010141F00F010172D9F80000A17900EB41100B21C8
:2044B0004172D9F80000A17900EB411004218172D9F80000A17900EB411088490978012957
:2044D0001CBFDBF828104978C172D9F80000A17900EB41101F210176D9F80000A17900EB3E
:2044F000411000214176A0790BF0EAFFA279D9F8001052018850A0794201895821B9072120
:20451000204614F0E8FCC8E07549096801EB001016F0AEF8724AA1791268D9F8000002EBB0
:20453000011200EB41114A60A17900EB41114968F963A17949014058786404215E480078F2
:204550000BF014F86249B888097800F1020E19B110B9F88800F1020E608A00FB0EF04FF49D
:20457000C871B0FBF1F0401CC4F818E0606140F6C41394F806C02968226806FB0CFC8C4442
:20459000CDF800C0D2F80CC003FB0ECCACEB0000A0F5A86C0098C0F808C0A07970430844A8
:2045B00080689060A07970430844017B01F0EF010173A179286871430844017B01F07F0193
:2045D0000173A179286871430844017B01F0F00141F002010173A179286871430844417B41
:2045F00001F0F00141F001014173A1792868714308442168806808616269D9F80000A179A8
:2046100097F802C0520000EB411103FB0C2202F5F6624A61A17900EB4110C17C01F0F0010F
:2046300041F00401C174FA88D9F80000A1795A43DBF830301B6800EB4111D21AA2F51672F7
:20465000CA61A17900EB4110C17E01F0F00141F00401C176A1792868714308442168486060
:204670009AF80100800615D5B8F83A001B2804BFB8F83C001B2809D1B8F83E00B0F5A47F78
:2046900004BFB4F86E01B0F5A47F03D01421204610F07AF8134907200870BDE8F14F00F0B4
:2046B0002DBD00BF104F0020B44D0020684E0020F44B0020083000206E4F002004300020E3
:2046D000902F0020504F0020B748010075560100784E002070B601005C4D0020734F0020A8
:2046F0008C4E00206F4F00202DE9F84F5FEA000A27D1002014F0B6FE23E050460FF0BFFDFE
:2047100062E2317C012940F07E80C078002877D098F80000400088F80000B8F80200400057
:20473000A8F80200B8F804004000A8F80400B8F808000001A8F8080001203077504610F070
:2047500061FB0AF16606707D002800F064824FF489700AEB00094FF4A2700AEB0004717C26
:204770004FF4C6700AEB000B00290AF186080AF1EC050AF10607DFF8A404C2D0012946D0B9
:20479000022931D0032957D0062900F0A480072900F01E82082900F0F180092900F00F8143
:2047B0000A2900F0B3800B2900F0CA800C2900F013810F2900F04981112900F06A8112292A
:2047D00000F03881142900F0CE81162900F06C81182900F09D81F02900F00082FC2926D093
:2047F000FE2900F0048284E7317C012985D1C078002800F08281504610F004FB1621F1E183
:20481000B888F18B10E050460DF0C8F9DCE1317C01290DD1C07800281CBF012088F80A0030
:204830008CD1B888B8F80C10884200F09581F1E150460EF020FDC7E1317C012941D1807823
:2048500050B10020B071A078012805D10020A070002150460FF098FFA87B01280AD100202B
:20487000286068600621012088F80E00504612F035FE66E7E87B012818D1504610F0C2FA23
:20489000002088F80E0001203070504611F0CBFF0120B07100206873697A387806291ABF60
:2048B00000221A21002215F003FF4AE799F8050001286FD0308B401E308380B200284CD0F1
:2048D000A8E150460CF040FE3074F08A30830020A873E8739FE1307C01280ED1A87A012889
:2048F0001FD1504610F08EFA002028722873E872A873A872E873687323E7504610F08EFD55
:204910003074F08A30830020A87284E1307C01280DD1E87A012802BF002088F80E000B213E
:20493000A4D0308B401E308380B2B0B172E1504610F0C1FE3074F08A30830020E8726AE156
:20495000317C012916D1807808B103218EE7308B401E308380B20028E8D1297A38780129E3
:2049700003D1222115F0A8FE29E10022222115F09FFE24E150460FF07BFA25E1307C01286A
:2049900014D1287C02280AF1FD0204D13978002015F06AFED2E6308B401E308380B2002869
:2049B0000CD13978222015F05FFE08E150460EF0E1FF3074F08A3083012028742AE1317C12
:2049D000012905D1807810B1B88B3883B6E694E050460FF0B5FDF7E0307C01280AF20D11F3
:2049F00021D1087801280DD14878012809D1B9F8020000900020CA78B9F80030397815F02F
:204A10002FFE9BE6308B401E308380B2002810D1B9F8020000902220CA78B9F80030397878
:204A300015F01EFECBE00120887050460EF05EFC3074EFE0317C012903D180780028E0D1A4
:204A50005BE0504610F0A2FFBEE0307C01281CD16078012809D1207F0F281CBF002014F0C4
:204A700001FD00206070002100E7A078012806D10020A0702322504612F0E8FA61E620784A
:204A900001283AD100202070EDE750460BF060FE9AE0317C012903D1C078002821D12CE0DC
:204AB00050460FF07EFD8FE0307C01282CD19BF80C00810648BF1821D6D4C10712D5207F37
:204AD00016281CBF002014F0CDFC9BF80C0000F0FE008BF80C0000233978607F00220BF0D4
:204AF00029FF2BE6810708D500F0FD008BF80C000023397800221A20F1E7308B401E3083B8
:204B100080B200285BD085E050460BF06FF85BE0317C012922D1C078C0B19BF80C009BF8C3
:204B30000B1059B9810610D500F0DF008BF80C0000209BF80A2039781346D0E700F0DF0001
:204B50008BF80C0001208BF80600F7E57988BBF80800491C88425DD1282143E018215046DC
:204B70000BF044F830E0307C01282AD19BF800004FF4B3710AEB0105810614D500F0DF00DA
:204B900001078BF800000BD500F0F7008BF80000288B0090AB8AEA8A698A387815F094FD0B
:204BB00000202870CAE5810704D500F0FD008BF80000F5E7308B401E308380B250BB222185
:204BD00010E050460DF0AAFA3074F08A308321E0504610F0FBFA0128E4D01BE0407AD0B12E
:204BF00099F80610504614F076F9012013E0B07E0F280CD1FC21504612F070FC6089009005
:204C10002389E288A188387815F066FD02E0002014F028FC0020BDE8F28F00BF5C4D002035
:204C30002DE9F0475FEA000882B00BD1002014F019FC07E0404610F0C9FA012864D140466B
:204C500010F0E0F808F16605687D00285CD04FF49E7008EB00044FF4B070697CDFF894A430
:204C700008EB00094FF4C670022908F1EC07404408F1060635D0042949D005295FD0062938
:204C900000F08E800729D5D0092900F0F4800B2900F0C6800C2900F026810D2900F0D580EA
:204CB0000E2900F0F6800F2900F05D81102900F07881112900F09681122900F041811429B4
:204CD00000F0D681162900F09781172900F0C381FC2919D0FD2900F0F481FE2900F0F6819B
:204CF000A4E7287C012809D19AF80300002814D01621404614F0EFF8012006E040460FF09D
:204D1000BEFA2874E88A28830020BDE8F687287C012810D19AF80200002800F01881FC21C0
:204D3000404612F0DBFB307808F1B80208F1B00115F092FC86E740460CF056FEE1E7287CBE
:204D5000012810D19AF8020028B1012088F89400002038607860B87A012869D106214046C5
:204D700012F0BCFB6EE708F1E7063078012809D1404612F0B5FA0128C6D10020B872012022
:204D90002874C1E770780028BED008F1C70208F1A00108F1D70015F093FC0120307051E768
:204DB000287C012838D19AF80200002840D0B08B3083404610F026F801202870404611F06F
:204DD00032FD0120A871397A787C012900F010000CD130B10020607120684108A0790FF0F1
:204DF000B3F93078002115F067FC0FE048B14FF4A17008EB0003206842084146BE4815F030
:204E10003BF830780122002115F052FC002038723873F872B87215E7404610F0FFFA70E735
:204E3000287C012805D1F87A012808BFFC2196D08DE040460FF01CF8012853D10020F872FD
:204E500088F8940001202874FCE6287C01280ED19AF80200002809D0002088F894000120F9
:204E70002870404611F0DFFC0120A871BDE0404611F09CFE45E7287C012806D19AF80200CC
:204E900000281CBFB08B3083A6E040460FF058FB37E7287C01281DD1387C022808F1FD0204
:204EB00004D13178002015F0DFFBC8E6032806D131781A2015F0D8FB00203874BFE6288BD6
:204ED000411E298389B200290CD13178222015F0CBFB42E040460EF04DFD2874E88A288317
:204EF0000120387410E7297C012908F20D1021D14FF4897108EB0102017801290BD141789B
:204F1000012907D1518800911388C2783178002015F0A6FB93E6298B491E298389B200292D
:204F3000E0D1518800911388C2783178222015F097FB12E00121817040460EF0D7F9E0E6D0
:204F5000287C01280BD19AF802000028E2D1288B401E288380B20028C4D12221C9E6404606
:204F700010F014FDCDE6287C012816D1607A012803D199F800000F281CE0207A012829D151
:204F900000202072288D00090090A88CEB8C317842081A2015F05CFB51E640460BF0D8FB42
:204FB000AFE6287C012819D1607A012812D199F8000010281CBF002014F054FA00206072A7
:204FD000288D00090090A88CEB8C3178420899F80100DFE7287F0028DED1B8E740460BF0DF
:204FF00008FC8EE6287C012802D19AF80300F2E740460FF0D6FA84E6297C012926D1017B1A
:205010004A062ED4CA070AD501F0FE0101730023317899F8010000220BF08CFC0FE68A0791
:2050300007D501F0FD0101730023317800221A20F2E7288B411E298389B2002955D131782F
:205050000023002222200BF075FC86E7162140460AF0CCFD55E6297C012907D1017B4906B3
:20507000BBD5017B01F0BF010173E8E51721EEE7297C012920D101788A0617D501F0DF018F
:205090000A0701700ED501F0F7010170B9F81E000090B9F81A30B9F81C20B9F81810307879
:2050B00015F012FB002089F80600C8E58A0794D501F0FD010170F5E7142140460DF02EF866
:2050D0001FE6A97E404612F009FABBE6A87E0F280CD1FC21404612F001FA608A0090238A67
:2050F000E289A189307815F0F7FA0DE6002014F0B9F909E65C4D0020C92E01002DE9FE4F91
:20511000DFF85084D8F80400009018B9BDE8F74F15F09ABA0078DFF84094DFF840A4DFF8A6
:20513000404401281CBF0228042846F2A81741F64C5B05D0402818BF802800F0F98001E2A4
:2051500014F04CFE0028FAD00098007807F092FE05466E6816B9002014F084F9DFF80404F8
:205170004078002800F0A58004F08CFA14F068FC0190006802900146476828460BF088FFD7
:2051900002286FD02978012904D0022927D0042945D0D7E1DFF8D0130968097A1AF801100A
:2051B000217018B915F04CFA5844B0603069C17E01F0EF01C1763069C17E41F08001C176D5
:2051D0003069C17E01F0F00141F00201C176B868DFF8981308183169C8610120A4E005214A
:2051F000217018B915F02CFA5844B0603069C17E01F0EF01C1763069C17E41F08001C176B5
:205210003069C17E01F0F00141F00201C176B868DFF85813081831690862022084E0062126
:20523000217018B915F00CFA5844B060D0480068807C12F06FF93069C17E01F0EF01C1766F
:205250003069C17E41F08001C1763069C17E01F0F00141F00201C176B868C4490818316971
:20527000086260E002980078802811D108202070C0480078012803D0BA484078022801DBE4
:20529000012002E0D9F8280000787969C8720AE00720B84920700978786901291CBFD9F894
:2052B00028104978C1720198AE4980798870029844E1002D18D000992878A9420ED1401EFC
:2052D000012833D9C01E05D1A9480068807C12F021F92BE0002014F0C5F827E0012804D074
:2052F000022815D0042817D02CE19F480068007A1AF80000207015F0A3F93918B06815F0F5
:205310009BF918B915F09CF95844B06001200BE005202070022007E006202070944800680E
:20533000807C12F0F7F8042088F80200284605E18C484078002800F0B68004F0A3F914F008
:205350007FFB00900068019045688648807814F077FB029014F048FD0721084278D098F82C
:20537000020007F087FD0646019977680BF090FE02286DD03178012904D0022924D00429F8
:2053900040D062E078490968097A1AF80110217018B915F055F95844B8603869C17E01F099
:2053B000EF01C1763869C17E41F08001C1763869C17E01F0F00141F00201C176A8686B49FC
:2053D00008183969C86192E00521217018B915F037F95844B8603869C17E01F0EF01C176F7
:2053F0003869C17E41F08001C1763869C17E01F0F00141F00201C176A8685C490818396930
:20541000086283E00621217018B915F019F95844B86057480068807C12F07CF83869C17E02
:2054300001F0EF01C1763869C17E41F08001C1763869C17E01F0F00141F00201C176A8683E
:205450004A4908183969086274E0002014F00AF802980099884224D001980078802811D177
:205470000820207043480078012803D03D484078022801DB012002E0D9F8280000786969DC
:20549000C8720AE007203B4920700978686901291CBFD9F828104978C1720098314980793E
:2054B000887001984AE014F09FFC072108424ED098F8020007F0DEFC064630787568012895
:2054D00004D0022815D0042822D040E026480068007A1AF80000207015F0B2F83918A86899
:2054F00015F0AAF818B915F0ABF85844A860012021E00520207015F0A3F83918A86815F0FB
:205510009BF818B915F09CF85844A860022012E00620207015F094F83918A86815F08CF895
:2055300018B915F08DF85844A86011480068807C11F0F0FF042088F802003046BDE8FE4FA1
:2055500009F0B0BDBDE8FE4F002013F08BBFBDE8F78F00BFD42F002070B60100289A01106F
:205570006F4F0020684E0020104F0020F0D8FFFF184F0020734F00202DE9F04F0C46E0072B
:2055900089B00DD514F066FA38B100218160DFF800040068010018BF804784F00100F4E165
:2055B0001E252007DFF8EC6340F18A80DFF8E8030068807C14F044FA07464FF4947097F885
:2055D0002E8107EB0009002007908246DFF8C8030068807CFF2804BF002013F043FF4A46AD
:2055F000414630460EF0B1FE834605FB0BF0009035184946404615F057F8B0B1BBF1FF0FCC
:205610002CD00098305C40F00208E81D079005F1010908F0010087F82E0106224FF494706E
:205630004946384414F0DEF818E04946404614F099F9002818BFBBF1FF0F0FD005F10D0037
:2056500015F026F840B905F10D0015F021F8002804BF687F012801D148F00208CE48006870
:20567000C07A022818BF032806D106F10D0015F00FF808B906F1070A0020BD1D06904346EB
:20569000288E000905900022E88D0490A88DCDF804A040080390CDF800900798029000205C
:2056B000297814F0C5FFD7F89C01BC49884228780CBF002101210CF0EDFC84F0080064E1E2
:2056D000E00610D500200690059004900390029001900090002300220021022014F0A8FF97
:2056F00084F0100051E1A00710D500200690059004900390029001900090002301220021CC
:205710003C2014F095FF84F002003EE16007A44F40F1A180A34880784FF00008CDF81C80B9
:20573000FF2804BF002013F09DFE386890F8A00014F086F981464FF4947009EB000B3868B9
:20575000C07A99F82EA1022818BF032806D106F10D0014F09DFF08B9F01D0790594650465E
:2057700014F0A2FF90B33868807A010018BF012804D13146584612F080FD04E05A46514612
:2057900030460EF0E2FDFF283ED005FB00F806EB080506225946E81D14F024F816F8080079
:2057B00040F0020A3868807E00F0010089F82E010622386800F114014FF49470484414F0B9
:2057D00011F805F1010B05F107081DE05946504614F0C8F8C0B15A46514630460EF0B5FDE5
:2057F000FF2811D06843351805F10D0014F050FF40B905F10D0014F04BFF002804BF687F27
:20581000012801D14AF0020A09F12C0009F106050178069153464189090905910122A98B9A
:205830000491C088CDF8088040080390CDF800B0079801900020297814F0FAFED9F89C0183
:205850005649884228780CBF002101210CF022FC84F0040099E0200610D5002006900590C0
:20587000049003900290019000900023012200213B2014F0DDFE84F0800086E0E0043BD54F
:20589000F11D06F10D0014F0CFFE38684179012923D1017A012918BF04291ED1C17A02299F
:2058B00018BF032919D1817E00F1140230460EF04CFDFF2811D06843351805F10D0014F021
:2058D000E7FE50B9E91D05F10D0014F0ADFE38680622E91D143013F085FF334842683348D9
:2058F00000784FF4805110F039FF10B18E2014F097FE84F4805048E0A00505D514F04AFA95
:205910002B4901200860FEE7600504D509F0CBFD84F4806039E0600405D5812014F080FEC4
:2059300084F4804031E0A0042ED5224D286810B1002013F097FD4FF0FF3028600FF0CAF839
:205950001D4D296820316846096888471B4841682D681B4A00916B46816801910021029186
:20597000016909680391017B00688DF81010ADF812002D6813491448A8471449086004F073
:20599000EBFD84F4005000E0002009B0BDE8F08F204F002060240020184F0020B7480100B0
:2059B000104F0020684E0020784E00206E4F0020FC002043044F0020F04E0020081A00204D
:2059D000342F0020581C0020082C0020EC4E00202DE9F043DFF8AC43DFF8AC3394F8008021
:2059F000DFF8A8E3DFF8A893DFF8A863DFF8A813B8F10D0F83B0404641F2064741F202423A
:205A10004FF4A05553D8DFE818F0BB010E000E000E000E006D00A500E9001D015F015F0177
:205A3000900190019701DFF87413DFF87473C3F800E041F2044E4C8874451CBFB1F81A80B5
:205A5000F0450BD0B1F83290F1451CBF41F20A4E744503D0F04518BFF14502D1A6F800E000
:205A70002AE0022CDFF83C73348036D94FF4806CB4EB0C041CD0241F012C1FD94FF47F7C25
:205A9000B4EB0C041CD04FF4406CB4EB0C040FD0A41E012C0CD9241F0AD0641E012C0DD958
:205AB00040F2F930241A012C17D9241F08D05FE1022814BF3580BC4F1F60FDE0BB4FFBE7C0
:205AD000BB480068007A012803D14A804A834A86F2E74D804D834D86EEE7002013F0C2FC6E
:205AF000832049E1B348418831800229C3F800E014D940F20442891A2AD0491E0ED040F215
:205B1000FB32891A1DD00A3901291AD940F6F632891A03D0491E1BD0491E012940F2C68029
:205B3000091F15D0491EF9D0491E11D04FF47E72891AF3D0491E0BD0C91E09D0491E0129A4
:205B500047D8817B478025290CBF2721491E817399483CE09948418831800229C3F800E079
:205B700068D940F20442891A30D0491E62D040F2FB32891A23D00A39012920D940F6F63267
:205B9000891A57D0491E21D0491E012952D9891E13D0891E1AD0491E4CD0491E16D0891E85
:205BB0000BD040F2F632891A44D0491E0ED0C91E0CD0491E012902D90BE0814807E0817BDE
:205BD000478025290CBF2721491E81737D48186072E0002013F046FC84206BE099F80200BC
:205BF000FF2855D07849C3F800E01C2209685043084440F204444188744A3180091B01295F
:205C100046D94FF47F74091B15D00A39012916D940F6F634091B032984BF491F01290FD94D
:205C3000891E012934D940F2FD34091B08D0491E012904D93AE041F20141418000E04580B4
:205C50001A6039E099F80200FF2821D05E49C3F800E01C240968604308445D4C41883180F1
:205C700040F20446891B012912D94FF47F76891B17D00A39012916D940F6F636891B13D0D7
:205C9000891E012984BFC91E01290DD9891E012976D940F2FD36891B06D0491E012902D97E
:205CB00004E0428000E045801C6005E0002013F0D9FB852014F0E4FC03B0BDE8F043454890
:205CD0000078012109F052BC4A88328040F20443D21A55D040F6FC73D21A15D0083A4FD02E
:205CF0004FF47F73D21A22D13B4C3C4A24683C4800680023CDE9002308343A4B246802228E
:205D1000A047394908803BE0092810D137480068408960B1364800780EF00AFF0021002056
:205D300014F07AFC002020702AE048883080002013F098FB85201FE04A883280022A0DD9AF
:205D500040F20440121A1BD040F6FC70121A05D0083A15D04FF47F70121AE8D1887B801C26
:205D7000C0B2B528A8BF662088730020488007E0002013F077FB8420BDE8FE4314F080BCAE
:205D9000BDE8F7836F4F0020204F0020719F0100684E0020504F0020742F0020204A002074
:205DB000C141000049D6000049FB0000755B0110104F00209C4C0020011F01006C4C00200D
:205DD00029620000F12A01000430002081880000D9BA00006E4F0020F04E0020020000805F
:205DF000EC4E0020FD6B0100424F002010300020714F00202DE9F84FDFF8F443A078FF2835
:205E100004BF002013F02EFBA07813F019FE04464FF4C97004F1680625183068006804F1D6
:205E3000900708B100200EE0B07B002804BFB07E002809D13878002801BF28780028207FAF
:205E5000012801D1608CE0832089E18B0818401C6081204612F0ECFE01281EBFE548007879
:205E7000012804D10020E0832089401C6081B07E01280CD1B28B6189208914F0C9FB30B1FE
:205E900021896289481C82422AD0B28B1FE0387801280CD17A886189208914F0B9FB30B11B
:205EB00021896289481C82421AD07A880FE02878012815D16A886189208914F0A9FB002836
:205ED0001FBF2189481C6289824209D06A88824206D0501E608180B214F096FB401EE083DB
:205EF0002878012801BF68882189491C884207D16A792A71002028701346A1790AF01AFDAE
:205F10004FF49A702044007920B10020E0832089401C608104F12E07B07E012801BFB08B91
:205F30002189491C884237D1608104F18601204613F028F8B08CE189608400202077E083E6
:205F500060890818A0812189B08B14F05DFBB988328C01FB0028708CF28C884204BF3B89D8
:205F70009A4202BFB18CFB88994207D0110900914208B38CA179002014F06AFBB07F387054
:205F9000708CB880B08CF880F08C3881204613F0E7F90220B07601E0B7F80480E08BDFF8ED
:205FB0005892411C01FB08F140F6C41808FB01F200922268DDF800C0D3686344DFF83CC225
:205FD000D360DCF800C08E4A9CF800C013884FEA9C1CBCF1030F12D199F80FC05FEACC7C9F
:205FF00048BF00230BD45B1C9BB2012B07D14FF49A7CA444BCF806C00CF2DC5C01E0B4F842
:2060100012C00CFB01FC4FF4C87EBCFBFEFCDFF8F4A10CF1010CC4F814C04FF01C0B138061
:2060300084F82000A161A279DAF800102068C3680BFB02F20A4492680261A279D4F814C0A2
:206050000BFB02F20A44A3EB0C039360A2790BFB02F20A4492688260A0790BFB00F00844BE
:20607000017B01F0F00141F002010173A179DAF800000BFB01F1084400214180287908B996
:2060900013F0F0F9A179DAF800000BFB01F10844297949080174A179DAF800000BFB01F188
:2060B0000844002141742879042812D1A179DAF800002A7A0BFB01F10844017C41EA8201FF
:2060D0000174A179DAF800000BFB01F10844202141740022A079DAF800100BFB00F00844B6
:2060F00042824948A2790068D4F814C000EB4212536903EB4C035361B27E022A07D1A279DD
:206110003E7800EB4212536908FB0633536199F80F20D20740D5A2790BFB02F20A449368C2
:20613000A3F5A8639360A2790BFB02F21144226889689160009BC91A1161A17900EB41119C
:206150004A6902F5F6624A612979042906D1A17900EB41114A6902F5B0624A61A17900EB19
:2061700041114969C4F8341128490D6BBB88A2792D6808FB03F300EB42125B1BA3F516735F
:20619000D361A27900EB4210214A1278012A0EBF0121896A497818E0A279297900EB4212AC
:2061B000042952690CBF4FF44B614FF4E661511ABA8808FB02F2A2F516729142D4D308213D
:2061D000204612F088FE01200FE0C172A179DAF800000BFB01F108442168486007200D49A0
:2061F0000870204610F021FE0020BDE8F28F00BF684E0020784F00205C4D0020084F002090
:2062100028300020043000200830002070B60100734F00206F4F00202DE9F84FDA4DDFF808
:206230006C832868DA4F807CDFF8689313F008FC296804460020487104F12E0A286810F060
:2062500027FA012060711C2598F80100401C88F8010080200CF0A8FE20607969C160CE4891
:2062700001894900AAF802105146C07940008AF80000BAF804004000AAF80400BAF808009F
:206290000001AAF80800204612F07CFE0520A081204613F065F8386814F0B2F9062210F8D6
:2062B000081FC1F3801184F82E11811C4FF49470204413F097FA3968B84F09680020087119
:2062D00041F62202A1793868694342520022A179694301444A80A17969430844426099F81D
:2062F0000200400609D5AE48008841F20A4188420CBFAC48AC48C4F89C012046D4F89C11B7
:206310008847A27939686A4311448873A1793868694308440021C173A1793868694308442C
:20633000807B8AF80B0094F8960108B913F09AF8A17938689D4E6943084494F89611491E15
:2063500001740022A17938686943084400214174A1793868694301444A82A179326802EBF6
:206370004112694301444A61A1796943084490498161A0790AF0A4F8A279316852018850C3
:20639000A07940010A5822B90721204612F0A3FDF5E008441F2202763068A179DFF814B2FD
:2063B00000EB411000214176DBF80000A17900EB011014F05DF9A179DBF800203068DFF8FA
:2063D000F8B102EB011200EB41114A6004F16801A27900EB421252680A60A27952018258F9
:2063F0008A60DBF8141091F800C094F806E05FEACC714CBF102100215FEA8C724CBF20227A
:2064100000225FEA4C734CBF402300235FEA0C7C4CBF4FF0800C4FF0000C1143194300EB24
:206430004E104CEA010141F00F0101723068A17900EB41100B2141723068A17900EB411047
:20645000042181723068A17900EB41105B49097801291CBFDBF828100978C1723068A1798B
:20647000626A00EB4111CA60A17900EB4110A16A01743068A17900EB4110A16A090A417442
:206490003068A17900EB4110A16A090C817408214B48007809F06AF82168A2793868CB68E3
:2064B0006A4302449360CA680A61CA688A60A17969430844017B01F0EF010173A179386890
:2064D00069430844017B01F07F010173A179386869430844017B01F0F00141F0020101739B
:2064F000A179386869430844417B01F0F00141F0010140F6C4134173BAF804203068A179C0
:206510005A43DBF830301B6800EB4111D21AA2F516724A61A17900EB4110C17C01F0F001B0
:2065300041F00401C174A1793868694308442168486099F8010080061BD54FF49770204447
:20655000408F1B2801BF4FF497702018808F1B280BD14FF497702044C08FB0F5A47F04BF21
:20657000B4F86E01B0F5A47F03D0142120460EF00BF9144908200870A07988F80200BDE87B
:20659000F14FFEF7BBBD00BF184F0020684E0020AC4B0020902F0020844C002004300020E8
:2065B000504F0020B748010075560100083000205C4D00208C4E002070B60100734F00201C
:2065D0006E4F00206F4F00202DE9F04F0F46BD4C0168616241688068ADF1140DA060BA48BF
:2065F00061608047B948616A01606168DFF8FC924160A168DFF8F0828160B549002FA246BF
:20661000C16068D03D68E8788DF8080028798DF8090002A813F0F0FFA86808B1AD49016094
:20663000E86808B1AC490160AC4C2878207068786070A878BE68A0703178E1707368636025
:2066500072696261B168A160F168E160316921612E697B68A6621868A0616869E062A86995
:206670002063287F84F834002A6AA263786886681EB9002012F0F6FE00E026627868C0686C
:2066900018B9002012F0EEFE00E060627868406818B9002012F0E6FE00E0E0612869A06256
:2066B000F86881680E6806B98E4E8D494FF0010B4E60C66881F801B026B9002012F0D2FE78
:2066D000F86801E041460E6000684D46FE68A8617068E86105E0002012F0C4FE4FF0010BD5
:2066F0004D46D8F80000824944686A1C05F114035020A04718B1D8F8000080688047DAF8AC
:206710000400804703907B487C4C286100272771B946E770784EA770300BC6B2401CC1B283
:2067300026703846617028E0304639466A46042311F036FB009BA078B3F5801F0ED043B98A
:20675000B9F1000F03D048460FF046FEA078B14610E030460FF040FEA0780BE0002804BF2C
:20677000301CA67006D00FF037FE30460FF034FEA77038466178761CF6B2B142D4DA98B95C
:20679000B9F1000F08D1207812F0F4FA0420E08020793946A0B912E084F8029011F080FC5D
