:2000000000400020E960010001C9011001C9011001C9011001C9011001C9011001C9011014
:1C00200001C9011001C9011001C9011001C9011001C9011001C901103FC9011089
:20003C0080B54FF4FC720FF278011A4810F0BAFD194800210170012141740221C17601BD49
:20005C002DE9F0410FF25021144838220B684C688D68CE680F69D1F814C0D1F818E0D1F824
:20007C001C80036044608560C6600761C0F814C0C0F818E0C0F81C8020312030521EE5D1F7
:20009C004A688B68CC680968016042608360C460BDE8F081480400215903002100C000210F
:2000BC00410500217D0500212D06002170B51D46004C204787B2000010B5014800470000FD
:2000DC00D509000070B5614C6148254650358047022809D14034E1885E4A914204D1E97C5E
:2000FC00890601D4911DE18070BD70B557495A4A084650300378002B10D08379012B0DD181
:20011C00037C5B09DB0709D0097D544DC1746C7F20202043687790476C7770BDFF21C17420
:20013C00904770BD10B54E48484C804702280ED121464031CA88474B9A4208D1CA7C5209CE
:20015C00D20704D0227D920601D49A1DCA8010BD70B53E4843494030C07C4009C00707D032
:20017C003E4D41482C8B2043288388472C8370BD884770BD10B53B48344CAC388047214609
:20019C0053310A789309DB0705D04034A2730A7803231A430A7010BD2C4940310871182876
:2001BC0012D004DC0A280BD00B2804D10AE025280CD02A280CD02D4980004018C0687047DE
:2001DC002B4870472B4870472B4870472B4870472B48704770B504461C484E252D5CAE09AB
:2001FC00F60716D0067D3007000F052803D00120054202D00DE00220FAE7E80905D07006D1
:20021C0003D54868800F012803D05B085B0052085200062B03D01020022B11D011E0FB20F7
:20023C00024002232046FFF741FF002807DAC100611A2039497E1422114200D1002070BD93
:20025C00024303432046FFF731FF70BD4401002137CB000004140000EBC80000A800002142
:20027C00F5B4000053AD00002020000080DF00001D050021F9040021CD040021930400210F
:20029C006D04002110B5034CFFF716FF20680028FAD110BD0011044068610000F825F965B0
:2002BC00F9754500450045002600260057A3520052004C00401F401F401F3F000000000053
:2002DC00304000400140034007400F404F40CF40CF41CF43CF47CF4FCF3FCF2FCF1FCF0F6C
:2002FC00000000000000000000000F00080000003F00000040003F000000040068000E0093
:20031C00DC00060043001A00050000000000020000000000000000000400C00000000400B3
:20033C00C000000007000000000000000000000000000000000000003040004001400340A6
:20035C0007400F404F40CF40CF7FCF6FCF5FCF4FCF3FCF2FCF1FCF0F00000000000000009D
:20037C0050C00091007070C00091007082312100319110B10070018101B100A1823132910D
:20039C0010B101911110418141227740F106007051C0019130181039833108D01831416FD1
:2003BC003100319110B18314141683680070251050C00091F4C340C12014036F3110410497
:2003DC005082F0229840512622C082312100319110B163393110410482C08231210031919B
:2003FC0010B163393110A2C082312100319110B150101531051405920070676452C03110A6
:20041C0031066131C1026A6412C13110213971065131E1026A64007051C0019101CCE2C0CC
:20043C006A64676411C1C2C06A6450B054B0007140804022D6440022C94060B08180111EC9
:20045C00C944007054A064B0F0800022C9404012B09032B070C1DF6811C122C16A6470C1C0
:20047C00E46851C00191E2C0823160820200329110B130C2EE68538253395339B16460C347
:20049C00F4688012B09032B00070676401C122C16A6401C1C2C06A645382B164C012B09074
:2004BC0032B00070676472C281C06A6422C111C16A6402C011C16A6462C031C36A6462C3D2
:2004DC0011C16A6402C311C16A6453825339B164E2C36F6411221C4142C281C86A6452C24E
:2004FC0011C16A6472C2E1CE6A6402C281C86A6402C201C86A64B0C030690070676442C211
:20051C0001C86A6452C211C06A6472C2E1C06A6402C001C16A6462C001C36A6422C101C127
:20053C006A6462C301C16A6402C301C16A645382B16400708180111E5C4150B054B000712B
:20055C00408040225D4154A064B0F1800122514500700022514160B04E61000000000000AA
:20057C000000000000000000067305720B720E7250B00071818060B050A09280F0EFF1928C
:20059C0002936A6741228C458080F1C11004301601110114016CB561B661B761B861B9618D
:2005BC00BA61BB61BD61BF61C161C36126632D63F0C002043231412A121432160111211412
:2005DC00016CDA61C561E061C761CB61B561B561B561F461C561FA61C761CB61B561B56104
:2005FC00B561F461C561FA61C761CB61B561B561B561E761C561ED61C761CB61B561B56121
:20061C00B561CF61CF61CF61CF61CF61CF61C064CF61F964CF610665CF613265CF6174676A
:20063C00CF611166CF61C0644E65F964CF61066511663265CF618280E0DFF2926A67B0B044
:20065C00D661B1B00673057230B06C61D0CF6A6784C203C0C0C37C64207851788278E378B7
:20067C001579B6780062C0CF6A6784C203C0C0C37C64307861789278F3781579C678006250
:20069C00B0CF6A6784C203C0C0C37C6440787178A27803791579D678109221923292439281
:2006BC005492659256911FC0FF914039F00601101031101400927067CF61E3B054A0F08076
:2006DC0050221A4640800022BE461262E3A000C86091598150B0918041228E46A0CF6A6734
:2006FC0012828231823942398B641282F2062F101F312F141682D622334640C1346200C5AF
:20071C0020140D6F6D39DE10F4C34E0482C082312E006D39A2C082312D001A828A39FA0606
:20073C002082803180390BC00B18BC10AC18038239149B141082F0060110103110145181C2
:20075C0010140C14C622C94631D0C1266462021011C0013010C00118021882312100C126C2
:20077C00919103B013B063B053B041800122BE46B481C491D581B51C774E95186591F0803E
:20079C00102269428C623D9110B13E9110B1E08000228146E6228142E0B0951865910F926B
:2007BC005981F914F0805022114210228C464D6390CF6A6763B052A03082F2C0200402107E
:2007DC0011C0013010C00118021882312100C1269191919113B003B063B053B064B054B055
:2007FC00007141800122BE4663B064B0F08050221142B181C191D1819118619131B0A462D0
:20081C002967E0A059810582591480C0007163B0BA6A6962E3A0018262818231823D80EF61
:20083C00F19202936A6703A0007037824739873930828039F006021011C0013010C0011849
:20085C00021882312100C126819102B012B030824039F006021011C0013010C001180218E9
:20087C0082312100C126919103B013B063B053B0007153A062B052B041800122BE46A4816E
:20089C00C491D581B51CFE4E95186591F0801022F0428C62B481C491D4814518751C084FEB
:2008BC00F0801022F0428C623D9110B13E9110B1E08000221247E6221243E0B065910F92DC
:2008DC005981F914F0805022114210228C4630632967E0A0598105825914F0C0007162B038
:2008FC00226BF062A2808B64CF6112824239F2068B6050B00071CF6170CF6A674082418096
:20091C000122BE46A481C491D58195186591F18011228C46336B41800122BE46A481C491AB
:20093C00D581C51C1C4B95186591F08010223F438C6260CF6A67408241800122BE46B48169
:20095C00C491D58195186591F18011228C46506B41800122BE46B481C491D581C51CB44A55
:20097C0095186591F08010225C438C62E092D08200226B47C0B20070A080F022874330B033
:20099C0002C1623101C0A080001E8043F022814380F86031603981632010101A136F236E5A
:2009BC0011161216826B00702DE9F84FDFF81885DFF8181588F80000002008600921DFF891
:2009DC00100501700D2141804FF408718180DFF80405DFF8041501608A7EDFF80005027042
:2009FC00FF2ACB7E437008BFFF2B0D7F85704E7FC6708F7F0771C97F417115D1FF2D08BFE8
:200A1C00FF2E11D1FF2F08BFFF290DD1DFF8D0140A7802704A7842708A788270CA78C27025
:200A3C000A79027149794171DFF8B81402780A70FF2542784A7082788A70C278CA7002791E
:200A5C000A7140794871DFF8A014DFF8A004057045708570C5700571457100200880DFF888
:200A7C009014DFF89004466B70780870DFF8881430780870DFF88414B0780870DFF880142D
:200A9C0070690079401E0870DFF87814F0780870DFF87414B069086008B918F057FAF0697C
:200ABC00DFF86844206008B918F050FA2068DFF86074006880472168091D38460968884735
:200ADC00DFF85004DFF850143862DFF850047862306A086008B918F039FA706ADFF84014F2
:200AFC00086008B918F032FADFF838B4DFF838649BF8040018F0F2FD306008B900F046B979
:200B1C009BF80500DFF8247418F0E8FD386008B9306838E19BF80600DFF8144418F0DEFD10
:200B3C00206020B9306818F0E1FD38682BE19BF80700DFF8009418F0D1FDC9F8000038B989
:200B5C00306818F0D3FD386818F0D0FD20681AE1DFF8A41309789BF80000DFF8DCA3C91C34
:200B7C00484380B218F0BAFDCAF8080058B9306818F0BCFD386818F0B9FD206818F0B6FD08
:200B9C00D9F80000FFE0DC480078010000F00381BBF80210DFF8A4B3484380B218F09EFD25
:200BBC00CBF8040078B9306818F0A0FD386818F09DFD206818F09AFDD9F8000018F096FD0F
:200BDC00DAF80800DFE0CC48007818F087FDDC49086098B9306818F089FD386818F086FD19
:200BFC00206818F083FDD9F8000018F07FFDDAF8080018F07BFDDBF80400C4E0BE48007821
:200C1C001C21484318F06AFDCE490860B0B9306818F06CFD386818F069FD206818F066FD8F
:200C3C00D9F8000018F062FDDAF8080018F05EFDDBF8040018F05AFDC148A3E0AE480078F3
:200C5C00400118F04BFDC0490860D0B9306818F04DFD386818F04AFD206818F047FDD9F86F
:200C7C00000018F043FDDAF8080018F03FFDDBF8040018F03BFDB248006818F037FDB14844
:200C9C0080E09D480078000118F028FDAF490860F0B9306818F02AFD386818F027FD206829
:200CBC0018F024FDD9F8000018F020FDDAF8080018F01CFDDBF8040018F018FDA0480068BA
:200CDC0018F014FD9F48006818F010FD9E4859E089480078000118F001FD9D49086010BBF3
:200CFC00306818F003FD386818F000FD206818F0FDFCD9F8000018F0F9FCDAF8080018F05A
:200D1C00F5FCDBF8040018F0F1FC8D48006818F0EDFC8C48006818F0E9FC8B48006818F060
:200D3C00E5FC8A482EE0744800783021484318F0D5FC8849086070BB306818F0D7FC386876
:200D5C0018F0D4FC206818F0D1FCD9F8000018F0CDFCDAF8080018F0C9FCDBF8040018F01A
:200D7C00C5FC7748006818F0C1FC7648006818F0BDFC7548006818F0B9FC7448006818F0B5
:200D9C00B5FC7348006818F0B1FC002018F0DEF84FF4804192E0316801200871002230684D
:200DBC00057330684573306885733068C573306805743068457400203168C8723168487148
:200DDC00A0213068C180032101720720316848720020316888722821306841820121C1769C
:200DFC00002031684877316881F85E00012031680877316881F85D00396808713868057315
:200E1C0038684573386885733868C573386805743868457400203968C87239684871396886
:200E3C0088724FF420703968C88008818A7401213A68D17421680D7321684D7321688D7375
:200E5C002168CD7321680D7421684D7400212268D172012122681171002122685171216847
:200E7C00C8800881002088722168887405202168C8743948006880470546294800680068C0
:200E9C00804727490968091D00200968884719481C49C06809780088084330490880284657
:200EBC002F49096888470C212E4800F05DF80F4800F05EF800F060F84FF4005198F800006D
:200EDC00BDE8F44F0EF00EBA6E4F0020044F0020604E0020084F0020B63F00502C4E0020D4
:200EFC00E81200503C4E00200C4F0020344E00206D4F002048B101007B4F00206B4F00202B
:200F1C00724F00206C4F0020F04E0020F44E00207C4B0020F9960100F84E002009970100BB
:200F3C00FC4E0020C01C0020104F0020A82F0020184F0020AC2F0020742F0020684E00209E
:200F5C00004F0020A42B0020A42F0020884E00208C4E0020904E002030160020544F00200D
:200F7C0034160020F84D0020DFF800F0E5710110DFF800F01D6E0110DFF800F04D7101105F
:200F9C00B0B5174C241D20680004070C23D01248006800688047114991F90720824205DDF8
:200FBC0010F1800FB8BF6FF07F00C8718D88BD4210D80A68D4F8D40F801A801C1F2888BF16
:200FDC001F207F1B4008C7404FF6FF70EF19B84238BF071C8F80B0BDEC0100109C2F002099
:040FFC003010094068
:20100000B41200001810000015AB0110FDB301106DC00110FDAE011099B5011000000000F7
:08102000000000002F00000099
:20102800B01200003C100000B1C00110A9BF011067C0011069B80110000000000000000035
:041048002D00000077
:20104C00B012000060100000BDC00110CDB30110D9BD01106DB3011000000000000000005B
:04106C002E00000052
:2010700000000000E81C002004000000000000000000000020000000E8C901103000000026
:2010900028100000F01C00200400000000000000000000000C000000D8CA01101800000001
:2010B0004C100000F81C002004000000000000000000000024000000F0CA01101800000085
:2010D00000000000001D00200400000000000000000000001000000018CA01102C00000090
:2010F00000100000081D0020040000000000000000000000200000006CCA011024000000FC
:20111000FFFFFFFF101D00200400000000000000000000002800000090CA011024000000BB
:20113000FFFFFFFF181D00200400000000000000000000001400000008CB0110180000003A
:20115000FFFFFFFF201D002004000000000000000000000058000000B4C901103400000008
:20117000FFFFFFFF281D00200400000000000000000000001000000020CB011018000000D6
:20119000FFFFFFFF301D00200400000000000000000000001C000000B4CA01102400000003
:2011B000FFFFFFFF381D00200400000000000000000000003800000044CA0110280000002B
:2011D000FFFFFFFF401D00200400000000000000000000005400000078C901103C000000A0
:0811F000010000000CB1010038
:0411F80001000000F2
:0411FC0000000E00E1
:0412000000000F00DB
:0412040032000000B4
:0412080001000000E1
:04120C00501B002053
:0412100000020000D8
:0412140000000000D6
:0412180001C90110F7
:04121C0000000000CE
:0412200000000000CA
:0412240008000000BE
:04122800000023009F
:04122C00F81900208D
:0412300001000000B9
:04123400681B002013
:0412380008000000AA
:04123C00101B002063
:0412400000000000AA
:0412440000000000A6
:04124800080000009A
:04124C00000000009E
:04125000000000009A
:041254000000000096
:041258000000000092
:04125C00010000008D
:04126000601A0020F0
:041264000600000080
:041268000100000081
:04126C00A4180020A2
:04127000000000007A
:041274000000000076
:041278000002000070
:04127C00000000006E
:02128000290043
:02128200010069
:02128400250043
:021286002D0039
:021288002E0036
:02128A002F0033
:02128C0001005F
:01128E00015E
:0812900003000000C0B00100E2
:0812980000000000000000004E
:0412A0000000010049
:0412A4000000030043
:0412A80013C401105A
:0412AC00AD940100FC
:0412B000B812000070
:0412B400B81200006C
:0412B8000000000032
:0412BC00681B00208B
:0412C000359601005E
:0412C4002000000006
:0412C80014B001005D
:0412CC003CAF010032
:0412D00029C101101F
:0412D400677401003A
:0412D800D7780100C2
:0412DC00A1C7011095
:0412E000A3C701108F
:0412E4000000000006
:0412E80037B001001A
:0412EC0038AD010018
:0412F00050AD0100FC
:0412F40020AD010028
:0212F8000200F2
:0212FA000900E9
:0212FC000100EF
:0212FE000000EE
:0113000001EB
:04130400B59501009A
:04130800C1730100AC
:04130C00058901004E
:0413100075770100EC
:04131400A5780100B7
:04131800F973010064
:04131C006531010036
:041320000F98010021
:04132400ED4801008F
:0413280015C70110D4
:04132C0025C70110C0
:201330002DE9F04FD94C04F118012046ADF14C0D14F032F804F1A0050021284618F068FFF2
:20135000D34E1020D349E561F21D09F087FED2490025012204F59A700095134614F096FA55
:201370004FF400510091CD4944F620622B4604F5AC7014F08BFA4FF480410091C84949F672
:2013900040422B4604F5BE7014F080FAC5494FF400304FF4FA622B46009004F5D07014F047
:2013B00075FAC1494FF480004EF660222B46009004F5E27014F06AFA4FF480710091BB499E
:2013D00004F5F47044F620622B4614F05FFA4FF480510091B64904F5037049F640422B46D4
:2013F00014F054FAB34F07F1180007F10C010FF02DFCB149B86018F03BFADFF8C082B868C4
:201410004FF4E0214246521E16F05AF8B8684FF4E021424616F054F8DFF8A482B8684FF08E
:20143000C0514246521E16F04BF8B8684FF0C051424616F045F8A349009507F12400C82288
:201450002B4614F023FAA048294678604FF0804013F002F9606104F1B80104F1AC000FF0AF
:20147000F5FBDFF86892E06221211E22484617F09DF8974829464FF6FF7217F097F8954836
:2014900029464FF6FF7217F091F8934829464FF6FF7217F08BF8914829464FF6FF7217F0F8
:2014B00085F86769DFF838824FB14846067936B141468F60CD6003220A7015F05DFF8949D5
:2014D00010200B2209F0CAFD874E10200622A023314609F0C3FD10200722A023314609F033
:2014F000BDFD10200822A023314609F0B7FD10200922A023314609F0B1FD10200A22A02386
:20151000314609F0ABFD10200B22A023314609F0A5FD102002224FF4FA63314609F09EFD72
:20153000314610200C22502309F098FD314610200D22502309F092FD314610200E225023AA
:2015500009F08CFD314610200F22502309F086FD102031465023024609F080FD31461020B3
:201570001122502309F07AFD314610201222502309F074FD314610201322502309F06EFDDA
:20159000314610201722502309F068FD314610201822502309F062FD314610201522C82315
:2015B00009F05CFD314610201622C82309F056FD3146102019224FF47A7309F04FFD3146E5
:2015D00010201A222B4609F049FD207816F074FCD2490246102009F041FDA9468DF82F5014
:2015F00040F2053001210DF12F02ADF822900AF0A1FA40F2063002210DF122020AF09AFAFC
:2016100004F1D0024FF442700F210AF093FA04F5827240F2073016210AF08CFA0F200121E9
:201630000CAA8DF8300040F204400AF083FABC4E04F19000BB4DB0612878E071307816F0FB
:201650003BFC0246F07A06F13407009006F144030197D849029306F114070397737810207C
:2016700009F0FCFCE179480000EB011080B210F0F3FD2063002839D0E779C7B34FF6FF7166
:201690003E46761E20F8121BFBD130E00802002038B00100A1B500105168010041970100F5
:2016B000D9960100319701007197010081970100C9960100F0180020B96E01000E0005807C
:2016D0000E000010D99401009D920100BC190020C016002058180020C01700200C18002088
:2016F000D81B002081B30010BD840110E779380110F0B2FD0746A76357B1E67946B14846A6
:20171000F8803870B8807880761E07F11007F7D104F1EF00D24900904A461523102009F07E
:201730009DFCD64910204FF0FF3209F097FCD44910204FF0FF3209F091FCD24ED24F102001
:201750001323D24A00903146019709F087FC2878800010F081FDCE4A01469246916069B12C
:201770004FF6FF7015F078FECA4910200AF12402009011230191314609F070FCDFF818B3F2
:201790001020594609F06AFCC4491020042209F065FC0125022603278DF8315004208DF827
:2017B0003260D64A8DF833700DF126038DF83400921C1079116818710DF1310219604846EE
:2017D00029460CF0D5FE0DF13202284601460CF0CFFE0DF13302304629460CF0C9FE0DAA79
:2017F000384629460CF0C4FE042005210DF126020CF0BEFE04F14800CAF804005946102034
:2018100009F02CFC207816F057FBC8490246102009F024FC207816F04FFBC5490246102097
:2018300009F01CFC8DF83590AB468DF83A9030468DF839700DF137068DF83700CF4D8DF8C1
:2018500036B04FF480628DF838B05B4600962946102009F003FC0EA840F2024200905B46D5
:201870002946102009F0FAFB0DF139000090294640F203425B46102009F0F0FB0DF13A0031
:20189000294640F206425B460090102009F0E6FB0DF13500294640F211425B46009010208C
:2018B00009F0DCFB0DF13600294640F204425B460090102009F0D2FB04F1DF001023294690
:2018D00040F205420090184609F0C8FBB54904F19802102009F0C2FBB349102009F0BEFB84
:2018F000B24F109711975EE2780A04D2780CC0F05A820520FEE0072008E0616AB80E0AD261
:20191000380B06D2780AC0F04E82062017F016F849E20620EAE30020884744E25188011042
:20193000580A0020694F0020B80D80F08080A07A00286ED0401E5AD0401E3DD0401E40F007
:201950003282F80AC0F02F82C349002014F0D8FD04F178020CCA04F1700003C804F1880762
:20197000121A8B4197E8030004F18006121A8B4196E8030000250027801841EB0301CA0FFC
:2019900012184FEA520045EB0103D90708435910454267EB010618F037FC04F1680106C972
:2019B00004F16803491942EB060283E8060018F027FC4DE159400100F80AC0F0F48117F08E
:2019D000BDFA04F1800282E80300CA4A032008210CF0CEFD01281CBF0320A07240F0E38168
:2019F00060690F210022BAA316F05FFC0EE0F80AC0F0D98117F0A2FA04F1780282E8030085
:201A1000BD49002014F07CFD0220A0724FF4806181E0380E0ED2780EC0F0C58160690F21BF
:201A30000022CAA316F041FC002014F029FF14F0C7FDB8E184F80AB0B5E1616AB80E73D275
:201A5000607A00285CD0401E0CD0401E40F0AB81F80B64D2380D4CD2780DC0F0A481F7E087
:201A7000D1200100266C380C1AD2F80CC0F09B81C74817F0F5FF0220607294E1098B0100CA
:201A9000DD8E01000F7E01009CB001008410002034130020A8B00100051401000D920100C1
:201AB000002E26DDBB4F00203D460F908146AD1C05F1010AB8485146052216F0D3FE28B992
:201AD00097F918008145C4BF81460F95761E07F1190705F119050AF1190AEBD10F9FAF485B
:201AF00080F800902FB100202B213A460FF0AAFD59E1032012F040F955E1C04638B001009F
:201B1000F80C0FD2B80B0AD2380DC0F04C8184F809B04FF40041A06918F06EFB43E113F015
:201B300049F940E1CD480EE1CD48F5E631810110E1980100616AB80E80F0C880A06AB90DE8
:201B500080F08780207A002800F0A880401E76D0401E2DD0401E13D0401E40F02481B80AEF
:201B7000C0F0218117F0EAF904F1880282E8030016F0D2FE98B90520207214E1D97500000C
:201B9000B80AC0F0108117F0D9F904F1700282E8030016F0C1FE002808BF0420ECD04FF4AE
:201BB0000071B8E74D8D0100C5AB001040E20100380AC0F0F880C24909686069CF885D46DE
:201BD000002F2ED0206B008812210222002318F00FFB059050B3BA49096802278989ADF83D
:201BF0001270891CADF81010002180F800B00E4605988DF8186033464170256B20788DF8DB
:201C1000193016F059F90090C7492A8804AB102009F024FAC5B24DB104A8122118F0E4FA91
:201C300004E011210022C8A316F03FFBA06925B9032121724FF400716EE780216CE7A589E8
:201C5000380E0BD2780EC0F0AE80002014F018FEA06A8047A7E0C04690020020284616F02F
:201C70008BFAE279A16B2082824207DD0001002701F800B0401887803E464680E089001F1C
:201C9000ADF82400207816F017F9C44900902A4609AB102009F0E2F902206DE7780B04D229
:201CB000780D28BF84F808B07DE04FF6FF70401E16F064FB98F8001060690022B9A3091D93
:201CD000C9B216F0F2FA00202071C1E7BB4823E64572726F7221204E6F7469666963617436
:201CF000696F6E2073656E64206661696C65642100C046C08802002078020020E678380B73
:201D100034D2F80E4FD3022012F036F86078BA4914F096FB98F8001060690022C2A3091DAD
:201D3000C9B216F0C2FA98F800506669B24813F0ABFB6D1D03460022E9B2304616F0B5FA49
:201D5000C04884F804B017F08BFE2CE050616972696E67206661696C65642120446973638C
:201D70006F6E6E656374206E6F772100002E1CBF0020011C03D10DF091FC4FF0FF3160695B
:201D900071B914210022BAA316F08FFA0BE0C04684030020880400205802002038030020AD
:201DB000062016F0DDFDA06900216FF060524FF0FF3318F015FA071CF5D0002007900DF1AD
:201DD0002E0107AA08A815F001FD002852D1BDF820005E46102848D120789DF82E10884216
:201DF00043D1079801884FF6FF728A423AD14088C0083AD3656B002D37D0A07805F1080350
:201E1000401CA070BC4900936A882B79102009F025F95FFA80F9B9F1160F12D02078B9F10C
:201E3000040F0ED0656B16F047F803460020B14900906A88102009F011F9484611F050F99C
:201E500013E0A078009098F8001060690022ABA3491DC9B216F029FA07E0C0466003002084
:201E70001102002000F0ACF90646079810B10EB117F0CCFDF80FC0F017810FE1E06905467C
:201E900018F0AAF9854208BF002602D0866815F063FD301C00F002816269318898F80000DB
:201EB0009446491E00F0F180491E00F0B080891F4FD0083906D0103900F0C680EBE0C046BB
:201ED0004002002071688D78002D40D0012D1DD0022D0DD0032D40F09680CD78002D08BF9F
:201EF0008AA30AD00A880092C9788FA3019106E0CD78002D40F0878092A309880091C01CE0
:201F1000C1B20022604616F0D0F97CE0CD786DB90988C01C009191A3C1B21046002216F0BD
:201F3000C4F94FF400010DE0799A01000988C01C009190A30195C1B21046002216F0B5F929
:201F50004FF08071A0697AE06C6F646121008EA3D3E770680078010932D2400953D30E2037
:201F700017F0BCFA00284ED1D8F8040098F8011003790A46934213D0FF2A44D000EBC20367
:201F9000DD682DB900EBC100006915F0F5F93AE000EBC20003690846984734E039720100DE
:201FB0008068F2E7436F6E6E656374696E672043616E63656C6C656400C046C010020020B5
:201FD0000D2017F08BFAF0B9D8F8041098F801000979814212D0FF2815D0401CC0B215F014
:201FF000A7FBFF2802D1002015F0A2FB88F801000BF0F6FD07E0C0465D020020002015F073
:2020100097FB88F80100706815F0A6FC43E07068A169057885B1AD1EF6D102200DF13B0178
:2020300014F06EFAEFE7C046436F6E6E656374696E6720746F3A00C008464FF4806118F0C9
:20205000DBF8E0E71404002075681099C01C009153A3C1B21046002216F027F9119800906B
:2020700055496A890023102008F0F8FFCBE7C0464572726F722121416C7265616479207324
:2020900063616E6E696E672100C0706800F098F8706817F0BBFC304615F05EFCE06918F05D
:2020B00097F800283FF4EAAE380B09D316F046FF8DE80300606900223DA30C2116F0F5F8C1
:2020D000206A78B1401E3FF419AE401E3FF432AD401E3FF4B2AC401E3FF426AC401E3FF492
:2020F0000CAC60E6380BFFF4FFAB072016F038FC324828E61B960100DDFE00105273702017
:2021100073656E642072657472793A0043786E20256420626F6E64207361766520737563A6
:202130006365737300C046C043786E20256420626F6E642073617665206661696C65643AF8
:202150002025640043786E20256420626F6E64696E67207375636365737300C0636F6E6E6C
:2021700048616E646C652025642070616972656400C046C070616972696E67206661696C59
:2021900065643A20256400C0636F6E6E48616E646C652025642070616972696E6700C04610
:2021B00050617373636F64653A20256400C046C0703A20256400C046D9780100F003002076
:2021D0002DE9F04F06460120ADF1240D9D4C07903078913800F09083DFF86CB2DFF84093CB
:2021F0001F3800F0CE82203840F0EC835846B0460578E16B676998F80200002800F0848264
:20221000401E00F0F181801E00F05E82401E0FF2483A00F0BA81401E00F0D880401E60D040
:20223000401E00F04182801F40F0CC8398F8030000283DD1656C08F10509002D38DD04F583
:202250005F7630464946062216F00CFB60BBD8F81000C17A4FF000092B2906D1103004F181
:202270005B01062216F0FEFA10B1B9F1000F1FD0E07898F8045008F1050630B914214A4675
:20229000CEA3384616F011F89CE30DF007FA062016F054FB6570316804F155000160B788E0
:2022B00087804FF080618DE06D1E06F11906C8D198F80300022840F08583D8F81000C07A31
:2022D0002A2840F07F83D8F810000090D8F80410D8F80820D8F80C30D8F800000DF00AFE3D
:2022F00070E3192204F274404A43002110F033FC002510204946E56308F0B0FEC7B2B8F8BE
:20231000040015F039FFE1792082814240F35A83226B41004FF6FF7301EB0011079E5352D1
:20233000A26B030106FA00F0D554D11882B2C648CD80294616F03AF9208A06FA00F082B275
:20235000C248294616F032F9208A8640C0482946B2B216F02BF927B9D24829461C2216F0A1
:2023700025F99BF80060D4F814801020494608F075FE761C00902A46CFA3F1B2404615F080
:2023900094FF9BF8001060692A46D4A3091DC9B215F08BFFE079401EB84211D19BF80010E1
:2023B00060692A465346891CC9B215F07EFF9BF8001060692A46CDA3491DC9B215F075FFF3
:2023D0004FF40011A06917F017FFFBE298F80100002840F0CB802D1D38460022C7A3E9B273
:2023F00015F063FF66699BF800504946102008F035FE6D1C00900022AFA3E9B2304615F027
:2024100054FF08F1040500202071B8F80AC0E779069508F10400059787B1256B394600262B
:202430004FF6FF733746123D35F8122F93420DD0491E06F1120607F10107F5D1994D15268C
:202450003CE0C04608020020D81B0020A5F800C013F01AF8AD1C01460F2228460EF0A8FB4B
:202470000798794D0022B8401FFA80FA5146284616F09CF8DFF8D49100225146484616F012
:2024900095F873480022514616F090F8206BFB00361803EB09025919B61CD660814DCE605A
:2024B0006B4AE9889818C660480904D228461C21002216F07BF8E079FEB205901849102074
:2024D00008F0CCFD0599814211D80799002740F2053004AA8DF8107009F02CFB9BF800103D
:2024F0006069BCA33A46891CC9B215F0DEFE9BF80010236B6069720002EB0612491D9B1899
:20251000C9B200229B1C15F0D0FE284614F034FF276AB8F80A00032FA0811AD102E0C0466E
:20253000F17F0110069904F21B100A688988026010258180666984F81A5112F0A5FF009043
:2025500094F930010022CBA329460190304615F0ACFE4FF4801135E7526561647920746F10
:202570002041647665727469736500C02D1D38460022C7A3E9B215F098FE98F80100009019
:202590009BF80050CDA36D1D0AE0E5794946102008F064FD854205D89BF80050CAA3AD1C31
:2025B000676986E09BF80010606900225346891CC9B215F07AFE4FF4002103E74572726F2B
:2025D000722120446576696365206973206E6F74207363616E6E696E67212043616E27741C
:2025F0002073746F702100C00020E070062016F0A5F998F80300E06398F80300D8B1294867
:202610000221002215F0D2FF079E04F274490025B24698F80300A8421CDC0E2D0BDA5646E9
:2026300006FA05F082B2B348002115F0BFFF6D1CEDB20E2DF4DB98F8030000909BF800504A
:20265000CDA32D1DACE7C04658180020C01700200C180020D8F80410EF007B185A781920DB
:20267000684300EB09067270C95D9B1C09F800101968B01C01609988818012F005FF0836C1
:2026900001460F2230460EF093FA9A480AFA05F3002299B23F18FE6015F088FF6F1CFDB2EB
:2026B000B7E7C046BC19002098F803002D1DC7A300900022E9B2E4E5436F6E6E65637465E5
:2026D0006420746F20256400AD1C38460022C3A3E9B215F0EAFD4FF4802173E644697363C4
:2026F0006F6E6E65637465642100C046526561647920746F205363616E00C046436F6E6E22
:2027100065637465642100C0B8F80A00E08108F1030012F0B9FE034629460022384615F096
:20273000C4FD9BF8001060690022AFA3491CC9B215F0BBFD9BF8001060690022AEA3091D46
:20275000C9B215F0B2FD08F10300C64902680A6040684860079AC449102008F07FFC04F1C5
:202770005B014FF441700CF099FC4FF0FF3084F81A01032011F000FB04F59A7017F070F9D1
:2027900020E135462078697816292DD059460A78606929797E2902F1040212D07F290DD065
:2027B0001B292DD1F168728904F180000EF000FAA0694FF4007117F01FFD21E0298991A33F
:2027D00001E0297A93A30091D1B2002215F06DFD16E0C04643616E2774206164763A206EBE
:2027F0006F206C696E6B730015F066FB034604209E4900906A88102008F030FC002872D01F
:202810004946102008F02AFC002851D0688815F0B3FC20822A790B2A23D0012A02D1297AD0
:202830000A291ED0132A0DD0012A02D1297A122908D0A16B0001085C002839D0304609F088
:20285000EBFA35E0594660690978012A07D0627974A3521CD2B26271521ED2B222E075A3BE
:202870001FE0594660690978012A19D0EA68127874A317E04E65787420686F702061646413
:20289000723A2025732C20727373693A20256400436F6E6E656374204661696C656400C0E5
:2028B0006CA32A7B0092491D0022C9B215F0FDFC297905F1080017F097FC83E05265617399
:2028D0006F6E3A20256400C043616E277420416476203A204D617820636F6E6E73207265A8
:2028F000616368656400079810F0FAFB65630020079067E0C016002070780E3845D0801EA2
:202910005CD02E385ED1B078256C80285AD10A2D58D0002D06F10509A0460DDD08F2822756
:202930002C4648463946062215F09CFF002849D0641E07F11907F4D14A461168192000FB63
:20295000058404F52074A01C016091888180104612F09AFD01460F2204F108000EF028F997
:20297000F07AE07596F90C002076307960706F1CC8F8407026E0C0464465766963657320F4
:20299000466F756E6420256400C0B08842F20301814217D1B1680878A0B9491C02A80A6834
:2029B0004968026002AF41603878314902AA00F0FD003870102008F051FB03E00820002197
:2029D00007F022FF079809B0BDE8F08F506172616D205570646174652025640041647665B6
:2029F00072746973696E6700436F6E6E656374656420746F203000C0496E697469616C69EE
:202A10007A6564004D54552053697A653A20256400C046C046432056696F6C617465643AEE
:202A30002025640057726974652073656E743A20256400C05772697465204572726F722000
:202A5000256400C052656164207273703A20256400C046C052656164204572726F72202598
:202A70006400C046EF0F0020E58501001B96010095B400102DE9F04F0F4685B0804617F894
:202A9000010B8DF800004FF4B07008EB00044FF49C7008EB00059DF800104FF4C67008EBE3
:202AB0000006182908F1E70A08F1660908F20D1BDFF86C0700F2A183DFE811F01900720098
:202AD000660194009F039F03FD007903140127010101100138019F039F0384019F036801D1
:202AF0005C018503E402E40236029F03810217F8010B88F886000222394608F1880017F06C
:202B100063FB0146022208F18A0017F05DFB0146022208F18C0017F057FB0146022208F14D
:202B30008E0017F051FB074698F88600400088F8860008F1860108F18600022240884000D0
:202B5000488008F1860080884000888008F18600008900010881394608F1840017F034FB0A
:202B700008F10601B9F81E004988401A80B247F6FF7188422BDA08F1860008F18601C08856
:202B90008988401C4900484308F186010989884228BF3B2080F04082012089F81C001CE0DA
:202BB0000522394608F1610017F00EFB0146022208F1920017F008FB08F1860008F1060176
:202BD00080894988401A80B247F6FF71884280F2228208F186010120887208F10601002037
:202BF00008834CE29AF81600C0070AD41A208AF80E009AF80D00012808BF0D213FD00D21FB
:202C1000D7E1002089F8000089F80600082201208AF81100394608F1B00017F0D5FA0146A1
:202C3000022208F1B80017F0CFFA08F1A80401460822204617F0C8FA07460821204617F0B7
:202C5000BFFA08F19C0404223946204617F0BCFA0421204617F0B4FA08F1A00017F0ACFAC4
:202C700008F1980017F0A4FADFF8B805018841F0800101809AF80D00012806D10421404674
:202C900005B0BDE8F04F14F0EFB999F81000012804BF99F811000F280BD1404611F0FEFE1A
:202CB0000421404611F0BCFB0F2089F81A00FD217FE104217DE101208AF80F00ACE2002076
:202CD00089F8000089F806008AF800000B2101208AF80D0000208AF801006AE101208AF8ED
:202CF000100099E2002142187B5C547A23437B5452781A4008EB0103491C082983F8FD209B
:202D1000F1DB404611F068FA7CE2002142187B5C547A23437B5452781A4008EB0103491CBB
:202D3000082983F8FD20F1DB022053E299F8060008B93D2070E19BF800000128D1D017F825
:202D5000010B8BF8030002224FF489703946404417F03AFA01464FF48A700222404417F000
:202D700033FA01208BF800009BF8020000281BD10C211EE19AF81600C00601D41220D9E06F
:202D9000404612F021FC3DE2387845E1387820707878607099F8100001280DD199F811003F
:202DB0000F2802D0162803D036E20120687333E2307B40F001001EE205B0BDE8F04F00202B
:202DD00016F0CAB89AF81600810706D41121084201D10F20AEE01A2254E03878797800EB4A
:202DF00001202882F978B87800EB012068827979387900EB0120A882F979B87900EB0120D9
:202E1000E882387A2876B97A787A00EB01206883397BF87A00EB0120A883B97B787B00EB5D
:202E30000120E883397CF87B00EB01202884B97C787C00EB01206884397DF87C00EB0120BF
:202E5000A884B97D787D00EB0120E8844FF4AA7040440490688B0390287E029008F1060061
:202E700040880190E88A0090AB8A6A8A298A40460FF0FEFB68B19AF81600400701D40F2081
:202E900058E01E22404605B0BDE8F04F0F2113F087BE688A08F186018880A88AC880E88AAD
:202EB0000881022088F886000020488008F1060108F10600C08DC01DA9F81E0008F1860002
:202ED000898D808888420FD108F1860008F10601C088C98D884207D108F1860008F10601DC
:202EF0000089098E88421DD099F81000012804BF99F811000F2807D099F8150020B10F2008
:202F100089F81A00FE2154E0FC21404611F088FAE88A0090AB8A6A8A298A98F8060017F012
:202F300043F979E1102144E09AF817000921084203D116208BF80C0061E17978387801F00C
:202F50000701084038700146707B0840F07212D0411E08420DD0400703D5B07B08B10420FE
:202F700003E0F17A0220014201D0F07201E04008F9D1F07A08B9B07AF072F07A042803D147
:202F9000404612F0E8FBA083F07A17F009F93071A28BB17B012313F073FB0146208B8842D5
:202FB00005D3A28BB17B3079012313F069FB70801721404605B0BDE8F04F11F031BA787879
:202FD0003978814207D100F007000840387034D0421E10420FD01E221821404613F0E0FD3A
:202FF00098F80610002300221E200DF065FB307B40F04000FFE0F072F978B87800EB012032
:20301000308108F1060130894988401A80B247F6FF71884206DB28208BF80B0001208BF807
:203030000A00F9E00120B071F07A042803D1404612F091FBA083F07A0BE099F81100162885
:2030500006D1B27A98F80610134600200DF034FBB07A3071A28BB17B3079012313F010FB13
:203070000146208B884205D3A28BB17B3079012313F006FB7080307B40F0400030730120B3
:203090002870C9E03878797800EB01206082F978B87800EB0120E0827979387900EB012092
:2030B0002082F979B87900EB0120A082A18AE089884288BF0846B17A042904D1B0F5296F30
:2030D000D8BF4FF42960E28BE0839042B07A14BF4FF001094FF00009042803D1404612F0C5
:2030F0003AFB04E0A089E18A884288BF0846A28BA08390422089628A238B14BF0121002139
:20311000904288BF1046984241EA090114BF0122002242EA01052083A28BB17B307901230E
:2031300013F0AEFA0146208B884205D3A28BB17B3079012313F0A4FA70806189208A628B08
:20315000814288BF01466183914214BF0120002005438A42344998F80620096801EB42114C
:20317000628B8041121DC00F0A7610B1404614F0F5F99DF80000142810D145B1E08B009037
:20319000638BA28B218B98F8060017F005F8404605B0BDE8F04F15210EF082BE1DB13078B5
:2031B00040F008003070307840F020001BE038780E280ED00F2809D0122804D014280CD03A
:2031D000162812D028E00020287225E00120287322E003208AF815001EE0307840F00200A8
:2031F000307040F01000307016E0307B40F00200307340F0100030730EE08BF80C104046D3
:2032100011F004FE40B905B0BDE8F04F074800784FF480410CF06CB805B0BDE8F08F00BF86
:20323000302F0020524F0020A42F00206E4F00202DE9F04F0D4685B0814615F8010B8DF82C
:2032500000004FF49E7009EB00064FF4B0709DF8001009EB00044FF4C670891E09EB0007F8
:20327000152909F20D1B09F1E70809F1060ADFF8680700F29C83DFE811F00F019A03160008
:20329000440048007A039A03C3009A037D00D600810088001701E901280204018403E8021A
:2032B000E8022F02A00209F1A00608222946304616F08AFF05460821304616F081FF09F199
:2032D000980404222946204616F07EFF0421204616F076FF00214842484409EB010290F808
:2032F0009F0082F8BF00491C0829F4DB09F1C702314609F1D70016F04BFF012088F8000085
:2033100066E3012088F8130062E398F80D1098F81600012900F010000DD130B1002070711E
:2033300030684108B07910F08FFD9AF80000002116F02AFF11E050B14FF4A17009EB0003C8
:20335000306842084946DFF8940616F0F7FA9AF800000122002116F013FF012089F866008E
:20337000484612F0EAFF09F166010120887188F80F002DE3012088F8100029E3287888F8CD
:203390000E00012088F8140022E398F8121001291DD198F8001001294DD098F816100907DE
:2033B00004D40E208BF80C00072100E2002142186B5C567A33436B5452781A4009EB0103FB
:2033D000491C082983F8FD20F1DB0921EFE198F81610090758BF0E2058D5002142186B5C6F
:2033F000567A33436B5452781A4009EB0103491C082983F8FD20F1DB484610F0EDFEDDE26A
:20341000002142186B5C567A33436B5452781A4009EB0103491C082983F8FD20F1DB02201D
:2034300088F81500D4E298F81200012804BF98F80000012806D13D208BF80B0001208BF884
:203450000A00C5E29BF800000128FAD015F8010B8BF8030002224FF489702946484416F025
:20347000B3FE01464FF48A700222484416F0ACFE01208BF800009BF802000028E1D10C2167
:2034900095E198F81600C00658BF122040F19182484612F099F891E228788BF80B00F021DA
:2034B00000208BF80A000AE198F81600810707D41121084208BF0F2000F07B821A22F6E0EA
:2034D00009F16601097C012902BF09F16601497C0F2911D009F16601497D0A0003D009F1CE
:2034F0006602527C22B109F16602127F012A05D1400758BF0F2064D52322D8E021B109F130
:203510006601497C012904D009F18601897A012905D1400758BF0F2053D52A22C7E02878A5
:20353000697800EB0120B081E978A87800EB0120F0816979287900EB01203082E979A8799B
:2035500000EB01207082287A3075A97A687A00EB0120F082297BE87A00EB01203083A97BAA
:20357000687B00EB01207083297CE87B00EB0120B083A97C687C00EB0120F083297DE87C80
:2035900000EB01203084A97D687D00EB012070844FF4AA7048440490F08A0390307D029087
:2035B000BAF802000190708A0090338AF289B18948460FF05DF838B198F81600400758BFEB
:2035D0000F2040F1F68171E0F08909F186018880308AC880708A0881022089F886000020E3
:2035F000488009F16601BAF82E00C01DC88309F18600BAF82C108088884201BF09F186000A
:20361000C088BAF82E10884206D109F18600BAF830100089884217D009F16600407D28B11F
:2036300009F166010F208876FE21C0E0FC21484610F0F6FE708A0090338AF289B1899AF800
:20365000000016F0B1FDC3E10021B0E0A878E97800EB01262879697900EB0124A879E979A8
:2036700000EB012705F10B000490A3B2687AA97A00EB012080B20390B2B2287A0290BAF81D
:2036900002000190B8B200906978287800EB012081B248460EF0ECFF58B198F81600400760
:2036B00058BF0F208DD5484611F0F8F91E220F2134E009F1860000218680C480078148464D
:2036D00005B0BDE8F04F13F0CFBC2878207068786070012070727BE198F81700C00758BFEF
:2036F000162040F1668109F16600407C16281ABFBA79012A232210D0002818BF01280BD0B3
:203710000F281EBF09F16600007F01281EBF09F18600807A012807D12A221621484605B05F
:20373000BDE8F04F13F03CBA6978287801F0070108402870797B08401CBF411E0842F87218
:203750000DD0400703D5B87B08B1042003E0F97A0220014201D0F87201E04008F9D1F87AF2
:20377000B97A884204BF0020F872F87A08B938811CE0BAF82E00C01D3881F87A042803D11F
:20379000484611F0E8FFA0830123F87A3871A28BB97B12F075FF0146208B884205D3A28BA9
:2037B000B97B3879012312F06BFF78801821484605B0BDE8F04F10F033BE6978287801F0C9
:2037D000070108402870F97A08401CBF411E0842F8720DD0400703D5B87B08B1042003E059
:2037F000F97A0220014201D0F87201E04008F9D1F87AB97A884204BF0020F872F87A10B9BC
:203810003881B87A0BE0BAF82E00C01D3881F87A042803D1484611F09EFFA083F87A387170
:20383000A28BB97B3879012312F02AFF0146208B884205D3A28BB97B3879012312F020FF2C
:203850007880387B40F02000AFE02878697800EB01206082E978A87800EB0120E08269798E
:20387000287900EB01202082E979A87900EB0120A082A18AE089884288BF0846B97A0429E5
:2038900004D1B0F5296FD8BF4FF42960E28BE0839042B87A14BF01250025042803D1484623
:2038B00011F059FF04E0A089E18A884288BF0846A28BA083904214BF012100212089628AFB
:2038D000238B2943904288BF1046984214BF0122002242EA01052083A28BB97B3879012352
:2038F00012F0CEFE0146208B884205D3A28BB97B3879012312F0C4FE78806189208A628BE3
:20391000814288BF01466183914214BF0120002005438A4232499AF80020096801EB42118A
:20393000628B8041121DC00F0A7610B1484613F015FE9DF80000142810D145B1E08B009043
:20395000638BA28B218B9AF8000016F025FC484605B0BDE8F04F15210EF0A2BA1DB13878A2
:2039700040F008003870387840F0200015E028780F2809D0122804D0142808D016280ED074
:2039900026E00020307123E00120307220E0387840F00200387040F01000387018E0387B6D
:2039B00040F00200387340F01000387310E09DF800008BF80C00484611F028FA40B905B0BC
:2039D000BDE8F04F074800784FF480410BF090BC05B0BDE8F08F00BF302F0020512C01004C
:2039F000A42F00206E4F00202DE9F04FDFF800B5DFF800659BF800001E25082887B000F29B
:203A10006E82DFE810F072020900090009000900F000860172027202DFF8DC44DFF8DC94AA
:203A30002068DFF8DC84006800F10807062207F1080102A815F042FC0622B91C684615F089
:203A50003DFC3978C1F380108DF8140001F00F02C809032A35D16179C1F38001884239D1A6
:203A70002169062202A815F09BF800283AD09DF81400694616F080FB002833D031466846E7
:203A900014F08FF9FF282DD0D8F80010897A684335180A0018BF02290AD0012918BF032978
:203AB00018D1325C691C484616F062FB102819D06A46E91D484610F0F1FB06226946E81DDC
:203AD00006E201F00F01052940F00F826179C1F38001884240F0FE812169062202A815F015
:203AF0005FF8002800F0F681387847099DF81400694616F041FB40F2024A70B33146684670
:203B100014F04FF98346BBF1FF0F6BD005FB0BF031180491D8F80010897A0A0018BF0129C4
:203B30000BD0022918BF03295CD1325C0498411C484616F01DFB102854D0504616F014FB05
:203B50000498C11D6A46484610F0A8FB049806226946C01D15F0B2FB1DE09BF8000002283E
:203B700040D19DF814106A46304610F03AFA8346BBF1FF0F36D005FB0BF03044417F01292F
:203B900006D000292ED10D3016F0EAFA002829D0504616F0E9FA05FB0BF0D8F80020315CD8
:203BB00091763044411CD8F800000622143015F085FBD449D4488978490604D5F90758BFE3
:203BD00041F20A4101D541F20441418041834186CE480180CE49CF4808600121CE480078E0
:203BF0000BF086FB76E1CD4C2068006800F108070F21387808421CBF00F00F01062906D0CF
:203C100002291CBF00F00F00012840F06E810622B91C02A815F052FB3878DFF80493C0F37D
:203C3000801800F00F0001283FD1062207F10801684615F043FB3878C7096946384616F0D7
:203C50009BFAE8B1D9F80000807C022818BF03285ED106F10D01684616F07EFA002857D07E
:203C7000D9F800100120C8720622607940F0040060716946D9F800000C3015F01FFB14E023
:203C90003078874211D10622711C684614F088FF58B13078617960F3820161710622D9F8A7
:203CB0000000711C0C3015F009FB02A9404616F063FA00282CD0606902A9001F13F028FAB2
:203CD000002825D1314602A814F06BF8FF281FD0D9F80010897C684335180A0018BF02292E
:203CF0000BD0012918BF032912D1325C6069691C001F16F03DFA10280AD0606902AAE91D04
:203D1000001F10F0CBFA062202A9E81D15F0D6FAEBE0844C2068006800F108070F21387897
:203D300008421CBF00F00F00012874D10622B91C02A815F0C3FA3878DFF8EC91C0F3801829
:203D500000F00F00012846D1062207F10801684615F0B4FA3878C7096946384616F00CFAD1
:203D700020B3D9F80000C07A022818BF032852D106F10D0016F0F4F900284CD106F10D01C5
:203D9000684616F0E9F9002830D0D9F80000062269460C3015F092FA607940F00400607102
:203DB00006226946F01D15F089FA14E03078874211D10622711C684614F0F2FE58B1307838
:203DD000617960F3820161710622D9F80000711C0C3015F073FA02A9404616F0CDF90028F8
:203DF0004AD0314602A813F0DCFFFF2872D005FB00F7D9F80000817AF51959BB807C15F04B
:203E10008BFB814699F82E01022811BF0328F15D00F0010081425DD14FF4947009EB0006EF
:203E300006223146681C14F0BBFE30B9062231463E4814F0B5FE00284CD0012089F82E01B8
:203E50000622607940F00800607102A9304615F035FA0DE02069F25D691C001F16F088F903
:203E7000102837D0206902AAE91D001F10F016FA062202A9E81D2BE0D9F80000817A49BBD6
:203E9000807C15F049FB074697F82E01022818BF03281FD102AA4146304610F0A2F8FF283C
:203EB00018D06843351805F10D0016F059F910B9687F01280ED187F82E810622607900F0E0
:203ED000F70040EAC800607102A94FF49470384415F0F4F9216809680020087105E0002020
:203EF00015F03AF8862016F033F907B0BDE8F08F6F4F002000240020F44B0020CC47002014
:203F1000104F0020302F0020204A0020504F0020204F0020413F00006E4F0020D04B002023
:203F3000A82F0020AC4B0020184F0020A4B101002DE9F84F012013F05FFB01280ED1DFF8CC
:203F5000E454296800204871286812F02BF905F047FB040003D1812016F0FAF85DE20120F1
:203F70006071DFF8C464DFF8C4044178491C41702968A07981F8A00040200EF0D9FE20607B
:203F9000307901281CBF002014F0E6FFF0682168DFF89C6400F5B060C860306800680079FD
:203FB00003281CBF002014F0D7FF3068DFF88494006800F1080A4FF4977004EB00089AF82C
:203FD0000000C0F3801088F8000006224FF494700AF10201204415F071F904220AF10E019E
:203FF00004F1240015F06AF9D9F80000A37900EB431004220AF10E010C3015F05FF9D9F86B
:204010000000A37900EB431003220AF11201103015F054F904F12C079AF81500B870022256
:204030000AF1160104F1300015F048F902220AF1180104F1320015F041F902220AF11A011B
:2040500004F1340015F03AF93889608402220AF11C0104F1360015F031F9B8787989400042
:20407000B8700901B88879814000B88089B2F8884000F88080B2628C521C43005A438A429F
:2040900000D238B9DFF8B003007880210BF030F93B21F5E004F12E01204614F0FDFC0520A9
:2040B000A081204614F0D6FE05220AF11E0104F1610015F003F99AF823004009387016F04D
:2040D00043F860822968DD4D498A401AA8F80C0004F161019AF82300DFF864A300F01F0026
:2040F000F873204612F0ECFA31680968002008711C26A1792868714341F6210242520022A4
:20411000A179714301444A80A1797143084442609AF80200400609D5CA48008841F20A4126
:2041300088420CBFC848C948C4F89C012046D4F89C118847A2792968724311448873A179E7
:204150002868714308440021C173C148007870B1B88860B978730120208160812046D4F8AF
:204170009C118847A2792968724311448873A179286871430844807B787394F8960108B98E
:2041900014F0EAFEA1792868DFF8C8B27143084494F89611491E01740022A1792868714399
:2041B000084400214174A0792968704308444282A279D9F8000000EB421372430A4453617D
:2041D000A27972431144A44A8A61DBF8141091F800C094F806E05FEACC714CBF102100213C
:2041F0005FEA8C724CBF202200225FEA4C734CBF402300235FEA0C7C4CBF4FF0800C4FF07A
:20421000000C1143194300EB4E104CEA010141F00F010172D9F80000A17900EB41100B214A
:204230004172D9F80000A17900EB411004218172D9F80000A17900EB4110884909780129D9
:204250001CBFDBF828104978C172D9F80000A17900EB41101F210176D9F80000A17900EBC0
:20427000411000214176A0790BF0ECFFA279D9F8001052018850A0794201895821B90721A0
:20429000204614F0B2FBC8E07549096801EB001015F056FF724AA1791268D9F8000002EBBC
:2042B000011200EB41114A60A17900EB41114968F963A17949014058786404215E48007875
:2042D0000BF016F86249B888097800F1020E19B110B9F88800F1020E608A00FB0EF04FF41E
:2042F000C871B0FBF1F0401CC4F818E0606140F6C41394F806C02968226806FB0CFC8C44C5
:20431000CDF800C0D2F80CC003FB0ECCACEB0000A0F5A86C0098C0F808C0A079704308442A
:2043300080689060A07970430844017B01F0EF010173A179286871430844017B01F07F0115
:204350000173A179286871430844017B01F0F00141F002010173A179286871430844417BC3
:2043700001F0F00141F001014173A1792868714308442168806808616269D9F80000A1792A
:2043900097F802C0520000EB411103FB0C2202F5F6624A61A17900EB4110C17C01F0F00192
:2043B00041F00401C174FA88D9F80000A1795A43DBF830301B6800EB4111D21AA2F516727A
:2043D000CA61A17900EB4110C17E01F0F00141F00401C176A17928687143084421684860E3
:2043F0009AF80100800615D5B8F83A001B2804BFB8F83C001B2809D1B8F83E00B0F5A47FFB
:2044100004BFB4F86E01B0F5A47F03D01421204610F006F8134907200870BDE8F14F00F0AA
:204430002DBD00BF104F0020B44D0020684E0020F44B0020A42F00206E4F0020A42B00202F
:20445000302F0020504F00204F45010061520100784E002048B101005C4D0020734F00203A
:204470008C4E00206F4F00202DE9F84F5FEA000A27D1002014F070FD23E050460FF04BFD3B
:2044900062E2317C012940F07E80C078002877D098F80000400088F80000B8F802004000DA
:2044B000A8F80200B8F804004000A8F80400B8F808000001A8F8080001203077504610F0F3
:2044D000EDFA0AF16606707D002800F064824FF489700AEB00094FF4A2700AEB0004717C1E
:2044F0004FF4C6700AEB000B00290AF186080AF1EC050AF10607DFF8A404C2D0012946D03C
:20451000022931D0032957D0062900F0A480072900F01E82082900F0F180092900F00F81C5
:204530000A2900F0B3800B2900F0CA800C2900F013810F2900F04981112900F06A811229AC
:2045500000F03881142900F0CE81162900F06C81182900F09D81F02900F00082FC2926D015
:20457000FE2900F0048284E7317C012985D1C078002800F08281504610F090FA1621F1E17A
:20459000B888F18B10E050460DF0CAF9DCE1317C01290DD1C07800281CBF012088F80A00B1
:2045B0008CD1B888B8F80C10884200F09581F1E150460EF0ACFCC7E1317C012941D180781B
:2045D00050B10020B071A078012805D10020A070002150460FF024FFA87B01280AD1002022
:2045F000286068600621012088F80E00504612F03BFD66E7E87B012818D1504610F04EFA15
:20461000002088F80E0001203070504611F095FE0120B07100206873697A387806291ABF19
:2046300000221A21002215F0ABFD4AE799F8050001286FD0308B401E308380B200284CD0CD
:20465000A8E150460CF042FE3074F08A30830020A873E8739FE1307C01280ED1A87A012809
:204670001FD1504610F01AFA002028722873E872A873A872E873687323E7504610F0C4FC16
:204690003074F08A30830020A87284E1307C01280DD1E87A012802BF002088F80E000B21C1
:2046B000A4D0308B401E308380B2B0B172E1504610F0F7FD3074F08A30830020E8726AE1A4
:2046D000317C012916D1807808B103218EE7308B401E308380B20028E8D1297A3878012966
:2046F00003D1222115F050FD29E10022222115F047FD24E150460FF007FA25E1307C012813
:2047100014D1287C02280AF1FD0204D13978002015F012FDD2E6308B401E308380B2002844
:204730000CD13978222015F007FD08E150460EF06DFF3074F08A3083012028742AE1317C61
:20475000012905D1807810B1B88B3883B6E694E050460FF041FDF7E0307C01280AF20D11E9
:2047700021D1087801280DD14878012809D1B9F8020000900020CA78B9F80030397815F0B1
:20479000D7FC9BE6308B401E308380B2002810D1B9F8020000902220CA78B9F80030397855
:2047B00015F0C6FCCBE00120887050460EF0EAFB3074EFE0317C012903D180780028E0D1F6
:2047D0005BE0504610F0D8FEBEE0307C01281CD16078012809D1207F0F281CBF002014F012
:2047F000BBFB00206070002100E7A078012806D10020A0702322504612F0D2F961E620782C
:2048100001283AD100202070EDE750460BF062FE9AE0317C012903D1C078002821D12CE05C
:2048300050460FF00AFD8FE0307C01282CD19BF80C00810648BF1821D6D4C10712D5207F2D
:2048500016281CBF002014F087FB9BF80C0000F0FE008BF80C0000233978607F00220BF09D
:204870002BFF2BE6810708D500F0FD008BF80C000023397800221A20F1E7308B401E308338
:2048900080B200285BD085E050460BF071F85BE0317C012922D1C078C0B19BF80C009BF844
:2048B0000B1059B9810610D500F0DF008BF80C0000209BF80A2039781346D0E700F0DF0084
:2048D0008BF80C0001208BF80600F7E57988BBF80800491C88425DD1282143E0182150465F
:2048F0000BF046F830E0307C01282AD19BF800004FF4B3710AEB0105810614D500F0DF005B
:2049100001078BF800000BD500F0F7008BF80000288B0090AB8AEA8A698A387815F03CFCE6
:2049300000202870CAE5810704D500F0FD008BF80000F5E7308B401E308380B250BB222107
:2049500010E050460DF0ACFA3074F08A308321E0504610F05BFA0128E4D01BE0407AD0B14E
:2049700099F80610504614F040F8012013E0B07E0F280CD1FC21504612F076FB60890090B9
:204990002389E288A188387815F00EFC02E0002014F0E2FA0020BDE8F28F00BF5C4D002059
:2049B0002DE9F0475FEA000882B00BD1002014F0D3FA07E0404610F029FA012864D14046D6
:2049D00010F06CF808F16605687D00285CD04FF49E7008EB00044FF4B070697CDFF894A427
:2049F00008EB00094FF4C670022908F1EC07404408F1060635D0042949D005295FD00629BB
:204A100000F08E800729D5D0092900F0F4800B2900F0C6800C2900F026810D2900F0D5806C
:204A30000E2900F0F6800F2900F05D81102900F07881112900F09681122900F04181142936
:204A500000F0D681162900F09781172900F0C381FC2919D0FD2900F0F481FE2900F0F6811D
:204A7000A4E7287C012809D19AF80300002814D01621404613F0B9FF012006E040460FF04F
:204A90004AFA2874E88A28830020BDE8F687287C012810D19AF80200002800F01881FC21B7
:204AB000404612F0E1FA307808F1B80208F1B00115F03AFB86E740460CF058FEE1E7287C93
:204AD000012810D19AF8020028B1012088F89400002038607860B87A012869D10621404648
:204AF00012F0C2FA6EE708F1E7063078012809D1404612F09FF90128C6D10020B8720120B7
:204B10002874C1E770780028BED008F1C70208F1A00108F1D70015F03BFB0120307051E743
:204B3000287C012838D19AF80200002840D0B08B308340460FF0B2FF01202870404611F05F
:204B5000FCFB0120A871397A787C012900F010000CD130B10020607120684108A0790FF0AB
:204B700073F93078002115F00FFB0FE048B14FF4A17008EB0003206842084146BE4814F04C
:204B9000DDFE30780122002115F0FAFA002038723873F872B87215E7404610F035FA70E734
:204BB000287C012805D1F87A012808BFFC2196D08DE040460EF0A8FF012853D10020F872EE
:204BD00088F8940001202874FCE6287C01280ED19AF80200002809D0002088F8940001207C
:204BF0002870404611F0A9FB0120A871BDE0404611F086FD45E7287C012806D19AF802009D
:204C100000281CBFB08B3083A6E040460FF0E4FA37E7287C01281DD1387C022808F1FD02FB
:204C300004D13178002015F087FAC8E6032806D131781A2015F080FA00203874BFE6288B0A
:204C5000411E298389B200290CD13178222015F073FA42E040460EF0D9FC2874E88A288367
:204C70000120387410E7297C012908F20D1021D14FF4897108EB0102017801290BD141781D
:204C9000012907D1518800911388C2783178002015F04EFA93E6298B491E298389B2002909
:204CB000E0D1518800911388C2783178222015F03FFA12E00121817040460EF063F9E0E620
:204CD000287C01280BD19AF802000028E2D1288B401E288380B20028C4D12221C9E6404689
:204CF00010F04AFCCDE6287C012816D1607A012803D199F800000F281CE0207A012829D19F
:204D100000202072288D00090090A88CEB8C317842081A2015F004FA51E640460BF0DAFB1B
:204D3000AFE6287C012819D1607A012812D199F8000010281CBF002014F00EF90020607270
:204D5000288D00090090A88CEB8C3178420899F80100DFE7287F0028DED1B8E740460BF061
:204D70000AFC8EE6287C012802D19AF80300F2E740460FF062FA84E6297C012926D1017B0E
:204D90004A062ED4CA070AD501F0FE0101730023317899F8010000220BF08EFC0FE68A0712
:204DB00007D501F0FD0101730023317800221A20F2E7288B411E298389B2002955D13178B2
:204DD0000023002222200BF077FC86E7162140460AF0CEFD55E6297C012907D1017B490632
:204DF000BBD5017B01F0BF010173E8E51721EEE7297C012920D101788A0617D501F0DF0112
:204E10000A0701700ED501F0F7010170B9F81E000090B9F81A30B9F81C20B9F818103078FB
:204E300015F0BAF9002089F80600C8E58A0794D501F0FD010170F5E7142140460DF030F840
:204E50001FE6A97E404612F00FF9BBE6A87E0F280CD1FC21404612F007F9608A0090238ADF
:204E7000E289A189307815F09FF90DE6002014F073F809E65C4D0020512C01002DE9FE4F2D
:204E9000DFF85084D8F80400009018B9BDE8F74F15F042B90078DFF84094DFF840A4DFF882
:204EB000404401281CBF0228042846F2A81741F64C5B05D0402818BF802800F0F98001E227
:204ED00014F0EEFC0028FAD00098007807F094FE05466E6816B9002014F03EF8DFF8040420
:204EF0004078002800F0A58004F082FA14F014FB0190006802900146476828460BF08AFFB7
:204F100002286FD02978012904D0022927D0042945D0D7E1DFF8D0130968097A1AF801108C
:204F3000217018B915F0F4F85844B0603069C17E01F0EF01C1763069C17E41F08001C176B1
:204F50003069C17E01F0F00141F00201C176B868DFF8981308183169C8610120A4E00521CC
:204F7000217018B915F0D4F85844B0603069C17E01F0EF01C1763069C17E41F08001C17691
:204F90003069C17E01F0F00141F00201C176B868DFF85813081831690862022084E00621A9
:204FB000217018B915F0B4F85844B060D0480068807C12F075F83069C17E01F0EF01C17647
:204FD0003069C17E41F08001C1763069C17E01F0F00141F00201C176B868C44908183169F4
:204FF000086260E002980078802811D108202070C0480078012803D0BA484078022801DB67
:20501000012002E0D9F8280000787969C8720AE00720B84920700978786901291CBFD9F816
:2050300028104978C1720198AE4980798870029844E1002D18D000992878A9420ED1401E7E
:20505000012833D9C01E05D1A9480068807C12F027F82BE0002013F07FFF27E0012804D031
:20507000022815D0042817D02CE19F480068007A1AF80000207015F04BF83918B06815F0D0
:2050900043F818B915F044F85844B06001200BE005202070022007E0062020709448006843
:2050B000807C11F0FDFF042088F80200284605E18C484078002800F0B68004F099F914F089
:2050D0002BFA00900068019045688648807814F023FA029014F0EAFB0721084278D098F8B9
:2050F000020007F089FD0646019977680BF092FE02286DD03178012904D0022924D0042977
:2051100040D062E078490968097A1AF80110217018B914F0FDFF5844B8603869C17E01F06E
:20513000EF01C1763869C17E41F08001C1763869C17E01F0F00141F00201C176A8686B497E
:2051500008183969C86192E00521217018B914F0DFFF5844B8603869C17E01F0EF01C176CC
:205170003869C17E41F08001C1763869C17E01F0F00141F00201C176A8685C4908183969B2
:20519000086283E00621217018B914F0C1FF5844B86057480068807C11F082FF3869C17ECC
:2051B00001F0EF01C1763869C17E41F08001C1763869C17E01F0F00141F00201C176A868C1
:2051D0004A4908183969086274E0002013F0C4FE02980099884224D001980078802811D13B
:2051F0000820207043480078012803D03D484078022801DB012002E0D9F82800007869695F
:20521000C8720AE007203B4920700978686901291CBFD9F828104978C172009831498079C0
:20523000887001984AE014F041FB072108424ED098F8020007F0E0FC064630787568012874
:2052500004D0022815D0042822D040E026480068007A1AF80000207014F05AFF3918A8686D
:2052700014F052FF18B914F053FF5844A860012021E00520207014F04BFF3918A86814F074
:2052900043FF18B914F044FF5844A860022012E00620207014F03CFF3918A86814F034FF5F
:2052B00018B914F035FF5844A86011480068807C11F0F6FE042088F802003046BDE8FE4F71
:2052D00009F0B2BDBDE8FE4F002013F045BEBDE8F78F00BF742F002048B10100289A0110C4
:2052F0006F4F0020684E0020104F0020F0D8FFFF184F0020734F00202DE9F04F0C46E007AE
:2053100089B00DD514F012F938B100218160DFF800040068010018BF804784F00100F4E13C
:205330001E252007DFF8EC6340F18A80DFF8E8030068807C14F0F0F807464FF4947097F85D
:205350002E8107EB0009002007908246DFF8C8030068807CFF2804BF002013F0FDFD4A4677
:20537000414630460EF03DFE834605FB0BF0009035184946404614F0FFFEB0B1BBF1FF0F15
:205390002CD00098305C40F00208E81D079005F1010908F0010087F82E0106224FF49470F1
:2053B0004946384413F08AFF18E04946404614F045F8002818BFBBF1FF0F0FD005F10D005D
:2053D00014F0CEFE40B905F10D0014F0C9FE002804BF687F012801D148F00208CE48006899
:2053F000C07A022818BF032806D106F10D0014F0B7FE08B906F1070A0020BD1D06904346C1
:20541000288E000905900022E88D0490A88DCDF804A040080390CDF80090079802900020DE
:20543000297814F06DFED7F89C01BC49884228780CBF002101210CF0EFFC84F0080064E1BB
:20545000E00610D500200690059004900390029001900090002300220021022014F050FE72
:2054700084F0100051E1A00710D5002006900590049003900290019000900023012200214E
:205490003C2014F03DFE84F002003EE16007A44F40F1A180A34880784FF00008CDF81C8095
:2054B000FF2804BF002013F057FD386890F8A00014F032F881464FF4947009EB000B3868D8
:2054D000C07A99F82EA1022818BF032806D106F10D0014F045FE08B9F01D0790594650463A
:2054F00014F04AFE90B33868807A010018BF012804D13146584612F054FC04E05A4651461B
:2055100030460EF06EFDFF283ED005FB00F806EB080506225946E81D13F0D0FE16F80800BE
:2055300040F0020A3868807E00F0010089F82E010622386800F114014FF49470484413F03C
:20555000BDFE05F1010B05F107081DE05946504613F074FFC0B15A46514630460EF041FD77
:20557000FF2811D06843351805F10D0014F0F8FD40B905F10D0014F0F3FD002804BF687F5D
:20559000012801D14AF0020A09F12C0009F106050178069153464189090905910122A98B1D
:2055B0000491C088CDF8088040080390CDF800B0079801900020297814F0A2FDD9F89C015F
:2055D0005649884228780CBF002101210CF024FC84F0040099E0200610D500200690059041
:2055F000049003900290019000900023012200213B2014F085FD84F0800086E0E0043BD52B
:20561000F11D06F10D0014F077FD38684179012923D1017A012918BF04291ED1C17A02297A
:2056300018BF032919D1817E00F1140230460EF0D8FCFF2811D06843351805F10D0014F018
:205650008FFD50B9E91D05F10D0014F055FD38680622E91D143013F031FE33484268334862
:2056700000784FF4805110F003FE10B18E2014F03FFD84F4805048E0A00505D514F0E6F80D
:205690002B4901200860FEE7600504D509F0CDFD84F4806039E0600405D5812014F028FD9E
:2056B00084F4804031E0A0042ED5224D286810B1002013F051FC4FF0FF3028600FF056F877
:2056D0001D4D296820316846096888471B4841682D681B4A00916B46816801910021029109
:2056F000016909680391017B00688DF81010ADF812002D6813491448A8471449086004F0F6
:20571000E1FD84F4005000E0002009B0BDE8F08F204F002000240020184F00204F45010007
:20573000104F0020684E0020784E00206E4F0020FC002043044F0020F04E0020A819002030
:20575000D42E0020F81B0020A82B0020EC4E00202DE9F043DFF8AC43DFF8AC3394F80080C6
:20577000DFF8A8E3DFF8A893DFF8A863DFF8A813B8F10D0F83B0404641F2064741F20242BC
:205790004FF4A05553D8DFE818F0BB010E000E000E000E006D00A500E9001D015F015F01FA
:2057B000900190019701DFF87413DFF87473C3F800E041F2044E4C8874451CBFB1F81A8038
:2057D000F0450BD0B1F83290F1451CBF41F20A4E744503D0F04518BFF14502D1A6F800E083
:2057F0002AE0022CDFF83C73348036D94FF4806CB4EB0C041CD0241F012C1FD94FF47F7CA8
:20581000B4EB0C041CD04FF4406CB4EB0C040FD0A41E012C0CD9241F0AD0641E012C0DD9DA
:2058300040F2F930241A012C17D9241F08D05FE1022814BF3580BC4F1F60FDE0BB4FFBE742
:20585000BB480068007A012803D14A804A834A86F2E74D804D834D86EEE7002013F07CFB37
:20587000832049E1B348418831800229C3F800E014D940F20442891A2AD0491E0ED040F297
:20589000FB32891A1DD00A3901291AD940F6F632891A03D0491E1BD0491E012940F2C680AC
:2058B000091F15D0491EF9D0491E11D04FF47E72891AF3D0491E0BD0C91E09D0491E012927
:2058D00047D8817B478025290CBF2721491E817399483CE09948418831800229C3F800E0FC
:2058F00068D940F20442891A30D0491E62D040F2FB32891A23D00A39012920D940F6F632EA
:20591000891A57D0491E21D0491E012952D9891E13D0891E1AD0491E4CD0491E16D0891E07
:205930000BD040F2F632891A44D0491E0ED0C91E0CD0491E012902D90BE0814807E0817B60
:20595000478025290CBF2721491E81737D48186072E0002013F000FB84206BE099F8020085
:20597000FF2855D07849C3F800E01C2209685043084440F204444188744A3180091B0129E1
:2059900046D94FF47F74091B15D00A39012916D940F6F634091B032984BF491F01290FD9D0
:2059B000891E012934D940F2FD34091B08D0491E012904D93AE041F20141418000E0458037
:2059D0001A6039E099F80200FF2821D05E49C3F800E01C240968604308445D4C4188318074
:2059F00040F20446891B012912D94FF47F76891B17D00A39012916D940F6F636891B13D05A
:205A1000891E012984BFC91E01290DD9891E012976D940F2FD36891B06D0491E012902D900
:205A300004E0428000E045801C6005E0002013F093FA852014F08CFB03B0BDE8F0434548B2
:205A50000078012109F054BC4A88328040F20443D21A55D040F6FC73D21A15D0083A4FD0AE
:205A70004FF47F73D21A22D13B4C3C4A24683C4800680023CDE9002308343A4B2468022210
:205A9000A047394908803BE0092810D137480068408960B1364800780EF096FE002100204E
:205AB00014F022FB002020702AE048883080002013F052FA85201FE04A883280022A0DD9D2
:205AD00040F20440121A1BD040F6FC70121A05D0083A15D04FF47F70121AE8D1887B801CA9
:205AF000C0B2B528A8BF662088730020488007E0002013F031FA8420BDE8FE4314F028BBD1
:205B1000BDE8F7836F4F0020204F0020359A0100684E0020504F0020142F0020204A002097
:205B3000413F0000CDD30000CDF80000755B0110104F00209C4C0020851C01006C4C00208E
:205B5000A95F000079280100A42B0020DD83000049B800006E4F0020F04E0020020000807E
:205B7000EC4E002051670100424F0020AC2F0020714F00202DE9F84FDFF8F443A078FF28CC
:205B900004BF002013F0E8F9A07813F0C5FC04464FF4C97004F1680625183068006804F1F7
:205BB000900708B100200EE0B07B002804BFB07E002809D13878002801BF28780028207F32
:205BD000012801D1608CE0832089E18B0818401C6081204612F0C8FD01281EBFE548007821
:205BF000012804D10020E0832089401C6081B07E01280CD1B28B6189208914F071FA30B1DA
:205C100021896289481C82422AD0B28B1FE0387801280CD17A886189208914F061FA30B1F6
:205C300021896289481C82421AD07A880FE02878012815D16A886189208914F051FA002811
:205C50001FBF2189481C6289824209D06A88824206D0501E608180B214F03EFA401EE083B6
:205C70002878012801BF68882189491C884207D16A792A71002028701346A1790AF01CFD2E
:205C90004FF49A702044007920B10020E0832089401C608104F12E07B07E012801BFB08B14
:205CB0002189491C884237D1608104F18601204612F0F2FEB08CE189608400202077E0839A
:205CD00060890818A0812189B08B14F005FAB988328C01FB0028708CF28C884204BF3B89B4
:205CF0009A4202BFB18CFB88994207D0110900914208B38CA179002014F012FAB07F387030
:205D1000708CB880B08CF880F08C3881204613F0A1F80220B07601E0B7F80480E08BDFF8B6
:205D30005892411C01FB08F140F6C41808FB01F200922268DDF800C0D3686344DFF83CC2A7
:205D5000D360DCF800C08E4A9CF800C013884FEA9C1CBCF1030F12D199F80FC05FEACC7C21
:205D700048BF00230BD45B1C9BB2012B07D14FF49A7CA444BCF806C00CF2DC5C01E0B4F8C4
:205D900012C00CFB01FC4FF4C87EBCFBFEFCDFF8F4A10CF1010CC4F814C04FF01C0B1380E4
:205DB00084F82000A161A279DAF800102068C3680BFB02F20A4492680261A279D4F814C025
:205DD0000BFB02F20A44A3EB0C039360A2790BFB02F20A4492688260A0790BFB00F0084441
:205DF000017B01F0F00141F002010173A179DAF800000BFB01F1084400214180287908B919
:205E100013F0AAF8A179DAF800000BFB01F10844297949080174A179DAF800000BFB01F151
:205E30000844002141742879042812D1A179DAF800002A7A0BFB01F10844017C41EA820181
:205E50000174A179DAF800000BFB01F10844202141740022A079DAF800100BFB00F0084438
:205E700042824948A2790068D4F814C000EB4212536903EB4C035361B27E022A07D1A2795F
:205E90003E7800EB4212536908FB0633536199F80F20D20740D5A2790BFB02F20A44936845
:205EB000A3F5A8639360A2790BFB02F21144226889689160009BC91A1161A17900EB41111F
:205ED0004A6902F5F6624A612979042906D1A17900EB41114A6902F5B0624A61A17900EB9C
:205EF00041114969C4F8341128490D6BBB88A2792D6808FB03F300EB42125B1BA3F51673E2
:205F1000D361A27900EB4210214A1278012A0EBF0121896A497818E0A279297900EB42122E
:205F3000042952690CBF4FF44B614FF4E661511ABA8808FB02F2A2F516729142D4D30821BF
:205F5000204612F052FD01200FE0C172A179DAF800000BFB01F108442168486007200D4959
:205F70000870204610F00BFD0020BDE8F28F00BF684E0020784F00205C4D0020084F002029
:205F9000C42F0020A42B0020A42F002048B10100734F00206F4F00202DE9F84FDA4DDFF8E7
:205FB0006C832868DA4F807CDFF8689313F0B4FA296804460020487104F12E0A286810F039
:205FD000F1F8012060711C2598F80100401C88F8010080200CF0ACFE20607969C160CE4848
:205FF00001894900AAF802105146C07940008AF80000BAF804004000AAF80400BAF8080022
:206010000001AAF80800204612F046FD0520A081204612F01FFF386814F05AF8062210F828
:20603000081FC1F3801184F82E11811C4FF49470204413F043F93968B84F096800200871F0
:2060500041F62202A1793868694342520022A179694301444A80A17969430844426099F89F
:206070000200400609D5AE48008841F20A4188420CBFAC48AC48C4F89C012046D4F89C1139
:206090008847A27939686A4311448873A1793868694308440021C173A179386869430844AF
:2060B000807B8AF80B0094F8960108B912F054FFA17938689D4E6943084494F89611491ED8
:2060D00001740022A17938686943084400214174A1793868694301444A82A179326802EB79
:2060F0004112694301444A61A1796943084490498161A0790AF0A6F8A27931685201885044
:20611000A07940010A5822B90721204612F06DFCF5E008441F2202763068A179DFF814B2B6
:2061300000EB411000214176DBF80000A17900EB011014F005F8A179DBF800203068DFF8D5
:20615000F8B102EB011200EB41114A6004F16801A27900EB421252680A60A279520182587B
:206170008A60DBF8141091F800C094F806E05FEACC714CBF102100215FEA8C724CBF2022FC
:2061900000225FEA4C734CBF402300235FEA0C7C4CBF4FF0800C4FF0000C1143194300EBA7
:2061B0004E104CEA010141F00F0101723068A17900EB41100B2141723068A17900EB4110CA
:2061D000042181723068A17900EB41105B49097801291CBFDBF828100978C1723068A1790E
:2061F000626A00EB4111CA60A17900EB4110A16A01743068A17900EB4110A16A090A4174C5
:206210003068A17900EB4110A16A090C817408214B48007809F06CF82168A2793868CB6863
:206230006A4302449360CA680A61CA688A60A17969430844017B01F0EF010173A179386812
:2062500069430844017B01F07F010173A179386869430844017B01F0F00141F0020101731D
:20627000A179386869430844417B01F0F00141F0010140F6C4134173BAF804203068A17942
:206290005A43DBF830301B6800EB4111D21AA2F516724A61A17900EB4110C17C01F0F00133
:2062B00041F00401C174A1793868694308442168486099F8010080061BD54FF497702044CA
:2062D000408F1B2801BF4FF497702018808F1B280BD14FF497702044C08FB0F5A47F04BFA4
:2062F000B4F86E01B0F5A47F03D0142120460EF097F8144908200870A07988F80200BDE873
:20631000F14FFEF7BBBD00BF184F0020684E0020AC4B0020302F0020844C0020A42B00202F
:20633000504F00204F45010061520100A42F00205C4D00208C4E002048B10100734F0020B3
:206350006E4F00206F4F00202DE9F04F0F46BD4C0168616241688068ADF1140DA060BA4841
:2063700061608047B948616A01606168DFF8FC924160A168DFF8F0828160B549002FA24641
:20639000C16068D03D68E8788DF8080028798DF8090002A813F098FEA86808B1AD49016070
:2063B000E86808B1AC490160AC4C2878207068786070A878BE68A0703178E17073686360A8
:2063D00072696261B168A160F168E160316921612E697B68A6621868A0616869E062A86918
:2063F0002063287F84F834002A6AA263786886681EB9002012F0B0FD00E026627868C06836
:2064100018B9002012F0A8FD00E060627868406818B9002012F0A0FD00E0E0612869A06266
:20643000F86881680E6806B98E4E8D494FF0010B4E60C66881F801B026B9002012F08CFD41
:20645000F86801E041460E6000684D46FE68A8617068E86105E0002012F07EFD4FF0010B9E
:206470004D46D8F80000824944686A1C05F114035020A04718B1D8F8000080688047DAF82E
:206490000400804703907B487C4C286100272771B946E770784EA770300BC6B2401CC1B206
:2064B00026703846617028E0304639466A46042311F022FA009BA078B3F5801F0ED043B922
:2064D000B9F1000F03D048460FF034FDA078B14610E030460FF02EFDA0780BE0002804BFD5
:2064F000301CA67006D00FF025FD30460FF022FDA77038466178761CF6B2B142D4DA98B905
:20651000B9F1000F08D1207812F0BEF90420E08020793946A0B912E084F8029011F06CFB2B
:20653000484607F047FE07E0B9F1000F02D048460FF000FD11F060FB2079394600B95946B9
:20655000081C02D1384612F007FD3C464C4ED8F80000B4608069AC608047706049484780CC
:2065700080F800B0142013F0BFF8FF211422A86213F07EFAE81CFF21022213F079FA142028
:2065900013F0B2F84049086008681422394613F06FFA3846FAF70EFA584611F061F83B48CA
:2065B0000188FF2906D1022101807822001D394613F05EFA032013F083FD042013F07CFDC8
:2065D000052013F075FD062013F06EFD07200EF057F92F4E0820307006F1400013F060FD2C
:2065F0000EF090FB363605200A21324611F0DAFD38B13846C0F10901401C06F8011B0A282C
:20661000F8DBD8F80070234909200DF10A0201AB7E68087010202146B047A86AEA690A278A
:206630000A309DF80A1000F8011BDAF808107F1EF7D1921E0398EA61884704F005F805B0F3
:20665000BDE8F08F2C16002041490010F844002028A20100A57F01005D9101008019002016
:20667000B01C0020575301005C1D0020C01A0020518801006D92010000D001008C2F00205A
:20669000682F0020581D0020B82F002044170020B4110020D12F00202DE9FF47C44C0F4656
:2066B0000646F80B80F05981B80880F04681207BDFF80893B90F80F0BA80A07A002840F049
:2066D0009A803809C0F09980E07A20B10020E072052010F00FFF00254FF00108B549657076
:2066F00004F178002A4684F8088013F0A4F9607901281AD1A079C0B9DFF8BCA2DAF8000083
:2067100000283CD048460068006B8047A1695346401A000BE0611968226A8018B0EBC11FA4
:2067300098BF20622BD9256201E084F8058040F609002087A24994F845000A1D00F0F0005A
:2067500040F0010084F845001368658794F8440000F0F00084F8440023F002001060E56393
:206770006FF002020A6004F1380341F8103C08688008FCD30A60486840F002004860914AF1
:206790001068914920F00200A56140F400701060032341F8043C41F230038B60404608608D
