:2000000000400020D965010001C9011001C9011001C9011001C9011001C9011001C901101F
:1C00200001C9011001C9011001C9011001C9011001C9011001C901103FC9011089
:20003C0080B54FF4FC720FF278011A4810F0FAFE194800210170012141740221C17601BD08
:20005C002DE9F0410FF25021144838220B684C688D68CE680F69D1F814C0D1F818E0D1F824
:20007C001C80036044608560C6600761C0F814C0C0F818E0C0F81C8020312030521EE5D1F7
:20009C004A688B68CC680968016042608360C460BDE8F081480400215903002100C000210F
:2000BC00410500217D0500212D06002170B51D46004C204787B2000010B5014800470000FD
:2000DC00D509000070B5614C6148254650358047022809D14034E1885E4A914204D1E97C5E
:2000FC00890601D4911DE18070BD70B557495A4A084650300378002B10D08379012B0DD181
:20011C00037C5B09DB0709D0097D544DC1746C7F20202043687790476C7770BDFF21C17420
:20013C00904770BD10B54E48484C804702280ED121464031CA88474B9A4208D1CA7C5209CE
:20015C00D20704D0227D920601D49A1DCA8010BD70B53E4843494030C07C4009C00707D032
:20017C003E4D41482C8B2043288388472C8370BD884770BD10B53B48344CAC388047214609
:20019C0053310A789309DB0705D04034A2730A7803231A430A7010BD2C4940310871182876
:2001BC0012D004DC0A280BD00B2804D10AE025280CD02A280CD02D4980004018C0687047DE
:2001DC002B4870472B4870472B4870472B4870472B48704770B504461C484E252D5CAE09AB
:2001FC00F60716D0067D3007000F052803D00120054202D00DE00220FAE7E80905D07006D1
:20021C0003D54868800F012803D05B085B0052085200062B03D01020022B11D011E0FB20F7
:20023C00024002232046FFF741FF002807DAC100611A2039497E1422114200D1002070BD93
:20025C00024303432046FFF731FF70BD4401002137CB000004140000EBC80000A800002142
:20027C00F5B4000053AD00002020000080DF00001D050021F9040021CD040021930400210F
:20029C006D04002110B5034CFFF716FF20680028FAD110BD0011044068610000F825F965B0
:2002BC00F9754500450045002600260057A3520052004C00401F401F401F3F000000000053
:2002DC00304000400140034007400F404F40CF40CF41CF43CF47CF4FCF3FCF2FCF1FCF0F6C
:2002FC00000000000000000000000F00080000003F00000040003F000000040068000E0093
:20031C00DC00060043001A00050000000000020000000000000000000400C00000000400B3
:20033C00C000000007000000000000000000000000000000000000003040004001400340A6
:20035C0007400F404F40CF40CF7FCF6FCF5FCF4FCF3FCF2FCF1FCF0F00000000000000009D
:20037C0050C00091007070C00091007082312100319110B10070018101B100A1823132910D
:20039C0010B101911110418141227740F106007051C0019130181039833108D01831416FD1
:2003BC003100319110B18314141683680070251050C00091F4C340C12014036F3110410497
:2003DC005082F0229840512622C082312100319110B163393110410482C08231210031919B
:2003FC0010B163393110A2C082312100319110B150101531051405920070676452C03110A6
:20041C0031066131C1026A6412C13110213971065131E1026A64007051C0019101CCE2C0CC
:20043C006A64676411C1C2C06A6450B054B0007140804022D6440022C94060B08180111EC9
:20045C00C944007054A064B0F0800022C9404012B09032B070C1DF6811C122C16A6470C1C0
:20047C00E46851C00191E2C0823160820200329110B130C2EE68538253395339B16460C347
:20049C00F4688012B09032B00070676401C122C16A6401C1C2C06A645382B164C012B09074
:2004BC0032B00070676472C281C06A6422C111C16A6402C011C16A6462C031C36A6462C3D2
:2004DC0011C16A6402C311C16A6453825339B164E2C36F6411221C4142C281C86A6452C24E
:2004FC0011C16A6472C2E1CE6A6402C281C86A6402C201C86A64B0C030690070676442C211
:20051C0001C86A6452C211C06A6472C2E1C06A6402C001C16A6462C001C36A6422C101C127
:20053C006A6462C301C16A6402C301C16A645382B16400708180111E5C4150B054B000712B
:20055C00408040225D4154A064B0F1800122514500700022514160B04E61000000000000AA
:20057C000000000000000000067305720B720E7250B00071818060B050A09280F0EFF1928C
:20059C0002936A6741228C458080F1C11004301601110114016CB561B661B761B861B9618D
:2005BC00BA61BB61BD61BF61C161C36126632D63F0C002043231412A121432160111211412
:2005DC00016CDA61C561E061C761CB61B561B561B561F461C561FA61C761CB61B561B56104
:2005FC00B561F461C561FA61C761CB61B561B561B561E761C561ED61C761CB61B561B56121
:20061C00B561CF61CF61CF61CF61CF61CF61C064CF61F964CF610665CF613265CF6174676A
:20063C00CF611166CF61C0644E65F964CF61066511663265CF618280E0DFF2926A67B0B044
:20065C00D661B1B00673057230B06C61D0CF6A6784C203C0C0C37C64207851788278E378B7
:20067C001579B6780062C0CF6A6784C203C0C0C37C64307861789278F3781579C678006250
:20069C00B0CF6A6784C203C0C0C37C6440787178A27803791579D678109221923292439281
:2006BC005492659256911FC0FF914039F00601101031101400927067CF61E3B054A0F08076
:2006DC0050221A4640800022BE461262E3A000C86091598150B0918041228E46A0CF6A6734
:2006FC0012828231823942398B641282F2062F101F312F141682D622334640C1346200C5AF
:20071C0020140D6F6D39DE10F4C34E0482C082312E006D39A2C082312D001A828A39FA0606
:20073C002082803180390BC00B18BC10AC18038239149B141082F0060110103110145181C2
:20075C0010140C14C622C94631D0C1266462021011C0013010C00118021882312100C126C2
:20077C00919103B013B063B053B041800122BE46B481C491D581B51C774E95186591F0803E
:20079C00102269428C623D9110B13E9110B1E08000228146E6228142E0B0951865910F926B
:2007BC005981F914F0805022114210228C464D6390CF6A6763B052A03082F2C0200402107E
:2007DC0011C0013010C00118021882312100C1269191919113B003B063B053B064B054B055
:2007FC00007141800122BE4663B064B0F08050221142B181C191D1819118619131B0A462D0
:20081C002967E0A059810582591480C0007163B0BA6A6962E3A0018262818231823D80EF61
:20083C00F19202936A6703A0007037824739873930828039F006021011C0013010C0011849
:20085C00021882312100C126819102B012B030824039F006021011C0013010C001180218E9
:20087C0082312100C126919103B013B063B053B0007153A062B052B041800122BE46A4816E
:20089C00C491D581B51CFE4E95186591F0801022F0428C62B481C491D4814518751C084FEB
:2008BC00F0801022F0428C623D9110B13E9110B1E08000221247E6221243E0B065910F92DC
:2008DC005981F914F0805022114210228C4630632967E0A0598105825914F0C0007162B038
:2008FC00226BF062A2808B64CF6112824239F2068B6050B00071CF6170CF6A674082418096
:20091C000122BE46A481C491D58195186591F18011228C46336B41800122BE46A481C491AB
:20093C00D581C51C1C4B95186591F08010223F438C6260CF6A67408241800122BE46B48169
:20095C00C491D58195186591F18011228C46506B41800122BE46B481C491D581C51CB44A55
:20097C0095186591F08010225C438C62E092D08200226B47C0B20070A080F022874330B033
:20099C0002C1623101C0A080001E8043F022814380F86031603981632010101A136F236E5A
:2009BC0011161216826B00702DE9F84FDFF81885DFF8181588F80000002008600921DFF891
:2009DC00100501700D2141804FF408718180DFF80405DFF8041501608A7EDFF80005027042
:2009FC00FF2ACB7E437008BFFF2B0D7F85704E7FC6708F7F0771C97F417115D1FF2D08BFE8
:200A1C00FF2E11D1FF2F08BFFF290DD1DFF8D0140A7802704A7842708A788270CA78C27025
:200A3C000A79027149794171DFF8B81402780A70FF2542784A7082788A70C278CA7002791E
:200A5C000A7140794871DFF8A014DFF8A004057045708570C5700571457100200880DFF888
:200A7C009014DFF89004466B70780870DFF8881430780870DFF88414B0780870DFF880142D
:200A9C0070690079401E0870DFF87814F0780870DFF87414B069086008B918F0DFFCF069F2
:200ABC00DFF86844206008B918F0D8FC2068DFF86074006880472168091D384609688847AB
:200ADC00DFF85004DFF850143862DFF850047862306A086008B918F0C1FC706ADFF8401468
:200AFC00086008B918F0BAFCDFF838B4DFF838649BF8040019F098F8306008B900F046B94D
:200B1C009BF80500DFF8247419F08EF8386008B9306838E19BF80600DFF8144419F084F8CC
:200B3C00206020B9306819F087F838682BE19BF80700DFF8009419F077F8C9F8000038B945
:200B5C00306819F079F8386819F076F820681AE1DFF8A41309789BF80000DFF8DCA3C91CF0
:200B7C00484380B219F060F8CAF8080058B9306819F062F8386819F05FF8206819F05CF880
:200B9C00D9F80000FFE0DC480078010000F00381BBF80210DFF8A4B3484380B219F044F883
:200BBC00CBF8040078B9306819F046F8386819F043F8206819F040F8D9F8000019F03CF887
:200BDC00DAF80800DFE0CC48007819F02DF8DC49086098B9306819F02FF8386819F02CF833
:200BFC00206819F029F8D9F8000019F025F8DAF8080019F021F8DBF80400C4E0BE4800783B
:200C1C001C21484319F010F8CE490860B0B9306819F012F8386819F00FF8206819F00CF807
:200C3C00D9F8000019F008F8DAF8080019F004F8DBF8040019F000F8C148A3E0AE4800780D
:200C5C00400118F0F1FFC0490860D0B9306818F0F3FF386818F0F0FF206818F0EDFFD9F8CF
:200C7C00000018F0E9FFDAF8080018F0E5FFDBF8040018F0E1FFB248006818F0DDFFB148A4
:200C9C0080E09D480078000118F0CEFFAF490860F0B9306818F0D0FF386818F0CDFF206831
:200CBC0018F0CAFFD9F8000018F0C6FFDAF8080018F0C2FFDBF8040018F0BEFFA04800681A
:200CDC0018F0BAFF9F48006818F0B6FF9E4859E089480078000118F0A7FF9D49086010BBFB
:200CFC00306818F0A9FF386818F0A6FF206818F0A3FFD9F8000018F09FFFDAF8080018F0B8
:200D1C009BFFDBF8040018F097FF8D48006818F093FF8C48006818F08FFF8B48006818F0BC
:200D3C008BFF8A482EE0744800783021484318F07BFF8849086070BB306818F07DFF38687B
:200D5C0018F07AFF206818F077FFD9F8000018F073FFDAF8080018F06FFFDBF8040018F076
:200D7C006BFF7748006818F067FF7648006818F063FF7548006818F05FFF7448006818F011
:200D9C005BFF7348006818F057FF002018F066FB4FF4804192E03168012008710022306870
:200DBC00057330684573306885733068C573306805743068457400203168C8723168487148
:200DDC00A0213068C180032101720720316848720020316888722821306841820121C1769C
:200DFC00002031684877316881F85E00012031680877316881F85D00396808713868057315
:200E1C0038684573386885733868C573386805743868457400203968C87239684871396886
:200E3C0088724FF420703968C88008818A7401213A68D17421680D7321684D7321688D7375
:200E5C002168CD7321680D7421684D7400212268D172012122681171002122685171216847
:200E7C00C8800881002088722168887405202168C8743948006880470546294800680068C0
:200E9C00804727490968091D00200968884719481C49C06809780088084330490880284657
:200EBC002F49096888470C212E4800F05DF80F4800F05EF800F060F84FF4005198F800006D
:200EDC00BDE8F44F0EF04EBB6E4F0020044F0020604E0020084F0020B63F00502C4E002093
:200EFC00E81200503C4E00200C4F0020344E00206D4F002088B601007B4F00206B4F0020E6
:200F1C00724F00206C4F0020F04E0020F44E00207C4B0020459C0100F84E0020559C010018
:200F3C00FC4E0020501D0020104F002038300020184F00203C30002004300020684E00205A
:200F5C00004F0020342C002034300020884E00208C4E0020904E0020C0160020544F00205B
:200F7C00C4160020F84D0020DFF800F0E5710110DFF800F01D6E0110DFF800F04D710110CF
:200F9C00B0B5174C241D20680004070C23D01248006800688047114991F90720824205DDF8
:200FBC0010F1800FB8BF6FF07F00C8718D88BD4210D80A68D4F8D40F801A801C1F2888BF16
:200FDC001F207F1B4008C7404FF6FF70EF19B84238BF071C8F80B0BDEC0100102C30002008
:040FFC003010094068
:20100000B41200001810000015AB0110FDB301106DC00110FDAE011099B5011000000000F7
:08102000000000002F00000099
:20102800B01200003C100000B1C00110A9BF011067C0011069B80110000000000000000035
:041048002D00000077
:20104C00B012000060100000BDC00110CDB30110D9BD01106DB3011000000000000000005B
:04106C002E00000052
:2010700000000000781D002004000000000000000000000020000000E8C901103000000095
:2010900028100000801D00200400000000000000000000000C000000D8CA01101800000070
:2010B0004C100000881D002004000000000000000000000024000000F0CA011018000000F4
:2010D00000000000901D00200400000000000000000000001000000018CA01102C00000000
:2010F00000100000981D0020040000000000000000000000200000006CCA0110240000006C
:20111000FFFFFFFFA01D00200400000000000000000000002800000090CA0110240000002B
:20113000FFFFFFFFA81D00200400000000000000000000001400000008CB011018000000AA
:20115000FFFFFFFFB01D002004000000000000000000000058000000B4C901103400000078
:20117000FFFFFFFFB81D00200400000000000000000000001000000020CB01101800000046
:20119000FFFFFFFFC01D00200400000000000000000000001C000000B4CA01102400000073
:2011B000FFFFFFFFC81D00200400000000000000000000003800000044CA0110280000009B
:2011D000FFFFFFFFD01D00200400000000000000000000005400000078C901103C00000010
:0811F000010000004CB60100F3
:0411F80001000000F2
:0411FC0000000E00E1
:0412000000000F00DB
:0412040032000000B4
:0412080001000000E1
:04120C00E01B0020C3
:0412100000020000D8
:0412140000000000D6
:0412180001C90110F7
:04121C0000000000CE
:0412200000000000CA
:0412240008000000BE
:04122800000023009F
:04122C00881A0020FC
:0412300001000000B9
:04123400F81B002083
:0412380008000000AA
:04123C00A01B0020D3
:0412400000000000AA
:0412440000000000A6
:04124800080000009A
:04124C00000000009E
:04125000000000009A
:041254000000000096
:041258000000000092
:04125C00010000008D
:04126000F01A002060
:041264000600000080
:041268000100000081
:04126C003419002011
:04127000000000007A
:041274000000000076
:041278000002000070
:04127C00000000006E
:02128000290043
:02128200010069
:02128400250043
:021286002D0039
:021288002E0036
:02128A002F0033
:02128C0001005F
:01128E00015E
:081290000300000000B601009C
:0812980000000000000000004E
:0412A0000000010049
:0412A4000000030043
:0412A80013C401105A
:0412AC00D9990100CB
:0412B000B812000070
:0412B400B81200006C
:0412B8000000000032
:0412BC00F81B0020FB
:0412C000619B01002D
:0412C4002000000006
:0412C80054B5010018
:0412CC007CB40100ED
:0412D00029C101101F
:0412D400DF780100BE
:0412D800837D010011
:0412DC00A1C7011095
:0412E000A3C701108F
:0412E4000000000006
:0412E80077B50100D5
:0412EC0074B20100D7
:0412F0008CB20100BB
:0412F4005CB20100E7
:0212F8000200F2
:0212FA000900E9
:0212FC000100EF
:0212FE000000EE
:0113000001EB
:04130400E19A010069
:04130800397801002F
:04130C00F58D01005A
:04131000217C01003B
:04131400517D010006
:0413180071780100E7
:04131C00D1340100C7
:041320006B9D0100C0
:04132400594C01001F
:0413280015C70110D4
:04132C0025C70110C0
:201330002DE9F04F814C04F11C012046ADF1440D14F03EFA04F1C0050021284619F006FA86
:2013500025627749754D1020EA1D0AF09DF800200122814673490090134604F5AC70CDF825
:20137000049013F0B5FFCDF800904FF4005101916D4944F620624B4604F5BE7013F0A8FFC3
:20139000CDF800904FF480410191E14949F640424B4604F5D07013F09BFF4FF480004EF6F9
:2013B0006022DC49CDF800904B46019004F5E27013F08EFFCDF800904FF480510191D6490A
:2013D00004F5F47049F640424B4613F081FFCDF800904FF400010191D04904F503704CF2DD
:2013F00050324B4613F074FFCDF800904FF480710191CB4904F5157044F620624B4613F057
:2014100067FFC94ACDF800904FF4007104F51E704B460191C349109213F05AFFC34E06F17E
:20143000180006F10C010FF051FDC149B06018F0CDFCC04FB0684FF4E0213A46521E16F0E7
:201450007BFAB0684FF4E0213A4616F075FABA4FB0684FF0C0513A46521E16F06DFAB068D0
:201470004FF0C0513A4616F067FACDF8009006F12400C8224B46B149CDF8049013F028FFBD
:20149000AF48706015F0D4FA04F52775284618F0E7F884F8B29284F8B19284F8B09284F8FF
:2014B000B3924FF41650C4F8B4022946484615F0DFFA6063002800F055824FF080404946A1
:2014D00013F080FAA06104F5827104F1CC000FF0FDFC9C4E206321211E22304617F0C6FAAD
:2014F000994849464FF6FF7217F0C0FA974849464FF6FF7217F0BAFA954849464FF6FF72F4
:2015100017F0B4FA934849464FF6FF7217F0AEFAA769B7B131460E799EB109E078B501005B
:20153000A1B50010016D01008D9C01000802002089488760032202704A46C260084616F01D
:2015500057F9864910200B2209F09EFF844D10200622A023294609F097FF10200722A02363
:20157000294609F091FF10200822A023294609F08BFF10200922A023294609F085FF10201A
:201590000A22A023294609F07FFF10200B22A023294609F079FF102002224FF4FA63294603
:2015B00009F072FF294610200C22502309F06CFF294610200D22502309F066FF29461020CF
:2015D0000E22502309F060FF294610200F22502309F05AFF102029465023024609F054FFC5
:2015F000294610201122502309F04EFF294610201222502309F048FF294610201322502383
:2016100009F042FF294610201722502309F03CFF294610201822502309F036FF29461020E8
:201630001522C82309F030FF294610201622C82309F02AFF2946102019224FF47A7309F069
:2016500023FF294610201A224B4609F01DFF207816F0A0FED3490246102009F015FFCB46E9
:2016700040F2053001218DF821B00DF12102ADF816B00AF0A9FB40F2063002210DF11602B0
:201690000AF0A2FB04F1E4024FF442700F210AF09BFB04F2291240F2073016210AF094FBB9
:2016B0000F2001210DF122028DF8220040F204400AF08AFBD14E04F1B000D14DB061287878
:2016D0006072307816F066FE0246F07A06F13407009006F144030197CA49029306F1140712
:2016F00003977378102009F0CFFE617A480000EB011080B210F0ACFEA06398B3677A97B3EB
:201710004FF6FF713E46761E20F8121BFBD12AE0159C0100CD9C0100059C01007D9C0100F9
:20173000AD9B01009D9C0100C0D4010080190020697301000E0005800E000010059A01009A
:20175000C99701004C1A002050170020E8180020501800209C180020681C002081B30010A7
:20177000BD840110677A380110F072FE206470B1667A66B10746A7F8069087F80090A7F8B1
:201790000490A7F80290761E07F11007F3D104F58A70CF4900904A461523102009F074FE0F
:2017B000CC4910204FF0FF3209F06EFECA4910204FF0FF3209F068FEC84EC94F1020132359
:2017D000C84A00903146019709F05EFE2878800010F03EFE0146C4488246816069B14FF63C
:2017F000FF7016F075F8C14910200AF12402009011230191314609F047FEDFF850831020B7
:20181000414609F041FED7491020042209F03CFE0125022703268DF8235004208DF82470A3
:20183000D1498DF8256006AB8DF82600891C48460A6809791A600DF12302197129460CF05F
:20185000D7FF09AA284601460CF0D2FF0DF12502384629460CF0CCFF0DF126023046294689
:201870000CF0C6FF0420052106AA0CF0C1FF04F15000CAF804004146102009F005FE20788B
:2018900016F088FDC8490246102009F0FDFD207816F080FDC5490246102009F0F5FD8DF820
:2018B0002B608DF827B08DF828508DF829708DF82A500DF129008DF82C504FF480622B4659
:2018D000BB4E00901020314609F0DEFD0DF12A0040F202422B4600903146102009F0D4FDD4
:2018F0000DF12B0040F203422B4600903146102009F0CAFD0BA80090314640F206422B462B
:20191000102009F0C1FD0DF12700314640F211422B460090102009F0B7FD0AA8314640F276
:2019300004422B460090102009F0AEFD04F1F300314640F2054200901020034609F0A4FD01
:201950004B463146102040F20942009309F09CFDD24904F1B802102009F096FDD0491020CE
:2019700009F092FD04F212370C9704F255160D96CC4D0E95DFF830830F95ECE217F066FDC7
:201990004CF25032002307F085FDD5484CF25031891A35E2A069B90F06D2780AC0F0DB820D
:2019B00020E0C0465188011012214A46C9A316F0D4FE18F037F904F1800282E803000720DD
:2019D00017F046FA04F1780003C804F180020CCA8B4208BF82420CD1A06912214A46D1A3B6
:2019F00016F0BBFE072017F021FA484611F092FBB1E2D04818F0DCFA0520F7E7E80A002015
:201A1000694F0020C5430100A16AB80E5DD2B80D80F05682207B00284DD0401E39D0401E23
:201A300029D0401E40F09782380A26D3C24818F0ADF810B1C04818F0BDFA606B04F1A0011B
:201A50004B4606C99A4204BF4A4691420DD1D1490A78510001EBC201491C8DF82E1001224F
:201A70000DF12E0118F049FA07E2CA490A78510001EBC201F1E7380A03D2B80A80F0FD81C1
:201A900069E211F00BFB012800F0DD8103202073B4E1380E0AD207F0807007F4007606435F
:201AB00000F05982780E80F0E581E6E10220207314F002FAA2E1780B80F0F081780DC0F057
:201AD0004A82012020739C4819E2CF4802E2C04651230100F98F0100ED930100EB820100A9
:201AF000DCB5010014110020C4130020E8B50100A16AB80E56D2E06AB90D80F0C281E07A54
:201B1000002842D0401E31D0401E40F02482780FC0F0218204F1800003C88DE80300A0694D
:201B30004A46CBA3122116F018FECC4A032008210CF05EFE01280BD00320E07218F072F8A3
:201B500004F1780282E8030005E2C04685160100A0690F214A46534616F0FFFD4FF080519C
:201B700072E1C0463997010078B50100380E09D2780EC0F0F081A06911214A46C9A316F0F8
:201B9000ECFD7DE10220E072E5E1780A07D2780DC0F0E1810120E07213F0EEFADBE113F0A5
:201BB000EBFA6DE1CC4895E131810110319E01005D780000B80D80F08780E07B002875D0EC
:201BD000401E59D0401E3ED0401E40F0C481F80AC0F0C181CB49484614F00AFF04F19802FD
:201BF0000CCA04F1900003C804F1A807121A8B4197E8030004F1A006121A8B4196E803007D
:201C100000252F46801841EB0301CA0F12184FEA520045EB0103D9070843D0F1000A4FEA61
:201C3000630167EB010B18F08DFD04F1700106C904F1700311EB0A0142EB0B0283E80600F1
:201C500018F07CFD1CE1F80AC0F0858117F0FEFB04F1A00282E80300BB4A032008210CF0ED
:201C7000C7FD012818BF032032D1A0690F214A46534616F072FD0EE0F80AC0F06C8117F0FF
:201C9000E5FB04F1980282E80300B049484614F0AFFE0220E0734FF48061D5E05D920100E2
:201CB000C5AB001040E20100681C0020380E0ED2780EC0F05081A0690F214A469AA316F094
:201CD0004CFD484615F034F814F020FA43E10120E07340E177616B696E672075702100C0AE
:201CF00038040020A16AB80E65D2A07B002853D0401E0BD0401E40F02E81F80BBFF44CAFE3
:201D1000380D45D2780D80F0BB8024E1A56C380C14D2F80CC0F01F81C14818F049F902201E
:201D3000A07318E1656E746572696E6720736C65657021005C04002080040020002D27DD7C
:201D5000B848DDF830A090F918B0022D14DB064607466D1E19361B37384617F079F928B1CA
:201D700096F918008345BCBF8346BA466D1E06F1190607F11907EFD10D98BAF1000F80F850
:201D900000B005D048462B2152460FF09BFDE2E003202BE665020020F80C0AD2B80BBFF4D2
:201DB000FBAE380DC0F0D78001204FF40041A0734AE0BB48A3E0BB488CE0A16AB80E80F006
:201DD0008880B80D7CD2607B002861D0401E47D0401E28D0401E19D0401E02D0401E24D010
:201DF000B9E0380A21D317F031FB04F1A80282E8030017F009F830BB05206073C048109929
:201E100015F0E8FDA7E0C04614020020380A0CD317F01CFB04F1900282E8030016F0F4FFD9
:201E300088B90420E9E7380A02D2B80A25D292E011F034F9012806D003206073E06980210F
:201E500018F078FCDAE78021E06918F073FC82E077726974696E673A2025640088020020E1
:201E7000380E10D207F0807007F40076064372D0780E02D3A24818F09DF8484614F058FF7C
:201E9000E06A804767E014F017F8022060731AE6780B03D2780D5ED30120F7E714F05AF96E
:201EB000EEE7C046426F6E64696E67206661696C65642077697468206D6173746572210048
:201ED0008F4817F063FE0028DAD08D4818F072F8D6E7B54888473EE0130200206679380B9C
:201EF00012D2B80C37D2F80E03D2380F33D3062000E0022011F00EF913F08EF8B74818F039
:201F100057F828E0B0020020002E18BF4F4603D10DF004FD4FF0FF37A069CFB914214A4651
:201F3000B9A316F01AFC16E050616972696E67206661696C65642120446973636F6E6E6560
:201F50006374206E6F772100A802002098020020062016F07DFFE0694FF0FF324946134638
:201F700018F0E4FB071CF6D04846049008A904AA05A815F081FE00284DD1BDF81400012699
:201F9000102843D120789DF8201088423ED1049801884FF6FF728A4235D14088C00835D36A
:201FB000E56B002D32D0207905F10803401C2071BB4900936A882B79102009F065FA5FFAFD
:201FD00080FABAF1160F12D02078BAF1040F0ED0E56B16F0DFF903464846C14900906A8800
:201FF000102009F051FA504611F030FA0EE02079009098F80010A0694A46C4A3491DC9B204
:2020100016F0ABFB02E000F0F5F90646049810B10EB117F0A3FFF80FC0F012810AE1C046F8
:20203000A803002018050020256A284618F07AFB854208BF4E4602D0866815F0E3FE301CFA
:2020500000F0F880A269318898F800009446491E00F0E780491E00F0A980891F59D008398A
:2020700003D0103900F0BC80E1E071688D78002D4DD0012D38D0022D27D0032D40F0908053
:20209000CD788DB90988C01C4A46A4A30091C1B2604616F062FB934817F08AFF80E0C04683
:2020B00084030020160200200A880092C978C01CA1A34A460191C1B2604616F04EFB4FF0E3
:2020D0008071E06918F036FB6AE0CD78002D67D10988C01C00919FA3C1B210464A4616F0EA
:2020F0003CFB4FF40001ECE7CD785DB99FA309880091C01CC1B210464A4616F02EFB4FE030
:2021100080040020098800919EA30195F1E7A2A3EDE770680078010922D2400940D30E2049
:2021300017F072FC00283BD1D8F8040098F8011003790A46934211D0FF2A31D000EBC20315
:20215000DD682DB900EBC100006915F051FB27E000EBC20003690846984721E08068F4E7CD
:202170000D2017F051FCD8B9D8F8041098F80100097981420FD0FF2812D0401CC0B215F0C8
:202190002DFDFF2802D1484615F028FD88F801000BF066FE04E0484615F020FD88F801005E
:2021B000706815F02FFE42E0150200207268E069117861B1891E04D0891E0DD14FF08051DE
:2021D00007E002200DF12D0114F012FC03E04FF4806118F0AFFA72681046E2E7F0030020E4
:2021F00075680E99C01C009171A3C1B210464A4616F0B3FA0F9800907B496A894B4610200F
:2022100009F042F9CCE7C0464572726F722121416C7265616479207363616E6E696E672121
:2022300000C0706800F0E6F8706817F097FE304615F0E8FD206A18F071FA00283FF4F4AE5A
:20225000380B15D317F002F98DE80300A0694A465BA30C2116F081FA17F0E4FC002906BFAF
:20227000002859A35CA3A0694A460E2116F075FA666ABEB1761E3FF431AE761E3FF49DADF8
:20229000761E3FF42FAD761E0FF25C0A3FF492AC761E3FF42DAC761E3FF4B6AB5BE6C04610
:2022B000DDFE0010A07AB90EFFF474AB00283FF465AB17F0CBF84CF25032002307F0EAF83F
:2022D0004CF25030821A4A4801274FF0005600974B464649019612F0FBFF84F80A903AE6C5
:2022F000479B0100140400204572726F7221204E6F74696669636174696F6E2073656E64B7
:20231000206661696C65642100C046C05273702073656E642072657472793A0043786E2069
:20233000256420626F6E642073617665207375636365737300C046C043786E20256420623F
:202350006F6E642073617665206661696C65643A2025640043786E20256420626F6E6469F7
:202370006E67207375636365737300C0636F6E6E48616E646C652025642070616972656467
:2023900000C046C070616972696E67206661696C65643A20256400C0636F6E6E48616E642C
:2023B0006C652025642070616972696E6700C04650617373636F64653A20256400C046C0A8
:2023D000703A20256400C04653706F74206973206F70656E2100C04653706F742069732037
:2023F000636C6F7365642100857D0100DD9C0100380400202DE9F04F05460120ADF1240DC9
:202410009B4C07902878913800F0BD83DFF864A2DFF838931F3800F0E682203840F0188443
:202430005046A84605900578616CA66998F80200002800F09B82401E00F0D781801E00F01F
:202450008B82401E00F0B181DFF838A3DFF838B3401E00F0D380401E5DD0401E00F06F8200
:20247000801F40F0F58398F80300002837D1E56C08F10507002D1DDD04F20C463046394688
:20249000062216F067FC88B9D8F810002B2116F02BFC78B198F8040008F1050111F08AFEBC
:2024B000002840F0D5834FF080619AE16D1E06F11906E3D198F8030088B9D8F810002C216B
:2024D00016F012FC58B198F8040008F1050111F071FE002840F0BC834FF0006181E198F8A3
:2024F0000300022840F0B483D8F81000C07A2A2840F0AE83A078401CA070D8F81000009077
:20251000D8F80410D8F80820D8F80C30D8F800000DF030FE9CE3192204F204504A43002116
:2025300010F057FC002510204946656408F0ACFFC7B2B8F8040016F08DF8617AA082814270
:2025500040F38683A26B41004FF6FF7301EB0011079E5352226C0301D55406FA00F0D1184F
:20257000CD8082B22946504616F080FAA08A294606FA00F082B2584616F078FAA08A864082
:20259000C4482946B2B216F071FA27B9C24829461C2216F06BFADDF814A0D4F818809AF85A
:2025B00000601020494608F06FFF761C00902A46B0A3F1B2404616F0D0F8A0699AF80010FF
:2025D0002A46B0A3091DC9B216F0C7F8607A401EB84210D156463178A0692A46CFA3891CDA
:2025F000C9B216F0BAF83178A0692A46D0A3491DC9B216F0B2F84FF40011F2E098F801704B
:20261000002F40F0C3802D1D30460022CFA3E9B216F0A3F80598A66905784946102008F098
:2026300033FF6D1C0090002292A3E9B2304616F094F808F104050020A07108F1040CB8F859
:202650000AE0677A069587B1A56B064601463A464FF6FF70123D35F8123F98420CD0521E02
:2026700006F1120601F10101F5D18B4D15263CE008020020681C0020A5F800E00F4660460C
:2026900013F00EF9AD1C01460F2228460EF0D0FB07980022B8401FFA80F95046494616F032
:2026B000E5F958460022494616F0E0F95546DFF8E4A100224946504616F0D8F9A06BFB00E3
:2026D0003618591903EB0B02B61C734DCE60E888D66003EB0A01CE60400904D228461C21D8
:2026F000002216F0C3F9FEB2677A1849102008F0CBFE874211D80799002740F2053004AA75
:202710008DF8107009F060FB0599A0690978CFA33A46891CC9B216F020F80599A36B0978CB
:20273000A069720002EB0612491D9B18C9B200229B1C16F012F8284615F05AF8676AB8F846
:202750000A00032F20821AD102E0C046F17F0110069904F5A0700A68898802601025818074
:20277000A66984F83F5113F09BF8009094F955010022BBA329460190304615F0EEFF4FF4FA
:2027900080112EE0E8180020501800202D1D30460022BAA3E9B215F0E0FF98F80100009003
:2027B00005990D78B9A36D1D0AE0657A4946102008F06AFE854209D851460D78CDA3AD1C1B
:2027D000A069E9B2002215F0C8FF41E25146A0690978002251A3891CC9B215F0BEFF4FF4D8
:2027F0000021E06917F0A6FF32E200206071062016F01CFB98F80300606498F80300D8B1F8
:2028100025480221002216F031F90798002504F2045B069098F80300A8423FDC0E2D0BDA5F
:20283000069E06FA05F082B2CD48002116F01EF96D1CEDB20E2DF4DB98F803000090059975
:20285000A06909780022CBA3091DC9B215F085FFA07848B9E078401CC0B20528E07040F038
:20287000F7814FF40031BCE70020A0700746E770EEE1C046436F6E6E656374656420746F7A
:2028900020256400446973636F6E6E65637465642100C0469C1800204C1A0020D8F8041047
:2028B000EF007818427819266E430BEB06035A70C95D0BF8061094F80290801C16F0C8FB54
:2028D0004FF0000A08B1DDF818A0A548BAF1000F00F10C00074403D009F10100C0B2A0701A
:2028F000D8F8041001EBC501891C0A685E44B01C02608988818012F0D3FF083601460F22AF
:2029100030460EF095FA0699002295483E60A94089B216F0ABF86F1CFDB27BE75265616483
:202930007920746F2041647665727469736500C0526561647920746F205363616E0098F857
:2029500003002D1DBCA3009030463AE7436F6E6E65637465642100C0AD1C30460022BEA35E
:20297000E9B215F0FAFE4FF480213AE7B8F80A00608208F1030012F093FF034629460022A4
:20299000304615F0EAFE55462978A0690022B5A3491CC9B215F0E1FE2978A0690022B5A31D
:2029B000091DC9B215F0D9FE08F10300CE4902680A6040684860079DCC4910202A4608F002
:2029D00063FD04F163014FF441700CF0A7FC4FF0FF3084F83F01284610F09CFB04F5AC7057
:2029F00017F0E6FA34E169782078162954D050462979A66900787E2900F104001CD07F2900
:202A100017D01B2954D1E9686A8904F1A0000EF00FFA04F1A00003C8002299A38DE8030040
:202A300030460C2115F099FEE069802117F082FE3EE0298994A301E0297A97A30091C1B20D
:202A50000022304615F089FE32E0C04643616E2774206164763A206E6F206C696E6B7300AA
:202A70004E65787420686F7020616464723A2025732C20727373693A20256400436F6E6E15
:202A9000656374204661696C656400C0526561736F6E3A20256400C015F07CFC03460420D0
:202AB000934900906A88102008F0EEFC002859D04946102008F0E8FC00284AD0688815F073
:202AD000C9FDA0822A790B2A32D0012A02D1297A0A292DD0132A1CD0012A02D1297A12294E
:202AF00017D0216C0001085C002832D0284609F08DFB2EE043616E277420416476203A2064
:202B10004D617820636F6E6E732072656163686564005146A0690978012A07D0E27962A3CF
:202B3000521CD2B2E271521ED2B20CE062A309E05146A0690978012A03D0EA68127862A372
:202B500001E065A32A7B0092491D0022C9B215F004FE297905F1080017F0DCFD78E0C0465D
:202B700050170020079810F071FCE563002007906EE0C0464465766963657320466F756EE4
:202B90006420256400C068780E383BD0801E5BD02E385DD1A878A66C802859D10A2E57D067
:202BB000002E05F10509A0460DDD08F21237344648463946062216F0CDF8002848D0641E84
:202BD00007F11907F4D14A461168192000FB068404F54474A01C016091888180104612F001
:202BF0005FFE01460F2204F108000EF021F9E87AE07595F90C00207628796070771CC8F830
:202C1000487025E0A88842F20301814220D1A9680878E8B9491C02A80A684968026002AF54
:202C300041603878334902AA00F0FD003870102008F02AFC0CE0C046506172616D20557060
:202C500064617465202564000820002107F028FF079809B0BDE8F08F4164766572746973F8
:202C7000696E6700436F6E6E656374656420746F203000C0496E697469616C697A656400EA
:202C900054323A20257500C04D54552053697A653A20256400C046C046432056696F6C61EC
:202CB0007465643A2025640057726974652073656E743A20256400C057726974652045727A
:202CD000726F7220256400C052656164207273703A20256400C046C05265616420457272C9
:202CF0006F7220256400C0467F100020A58A0100479B010095B400102DE9F04F0F4685B03A
:202D1000804617F8010B8DF800004FF4B07008EB00044FF49C7008EB00059DF800104FF4B4
:202D3000C67008EB0006182908F1E70A08F1660908F20D1BDFF86C0700F2A183DFE811F077
:202D500019007200660194009F039F03FD007903140127010101100138019F039F038401CE
:202D70009F0368015C018503E402E40236029F03810217F8010B88F886000222394608F16D
:202D9000880017F0C3FC0146022208F18A0017F0BDFC0146022208F18C0017F0B7FC014636
:202DB000022208F18E0017F0B1FC074698F88600400088F8860008F1860108F186000222D8
:202DD00040884000488008F1860080884000888008F18600008900010881394608F18400B6
:202DF00017F094FC08F10601B9F81E004988401A80B247F6FF7188422BDA08F1860008F10C
:202E10008601C0888988401C4900484308F186010989884228BF3B2080F04082012089F8A0
:202E30001C001CE00522394608F1610017F06EFC0146022208F1920017F068FC08F1860019
:202E500008F1060180894988401A80B247F6FF71884280F2228208F186010120887208F1DB
:202E70000601002008834CE29AF81600C0070AD41A208AF80E009AF80D00012808BF0D218E
:202E90003FD00D21D7E1002089F8000089F80600082201208AF81100394608F1B00017F0F8
:202EB00035FC0146022208F1B80017F02FFC08F1A80401460822204617F028FC0746082166
:202ED000204617F01FFC08F19C0404223946204617F01CFC0421204617F014FC08F1A0005C
:202EF00017F00CFC08F1980017F004FCDFF8B805018841F0800101809AF80D00012806D12C
:202F10000421404605B0BDE8F04F14F0E9BA99F81000012804BF99F811000F280BD14046EE
:202F300011F072FF0421404611F030FC0F2089F81A00FD217FE104217DE101208AF80F00BA
:202F5000ACE2002089F8000089F806008AF800000B2101208AF80D0000208AF801006AE15F
:202F700001208AF8100099E2002142187B5C547A23437B5452781A4008EB0103491C08290D
:202F900083F8FD20F1DB404611F0DCFA7CE2002142187B5C547A23437B5452781A4008EB96
:202FB0000103491C082983F8FD20F1DB022053E299F8060008B93D2070E19BF800000128EA
:202FD000D1D017F8010B8BF8030002224FF489703946404417F09AFB01464FF48A700222F8
:202FF000404417F093FB01208BF800009BF8020000281BD10C211EE19AF81600C00601D4EC
:203010001220D9E0404612F0EBFC3DE2387845E1387820707878607099F8100001280DD1A9
:2030300099F811000F2802D0162803D036E20120687333E2307B40F001001EE205B0BDE865
:20305000F04F002016F010BA9AF81600810706D41121084201D10F20AEE01A2254E03878FC
:20307000797800EB01202882F978B87800EB012068827979387900EB0120A882F979B87986
:2030900000EB0120E882387A2876B97A787A00EB01206883397BF87A00EB0120A883B97BAD
:2030B000787B00EB0120E883397CF87B00EB01202884B97C787C00EB01206884397DF87C6B
:2030D00000EB0120A884B97D787D00EB0120E8844FF4AA7040440490688B0390287E0290D2
:2030F00008F1060040880190E88A0090AB8A6A8A298A40460FF0FAFB68B19AF81600400708
:2031100001D40F2058E01E22404605B0BDE8F04F0F2113F09DBF688A08F186018880A88AC9
:20313000C880E88A0881022088F886000020488008F1060108F10600C08DC01DA9F81E0044
:2031500008F18600898D808888420FD108F1860008F10601C088C98D884207D108F18600DA
:2031700008F106010089098E88421DD099F81000012804BF99F811000F2807D099F8150085
:2031900020B10F2089F81A00FE2154E0FC21404611F0FCFAE88A0090AB8A6A8A298A98F829
:2031B000060017F0A3FA79E1102144E09AF817000921084203D116208BF80C0061E17978BD
:2031D000387801F00701084038700146707B0840F07212D0411E08420DD0400703D5B07BB8
:2031F00008B1042003E0F17A0220014201D0F07201E04008F9D1F07A08B9B07AF072F07AE8
:20321000042803D1404612F0B2FCA083F07A17F069FA3071A28BB17B012313F089FC014684
:20323000208B884205D3A28BB17B3079012313F07FFC70801721404605B0BDE8F04F11F045
:20325000A5BA78783978814207D100F007000840387034D0421E10420FD01E221821404648
:2032700013F0F6FE98F80610002300221E200DF063FB307B40F04000FFE0F072F978B878C6
:2032900000EB0120308108F1060130894988401A80B247F6FF71884206DB28208BF80B001D
:2032B00001208BF80A00F9E00120B071F07A042803D1404612F05BFCA083F07A0BE099F8E3
:2032D0001100162806D1B27A98F80610134600200DF032FBB07A3071A28BB17B3079012352
:2032F00013F026FC0146208B884205D3A28BB17B3079012313F01CFC7080307B40F04000B9
:20331000307301202870C9E03878797800EB01206082F978B87800EB0120E0827979387957
:2033300000EB01202082F979B87900EB0120A082A18AE089884288BF0846B17A042904D1DE
:20335000B0F5296FD8BF4FF42960E28BE0839042B07A14BF4FF001094FF00009042803D18D
:20337000404612F004FC04E0A089E18A884288BF0846A28BA08390422089628A238B14BFA6
:2033900001210021904288BF1046984241EA090114BF0122002242EA01052083A28BB17B16
:2033B0003079012313F0C4FB0146208B884205D3A28BB17B3079012313F0BAFB7080618922
:2033D000208A628B814288BF01466183914214BF0120002005438A42344998F80620096872
:2033F00001EB4211628B8041121DC00F0A7610B1404614F009FB9DF80000142810D145B15B
:20341000E08B0090638BA28B218B98F8060017F065F9404605B0BDE8F04F15210EF080BE4E
:203430001DB1307840F008003070307840F020001BE038780E280ED00F2809D0122804D059
:2034500014280CD0162812D028E00020287225E00120287322E003208AF815001EE030783F
:2034700040F00200307040F01000307016E0307B40F00200307340F0100030730EE08BF8C0
:203490000C10404611F0A4FE40B905B0BDE8F04F074800784FF480410CF06AB805B0BDE802
:2034B000F08F00BFC02F0020524F0020343000206E4F00202DE9F04F0D4685B0814615F8DC
:2034D000010B8DF800004FF49E7009EB00064FF4B0709DF8001009EB00044FF4C670891EE0
:2034F00009EB0007152909F20D1B09F1E70809F1060ADFF8680700F29C83DFE811F00F013E
:203510009A031600440048007A039A03C3009A037D00D600810088001701E9012802040155
:203530008403E802E8022F02A00209F1A00608222946304617F0EAF805460821304617F0C4
:20355000E1F809F1980404222946204617F0DEF80421204617F0D6F800214842484409EB89
:20357000010290F89F0082F8BF00491C0829F4DB09F1C702314609F1D70017F0ABF801209D
:2035900088F8000066E3012088F8130062E398F80D1098F81600012900F010000DD130B11D
:2035B0000020707130684108B07910F0CFFD9AF80000002117F08AF811E050B14FF4A170A2
:2035D00009EB0003306842084946DFF8940616F05DFC9AF800000122002117F073F801203A
:2035F00089F86600484613F020F909F166010120887188F80F002DE3012088F8100029E353
:20361000287888F80E00012088F8140022E398F8121001291DD198F8001001294DD098F871
:203630001610090704D40E208BF80C00072100E2002142186B5C567A33436B5452781A403A
:2036500009EB0103491C082983F8FD20F1DB0921EFE198F81610090758BF0E2058D5002115
:2036700042186B5C567A33436B5452781A4009EB0103491C082983F8FD20F1DB484610F070
:2036900061FFDDE2002142186B5C567A33436B5452781A4009EB0103491C082983F8FD206A
:2036B000F1DB022088F81500D4E298F81200012804BF98F80000012806D13D208BF80B00B8
:2036D00001208BF80A00C5E29BF800000128FAD015F8010B8BF8030002224FF48970294691
:2036F000484417F013F801464FF48A700222484417F00CF801208BF800009BF8020000287C
:20371000E1D10C2195E198F81600C00658BF122040F19182484612F063F991E228788BF8C9
:203730000B00F02100208BF80A000AE198F81600810707D41121084208BF0F2000F07B825D
:203750001A22F6E009F16601097C012902BF09F16601497C0F2911D009F16601497D0A0006
:2037700003D009F16602527C22B109F16602127F012A05D1400758BF0F2064D52322D8E0AC
:2037900021B109F16601497C012904D009F18601897A012905D1400758BF0F2053D52A229E
:2037B000C7E02878697800EB0120B081E978A87800EB0120F0816979287900EB0120308255
:2037D000E979A87900EB01207082287A3075A97A687A00EB0120F082297BE87A00EB01207C
:2037F0003083A97B687B00EB01207083297CE87B00EB0120B083A97C687C00EB0120F08331
:20381000297DE87C00EB01203084A97D687D00EB012070844FF4AA7048440490F08A039039
:20383000307D0290BAF802000190708A0090338AF289B18948460FF059F838B198F816008B
:20385000400758BF0F2040F1F68171E0F08909F186018880308AC880708A0881022089F8A8
:2038700086000020488009F16601BAF82E00C01DC88309F18600BAF82C108088884201BF61
:2038900009F18600C088BAF82E10884206D109F18600BAF830100089884217D009F16600B3
:2038B000407D28B109F166010F208876FE21C0E0FC21484610F06AFF708A0090338AF2893F
:2038D000B1899AF8000016F011FFC3E10021B0E0A878E97800EB01262879697900EB01247B
:2038F000A879E97900EB012705F10B000490A3B2687AA97A00EB012080B20390B2B2287A5C
:203910000290BAF802000190B8B200906978287800EB012081B248460EF0E8FF58B198F8FA
:203930001600400758BF0F208DD5484611F06CFA1E220F2134E009F1860000218680C4800E
:203950000781484605B0BDE8F04F13F0C9BD2878207068786070012070727BE198F8170039
:20397000C00758BF162040F1668109F16600407C16281ABFBA79012A232210D0002818BF56
:2039900001280BD00F281EBF09F16600007F01281EBF09F18600807A012807D12A2216211C
:2039B000484605B0BDE8F04F13F052BB6978287801F0070108402870797B08401CBF411EF0
:2039D0000842F8720DD0400703D5B87B08B1042003E0F97A0220014201D0F87201E04008F8
:2039F000F9D1F87AB97A884204BF0020F872F87A08B938811CE0BAF82E00C01D3881F87A61
:203A1000042803D1484612F0B2F8A0830123F87A3871A28BB97B13F08BF80146208B884257
:203A300005D3A28BB97B3879012313F081F878801821484605B0BDE8F04F10F0A7BE69784E
:203A5000287801F0070108402870F97A08401CBF411E0842F8720DD0400703D5B87B08B14C
:203A7000042003E0F97A0220014201D0F87201E04008F9D1F87AB97A884204BF0020F8726D
:203A9000F87A10B93881B87A0BE0BAF82E00C01D3881F87A042803D1484612F068F8A0830A
:203AB000F87A3871A28BB97B3879012313F040F80146208B884205D3A28BB97B38790123A0
:203AD00013F036F87880387B40F02000AFE02878697800EB01206082E978A87800EB01201F
:203AF000E0826979287900EB01202082E979A87900EB0120A082A18AE089884288BF08467F
:203B1000B97A042904D1B0F5296FD8BF4FF42960E28BE0839042B87A14BF012500250428A2
:203B300003D1484612F023F804E0A089E18A884288BF0846A28BA083904214BF01210021E7
:203B50002089628A238B2943904288BF1046984214BF0122002242EA01052083A28BB97B0F
:203B70003879012312F0E4FF0146208B884205D3A28BB97B3879012312F0DAFF78806189F4
:203B9000208A628B814288BF01466183914214BF0120002005438A4232499AF800200968B0
:203BB00001EB4211628B8041121DC00F0A7610B1484613F029FF9DF80000142810D145B168
:203BD000E08B0090638BA28B218B9AF8000016F085FD484605B0BDE8F04F15210EF0A0BA44
:203BF0001DB1387840F008003870387840F0200015E028780F2809D0122804D0142808D090
:203C100016280ED026E00020307123E00120307220E0387840F00200387040F01000387079
:203C300018E0387B40F00200387340F01000387310E09DF800008BF80C00484611F0C8FA9C
:203C500040B905B0BDE8F04F074800784FF480410BF08EBC05B0BDE8F08F00BFC02F00200B
:203C7000CD2E0100343000206E4F00202DE9F04FDFF800B5DFF800659BF800001E250828B4
:203C900087B000F26E82DFE810F072020900090009000900F000860172027202DFF8DC4446
:203CB000DFF8DC942068DFF8DC84006800F10807062207F1080102A815F096FD0622B91C1E
:203CD000684615F091FD3978C1F380108DF8140001F00F02C809032A35D16179C1F38001F0
:203CF000884239D12169062202A815F0E1F900283AD09DF81400694616F0E0FC002833D00E
:203D10003146684614F0BBFAFF282DD0D8F80010897A684335180A0018BF02290AD00129A6
:203D300018BF032918D1325C691C484616F0C2FC102819D06A46E91D484610F065FC062234
:203D50006946E81D06E201F00F01052940F00F826179C1F38001884240F0FE81216906228D
:203D700002A815F0A5F9002800F0F681387847099DF81400694616F0A1FC40F2024A70B3BB
:203D90003146684614F07BFA8346BBF1FF0F6BD005FB0BF031180491D8F80010897A0A00F1
:203DB00018BF01290BD0022918BF03295CD1325C0498411C484616F07DFC102854D0504636
:203DD00016F074FC0498C11D6A46484610F01CFC049806226946C01D15F006FD1DE09BF8A5
:203DF0000000022840D19DF814106A46304610F0AEFA8346BBF1FF0F36D005FB0BF03044F9
:203E1000417F012906D000292ED10D3016F04AFC002829D0504616F049FC05FB0BF0D8F854
:203E30000020315C91763044411CD8F800000622143015F0D9FCD449D4488978490604D575
:203E5000F90758BF41F20A4101D541F20441418041834186CE480180CE49CF4808600121D4
:203E7000CE4800780BF084FB76E1CD4C2068006800F108070F21387808421CBF00F00F01C5
:203E9000062906D002291CBF00F00F00012840F06E810622B91C02A815F0A6FC3878DFF8EB
:203EB0000493C0F3801800F00F0001283FD1062207F10801684615F097FC3878C70969463A
:203ED000384616F0FBFBE8B1D9F80000807C022818BF03285ED106F10D01684616F0DEFB05
:203EF000002857D0D9F800100120C8720622607940F0040060716946D9F800000C3015F060
:203F100073FC14E03078874211D10622711C684615F0CEF858B13078617960F3820161717A
:203F30000622D9F80000711C0C3015F05DFC02A9404616F0C3FB00282CD0606902A9001FA5
:203F500013F022FB002825D1314602A814F097F9FF281FD0D9F80010897C684335180A0060
:203F700018BF02290BD0012918BF032912D1325C6069691C001F16F09DFB10280AD06069D0
:203F900002AAE91D001F10F03FFB062202A9E81D15F02AFCEBE0844C2068006800F1080778
:203FB0000F21387808421CBF00F00F00012874D10622B91C02A815F017FC3878DFF8EC91BC
:203FD000C0F3801800F00F00012846D1062207F10801684615F008FC3878C70969463846BA
:203FF00016F06CFB20B3D9F80000C07A022818BF032852D106F10D0016F054FB00284CD179
:2040100006F10D01684616F049FB002830D0D9F80000062269460C3015F0E6FB607940F098
:204030000400607106226946F01D15F0DDFB14E03078874211D10622711C684615F038F8FB
:2040500058B13078617960F3820161710622D9F80000711C0C3015F0C7FB02A9404616F05D
:204070002DFB00284AD0314602A814F008F9FF2872D005FB00F7D9F80000817AF51959BB52
:20409000807C15F0DFFC814699F82E01022811BF0328F15D00F0010081425DD14FF4947011
:2040B00009EB000606223146681C15F001F830B9062231463E4814F0FBFF00284CD0012064
:2040D00089F82E010622607940F00800607102A9304615F089FB0DE02069F25D691C001F03
:2040F00016F0E8FA102837D0206902AAE91D001F10F08AFA062202A9E81D2BE0D9F80000F7
:20411000817A49BB807C15F09DFC074697F82E01022818BF03281FD102AA4146304610F026
:2041300016F9FF2818D06843351805F10D0016F0B9FA10B9687F01280ED187F82E8106228F
:20415000607900F0F70040EAC800607102A94FF49470384415F048FB216809680020087183
:2041700005E0002015F080F9862016F093FA07B0BDE8F08F6F4F002090240020F44B002087
:20419000CC470020104F0020C02F0020204A0020504F0020204F0020C54100006E4F002093
:2041B000D04B002038300020AC4B0020184F0020E4B601002DE9F84F012013F073FC0128DA
:2041D0000ED1DFF8E454296800204871286812F061FA05F051FB040003D1812016F05AFA76
:2041F0005DE201206071DFF8C464DFF8C4044178491C41702968A07981F8A00040200EF0F0
:20421000D5FE2060307901281CBF002015F02CF9F0682168DFF89C6400F5B060C8603068C7
:204230000068007903281CBF002015F01DF93068DFF88494006800F1080A4FF4977004EB21
:2042500000089AF80000C0F3801088F8000006224FF494700AF10201204415F0C5FA042236
:204270000AF10E0104F1240015F0BEFAD9F80000A37900EB431004220AF10E010C3015F0B2
:20429000B3FAD9F80000A37900EB431003220AF11201103015F0A8FA04F12C079AF815004D
:2042B000B87002220AF1160104F1300015F09CFA02220AF1180104F1320015F095FA0222B9
:2042D0000AF11A0104F1340015F08EFA3889608402220AF11C0104F1360015F085FAB87842
:2042F00079894000B8700901B88879814000B88089B2F8884000F88080B2628C521C430044
:204310005A438A4200D238B9DFF8B003007880210BF02EF93B21F5E004F12E01204614F0DD
:2043300033FE0520A081204615F01CF805220AF11E0104F1610015F057FA9AF8230040098C
:20435000387016F0A3F960822968DD4D498A401AA8F80C0004F161019AF82300DFF864A3A3
:2043700000F01F00F873204612F002FC31680968002008711C26A1792868714341F62102B0
:2043900042520022A179714301444A80A1797143084442609AF80200400609D5CA4800886C
:2043B00041F20A4188420CBFC848C948C4F89C012046D4F89C118847A279296872431144FC
:2043D0008873A1792868714308440021C173C148007870B1B88860B978730120208160814A
:2043F0002046D4F89C118847A2792968724311448873A179286871430844807B787394F832
:20441000960108B915F030F8A1792868DFF8C8B27143084494F89611491E01740022A179C1
:2044300028687143084400214174A0792968704308444282A279D9F8000000EB42137243B8
:204450000A445361A27972431144A44A8A61DBF8141091F800C094F806E05FEACC714CBF09
:20447000102100215FEA8C724CBF202200225FEA4C734CBF402300235FEA0C7C4CBF4FF070
:20449000800C4FF0000C1143194300EB4E104CEA010141F00F010172D9F80000A17900EB7A
:2044B00041100B214172D9F80000A17900EB411004218172D9F80000A17900EB4110884985
:2044D000097801291CBFDBF828104978C172D9F80000A17900EB41101F210176D9F8000098
:2044F000A17900EB411000214176A0790BF0EAFFA279D9F8001052018850A079420189581D
:2045100021B90721204614F0E8FCC8E07549096801EB001016F0B6F8724AA1791268D9F893
:20453000000002EB011200EB41114A60A17900EB41114968F963A179490140587864042123
:204550005E4800780BF014F86249B888097800F1020E19B110B9F88800F1020E608A00FBC0
:204570000EF04FF4C871B0FBF1F0401CC4F818E0606140F6C41394F806C02968226806FBD9
:204590000CFC8C44CDF800C0D2F80CC003FB0ECCACEB0000A0F5A86C0098C0F808C0A079CF
:2045B0007043084480689060A07970430844017B01F0EF010173A179286871430844017B05
:2045D00001F07F010173A179286871430844017B01F0F00141F002010173A17928687143D8
:2045F0000844417B01F0F00141F001014173A1792868714308442168806808616269D9F8BA
:204610000000A17997F802C0520000EB411103FB0C2202F5F6624A61A17900EB4110C17CD7
:2046300001F0F00141F00401C174FA88D9F80000A1795A43DBF830301B6800EB4111D21A34
:20465000A2F51672CA61A17900EB4110C17E01F0F00141F00401C176A17928687143084472
:20467000216848609AF80100800615D5B8F83A001B2804BFB8F83C001B2809D1B8F83E000F
:20469000B0F5A47F04BFB4F86E01B0F5A47F03D01421204610F07AF8134907200870BDE81C
:2046B000F14F00F02DBD00BF104F0020B44D0020684E0020F44B0020343000206E4F0020DB
:2046D000342C0020C02F0020504F0020BB48010079560100784E002088B601005C4D0020BA
:2046F000734F00208C4E00206F4F00202DE9F84F5FEA000A27D1002014F0B6FE23E05046D7
:204710000FF0BFFD62E2317C012940F07E80C078002877D098F80000400088F80000B8F8DE
:2047300002004000A8F80200B8F804004000A8F80400B8F808000001A8F8080001203077C4
:20475000504610F061FB0AF16606707D002800F064824FF489700AEB00094FF4A2700AEB81
:204770000004717C4FF4C6700AEB000B00290AF186080AF1EC050AF10607DFF8A404C2D008
:20479000012946D0022931D0032957D0062900F0A480072900F01E82082900F0F180092983
:2047B00000F00F810A2900F0B3800B2900F0CA800C2900F013810F2900F04981112900F0D0
:2047D0006A81122900F03881142900F0CE81162900F06C81182900F09D81F02900F0008288
:2047F000FC2926D0FE2900F0048284E7317C012985D1C078002800F08281504610F004FB71
:204810001621F1E1B888F18B10E050460DF0C8F9DCE1317C01290DD1C07800281CBF0120B1
:2048300088F80A008CD1B888B8F80C10884200F09581F1E150460EF020FDC7E1317C0129A3
:2048500041D1807850B10020B071A078012805D10020A070002150460FF098FFA87B01281C
:204870000AD10020286068600621012088F80E00504612F035FE66E7E87B012818D15046E4
:2048900010F0C2FA002088F80E0001203070504611F0CBFF0120B07100206873697A3878AC
:2048B00006291ABF00221A21002215F00BFF4AE799F8050001286FD0308B401E308380B225
:2048D00000284CD0A8E150460CF040FE3074F08A30830020A873E8739FE1307C01280ED190
:2048F000A87A01281FD1504610F08EFA002028722873E872A873A872E873687323E7504695
:2049100010F08EFD3074F08A30830020A87284E1307C01280DD1E87A012802BF002088F8ED
:204930000E000B21A4D0308B401E308380B2B0B172E1504610F0C1FE3074F08A30830020C1
:20495000E8726AE1317C012916D1807808B103218EE7308B401E308380B20028E8D1297A18
:204970003878012903D1222115F0B0FE29E10022222115F0A7FE24E150460FF07BFA25E155
:20499000307C012814D1287C02280AF1FD0204D13978002015F072FED2E6308B401E3083E6
:2049B00080B200280CD13978222015F067FE08E150460EF0E1FF3074F08A30830120287468
:2049D0002AE1317C012905D1807810B1B88B3883B6E694E050460FF0B5FDF7E0307C012855
:2049F0000AF20D1121D1087801280DD14878012809D1B9F8020000900020CA78B9F80030CB
:204A1000397815F037FE9BE6308B401E308380B2002810D1B9F8020000902220CA78B9F89B
:204A30000030397815F026FECBE00120887050460EF05EFC3074EFE0317C012903D1807894
:204A50000028E0D15BE0504610F0A2FFBEE0307C01281CD16078012809D1207F0F281CBF0F
:204A7000002014F001FD00206070002100E7A078012806D10020A0702322504612F0E8FA05
:204A900061E6207801283AD100202070EDE750460BF060FE9AE0317C012903D1C0780028FB
:204AB00021D12CE050460FF07EFD8FE0307C01282CD19BF80C00810648BF1821D6D4C107BF
:204AD00012D5207F16281CBF002014F0CDFC9BF80C0000F0FE008BF80C0000233978607F6B
:204AF00000220BF029FF2BE6810708D500F0FD008BF80C000023397800221A20F1E7308BAC
:204B1000401E308380B200285BD085E050460BF06FF85BE0317C012922D1C078C0B19BF851
:204B30000C009BF80B1059B9810610D500F0DF008BF80C0000209BF80A2039781346D0E731
:204B500000F0DF008BF80C0001208BF80600F7E57988BBF80800491C88425DD1282143E0DC
:204B7000182150460BF044F830E0307C01282AD19BF800004FF4B3710AEB0105810614D5DA
:204B900000F0DF0001078BF800000BD500F0F7008BF80000288B0090AB8AEA8A698A3878D2
:204BB00015F09CFD00202870CAE5810704D500F0FD008BF80000F5E7308B401E308380B235
:204BD00050BB222110E050460DF0AAFA3074F08A308321E0504610F0FBFA0128E4D01BE01B
:204BF000407AD0B199F80610504614F076F9012013E0B07E0F280CD1FC21504612F070FC43
:204C1000608900902389E288A188387815F06EFD02E0002014F028FC0020BDE8F28F00BF7D
:204C30005C4D00202DE9F0475FEA000882B00BD1002014F019FC07E0404610F0C9FA01285D
:204C500064D1404610F0E0F808F16605687D00285CD04FF49E7008EB00044FF4B070697C84
:204C7000DFF894A408EB00094FF4C670022908F1EC07404408F1060635D0042949D0052987
:204C90005FD0062900F08E800729D5D0092900F0F4800B2900F0C6800C2900F026810D29D1
:204CB00000F0D5800E2900F0F6800F2900F05D81102900F07881112900F09681122900F06E
:204CD0004181142900F0D681162900F09781172900F0C381FC2919D0FD2900F0F481FE2903
:204CF00000F0F681A4E7287C012809D19AF80300002814D01621404614F0EFF8012006E0BB
:204D100040460FF0BEFA2874E88A28830020BDE8F687287C012810D19AF80200002800F0F1
:204D30001881FC21404612F0DBFB307808F1B80208F1B00115F09AFC86E740460CF056FE6C
:204D5000E1E7287C012810D19AF8020028B1012088F89400002038607860B87A012869D106
:204D70000621404612F0BCFB6EE708F1E7063078012809D1404612F0B5FA0128C6D10020C0
:204D9000B87201202874C1E770780028BED008F1C70208F1A00108F1D70015F09BFC0120ED
:204DB000307051E7287C012838D19AF80200002840D0B08B3083404610F026F8012028701E
:204DD000404611F032FD0120A871397A787C012900F010000CD130B1002060712068410882
:204DF000A0790FF0B3F93078002115F06FFC0FE048B14FF4A17008EB00032068420841461B
:204E1000BE4815F043F830780122002115F05AFC002038723873F872B87215E7404610F06A
:204E3000FFFA70E7287C012805D1F87A012808BFFC2196D08DE040460FF01CF8012853D137
:204E50000020F87288F8940001202874FCE6287C01280ED19AF80200002809D0002088F824
:204E7000940001202870404611F0DFFC0120A871BDE0404611F09CFE45E7287C012806D1AB
:204E90009AF8020000281CBFB08B3083A6E040460FF058FB37E7287C01281DD1387C022868
:204EB00008F1FD0204D13178002015F0E7FBC8E6032806D131781A2015F0E0FB0020387426
:204ED000BFE6288B411E298389B200290CD13178222015F0D3FB42E040460EF04DFD2874D4
:204EF000E88A28830120387410E7297C012908F20D1021D14FF4897108EB01020178012913
:204F10000BD14178012907D1518800911388C2783178002015F0AEFB93E6298B491E2983F4
:204F300089B20029E0D1518800911388C2783178222015F09FFB12E00121817040460EF0FA
:204F5000D7F9E0E6287C01280BD19AF802000028E2D1288B401E288380B20028C4D12221A5
:204F7000C9E6404610F014FDCDE6287C012816D1607A012803D199F800000F281CE0207A3F
:204F9000012829D100202072288D00090090A88CEB8C317842081A2015F064FB51E64046E5
:204FB0000BF0D8FBAFE6287C012819D1607A012812D199F8000010281CBF002014F054FACB
:204FD00000206072288D00090090A88CEB8C3178420899F80100DFE7287F0028DED1B8E76E
:204FF00040460BF008FC8EE6287C012802D19AF80300F2E740460FF0D6FA84E6297C01290C
:2050100026D1017B4A062ED4CA070AD501F0FE0101730023317899F8010000220BF08CFCA4
:205030000FE68A0707D501F0FD0101730023317800221A20F2E7288B411E298389B2002978
:2050500055D131780023002222200BF075FC86E7162140460AF0CCFD55E6297C012907D1AF
:20507000017B4906BBD5017B01F0BF010173E8E51721EEE7297C012920D101788A0617D595
:2050900001F0DF010A0701700ED501F0F7010170B9F81E000090B9F81A30B9F81C20B9F878
:2050B0001810307815F01AFB002089F80600C8E58A0794D501F0FD010170F5E714214046B1
:2050D0000DF02EF81FE6A97E404612F009FABBE6A87E0F280CD1FC21404612F001FA608A81
:2050F0000090238AE289A189307815F0FFFA0DE6002014F0B9F909E65C4D0020CD2E0100AB
:205110002DE9FE4FDFF85084D8F80400009018B9BDE8F74F15F0A2BA0078DFF84094DFF8F6
:2051300040A4DFF8404401281CBF0228042846F2A81741F64C5B05D0402818BF802800F045
:20515000F98001E214F054FE0028FAD00098007807F092FE05466E6816B9002014F084F973
:20517000DFF804044078002800F0A58004F08CFA14F068FC0190006802900146476828467A
:205190000BF088FF02286FD02978012904D0022927D0042945D0D7E1DFF8D0130968097AAB
:2051B0001AF80110217018B915F054FA5844B0603069C17E01F0EF01C1763069C17E41F062
:2051D0008001C1763069C17E01F0F00141F00201C176B868DFF8981308183169C86101203C
:2051F000A4E00521217018B915F034FA5844B0603069C17E01F0EF01C1763069C17E41F0BB
:205210008001C1763069C17E01F0F00141F00201C176B868DFF858130818316908620220F9
:2052300084E00621217018B915F014FA5844B060D0480068807C12F06FF93069C17E01F003
:20525000EF01C1763069C17E41F08001C1763069C17E01F0F00141F00201C176B868C44904
:2052700008183169086260E002980078802811D108202070C0480078012803D0BA48407830
:20529000022801DB012002E0D9F8280000787969C8720AE00720B84920700978786901293A
:2052B0001CBFD9F828104978C1720198AE4980798870029844E1002D18D000992878A9428D
:2052D0000ED1401E012833D9C01E05D1A9480068807C12F021F92BE0002014F0C5F827E034
:2052F000012804D0022815D0042817D02CE19F480068007A1AF80000207015F0ABF939180D
:20531000B06815F0A3F918B915F0A4F95844B06001200BE005202070022007E00620207025
:2053300094480068807C12F0F7F8042088F80200284605E18C484078002800F0B68004F064
:20535000A3F914F07FFB00900068019045688648807814F077FB029014F050FD072108425C
:2053700078D098F8020007F087FD0646019977680BF090FE02286DD03178012904D0022941
:2053900024D0042940D062E078490968097A1AF80110217018B915F05DF95844B8603869A0
:2053B000C17E01F0EF01C1763869C17E41F08001C1763869C17E01F0F00141F00201C17690
:2053D000A8686B4908183969C86192E00521217018B915F03FF95844B8603869C17E01F052
:2053F000EF01C1763869C17E41F08001C1763869C17E01F0F00141F00201C176A8685C49CB
:2054100008183969086283E00621217018B915F021F95844B86057480068807C12F07CF818
:205430003869C17E01F0EF01C1763869C17E41F08001C1763869C17E01F0F00141F00201A5
:20545000C176A8684A4908183969086274E0002014F00AF802980099884224D001980078BA
:20547000802811D10820207043480078012803D03D484078022801DB012002E0D9F828009C
:2054900000786969C8720AE007203B4920700978686901291CBFD9F828104978C172009867
:2054B00031498079887001984AE014F0A7FC072108424ED098F8020007F0DEFC0646307820
:2054D0007568012804D0022815D0042822D040E026480068007A1AF80000207015F0BAF8EC
:2054F0003918A86815F0B2F818B915F0B3F85844A860012021E00520207015F0ABF8391897
:20551000A86815F0A3F818B915F0A4F85844A860022012E00620207015F09CF83918A868F1
:2055300015F094F818B915F095F85844A86011480068807C11F0F0FF042088F802003046FA
:20555000BDE8FE4F09F0B0BDBDE8FE4F002013F08BBFBDE8F78F00BF0430002088B6010007
:20557000289A01106F4F0020684E0020104F0020F0D8FFFF184F0020734F00202DE9F04F91
:205590000C46E00789B00DD514F066FA38B100218160DFF800040068010018BF804784F002
:2055B0000100F4E11E252007DFF8EC6340F18A80DFF8E8030068807C14F044FA07464FF442
:2055D000947097F82E8107EB0009002007908246DFF8C8030068807CFF2804BF002013F0EC
:2055F00043FF4A46414630460EF0B1FE834605FB0BF0009035184946404615F05FF8B0B1AC
:20561000BBF1FF0F2CD00098305C40F00208E81D079005F1010908F0010087F82E010622FB
:205630004FF494704946384414F0DEF818E04946404614F099F9002818BFBBF1FF0F0FD0F3
:2056500005F10D0015F02EF840B905F10D0015F029F8002804BF687F012801D148F00208DB
:20567000CE480068C07A022818BF032806D106F10D0015F017F808B906F1070A0020BD1D84
:2056900006904346288E000905900022E88D0490A88DCDF804A040080390CDF800900798EF
:2056B00002900020297814F0CDFFD7F89C01BC49884228780CBF002101210CF0EDFC84F075
:2056D000080064E1E00610D5002006900590049003900290019000900023002200210220F5
:2056F00014F0B0FF84F0100051E1A00710D50020069005900490039002900190009000235D
:20571000012200213C2014F09DFF84F002003EE16007A44F40F1A180A34880784FF00008CE
:20573000CDF81C80FF2804BF002013F09DFE386890F8A00014F086F981464FF4947009EB03
:20575000000B3868C07A99F82EA1022818BF032806D106F10D0014F0A5FF08B9F01D0790E0
:205770005946504614F0AAFF90B33868807A010018BF012804D13146584612F080FD04E00C
:205790005A46514630460EF0E2FDFF283ED005FB00F806EB080506225946E81D14F024F858
:2057B00016F8080040F0020A3868807E00F0010089F82E010622386800F114014FF4947033
:2057D000484414F011F805F1010B05F107081DE05946504614F0C8F8C0B15A465146304605
:2057F0000EF0B5FDFF2811D06843351805F10D0014F058FF40B905F10D0014F053FF002811
:2058100004BF687F012801D14AF0020A09F12C0009F1060501780691534641890909059147
:205830000122A98B0491C088CDF8088040080390CDF800B0079801900020297814F002FF91
:20585000D9F89C015649884228780CBF002101210CF022FC84F0040099E0200610D500207D
:2058700006900590049003900290019000900023012200213B2014F0E5FE84F0800086E010
:20589000E0043BD5F11D06F10D0014F0D7FE38684179012923D1017A012918BF04291ED109
:2058B000C17A022918BF032919D1817E00F1140230460EF04CFDFF2811D06843351805F1CC
:2058D0000D0014F0EFFE50B9E91D05F10D0014F0B5FE38680622E91D143013F085FF3348DD
:2058F0004268334800784FF4805110F039FF10B18E2014F09FFE84F4805048E0A00505D5B0
:2059100014F052FA2B4901200860FEE7600504D509F0CBFD84F4806039E0600405D58120F6
:2059300014F088FE84F4804031E0A0042ED5224D286810B1002013F097FD4FF0FF30286070
:205950000FF0CAF81D4D296820316846096888471B4841682D681B4A00916B468168019179
:2059700000210291016909680391017B00688DF81010ADF812002D6813491448A84714491B
:20599000086004F0EBFD84F4005000E0002009B0BDE8F08F204F002090240020184F002024
:2059B000BB480100104F0020684E0020784E00206E4F0020FC002043044F0020F04E00208B
:2059D000381A0020642F0020881C0020382C0020EC4E00202DE9F043DFF8AC43DFF8AC332B
:2059F00094F80080DFF8A8E3DFF8A893DFF8A863DFF8A813B8F10D0F83B0404641F20647A5
:205A100041F202424FF4A05553D8DFE818F0BB010E000E000E000E006D00A500E9001D01C0
:205A30005F015F01900190019701DFF87413DFF87473C3F800E041F2044E4C8874451CBF38
:205A5000B1F81A80F0450BD0B1F83290F1451CBF41F20A4E744503D0F04518BFF14502D13B
:205A7000A6F800E02AE0022CDFF83C73348036D94FF4806CB4EB0C041CD0241F012C1FD9E5
:205A90004FF47F7CB4EB0C041CD04FF4406CB4EB0C040FD0A41E012C0CD9241F0AD0641E2D
:205AB000012C0DD940F2F930241A012C17D9241F08D05FE1022814BF3580BC4F1F60FDE099
:205AD000BB4FFBE7BB480068007A012803D14A804A834A86F2E74D804D834D86EEE7002043
:205AF00013F0C2FC832049E1B348418831800229C3F800E014D940F20442891A2AD0491E64
:205B10000ED040F2FB32891A1DD00A3901291AD940F6F632891A03D0491E1BD0491E012991
:205B300040F2C680091F15D0491EF9D0491E11D04FF47E72891AF3D0491E0BD0C91E09D0BD
:205B5000491E012947D8817B478025290CBF2721491E817399483CE0994841883180022983
:205B7000C3F800E068D940F20442891A30D0491E62D040F2FB32891A23D00A39012920D92A
:205B900040F6F632891A57D0491E21D0491E012952D9891E13D0891E1AD0491E4CD0491EB4
:205BB00016D0891E0BD040F2F632891A44D0491E0ED0C91E0CD0491E012902D90BE0814834
:205BD00007E0817B478025290CBF2721491E81737D48186072E0002013F046FC84206BE06C
:205BF00099F80200FF2855D07849C3F800E01C2209685043084440F204444188744A31801A
:205C1000091B012946D94FF47F74091B15D00A39012916D940F6F634091B032984BF491F11
:205C300001290FD9891E012934D940F2FD34091B08D0491E012904D93AE041F20141418047
:205C500000E045801A6039E099F80200FF2821D05E49C3F800E01C240968604308445D4CC6
:205C70004188318040F20446891B012912D94FF47F76891B17D00A39012916D940F6F636E4
:205C9000891B13D0891E012984BFC91E01290DD9891E012976D940F2FD36891B06D0491EFC
:205CB000012902D904E0428000E045801C6005E0002013F0D9FB852014F0ECFC03B0BDE843
:205CD000F04345480078012109F052BC4A88328040F20443D21A55D040F6FC73D21A15D0CF
:205CF000083A4FD04FF47F73D21A22D13B4C3C4A24683C4800680023CDE9002308343A4BDD
:205D100024680222A047394908803BE0092810D137480068408960B1364800780EF00AFFE7
:205D30000021002014F082FC002020702AE048883080002013F098FB85201FE04A88328078
:205D5000022A0DD940F20440121A1BD040F6FC70121A05D0083A15D04FF47F70121AE8D1B3
:205D7000887B801CC0B2B528A8BF662088730020488007E0002013F077FB8420BDE8FE434F
:205D900014F088BCBDE8F7836F4F0020204F0020859F0100684E0020504F0020A42F002072
:205DB000204A0020C54100004DD600004DFB0000755B0110104F00209C4C0020051F01004B
:205DD0006C4C00202D620000F52A0100342C002085880000DDBA00006E4F0020F04E0020CD
:205DF00002000080EC4E0020016C0100424F00203C300020714F00202DE9F84FDFF8F443C1
:205E1000A078FF2804BF002013F02EFBA07813F019FE04464FF4C97004F1680625183068F4
:205E3000006804F1900708B100200EE0B07B002804BFB07E002809D13878002801BF287819
:205E50000028207F012801D1608CE0832089E18B0818401C6081204612F0ECFE01281EBF57
:205E7000E5480078012804D10020E0832089401C6081B07E01280CD1B28B6189208914F0FE
:205E9000D1FB30B121896289481C82422AD0B28B1FE0387801280CD17A886189208914F003
:205EB000C1FB30B121896289481C82421AD07A880FE02878012815D16A886189208914F065
:205ED000B1FB00281FBF2189481C6289824209D06A88824206D0501E608180B214F09EFBC0
:205EF000401EE0832878012801BF68882189491C884207D16A792A71002028701346A179FE
:205F10000AF01AFD4FF49A702044007920B10020E0832089401C608104F12E07B07E01287B
:205F300001BFB08B2189491C884237D1608104F18601204613F028F8B08CE18960840020E5
:205F50002077E08360890818A0812189B08B14F065FBB988328C01FB0028708CF28C88425D
:205F700004BF3B899A4202BFB18CFB88994207D0110900914208B38CA179002014F072FB9C
:205F9000B07F3870708CB880B08CF880F08C3881204613F0E7F90220B07601E0B7F8048058
:205FB000E08BDFF85892411C01FB08F140F6C41808FB01F200922268DDF800C0D3686344B8
:205FD000DFF83CC2D360DCF800C08E4A9CF800C013884FEA9C1CBCF1030F12D199F80FC05B
:205FF0005FEACC7C48BF00230BD45B1C9BB2012B07D14FF49A7CA444BCF806C00CF2DC5C3E
:2060100001E0B4F812C00CFB01FC4FF4C87EBCFBFEFCDFF8F4A10CF1010CC4F814C04FF08E
:206030001C0B138084F82000A161A279DAF800102068C3680BFB02F20A4492680261A27988
:20605000D4F814C00BFB02F20A44A3EB0C039360A2790BFB02F20A4492688260A0790BFB5A
:2060700000F00844017B01F0F00141F002010173A179DAF800000BFB01F1084400214180BC
:20609000287908B913F0F0F9A179DAF800000BFB01F10844297949080174A179DAF800001E
:2060B0000BFB01F10844002141742879042812D1A179DAF800002A7A0BFB01F10844017CB5
:2060D00041EA82010174A179DAF800000BFB01F10844202141740022A079DAF800100BFB44
:2060F00000F0084442824948A2790068D4F814C000EB4212536903EB4C035361B27E022A94
:2061100007D1A2793E7800EB4212536908FB0633536199F80F20D20740D5A2790BFB02F218
:206130000A449368A3F5A8639360A2790BFB02F21144226889689160009BC91A1161A17990
:2061500000EB41114A6902F5F6624A612979042906D1A17900EB41114A6902F5B0624A61E1
:20617000A17900EB41114969C4F8341128490D6BBB88A2792D6808FB03F300EB42125B1B7B
:20619000A3F51673D361A27900EB4210214A1278012A0EBF0121896A497818E0A2792979CA
:2061B00000EB4212042952690CBF4FF44B614FF4E661511ABA8808FB02F2A2F516729142CE
:2061D000D4D30821204612F088FE01200FE0C172A179DAF800000BFB01F10844216848604D
:2061F00007200D490870204610F021FE0020BDE8F28F00BF684E0020784F00205C4D00208A
:20621000084F002054300020342C00203430002088B60100734F00206F4F00202DE9F84FF3
:20623000DA4DDFF86C832868DA4F807CDFF8689313F008FC296804460020487104F12E0AF2
:20625000286810F027FA012060711C2598F80100401C88F8010080200CF0A8FE2060796938
:20627000C160CE4801894900AAF802105146C07940008AF80000BAF804004000AAF8040022
:20629000BAF808000001AAF80800204612F07CFE0520A081204613F065F8386814F0BAF944
:2062B000062210F8081FC1F3801184F82E11811C4FF49470204413F097FA3968B84F096882
:2062D0000020087141F62202A1793868694342520022A179694301444A80A17969430844B7
:2062F000426099F80200400609D5AE48008841F20A4188420CBFAC48AC48C4F89C012046FD
:20631000D4F89C118847A27939686A4311448873A1793868694308440021C173A1793868AB
:2063300069430844807B8AF80B0094F8960108B913F09AF8A17938689D4E6943084494F82B
:206350009611491E01740022A17938686943084400214174A1793868694301444A82A1796F
:20637000326802EB4112694301444A61A1796943084490498161A0790AF0A4F8A279316867
:2063900052018850A07940010A5822B90721204612F0A3FDF5E008441F2202763068A1796F
:2063B000DFF814B200EB411000214176DBF80000A17900EB011014F065F9A179DBF80020C4
:2063D0003068DFF8F8B102EB011200EB41114A6004F16801A27900EB421252680A60A279B7
:2063F000520182588A60DBF8141091F800C094F806E05FEACC714CBF102100215FEA8C729A
:206410004CBF202200225FEA4C734CBF402300235FEA0C7C4CBF4FF0800C4FF0000C11431E
:20643000194300EB4E104CEA010141F00F0101723068A17900EB41100B2141723068A1793C
:2064500000EB4110042181723068A17900EB41105B49097801291CBFDBF828100978C17201
:206470003068A179626A00EB4111CA60A17900EB4110A16A01743068A17900EB4110A16A58
:20649000090A41743068A17900EB4110A16A090C817408214B48007809F06AF82168A279EE
:2064B0003868CB686A4302449360CA680A61CA688A60A17969430844017B01F0EF01017377
:2064D000A179386869430844017B01F07F010173A179386869430844017B01F0F00141F058
:2064F00002010173A179386869430844417B01F0F00141F0010140F6C4134173BAF80420FB
:206510003068A1795A43DBF830301B6800EB4111D21AA2F516724A61A17900EB4110C17CE0
:2065300001F0F00141F00401C174A1793868694308442168486099F8010080061BD54FF4D0
:2065500097702044408F1B2801BF4FF497702018808F1B280BD14FF497702044C08FB0F59C
:20657000A47F04BFB4F86E01B0F5A47F03D0142120460EF00BF9144908200870A07988F83C
:206590000200BDE8F14FFEF7BBBD00BF184F0020684E0020AC4B0020C02F0020844C002065
:2065B000342C0020504F0020BB48010079560100343000205C4D00208C4E002088B6010032
:2065D000734F00206E4F00206F4F00202DE9F04F0F46BD4C0168616241688068ADF1140DDF
:2065F000A060BA4861608047B948616A01606168DFF8FC924160A168DFF8F0828160B549D4
:20661000002FA246C16068D03D68E8788DF8080028798DF8090002A813F0F8FFA86808B1CC
:20663000AD490160E86808B1AC490160AC4C2878207068786070A878BE68A0703178E1706C
:206650007368636072696261B168A160F168E160316921612E697B68A6621868A06168694A
:20667000E062A8692063287F84F834002A6AA263786886681EB9002012F0F6FE00E0266221
:206690007868C06818B9002012F0EEFE00E060627868406818B9002012F0E6FE00E0E061E1
:2066B0002869A062F86881680E6806B98E4E8D494FF0010B4E60C66881F801B026B90020B7
:2066D00012F0D2FEF86801E041460E6000684D46FE68A8617068E86105E0002012F0C4FE4E
:2066F0004FF0010B4D46D8F80000824944686A1C05F114035020A04718B1D8F800008068FA
:206710008047DAF80400804703907B487C4C286100272771B946E770784EA770300BC6B2B9
:20673000401CC1B226703846617028E0304639466A46042311F036FB009BA078B3F5801F95
:206750000ED043B9B9F1000F03D048460FF046FEA078B14610E030460FF040FEA0780BE03D
:20677000002804BF301CA67006D00FF037FE30460FF034FEA77038466178761CF6B2B14270
:20679000D4DA98B9B9F1000F08D1207812F0F4FA0420E08020793946A0B912E084F80290DB
