:20000000004000201957010001C9011001C9011001C9011001C9011001C9011001C90110ED
:1C00200001C9011001C9011001C9011001C9011001C9011001C901103FC9011089
:20003C0080B54FF4FC720FF278011A4810F040FA194800210170012141740221C17601BDC6
:20005C002DE9F0410FF25021144838220B684C688D68CE680F69D1F814C0D1F818E0D1F824
:20007C001C80036044608560C6600761C0F814C0C0F818E0C0F81C8020312030521EE5D1F7
:20009C004A688B68CC680968016042608360C460BDE8F081480400215903002100C000210F
:2000BC00410500217D0500212D06002170B51D46004C204787B2000010B5014800470000FD
:2000DC00D509000070B5614C6148254650358047022809D14034E1885E4A914204D1E97C5E
:2000FC00890601D4911DE18070BD70B557495A4A084650300378002B10D08379012B0DD181
:20011C00037C5B09DB0709D0097D544DC1746C7F20202043687790476C7770BDFF21C17420
:20013C00904770BD10B54E48484C804702280ED121464031CA88474B9A4208D1CA7C5209CE
:20015C00D20704D0227D920601D49A1DCA8010BD70B53E4843494030C07C4009C00707D032
:20017C003E4D41482C8B2043288388472C8370BD884770BD10B53B48344CAC388047214609
:20019C0053310A789309DB0705D04034A2730A7803231A430A7010BD2C4940310871182876
:2001BC0012D004DC0A280BD00B2804D10AE025280CD02A280CD02D4980004018C0687047DE
:2001DC002B4870472B4870472B4870472B4870472B48704770B504461C484E252D5CAE09AB
:2001FC00F60716D0067D3007000F052803D00120054202D00DE00220FAE7E80905D07006D1
:20021C0003D54868800F012803D05B085B0052085200062B03D01020022B11D011E0FB20F7
:20023C00024002232046FFF741FF002807DAC100611A2039497E1422114200D1002070BD93
:20025C00024303432046FFF731FF70BD4401002137CB000004140000EBC80000A800002142
:20027C00F5B4000053AD00002020000080DF00001D050021F9040021CD040021930400210F
:20029C006D04002110B5034CFFF716FF20680028FAD110BD0011044068610000F825F965B0
:2002BC00F9754500450045002600260057A3520052004C00401F401F401F3F000000000053
:2002DC00304000400140034007400F404F40CF40CF41CF43CF47CF4FCF3FCF2FCF1FCF0F6C
:2002FC00000000000000000000000F00080000003F00000040003F000000040068000E0093
:20031C00DC00060043001A00050000000000020000000000000000000400C00000000400B3
:20033C00C000000007000000000000000000000000000000000000003040004001400340A6
:20035C0007400F404F40CF40CF7FCF6FCF5FCF4FCF3FCF2FCF1FCF0F00000000000000009D
:20037C0050C00091007070C00091007082312100319110B10070018101B100A1823132910D
:20039C0010B101911110418141227740F106007051C0019130181039833108D01831416FD1
:2003BC003100319110B18314141683680070251050C00091F4C340C12014036F3110410497
:2003DC005082F0229840512622C082312100319110B163393110410482C08231210031919B
:2003FC0010B163393110A2C082312100319110B150101531051405920070676452C03110A6
:20041C0031066131C1026A6412C13110213971065131E1026A64007051C0019101CCE2C0CC
:20043C006A64676411C1C2C06A6450B054B0007140804022D6440022C94060B08180111EC9
:20045C00C944007054A064B0F0800022C9404012B09032B070C1DF6811C122C16A6470C1C0
:20047C00E46851C00191E2C0823160820200329110B130C2EE68538253395339B16460C347
:20049C00F4688012B09032B00070676401C122C16A6401C1C2C06A645382B164C012B09074
:2004BC0032B00070676472C281C06A6422C111C16A6402C011C16A6462C031C36A6462C3D2
:2004DC0011C16A6402C311C16A6453825339B164E2C36F6411221C4142C281C86A6452C24E
:2004FC0011C16A6472C2E1CE6A6402C281C86A6402C201C86A64B0C030690070676442C211
:20051C0001C86A6452C211C06A6472C2E1C06A6402C001C16A6462C001C36A6422C101C127
:20053C006A6462C301C16A6402C301C16A645382B16400708180111E5C4150B054B000712B
:20055C00408040225D4154A064B0F1800122514500700022514160B04E61000000000000AA
:20057C000000000000000000067305720B720E7250B00071818060B050A09280F0EFF1928C
:20059C0002936A6741228C458080F1C11004301601110114016CB561B661B761B861B9618D
:2005BC00BA61BB61BD61BF61C161C36126632D63F0C002043231412A121432160111211412
:2005DC00016CDA61C561E061C761CB61B561B561B561F461C561FA61C761CB61B561B56104
:2005FC00B561F461C561FA61C761CB61B561B561B561E761C561ED61C761CB61B561B56121
:20061C00B561CF61CF61CF61CF61CF61CF61C064CF61F964CF610665CF613265CF6174676A
:20063C00CF611166CF61C0644E65F964CF61066511663265CF618280E0DFF2926A67B0B044
:20065C00D661B1B00673057230B06C61D0CF6A6784C203C0C0C37C64207851788278E378B7
:20067C001579B6780062C0CF6A6784C203C0C0C37C64307861789278F3781579C678006250
:20069C00B0CF6A6784C203C0C0C37C6440787178A27803791579D678109221923292439281
:2006BC005492659256911FC0FF914039F00601101031101400927067CF61E3B054A0F08076
:2006DC0050221A4640800022BE461262E3A000C86091598150B0918041228E46A0CF6A6734
:2006FC0012828231823942398B641282F2062F101F312F141682D622334640C1346200C5AF
:20071C0020140D6F6D39DE10F4C34E0482C082312E006D39A2C082312D001A828A39FA0606
:20073C002082803180390BC00B18BC10AC18038239149B141082F0060110103110145181C2
:20075C0010140C14C622C94631D0C1266462021011C0013010C00118021882312100C126C2
:20077C00919103B013B063B053B041800122BE46B481C491D581B51C774E95186591F0803E
:20079C00102269428C623D9110B13E9110B1E08000228146E6228142E0B0951865910F926B
:2007BC005981F914F0805022114210228C464D6390CF6A6763B052A03082F2C0200402107E
:2007DC0011C0013010C00118021882312100C1269191919113B003B063B053B064B054B055
:2007FC00007141800122BE4663B064B0F08050221142B181C191D1819118619131B0A462D0
:20081C002967E0A059810582591480C0007163B0BA6A6962E3A0018262818231823D80EF61
:20083C00F19202936A6703A0007037824739873930828039F006021011C0013010C0011849
:20085C00021882312100C126819102B012B030824039F006021011C0013010C001180218E9
:20087C0082312100C126919103B013B063B053B0007153A062B052B041800122BE46A4816E
:20089C00C491D581B51CFE4E95186591F0801022F0428C62B481C491D4814518751C084FEB
:2008BC00F0801022F0428C623D9110B13E9110B1E08000221247E6221243E0B065910F92DC
:2008DC005981F914F0805022114210228C4630632967E0A0598105825914F0C0007162B038
:2008FC00226BF062A2808B64CF6112824239F2068B6050B00071CF6170CF6A674082418096
:20091C000122BE46A481C491D58195186591F18011228C46336B41800122BE46A481C491AB
:20093C00D581C51C1C4B95186591F08010223F438C6260CF6A67408241800122BE46B48169
:20095C00C491D58195186591F18011228C46506B41800122BE46B481C491D581C51CB44A55
:20097C0095186591F08010225C438C62E092D08200226B47C0B20070A080F022874330B033
:20099C0002C1623101C0A080001E8043F022814380F86031603981632010101A136F236E5A
:2009BC0011161216826B00702DE9F84FDFF81885DFF8181588F80000002008600921DFF891
:2009DC00100501700D2141804FF408718180DFF80405DFF8041501608A7EDFF80005027042
:2009FC00FF2ACB7E437008BFFF2B0D7F85704E7FC6708F7F0771C97F417115D1FF2D08BFE8
:200A1C00FF2E11D1FF2F08BFFF290DD1DFF8D0140A7802704A7842708A788270CA78C27025
:200A3C000A79027149794171DFF8B81402780A70FF2542784A7082788A70C278CA7002791E
:200A5C000A7140794871DFF8A014DFF8A004057045708570C5700571457100200880DFF888
:200A7C009014DFF89004466B70780870DFF8881430780870DFF88414B0780870DFF880142D
:200A9C0070690079401E0870DFF87814F0780870DFF87414B069086008B917F0F9FBF069DA
:200ABC00DFF86844206008B917F0F2FB2068DFF86074006880472168091D38460968884793
:200ADC00DFF85004DFF850143862DFF850047862306A086008B917F0DBFB706ADFF8401450
:200AFC00086008B917F0D4FBDFF838B4DFF838649BF8040017F06EFF306008B900F046B95A
:200B1C009BF80500DFF8247417F064FF386008B9306838E19BF80600DFF8144417F05AFF16
:200B3C00206020B9306817F05DFF38682BE19BF80700DFF8009417F04DFFC9F8000038B98F
:200B5C00306817F04FFF386817F04CFF20681AE1DFF8A41309789BF80000DFF8DCA3C91C3A
:200B7C00484380B217F036FFCAF8080058B9306817F038FF386817F035FF206817F032FF14
:200B9C00D9F80000FFE0DC480078010000F00381BBF80210DFF8A4B3484380B217F01AFFA8
:200BBC00CBF8040078B9306817F01CFF386817F019FF206817F016FFD9F8000017F012FF1B
:200BDC00DAF80800DFE0CC48007817F003FFDC49086098B9306817F005FF386817F002FFA2
:200BFC00206817F0FFFED9F8000017F0FBFEDAF8080017F0F7FEDBF80400C4E0BE480078AD
:200C1C001C21484317F0E6FECE490860B0B9306817F0E8FE386817F0E5FE206817F0E2FE9F
:200C3C00D9F8000017F0DEFEDAF8080017F0DAFEDBF8040017F0D6FEC148A3E0AE4800787F
:200C5C00400117F0C7FEC0490860D0B9306817F0C9FE386817F0C6FE206817F0C3FED9F87F
:200C7C00000017F0BFFEDAF8080017F0BBFEDBF8040017F0B7FEB248006817F0B3FEB14854
:200C9C0080E09D480078000117F0A4FEAF490860F0B9306817F0A6FE386817F0A3FE2068B5
:200CBC0017F0A0FED9F8000017F09CFEDAF8080017F098FEDBF8040017F094FEA0480068CA
:200CDC0017F090FE9F48006817F08CFE9E4859E089480078000117F07DFE9D49086010BB7F
:200CFC00306817F07FFE386817F07CFE206817F079FED9F8000017F075FEDAF8080017F069
:200D1C0071FEDBF8040017F06DFE8D48006817F069FE8C48006817F065FE8B48006817F06C
:200D3C0061FE8A482EE0744800783021484317F051FE8849086070BB306817F053FE3868FE
:200D5C0017F050FE206817F04DFED9F8000017F049FEDAF8080017F045FEDBF8040017F027
:200D7C0041FE7748006817F03DFE7648006817F039FE7548006817F035FE7448006817F0C1
:200D9C0031FE7348006817F02DFE002017F080FA4FF4804192E031680120087100223068AF
:200DBC00057330684573306885733068C573306805743068457400203168C8723168487148
:200DDC00A0213068C180032101720720316848720020316888722821306841820121C1769C
:200DFC00002031684877316881F85E00012031680877316881F85D00396808713868057315
:200E1C0038684573386885733868C573386805743868457400203968C87239684871396886
:200E3C0088724FF420703968C88008818A7401213A68D17421680D7321684D7321688D7375
:200E5C002168CD7321680D7421684D7400212268D172012122681171002122685171216847
:200E7C00C8800881002088722168887405202168C8743948006880470546294800680068C0
:200E9C00804727490968091D00200968884719481C49C06809780088084330490880284657
:200EBC002F49096888470C212E4800F05DF80F4800F05EF800F060F84FF4005198F800006D
:200EDC00BDE8F44F0DF0E8BE6E4F0020044F0020604E0020084F0020B63F00502C4E0020F7
:200EFC00E81200503C4E00200C4F0020344E00206D4F002018A401007B4F00206B4F002068
:200F1C00724F00206C4F0020F04E0020F44E00207C4B0020F1890100F84E0020018A0100E5
:200F3C00FC4E002088190020104F0020702C0020184F0020742C00203C2C0020684E00208A
:200F5C00004F00206C2800206C2C0020884E00208C4E0020904E0020F8120020544F0020BF
:200F7C00FC120020F84D0020DFF800F0E5710110DFF800F01D6E0110DFF800F04D7101109B
:200F9C00B0B5174C241D20680004070C23D01248006800688047114991F90720824205DDF8
:200FBC0010F1800FB8BF6FF07F00C8718D88BD4210D80A68D4F8D40F801A801C1F2888BF16
:200FDC001F207F1B4008C7404FF6FF70EF19B84238BF071C8F80B0BDEC010010642C0020D4
:040FFC003010094068
:20100000B41200001810000015AB0110FDB301106DC00110FDAE011099B5011000000000F7
:08102000000000002F00000099
:20102800B01200003C100000B1C00110A9BF011067C0011069B80110000000000000000035
:041048002D00000077
:20104C00B012000060100000BDC00110CDB30110D9BD01106DB3011000000000000000005B
:04106C002E00000052
:2010700000000000B019002004000000000000000000000020000000E8C901103000000061
:2010900028100000B81900200400000000000000000000000C000000D8CA0110180000003C
:2010B0004C100000C019002004000000000000000000000024000000F0CA011018000000C0
:2010D00000000000C81900200400000000000000000000001000000018CA01102C000000CC
:2010F00000100000D0190020040000000000000000000000200000006CCA01102400000038
:20111000FFFFFFFFD81900200400000000000000000000002800000090CA011024000000F7
:20113000FFFFFFFFE01900200400000000000000000000001400000008CB01101800000076
:20115000FFFFFFFFE819002004000000000000000000000058000000B4C901103400000044
:20117000FFFFFFFFF01900200400000000000000000000001000000020CB01101800000012
:20119000FFFFFFFFF81900200400000000000000000000001C000000B4CA0110240000003F
:2011B000FFFFFFFF001A00200400000000000000000000003800000044CA01102800000066
:2011D000FFFFFFFF081A00200400000000000000000000005400000078C901103C000000DB
:0811F00001000000DCA3010076
:0411F80001000000F2
:0411FC0000000E00E1
:0412000000000F00DB
:0412040032000000B4
:0412080001000000E1
:04120C00181800208E
:0412100000020000D8
:0412140000000000D6
:0412180001C90110F7
:04121C0000000000CE
:0412200000000000CA
:0412240008000000BE
:04122800000023009F
:04122C00C0160020C8
:0412300001000000B9
:04123400301800204E
:0412380008000000AA
:04123C00D81700209F
:0412400000000000AA
:0412440000000000A6
:04124800080000009A
:04124C00000000009E
:04125000000000009A
:041254000000000096
:041258000000000092
:04125C00010000008D
:04126000281700202B
:041264000600000080
:041268000100000081
:04126C006C150020DD
:04127000000000007A
:041274000000000076
:041278000002000070
:04127C00000000006E
:02128000290043
:02128200010069
:02128400250043
:021286002D0039
:021288002E0036
:02128A002F0033
:02128C0001005F
:01128E00015E
:081290000300000088A3010027
:0812980000000000000000004E
:0412A0000000010049
:0412A4000000030043
:0412A80013C401105A
:0412AC00B187010005
:0412B000B812000070
:0412B400B81200006C
:0412B8000000000032
:0412BC0030180020C6
:0412C0004D89010053
:0412C4002000000006
:0412C800ECA2010093
:0412CC0014A2010067
:0412D00029C101101F
:0412D4000F73010093
:0412D8005377010047
:0412DC00A1C7011095
:0412E000A3C701108F
:0412E4000000000006
:0412E8000FA301004F
:0412EC0010A001004D
:0412F00028A0010031
:0412F400F89F01005E
:0212F8000200F2
:0212FA000900E9
:0212FC000100EF
:0212FE000000EE
:0113000001EB
:04130400CD8801008F
:04130800FD6801007B
:04130C00D57C01008B
:04131000B16C0100BB
:04131400AD6D0100BA
:041318003569010032
:04131C00AD280100F7
:04132000C78A010077
:04132400C53F0100C0
:0413280015C70110D4
:04132C0025C70110C0
:201330002DE9F04FB74C04F114012046ADF12C0D13F048FB04F170050021284618F0D4F8EB
:201350000122B149A56104F1C40013460025009513F0B0FBAD494FF4FA622B4604F1E800FD
:20137000009513F0A7FBAA4E06F1180006F10C010FF0F2F8A749B06017F0CEFBA64FB06852
:201390004FF4E0213A46521E15F038FBB0684FF4E0213A4615F032FBA04FB0684FF0C0516C
:2013B0003A46521E15F02AFBB0684FF0C0513A4615F024FB9A49009506F12400C8222B4609
:2013D00013F078FB9748294670604FF0804012F0AFFC206104F1880104F17C000FF0BCF89A
:2013F000914EE06121211E22304616F0EBFA8F4829464FF6FF7216F0E5FA8D4829464FF670
:20141000FF7216F0DFFA8B4829464FF6FF7216F0D9FA894829464FF6FF7216F0D3FA276942
:20143000DFF818924FB13046067936B149468F60CD6003220A7015F03DFA814E1020062292
:20145000A023314609F0A8FB10200722A023314609F0A2FB10200822A023314609F09CFB59
:2014700010200922A023314609F096FB10200A22A023314609F090FB10200B22A02331468C
:2014900009F08AFB102002224FF47A63314609F083FB10200C225023314609F07DFB102073
:2014B0000D225023314609F077FB10200E225023314609F071FB314610200F22502309F0A5
:2014D0006BFB102031465023024609F065FB314610201122502309F05FFB31461020122260
:2014F000502309F059FB314610201322502309F053FB314610201722502309F04DFB31467B
:2015100010201822502309F047FB314610201522C82309F041FB314610201622C82309F0E2
:201530003BFB3146102019224FF47A7309F034FB314610201A222B4609F02EFB207815F018
:20155000DFFED3490246102009F026FBA846012640F205308DF821600DF12102ADF8168012
:20157000314609F0B9FF40F2063002210DF1160209F0B2FF04F1A0024FF442700F2109F033
:20159000ABFF04F1300240F20730072109F0A4FF0F2031460DF122028DF8220040F2044058
:2015B00009F09AFFC74D04F16000C74FA86138782072287815F0A4FE0246E87A05F13403A1
:2015D0000090D249019305F14403029305F1140303936B78102009F0DFFA217A480000EB94
:2015F000011080B210F0E4F94D46206250B3237A4BB34FF6FF711A46521E20F8121BFBD172
:2016100021E0C04608020020015E01007D880100B81500202D6401000E0005800E000010F3
:20163000DD870100B985010084160020881300202015002088140020D4140020A018002090
:20165000BD840110237A180110F0B2F90346A36253B1227A42B14046D88018709880588090
:20167000521E03F11003F7D104F1AF00BE49009042461523102009F08FFABC4910204FF0FA
:20169000FF3209F089FAC94910204FF0FF3209F083FA1020DFF818930090C64AC9481323CC
:2016B00049460190102009F077FA3878800010F07FF9C64A01469246916069B14FF6FF70CA
:2016D00015F068F9C24910200AF12402009011230191494609F060FADFF8F89210204946E0
:2016F00009F05AFABC491020042209F055FA02274FF0040B8DF8236003208DF82470C7491F
:201710008DF826B006AB8DF8250040460A6809791A600DF12302197131460CF0FFFB30467F
:2017300009AA01460CF0FAFB31460DF1250238460CF0F4FB032031460DF126020CF0EEFB04
:20175000052106AA58460CF0E9FB04F12C00CAF804004946102009F01FFA207815F0D0FD03
:20177000B4490246102009F017FA207815F0C8FDC1490246102009F00FFA384601238DF8CD
:2017900028601F468DF82700BC4E8DF829804FF480628DF82A70102031460DF127070097BA
:2017B00009F0FAF90AA840F20242012300903146102009F0F1F90DF1290040F20342012305
:2017D00000903146102009F0E7F90DF12A0040F20642012300903146102009F0DDF9A8492C
:2017F00004F16802102009F0D7F9A649102009F0D3F9DFF898B26069A34A00214FF0FF3334
:2018100017F06EFE5FEA000AF5D00020049008A904AA05A815F05EFA00284ED1BDF8140000
:201830000127102844D120789DF8201088423FD1049801884FF6FF728A4236D14088C008AE
:2018500036D3666A002E33D0E07806F10803401CE070C449009372883379102009F09CF964
:201870005FFA80F8B8F1160F14D02078B8F1040F10D0666A15F044FD03460020B849009091
:201890007288102009F088F9404610F0CDFF0FE051880110E0780090297820690022BBA3D7
:2018B000491DC9B215F0F9FE02E001F02FFA0746049810B10FB117F0FDF95FEADA70C0F095
:2018D000918189E120070020694F0020A069064617F002FE864208BF002702D0876815F085
:2018F00025FD381C00F07881216938882E788846401E00F06881401E00F09280801F37D07E
:20191000083805D0103800F0498162E1CD36010078688378F3B1012B13D0022B0CD0032B94
:2019300078D1C378002B08BFB4A314D00188BAA30091C278019210E0C378002B6AD1BDA3B1
:2019500009E0C278002A08BFC0A304D00088C5A30090EFE7C8A300880090F61C4046002299
:20197000F1B215F09AFE55E0B1180100657E010078680078010931D240094BD30E2016F034
:201990002FFF002846D16868697803790A4693421AD0FF2A3ED000EBC203DE6866B900EB57
:2019B000C100006914F086FF34E0C04621820100577201004C0D002000EBC20003690846FC
:2019D000984727E064A301008068EBE7FC0F002070A30100790C0100298501000D2016F0A8
:2019F000FFFEB8B969686878097981420ED0FF2810D0401CC0B215F039F9FF2802D100206F
:201A100015F034F968700BF0C1FD03E0002015F02DF96870786815F089FCDAE096A301008F
:201A30007968087840B1801E00F09E80801E00F09380A9E031810110A3784BBB16F020FC68
:201A500004F1480282E80300D049002014F050F8206C0090A06C0190297820690022A0A3FD
:201A7000491DC9B215F019FE60694FF4807117F02FFD0120A07086E0898B0100856F000089
:201A900099800100C5AB0010FF3F00C040E20100BF49002014F02CF8206CF61D002296A331
:201AB000F1B20090404615F0F8FDA06C009029782069002292A30831C9B215F0EEFD206D15
:201AD000009029782069002291A30931C9B215F0E4FDA06D00902978206900228EA30A31F6
:201AF000C9B215F0DAFD04F1400003C804F148020CCA04F15806121A8B4196E8030004F1A9
:201B10005006121A8B4196E803000026801841EB0301CA0F12184FEA520046EB01033246BD
:201B3000D90708435910D0F1000862EB010917F0CBFC04F1380106C904F1380311EB0801E1
:201B500042EB090283E8060017F0BAFC60694FF4005117F0BDFC16E073A30F210FE0C046C1
:201B700033890100DDFE001002200DF12B0113F0BFFF9DF82B00761D72A3F1B2009040467F
:201B9000002215F08AFD7968084644E75273702073656E642072657472793A00D7F804903B
:201BB000F61C404600226AA3CDF800B0F1B215F074FDCDF800B07349B9F80A201020002361
:201BD00008F0EAFF26E7786801F0A0F8786817F071F8384615F0AAFBA06917F06DFC002885
:201BF0003FF474AE5FEA5A2051D25FEA9A3061D3002014F01DF90020A0705BE043786E2065
:201C1000256420626F6E642073617665207375636365737300C046C043786E202564206266
:201C30006F6E642073617665206661696C65643A2025640043786E20256420626F6E64691E
:201C50006E67207375636365737300C0636F6E6E48616E646C65202564207061697265648E
:201C700000C046C070616972696E67206661696C65643A20256400C0636F6E6E48616E6453
:201C90006C652025642070616972696E670016F0F7FA04F1500282E803003E4A0320082131
:201CB0000CF03CF9012805D120690F2100222CA315F0F3FC5FEA1A3007D3E0690621012246
:201CD00014F0C8FB304817F016F85FEA5A30FFF492ADE0690621002214F0BCFB8BE5C046D8
:201CF00074313A2025752C2074315F7072696D653A20257500C046C07431203A202575005B
:201D100074315F7072696D653A20257500C046C074323A20257500C074325F7072696D655C
:201D30003A20257500C046C0436C69656E742068617320656E61626C656420636F6E666904
:201D5000672100C04368617220333A20256400C050617373636F64653A20256400C046C0DC
:201D70004572726F7221204E6F74696669636174696F6E2073656E64206661696C656421B1
:201D900000C046C0E16D0100F00200204802002060020020580200202DE9F04F0F4685B0C7
:201DB000804617F8010B8DF800004FF4B07008EB00044FF49C7008EB00059DF800104FF424
:201DD000C67008EB0006182908F1E70A08F1660908F20D1BDFF86C0700F2A183DFE811F0E7
:201DF00019007200660194009F039F03FD007903140127010101100138019F039F0384013E
:201E10009F0368015C018503E402E40236029F03810217F8010B88F886000222394608F1DC
:201E3000880017F045FB0146022208F18A0017F03FFB0146022208F18C0017F039FB014622
:201E5000022208F18E0017F033FB074698F88600400088F8860008F1860108F186000222C6
:201E700040884000488008F1860080884000888008F18600008900010881394608F1840025
:201E900017F016FB08F10601B9F81E004988401A80B247F6FF7188422BDA08F1860008F1FA
:201EB0008601C0888988401C4900484308F186010989884228BF3B2080F04082012089F810
:201ED0001C001CE00522394608F1610017F0F0FA0146022208F1920017F0EAFA08F1860089
:201EF00008F1060180894988401A80B247F6FF71884280F2228208F186010120887208F14B
:201F10000601002008834CE29AF81600C0070AD41A208AF80E009AF80D00012808BF0D21FD
:201F30003FD00D21D7E1002089F8000089F80600082201208AF81100394608F1B00017F067
:201F5000B7FA0146022208F1B80017F0B1FA08F1A80401460822204617F0AAFA0746082155
:201F7000204617F0A1FA08F19C0404223946204617F09EFA0421204617F096FA08F1A0004B
:201F900017F08EFA08F1980017F086FADFF8B805018841F0800101809AF80D00012806D19B
:201FB0000421404605B0BDE8F04F14F017BB99F81000012804BF99F811000F280BD140462F
:201FD00012F0D8F80421404611F096FD0F2089F81A00FD217FE104217DE101208AF80F0063
:201FF000ACE2002089F8000089F806008AF800000B2101208AF80D0000208AF801006AE1CF
:2020100001208AF8100099E2002142187B5C547A23437B5452781A4008EB0103491C08297C
:2020300083F8FD20F1DB404611F042FC7CE2002142187B5C547A23437B5452781A4008EB9D
:202050000103491C082983F8FD20F1DB022053E299F8060008B93D2070E19BF80000012859
:20207000D1D017F8010B8BF8030002224FF489703946404417F01CFA01464FF48A700222E6
:20209000404417F015FA01208BF800009BF8020000281BD10C211EE19AF81600C00601D4DA
:2020B0001220D9E0404612F0CDFD3DE2387845E1387820707878607099F8100001280DD136
:2020D00099F811000F2802D0162803D036E20120687333E2307B40F001001EE205B0BDE8D5
:2020F000F04F002016F0DAB89AF81600810706D41121084201D10F20AEE01A2254E03878A4
:20211000797800EB01202882F978B87800EB012068827979387900EB0120A882F979B879F5
:2021300000EB0120E882387A2876B97A787A00EB01206883397BF87A00EB0120A883B97B1C
:20215000787B00EB0120E883397CF87B00EB01202884B97C787C00EB01206884397DF87CDA
:2021700000EB0120A884B97D787D00EB0120E8844FF4AA7040440490688B0390287E029041
:2021900008F1060040880190E88A0090AB8A6A8A298A404610F09AFA68B19AF816004007D7
:2021B00001D40F2058E01E22404605B0BDE8F04F0F2113F0AFBF688A08F186018880A88A27
:2021D000C880E88A0881022088F886000020488008F1060108F10600C08DC01DA9F81E00B4
:2021F00008F18600898D808888420FD108F1860008F10601C088C98D884207D108F186004A
:2022100008F106010089098E88421DD099F81000012804BF99F811000F2807D099F81500F4
:2022300020B10F2089F81A00FE2154E0FC21404611F062FCE88A0090AB8A6A8A298A98F830
:20225000060017F025F979E1102144E09AF817000921084203D116208BF80C0061E17978AB
:20227000387801F00701084038700146707B0840F07212D0411E08420DD0400703D5B07B27
:2022900008B1042003E0F17A0220014201D0F07201E04008F9D1F07A08B9B07AF072F07A57
:2022B000042803D1404612F094FDA083F07A17F0EBF83071A28BB17B012313F0B9FC014661
:2022D000208B884205D3A28BB17B3079012313F0AFFC70801721404605B0BDE8F04F11F085
:2022F0000BBC78783978814207D100F007000840387034D0421E10420FD01E221821404650
:2023100013F008FF98F80610002300221E200DF059FE307B40F04000FFE0F072F978B87829
:2023300000EB0120308108F1060130894988401A80B247F6FF71884206DB28208BF80B008C
:2023500001208BF80A00F9E00120B071F07A042803D1404612F03DFDA083F07A0BE099F86F
:202370001100162806D1B27A98F80610134600200DF028FEB07A3071A28BB17B30790123C8
:2023900013F056FC0146208B884205D3A28BB17B3079012313F04CFC7080307B40F04000C8
:2023B000307301202870C9E03878797800EB01206082F978B87800EB0120E08279793879C7
:2023D00000EB01202082F979B87900EB0120A082A18AE089884288BF0846B17A042904D14E
:2023F000B0F5296FD8BF4FF42960E28BE0839042B07A14BF4FF001094FF00009042803D1FD
:20241000404612F0E6FC04E0A089E18A884288BF0846A28BA08390422089628A238B14BF33
:2024300001210021904288BF1046984241EA090114BF0122002242EA01052083A28BB17B85
:202450003079012313F0F4FB0146208B884205D3A28BB17B3079012313F0EAFB7080618931
:20247000208A628B814288BF01466183914214BF0120002005438A42344998F806200968E1
:2024900001EB4211628B8041121DC00F0A7610B1404614F001FB9DF80000142810D145B1D2
:2024B000E08B0090638BA28B218B98F8060016F0E7FF404605B0BDE8F04F15210FF0E0B8DC
:2024D0001DB1307840F008003070307840F020001BE038780E280ED00F2809D0122804D0C9
:2024F00014280CD0162812D028E00020287225E00120287322E003208AF815001EE03078AF
:2025100040F00200307040F01000307016E0307B40F00200307340F0100030730EE08BF82F
:202530000C10404611F0B2FF40B905B0BDE8F04F074800784FF480410CF0B4BB05B0BDE815
:20255000F08F00BFF82B0020524F00206C2C00206E4F00202DE9F04F0D4685B0814615F8E3
:20257000010B8DF800004FF49E7009EB00064FF4B0709DF8001009EB00044FF4C670891E4F
:2025900009EB0007152909F20D1B09F1E70809F1060ADFF8680700F29C83DFE811F00F01AD
:2025B0009A031600440048007A039A03C3009A037D00D600810088001701E90128020401C5
:2025D0008403E802E8022F02A00209F1A00608222946304616F06CFF05460821304616F0AD
:2025F00063FF09F1980404222946204616F060FF0421204616F058FF00214842484409EB60
:20261000010290F89F0082F8BF00491C0829F4DB09F1C702314609F1D70016F02DFF012084
:2026300088F8000066E3012088F8130062E398F80D1098F81600012900F010000DD130B18C
:202650000020707130684108B07910F037FF9AF80000002116F00CFF11E050B14FF4A1701F
:2026700009EB0003306842084946DFF8940616F0B9FA9AF800000122002116F0F5FE0120C8
:2026900089F86600484613F04EF909F166010120887188F80F002DE3012088F8100029E394
:2026B000287888F80E00012088F8140022E398F8121001291DD198F8001001294DD098F8E1
:2026D0001610090704D40E208BF80C00072100E2002142186B5C567A33436B5452781A40AA
:2026F00009EB0103491C082983F8FD20F1DB0921EFE198F81610090758BF0E2058D5002185
:2027100042186B5C567A33436B5452781A4009EB0103491C082983F8FD20F1DB484611F0DE
:20273000C7F8DDE2002142186B5C567A33436B5452781A4009EB0103491C082983F8FD207A
:20275000F1DB022088F81500D4E298F81200012804BF98F80000012806D13D208BF80B0027
:2027700001208BF80A00C5E29BF800000128FAD015F8010B8BF8030002224FF48970294600
:20279000484416F095FE01464FF48A700222484416F08EFE01208BF800009BF802000028DD
:2027B000E1D10C2195E198F81600C00658BF122040F19182484612F045FA91E228788BF856
:2027D0000B00F02100208BF80A000AE198F81600810707D41121084208BF0F2000F07B82CD
:2027F0001A22F6E009F16601097C012902BF09F16601497C0F2911D009F16601497D0A0076
:2028100003D009F16602527C22B109F16602127F012A05D1400758BF0F2064D52322D8E01B
:2028300021B109F16601497C012904D009F18601897A012905D1400758BF0F2053D52A220D
:20285000C7E02878697800EB0120B081E978A87800EB0120F0816979287900EB01203082C4
:20287000E979A87900EB01207082287A3075A97A687A00EB0120F082297BE87A00EB0120EB
:202890003083A97B687B00EB01207083297CE87B00EB0120B083A97C687C00EB0120F083A0
:2028B000297DE87C00EB01203084A97D687D00EB012070844FF4AA7048440490F08A0390A9
:2028D000307D0290BAF802000190708A0090338AF289B18948460FF0F9FE38B198F8160055
:2028F000400758BF0F2040F1F68171E0F08909F186018880308AC880708A0881022089F818
:2029100086000020488009F16601BAF82E00C01DC88309F18600BAF82C108088884201BFD0
:2029300009F18600C088BAF82E10884206D109F18600BAF830100089884217D009F1660022
:20295000407D28B109F166010F208876FE21C0E0FC21484611F0D0F8708A0090338AF2894E
:20297000B1899AF8000016F093FDC3E10021B0E0A878E97800EB01262879697900EB01246A
:20299000A879E97900EB012705F10B000490A3B2687AA97A00EB012080B20390B2B2287ACB
:2029B0000290BAF802000190B8B200906978287800EB012081B248460FF088FE58B198F8CA
:2029D0001600400758BF0F208DD5484611F0D2FB1E220F2134E009F1860000218680C48017
:2029F0000781484605B0BDE8F04F13F0F7BD2878207068786070012070727BE198F817007B
:202A1000C00758BF162040F1668109F16600407C16281ABFBA79012A232210D0002818BFC5
:202A300001280BD00F281EBF09F16600007F01281EBF09F18600807A012807D12A2216218B
:202A5000484605B0BDE8F04F13F064BB6978287801F0070108402870797B08401CBF411E4D
:202A70000842F8720DD0400703D5B87B08B1042003E0F97A0220014201D0F87201E0400867
:202A9000F9D1F87AB97A884204BF0020F872F87A08B938811CE0BAF82E00C01D3881F87AD0
:202AB000042803D1484612F094F9A0830123F87A3871A28BB97B13F0BBF80146208B8842B4
:202AD00005D3A28BB97B3879012313F0B1F878801821484605B0BDE8F04F11F00DB869782D
:202AF000287801F0070108402870F97A08401CBF411E0842F8720DD0400703D5B87B08B1BC
:202B1000042003E0F97A0220014201D0F87201E04008F9D1F87AB97A884204BF0020F872DC
:202B3000F87A10B93881B87A0BE0BAF82E00C01D3881F87A042803D1484612F04AF9A08396
:202B5000F87A3871A28BB97B3879012313F070F80146208B884205D3A28BB97B38790123DF
:202B700013F066F87880387B40F02000AFE02878697800EB01206082E978A87800EB01205E
:202B9000E0826979287900EB01202082E979A87900EB0120A082A18AE089884288BF0846EE
:202BB000B97A042904D1B0F5296FD8BF4FF42960E28BE0839042B87A14BF01250025042812
:202BD00003D1484612F005F904E0A089E18A884288BF0846A28BA083904214BF0121002174
:202BF0002089628A238B2943904288BF1046984214BF0122002242EA01052083A28BB97B7F
:202C10003879012313F014F80146208B884205D3A28BB97B3879012313F00AF8788061890F
:202C3000208A628B814288BF01466183914214BF0120002005438A4232499AF8002009681F
:202C500001EB4211628B8041121DC00F0A7610B1484613F021FF9DF80000142810D145B1DF
:202C7000E08B0090638BA28B218B9AF8000016F007FC484605B0BDE8F04F15210EF000BDCF
:202C90001DB1387840F008003870387840F0200015E028780F2809D0122804D0142808D0FF
:202CB00016280ED026E00020307123E00120307220E0387840F00200387040F010003870E9
:202CD00018E0387B40F00200387340F01000387310E09DF800008BF80C00484611F0D6FBFD
:202CF00040B905B0BDE8F04F074800784FF480410BF0D8BF05B0BDE8F08F00BFF82B0020FA
:202D1000252301006C2C00206E4F00202DE9F04F06460120ADF11C0D05903078913800F046
:202D30008782D34CD34DDFF850831F3800F0D681203840F0B9822846834605782769B078C4
:202D5000002800F09D81401E00F02A81801E00F07C81401E0FF2043A00F01581DFF81C9300
:202D7000401E66D0401E03D0401E00F06A819BE21020414607F010FFC7B2B08814F036FC24
:202D9000217AA081814240F38F82226A41004FF6FF7301EB0011059D5352A26A0026030162
:202DB00005FA00F0D118D65482B2CE804846314614F008FEA08905FA00F082B2C4483146A1
:202DD00014F000FEA0898540C2483146AAB214F0F9FD27B9C04831461C2214F0F3FD9BF8F8
:202DF0000050D4F810901020414607F0D5FE6D1C00903246CEA3E9B2484614F04EFC9BF87A
:202E1000001020693246D3A3091DC9B214F045FC207A401EB84240F047829BF8001020691E
:202E300032465346891CC9B214F037FC3246CDA3A4E07378002B40F096802D1D3846002268
:202E5000CCA3E9B214F029FC27699BF800501020414607F0A1FE6D1C00900022B4A3E9B242
:202E7000384614F01AFC00206071B6F80AC0277A06F1040E87B1256A064601463A464FF678
:202E9000FF70123D35F8123F984208D0521E06F1120601F10101F5D18F4D152639E0704615
:202EB0000F46A5F800C011F02DFE01460F22A81C0DF004FB05980022B8401FFA80FA484614
:202ED000514614F07FFDDFF8088200225146404614F078FD4D46DFF8FC9100225146484674
:202EF00014F070FD206AFB0036185919B61C03EB0802794DCE60E888D66003EB0901CE6082
:202F1000400904D228461C21002214F05BFDFEB2277A5949102007F03FFE874211D80599B2
:202F3000002740F2053004AA8DF8107008F0D4FA9BF800102069C1A33A46891CC9B214F046
:202F5000ACFB9BF80010236A2069720002EB0612491D9B18C9B200229B1C14F09EFB284612
:202F700013F0A8FCA0E12D1D38460022C5A3E9B214F093FB7078C7A3002200909BF80050B3
:202F900027696D1D64E0257A4146102007F004FE854294BFC7A3534627699BF8005055E0AF
:202FB00000202071F378F3B14B480221002214F009FD059F04F5AE7A0025B946F378AB421E
:202FD00015DC0E2D0CDA4F4607FA05F082B2B848002114F0F7FC6D1CEDB20E2DF4DBF3785B
:202FF0009BF8005027690093BAA32D1D2FE071684FEAC50808EB01035A781720684300EB90
:203010000A077A7011F808109B1C0AF800101968B81C01609988818011F074FD08370146EB
:203030000F2238460DF04AFAA1484044C760A04809FA05F3002299B214F0C4FC6F1CFDB2AE
:20305000BCE7F078A8A30090CFE7ABA3AD1C0022E9B2384614F021FB26E1C04652656164C9
:203070007920746F2041647665727469736500C008020020A0180020F17F01102015002065
:2030900070896081F01C11F03DFD034629460022384614F002FB9BF800102069002299A31C
:2030B000491CC9B214F0F9FA9BF800102069002298A3091DC9B214F0F0FAF51CB248296875
:2030D00001606968416004F1C40015F014FEEBE088140020D4140020841600207178207873
:2030F00016294DD028463179276900787E2900F1040025D07F2918D01B294DD1F16872896D
:2031100004F150000DF0DAF904F1500003C8002283A38DE8030038460C2114F0BEFA60698A
:203130004FF4806116F0D4F936E031897EA309E0436F6E6E656374656420746F202564006F
:20315000317A7DA30091C1B20022384614F0A5FA22E0C046446973636F6E6E656374656472
:203170002100C046526561647920746F205363616E00C046436F6E6E65637465642100C001
:2031900014F0BEF803460420804900907288102007F002FD002844D04146102007F0FCFC9D
:2031B000002838D0708814F021FAA08132790B2A21D0012A02D1317A0A291CD0132A0CD0E5
:2031D000012A02D1317A122907D0A16A0001085C08B3304608F0F2FA1DE020692978012A4D
:2031F00007D0A27958A3521CD2B2A271521ED2B20BE059A308E020692978012A03D0F26888
:20321000127859A301E05CA3327B0092491D0022C9B214F042FA317906F1080016F020F9EE
:2032300042E005980FF000FB6662002005903BE070780E380CD0801E32D035E043616E2735
:2032500074206164763A206E6F206C696E6B7300B08842F20301814226D1B168087818BB81
:20327000491C02A80A684968026002AF41603878474902AA00F0FD003870102007F08CFC28
:2032900012E0C046436F6E6E656374204661696C656400C0526561736F6E3A20256400C02C
:2032B0000820002106F084FF059807B0BDE8F08F8813002043616E277420416476203A20A7
:2032D0004D617820636F6E6E73207265616368656400C0464465766963657320466F756E0A
:2032F0006420256400C046C0506172616D205570646174652025640041647665727469738C
:20331000696E6700436F6E6E656374656420746F203000C0496E697469616C697A65640043
:2033300054323A20257500C04D54552053697A653A20256400C046C046432056696F6C6145
:203350007465643A2025640057726974652073656E743A20256400C05772697465204572D3
:20337000726F7220256400C052656164207273703A20256400C046C0526561642045727222
:203390006F7220256400C046B70C00203389010095B400102DE9F04FDFF800B5DFF8006577
:2033B0009BF800001E25082887B000F26E82DFE810F072020900090009000900F000860108
:2033D00072027202DFF8DC44DFF8DC942068DFF8DC84006800F10807062207F1080102A8BD
:2033F00015F0FAF80622B91C684615F0F5F83978C1F380108DF8140001F00F02C809032A9B
:2034100035D16179C1F38001884239D12169062202A814F06FFD00283AD09DF8140069465D
:2034300016F01AF8002833D03146684613F0DDFEFF282DD0D8F80010897A684335180A002D
:2034500018BF02290AD0012918BF032918D1325C691C484615F0FCFF102819D06A46E91DF2
:20347000484610F087FA06226946E81D06E201F00F01052940F00F826179C1F380018842A0
:2034900040F0FE812169062202A814F033FD002800F0F681387847099DF81400694615F0F1
:2034B000DBFF40F2024A70B33146684613F09DFE8346BBF1FF0F6BD005FB0BF03118049127
:2034D000D8F80010897A0A0018BF01290BD0022918BF03295CD1325C0498411C484615F09E
:2034F000B7FF102854D0504615F0AEFF0498C11D6A46484610F03EFA049806226946C01D22
:2035100015F06AF81DE09BF80000022840D19DF814106A46304610F09EF88346BBF1FF0F71
:2035300036D005FB0BF03044417F012906D000292ED10D3015F084FF002829D0504615F09D
:2035500083FF05FB0BF0D8F80020315C91763044411CD8F800000622143015F03DF8D449F6
:20357000D4488978490604D5F90758BF41F20A4101D541F20441418041834186CE48018030
:20359000CE49CF4808600121CE4800780BF08AFB76E1CD4C2068006800F108070F21387815
:2035B00008421CBF00F00F01062906D002291CBF00F00F00012840F06E810622B91C02A8DD
:2035D00015F00AF83878DFF80493C0F3801800F00F0001283FD1062207F10801684614F058
:2035F000FBFF3878C7096946384615F035FFE8B1D9F80000807C022818BF03285ED106F123
:203610000D01684615F018FF002857D0D9F800100120C8720622607940F004006071694682
:20363000D9F800000C3014F0D7FF14E03078874211D10622711C684614F05CFC58B13078DC
:20365000617960F3820161710622D9F80000711C0C3014F0C1FF02A9404615F0FDFE0028F9
:203670002CD0606902A9001F13F00CF8002825D1314602A813F0B9FDFF281FD0D9F80010B5
:20369000897C684335180A0018BF02290BD0012918BF032912D1325C6069691C001F15F026
:2036B000D7FE10280AD0606902AAE91D001F10F061F9062202A9E81D14F08EFFEBE0844C1B
:2036D0002068006800F108070F21387808421CBF00F00F00012874D10622B91C02A814F0CD
:2036F0007BFF3878DFF8EC91C0F3801800F00F00012846D1062207F10801684614F06CFF6C
:203710003878C7096946384615F0A6FE20B3D9F80000C07A022818BF032852D106F10D0012
:2037300015F08EFE00284CD106F10D01684615F083FE002830D0D9F80000062269460C305E
:2037500014F04AFF607940F00400607106226946F01D14F041FF14E03078874211D1062297
:20377000711C684614F0C6FB58B13078617960F3820161710622D9F80000711C0C3014F040
:203790002BFF02A9404615F067FE00284AD0314602A813F02AFDFF2872D005FB00F7D9F896
:2037B0000000817AF51959BB807C15F037F8814699F82E01022811BF0328F15D00F00100C1
:2037D00081425DD14FF4947009EB000606223146681C14F08FFB30B9062231463E4814F0E4
:2037F00089FB00284CD0012089F82E010622607940F00800607102A9304614F0EDFE0DE019
:203810002069F25D691C001F15F022FE102837D0206902AAE91D001F10F0ACF8062202A9E7
:20383000E81D2BE0D9F80000817A49BB807C14F0F5FF074697F82E01022818BF03281FD17D
:2038500002AA414630460FF006FFFF2818D06843351805F10D0015F0F3FD10B9687F0128D3
:203870000ED187F82E810622607900F0F70040EAC800607102A94FF49470384414F0ACFE64
:20389000216809680020087105E0002014F006FD862015F0CDFD07B0BDE8F08F6F4F00204B
:2038B000C8200020F44B0020CC470020104F0020F82B0020204A0020504F0020204F0020C4
:2038D000ED3800006E4F0020D04B0020702C0020AC4B0020184F002074A401002DE9F84FCB
:2038F000012013F027F901280ED1DFF8E454296800204871286811F04BFF05F047FB0400DD
:2039100003D1812015F094FD5DE201206071DFF8C464DFF8C4044178491C41702968A07944
:2039300081F8A00040200EF06DFD2060307901281CBF002014F0B2FCF0682168DFF89C64DF
:2039500000F5B060C86030680068007903281CBF002014F0A3FC3068DFF88494006800F108
:20397000080A4FF4977004EB00089AF80000C0F3801088F8000006224FF494700AF1020122
:20399000204414F029FE04220AF10E0104F1240014F022FED9F80000A37900EB43100422CA
:2039B0000AF10E010C3014F017FED9F80000A37900EB431003220AF11201103014F00CFEEC
:2039D00004F12C079AF81500B87002220AF1160104F1300014F000FE02220AF1180104F156
:2039F000320014F0F9FD02220AF11A0104F1340014F0F2FD3889608402220AF11C0104F15F
:203A1000360014F0E9FDB87879894000B8700901B88879814000B88089B2F8884000F880AD
:203A300080B2628C521C43005A438A4200D238B9DFF8B003007880210BF034F93B21F5E07D
:203A500004F12E01204614F0D5F90520A081204614F0A6FB05220AF11E0104F1610014F00E
:203A7000BBFD9AF823004009387015F0DDFC60822968DD4D498A401AA8F80C0004F161012D
:203A90009AF82300DFF864A300F01F00F873204612F0EEF831680968002008711C26A179BC
:203AB0002868714341F6210242520022A179714301444A80A1797143084442609AF8020075
:203AD000400609D5CA48008841F20A4188420CBFC848C948C4F89C012046D4F89C118847DD
:203AF000A2792968724311448873A1792868714308440021C173C148007870B1B88860B90B
:203B100078730120208160812046D4F89C118847A2792968724311448873A179286871434A
:203B30000844807B787394F8960108B914F0B6FBA1792868DFF8C8B27143084494F896117C
:203B5000491E01740022A17928687143084400214174A0792968704308444282A279D9F87E
:203B7000000000EB421372430A445361A27972431144A44A8A61DBF8141091F800C094F874
:203B900006E05FEACC714CBF102100215FEA8C724CBF202200225FEA4C734CBF40230023FD
:203BB0005FEA0C7C4CBF4FF0800C4FF0000C1143194300EB4E104CEA010141F00F0101721E
:203BD000D9F80000A17900EB41100B214172D9F80000A17900EB411004218172D9F80000BF
:203BF000A17900EB41108849097801291CBFDBF828104978C172D9F80000A17900EB4110E2
:203C10001F210176D9F80000A17900EB411000214176A0790BF09CFFA279D9F800105201E0
:203C30008850A0794201895821B90721204614F08EF8C8E07549096801EB001015F0F0FBAA
:203C5000724AA1791268D9F8000002EB011200EB41114A60A17900EB41114968F963A179CE
:203C700049014058786404215E4800780BF01AF86249B888097800F1020E19B110B9F888A6
:203C900000F1020E608A00FB0EF04FF4C871B0FBF1F0401CC4F818E0606140F6C41394F8BE
:203CB00006C02968226806FB0CFC8C44CDF800C0D2F80CC003FB0ECCACEB0000A0F5A86C07
:203CD0000098C0F808C0A0797043084480689060A07970430844017B01F0EF010173A179C9
:203CF000286871430844017B01F07F010173A179286871430844017B01F0F00141F0020187
:203D10000173A179286871430844417B01F0F00141F001014173A1792868714308442168BD
:203D3000806808616269D9F80000A17997F802C0520000EB411103FB0C2202F5F6624A6166
:203D5000A17900EB4110C17C01F0F00141F00401C174FA88D9F80000A1795A43DBF8303036
:203D70001B6800EB4111D21AA2F51672CA61A17900EB4110C17E01F0F00141F00401C17659
:203D9000A179286871430844216848609AF80100800615D5B8F83A001B2804BFB8F83C0059
:203DB0001B2809D1B8F83E00B0F5A47F04BFB4F86E01B0F5A47F03D0142120460FF09CFE73
:203DD000134907200870BDE8F14F00F02DBD00BF104F0020B44D0020684E0020F44B002085
:203DF0006C2C00206E4F00206C280020F82B0020504F0020273C01008F480100784E002046
:203E100018A401005C4D0020734F00208C4E00206F4F00202DE9F84F5FEA000A27D100208A
:203E300014F03CFA23E050460FF0AFFB62E2317C012940F07E80C078002877D098F8000076
:203E5000400088F80000B8F802004000A8F80200B8F804004000A8F80400B8F808000001AD
:203E7000A8F8080001203077504610F083F90AF16606707D002800F064824FF489700AEB2D
:203E900000094FF4A2700AEB0004717C4FF4C6700AEB000B00290AF186080AF1EC050AF1BC
:203EB0000607DFF8A404C2D0012946D0022931D0032957D0062900F0A480072900F01E8212
:203ED000082900F0F180092900F00F810A2900F0B3800B2900F0CA800C2900F013810F29D9
:203EF00000F04981112900F06A81122900F03881142900F0CE81162900F06C81182900F036
:203F10009D81F02900F00082FC2926D0FE2900F0048284E7317C012985D1C078002800F048
:203F30008281504610F026F91621F1E1B888F18B10E050460DF0E4F8DCE1317C01290DD123
:203F5000C07800281CBF012088F80A008CD1B888B8F80C10884200F09581F1E150460EF0CC
:203F700040FBC7E1317C012941D1807850B10020B071A078012805D10020A070002150462D
:203F90000FF0BAFDA87B01280AD10020286068600621012088F80E00504612F01FFB66E7EF
:203FB000E87B012818D1504610F0E4F8002088F80E0001203070504611F0B5FC0120B07111
:203FD00000206873697A387806291ABF00221A21002215F049FA4AE799F8050001286FD045
:203FF000308B401E308380B200284CD0A8E150460CF0A6FD3074F08A30830020A873E8734A
:204010009FE1307C01280ED1A87A01281FD1504610F0B0F8002028722873E872A873A872FF
:20403000E873687323E7504610F02EFB3074F08A30830020A87284E1307C01280DD1E87AEC
:20405000012802BF002088F80E000B21A4D0308B401E308380B2B0B172E1504610F038FC9C
:204070003074F08A30830020E8726AE1317C012916D1807808B103218EE7308B401E3083C6
:2040900080B20028E8D1297A3878012903D1222115F0EEF929E10022222115F0E5F924E126
:2040B00050460FF09FF825E1307C012814D1287C02280AF1FD0204D13978002015F0ACF9EC
:2040D000D2E6308B401E308380B200280CD13978222015F0A1F908E150460EF005FE30745F
:2040F000F08A3083012028742AE1317C012905D1807810B1B88B3883B6E694E050460FF0B2
:20411000D7FBF7E0307C01280AF20D1121D1087801280DD14878012809D1B9F80200009078
:204130000020CA78B9F80030397815F071F99BE6308B401E308380B2002810D1B9F80200D1
:2041500000902220CA78B9F80030397815F060F9CBE00120887050460EF07EFA3074EFE008
:20417000317C012903D180780028E0D15BE0504610F040FDBEE0307C01281CD16078012844
:2041900009D1207F0F281CBF002014F087F800206070002100E7A078012806D10020A070A1
:2041B0002322504611F0B6FF61E6207801283AD100202070EDE750460BF012FE9AE0317CFF
:2041D000012903D1C078002821D12CE050460FF0A0FB8FE0307C01282CD19BF80C008106DC
:2041F00048BF1821D6D4C10712D5207F16281CBF002014F053F89BF80C0000F0FE008BF8DF
:204210000C0000233978607F00220BF0DBFE2BE6810708D500F0FD008BF80C000023397813
:2042300000221A20F1E7308B401E308380B200285BD085E050460BF077F85BE0317C012972
:2042500022D1C078C0B19BF80C009BF80B1059B9810610D500F0DF008BF80C0000209BF8D6
:204270000A2039781346D0E700F0DF008BF80C0001208BF80600F7E57988BBF80800491C3E
:2042900088425DD1282143E0182150460BF04CF830E0307C01282AD19BF800004FF4B371C2
:2042B0000AEB0105810614D500F0DF0001078BF800000BD500F0F7008BF80000288B00909C
:2042D000AB8AEA8A698A387815F0DAF800202870CAE5810704D500F0FD008BF80000F5E797
:2042F000308B401E308380B250BB222110E050460DF0C6F93074F08A308321E0504610F0B8
:20431000C5F80128E4D01BE0407AD0B199F80610504613F01CFD012013E0B07E0F280CD10E
:20433000FC21504612F05AF9608900902389E288A188387815F0ACF802E0002013F0AEFFA2
:204350000020BDE8F28F00BF5C4D00202DE9F0475FEA000882B00BD1002013F09FFF07E02B
:20437000404610F093F8012864D140460FF002FF08F16605687D00285CD04FF49E7008EB57
:2043900000044FF4B070697CDFF894A408EB00094FF4C670022908F1EC07404408F106069D
:2043B00035D0042949D005295FD0062900F08E800729D5D0092900F0F4800B2900F0C68043
:2043D0000C2900F026810D2900F0D5800E2900F0F6800F2900F05D81102900F07881112987
:2043F00000F09681122900F04181142900F0D681162900F09781172900F0C381FC2919D06C
:20441000FD2900F0F481FE2900F0F681A4E7287C012809D19AF80300002814D016214046E3
:2044300013F095FC012006E040460FF0AEF82874E88A28830020BDE8F687287C012810D1FD
:204450009AF80200002800F01881FC21404612F0C5F8307808F1B80208F1B00114F0D4FFC9
:2044700086E740460CF072FDE1E7287C012810D19AF8020028B1012088F8940000203860FE
:204490007860B87A012869D10621404612F0A6F86EE708F1E7063078012809D1404611F0E5
:2044B00083FF0128C6D10020B87201202874C1E770780028BED008F1C70208F1A00108F108
:2044D000D70014F0D9FF0120307051E7287C012838D19AF80200002840D0B08B308340460A
:2044F0000FF048FE01202870404611F01CFA0120A871397A787C012900F010000CD130B148
:204510000020607120684108A0790EF0D7FF3078002114F0ADFF0FE048B14FF4A17008EB34
:204530000003206842084146BE4814F05BFB30780122002114F098FF002038723873F87249
:20455000B87215E7404610F09FF870E7287C012805D1F87A012808BFFC2196D08DE0404636
:204570000EF040FE012853D10020F87288F8940001202874FCE6287C01280ED19AF8020025
:20459000002809D0002088F8940001202870404611F0C9F90120A871BDE0404611F088FBF3
:2045B00045E7287C012806D19AF8020000281CBFB08B3083A6E040460FF07AF937E7287C56
:2045D00001281DD1387C022808F1FD0204D13178002014F021FFC8E6032806D131781A2089
:2045F00014F01AFF00203874BFE6288B411E298389B200290CD13178222014F00DFF42E001
:2046100040460EF071FB2874E88A28830120387410E7297C012908F20D1021D14FF4897108
:2046300008EB0102017801290BD14178012907D1518800911388C2783178002014F0E8FE48
:2046500093E6298B491E298389B20029E0D1518800911388C2783178222014F0D9FE12E0FE
:204670000121817040460DF0F7FFE0E6287C01280BD19AF802000028E2D1288B401E288304
:2046900080B20028C4D12221C9E6404610F0B2FACDE6287C012816D1607A012803D199F828
:2046B00000000F281CE0207A012829D100202072288D00090090A88CEB8C317842081A2022
:2046D00014F09EFE51E640460BF08AFBAFE6287C012819D1607A012812D199F800001028F2
:2046F0001CBF002013F0DAFD00206072288D00090090A88CEB8C3178420899F80100DFE79F
:20471000287F0028DED1B8E740460BF0BAFB8EE6287C012802D19AF80300F2E740460FF02F
:20473000F8F884E6297C012926D1017B4A062ED4CA070AD501F0FE0101730023317899F80A
:20475000010000220BF03EFC0FE68A0707D501F0FD0101730023317800221A20F2E7288B78
:20477000411E298389B2002955D131780023002222200BF027FC86E7162140460AF0D4FD51
:2047900055E6297C012907D1017B4906BBD5017B01F0BF010173E8E51721EEE7297C012982
:2047B00020D101788A0617D501F0DF010A0701700ED501F0F7010170B9F81E000090B9F863
:2047D0001A30B9F81C20B9F81810307814F058FE002089F80600C8E58A0794D501F0FD017A
:2047F0000170F5E7142140460CF04AFF1FE6A97E404611F0F3FEBBE6A87E0F280CD1FC21C0
:20481000404611F0EBFE608A0090238AE289A189307814F03DFE0DE6002013F03FFD09E634
:204830005C4D0020252301002DE9FE4FDFF85084D8F80400009018B9BDE8F74F14F0DCBD8B
:204850000078DFF84094DFF840A4DFF8404401281CBF0228042846F2A81741F64C5B05D00B
:20487000402818BF802800F0F98001E214F06CF90028FAD00098007807F094FE05466E68E0
:2048900016B9002013F00AFDDFF804044078002800F0A58004F082FA13F0C0FF0190006810
:2048B00002900146476828460BF03AFF02286FD02978012904D0022927D0042945D0D7E19A
:2048D000DFF8D0130968097A1AF80110217018B914F08EFD5844B0603069C17E01F0EF01A1
:2048F000C1763069C17E41F08001C1763069C17E01F0F00141F00201C176B868DFF89813E9
:2049100008183169C8610120A4E00521217018B914F06EFD5844B0603069C17E01F0EF01A3
:20493000C1763069C17E41F08001C1763069C17E01F0F00141F00201C176B868DFF85813E8
:20495000081831690862022084E00621217018B914F04EFD5844B060D0480068807C11F09C
:2049700059FE3069C17E01F0EF01C1763069C17E41F08001C1763069C17E01F0F00141F034
:204990000201C176B868C44908183169086260E002980078802811D108202070C048007868
:2049B000012803D0BA484078022801DB012002E0D9F8280000787969C8720AE00720B84989
:2049D00020700978786901291CBFD9F828104978C1720198AE4980798870029844E1002D66
:2049F00018D000992878A9420ED1401E012833D9C01E05D1A9480068807C11F00BFE2BE00B
:204A1000002013F04BFC27E0012804D0022815D0042817D02CE19F480068007A1AF800000E
:204A3000207014F0E5FC3918B06814F0DDFC18B914F0DEFC5844B06001200BE0052020708F
:204A5000022007E00620207094480068807C11F0E1FD042088F80200284605E18C484078E2
:204A7000002800F0B68004F099F913F0D7FE00900068019045688648807813F0CFFE02901C
:204A900014F068F80721084278D098F8020007F089FD0646019977680BF042FE02286DD072
:204AB0003178012904D0022924D0042940D062E078490968097A1AF80110217018B914F063
:204AD00097FC5844B8603869C17E01F0EF01C1763869C17E41F08001C1763869C17E01F0ED
:204AF000F00141F00201C176A8686B4908183969C86192E00521217018B914F079FC58448C
:204B1000B8603869C17E01F0EF01C1763869C17E41F08001C1763869C17E01F0F00141F0B9
:204B30000201C176A8685C4908183969086283E00621217018B914F05BFC5844B8605748B0
:204B50000068807C11F066FD3869C17E01F0EF01C1763869C17E41F08001C1763869C17EDC
:204B700001F0F00141F00201C176A8684A4908183969086274E0002013F090FB02980099D4
:204B9000884224D001980078802811D10820207043480078012803D03D484078022801DBB2
:204BB000012002E0D9F8280000786969C8720AE007203B4920700978686901291CBFD9F818
:204BD00028104978C172009831498079887001984AE013F0BFFF072108424ED098F80200F0
:204BF00007F0E0FC064630787568012804D0022815D0042822D040E026480068007A1AF855
:204C10000000207014F0F4FB3918A86814F0ECFB18B914F0EDFB5844A860012021E005200D
:204C3000207014F0E5FB3918A86814F0DDFB18B914F0DEFB5844A860022012E00620207097
:204C500014F0D6FB3918A86814F0CEFB18B914F0CFFB5844A86011480068807C11F0DAFC6A
:204C7000042088F802003046BDE8FE4F09F0B2BDBDE8FE4F002013F011BBBDE8F78F00BFE3
:204C90003C2C002018A40100289A01106F4F0020684E0020104F0020F0D8FFFF184F00206C
:204CB000734F00202DE9F04F0C46E00789B00DD513F0BEFD38B100218160DFF8000400686D
:204CD000010018BF804784F00100F4E11E252007DFF8EC6340F18A80DFF8E8030068807CEA
:204CF00013F09CFD07464FF4947097F82E8107EB0009002007908246DFF8C8030068807CB6
:204D1000FF2804BF002013F0C9FA4A46414630460EF0A1FC834605FB0BF00090351849465B
:204D3000404614F099FBB0B1BBF1FF0F2CD00098305C40F00208E81D079005F1010908F03C
:204D5000010087F82E0106224FF494704946384413F042FC18E04946404613F0F5FC0028B0
:204D700018BFBBF1FF0F0FD005F10D0014F068FB40B905F10D0014F063FB002804BF687F19
:204D9000012801D148F00208CE480068C07A022818BF032806D106F10D0014F051FB08B9F6
:204DB00006F1070A0020BD1D06904346288E000905900022E88D0490A88DCDF804A040085D
:204DD0000390CDF80090079802900020297814F007FBD7F89C01BC49884228780CBF00211C
:204DF00001210CF009FC84F0080064E1E00610D500200690059004900390029001900090CF
:204E1000002300220021022014F0EAFA84F0100051E1A00710D5002006900590049003905E
:204E30000290019000900023012200213C2014F0D7FA84F002003EE16007A44F40F1A180D6
:204E5000A34880784FF00008CDF81C80FF2804BF002013F023FA386890F8A00013F0DEFCE8
:204E700081464FF4947009EB000B3868C07A99F82EA1022818BF032806D106F10D0014F0D0
:204E9000DFFA08B9F01D07905946504614F0E4FA90B33868807A010018BF012804D1314683
:204EB000584612F0A2F904E05A46514630460EF0D2FBFF283ED005FB00F806EB08050622F8
:204ED0005946E81D13F088FB16F8080040F0020A3868807E00F0010089F82E01062238683F
:204EF00000F114014FF49470484413F075FB05F1010B05F107081DE05946504613F024FCFA
:204F1000C0B15A46514630460EF0A5FBFF2811D06843351805F10D0014F092FA40B905F143
:204F30000D0014F08DFA002804BF687F012801D14AF0020A09F12C0009F10605017806917B
:204F500053464189090905910122A98B0491C088CDF8088040080390CDF800B00798019035
:204F70000020297814F03CFAD9F89C015649884228780CBF002101210CF03EFB84F00400F4
:204F900099E0200610D5002006900590049003900290019000900023012200213B2014F092
:204FB0001FFA84F0800086E0E0043BD5F11D06F10D0014F011FA38684179012923D1017A66
:204FD000012918BF04291ED1C17A022918BF032919D1817E00F1140230460EF03CFBFF2879
:204FF00011D06843351805F10D0014F029FA50B9E91D05F10D0014F0EFF938680622E91DD2
:20501000143013F0E9FA33484268334800784FF4805110F023FC10B18E2014F0D9F984F44E
:20503000805048E0A00505D513F064FD2B4901200860FEE7600504D50BF0A3F984F4806076
:2050500039E0600405D5812014F0C2F984F4804031E0A0042ED5224D286810B1002013F0B6
:205070001DF94FF0FF3028600EF0ECFE1D4D296820316846096888471B4841682D681B4AEC
:2050900000916B468168019100210291016909680391017B00688DF81010ADF812002D684B
:2050B00013491448A8471449086004F0E1FD84F4005000E0002009B0BDE8F08F204F00206E
:2050D000C8200020184F0020273C0100104F0020684E0020784E00206E4F0020FC00204356
:2050F000044F0020F04E0020701600209C2B0020C018002070280020EC4E00202DE9F043EF
:20511000DFF8AC43DFF8AC3394F80080DFF8A8E3DFF8A893DFF8A863DFF8A813B8F10D0F4A
:2051300083B0404641F2064741F202424FF4A05553D8DFE818F0BB010E000E000E000E0089
:205150006D00A500E9001D015F015F01900190019701DFF87413DFF87473C3F800E041F2C2
:20517000044E4C8874451CBFB1F81A80F0450BD0B1F83290F1451CBF41F20A4E744503D07F
:20519000F04518BFF14502D1A6F800E02AE0022CDFF83C73348036D94FF4806CB4EB0C040D
:2051B0001CD0241F012C1FD94FF47F7CB4EB0C041CD04FF4406CB4EB0C040FD0A41E012C46
:2051D0000CD9241F0AD0641E012C0DD940F2F930241A012C17D9241F08D05FE1022814BF1A
:2051F0003580BC4F1F60FDE0BB4FFBE7BB480068007A012803D14A804A834A86F2E74D80A8
:205210004D834D86EEE7002013F048F8832049E1B348418831800229C3F800E014D940F27C
:205230000442891A2AD0491E0ED040F2FB32891A1DD00A3901291AD940F6F632891A03D013
:20525000491E1BD0491E012940F2C680091F15D0491EF9D0491E11D04FF47E72891AF3D0C5
:20527000491E0BD0C91E09D0491E012947D8817B478025290CBF2721491E817399483CE0F0
:205290009948418831800229C3F800E068D940F20442891A30D0491E62D040F2FB32891AE6
:2052B00023D00A39012920D940F6F632891A57D0491E21D0491E012952D9891E13D0891E18
:2052D0001AD0491E4CD0491E16D0891E0BD040F2F632891A44D0491E0ED0C91E0CD0491E02
:2052F000012902D90BE0814807E0817B478025290CBF2721491E81737D48186072E00020D0
:2053100012F0CCFF84206BE099F80200FF2855D07849C3F800E01C2209685043084440F2C6
:2053300004444188744A3180091B012946D94FF47F74091B15D00A39012916D940F6F63475
:20535000091B032984BF491F01290FD9891E012934D940F2FD34091B08D0491E012904D985
:205370003AE041F20141418000E045801A6039E099F80200FF2821D05E49C3F800E01C2468
:205390000968604308445D4C4188318040F20446891B012912D94FF47F76891B17D00A393F
:2053B000012916D940F6F636891B13D0891E012984BFC91E01290DD9891E012976D940F27E
:2053D000FD36891B06D0491E012902D904E0428000E045801C6005E0002012F05FFF8520D3
:2053F00014F026F803B0BDE8F04345480078012109F058BC4A88328040F20443D21A55D0AE
:2054100040F6FC73D21A15D0083A4FD04FF47F73D21A22D13B4C3C4A24683C4800680023E9
:20543000CDE9002308343A4B24680222A047394908803BE0092810D137480068408960B133
:20545000364800780EF02CFD0021002013F0BCFF002020702AE048883080002012F01EFFA7
:2054700085201FE04A883280022A0DD940F20440121A1BD040F6FC70121A05D0083A15D08B
:205490004FF47F70121AE8D1887B801CC0B2B528A8BF662088730020488007E0002012F01E
:2054B000FDFE8420BDE8FE4313F0C2BFBDE8F7836F4F0020204F0020DD8C0100684E002007
:2054D000504F0020DC2B0020204A0020ED38000079CD000085F20000755B0110104F00200A
:2054F0009C4C0020651401006C4C0020555900004D1F01006C280020897D0000EDB10000CF
:205510006E4F0020F04E002002000080EC4E0020015D0100424F0020742C0020714F0020B4
:205530002DE9F84FDFF8F443A078FF2804BF002012F0B4FEA07813F071F904464FF4C970CF
:2055500004F1680625183068006804F1900708B100200EE0B07B002804BFB07E002809D102
:205570003878002801BF28780028207F012801D1608CE0832089E18B0818401C60812046FA
:2055900012F0ECFA01281EBFE5480078012804D10020E0832089401C6081B07E01280CD1CD
:2055B000B28B6189208913F00BFF30B121896289481C82422AD0B28B1FE0387801280CD174
:2055D0007A886189208913F0FBFE30B121896289481C82421AD07A880FE02878012815D102
:2055F0006A886189208913F0EBFE00281FBF2189481C6289824209D06A88824206D0501E94
:20561000608180B213F0D8FE401EE0832878012801BF68882189491C884207D16A792A7125
:20563000002028701346A1790AF0CCFC4FF49A702044007920B10020E0832089401C608109
:2056500004F12E07B07E012801BFB08B2189491C884237D1608104F18601204612F0CAFB53
:20567000B08CE189608400202077E08360890818A0812189B08B13F09FFEB988328C01FBCC
:205690000028708CF28C884204BF3B899A4202BFB18CFB88994207D0110900914208B38CC4
:2056B000A179002013F0ACFEB07F3870708CB880B08CF880F08C3881204612F071FD022007
:2056D000B07601E0B7F80480E08BDFF85892411C01FB08F140F6C41808FB01F200922268DE
:2056F000DDF800C0D3686344DFF83CC2D360DCF800C08E4A9CF800C013884FEA9C1CBCF122
:20571000030F12D199F80FC05FEACC7C48BF00230BD45B1C9BB2012B07D14FF49A7CA44481
:20573000BCF806C00CF2DC5C01E0B4F812C00CFB01FC4FF4C87EBCFBFEFCDFF8F4A10CF1A3
:20575000010CC4F814C04FF01C0B138084F82000A161A279DAF800102068C3680BFB02F25B
:205770000A4492680261A279D4F814C00BFB02F20A44A3EB0C039360A2790BFB02F20A4478
:2057900092688260A0790BFB00F00844017B01F0F00141F002010173A179DAF800000BFBCA
:2057B00001F1084400214180287908B912F076FDA179DAF800000BFB01F1084429794908BF
:2057D0000174A179DAF800000BFB01F10844002141742879042812D1A179DAF800002A7AFE
:2057F0000BFB01F10844017C41EA82010174A179DAF800000BFB01F108442021417400226D
:20581000A079DAF800100BFB00F0084442824948A2790068D4F814C000EB4212536903EBDA
:205830004C035361B27E022A07D1A2793E7800EB4212536908FB0633536199F80F20D207CC
:2058500040D5A2790BFB02F20A449368A3F5A8639360A2790BFB02F2114422688968916059
:20587000009BC91A1161A17900EB41114A6902F5F6624A612979042906D1A17900EB411127
:205890004A6902F5B0624A61A17900EB41114969C4F8341128490D6BBB88A2792D6808FBA8
:2058B00003F300EB42125B1BA3F51673D361A27900EB4210214A1278012A0EBF0121896A7E
:2058D000497818E0A279297900EB4212042952690CBF4FF44B614FF4E661511ABA8808FB27
:2058F00002F2A2F516729142D4D30821204612F02EFA01200FE0C172A179DAF800000BFB1D
:2059100001F108442168486007200D490870204610F00DFB0020BDE8F28F00BF684E0020CA
:20593000784F00205C4D0020084F00208C2C00206C2800206C2C002018A40100734F00204D
:205950006F4F00202DE9F84FDA4DDFF86C832868DA4F807CDFF8689312F060FF296804464C
:205970000020487104F12E0A28680FF011FF012060711C2598F80100401C88F80100802031
:205990000CF040FD20607969C160CE4801894900AAF802105146C07940008AF80000BAF85A
:2059B00004004000AAF80400BAF808000001AAF80800204612F01EFA0520A081204612F05A
:2059D000EFFB386813F0F4FC062210F8081FC1F3801184F82E11811C4FF49470204412F099
:2059F000FBFD3968B84F09680020087141F62202A1793868694342520022A179694301446B
:205A10004A80A17969430844426099F80200400609D5AE48008841F20A4188420CBFAC48BC
:205A3000AC48C4F89C012046D4F89C118847A27939686A4311448873A179386869430844F0
:205A50000021C173A179386869430844807B8AF80B0094F8960108B912F020FCA1793868EB
:205A70009D4E6943084494F89611491E01740022A17938686943084400214174A1793868C0
:205A9000694301444A82A179326802EB4112694301444A61A1796943084490498161A079C3
:205AB0000AF056F8A279316852018850A07940010A5822B90721204612F049F9F5E0084425
:205AD0001F2202763068A179DFF814B200EB411000214176DBF80000A17900EB011013F0AE
:205AF0009FFCA179DBF800203068DFF8F8B102EB011200EB41114A6004F16801A27900EB8B
:205B1000421252680A60A279520182588A60DBF8141091F800C094F806E05FEACC714CBF88
:205B3000102100215FEA8C724CBF202200225FEA4C734CBF402300235FEA0C7C4CBF4FF099
:205B5000800C4FF0000C1143194300EB4E104CEA010141F00F0101723068A17900EB41108B
:205B70000B2141723068A17900EB4110042181723068A17900EB41105B49097801291CBF18
:205B9000DBF828100978C1723068A179626A00EB4111CA60A17900EB4110A16A01743068E3
:205BB000A17900EB4110A16A090A41743068A17900EB4110A16A090C817408214B48007875
:205BD00009F070F82168A2793868CB686A4302449360CA680A61CA688A60A179694308442C
:205BF000017B01F0EF010173A179386869430844017B01F07F010173A179386869430844FF
:205C1000017B01F0F00141F002010173A179386869430844417B01F0F00141F0010140F6B5
:205C3000C4134173BAF804203068A1795A43DBF830301B6800EB4111D21AA2F516724A61FB
:205C5000A17900EB4110C17C01F0F00141F00401C174A1793868694308442168486099F8E0
:205C7000010080061BD54FF497702044408F1B2801BF4FF497702018808F1B280BD14FF42A
:205C900097702044C08FB0F5A47F04BFB4F86E01B0F5A47F03D0142120460DF02DFF1449D8
:205CB00008200870A07988F80200BDE8F14FFEF7BBBD00BF184F0020684E0020AC4B002014
:205CD000F82B0020844C00206C280020504F0020273C01008F4801006C2C00205C4D002051
:205CF0008C4E002018A40100734F00206E4F00206F4F00202DE9F04F0F46BD4C0168616261
:205D100041688068ADF1140DA060BA4861608047B948616A01606168DFF8FC924160A16894
:205D3000DFF8F0828160B549002FA246C16068D03D68E8788DF8080028798DF8090002A850
:205D500013F032FBA86808B1AD490160E86808B1AC490160AC4C2878207068786070A8788C
:205D7000BE68A0703178E1707368636072696261B168A160F168E160316921612E697B685D
:205D9000A6621868A0616869E062A8692063287F84F834002A6AA263786886681EB900200E
:205DB00012F07CFA00E026627868C06818B9002012F074FA00E060627868406818B900206F
:205DD00012F06CFA00E0E0612869A062F86881680E6806B98E4E8D494FF0010B4E60C66840
:205DF00081F801B026B9002012F058FAF86801E041460E6000684D46FE68A8617068E86155
:205E100005E0002012F04AFA4FF0010B4D46D8F80000824944686A1C05F114035020A04718
:205E300018B1D8F8000080688047DAF80400804703907B487C4C286100272771B946E770B1
:205E5000784EA770300BC6B2401CC1B226703846617028E0304639466A46042310F0D0FF4B
:205E7000009BA078B3F5801F0ED043B9B9F1000F03D048460FF076FBA078B14610E030463F
:205E90000FF070FBA0780BE0002804BF301CA67006D00FF067FB30460FF064FBA770384698
:205EB0006178761CF6B2B142D4DA98B9B9F1000F08D1207811F0D0FE0420E0802079394638
:205ED000A0B912E084F8029011F0D2F8484607F047FE07E0B9F1000F02D048460FF042FB88
:205EF00011F0C6F82079394600B95946081C02D1384612F0D3F93C464C4ED8F80000B46020
:205F10008069AC60804770604948478080F800B0142012F065FDFF211422A86212F0F3FE7A
:205F3000E81CFF21022212F0EEFE142012F058FD4049086008681422394612F0E4FE384618
:205F5000FAF738FD584610F029FE3B480188FF2906D1022101807822001D394612F0D3FE8E
:205F7000032013F01DFA042013F016FA052013F00FFA062013F008FA07200DF0EDFF2F4EB4
:205F90000820307006F1400013F0FAF90EF026FA363605200A21324611F03EFB38B1384609
:205FB000C0F10901401C06F8011B0A28F8DBD8F80070234909200DF10A0201AB7E680870B2
:205FD00010202146B047A86AEA690A270A309DF80A1000F8011BDAF808107F1EF7D1921E91
:205FF0000398EA61884704F003F805B0BDE8F08FF412002041490010F84400200095010062
:20601000197401009984010048160020681900204B560100241A002088170020457C010024
:206030008985010000D00100542C0020302C0020201A0020802C00200C1400207C0E002044
:20605000992C00202DE9FF47C44C0F460646F80B80F05981B80880F04681207BDFF80893ED
:20607000B90F80F0BA80A07A002840F09A803809C0F09980E07A20B10020E072052010F046
:20609000D7FC00254FF00108B549657004F178002A4684F8088012F01FFE607901281AD1F0
:2060B000A079C0B9DFF8BCA2DAF8000000283CD048460068006B8047A1695346401A000BD3
:2060D000E0611968226A8018B0EBC11F98BF20622BD9256201E084F8058040F60900208723
:2060F000A24994F845000A1D00F0F00040F0010084F845001368658794F8440000F0F000C4
:2061100084F8440023F002001060E5636FF002020A6004F1380341F8103C08688008FCD399
:206130000A60486840F002004860914A1068914920F00200A56140F400701060032341F8A3
:20615000043C41F230038B604046086050238B6008604FF4CA638B60086041F80C0C0220B4
:20617000156010F065FC112008F0FCFD307C10B90E2008F0F7FD25726572A078012803D006
:2061900006F1400013F0F8F87B4812F0A1FC7B490878F8B10D7004F1D400042112F064FAAB
:2061B00018E0380914D2B80BC0F0CE8004F1280012F09DFD061C08D0706830B17568F0684E
:2061D000B6F91C1000222023A84727F40057BBE00020A07227F00807B6E020B1042010F090
:2061F00027FC00202073B168088840F602084FF0000A80450AD0B0F5C15F07D00A8B4FF672
:206210001F60104040F43470088306E00A8A4FF61F60104040F434700882A069D8B14D4627
:20623000686D016804208847A8B12868006B8047A169814226BF401A401E401A000BF060E3
:20625000708AF168401840F6C411F06081422CBFB0F5FA7FF160B5699DB14948A84210D044
:2062700094F8450010F00F0F0BD1718D08F10700884206D130466FF4807152464FF0007390
:20629000A847404904F17800524612F025FDA07958B10220ADF80000684611F089F884F8B8
:2062B00006A0BDF80800A4F87400012060702079401C207104F1240084F807A012F017FD92
:2062D000002808BF47F0020702D0192012F0A4FB75692DB1514630464FF080630A46A847A9
:2062F00027F0005730E004F13005284612F0FFFC07F03EFB284612F0FAFC27F0020708B10C
:2063100047F0020720E013F033F8014604F12C0012F0EDFC0646B569A80810D27EB125EA72
:206330000500B061084613F01FF8706850B12A46F068B6F91C1075680023A84702E0084634
:2063500013F012F827F4804727B104F1D400394612F08AF90090BDE8FF87C046680A002046
:20637000FD7B0100602C00208C01001010100440000004600C41044069CC00005C2C002015
:206390006F2A010085CE00002DE9F04F09AFADF13C0D08900A92388809911E46ADF818005D
:2063B000101C08BF002000F08481002700F101094FF0FF3A4FF0010BB8466CE1252940F017
:2063D00063811078521C0A922D2818BFADF8068005D15846551CADF8060010780A953028D1
:2063F0001CBF4246434605D10A9908785A465B46491C0A912A28CDF80080554616D13068B6
:2064100004930A99CDF808A0C01C4B1C20F00300001D306050F8044C0A93002C087800944D
:2064300018D5ADF806B06442009413E044460AE0610001EBC40140180A99A0F13004087811
:206450000094491C0A91302801DB3A28F0DBCDF808A004932E282BD10A9908782A2801F17A
:2064700001010A9111D13068CDF80880C01C20F00300001D306050F8045C002D48BF4546A5
:2064900008782B46491C0A9111E0454643460AE0690001EBC50140180A99A0F130050878B0
:2064B0002B46491C0A91302801DB3A28F0DB02930AB1224604926C2804D04C2818BFADF854
:2064D000048005D10A990878ADF804B0491C0A910BA9CDF80C800FAB07916428059300F06B
:2064F0008B80692800F08880BDF818C0752872D078286ED06F286AD0702850D063283DD08D
:2065100073281ED009980A990128A1F101010A9115D96B490C68B5F1FF3F03D0A84288BF48
:206530006D1C00D8099D029508A80AA932466B46A047C7190A99039801F1010974E0404646
:206550002AE030680A99C01C20F00300001D306050F8040CBCF1000F01F10109014608B932
:2065700055A00146079112F09FF90390B5F1FF3F5BD0A842C4BF281C039056E03068C01C0D
:2065900020F00300001D306010F8040C5D468DF82C000A990395584601F1010945E008209D
:2065B00035680490E81C20F00300001D306050F8041C082210230FA80CF01AFA401E079055
:2065D000402101700A99079801F1010929E0082302E0102300E00A230A99306801F101090E
:2065F000C01C20F00300001D306050F8041CAA42BCBF2A1C049210E00A99306801F101091D
:20661000C01C20F00300001D306050F8041CAA42BCBF2A1C04926FF009030FA80CF0E8F924
:206630000790059D281A0390009C241ABDF8065000945DB906E008A8202109AA11F06CF8BE
:20665000009C7F1C641E0094F5D503980546401E039075B9BDF80600E8B10098401E009034
:2066700019D408A8202109AA11F056F800987F1CF4E70798411C0791017809AA08A811F0AB
:206690004BF803987F1CE1E708A809AA11F044F87F1C09F101094A460A9812F8011C401CB5
:2066B00000290A907FF48AAE089808B14146017038460FB0BDE8F08F286E756C6C2900C0DE
:2066D000E8A30100BB482DE9F84F0025BA4CB849056094F8E200002800F06581012800F0A8
:2066F0002F81B64E02283CD0032840F05C8151F8250CD4F8B8100029A0F5C060C4F8D400EC
:20671000B8BF49420028B8BF4042814226DA4FF08057D7F8A4014568B4F8BC0030214FF450
:206730007F42082300903046A847D7F8A4014568B4F8C00004214FF4F8021223009030463E
:20675000A847D7F8A401B4F8D070456820214FF440620A2330460097A847012584F8D85014
:206770001CE151F8258C12F0C5F92F4600B901273946934F38680028FCD0B146012609F1EF
:206790000409D9F82CA03E6009B112F0B9F9CAF30720C4F8BC0012F0ADF9AA4600B9B2468E
