:2000000000400020795F010001C9011001C9011001C9011001C9011001C9011001C9011085
:1C00200001C9011001C9011001C9011001C9011001C9011001C901103FC9011089
:20003C0080B54FF4FC720FF278011A4810F082FD194800210170012141740221C17601BD81
:20005C002DE9F0410FF25021144838220B684C688D68CE680F69D1F814C0D1F818E0D1F824
:20007C001C80036044608560C6600761C0F814C0C0F818E0C0F81C8020312030521EE5D1F7
:20009C004A688B68CC680968016042608360C460BDE8F081480400215903002100C000210F
:2000BC00410500217D0500212D06002170B51D46004C204787B2000010B5014800470000FD
:2000DC00D509000070B5614C6148254650358047022809D14034E1885E4A914204D1E97C5E
:2000FC00890601D4911DE18070BD70B557495A4A084650300378002B10D08379012B0DD181
:20011C00037C5B09DB0709D0097D544DC1746C7F20202043687790476C7770BDFF21C17420
:20013C00904770BD10B54E48484C804702280ED121464031CA88474B9A4208D1CA7C5209CE
:20015C00D20704D0227D920601D49A1DCA8010BD70B53E4843494030C07C4009C00707D032
:20017C003E4D41482C8B2043288388472C8370BD884770BD10B53B48344CAC388047214609
:20019C0053310A789309DB0705D04034A2730A7803231A430A7010BD2C4940310871182876
:2001BC0012D004DC0A280BD00B2804D10AE025280CD02A280CD02D4980004018C0687047DE
:2001DC002B4870472B4870472B4870472B4870472B48704770B504461C484E252D5CAE09AB
:2001FC00F60716D0067D3007000F052803D00120054202D00DE00220FAE7E80905D07006D1
:20021C0003D54868800F012803D05B085B0052085200062B03D01020022B11D011E0FB20F7
:20023C00024002232046FFF741FF002807DAC100611A2039497E1422114200D1002070BD93
:20025C00024303432046FFF731FF70BD4401002137CB000004140000EBC80000A800002142
:20027C00F5B4000053AD00002020000080DF00001D050021F9040021CD040021930400210F
:20029C006D04002110B5034CFFF716FF20680028FAD110BD0011044068610000F825F965B0
:2002BC00F9754500450045002600260057A3520052004C00401F401F401F3F000000000053
:2002DC00304000400140034007400F404F40CF40CF41CF43CF47CF4FCF3FCF2FCF1FCF0F6C
:2002FC00000000000000000000000F00080000003F00000040003F000000040068000E0093
:20031C00DC00060043001A00050000000000020000000000000000000400C00000000400B3
:20033C00C000000007000000000000000000000000000000000000003040004001400340A6
:20035C0007400F404F40CF40CF7FCF6FCF5FCF4FCF3FCF2FCF1FCF0F00000000000000009D
:20037C0050C00091007070C00091007082312100319110B10070018101B100A1823132910D
:20039C0010B101911110418141227740F106007051C0019130181039833108D01831416FD1
:2003BC003100319110B18314141683680070251050C00091F4C340C12014036F3110410497
:2003DC005082F0229840512622C082312100319110B163393110410482C08231210031919B
:2003FC0010B163393110A2C082312100319110B150101531051405920070676452C03110A6
:20041C0031066131C1026A6412C13110213971065131E1026A64007051C0019101CCE2C0CC
:20043C006A64676411C1C2C06A6450B054B0007140804022D6440022C94060B08180111EC9
:20045C00C944007054A064B0F0800022C9404012B09032B070C1DF6811C122C16A6470C1C0
:20047C00E46851C00191E2C0823160820200329110B130C2EE68538253395339B16460C347
:20049C00F4688012B09032B00070676401C122C16A6401C1C2C06A645382B164C012B09074
:2004BC0032B00070676472C281C06A6422C111C16A6402C011C16A6462C031C36A6462C3D2
:2004DC0011C16A6402C311C16A6453825339B164E2C36F6411221C4142C281C86A6452C24E
:2004FC0011C16A6472C2E1CE6A6402C281C86A6402C201C86A64B0C030690070676442C211
:20051C0001C86A6452C211C06A6472C2E1C06A6402C001C16A6462C001C36A6422C101C127
:20053C006A6462C301C16A6402C301C16A645382B16400708180111E5C4150B054B000712B
:20055C00408040225D4154A064B0F1800122514500700022514160B04E61000000000000AA
:20057C000000000000000000067305720B720E7250B00071818060B050A09280F0EFF1928C
:20059C0002936A6741228C458080F1C11004301601110114016CB561B661B761B861B9618D
:2005BC00BA61BB61BD61BF61C161C36126632D63F0C002043231412A121432160111211412
:2005DC00016CDA61C561E061C761CB61B561B561B561F461C561FA61C761CB61B561B56104
:2005FC00B561F461C561FA61C761CB61B561B561B561E761C561ED61C761CB61B561B56121
:20061C00B561CF61CF61CF61CF61CF61CF61C064CF61F964CF610665CF613265CF6174676A
:20063C00CF611166CF61C0644E65F964CF61066511663265CF618280E0DFF2926A67B0B044
:20065C00D661B1B00673057230B06C61D0CF6A6784C203C0C0C37C64207851788278E378B7
:20067C001579B6780062C0CF6A6784C203C0C0C37C64307861789278F3781579C678006250
:20069C00B0CF6A6784C203C0C0C37C6440787178A27803791579D678109221923292439281
:2006BC005492659256911FC0FF914039F00601101031101400927067CF61E3B054A0F08076
:2006DC0050221A4640800022BE461262E3A000C86091598150B0918041228E46A0CF6A6734
:2006FC0012828231823942398B641282F2062F101F312F141682D622334640C1346200C5AF
:20071C0020140D6F6D39DE10F4C34E0482C082312E006D39A2C082312D001A828A39FA0606
:20073C002082803180390BC00B18BC10AC18038239149B141082F0060110103110145181C2
:20075C0010140C14C622C94631D0C1266462021011C0013010C00118021882312100C126C2
:20077C00919103B013B063B053B041800122BE46B481C491D581B51C774E95186591F0803E
:20079C00102269428C623D9110B13E9110B1E08000228146E6228142E0B0951865910F926B
:2007BC005981F914F0805022114210228C464D6390CF6A6763B052A03082F2C0200402107E
:2007DC0011C0013010C00118021882312100C1269191919113B003B063B053B064B054B055
:2007FC00007141800122BE4663B064B0F08050221142B181C191D1819118619131B0A462D0
:20081C002967E0A059810582591480C0007163B0BA6A6962E3A0018262818231823D80EF61
:20083C00F19202936A6703A0007037824739873930828039F006021011C0013010C0011849
:20085C00021882312100C126819102B012B030824039F006021011C0013010C001180218E9
:20087C0082312100C126919103B013B063B053B0007153A062B052B041800122BE46A4816E
:20089C00C491D581B51CFE4E95186591F0801022F0428C62B481C491D4814518751C084FEB
:2008BC00F0801022F0428C623D9110B13E9110B1E08000221247E6221243E0B065910F92DC
:2008DC005981F914F0805022114210228C4630632967E0A0598105825914F0C0007162B038
:2008FC00226BF062A2808B64CF6112824239F2068B6050B00071CF6170CF6A674082418096
:20091C000122BE46A481C491D58195186591F18011228C46336B41800122BE46A481C491AB
:20093C00D581C51C1C4B95186591F08010223F438C6260CF6A67408241800122BE46B48169
:20095C00C491D58195186591F18011228C46506B41800122BE46B481C491D581C51CB44A55
:20097C0095186591F08010225C438C62E092D08200226B47C0B20070A080F022874330B033
:20099C0002C1623101C0A080001E8043F022814380F86031603981632010101A136F236E5A
:2009BC0011161216826B00702DE9F84FDFF81885DFF8181588F80000002008600921DFF891
:2009DC00100501700D2141804FF408718180DFF80405DFF8041501608A7EDFF80005027042
:2009FC00FF2ACB7E437008BFFF2B0D7F85704E7FC6708F7F0771C97F417115D1FF2D08BFE8
:200A1C00FF2E11D1FF2F08BFFF290DD1DFF8D0140A7802704A7842708A788270CA78C27025
:200A3C000A79027149794171DFF8B81402780A70FF2542784A7082788A70C278CA7002791E
:200A5C000A7140794871DFF8A014DFF8A004057045708570C5700571457100200880DFF888
:200A7C009014DFF89004466B70780870DFF8881430780870DFF88414B0780870DFF880142D
:200A9C0070690079401E0870DFF87814F0780870DFF87414B069086008B918F0CBF8F0690A
:200ABC00DFF86844206008B918F0C4F82068DFF86074006880472168091D384609688847C3
:200ADC00DFF85004DFF850143862DFF850047862306A086008B918F0ADF8706ADFF8401480
:200AFC00086008B918F0A6F8DFF838B4DFF838649BF8040018F05EFC306008B900F046B99C
:200B1C009BF80500DFF8247418F054FC386008B9306838E19BF80600DFF8144418F04AFC3A
:200B3C00206020B9306818F04DFC38682BE19BF80700DFF8009418F03DFCC9F8000038B9B3
:200B5C00306818F03FFC386818F03CFC20681AE1DFF8A41309789BF80000DFF8DCA3C91C5E
:200B7C00484380B218F026FCCAF8080058B9306818F028FC386818F025FC206818F022FC5C
:200B9C00D9F80000FFE0DC480078010000F00381BBF80210DFF8A4B3484380B218F00AFCBA
:200BBC00CBF8040078B9306818F00CFC386818F009FC206818F006FCD9F8000018F002FC63
:200BDC00DAF80800DFE0CC48007818F0F3FBDC49086098B9306818F0F5FB386818F0F2FBDB
:200BFC00206818F0EFFBD9F8000018F0EBFBDAF8080018F0E7FBDBF80400C4E0BE480078E3
:200C1C001C21484318F0D6FBCE490860B0B9306818F0D8FB386818F0D5FB206818F0D2FBE7
:200C3C00D9F8000018F0CEFBDAF8080018F0CAFBDBF8040018F0C6FBC148A3E0AE480078B5
:200C5C00400118F0B7FBC0490860D0B9306818F0B9FB386818F0B6FB206818F0B3FBD9F8C7
:200C7C00000018F0AFFBDAF8080018F0ABFBDBF8040018F0A7FBB248006818F0A3FBB1489C
:200C9C0080E09D480078000118F094FBAF490860F0B9306818F096FB386818F093FB2068EB
:200CBC0018F090FBD9F8000018F08CFBDAF8080018F088FBDBF8040018F084FBA048006812
:200CDC0018F080FB9F48006818F07CFB9E4859E089480078000118F06DFB9D49086010BBB5
:200CFC00306818F06FFB386818F06CFB206818F069FBD9F8000018F065FBDAF8080018F0B0
:200D1C0061FBDBF8040018F05DFB8D48006818F059FB8C48006818F055FB8B48006818F0B4
:200D3C0051FB8A482EE0744800783021484318F041FB8849086070BB306818F043FB386835
:200D5C0018F040FB206818F03DFBD9F8000018F039FBDAF8080018F035FBDBF8040018F06E
:200D7C0031FB7748006818F02DFB7648006818F029FB7548006818F025FB7448006818F009
:200D9C0021FB7348006818F01DFB002017F052FF4FF4804192E031680120087100223068FD
:200DBC00057330684573306885733068C573306805743068457400203168C8723168487148
:200DDC00A0213068C180032101720720316848720020316888722821306841820121C1769C
:200DFC00002031684877316881F85E00012031680877316881F85D00396808713868057315
:200E1C0038684573386885733868C573386805743868457400203968C87239684871396886
:200E3C0088724FF420703968C88008818A7401213A68D17421680D7321684D7321688D7375
:200E5C002168CD7321680D7421684D7400212268D172012122681171002122685171216847
:200E7C00C8800881002088722168887405202168C8743948006880470546294800680068C0
:200E9C00804727490968091D00200968884719481C49C06809780088084330490880284657
:200EBC002F49096888470C212E4800F05DF80F4800F05EF800F060F84FF4005198F800006D
:200EDC00BDE8F44F0EF02CBA6E4F0020044F0020604E0020084F0020B63F00502C4E0020B6
:200EFC00E81200503C4E00200C4F0020344E00206D4F0020F8AD01007B4F00206B4F00207F
:200F1C00724F00206C4F0020F04E0020F44E00207C4B0020D1930100F84E0020E193010012
:200F3C00FC4E0020501C0020104F0020382F0020184F00203C2F0020042F0020684E00205E
:200F5C00004F0020342B0020342F0020884E00208C4E0020904E0020C0150020544F00205E
:200F7C00C4150020F84D0020DFF800F0E5710110DFF800F01D6E0110DFF800F04D710110D0
:200F9C00B0B5174C241D20680004070C23D01248006800688047114991F90720824205DDF8
:200FBC0010F1800FB8BF6FF07F00C8718D88BD4210D80A68D4F8D40F801A801C1F2888BF16
:200FDC001F207F1B4008C7404FF6FF70EF19B84238BF071C8F80B0BDEC0100102C2F002009
:040FFC003010094068
:20100000B41200001810000015AB0110FDB301106DC00110FDAE011099B5011000000000F7
:08102000000000002F00000099
:20102800B01200003C100000B1C00110A9BF011067C0011069B80110000000000000000035
:041048002D00000077
:20104C00B012000060100000BDC00110CDB30110D9BD01106DB3011000000000000000005B
:04106C002E00000052
:2010700000000000781C002004000000000000000000000020000000E8C901103000000096
:2010900028100000801C00200400000000000000000000000C000000D8CA01101800000071
:2010B0004C100000881C002004000000000000000000000024000000F0CA011018000000F5
:2010D00000000000901C00200400000000000000000000001000000018CA01102C00000001
:2010F00000100000981C0020040000000000000000000000200000006CCA0110240000006D
:20111000FFFFFFFFA01C00200400000000000000000000002800000090CA0110240000002C
:20113000FFFFFFFFA81C00200400000000000000000000001400000008CB011018000000AB
:20115000FFFFFFFFB01C002004000000000000000000000058000000B4C901103400000079
:20117000FFFFFFFFB81C00200400000000000000000000001000000020CB01101800000047
:20119000FFFFFFFFC01C00200400000000000000000000001C000000B4CA01102400000074
:2011B000FFFFFFFFC81C00200400000000000000000000003800000044CA0110280000009C
:2011D000FFFFFFFFD01C00200400000000000000000000005400000078C901103C00000011
:0811F00001000000BCAD01008C
:0411F80001000000F2
:0411FC0000000E00E1
:0412000000000F00DB
:0412040032000000B4
:0412080001000000E1
:04120C00E01A0020C4
:0412100000020000D8
:0412140000000000D6
:0412180001C90110F7
:04121C0000000000CE
:0412200000000000CA
:0412240008000000BE
:04122800000023009F
:04122C0088190020FD
:0412300001000000B9
:04123400F81A002084
:0412380008000000AA
:04123C00A01A0020D4
:0412400000000000AA
:0412440000000000A6
:04124800080000009A
:04124C00000000009E
:04125000000000009A
:041254000000000096
:041258000000000092
:04125C00010000008D
:04126000F019002061
:041264000600000080
:041268000100000081
:04126C003418002012
:04127000000000007A
:041274000000000076
:041278000002000070
:04127C00000000006E
:02128000290043
:02128200010069
:02128400250043
:021286002D0039
:021288002E0036
:02128A002F0033
:02128C0001005F
:01128E00015E
:081290000300000068AD01003D
:0812980000000000000000004E
:0412A0000000010049
:0412A4000000030043
:0412A80013C401105A
:0412AC009591010017
:0412B000B812000070
:0412B400B81200006C
:0412B8000000000032
:0412BC00F81A0020FC
:0412C0001D93010079
:0412C4002000000006
:0412C800CCAC0100A9
:0412CC00F4AB01007E
:0412D00029C101101F
:0412D400B7720100EC
:0412D800F3760100A8
:0412DC00A1C7011095
:0412E000A3C701108F
:0412E4000000000006
:0412E800EFAC010066
:0412EC00F0A9010064
:0412F00008AA010047
:0412F400D8A9010074
:0212F8000200F2
:0212FA000900E9
:0212FC000100EF
:0212FE000000EE
:0113000001EB
:041304009D920100B5
:04130800117201005D
:04130C0069860100ED
:04131000C57501009E
:04131400C17601009D
:041318004972010015
:04131C00C5300100D7
:04132000D79401005D
:04132400DD470100A0
:0413280015C70110D4
:04132C0025C70110C0
:201330002DE9F04FC64C04F114012046ADF14C0D13F054FF04F188050021284618F0C4FD9F
:201350000122C049A56104F5867013460025009513F0BCFF4FF400510091BB494FF4FA62C3
:201370002B4604F5987013F0B1FF4FF480410091B6494FF47A622B4604F5AA7013F0A6FF59
:201390004FF480310091B24943F698222B4604F5BC7013F09BFF4FF400310091AD494FF459
:2013B000FA622B4604F5CE7013F090FFAA4E06F1180006F10C010FF011FCA849B06018F067
:2013D000B3F8A74FB0684FF4E0213A46521E15F09FFFB0684FF4E0213A4615F099FFA14F04
:2013F000B0684FF0C0513A46521E15F091FFB0684FF0C0513A4615F08BFF9B490095C82216
:201410002B4606F1240013F061FF9848294670604FF0804013F098F8206104F1A00104F110
:2014300094000FF0DBFB924E606221211E22304616F06EFF8F4829464FF6FF7216F068FFBD
:201450008D4829464FF6FF7216F062FF8B4829464FF6FF7216F05CFF894829464FF6FF72CC
:2014700016F056FF2769DFF81CB24FB13046067936B159468F60CD6003220A7015F0A4FEEF
:20149000814E10200622A023314609F0DFFE10200722A023314609F0D9FE10200822A02385
:2014B000314609F0D3FE10200922A023314609F0CDFE10200A22A023314609F0C7FE1020FE
:2014D0000B22A023314609F0C1FE102002224FF4FA63314609F0BAFE10200C225023314679
:2014F00009F0B4FE10200D225023314609F0AEFE10200E225023314609F0A8FE31461020B3
:201510000F22502309F0A2FE102031465023024609F09CFE314610201122502309F096FEAF
:20153000314610201222502309F090FE314610201322502309F08AFE3146102017225023A3
:2015500009F084FE314610201822502309F07EFE314610201522C82309F078FE3146102058
:201570001622C82309F072FE3146102019224FF47A7309F06BFE314610201A222B4609F00E
:2015900065FE207816F076FBD6490246102009F05DFE8DF82F50ADF8225040F2053001213A
:2015B0000DF12F020AF0F2FA40F2063002210DF122020AF0EBFA04F1B8024FF442700F21A6
:2015D0000AF0E4FA04F1DC02162140F207300AF0DDFA0F2001210CAA8DF8300040F20440AD
:2015F0000AF0D4FACE4F04F17800D34EB86130786072387816F03EFB0246F87A07F13403FD
:201610000090CF49019307F14403029307F1140303937B78102009F019FE617A480000EBC4
:20163000011080B210F096FDA06278B3677A77B34FF6FF713B465B1E20F8121BFBD126E0C6
:2016500008020020A166010029940100B1930100099401001994010080180020096D0100CA
:201670000E0005800E000010C1910100858F01004C19002050160020E81700205017002090
:201690009C170020681B0020BD840110677A380110F060FD206350B1637A43B10746FD80DC
:2016B0003D70BD807D805B1E07F11007F7D104F1C700CE4900902A461523102009F0C6FDEC
:2016D000CB4910204FF0FF3209F0C0FDC94910204FF0FF3209F0BAFD1020C74F0090C84A46
:2016F000C648132339460190102009F0AFFD3078800010F02FFD0146D1488246816069B13A
:201710004FF6FF7015F0D0FDCE4910200AF12402009011230191394609F098FDDFF85493AA
:201730001020494609F092FDD3491020042209F08DFD01264FF0020804278DF83160032089
:201750008DF83280D4498DF8347009AB8DF8330028460A6809791A600DF131021971314682
:201770000CF024FF0DF13202304601460CF01EFF0DF13302404631460CF018FF03200DAA15
:2017900031460CF013FF052109AA38460CF00EFF04F14000CAF804004946102009F056FD4E
:2017B000207816F067FABD490246102009F04EFD207816F05FFABA490246102009F046FDAA
:2017D000B2468DF83580A9468DF836A00DF135008DF83790CF4E8DF838A04FF480620090CF
:2017F00053463146102009F031FD0DF1360040F20242009053463146102009F027FD0DF1DD
:20181000370040F20342009053463146102009F01DFD0EA840F20642009053463146102027
:2018300009F014FDC94904F18002102009F00EFDC749102009F00AFDC74F04F20A3610969F
:20185000C44B1193129307F110000F904EE2780CC0F04C8220690F212A46C7A316F0D7FBDC
:20187000022051460DF12D028DF82D0040F209300AF08CF9B849B84A2C20C87240F20730E4
:2018900016210AF083F984F801A02FE2082800F0B980A078002800F08580401E71D0401ED2
:2018B00040D0401E32D0401E40F02082606A390D2AD2780A18D2780BC0F01882284614F0C1
:2018D00007FF94F9F200B0F1FF3F02D1C84817F01AFFC8482946FA2211F079F8A570E5701A
:2018F000657030E15188011017F09CF904F1680282E80300C04A032008210CF057FE0128D0
:2019100040F0F481CEA393E12A466DE1780D80F0EB81380DC0F0EA81E5700420A070E5E15F
:20193000E8090020380C0DD2F80C07D2F80B80F0DB81380D0AD2D9E1694F0020C9482EE0E5
:20195000E53E010015F026F9071C01D1A570CDE128468DF83B0051460DF13B0240F209300C
:201970000AF014F97C492B200F9EC872BB88B38039683160784A40F2073016210AF006F956
:20199000B2E1F80C0AD2B80B80F0AE81380DC0F0AD8102204FF40041A07068E0D04817F022
:2019B000B2FEA3E193482946FA2211F010F80220A56351460DF13A028DF83A0040F209304F
:2019D0000AF0E4F86449644A2A20C87240F2073016210AF0DBF816F005F8606A0621524649
:2019F00015F0A6F984F802A080E1C046CD1F0100F9870100C58B0100CB7B010044AD0100B6
:201A100014100020B7480068390A4BD2B80A35D2F80A19D2780BC0F06981E06B19224243CD
:201A30001098294610F0D3FF94F9F200E563B0F1FF3F02D16E4817F066FE657056E1C04601
:201A5000C412002050AD010017F0ECF804F1700282E8030010F03AFB012840F047812069E4
:201A70000F212A46CDA316F0D2FA4FF4007160694AE0C04695130100F58E010017F0D2F8C9
:201A900004F1580282E8030010F020FB012840F02D81606936E0C04676AD0100318101108C
:201AB00099950100C788564657B3A06A0088122102222B4618F004FA059008B389490968FF
:201AD0008989891CADF810100221ADF8121080F800A08DF8185005984570A66A20788DF80C
:201AF000195016F0C7F80090CC49328804AB102009F0ACFBC6B21EB104A8122118F0DCF9C7
:201B1000606926B94FF4007118F0D2F9EEE08021FAE7C04639760000780D1FD2380DC0F016
:201B3000E5800420607020690F212A46CFA316F06EFA606A0721524615F0FAF82D482946CE
:201B5000FA2210F044FFA563D0E0C046358A0100C5AB001040E20100E402002015F042FFA9
:201B7000102084F8F20015F015F8CA4902680A6080888880BAE0C0465374617274696E67C2
:201B900020726F75746520646973636F766572792100380B32D2F80C21D2B80C80F0A48037
:201BB000380DC0F0A380606A06212A4615F0C0F820690F212A46C9A316F029FA206A03286C
:201BD0001CBF401C206240F091800A482946FA2210F0FDFE84F801A02562CBA327E0C648FC
:201BF00017F091FD606A5246062115F0A1F87DE080030020180400207002002014F0CAFF7E
:201C1000071C31D1E069401CE06120690F212A46C8A316F0FCF9E06903287FF434AEC34846
:201C30002946FA2210F0D3FE6570E561C9A3A563266930460F212A4616F0E9F956E0C046E0
:201C50004572726F7221204E6F74696669636174696F6E2073656E64206661696C656421D2
:201C700000C046C05C03002028468DF82E0051460DF12E0240F2093009F088FFBD492B20ED
:201C90000F9EC872BB88B38039683160B94A40F20730162109F07AFF15F0A4FE26693846DC
:201CB00013F03CFBC9A30090C3E7380B1CD2F80C0BD2B80C18D2380D18D3606A07212A46E2
:201CD00015F036F80220607010E08B4817F01BFD606A0721524615F02BF8C2A3A8E7C04641
:201CF000380300203802002015F07CFE6069C94A29464FF0FF3318F0D7F8071CF6D02846B6
:201D100007900BA907AA08A815F06EFC00285FD1BDF82000D046102853D120789DF82C1090
:201D300088424ED1079801884FF6FF728A4245D14088C00845D3E66A002E42D0207906F122
:201D50000803401C2071BF49009372883379102009F07CFA5FFA80F9B9F1160F12D0207880
:201D7000B9F1040F0ED0E66A15F084FF03462846B34900907288102009F068FA484611F089
:201D90005FF91EE0207900909BF8001020692A46CEA3491DC9B216F03AF912E04572726F03
:201DB000722120577269746520746F20736572766572206661696C65642100C000F032FA19
:201DD0008046079820B1B8F1000F01D017F07AFCF80FC0F0A7819FE1A669304618F060F873
:201DF000864208BF2E1C02D0866815F059FF301C00F09281226930889BF800109446401E70
:201E100000F08181401E00F0DB80801F44D0083806D0103800F062817BE1C0461F9701001A
:201E300070688378002B2BD0012B15D0022B0DD0032B40F0C180C378002B08BFCBA320D054
:201E50000288D1A30092C27801921CE0C378002B40F0B280D3A314E0C278002A08BFD7A342
:201E70000FD00088DBA30090EEE7C046436F6E6E656374656420746F20726F7574652100FC
:201E9000D9A300880090C91C60462A46C9B216F0BEF891E0FB0200207068007801096BD247
:201EB0004009C0F089800E2017F08CF9002840F08380DBF804009BF8011003790A469342DF
:201ED00036D0FF2A78D000EBC203DB68B3B900EBC100006915F078F96EE0C046526F757493
:201EF0006520646972656374206164762074696D6564206F75742100A403002000EBC20037
:201F100003690846984757E04E6F7420636F6E6E656374696E672C2074727920616761690B
:201F30006E206C617465722100C046C0180400208068CFE74E6F20746172676574206164E1
:201F5000647220666F756E642120476F206261636B2100C0526F75746520627573792C2098
:201F700074727920616761696E206C617465722100C046C0E40200200D2017F023F9D8B9CC
:201F9000DBF804109BF80100097981420FD0FF2812D0401CC0B215F0F3FAFF2802D1284661
:201FB00015F0EEFA8BF801000BF038FE04E0284615F0E6FA8BF80100706815F071FEA8E0E0
:201FD0007068037843B39B1E7AD0F6E7526F757465206469726563742061647620746F3A86
:201FF000202573005374617274656420726F75746520646973636F76657279206E6F6E2070
:20201000636F6E6E65637461626C65206164762100C046C0FFFF1FC0E378ABB916F002FE4E
:2020300004F1600282E803007C49284614F0B0F960694FF4807117F03BFF84F803A0BBE7ED
:2020500003930100DDFE00107549284614F0A0F904F160020CCA04F1580003C8121A04F1BF
:2020700070008B4103C8121A04F168008B4103C8801841EB0301CA0F002312184FEA5200B0
:2020900043EB01030022D9070843D0F100084FEA630162EB010917F0FFFE04F1500106C9DB
:2020B00004F1500311EB080142EB090283E8060017F0EEFE60694FF4805117F0F9FE7BE7EA
:2020D00002200DF1390114F063F975E75273702073656E642072657472793A00D6F80480F9
:2020F0001198C91C46A30090C9B210462A4615F08EFF129800904849B8F80A202B461020B0
:2021100009F0A4F858E7706800F08CF8706817F0D9FA304615F0C4FDA06917F0B5FE0028B6
:202130003FF45AAE380B0AD304F1500003C88DE8030020692A4636A30C2115F068FF607869
:20215000061C0DD0761E3FF4B0AD761E3FF421AD761E3FF4E1AC361F012E7FF697ABC5E57E
:20217000380BFFF474AB0DF0B7FA3BE543786E20256420626F6E642073617665207375635D
:202190006365737300C046C043786E20256420626F6E642073617665206661696C65643A98
:2021B0002025640043786E20256420626F6E64696E67207375636365737300C0636F6E6E0C
:2021D00048616E646C652025642070616972656400C046C070616972696E67206661696CF9
:2021F00065643A20256400C0636F6E6E48616E646C652025642070616972696E6700C046B0
:2022100050617373636F64653A20256400C046C0703A20256400C046F5760100600200208C
:20223000780200202DE9F04F04460120ADF11C0DDFF8B4C205902078913800F08883DFF858
:20225000AC92DFF848831F3800F0D682203840F0E883254648466446067804906178626AA2
:202270002769A878002800F08F82401E00F00082801E00F06182401E0FF2FC2B00F0D0816D
:20229000DFF80C93DFF80CA3401E00F0F380401E6AD0401E00F04682801F40F0C283E8784F
:2022B000002849D1E66B05F10508002E44DD04F5437738464146062216F086F9002837D194
:2022D0002869C17A00272B2906D1103004F14401062216F079F900B177B30DF0FDF9606A1E
:2022F00006213A4614F024FDD449102002224FF4FA6308F0ABFF2879691D13F0E9FFDDF868
:202310001080206998F800103A46D5A3091DC9B215F07DFE246998F80060681D12F0FEFFDA
:202330003A460346761DF1B2204615F070FE78E3761E07F11907BCD1E878022840F0718373
:2023500029690598C97A2A2918BF2C2940F06983002800F06683286900906968AA68EB6808
:20237000286810F04BFD5CE307290AD1A078022807D104F504700021FA2210F028FB002024
:20239000A070616B192204F204404A43002110F01EFB002610204146666308F057FFC7B2A8
:2023B000A88815F0DDFDA081617A814240F33983A26A41004FF6FF7301EB0011059D535208
:2023D000226B0301D65405FA00F0D118CE8082B23146484615F09CFFA089314605FA00F0A4
:2023F00082B2504615F094FFA0898540D0483146AAB215F08DFF27B9CE4831461C2215F051
:2024100087FFDDF810A0D4F810909AF800501020414608F01BFF6D1C00903246CBA3E9B2F0
:20243000484615F0F4FD20699AF800103246CBA3091DC9B215F0EBFD607A401EB84212D154
:20245000D04698F80010206932465B46891CC9B215F0DDFD98F8001020693246C3A3491DA8
:20247000C9B215F0D4FD6078082840F0DA824FF48051F0E06B78002B40F0C380361D384631
:202490000022BEA3F1B215F0C2FD0498276906784146102008F0DAFE761C00900022ABA37F
:2024B000F1B2384615F0B3FD0020A071B5F80AE094F8098005F1040CB8F1000F10D0A66AAB
:2024D0000746014642464FF6FF70123E36F8123F98420DD0521E07F1120701F10101F5D15B
:2024F000944E152741E0C04608020020681B0020A6F800E08846604612F010FFB61C01469E
:202510000F2230460EF01CFB0598002200FA08F01FFA80FB4846594615F0FAFE50460022C8
:20253000594615F0F5FE4E46DFF8049200225946484615F0EDFEA06A4FEAC8033F1899199D
:2025500003EB0A02BF1C7B4ECF60F088D76003EB0901CF60400904D230461C21002215F0CF
:20257000D7FE5FFA88F794F809800849102008F06DFE804523D80FE0526561647920746FFE
:202590002041647665727469736500C0F17F0110E81700205017002005994FF0000840F266
:2025B000053003AA8DF80C8009F0F0FA049920690978C4A34246891CC9B215F028FD0499B8
:2025D000A36A097820697A0002EB0712491D9B18C9B200229B1C15F01AFD304614F0F4FD60
:2025F000607830B1032806D0072804BF0320A07004E008206070688913F0E4FB4FF4801169
:2026100029E0361D38460022C2A3F1B215F0FFFC687800900498246906780022C1A381E6A2
:20263000657A4146102008F011FE854208D8484624690678BEA3B61C002274E6BD840110AC
:2026500049462069097800225B46891CC9B215F0DEFC4FF40021606917F02AFCE1E1C046ED
:20267000436F6E6E656374696E6720746F3A00C00020607106211046002214F059FBE878FD
:202690006063E878E0B12B480221002215F040FE059F04F2044900264FF0190BBA46E878AB
:2026B000B04215DC0E2E0BDA574607FA06F082B2CC48002115F02CFE761CF6B20E2EF4DB95
:2026D000E878009024690498C1A30678361DB3E768684FEAC60808EB00035A780BFB06F166
:2026F00001EB09077A7010F808009B1C09F801001968B81C01609988818012F00FFE0837F5
:2027100001460F2238460EF01BFAB6484044C760B4480AFA06F3002299B215F0F9FD771C03
:20273000FEB2BCE7E878C1A33C460090CEE7C0469C1700204C190020B61C38460022BFA379
:20275000F1B215F064FC4FF4802184E7436F6E6E656374656420746F202564004469736350
:202770006F6E6E65637465642100C046526561647920746F205363616E00C046436F6E6EA1
:2027900065637465642100C068896081E81C12F0C5FD034631460022384615F038FCC84602
:2027B00098F8001020690022A7A3491CC9B215F02EFC98F8001020690022A7A3091DC9B22F
:2027D00015F025FCEE1CBF487768476031680160059ABD49102008F039FD04F144014FF4B2
:2027F00041700CF079FC4FF0FF3084F8F20004F5867016F088FF14E16546617828781629F7
:2028100022D049460A78286921797E2902F1040212D07F290DD01B2922D1E168628905F112
:2028300068000EF08DF968694FF4806117F040FB16E021898BA301E0217A8EA30091D1B2D6
:20285000002215F0E4FB0BE015F014FA034604209E4900906288102008F0F8FC002852D030
:202870004146102008F0F2FC002846D0608815F077FBA88122790B2A2ED0012A02D1217A7E
:202890000A2929D0132A0DD0012A02D1217A122908D0296B0001085C00282ED0204609F0B8
:2028B000E5FC2AE0494628690978012A07D0EA7974A3521CD2B2EA71521ED2B217E075A3B0
:2028D00014E0C04643616E2774206164763A206E6F206C696E6B7300494628690978012AA2
:2028F00003D0E26812786FA301E072A3227B0092491D0022C9B215F08AFB217904F10800C6
:2029100017F0DAFA8DE0059810F09AFBEC620020059086E0436F6E6E656374204661696C5E
:20293000656400C0526561736F6E3A20256400C043616E277420416476203A204D6178204B
:20295000636F6E6E7320726561636865640060780E3849D0801E60D02E3862D16046A178FD
:20297000856B80295DD10A2D5BD0002D04F10509E0460DDD08F212272E4648463946062202
:2029900015F022FE00284CD0761E07F11907F4D14A461168192000FB058606F50476B01C44
:2029B000016091888180104612F0B8FC01460F2206F108000EF0C4F8E07AF07594F90C00F7
:2029D0003076207970706F1CC8F8387029E0C0464465766963657320466F756E642025643E
:2029F00000C046C050160020A08842F20301814217D1A1680878A0B9491C01A80A6849685D
:202A1000026001AF41603878314901AA00F0FD003870102008F01AFC03E00820002107F028
:202A300021FF059807B0BDE8F08FC046506172616D2055706461746520256400416476654B
:202A500072746973696E6700436F6E6E656374656420746F203000C0496E697469616C698D
:202A70007A6564004D54552053697A653A20256400C046C046432056696F6C617465643A8E
:202A90002025640057726974652073656E743A20256400C05772697465204572726F7220A0
:202AB000256400C052656164207273703A20256400C046C052656164204572726F72202538
:202AD0006400C0467F0F0020498301000393010095B400102DE9F04F0F4685B0804617F85D
:202AF000010B8DF800004FF4B07008EB00044FF49C7008EB00059DF800104FF4C67008EB83
:202B10000006182908F1E70A08F1660908F20D1BDFF86C0700F2A183DFE811F01900720037
:202B3000660194009F039F03FD007903140127010101100138019F039F0384019F03680170
:202B50005C018503E402E40236029F03810217F8010B88F886000222394608F1880017F00B
:202B70008FF90146022208F18A0017F089F90146022208F18C0017F083F90146022208F16F
:202B90008E0017F07DF9074698F88600400088F8860008F1860108F1860002224088400046
:202BB000488008F1860080884000888008F18600008900010881394608F1840017F060F980
:202BD00008F10601B9F81E004988401A80B247F6FF7188422BDA08F1860008F18601C088F6
:202BF0008988401C4900484308F186010989884228BF3B2080F04082012089F81C001CE07A
:202C10000522394608F1610017F03AF90146022208F1920017F034F908F1860008F10601C1
:202C300080894988401A80B247F6FF71884280F2228208F186010120887208F106010020D6
:202C500008834CE29AF81600C0070AD41A208AF80E009AF80D00012808BF0D213FD00D219A
:202C7000D7E1002089F8000089F80600082201208AF81100394608F1B00017F001F9014616
:202C9000022208F1B80017F0FBF808F1A80401460822204617F0F4F807460821204617F003
:202CB000EBF808F19C0404223946204617F0E8F80421204617F0E0F808F1A00017F0D8F8BC
:202CD00008F1980017F0D0F8DFF8B805018841F0800101809AF80D00012806D104214046EA
:202CF00005B0BDE8F04F14F0E7B899F81000012804BF99F811000F280BD1404611F046FE7B
:202D10000421404611F004FB0F2089F81A00FD217FE104217DE101208AF80F00ACE20020CD
:202D300089F8000089F806008AF800000B2101208AF80D0000208AF801006AE101208AF88C
:202D5000100099E2002142187B5C547A23437B5452781A4008EB0103491C082983F8FD203A
:202D7000F1DB404611F0B0F97CE2002142187B5C547A23437B5452781A4008EB0103491C14
:202D9000082983F8FD20F1DB022053E299F8060008B93D2070E19BF800000128D1D017F8C5
:202DB000010B8BF8030002224FF489703946404417F066F801464FF48A700222404417F076
:202DD0005FF801208BF800009BF8020000281BD10C211EE19AF81600C00601D41220D9E0E5
:202DF000404612F03BFB3DE2387845E1387820707878607099F8100001280DD199F81100C6
:202E10000F2802D0162803D036E20120687333E2307B40F001001EE205B0BDE8F04F0020CA
:202E300015F00EBF9AF81600810706D41121084201D10F20AEE01A2254E03878797800EB9F
:202E500001202882F978B87800EB012068827979387900EB0120A882F979B87900EB012078
:202E7000E882387A2876B97A787A00EB01206883397BF87A00EB0120A883B97B787B00EBFD
:202E90000120E883397CF87B00EB01202884B97C787C00EB01206884397DF87C00EB01205F
:202EB000A884B97D787D00EB0120E8844FF4AA7040440490688B0390287E029008F1060001
:202ED00040880190E88A0090AB8A6A8A298A404610F008F868B19AF81600400701D40F2019
:202EF00058E01E22404605B0BDE8F04F0F2113F061BD688A08F186018880A88AC880E88A74
:202F10000881022088F886000020488008F1060108F10600C08DC01DA9F81E0008F18600A1
:202F3000898D808888420FD108F1860008F10601C088C98D884207D108F1860008F106017B
:202F50000089098E88421DD099F81000012804BF99F811000F2807D099F8150020B10F20A7
:202F700089F81A00FE2154E0FC21404611F0D0F9E88A0090AB8A6A8A298A98F8060016F06C
:202F90006FFF79E1102144E09AF817000921084203D116208BF80C0061E17978387801F07A
:202FB0000701084038700146707B0840F07212D0411E08420DD0400703D5B07B08B104209E
:202FD00003E0F17A0220014201D0F07201E04008F9D1F07A08B9B07AF072F07A042803D1E7
:202FF000404612F002FBA083F07A16F035FF3071A28BB17B012313F06BFA0146208B884233
:2030100005D3A28BB17B3079012313F061FA70801721404605B0BDE8F04F11F079B97878DA
:203030003978814207D100F007000840387034D0421E10420FD01E221821404613F0BAFC00
:2030500098F80610002300221E200DF0FDFA307B40F04000FFE0F072F978B87800EB01203A
:20307000308108F1060130894988401A80B247F6FF71884206DB28208BF80B0001208BF8A7
:203090000A00F9E00120B071F07A042803D1404612F0ABFAA083F07A0BE099F8110016280C
:2030B00006D1B27A98F80610134600200DF0CCFAB07A3071A28BB17B3079012313F008FA25
:2030D0000146208B884205D3A28BB17B3079012313F0FEF97080307B40F04000307301205D
:2030F0002870C9E03878797800EB01206082F978B87800EB0120E0827979387900EB012032
:203110002082F979B87900EB0120A082A18AE089884288BF0846B17A042904D1B0F5296FCF
:20313000D8BF4FF42960E28BE0839042B07A14BF4FF001094FF00009042803D1404612F064
:2031500054FA04E0A089E18A884288BF0846A28BA08390422089628A238B14BF01210021BF
:20317000904288BF1046984241EA090114BF0122002242EA01052083A28BB17B30790123AE
:2031900013F0A6F90146208B884205D3A28BB17B3079012313F09CF970806189208A628BBA
:2031B000814288BF01466183914214BF0120002005438A42344998F80620096801EB4211EC
:2031D000628B8041121DC00F0A7610B1404614F0EDF89DF80000142810D145B1E08B0090E0
:2031F000638BA28B218B98F8060016F031FE404605B0BDE8F04F15210EF0D0BD1DB13078D7
:2032100040F008003070307840F020001BE038780E280ED00F2809D0122804D014280CD0D9
:20323000162812D028E00020287225E00120287322E003208AF815001EE0307840F0020047
:20325000307040F01000307016E0307B40F00200307340F0100030730EE08BF80C10404672
:2032700011F020FD40B905B0BDE8F04F074800784FF480410CF05AB805B0BDE8F08F00BF1D
:20329000C02E0020524F0020342F00206E4F00202DE9F04F0D4685B0814615F8010B8DF8AD
:2032B00000004FF49E7009EB00064FF4B0709DF8001009EB00044FF4C670891E09EB000798
:2032D000152909F20D1B09F1E70809F1060ADFF8680700F29C83DFE811F00F019A031600A8
:2032F000440048007A039A03C3009A037D00D600810088001701E901280204018403E802BA
:20331000E8022F02A00209F1A00608222946304616F0B6FD05460821304616F0ADFD09F1E4
:20333000980404222946204616F0AAFD0421204616F0A2FD00214842484409EB010290F853
:203350009F0082F8BF00491C0829F4DB09F1C702314609F1D70016F077FD012088F80000FA
:2033700066E3012088F8130062E398F80D1098F81600012900F010000DD130B100207071BE
:2033900030684108B07910F0A5FC9AF80000002116F056FD11E050B14FF4A17009EB000329
:2033B000306842084946DFF8940616F023F99AF800000122002116F03FFD012089F86600D9
:2033D000484612F0E0FE09F166010120887188F80F002DE3012088F8100029E3287888F878
:2033F0000E00012088F8140022E398F8121001291DD198F8001001294DD098F8161009077E
:2034100004D40E208BF80C00072100E2002142186B5C567A33436B5452781A4009EB01039A
:20343000491C082983F8FD20F1DB0921EFE198F81610090758BF0E2058D5002142186B5C0E
:20345000567A33436B5452781A4009EB0103491C082983F8FD20F1DB484610F035FEDDE2C1
:20347000002142186B5C567A33436B5452781A4009EB0103491C082983F8FD20F1DB0220BD
:2034900088F81500D4E298F81200012804BF98F80000012806D13D208BF80B0001208BF824
:2034B0000A00C5E29BF800000128FAD015F8010B8BF8030002224FF489702946484416F0C5
:2034D000DFFC01464FF48A700222484416F0D8FC01208BF800009BF802000028E1D10C21B3
:2034F00095E198F81600C00658BF122040F19182484611F0B3FF91E228788BF80B00F0215A
:2035100000208BF80A000AE198F81600810707D41121084208BF0F2000F07B821A22F6E089
:2035300009F16601097C012902BF09F16601497C0F2911D009F16601497D0A0003D009F16D
:203550006602527C22B109F16602127F012A05D1400758BF0F2064D52322D8E021B109F1CF
:203570006601497C012904D009F18601897A012905D1400758BF0F2053D52A22C7E0287845
:20359000697800EB0120B081E978A87800EB0120F0816979287900EB01203082E979A8793B
:2035B00000EB01207082287A3075A97A687A00EB0120F082297BE87A00EB01203083A97B4A
:2035D000687B00EB01207083297CE87B00EB0120B083A97C687C00EB0120F083297DE87C20
:2035F00000EB01203084A97D687D00EB012070844FF4AA7048440490F08A0390307D029027
:20361000BAF802000190708A0090338AF289B18948460FF067FC38B198F81600400758BF7C
:203630000F2040F1F68171E0F08909F186018880308AC880708A0881022089F88600002082
:20365000488009F16601BAF82E00C01DC88309F18600BAF82C108088884201BF09F18600A9
:20367000C088BAF82E10884206D109F18600BAF830100089884217D009F16600407D28B1BF
:2036900009F166010F208876FE21C0E0FC21484610F03EFE708A0090338AF289B1899AF858
:2036B000000016F0DDFBC3E10021B0E0A878E97800EB01262879697900EB0124A879E9791E
:2036D00000EB012705F10B000490A3B2687AA97A00EB012080B20390B2B2287A0290BAF8BD
:2036F00002000190B8B200906978287800EB012081B248460FF0F6FB58B198F816004007F9
:2037100058BF0F208DD5484611F040F91E220F2134E009F1860000218680C48007814846A4
:2037300005B0BDE8F04F13F0C7BB2878207068786070012070727BE198F81700C00758BF97
:20375000162040F1668109F16600407C16281ABFBA79012A232210D0002818BF01280BD052
:203770000F281EBF09F16600007F01281EBF09F18600807A012807D12A221621484605B0FF
:20379000BDE8F04F13F016B96978287801F0070108402870797B08401CBF411E0842F872DF
:2037B0000DD0400703D5B87B08B1042003E0F97A0220014201D0F87201E04008F9D1F87A92
:2037D000B97A884204BF0020F872F87A08B938811CE0BAF82E00C01D3881F87A042803D1BF
:2037F000484611F002FFA0830123F87A3871A28BB97B12F06DFE0146208B884205D3A28B38
:20381000B97B3879012312F063FE78801821484605B0BDE8F04F10F07BBD6978287801F02A
:20383000070108402870F97A08401CBF411E0842F8720DD0400703D5B87B08B1042003E0F8
:20385000F97A0220014201D0F87201E04008F9D1F87AB97A884204BF0020F872F87A10B95B
:203870003881B87A0BE0BAF82E00C01D3881F87A042803D1484611F0B8FEA083F87A3871F7
:20389000A28BB97B3879012312F022FE0146208B884205D3A28BB97B3879012312F018FEDE
:2038B0007880387B40F02000AFE02878697800EB01206082E978A87800EB0120E08269792E
:2038D000287900EB01202082E979A87900EB0120A082A18AE089884288BF0846B97A042985
:2038F00004D1B0F5296FD8BF4FF42960E28BE0839042B87A14BF01250025042803D14846C3
:2039100011F073FE04E0A089E18A884288BF0846A28BA083904214BF012100212089628A81
:20393000238B2943904288BF1046984214BF0122002242EA01052083A28BB97B38790123F1
:2039500012F0C6FD0146208B884205D3A28BB97B3879012312F0BCFD78806189208A628B94
:20397000814288BF01466183914214BF0120002005438A4232499AF80020096801EB42112A
:20399000628B8041121DC00F0A7610B1484613F00DFD9DF80000142810D145B1E08B0090EC
:2039B000638BA28B218B9AF8000016F051FA484605B0BDE8F04F15210EF0F0B91DB13878CB
:2039D00040F008003870387840F0200015E028780F2809D0122804D0142808D016280ED014
:2039F00026E00020307123E00120307220E0387840F00200387040F01000387018E0387B0D
:203A100040F00200387340F01000387310E09DF800008BF80C00484611F044F940B905B040
:203A3000BDE8F04F074800784FF480410BF07EBC05B0BDE8F08F00BFC02E0020C92A0100F8
:203A5000342F00206E4F00202DE9F04FDFF800B5DFF800659BF800001E25082887B000F2AA
:203A70006E82DFE810F072020900090009000900F000860172027202DFF8DC44DFF8DC944A
:203A90002068DFF8DC84006800F10807062207F1080102A815F086FA0622B91C684615F0E7
:203AB00081FA3978C1F380108DF8140001F00F02C809032A35D16179C1F38001884239D104
:203AD0002169062202A814F0DFFE00283AD09DF81400694616F0ACF9002833D03146684614
:203AF00014F03DF8FF282DD0D8F80010897A684335180A0018BF02290AD0012918BF03296B
:203B100018D1325C691C484616F08EF9102819D06A46E91D484610F039FB06226946E81D09
:203B300006E201F00F01052940F00F826179C1F38001884240F0FE812169062202A814F0B5
:203B5000A3FE002800F0F681387847099DF81400694616F06DF940F2024A70B3314668469B
:203B700013F0FDFF8346BBF1FF0F6BD005FB0BF031180491D8F80010897A0A0018BF0129B1
:203B90000BD0022918BF03295CD1325C0498411C484616F049F9102854D0504616F040F951
:203BB0000498C11D6A46484610F0F0FA049806226946C01D15F0F6F91DE09BF80000022855
:203BD00040D19DF814106A46304610F050F98346BBF1FF0F36D005FB0BF03044417F0129BA
:203BF00006D000292ED10D3016F016F9002829D0504616F015F905FB0BF0D8F80020315C22
:203C100091763044411CD8F800000622143015F0C9F9D449D4488978490604D5F90758BF40
:203C300041F20A4101D541F20441418041834186CE480180CE49CF4808600121CE4800787F
:203C50000BF074FB76E1CD4C2068006800F108070F21387808421CBF00F00F01062906D080
:203C700002291CBF00F00F00012840F06E810622B91C02A815F096F93878DFF80493C0F3DB
:203C9000801800F00F0001283FD1062207F10801684615F087F93878C7096946384616F035
:203CB000C7F8E8B1D9F80000807C022818BF03285ED106F10D01684616F0AAF8002857D0CA
:203CD000D9F800100120C8720622607940F0040060716946D9F800000C3015F063F914E081
:203CF0003078874211D10622711C684614F0CCFD58B13078617960F3820161710622D9F805
:203D10000000711C0C3015F04DF902A9404616F08FF800282CD0606902A9001F13F020F9EE
:203D3000002825D1314602A813F019FFFF281FD0D9F80010897C684335180A0018BF022919
:203D50000BD0012918BF032912D1325C6069691C001F16F069F810280AD0606902AAE91D79
:203D7000001F10F013FA062202A9E81D15F01AF9EBE0844C2068006800F108070F213878AC
:203D900008421CBF00F00F00012874D10622B91C02A815F007F93878DFF8EC91C0F3801886
:203DB00000F00F00012846D1062207F10801684615F0F8F83878C7096946384616F038F805
:203DD00020B3D9F80000C07A022818BF032852D106F10D0016F020F800284CD106F10D013A
:203DF000684616F015F8002830D0D9F80000062269460C3015F0D6F8607940F00400607135
:203E100006226946F01D15F0CDF814E03078874211D10622711C684614F036FD58B1307852
:203E3000617960F3820161710622D9F80000711C0C3015F0B7F802A9404615F0F9FF002824
:203E50004AD0314602A813F08AFEFF2872D005FB00F7D9F80000817AF51959BB807C15F03D
:203E7000CFF9814699F82E01022811BF0328F15D00F0010081425DD14FF4947009EB00064D
:203E900006223146681C14F0FFFC30B9062231463E4814F0F9FC00284CD0012089F82E01D4
:203EB0000622607940F00800607102A9304615F079F80DE02069F25D691C001F15F0B4FF30
:203ED000102837D0206902AAE91D001F10F05EF9062202A9E81D2BE0D9F80000817A49BB2F
:203EF000807C15F08DF9074697F82E01022818BF03281FD102AA414630460FF0B8FFFF287E
:203F100018D06843351805F10D0015F085FF10B9687F01280ED187F82E810622607900F04E
:203F3000F70040EAC800607102A94FF49470384415F038F8216809680020087105E000207C
:203F500014F07EFE862015F05FFF07B0BDE8F08F6F4F002090230020F44B0020CC470020AA
:203F7000104F0020C02E0020204A0020504F0020204F0020A13F00006E4F0020D04B0020D4
:203F9000382F0020AC4B0020184F002054AE01002DE9F84F012013F057FA01280ED1DFF838
:203FB000E454296800204871286812F021F805F047FB040003D1812015F026FF5DE201206A
:203FD0006071DFF8C464DFF8C4044178491C41702968A07981F8A00040200EF0E5FD206010
:203FF000307901281CBF002014F02AFEF0682168DFF89C6400F5B060C8603068006800795A
:2040100003281CBF002014F01BFE3068DFF88494006800F1080A4FF4977004EB00089AF888
:204030000000C0F3801088F8000006224FF494700AF10201204414F0B5FF04220AF10E01F4
:2040500004F1240014F0AEFFD9F80000A37900EB431004220AF10E010C3014F0A3FFD9F878
:204070000000A37900EB431003220AF11201103014F098FF04F12C079AF81500B8700222AD
:204090000AF1160104F1300014F08CFF02220AF1180104F1320014F085FF02220AF11A0129
:2040B00004F1340014F07EFF3889608402220AF11C0104F1360014F075FFB8787989400050
:2040D000B8700901B88879814000B88089B2F8884000F88080B2628C521C43005A438A423F
:2040F00000D238B9DFF8B003007880210BF01EF93B21F5E004F12E01204614F045FB052014
:20411000A081204614F01AFD05220AF11E0104F1610014F047FF9AF823004009387015F061
:204130006FFE60822968DD4D498A401AA8F80C0004F161019AF82300DFF864A300F01F0093
:20415000F873204612F0E4F931680968002008711C26A1792868714341F62102425200224C
:20417000A179714301444A80A1797143084442609AF80200400609D5CA48008841F20A41C6
:2041900088420CBFC848C948C4F89C012046D4F89C118847A2792968724311448873A17987
:2041B0002868714308440021C173C148007870B1B88860B978730120208160812046D4F84F
:2041D0009C118847A2792968724311448873A179286871430844807B787394F8960108B92E
:2041F00014F02EFDA1792868DFF8C8B27143084494F89611491E01740022A17928687143F6
:20421000084400214174A0792968704308444282A279D9F8000000EB421372430A4453611C
:20423000A27972431144A44A8A61DBF8141091F800C094F806E05FEACC714CBF10210021DB
:204250005FEA8C724CBF202200225FEA4C734CBF402300235FEA0C7C4CBF4FF0800C4FF019
:20427000000C1143194300EB4E104CEA010141F00F010172D9F80000A17900EB41100B21EA
:204290004172D9F80000A17900EB411004218172D9F80000A17900EB411088490978012979
:2042B0001CBFDBF828104978C172D9F80000A17900EB41101F210176D9F80000A17900EB60
:2042D000411000214176A0790BF084FFA279D9F8001052018850A0794201895821B90721A8
:2042F000204614F0FEF9C8E07549096801EB001015F082FD724AA1791268D9F8000002EBE8
:20431000011200EB41114A60A17900EB41114968F963A17949014058786404215E48007814
:204330000BF004F86249B888097800F1020E19B110B9F88800F1020E608A00FB0EF04FF4CF
:20435000C871B0FBF1F0401CC4F818E0606140F6C41394F806C02968226806FB0CFC8C4464
:20437000CDF800C0D2F80CC003FB0ECCACEB0000A0F5A86C0098C0F808C0A07970430844CA
:2043900080689060A07970430844017B01F0EF010173A179286871430844017B01F07F01B5
:2043B0000173A179286871430844017B01F0F00141F002010173A179286871430844417B63
:2043D00001F0F00141F001014173A1792868714308442168806808616269D9F80000A179CA
:2043F00097F802C0520000EB411103FB0C2202F5F6624A61A17900EB4110C17C01F0F00132
:2044100041F00401C174FA88D9F80000A1795A43DBF830301B6800EB4111D21AA2F5167219
:20443000CA61A17900EB4110C17E01F0F00141F00401C176A1792868714308442168486082
:204450009AF80100800615D5B8F83A001B2804BFB8F83C001B2809D1B8F83E00B0F5A47F9A
:2044700004BFB4F86E01B0F5A47F03D0142120460FF04EFF134907200870BDE8F14F00F0FC
:204490002DBD00BF104F0020B44D0020684E0020F44B0020342F00206E4F0020342B0020AF
:2044B000C02E0020504F00203F440100A7500100784E0020F8AD01005C4D0020734F00206C
:2044D0008C4E00206F4F00202DE9F84F5FEA000A27D1002014F0B4FB23E050460FF061FC84
:2044F00062E2317C012940F07E80C078002877D098F80000400088F80000B8F8020040007A
:20451000A8F80200B8F804004000A8F80400B8F808000001A8F8080001203077504610F092
:2045300035FA0AF16606707D002800F064824FF489700AEB00094FF4A2700AEB0004717C75
:204550004FF4C6700AEB000B00290AF186080AF1EC050AF10607DFF8A404C2D0012946D0DB
:20457000022931D0032957D0062900F0A480072900F01E82082900F0F180092900F00F8165
:204590000A2900F0B3800B2900F0CA800C2900F013810F2900F04981112900F06A8112294C
:2045B00000F03881142900F0CE81162900F06C81182900F09D81F02900F00082FC2926D0B5
:2045D000FE2900F0048284E7317C012985D1C078002800F08281504610F0D8F91621F1E1D3
:2045F000B888F18B10E050460DF018F9DCE1317C01290DD1C07800281CBF012088F80A0003
:204610008CD1B888B8F80C10884200F09581F1E150460EF0B8FBC7E1317C012941D18078AF
:2046300050B10020B071A078012805D10020A070002150460FF06CFEA87B01280AD100207A
:20465000286068600621012088F80E00504612F033FC66E7E87B012818D1504610F096F976
:20467000002088F80E0001203070504611F08BFD0120B07100206873697A387806291ABFC4
:2046900000221A21002215F0D7FB4AE799F8050001286FD0308B401E308380B200284CD043
:2046B000A8E150460CF0DAFD3074F08A30830020A873E8739FE1307C01280ED1A87A012812
:2046D0001FD1504610F062F9002028722873E872A873A872E873687323E7504610F0E0FB54
:2046F0003074F08A30830020A87284E1307C01280DD1E87A012802BF002088F80E000B2161
:20471000A4D0308B401E308380B2B0B172E1504610F0EAFC3074F08A30830020E8726AE151
:20473000317C012916D1807808B103218EE7308B401E308380B20028E8D1297A3878012905
:2047500003D1222115F07CFB29E10022222115F073FB24E150460FF051F925E1307C012815
:2047700014D1287C02280AF1FD0204D13978002015F03EFBD2E6308B401E308380B20028BA
:204790000CD13978222015F033FB08E150460EF0B7FE3074F08A3083012028742AE1317C8E
:2047B000012905D1807810B1B88B3883B6E694E050460FF089FCF7E0307C01280AF20D1142
:2047D00021D1087801280DD14878012809D1B9F8020000900020CA78B9F80030397815F051
:2047F00003FB9BE6308B401E308380B2002810D1B9F8020000902220CA78B9F800303978CA
:2048100015F0F2FACBE00120887050460EF030FB3074EFE0317C012903D180780028E0D125
:204830005BE0504610F0F2FDBEE0307C01281CD16078012809D1207F0F281CBF002014F098
:20485000FFF900206070002100E7A078012806D10020A0702322504612F0ACF861E62078B0
:2048700001283AD100202070EDE750460BF0FAFD9AE0317C012903D1C078002821D12CE065
:2048900050460FF052FC8FE0307C01282CD19BF80C00810648BF1821D6D4C10712D5207F86
:2048B00016281CBF002014F0CBF99BF80C0000F0FE008BF80C0000233978607F00220BF0FB
:2048D000C3FE2BE6810708D500F0FD008BF80C000023397800221A20F1E7308B401E308341
:2048F00080B200285BD085E050460BF05FF85BE0317C012922D1C078C0B19BF80C009BF8F6
:204910000B1059B9810610D500F0DF008BF80C0000209BF80A2039781346D0E700F0DF0023
:204930008BF80C0001208BF80600F7E57988BBF80800491C88425DD1282143E018215046FE
:204950000BF034F830E0307C01282AD19BF800004FF4B3710AEB0105810614D500F0DF000C
:2049700001078BF800000BD500F0F7008BF80000288B0090AB8AEA8A698A387815F068FA5C
:2049900000202870CAE5810704D500F0FD008BF80000F5E7308B401E308380B250BB2221A7
:2049B00010E050460DF0FAF93074F08A308321E0504610F077F90128E4D01BE0407AD0B186
:2049D00099F80610504613F08CFE012013E0B07E0F280CD1FC21504612F06EFA6089009011
:2049F0002389E288A188387815F03AFA02E0002014F026F90020BDE8F28F00BF5C4D00208C
:204A10002DE9F0475FEA000882B00BD1002014F017F907E0404610F045F9012864D1404617
:204A30000FF0B4FF08F16605687D00285CD04FF49E7008EB00044FF4B070697CDFF894A478
:204A500008EB00094FF4C670022908F1EC07404408F1060635D0042949D005295FD006295A
:204A700000F08E800729D5D0092900F0F4800B2900F0C6800C2900F026810D2900F0D5800C
:204A90000E2900F0F6800F2900F05D81102900F07881112900F09681122900F041811429D6
:204AB00000F0D681162900F09781172900F0C381FC2919D0FD2900F0F481FE2900F0F681BD
:204AD000A4E7287C012809D19AF80300002814D01621404613F005FE012006E040460FF0A4
:204AF00060F92874E88A28830020BDE8F687287C012810D19AF80200002800F01881FC2142
:204B1000404612F0D9F9307808F1B80208F1B00115F066F986E740460CF0A6FDE1E7287CC4
:204B3000012810D19AF8020028B1012088F89400002038607860B87A012869D106214046E7
:204B500012F0BAF96EE708F1E7063078012809D1404612F097F80128C6D10020B872012068
:204B70002874C1E770780028BED008F1C70208F1A00108F1D70015F067F90120307051E7B9
:204B9000287C012838D19AF80200002840D0B08B308340460FF0FAFE01202870404611F0B8
:204BB000F2FA0120A871397A787C012900F010000CD130B10020607120684108A0790FF056
:204BD00089F83078002115F03BF90FE048B14FF4A17008EB0003206842084146BE4814F0AD
:204BF00009FD30780122002115F026F9002038723873F872B87215E7404610F051F970E763
:204C1000287C012805D1F87A012808BFFC2196D08DE040460EF0F2FE012853D10020F87244
:204C300088F8940001202874FCE6287C01280ED19AF80200002809D0002088F8940001201B
:204C50002870404611F09FFA0120A871BDE0404611F07EFC45E7287C012806D19AF8020050
:204C700000281CBFB08B3083A6E040460FF02CFA37E7287C01281DD1387C022808F1FD0253
:204C900004D13178002015F0B3F8C8E6032806D131781A2015F0ACF800203874BFE6288B56
:204CB000411E298389B200290CD13178222015F09FF842E040460EF023FC2874E88A288393
:204CD0000120387410E7297C012908F20D1021D14FF4897108EB0102017801290BD14178BD
:204CF000012907D1518800911388C2783178002015F07AF893E6298B491E298389B200297F
:204D1000E0D1518800911388C2783178222015F06BF812E00121817040460EF0A9F8E0E650
:204D3000287C01280BD19AF802000028E2D1288B401E288380B20028C4D12221C9E6404628
:204D500010F064FBCDE6287C012816D1607A012803D199F800000F281CE0207A012829D125
:204D700000202072288D00090090A88CEB8C317842081A2015F030F851E640460BF072FBF9
:204D9000AFE6287C012819D1607A012812D199F8000010281CBF002013F052FF00206072C7
:204DB000288D00090090A88CEB8C3178420899F80100DFE7287F0028DED1B8E740460BF001
:204DD000A2FB8EE6287C012802D19AF80300F2E740460FF0AAF984E6297C012926D1017BD0
:204DF0004A062ED4CA070AD501F0FE0101730023317899F8010000220BF026FC0FE68A071A
:204E100007D501F0FD0101730023317800221A20F2E7288B411E298389B2002955D1317851
:204E30000023002222200BF00FFC86E7162140460AF0BCFD55E6297C012907D1017B49064B
:204E5000BBD5017B01F0BF010173E8E51721EEE7297C012920D101788A0617D501F0DF01B1
:204E70000A0701700ED501F0F7010170B9F81E000090B9F81A30B9F81C20B9F8181030789B
:204E900014F0E6FF002089F80600C8E58A0794D501F0FD010170F5E7142140460CF07EFF5B
:204EB0001FE6A97E404612F007F8BBE6A87E0F280CD1FC21404611F0FFFF608A0090238A8B
:204ED000E289A189307814F0CBFF0DE6002013F0B7FE09E65C4D0020C92A01002DE9FE4FDD
:204EF000DFF85084D8F80400009018B9BDE8F74F14F06EBF0078DFF84094DFF840A4DFF8F1
:204F1000404401281CBF0228042846F2A81741F64C5B05D0402818BF802800F0F98001E2C6
:204F300014F01AFB0028FAD00098007807F082FE05466E6816B9002013F082FEDFF804045D
:204F50004078002800F0A58004F082FA14F058F90190006802900146476828460BF022FF7C
:204F700002286FD02978012904D0022927D0042945D0D7E1DFF8D0130968097A1AF801102C
:204F9000217018B914F020FF5844B0603069C17E01F0EF01C1763069C17E41F08001C1761F
:204FB0003069C17E01F0F00141F00201C176B868DFF8981308183169C8610120A4E005216C
:204FD000217018B914F000FF5844B0603069C17E01F0EF01C1763069C17E41F08001C176FF
:204FF0003069C17E01F0F00141F00201C176B868DFF85813081831690862022084E0062149
:20501000217018B914F0E0FE5844B060D0480068807C11F06DFF3069C17E01F0EF01C176B7
:205030003069C17E41F08001C1763069C17E01F0F00141F00201C176B868C4490818316993
:20505000086260E002980078802811D108202070C0480078012803D0BA484078022801DB06
:20507000012002E0D9F8280000787969C8720AE00720B84920700978786901291CBFD9F8B6
:2050900028104978C1720198AE4980798870029844E1002D18D000992878A9420ED1401E1E
:2050B000012833D9C01E05D1A9480068807C11F01FFF2BE0002013F0C3FD27E0012804D091
:2050D000022815D0042817D02CE19F480068007A1AF80000207014F077FE3918B06814F040
:2050F0006FFE18B914F070FE5844B06001200BE005202070022007E0062020709448006880
:20511000807C11F0F5FE042088F80200284605E18C484078002800F0B68004F099F914F031
:205130006FF800900068019045688648807814F067F8029014F016FA0721084278D098F8A9
:20515000020007F077FD0646019977680BF02AFE02286DD03178012904D0022924D0042990
:2051700040D062E078490968097A1AF80110217018B914F029FE5844B8603869C17E01F0E3
:20519000EF01C1763869C17E41F08001C1763869C17E01F0F00141F00201C176A8686B491E
:2051B00008183969C86192E00521217018B914F00BFE5844B8603869C17E01F0EF01C17641
:2051D0003869C17E41F08001C1763869C17E01F0F00141F00201C176A8685C490818396952
:2051F000086283E00621217018B914F0EDFD5844B86057480068807C11F07AFE3869C17E4B
:2052100001F0EF01C1763869C17E41F08001C1763869C17E01F0F00141F00201C176A86860
:205230004A4908183969086274E0002013F008FD02980099884224D001980078802811D197
:205250000820207043480078012803D03D484078022801DB012002E0D9F8280000786969FE
:20527000C8720AE007203B4920700978686901291CBFD9F828104978C17200983149807960
:20529000887001984AE014F06DF9072108424ED098F8020007F0CEFC0646307875680128FC
:2052B00004D0022815D0042822D040E026480068007A1AF80000207014F086FD3918A868E3
:2052D00014F07EFD18B914F07FFD5844A860012021E00520207014F077FD3918A86814F096
:2052F0006FFD18B914F070FD5844A860022012E00620207014F068FD3918A86814F060FD57
:2053100018B914F061FD5844A86011480068807C11F0EEFD042088F802003046BDE8FE4FEF
:2053300009F0A0BDBDE8FE4F002013F089BCBDE8F78F00BF042F0020F8AD0100289A0110F7
:205350006F4F0020684E0020104F0020F0D8FFFF184F0020734F00202DE9F04F0C46E0074D
:2053700089B00DD513F056FF38B100218160DFF800040068010018BF804784F00100F4E193
:205390001E252007DFF8EC6340F18A80DFF8E8030068807C13F034FF07464FF4947097F8B3
:2053B0002E8107EB0009002007908246DFF8C8030068807CFF2804BF002013F041FC4A46D4
:2053D000414630460EF053FD834605FB0BF0009035184946404614F02BFDB0B1BBF1FF0F75
:2053F0002CD00098305C40F00208E81D079005F1010908F0010087F82E0106224FF4947091
:205410004946384413F0CEFD18E04946404613F089FE002818BFBBF1FF0F0FD005F10D0071
:2054300014F0FAFC40B905F10D0014F0F5FC002804BF687F012801D148F00208CE480068E4
:20545000C07A022818BF032806D106F10D0014F0E3FC08B906F1070A0020BD1D0690434636
:20547000288E000905900022E88D0490A88DCDF804A040080390CDF800900798029000207E
:20549000297814F099FCD7F89C01BC49884228780CBF002101210CF03DFC84F0080064E1E3
:2054B000E00610D500200690059004900390029001900090002300220021022014F07CFCE8
:2054D00084F0100051E1A00710D500200690059004900390029001900090002301220021EE
:2054F0003C2014F069FC84F002003EE16007A44F40F1A180A34880784FF00008CDF81C800B
:20551000FF2804BF002013F09BFB386890F8A00013F076FE81464FF4947009EB000B3868EC
:20553000C07A99F82EA1022818BF032806D106F10D0014F071FC08B9F01D079059465046AF
:2055500014F076FC90B33868807A010018BF012804D13146584612F002FB04E05A465146E3
:2055700030460EF084FCFF283ED005FB00F806EB080506225946E81D13F014FD16F8080006
:2055900040F0020A3868807E00F0010089F82E010622386800F114014FF49470484413F0DC
:2055B00001FD05F1010B05F107081DE05946504613F0B8FDC0B15A46514630460EF057FC7D
:2055D000FF2811D06843351805F10D0014F024FC40B905F10D0014F01FFC002804BF687FA7
:2055F000012801D14AF0020A09F12C0009F106050178069153464189090905910122A98BBD
:205610000491C088CDF8088040080390CDF800B0079801900020297814F0CEFBD9F89C01D4
:205630005649884228780CBF002101210CF072FB84F0040099E0200610D500200690059093
:20565000049003900290019000900023012200213B2014F0B1FB84F0800086E0E0043BD5A0
:20567000F11D06F10D0014F0A3FB38684179012923D1017A012918BF04291ED1C17A0229F0
:2056900018BF032919D1817E00F1140230460EF0EEFBFF2811D06843351805F10D0014F0A3
:2056B000BBFB50B9E91D05F10D0014F081FB38680622E91D143013F075FC3348426833486C
:2056D00000784FF4805110F0F9FC10B18E2014F06BFB84F4805048E0A00505D513F012FF5D
:2056F0002B4901200860FEE7600504D509F0BBFD84F4806039E0600405D5812014F054FB26
:2057100084F4804031E0A0042ED5224D286810B1002013F095FA4FF0FF3028600EF09EFF86
:205730001D4D296820316846096888471B4841682D681B4A00916B468168019100210291A8
:20575000016909680391017B00688DF81010ADF812002D6813491448A8471449086004F095
:20577000E1FD84F4005000E0002009B0BDE8F08F204F002090230020184F00203F44010029
:20579000104F0020684E0020784E00206E4F0020FC002043044F0020F04E00203819002040
:2057B000642E0020881B0020382B0020EC4E00202DE9F043DFF8AC43DFF8AC3394F80080B6
:2057D000DFF8A8E3DFF8A893DFF8A863DFF8A813B8F10D0F83B0404641F2064741F202425C
:2057F0004FF4A05553D8DFE818F0BB010E000E000E000E006D00A500E9001D015F015F019A
:20581000900190019701DFF87413DFF87473C3F800E041F2044E4C8874451CBFB1F81A80D7
:20583000F0450BD0B1F83290F1451CBF41F20A4E744503D0F04518BFF14502D1A6F800E022
:205850002AE0022CDFF83C73348036D94FF4806CB4EB0C041CD0241F012C1FD94FF47F7C47
:20587000B4EB0C041CD04FF4406CB4EB0C040FD0A41E012C0CD9241F0AD0641E012C0DD97A
:2058900040F2F930241A012C17D9241F08D05FE1022814BF3580BC4F1F60FDE0BB4FFBE7E2
:2058B000BB480068007A012803D14A804A834A86F2E74D804D834D86EEE7002013F0C0F995
:2058D000832049E1B348418831800229C3F800E014D940F20442891A2AD0491E0ED040F237
:2058F000FB32891A1DD00A3901291AD940F6F632891A03D0491E1BD0491E012940F2C6804C
:20591000091F15D0491EF9D0491E11D04FF47E72891AF3D0491E0BD0C91E09D0491E0129C6
:2059300047D8817B478025290CBF2721491E817399483CE09948418831800229C3F800E09B
:2059500068D940F20442891A30D0491E62D040F2FB32891A23D00A39012920D940F6F63289
:20597000891A57D0491E21D0491E012952D9891E13D0891E1AD0491E4CD0491E16D0891EA7
:205990000BD040F2F632891A44D0491E0ED0C91E0CD0491E012902D90BE0814807E0817B00
:2059B000478025290CBF2721491E81737D48186072E0002013F044F984206BE099F80200E3
:2059D000FF2855D07849C3F800E01C2209685043084440F204444188744A3180091B012981
:2059F00046D94FF47F74091B15D00A39012916D940F6F634091B032984BF491F01290FD970
:205A1000891E012934D940F2FD34091B08D0491E012904D93AE041F20141418000E04580D6
:205A30001A6039E099F80200FF2821D05E49C3F800E01C240968604308445D4C4188318013
:205A500040F20446891B012912D94FF47F76891B17D00A39012916D940F6F636891B13D0F9
:205A7000891E012984BFC91E01290DD9891E012976D940F2FD36891B06D0491E012902D9A0
:205A900004E0428000E045801C6005E0002013F0D7F8852014F0B8F903B0BDE8F0434548E6
:205AB0000078012109F042BC4A88328040F20443D21A55D040F6FC73D21A15D0083A4FD060
:205AD0004FF47F73D21A22D13B4C3C4A24683C4800680023CDE9002308343A4B24680222B0
:205AF000A047394908803BE0092810D137480068408960B1364800780EF0DEFD00210020A7
:205B100014F04EF9002020702AE048883080002013F096F885201FE04A883280022A0DD905
:205B300040F20440121A1BD040F6FC70121A05D0083A15D04FF47F70121AE8D1887B801C48
:205B5000C0B2B528A8BF662088730020488007E0002013F075F88420BDE8FE4314F054B904
:205B7000BDE8F7836F4F0020204F0020ED960100684E0020504F0020A42E0020204A0020F4
:205B9000A13F000009D4000009F90000755B0110104F00209C4C0020811B01006C4C002059
:205BB00009600000F1260100342B00203D840000A1B800006E4F0020F04E002002000080FE
:205BD000EC4E0020A1650100424F00203C2F0020714F00202DE9F84FDFF8F443A078FF288E
:205BF00004BF002013F02CF8A07813F009FB04464FF4C97004F1680625183068006804F111
:205C1000900708B100200EE0B07B002804BFB07E002809D13878002801BF28780028207FD1
:205C3000012801D1608CE0832089E18B0818401C6081204612F04AFC01281EBFE54800783F
:205C5000012804D10020E0832089401C6081B07E01280CD1B28B6189208914F09DF830B14F
:205C700021896289481C82422AD0B28B1FE0387801280CD17A886189208914F08DF830B16C
:205C900021896289481C82421AD07A880FE02878012815D16A886189208914F07DF8002887
:205CB0001FBF2189481C6289824209D06A88824206D0501E608180B214F06AF8401EE0832C
:205CD0002878012801BF68882189491C884207D16A792A71002028701346A1790AF0B4FC37
:205CF0004FF49A702044007920B10020E0832089401C608104F12E07B07E012801BFB08BB4
:205D10002189491C884237D1608104F18601204612F03AFDB08CE189608400202077E083F2
:205D300060890818A0812189B08B14F031F8B988328C01FB0028708CF28C884204BF3B8929
:205D50009A4202BFB18CFB88994207D0110900914208B38CA179002014F03EF8B07F3870A5
:205D7000708CB880B08CF880F08C3881204612F0E5FE0220B07601E0B7F80480E08BDFF80D
:205D90005892411C01FB08F140F6C41808FB01F200922268DDF800C0D3686344DFF83CC247
:205DB000D360DCF800C08E4A9CF800C013884FEA9C1CBCF1030F12D199F80FC05FEACC7CC1
:205DD00048BF00230BD45B1C9BB2012B07D14FF49A7CA444BCF806C00CF2DC5C01E0B4F864
:205DF00012C00CFB01FC4FF4C87EBCFBFEFCDFF8F4A10CF1010CC4F814C04FF01C0B138084
:205E100084F82000A161A279DAF800102068C3680BFB02F20A4492680261A279D4F814C0C4
:205E30000BFB02F20A44A3EB0C039360A2790BFB02F20A4492688260A0790BFB00F00844E0
:205E5000017B01F0F00141F002010173A179DAF800000BFB01F1084400214180287908B9B8
:205E700012F0EEFEA179DAF800000BFB01F10844297949080174A179DAF800000BFB01F1A8
:205E90000844002141742879042812D1A179DAF800002A7A0BFB01F10844017C41EA820121
:205EB0000174A179DAF800000BFB01F10844202141740022A079DAF800100BFB00F00844D8
:205ED00042824948A2790068D4F814C000EB4212536903EB4C035361B27E022A07D1A279FF
:205EF0003E7800EB4212536908FB0633536199F80F20D20740D5A2790BFB02F20A449368E5
:205F1000A3F5A8639360A2790BFB02F21144226889689160009BC91A1161A17900EB4111BE
:205F30004A6902F5F6624A612979042906D1A17900EB41114A6902F5B0624A61A17900EB3B
:205F500041114969C4F8341128490D6BBB88A2792D6808FB03F300EB42125B1BA3F5167381
:205F7000D361A27900EB4210214A1278012A0EBF0121896A497818E0A279297900EB4212CE
:205F9000042952690CBF4FF44B614FF4E661511ABA8808FB02F2A2F516729142D4D308215F
:205FB000204612F09EFB01200FE0C172A179DAF800000BFB01F108442168486007200D49AF
:205FD0000870204610F003FC0020BDE8F28F00BF684E0020784F00205C4D0020084F0020D2
:205FF000542F0020342B0020342F0020F8AD0100734F00206F4F00202DE9F84FDA4DDFF82B
:206010006C832868DA4F807CDFF8689313F0F8F8296804460020487104F12E0A28680FF097
:20603000E7FF012060711C2598F80100401C88F8010080200CF0B8FD20607969C160CE48DF
:2060500001894900AAF802105146C07940008AF80000BAF804004000AAF80400BAF80800C1
:206070000001AAF80800204612F08EFB0520A081204612F063FD386813F086FE062210F80F
:20609000081FC1F3801184F82E11811C4FF49470204412F087FF3968B84F09680020087147
:2060B00041F62202A1793868694342520022A179694301444A80A17969430844426099F83F
:2060D0000200400609D5AE48008841F20A4188420CBFAC48AC48C4F89C012046D4F89C11D9
:2060F0008847A27939686A4311448873A1793868694308440021C173A1793868694308444F
:20611000807B8AF80B0094F8960108B912F098FDA17938689D4E6943084494F89611491E35
:2061300001740022A17938686943084400214174A1793868694301444A82A179326802EB18
:206150004112694301444A61A1796943084490498161A0790AF03EF8A2793168520188504B
:20617000A07940010A5822B90721204612F0B9FAF5E008441F2202763068A179DFF814B20C
:2061900000EB411000214176DBF80000A17900EB011013F031FEA179DBF800203068DFF844
:2061B000F8B102EB011200EB41114A6004F16801A27900EB421252680A60A279520182581B
:2061D0008A60DBF8141091F800C094F806E05FEACC714CBF102100215FEA8C724CBF20229C
:2061F00000225FEA4C734CBF402300235FEA0C7C4CBF4FF0800C4FF0000C1143194300EB47
:206210004E104CEA010141F00F0101723068A17900EB41100B2141723068A17900EB411069
:20623000042181723068A17900EB41105B49097801291CBFDBF828100978C1723068A179AD
:20625000626A00EB4111CA60A17900EB4110A16A01743068A17900EB4110A16A090A417464
:206270003068A17900EB4110A16A090C817408214B48007809F05AF82168A2793868CB6815
:206290006A4302449360CA680A61CA688A60A17969430844017B01F0EF010173A1793868B2
:2062B00069430844017B01F07F010173A179386869430844017B01F0F00141F002010173BD
:2062D000A179386869430844417B01F0F00141F0010140F6C4134173BAF804203068A179E2
:2062F0005A43DBF830301B6800EB4111D21AA2F516724A61A17900EB4110C17C01F0F001D3
:2063100041F00401C174A1793868694308442168486099F8010080061BD54FF49770204469
:20633000408F1B2801BF4FF497702018808F1B280BD14FF497702044C08FB0F5A47F04BF43
:20635000B4F86E01B0F5A47F03D0142120460DF0DFFF144908200870A07988F80200BDE8C4
:20637000F14FFEF7BBBD00BF184F0020684E0020AC4B0020C02E0020844C0020342B0020B0
:20639000504F00203F440100A7500100342F00205C4D00208C4E0020F8AD0100734F0020E4
:2063B0006E4F00206F4F00202DE9F04F0F46BD4C0168616241688068ADF1140DA060BA48E1
:2063D00061608047B948616A01606168DFF8FC924160A168DFF8F0828160B549002FA246E1
:2063F000C16068D03D68E8788DF8080028798DF8090002A813F0C4FCA86808B1AD490160E6
:20641000E86808B1AC490160AC4C2878207068786070A878BE68A0703178E1707368636047
:2064300072696261B168A160F168E160316921612E697B68A6621868A0616869E062A869B7
:206450002063287F84F834002A6AA263786886681EB9002012F0F4FB00E026627868C06893
:2064700018B9002012F0ECFB00E060627868406818B9002012F0E4FB00E0E0612869A06282
:20649000F86881680E6806B98E4E8D494FF0010B4E60C66881F801B026B9002012F0D0FB9F
:2064B000F86801E041460E6000684D46FE68A8617068E86105E0002012F0C2FB4FF0010BFC
:2064D0004D46D8F80000824944686A1C05F114035020A04718B1D8F8000080688047DAF8CE
:2064F0000400804703907B487C4C286100272771B946E770784EA770300BC6B2401CC1B2A6
:2065100026703846617028E0304639466A46042311F000F9009BA078B3F5801F0ED043B9E4
:20653000B9F1000F03D048460FF028FCA078B14610E030460FF022FCA0780BE0002804BF8E
:20655000301CA67006D00FF019FC30460FF016FCA77038466178761CF6B2B142D4DA98B9BE
:20657000B9F1000F08D1207812F040F80420E08020793946A0B912E084F8029011F01AFA9D
:20659000484607F035FE07E0B9F1000F02D048460FF0F4FB11F00EFA2079394600B95946CC
:2065B000081C02D1384612F04BFB3C464C4ED8F80000B4608069AC6080477060494847802A
:2065D00080F800B0142012F0FBFEFF211422A86213F0A1F8E81CFF21022213F09CF8142045
:2065F00012F0EEFE4049086008681422394613F092F83846FAF7DEF9584610F059FF3B483B
:206610000188FF2906D1022101807822001D394613F081F8032013F0AFFB042013F0A8FBF2
:20663000052013F0A1FB062013F09AFB07200EF09FF82F4E0820307006F1400013F08CFB06
:206650000EF0D8FA363605200A21324611F09EFC38B13846C0F10901401C06F8011B0A28C1
:20667000F8DBD8F80070234909200DF10A0201AB7E68087010202146B047A86AEA690A272A
:206690000A309DF80A1000F8011BDAF808107F1EF7D1921E0398EA61884704F003F805B095
:2066B000BDE8F08FBC15002041490010F8440020E09E01008D7D0100458E01001019002018
:2066D000301C002097560100EC1C0020501A0020B5850100558F010000D001001C2F002042
:2066F000F82E0020E81C0020482F0020D416002044110020612F00202DE9FF47C44C0F4699
:206710000646F80B80F05981B80880F04681207BDFF80893B90F80F0BA80A07A002840F0E8
:206730009A803809C0F09980E07A20B10020E072052010F007FE00254FF00108B54965701E
:2067500004F178002A4684F8088012F0CDFF607901281AD1A079C0B9DFF8BCA2DAF80000F4
:2067700000283CD048460068006B8047A1695346401A000BE0611968226A8018B0EBC11F44
:2067900098BF20622BD9256201E084F8058040F609002087A24994F845000A1D00F0F000FA
