:2000000000400020C564010001C9011001C9011001C9011001C9011001C9011001C9011034
:1C00200001C9011001C9011001C9011001C9011001C9011001C901103FC9011089
:20003C0080B54FF4FC720FF278011A4810F070FE194800210170012141740221C17601BD92
:20005C002DE9F0410FF25021144838220B684C688D68CE680F69D1F814C0D1F818E0D1F824
:20007C001C80036044608560C6600761C0F814C0C0F818E0C0F81C8020312030521EE5D1F7
:20009C004A688B68CC680968016042608360C460BDE8F081480400215903002100C000210F
:2000BC00410500217D0500212D06002170B51D46004C204787B2000010B5014800470000FD
:2000DC00D509000070B5614C6148254650358047022809D14034E1885E4A914204D1E97C5E
:2000FC00890601D4911DE18070BD70B557495A4A084650300378002B10D08379012B0DD181
:20011C00037C5B09DB0709D0097D544DC1746C7F20202043687790476C7770BDFF21C17420
:20013C00904770BD10B54E48484C804702280ED121464031CA88474B9A4208D1CA7C5209CE
:20015C00D20704D0227D920601D49A1DCA8010BD70B53E4843494030C07C4009C00707D032
:20017C003E4D41482C8B2043288388472C8370BD884770BD10B53B48344CAC388047214609
:20019C0053310A789309DB0705D04034A2730A7803231A430A7010BD2C4940310871182876
:2001BC0012D004DC0A280BD00B2804D10AE025280CD02A280CD02D4980004018C0687047DE
:2001DC002B4870472B4870472B4870472B4870472B48704770B504461C484E252D5CAE09AB
:2001FC00F60716D0067D3007000F052803D00120054202D00DE00220FAE7E80905D07006D1
:20021C0003D54868800F012803D05B085B0052085200062B03D01020022B11D011E0FB20F7
:20023C00024002232046FFF741FF002807DAC100611A2039497E1422114200D1002070BD93
:20025C00024303432046FFF731FF70BD4401002137CB000004140000EBC80000A800002142
:20027C00F5B4000053AD00002020000080DF00001D050021F9040021CD040021930400210F
:20029C006D04002110B5034CFFF716FF20680028FAD110BD0011044068610000F825F965B0
:2002BC00F9754500450045002600260057A3520052004C00401F401F401F3F000000000053
:2002DC00304000400140034007400F404F40CF40CF41CF43CF47CF4FCF3FCF2FCF1FCF0F6C
:2002FC00000000000000000000000F00080000003F00000040003F000000040068000E0093
:20031C00DC00060043001A00050000000000020000000000000000000400C00000000400B3
:20033C00C000000007000000000000000000000000000000000000003040004001400340A6
:20035C0007400F404F40CF40CF7FCF6FCF5FCF4FCF3FCF2FCF1FCF0F00000000000000009D
:20037C0050C00091007070C00091007082312100319110B10070018101B100A1823132910D
:20039C0010B101911110418141227740F106007051C0019130181039833108D01831416FD1
:2003BC003100319110B18314141683680070251050C00091F4C340C12014036F3110410497
:2003DC005082F0229840512622C082312100319110B163393110410482C08231210031919B
:2003FC0010B163393110A2C082312100319110B150101531051405920070676452C03110A6
:20041C0031066131C1026A6412C13110213971065131E1026A64007051C0019101CCE2C0CC
:20043C006A64676411C1C2C06A6450B054B0007140804022D6440022C94060B08180111EC9
:20045C00C944007054A064B0F0800022C9404012B09032B070C1DF6811C122C16A6470C1C0
:20047C00E46851C00191E2C0823160820200329110B130C2EE68538253395339B16460C347
:20049C00F4688012B09032B00070676401C122C16A6401C1C2C06A645382B164C012B09074
:2004BC0032B00070676472C281C06A6422C111C16A6402C011C16A6462C031C36A6462C3D2
:2004DC0011C16A6402C311C16A6453825339B164E2C36F6411221C4142C281C86A6452C24E
:2004FC0011C16A6472C2E1CE6A6402C281C86A6402C201C86A64B0C030690070676442C211
:20051C0001C86A6452C211C06A6472C2E1C06A6402C001C16A6462C001C36A6422C101C127
:20053C006A6462C301C16A6402C301C16A645382B16400708180111E5C4150B054B000712B
:20055C00408040225D4154A064B0F1800122514500700022514160B04E61000000000000AA
:20057C000000000000000000067305720B720E7250B00071818060B050A09280F0EFF1928C
:20059C0002936A6741228C458080F1C11004301601110114016CB561B661B761B861B9618D
:2005BC00BA61BB61BD61BF61C161C36126632D63F0C002043231412A121432160111211412
:2005DC00016CDA61C561E061C761CB61B561B561B561F461C561FA61C761CB61B561B56104
:2005FC00B561F461C561FA61C761CB61B561B561B561E761C561ED61C761CB61B561B56121
:20061C00B561CF61CF61CF61CF61CF61CF61C064CF61F964CF610665CF613265CF6174676A
:20063C00CF611166CF61C0644E65F964CF61066511663265CF618280E0DFF2926A67B0B044
:20065C00D661B1B00673057230B06C61D0CF6A6784C203C0C0C37C64207851788278E378B7
:20067C001579B6780062C0CF6A6784C203C0C0C37C64307861789278F3781579C678006250
:20069C00B0CF6A6784C203C0C0C37C6440787178A27803791579D678109221923292439281
:2006BC005492659256911FC0FF914039F00601101031101400927067CF61E3B054A0F08076
:2006DC0050221A4640800022BE461262E3A000C86091598150B0918041228E46A0CF6A6734
:2006FC0012828231823942398B641282F2062F101F312F141682D622334640C1346200C5AF
:20071C0020140D6F6D39DE10F4C34E0482C082312E006D39A2C082312D001A828A39FA0606
:20073C002082803180390BC00B18BC10AC18038239149B141082F0060110103110145181C2
:20075C0010140C14C622C94631D0C1266462021011C0013010C00118021882312100C126C2
:20077C00919103B013B063B053B041800122BE46B481C491D581B51C774E95186591F0803E
:20079C00102269428C623D9110B13E9110B1E08000228146E6228142E0B0951865910F926B
:2007BC005981F914F0805022114210228C464D6390CF6A6763B052A03082F2C0200402107E
:2007DC0011C0013010C00118021882312100C1269191919113B003B063B053B064B054B055
:2007FC00007141800122BE4663B064B0F08050221142B181C191D1819118619131B0A462D0
:20081C002967E0A059810582591480C0007163B0BA6A6962E3A0018262818231823D80EF61
:20083C00F19202936A6703A0007037824739873930828039F006021011C0013010C0011849
:20085C00021882312100C126819102B012B030824039F006021011C0013010C001180218E9
:20087C0082312100C126919103B013B063B053B0007153A062B052B041800122BE46A4816E
:20089C00C491D581B51CFE4E95186591F0801022F0428C62B481C491D4814518751C084FEB
:2008BC00F0801022F0428C623D9110B13E9110B1E08000221247E6221243E0B065910F92DC
:2008DC005981F914F0805022114210228C4630632967E0A0598105825914F0C0007162B038
:2008FC00226BF062A2808B64CF6112824239F2068B6050B00071CF6170CF6A674082418096
:20091C000122BE46A481C491D58195186591F18011228C46336B41800122BE46A481C491AB
:20093C00D581C51C1C4B95186591F08010223F438C6260CF6A67408241800122BE46B48169
:20095C00C491D58195186591F18011228C46506B41800122BE46B481C491D581C51CB44A55
:20097C0095186591F08010225C438C62E092D08200226B47C0B20070A080F022874330B033
:20099C0002C1623101C0A080001E8043F022814380F86031603981632010101A136F236E5A
:2009BC0011161216826B00702DE9F84FDFF81885DFF8181588F80000002008600921DFF891
:2009DC00100501700D2141804FF408718180DFF80405DFF8041501608A7EDFF80005027042
:2009FC00FF2ACB7E437008BFFF2B0D7F85704E7FC6708F7F0771C97F417115D1FF2D08BFE8
:200A1C00FF2E11D1FF2F08BFFF290DD1DFF8D0140A7802704A7842708A788270CA78C27025
:200A3C000A79027149794171DFF8B81402780A70FF2542784A7082788A70C278CA7002791E
:200A5C000A7140794871DFF8A014DFF8A004057045708570C5700571457100200880DFF888
:200A7C009014DFF89004466B70780870DFF8881430780870DFF88414B0780870DFF880142D
:200A9C0070690079401E0870DFF87814F0780870DFF87414B069086008B918F03DFCF06994
:200ABC00DFF86844206008B918F036FC2068DFF86074006880472168091D3846096888474D
:200ADC00DFF85004DFF850143862DFF850047862306A086008B918F01FFC706ADFF840140A
:200AFC00086008B918F018FCDFF838B4DFF838649BF8040018F0EEFF306008B900F046B993
:200B1C009BF80500DFF8247418F0E4FF386008B9306838E19BF80600DFF8144418F0DAFF14
:200B3C00206020B9306818F0DDFF38682BE19BF80700DFF8009418F0CDFFC9F8000038B98D
:200B5C00306818F0CFFF386818F0CCFF20681AE1DFF8A41309789BF80000DFF8DCA3C91C38
:200B7C00484380B218F0B6FFCAF8080058B9306818F0B8FF386818F0B5FF206818F0B2FF10
:200B9C00D9F80000FFE0DC480078010000F00381BBF80210DFF8A4B3484380B218F09AFF27
:200BBC00CBF8040078B9306818F09CFF386818F099FF206818F096FFD9F8000018F092FF17
:200BDC00DAF80800DFE0CC48007818F083FFDC49086098B9306818F085FF386818F082FF1F
:200BFC00206818F07FFFD9F8000018F07BFFDAF8080018F077FFDBF80400C4E0BE48007827
:200C1C001C21484318F066FFCE490860B0B9306818F068FF386818F065FF206818F062FF97
:200C3C00D9F8000018F05EFFDAF8080018F05AFFDBF8040018F056FFC148A3E0AE480078F9
:200C5C00400118F047FFC0490860D0B9306818F049FF386818F046FF206818F043FFD9F877
:200C7C00000018F03FFFDAF8080018F03BFFDBF8040018F037FFB248006818F033FFB1484C
:200C9C0080E09D480078000118F024FFAF490860F0B9306818F026FF386818F023FF20682F
:200CBC0018F020FFD9F8000018F01CFFDAF8080018F018FFDBF8040018F014FFA0480068C2
:200CDC0018F010FF9F48006818F00CFF9E4859E089480078000118F0FDFE9D49086010BBFA
:200CFC00306818F0FFFE386818F0FCFE206818F0F9FED9F8000018F0F5FEDAF8080018F064
:200D1C00F1FEDBF8040018F0EDFE8D48006818F0E9FE8C48006818F0E5FE8B48006818F068
:200D3C00E1FE8A482EE0744800783021484318F0D1FE8849086070BB306818F0D3FE38687C
:200D5C0018F0D0FE206818F0CDFED9F8000018F0C9FEDAF8080018F0C5FEDBF8040018F022
:200D7C00C1FE7748006818F0BDFE7648006818F0B9FE7548006818F0B5FE7448006818F0BD
:200D9C00B1FE7348006818F0ADFE002018F0C4FA4FF4804192E03168012008710022306869
:200DBC00057330684573306885733068C573306805743068457400203168C8723168487148
:200DDC00A0213068C180032101720720316848720020316888722821306841820121C1769C
:200DFC00002031684877316881F85E00012031680877316881F85D00396808713868057315
:200E1C0038684573386885733868C573386805743868457400203968C87239684871396886
:200E3C0088724FF420703968C88008818A7401213A68D17421680D7321684D7321688D7375
:200E5C002168CD7321680D7421684D7400212268D172012122681171002122685171216847
:200E7C00C8800881002088722168887405202168C8743948006880470546294800680068C0
:200E9C00804727490968091D00200968884719481C49C06809780088084330490880284657
:200EBC002F49096888470C212E4800F05DF80F4800F05EF800F060F84FF4005198F800006D
:200EDC00BDE8F44F0EF0C4BA6E4F0020044F0020604E0020084F0020B63F00502C4E00201E
:200EFC00E81200503C4E00200C4F0020344E00206D4F002048B501007B4F00206B4F002027
:200F1C00724F00206C4F0020F04E0020F44E00207C4B0020F19A0100F84E0020019B0100C3
:200F3C00FC4E0020181D0020104F002004300020184F002008300020CC2F0020684E002033
:200F5C00004F0020FC2F002000300020884E00208C4E0020904E002088160020544F0020FC
:200F7C008C160020F84D0020DFF800F0E5710110DFF800F01D6E0110DFF800F04D71011007
:200F9C00B0B5174C241D20680004070C23D01248006800688047114991F90720824205DDF8
:200FBC0010F1800FB8BF6FF07F00C8718D88BD4210D80A68D4F8D40F801A801C1F2888BF16
:200FDC001F207F1B4008C7404FF6FF70EF19B84238BF071C8F80B0BDEC010010F42F002041
:040FFC003010094068
:20100000B41200001810000015AB0110FDB301106DC00110FDAE011099B5011000000000F7
:08102000000000002F00000099
:20102800B01200003C100000B1C00110A9BF011067C0011069B80110000000000000000035
:041048002D00000077
:20104C00B012000060100000BDC00110CDB30110D9BD01106DB3011000000000000000005B
:04106C002E00000052
:2010700000000000401D002004000000000000000000000020000000E8C9011030000000CD
:2010900028100000481D00200400000000000000000000000C000000D8CA011018000000A8
:2010B0004C100000501D002004000000000000000000000024000000F0CA0110180000002C
:2010D00000000000581D00200400000000000000000000001000000018CA01102C00000038
:2010F00000100000601D0020040000000000000000000000200000006CCA011024000000A4
:20111000FFFFFFFF681D00200400000000000000000000002800000090CA01102400000063
:20113000FFFFFFFF701D00200400000000000000000000001400000008CB011018000000E2
:20115000FFFFFFFF781D002004000000000000000000000058000000B4C9011034000000B0
:20117000FFFFFFFF801D00200400000000000000000000001000000020CB0110180000007E
:20119000FFFFFFFF881D00200400000000000000000000001C000000B4CA011024000000AB
:2011B000FFFFFFFF901D00200400000000000000000000003800000044CA011028000000D3
:2011D000FFFFFFFF981D00200400000000000000000000005400000078C901103C00000048
:0811F000010000000CB5010034
:0411F80001000000F2
:0411FC0000000E00E1
:0412000000000F00DB
:0412040032000000B4
:0412080001000000E1
:04120C00A81B0020FB
:0412100000020000D8
:0412140000000000D6
:0412180001C90110F7
:04121C0000000000CE
:0412200000000000CA
:0412240008000000BE
:04122800000023009F
:04122C00501A002034
:0412300001000000B9
:04123400C01B0020BB
:0412380008000000AA
:04123C00681B00200B
:0412400000000000AA
:0412440000000000A6
:04124800080000009A
:04124C00000000009E
:04125000000000009A
:041254000000000096
:041258000000000092
:04125C00010000008D
:04126000B81A002098
:041264000600000080
:041268000100000081
:04126C00FC1800204A
:04127000000000007A
:041274000000000076
:041278000002000070
:04127C00000000006E
:02128000290043
:02128200010069
:02128400250043
:021286002D0039
:021288002E0036
:02128A002F0033
:02128C0001005F
:01128E00015E
:0812900003000000C0B40100DE
:0812980000000000000000004E
:0412A0000000010049
:0412A4000000030043
:0412A80013C401105A
:0412AC009598010010
:0412B000B812000070
:0412B400B81200006C
:0412B8000000000032
:0412BC00C01B002033
:0412C0001D9A010072
:0412C4002000000006
:0412C80014B4010059
:0412CC003CB301002E
:0412D00029C101101F
:0412D400CB770100D3
:0412D8006F7C010026
:0412DC00A1C7011095
:0412E000A3C701108F
:0412E4000000000006
:0412E80037B4010016
:0412EC0038B1010014
:0412F00050B10100F8
:0412F40020B1010024
:0212F8000200F2
:0212FA000900E9
:0212FC000100EF
:0212FE000000EE
:0113000001EB
:041304009D990100AE
:041308002577010044
:04130C00D18C01007F
:041310000D7B010050
:041314003D7C01001B
:041318005D770100FC
:04131C00BD330100DC
:04132000179C010015
:04132400454B010034
:0413280015C70110D4
:04132C0025C70110C0
:201330002DE9F04FE54C04F118012046ADF1540D14F0B4F904F1B0050021284619F068F950
:20135000E561E449E24D1020EA1D0AF013F8002001228146E0490090134604F5A270CDF8B3
:20137000049013F02BFFCDF800904FF400510191DA4944F620624B4604F5B47013F01EFF74
:20139000CDF800904FF480410191D54949F640424B4604F5C67013F011FF4FF400304FF4EA
:2013B000FA62D049CDF800904B46019004F5D87013F004FF4FF480004EF66022CA49CDF889
:2013D00000904B46019004F5EA7013F0F7FECDF800904FF480510191C44949F640424B46A6
:2013F00004F5FC7013F0EAFECDF800904FF400010191BF4904F507704CF250324B4613F096
:20141000DDFECDF800904FF480710191B94904F5197044F620624B4613F0D0FEB64E06F129
:20143000180006F10C010FF0C7FCB449B06018F023FCB34FB0684FF4E0213A46521E16F036
:20145000F1F9B0684FF4E0213A4616F0EBF9AD4FB0684FF0C0513A46521E16F0E3F9B0687E
:201470004FF0C0513A4616F0DDF9A749CDF8009006F12400C8224B46CDF8049013F09EFEDD
:20149000A248494670604FF0804013F011FA606104F1C80104F1BC000FF08EFC9C4EE06201
:2014B00021211E22304617F04FFA9A4849464FF6FF7217F049FA984849464FF6FF7217F037
:2014D00043FA964849464FF6FF7217F03DFA944849464FF6FF7217F037FA6769DFF8448298
:2014F00057B1304606793EB1414603220A708F604A46CA6016F0F2F88B4910200B2209F007
:2015100039FF8A4D10200622A023294609F032FF10200722A023294609F02CFF10200822EF
:20153000A023294609F026FF10200922A023294609F020FF10200A22A023294609F01AFF06
:2015500010200B22A023294609F014FF102002224FF4FA63294609F00DFF294610200C22AB
:20157000502309F007FF294610200D22502309F001FF294610200E22502309F0FBFE29460C
:2015900010200F22502309F0F5FE102029465023024609F0EFFE294610201122502309F0FD
:2015B000E9FE294610201222502309F0E3FE294610201322502309F0DDFE29461020172221
:2015D000502309F0D7FE294610201822502309F0D1FE294610201522C82309F0CBFE2946B4
:2015F00010201622C82309F0C5FE2946102019224FF47A7309F0BEFE294610201A224B46A1
:2016100009F0B8FE207816F03BFECF490246102009F0B0FE8DF82190ADF8169040F2053015
:2016300001210DF121020AF045FB40F2063002210DF116020AF03EFB04F1E0024FF442707D
:201650000F210AF037FB04F58A7240F2073016210AF030FB0F2001210DF122028DF822004A
:2016700040F204400AF026FBC84E04F1A000C84DB0612878E071307816F002FE0246F07AA7
:2016900006F13407009006F144030197C149029306F1140703977378102009F06BFEE17980
:2016B000480000EB011080B210F048FE206300283ED0E779002F3CD002E0C04608020020F8
:2016D0004FF6FF713E46761E20F8121BFBD130E038B40100A1B50010ED6B0100499B01007B
:2016F000D19A0100399B0100799B0100C19A0100299B0100699A0100481900205572010016
:201710000E0005800E000010C198010085960100141A002018170020B018002018180020BD
:2017300064180020301C002081B30010BD840110E779380110F002FE0746A76357B1E679A4
:2017500046B14846F8803870B8807880761E07F11007F7D104F1FF00D14900904A461523D3
:20177000102009F007FED44910204FF0FF3209F001FED34910204FF0FF3209F0FBFDD14EAA
:20179000D14F10201323D14A00903146019709F0F1FD2878800010F0D1FD0146CC48834600
:2017B000816069B14FF6FF7016F008F8C94910200BF12402009011230191314609F0DAFD63
:2017D000DFF814A31020514609F0D4FDD5491020042209F0CFFD0125032704268DF823502F
:2017F00002208DF82570D54A8DF8266006AB8DF82400921C1079116818710DF12302196044
:20181000484629460CF06AFF09AA284601460CF065FF02200DF1250229460CF05FFF0DF180
:201830002602384629460CF059FF052106AA30460CF054FF04F14800CBF8040051461020C9
:2018500009F098FD207816F01BFDCC490246102009F090FD207816F013FDC94902461020E9
:2018700009F088FD03268DF82B608DF827908DF8285002208DF82A50C24F8DF82C504FF4F2
:2018900080622B468DF829000DF1290639461020009609F06FFD0DF12A0040F202422B4651
:2018B00000903946102009F065FD0DF12B0040F203422B4600903946102009F05BFD0BA82A
:2018D0000090394640F206422B46102009F052FD0DF12700394640F211422B46009010202C
:2018F00009F048FD0AA8394640F204422B460090102009F03FFD04F1EF001023394640F2C3
:2019100005420090184609F035FDCDF800903946102040F209424B4609F02CFDCB4904F11A
:20193000A802102009F026FDC949102009F022FD00210E910F911091D04E11961296CE4FBC
:201950001397AB460D97DAE25188011017F0DCFC139A002307F014FD0D98821AD3485F46DA
:201970004FF0005600970023CF49019613F026FCE06C401CE064C2E26069B90F0CD2780AB3
:20199000C0F0BD82072017F0BFF944E0B00A0020694F0020B142010012210022CEA316F0CC
:2019B00052FED3480C300068C00A0DD2CE48006803684FF480715A4608469847CB48C94950
:2019D000C0F800B000270F60C94800684008FBD3C5480068416802208847C249096881421C
:2019F0001ABFC0490860CD480E9A04F1700704F17803164600F00100014683E8060097E870
:201A10000600964208BF884209D1606912210022BEA316F018FE002011F0F2FA6FE207204D
:201A300017F084F9BE4818F01FFA0520F4E7616AB80E43D2A16AB80D3CD2607A002831D064
:201A5000401E22D0401E15D0401E40F05882B80AC0F05582606904F19001002306C99A4215
:201A700003BF1A1C9142CDA3D0A31421002216F0EAFDEEE1380AC0F0428211F085FA012836
:201A900000F0E1810320607239E2380E02D2780E10D234E20220607214F084F92FE2C046B0
:201AB0003D220100780B80F0E581780D28BF84F809B024E2884722E2D58E0100C048DDE1B9
:201AD000A9920100D78101009CB40100DC1000208C130020A8B4010071150100616AB80ED0
:201AF0004AD2A06AB90D80F0B881207A002836D0401E25D0401E40F00282780FC0F0FF815D
:201B1000CB4A032008210CF0E9FD01280CD0032004F17807207297E8030004F1700282E8F1
:201B30000300ECE1F595010060690F2100224B4616F089FD4FF0805175E1C04638B40100A9
:201B5000380E09D2780EC0F0DA81606911210022CBA316F078FD7FE102202072CFE1780A77
:201B700007D2780DC0F0CB8184F808B013F07AFAC5E113F077FA6FE1CD487FE131810110AE
:201B9000E99C010059770000B80D80F08780207B002875D0401E5DD0401E3BD0401E40F019
:201BB000AE81F80AC0F0AB81C749002014F096FE04F188020CCA109E04F1800003C804F108
:201BD0009807121A8B4197E8030004F19005121A8B4195E803003746801841EB0301CA0FBC
:201BF00012184FEA520047EB0103D90708435910454266EB010618F007FD04F1680106C93E
:201C100004F16803491942EB060283E8060018F0F7FC21E1F80AC0F0728117F075FB04F13E
:201C3000900282E80300B24A032008210CF056FD01281CBF0320207340F0618160690F2139
:201C500000224B4616F0FFFC13E0C04619910100C5AB0010F80AC0F0528117F055FB04F1CB
:201C7000880282E80300A349002014F037FE022020734FF48061D6E0400D030040E2010016
:201C9000380E0ED2780EC0F03A8160690F210022C7A316F0D8FC002014F0C0FF14F0ACF932
:201CB0002DE184F80CB02AE1899B010048040020616AB80E70D2E07A00285ED0401E19D068
:201CD000401E40F01C81F80BBFF450AF380D52D2780DC0F01481BFE077616B696E6720752C
:201CF000702100C0FC2B0020CC010010A802504208800240266C380C14D2F80CC0F0FF806A
:201D1000B94818F0B1F80220E072F8E0656E746572696E6720736C6565702100EFBEADDEC7
:201D30006C040020002E26DDC14F00203D460C908146AD1C05F1010ABE485146052216F028
:201D500077FF28B997F918008145C4BF81460C95761E07F1190705F119050AF1190AEBD129
:201D70000C9FC24880F800902FB100202B213A460FF01EFDC3E003204EE6F80C0AD2B80B13
:201D9000BFF4F4AE380DC0F0BA8084F80BB04FF4004148E0BF4893E0BF486FE02053706FAA
:201DB00074206973206F70656E2100C053706F74206973206F636375706965642100C046BB
:201DD00011020020616AB80E57D2A06AB90D44D2A07A002847D0401E37D0401E2AD0401EAC
:201DF00011D0401E40F08B80B80AC0F0888017F08BFA04F1980282E8030016F073FF80B9A6
:201E10000520A0727BE0B80A79D317F07DFA04F1800282E8030016F065FF002808BF042033
:201E3000EFD04FF40071A06918F0E6FB67E0C04680020020380A62D311F0A6F801281CBF24
:201E50000320A072EDD18021EDE7380E07D2780E55D3002014F0E2FEA06A80474FE013F036
:201E7000A1FF0220CDE7780B04D2780D28BF84F80AB044E014F0E4F8EEE7BF4888473EE014
:201E9000426F6E64696E67206661696C65642077697468206D61737465722100E678380BA2
:201EB00014D2F80E06D2380F29D3062003E0C04610020020022011F0A3F813F023F8BB48EB
:201ED00017F0D2FF1BE0C046A0020020002E1CBF0020071C03D10DF097FC4FF0FF37606969
:201EF00057B914210022BCA316F0ADFB07E0C0469802002088020020062016F017FFA069C2
:201F10004FF0FF320021134618F072FB071CF6D00020049008A904AA05A815F023FE00285B
:201F30005ED1BDF814005E46102854D120789DF8201088424FD1049801884FF6FF728A42AA
:201F500046D14088C00846D3656B002D43D0A07805F10803401CA070BF4900936A882B79EB
:201F7000102009F007FA5FFA80F9B9F1160F12D02078B9F1040F0ED0656B16F081F90346D8
:201F90000020C04900906A88102009F0F3F9484611F0D2F91FE0A078009098F80010606907
:201FB0000022C2A3491DC9B216F04DFB13E0C04650616972696E67206661696C65642120D2
:201FD000446973636F6E6E656374206E6F77210000F0D0F90646049810B10EB117F01AFF11
:201FF000F80FC0F015810DE194030020E569284618F0FAFA854208BF002602D0866815F0AE
:2020100077FE301C00F0FE806269318898F800009446491E00F0ED80491E00F0AF80891FA1
:202030005ED0083908D0103900F0C280E7E0C046E00400205C02002071688D78002D4DD057
:20205000012D3AD0022D29D0032D40F09080CD7875B90988C01C002298A30091C1B26046B9
:2020700016F0F1FAC14817F0FFFE80E0480300200A880092C978C01C97A300220191C1B2E5
:20209000604616F0E0FA4FF08071A06918F0B4FA6DE0C0467003002013020020CD78002D2E
:2020B00065D10988C01C009192A3C1B21046002216F0C9FA4FF40001E7E7CD784DB993A360
:2020D00009880091C01CC1B21046002216F0BBFA4DE00988009193A30195F3E796A3EFE748
:2020F00070680078010922D2400940D30E2017F0E9FB00283BD1D8F8040098F801100379E8
:202110000A46934211D0FF2A31D000EBC203DD682DB900EBC100006915F0E0FA27E000EBBE
:20213000C20003690846984721E08068F4E70D2017F0C8FBD8B9D8F8041098F801000979F1
:2021500081420FD0FF2812D0401CC0B215F0BCFCFF2802D1002015F0B7FC88F801000BF0EB
:20217000F5FD04E0002015F0AFFC88F80100706815F0BEFD43E0C046120200207268A06950
:20219000117861B1891E04D0891E0DD14FF0805107E002200DF12D0114F0A0FB03E04FF48A
:2021B000806118F029FA72681046E1E70004002075681199C01C009165A3C1B21046002200
:2021D00016F041FA1298009067496A890023102009F0D0F8CBE7C0464572726F7221214178
:2021F0006C7265616479207363616E6E696E672100C0706800F0BEF8706817F00BFE304620
:2022100015F076FDE06918F0EBF900283FF4EEAE380B09D317F078F88DE803006069002211
:202230004FA30C2116F00FFA266ABEB1761E3FF435AE761E3FF4C6AD761E3FF439AD761E3C
:202250000FF244093FF4A0AC761E3FF447AC761E3FF4EDAB53E6C046DDFE0010E06CB90E4B
:20227000FFF48AAB00283FF471AB17F04DF8139D00232A4607F084F83D482946891A15F011
:202290001FFB3CE6039A01004572726F7221204E6F74696669636174696F6E2073656E6458
:2022B000206661696C65642100C046C05273702073656E642072657472793A0043786E20CA
:2022D000256420626F6E642073617665207375636365737300C046C043786E2025642062A0
:2022F0006F6E642073617665206661696C65643A2025640043786E20256420626F6E646958
:202310006E67207375636365737300C0636F6E6E48616E646C6520256420706169726564C7
:2023300000C046C070616972696E67206661696C65643A20256400C0636F6E6E48616E648C
:202350006C652025642070616972696E6700C04650617373636F64653A20256400C046C008
:20237000703A20256400C046717C010024040020480400202DE9F04F05460120ADF1240DC2
:20239000D44C07902878913800F07A83DFF84893DFF848831F3800F0A382203840F0DC8379
:2023B000484606780590E16B6769A878002800F05D82401E00F0C281801E00F02582401E15
:2023D00000F0A081DFF83493DFF834A3401E00F0C080401E4BD0401E00F00782801F40F0E3
:2023F000BB83E878002830D1666C05F10508002E1ADD04F5757738464146062216F018FCE0
:2024100070B928692B2116F0DDFB68B12879691D11F046FE002840F09F834FF0806189E13F
:20243000761E07F11907E6D1E87870B928692C2116F0C8FB48B12879691D11F031FE002881
:2024500040F08A834FF0006174E1E878022840F083832869C07A2A2840F07E83286900900B
:202470006968AA68EB6828680DF0FAFD74E3192204F2CC404A43002110F021FC00261020DD
:202490004146E66308F076FFC7B2A88816F058F8E1796082814240F35F83226B41004FF6C9
:2024B000FF7301EB0011079D5352A26B0301D65405FA00F0D118CE8082B23146484616F0B4
:2024D00043FA608A314605FA00F082B2504616F03BFA608A8540CA483146AAB216F034FA92
:2024F00027B9C84831461C2216F02EFADDF814A0D4F814909AF800501020414608F03AFF36
:202510006D1C00903246C5A3E9B2484616F09BF860699AF800103246C4A3091DC9B216F0FF
:2025300092F8E079401EB84210D15546297860693246C2A3891CC9B216F085F82978606980
:202550003246C3A3491DC9B216F07DF84FF40011F0E06B78002B40F0C380361D3846002299
:20257000BFA3F1B216F06FF80598676906784146102008F0FFFE761C00900022A7A3F1B211
:20259000384616F060F82E1D0020207105F1040CB5F80AE094F807800696B8F1000F10D06F
:2025B000266B0746014642464FF6FF70123E36F8123F984208D0521E07F1120701F10101B4
:2025D000F5D1904E15273CE0A6F800E08846604613F0DCF8B61C01460F2230460EF09EFBCF
:2025F0000798002200FA08F01FFA80FB4846594616F0AAF950460022594616F0A5F94E461F
:20261000DFF8FC9100225946484616F09DF9206B4FEAC8033F18991903EB0A02BF1C794E27
:20263000CF60F088D76003EB0901CF60400904D230461C21002216F087F95FFA88F794F8A7
:2026500007802649102008F095FE804512D807994FF0000840F2053004AA8DF8108009F000
:2026700029FB059960690978B7A34246891CC9B215F0E9FF0599236B097860697A0002EB72
:202690000712491D9B18C9B200229B1C15F0DBFF304615F023F86889276AE081032F16D133
:2026B000069904F22B100A688988026010258180666984F82A5113F069F8009094F9400197
:2026D0000022C9A329460190304615F0BCFF4FF480112FE008020020301C0020F17F01102C
:2026F000361D38460022C7A3F1B215F0ACFF6878009005980678C7A3761D0EE0B0180020BC
:2027100018180020E5794146102008F033FE854205D848460678C9A3B61C676969E0494685
:2027300060690978002245A3891CC9B215F08BFF4FF40021A06917F05FFF0DE20020E07055
:20275000062016F0E1FAE878E063E878E0B12D480221002216F0F8F8079F04F2CC49002647
:202770004FF0190BBA46E878B04214DC0E2E0BDA574607FA06F082B2C048002116F0E4F8B0
:20279000761CF6B20E2EF4DBE878009005980678B5A3361DC1E768684FEAC60808EB0003B9
:2027B0005A780BFB06F101EB09077A7010F808009B1C09F801001968B81C016099888180B3
:2027D00012F0E4FF083701460F2238460EF0A6FAAA484044C760A9480AFA06F3002299B239
:2027F00016F0B2F8771CFEB2BDE7E878361DC4A300900022F1B2384615F025FFACE1C04689
:2028100064180020141A0020B61C38460022CDA3F1B215F018FF4FF480218BE7436F6E6E39
:20283000656374656420746F20256400446973636F6E6E65637465642100C0465265616461
:202850007920746F2041647665727469736500C0526561647920746F205363616E00C046C2
:20287000436F6E6E65637465642100C068892082E81C12F08BFF034631460022384615F04C
:20289000E2FE4E46317860690022B5A3491CC9B215F0D9FE317860690022B5A3091DC9B27F
:2028B00015F0D1FEEF1CCF48396801607E684660079DCD4910202A4608F05CFD04F15F0184
:2028D0004FF441700CF0A0FC4FF0FF3084F82A01284610F095FB04F5A27017F0C5FA3BE15C
:2028F00069782078162939D048462979666900787E2900F104001DD07F2918D01B2939D129
:20291000E9686A8904F190000EF008FA04F1900003C8002299A38DE8030030460C2115F010
:2029300092FEA0694FF4007117F066FE22E0298994A301E0297A97A30091C1B2002230468A
:2029500015F081FE16E0C04643616E2774206164763A206E6F206C696E6B730015F090FCD6
:2029700003460420A14900906A88102008F002FD002872D04146102008F0FCFC002857D0E7
:20299000688815F0DDFD60822A790B2A23D0012A02D1297A0A291ED0132A0DD0012A02D1D1
:2029B000297A122908D0A16B0001085C00283FD0284609F0A1FB3BE0494660690978012A87
:2029D00007D0627977A3521CD2B26271521ED2B228E078A325E0494660690978012A1FD047
:2029F000EA68127877A31DE04E65787420686F7020616464723A2025732C20727373693ADA
:202A100020256400436F6E6E656374204661696C656400C0526561736F6E3A20256400C003
:202A30006CA32A7B0092491D0022C9B215F00BFE297905F1080017F0CFFD8DE043616E2716
:202A50007420416476203A204D617820636F6E6E73207265616368656400079810F06CFCE3
:202A700065630020079077E04465766963657320466F756E6420256400C046C018170020D3
:202A900068780E3844D0801E62D02E3864D1A878266C802860D10A2E5ED0002E05F105095E
:202AB000A0460DDD08F2DA27344648463946062216F0BEF800284FD0641E07F11907F4D12A
:202AD0004A461168192000FB068404F53674A01C016091888180104612F058FE01460F221F
:202AF00004F108000EF01AF9E87AE07595F90C00207628796070771CC8F840702CE0C0464B
:202B1000506172616D2055706461746520256400A88842F2030181421ED1A9680878D8B94C
:202B3000491C02A80A684968026002AF416038782F4902AA00F0FD003870102008F01AFCF8
:202B50000AE0C0464164766572746973696E67000820002107F01AFF079809B0BDE8F08F20
:202B7000436F6E6E656374656420746F203000C0496E697469616C697A65640054323A2049
:202B9000257500C04D54552053697A653A20256400C046C046432056696F6C617465643A56
:202BB0002025640057726974652073656E743A20256400C05772697465204572726F72207F
:202BD000256400C052656164207273703A20256400C046C052656164204572726F72202517
:202BF0006400C0464710002081890100039A010095B400102DE9F04F0F4685B0804617F82E
:202C1000010B8DF800004FF4B07008EB00044FF49C7008EB00059DF800104FF4C67008EB61
:202C30000006182908F1E70A08F1660908F20D1BDFF86C0700F2A183DFE811F01900720016
:202C5000660194009F039F03FD007903140127010101100138019F039F0384019F0368014F
:202C70005C018503E402E40236029F03810217F8010B88F886000222394608F1880017F0EA
:202C9000A7FC0146022208F18A0017F0A1FC0146022208F18C0017F09BFC0146022208F1FD
:202CB0008E0017F095FC074698F88600400088F8860008F1860108F186000222408840000A
:202CD000488008F1860080884000888008F18600008900010881394608F1840017F078FC44
:202CF00008F10601B9F81E004988401A80B247F6FF7188422BDA08F1860008F18601C088D5
:202D10008988401C4900484308F186010989884228BF3B2080F04082012089F81C001CE058
:202D30000522394608F1610017F052FC0146022208F1920017F04CFC08F1860008F106016A
:202D500080894988401A80B247F6FF71884280F2228208F186010120887208F106010020B5
:202D700008834CE29AF81600C0070AD41A208AF80E009AF80D00012808BF0D213FD00D2179
:202D9000D7E1002089F8000089F80600082201208AF81100394608F1B00017F019FC0146DA
:202DB000022208F1B80017F013FC08F1A80401460822204617F00CFC07460821204617F0AA
:202DD00003FC08F19C0404223946204617F000FC0421204617F0F8FB08F1A00017F0F0FB2D
:202DF00008F1980017F0E8FBDFF8B805018841F0800101809AF80D00012806D104214046AE
:202E100005B0BDE8F04F14F0E1BA99F81000012804BF99F811000F280BD1404611F06AFF38
:202E30000421404611F028FC0F2089F81A00FD217FE104217DE101208AF80F00ACE2002087
:202E500089F8000089F806008AF800000B2101208AF80D0000208AF801006AE101208AF86B
:202E7000100099E2002142187B5C547A23437B5452781A4008EB0103491C082983F8FD2019
:202E9000F1DB404611F0D4FA7CE2002142187B5C547A23437B5452781A4008EB0103491CCE
:202EB000082983F8FD20F1DB022053E299F8060008B93D2070E19BF800000128D1D017F8A4
:202ED000010B8BF8030002224FF489703946404417F07EFB01464FF48A700222404417F03A
:202EF00077FB01208BF800009BF8020000281BD10C211EE19AF81600C00601D41220D9E0A9
:202F1000404612F0E3FC3DE2387845E1387820707878607099F8100001280DD199F81100FB
:202F30000F2802D0162803D036E20120687333E2307B40F001001EE205B0BDE8F04F0020A9
:202F500016F0F0B99AF81600810706D41121084201D10F20AEE01A2254E03878797800EBA1
:202F700001202882F978B87800EB012068827979387900EB0120A882F979B87900EB012057
:202F9000E882387A2876B97A787A00EB01206883397BF87A00EB0120A883B97B787B00EBDC
:202FB0000120E883397CF87B00EB01202884B97C787C00EB01206884397DF87C00EB01203E
:202FD000A884B97D787D00EB0120E8844FF4AA7040440490688B0390287E029008F10600E0
:202FF00040880190E88A0090AB8A6A8A298A40460FF0F2FB68B19AF81600400701D40F200C
:2030100058E01E22404605B0BDE8F04F0F2113F095BF688A08F186018880A88AC880E88A1C
:203030000881022088F886000020488008F1060108F10600C08DC01DA9F81E0008F1860080
:20305000898D808888420FD108F1860008F10601C088C98D884207D108F1860008F106015A
:203070000089098E88421DD099F81000012804BF99F811000F2807D099F8150020B10F2086
:2030900089F81A00FE2154E0FC21404611F0F4FAE88A0090AB8A6A8A298A98F8060017F025
:2030B00087FA79E1102144E09AF817000921084203D116208BF80C0061E17978387801F046
:2030D0000701084038700146707B0840F07212D0411E08420DD0400703D5B07B08B104207D
:2030F00003E0F17A0220014201D0F07201E04008F9D1F07A08B9B07AF072F07A042803D1C6
:20311000404612F0AAFCA083F07A17F04DFA3071A28BB17B012313F081FC0146208B88423C
:2031300005D3A28BB17B3079012313F077FC70801721404605B0BDE8F04F11F09DBA78787C
:203150003978814207D100F007000840387034D0421E10420FD01E221821404613F0EEFEA9
:2031700098F80610002300221E200DF05BFB307B40F04000FFE0F072F978B87800EB0120BA
:20319000308108F1060130894988401A80B247F6FF71884206DB28208BF80B0001208BF886
:2031B0000A00F9E00120B071F07A042803D1404612F053FCA083F07A0BE099F81100162841
:2031D00006D1B27A98F80610134600200DF02AFBB07A3071A28BB17B3079012313F01EFC8D
:2031F0000146208B884205D3A28BB17B3079012313F014FC7080307B40F040003073012023
:203210002870C9E03878797800EB01206082F978B87800EB0120E0827979387900EB012010
:203230002082F979B87900EB0120A082A18AE089884288BF0846B17A042904D1B0F5296FAE
:20325000D8BF4FF42960E28BE0839042B07A14BF4FF001094FF00009042803D1404612F043
:20327000FCFB04E0A089E18A884288BF0846A28BA08390422089628A238B14BF01210021F5
:20329000904288BF1046984241EA090114BF0122002242EA01052083A28BB17B307901238D
:2032B00013F0BCFB0146208B884205D3A28BB17B3079012313F0B2FB70806189208A628B69
:2032D000814288BF01466183914214BF0120002005438A42344998F80620096801EB4211CB
:2032F000628B8041121DC00F0A7610B1404614F001FB9DF80000142810D145B1E08B0090A8
:20331000638BA28B218B98F8060017F049F9404605B0BDE8F04F15210EF078BE1DB13078F8
:2033300040F008003070307840F020001BE038780E280ED00F2809D0122804D014280CD0B8
:20335000162812D028E00020287225E00120287322E003208AF815001EE0307840F0020026
:20337000307040F01000307016E0307B40F00200307340F0100030730EE08BF80C10404651
:2033900011F09CFE40B905B0BDE8F04F074800784FF480410CF062B805B0BDE8F08F00BF77
:2033B000882F0020524F0020003000206E4F00202DE9F04F0D4685B0814615F8010B8DF8F6
:2033D00000004FF49E7009EB00064FF4B0709DF8001009EB00044FF4C670891E09EB000777
:2033F000152909F20D1B09F1E70809F1060ADFF8680700F29C83DFE811F00F019A03160087
:20341000440048007A039A03C3009A037D00D600810088001701E901280204018403E80298
:20343000E8022F02A00209F1A00608222946304617F0CEF805460821304617F0C5F809F19B
:20345000980404222946204617F0C2F80421204617F0BAF800214842484409EB010290F80A
:203470009F0082F8BF00491C0829F4DB09F1C702314609F1D70017F08FF8012088F80000C5
:2034900066E3012088F8130062E398F80D1098F81600012900F010000DD130B1002070719D
:2034B00030684108B07910F0C7FD9AF80000002117F06EF811E050B14FF4A17009EB0003D1
:2034D000306842084946DFF8940616F03BFC9AF800000122002117F057F8012089F8660089
:2034F000484613F018F909F166010120887188F80F002DE3012088F8100029E3287888F823
:203510000E00012088F8140022E398F8121001291DD198F8001001294DD098F8161009075C
:2035300004D40E208BF80C00072100E2002142186B5C567A33436B5452781A4009EB010379
:20355000491C082983F8FD20F1DB0921EFE198F81610090758BF0E2058D5002142186B5CED
:20357000567A33436B5452781A4009EB0103491C082983F8FD20F1DB484610F059FFDDE27B
:20359000002142186B5C567A33436B5452781A4009EB0103491C082983F8FD20F1DB02209C
:2035B00088F81500D4E298F81200012804BF98F80000012806D13D208BF80B0001208BF803
:2035D0000A00C5E29BF800000128FAD015F8010B8BF8030002224FF489702946484416F0A4
:2035F000F7FF01464FF48A700222484416F0F0FF01208BF800009BF802000028E1D10C215C
:2036100095E198F81600C00658BF122040F19182484612F05BF991E228788BF80B00F02195
:2036300000208BF80A000AE198F81600810707D41121084208BF0F2000F07B821A22F6E068
:2036500009F16601097C012902BF09F16601497C0F2911D009F16601497D0A0003D009F14C
:203670006602527C22B109F16602127F012A05D1400758BF0F2064D52322D8E021B109F1AE
:203690006601497C012904D009F18601897A012905D1400758BF0F2053D52A22C7E0287824
:2036B000697800EB0120B081E978A87800EB0120F0816979287900EB01203082E979A8791A
:2036D00000EB01207082287A3075A97A687A00EB0120F082297BE87A00EB01203083A97B29
:2036F000687B00EB01207083297CE87B00EB0120B083A97C687C00EB0120F083297DE87CFF
:2037100000EB01203084A97D687D00EB012070844FF4AA7048440490F08A0390307D029005
:20373000BAF802000190708A0090338AF289B18948460FF051F838B198F81600400758BF75
:203750000F2040F1F68171E0F08909F186018880308AC880708A0881022089F88600002061
:20377000488009F16601BAF82E00C01DC88309F18600BAF82C108088884201BF09F1860088
:20379000C088BAF82E10884206D109F18600BAF830100089884217D009F16600407D28B19E
:2037B00009F166010F208876FE21C0E0FC21484610F062FF708A0090338AF289B1899AF812
:2037D000000016F0F5FEC3E10021B0E0A878E97800EB01262879697900EB0124A879E979E2
:2037F00000EB012705F10B000490A3B2687AA97A00EB012080B20390B2B2287A0290BAF89C
:2038100002000190B8B200906978287800EB012081B248460EF0E0FF58B198F816004007EA
:2038300058BF0F208DD5484611F064FA1E220F2134E009F1860000218680C480078148465E
:2038500005B0BDE8F04F13F0C1BD2878207068786070012070727BE198F81700C00758BF7A
:20387000162040F1668109F16600407C16281ABFBA79012A232210D0002818BF01280BD031
:203890000F281EBF09F16600007F01281EBF09F18600807A012807D12A221621484605B0DE
:2038B000BDE8F04F13F04ABB6978287801F0070108402870797B08401CBF411E0842F87288
:2038D0000DD0400703D5B87B08B1042003E0F97A0220014201D0F87201E04008F9D1F87A71
:2038F000B97A884204BF0020F872F87A08B938811CE0BAF82E00C01D3881F87A042803D19E
:20391000484612F0AAF8A0830123F87A3871A28BB97B13F083F80146208B884205D3A28B63
:20393000B97B3879012313F079F878801821484605B0BDE8F04F10F09FBE6978287801F0D3
:20395000070108402870F97A08401CBF411E0842F8720DD0400703D5B87B08B1042003E0D7
:20397000F97A0220014201D0F87201E04008F9D1F87AB97A884204BF0020F872F87A10B93A
:203990003881B87A0BE0BAF82E00C01D3881F87A042803D1484612F060F8A083F87A387133
:2039B000A28BB97B3879012313F038F80146208B884205D3A28BB97B3879012313F02EF89B
:2039D0007880387B40F02000AFE02878697800EB01206082E978A87800EB0120E08269790D
:2039F000287900EB01202082E979A87900EB0120A082A18AE089884288BF0846B97A042964
:203A100004D1B0F5296FD8BF4FF42960E28BE0839042B87A14BF01250025042803D14846A1
:203A300012F01BF804E0A089E18A884288BF0846A28BA083904214BF012100212089628ABD
:203A5000238B2943904288BF1046984214BF0122002242EA01052083A28BB97B38790123D0
:203A700012F0DCFF0146208B884205D3A28BB97B3879012312F0D2FF78806189208A628B43
:203A9000814288BF01466183914214BF0120002005438A4232499AF80020096801EB421109
:203AB000628B8041121DC00F0A7610B1484613F021FF9DF80000142810D145B1E08B0090B5
:203AD000638BA28B218B9AF8000016F069FD484605B0BDE8F04F15210EF098BA1DB13878E6
:203AF00040F008003870387840F0200015E028780F2809D0122804D0142808D016280ED0F3
:203B100026E00020307123E00120307220E0387840F00200387040F01000387018E0387BEB
:203B300040F00200387340F01000387310E09DF800008BF80C00484611F0C0FA40B905B0A2
:203B5000BDE8F04F074800784FF480410BF086BC05B0BDE8F08F00BF882F0020B92D010013
:203B7000003000206E4F00202DE9F04FDFF800B5DFF800659BF800001E25082887B000F2BC
:203B90006E82DFE810F072020900090009000900F000860172027202DFF8DC44DFF8DC9429
:203BB0002068DFF8DC84006800F10807062207F1080102A815F076FD0622B91C684615F0D3
:203BD00071FD3978C1F380108DF8140001F00F02C809032A35D16179C1F38001884239D1F0
:203BF0002169062202A815F0C1F900283AD09DF81400694616F0C4FC002833D031466846FA
:203C100014F0B3FAFF282DD0D8F80010897A684335180A0018BF02290AD0012918BF0329D1
:203C300018D1325C691C484616F0A6FC102819D06A46E91D484610F05DFC06226946E81DA8
:203C500006E201F00F01052940F00F826179C1F38001884240F0FE812169062202A815F093
:203C700085F9002800F0F681387847099DF81400694616F085FC40F2024A70B33146684682
:203C900014F073FA8346BBF1FF0F6BD005FB0BF031180491D8F80010897A0A0018BF01291E
:203CB0000BD0022918BF03295CD1325C0498411C484616F061FC102854D0504616F058FCFA
:203CD0000498C11D6A46484610F014FC049806226946C01D15F0E6FC1DE09BF8000002281B
:203CF00040D19DF814106A46304610F0A6FA8346BBF1FF0F36D005FB0BF03044417F012942
:203D100006D000292ED10D3016F02EFC002829D0504616F02DFC05FB0BF0D8F80020315CCA
:203D300091763044411CD8F800000622143015F0B9FCD449D4488978490604D5F90758BF2C
:203D500041F20A4101D541F20441418041834186CE480180CE49CF4808600121CE4800785E
:203D70000BF07CFB76E1CD4C2068006800F108070F21387808421CBF00F00F01062906D057
:203D900002291CBF00F00F00012840F06E810622B91C02A815F086FC3878DFF80493C0F3C7
:203DB000801800F00F0001283FD1062207F10801684615F077FC3878C7096946384616F021
:203DD000DFFBE8B1D9F80000807C022818BF03285ED106F10D01684616F0C2FB002857D073
:203DF000D9F800100120C8720622607940F0040060716946D9F800000C3015F053FC14E06D
:203E10003078874211D10622711C684615F0AEF858B13078617960F3820161710622D9F805
:203E30000000711C0C3015F03DFC02A9404616F0A7FB00282CD0606902A9001F13F01AFBC3
:203E5000002825D1314602A814F08FF9FF281FD0D9F80010897C684335180A0018BF022987
:203E70000BD0012918BF032912D1325C6069691C001F16F081FB10280AD0606902AAE91D3D
:203E9000001F10F037FB062202A9E81D15F00AFCEBE0844C2068006800F108070F21387873
:203EB00008421CBF00F00F00012874D10622B91C02A815F0F7FB3878DFF8EC91C0F3801873
:203ED00000F00F00012846D1062207F10801684615F0E8FB3878C7096946384616F050FBD6
:203EF00020B3D9F80000C07A022818BF032852D106F10D0016F038FB00284CD106F10D01FE
:203F1000684616F02DFB002830D0D9F80000062269460C3015F0C6FB607940F00400607105
:203F300006226946F01D15F0BDFB14E03078874211D10622711C684615F018F858B1307860
:203F5000617960F3820161710622D9F80000711C0C3015F0A7FB02A9404616F011FB0028FB
:203F70004AD0314602A814F000F9FF2872D005FB00F7D9F80000817AF51959BB807C15F0AA
:203F9000BFFC814699F82E01022811BF0328F15D00F0010081425DD14FF4947009EB000639
:203FB00006223146681C14F0E1FF30B9062231463E4814F0DBFF00284CD0012089F82E01E9
:203FD0000622607940F00800607102A9304615F069FB0DE02069F25D691C001F16F0CCFA08
:203FF000102837D0206902AAE91D001F10F082FA062202A9E81D2BE0D9F80000817A49BBE9
:20401000807C15F07DFC074697F82E01022818BF03281FD102AA4146304610F00EF9FF2818
:2040300018D06843351805F10D0016F09DFA10B9687F01280ED187F82E810622607900F019
:20405000F70040EAC800607102A94FF49470384415F028FB216809680020087105E0002068
:2040700015F060F9862016F077FA07B0BDE8F08F6F4F002058240020F44B0020CC470020CE
:20409000104F0020882F0020204A0020504F0020204F0020C14000006E4F0020D04B0020C9
:2040B00004300020AC4B0020184F0020A4B501002DE9F84F012013F06BFC01280ED1DFF8DD
:2040D000E454296800204871286812F059FA05F049FB040003D1812016F03EFA5DE20120F9
:2040F0006071DFF8C464DFF8C4044178491C41702968A07981F8A00040200EF0CDFE206006
:20411000307901281CBF002015F00CF9F0682168DFF89C6400F5B060C8603068006800795A
:2041300003281CBF002015F0FDF83068DFF88494006800F1080A4FF4977004EB00089AF88A
:204150000000C0F3801088F8000006224FF494700AF10201204415F0A5FA04220AF10E01E7
:2041700004F1240015F09EFAD9F80000A37900EB431004220AF10E010C3015F093FAD9F87F
:204190000000A37900EB431003220AF11201103015F088FA04F12C079AF81500B8700222A0
:2041B0000AF1160104F1300015F07CFA02220AF1180104F1320015F075FA02220AF11A0130
:2041D00004F1340015F06EFA3889608402220AF11C0104F1360015F065FAB8787989400057
:2041F000B8700901B88879814000B88089B2F8884000F88080B2628C521C43005A438A421E
:2042100000D238B9DFF8B003007880210BF026F93B21F5E004F12E01204614F023FE052009
:20423000A081204614F0FCFF05220AF11E0104F1610015F037FA9AF823004009387016F06F
:2042500087F960822968DD4D498A401AA8F80C0004F161019AF82300DFF864A300F01F005F
:20427000F873204612F0FAFB31680968002008711C26A1792868714341F621024252002213
:20429000A179714301444A80A1797143084442609AF80200400609D5CA48008841F20A41A5
:2042B00088420CBFC848C948C4F89C012046D4F89C118847A2792968724311448873A17966
:2042D0002868714308440021C173C148007870B1B88860B978730120208160812046D4F82E
:2042F0009C118847A2792968724311448873A179286871430844807B787394F8960108B90D
:2043100015F010F8A1792868DFF8C8B27143084494F89611491E01740022A17928687143F6
:20433000084400214174A0792968704308444282A279D9F8000000EB421372430A445361FB
:20435000A27972431144A44A8A61DBF8141091F800C094F806E05FEACC714CBF10210021BA
:204370005FEA8C724CBF202200225FEA4C734CBF402300235FEA0C7C4CBF4FF0800C4FF0F8
:20439000000C1143194300EB4E104CEA010141F00F010172D9F80000A17900EB41100B21C9
:2043B0004172D9F80000A17900EB411004218172D9F80000A17900EB411088490978012958
:2043D0001CBFDBF828104978C172D9F80000A17900EB41101F210176D9F80000A17900EB3F
:2043F000411000214176A0790BF0E2FFA279D9F8001052018850A0794201895821B9072129
:20441000204614F0D8FCC8E07549096801EB001016F09AF8724AA1791268D9F8000002EBD5
:20443000011200EB41114A60A17900EB41114968F963A17949014058786404215E480078F3
:204450000BF00CF86249B888097800F1020E19B110B9F88800F1020E608A00FB0EF04FF4A6
:20447000C871B0FBF1F0401CC4F818E0606140F6C41394F806C02968226806FB0CFC8C4443
:20449000CDF800C0D2F80CC003FB0ECCACEB0000A0F5A86C0098C0F808C0A07970430844A9
:2044B00080689060A07970430844017B01F0EF010173A179286871430844017B01F07F0194
:2044D0000173A179286871430844017B01F0F00141F002010173A179286871430844417B42
:2044F00001F0F00141F001014173A1792868714308442168806808616269D9F80000A179A9
:2045100097F802C0520000EB411103FB0C2202F5F6624A61A17900EB4110C17C01F0F00110
:2045300041F00401C174FA88D9F80000A1795A43DBF830301B6800EB4111D21AA2F51672F8
:20455000CA61A17900EB4110C17E01F0F00141F00401C176A1792868714308442168486061
:204570009AF80100800615D5B8F83A001B2804BFB8F83C001B2809D1B8F83E00B0F5A47F79
:2045900004BFB4F86E01B0F5A47F03D01421204610F072F8134907200870BDE8F14F00F0BD
:2045B0002DBD00BF104F0020B44D0020684E0020F44B0020003000206E4F0020FC2F0020F5
:2045D000882F0020504F0020A747010065550100784E002048B501005C4D0020734F0020FC
:2045F0008C4E00206F4F00202DE9F84F5FEA000A27D1002014F096FE23E050460FF0B7FD27
:2046100062E2317C012940F07E80C078002877D098F80000400088F80000B8F80200400058
:20463000A8F80200B8F804004000A8F80400B8F808000001A8F8080001203077504610F071
:2046500059FB0AF16606707D002800F064824FF489700AEB00094FF4A2700AEB0004717C2F
:204670004FF4C6700AEB000B00290AF186080AF1EC050AF10607DFF8A404C2D0012946D0BA
:20469000022931D0032957D0062900F0A480072900F01E82082900F0F180092900F00F8144
:2046B0000A2900F0B3800B2900F0CA800C2900F013810F2900F04981112900F06A8112292B
:2046D00000F03881142900F0CE81162900F06C81182900F09D81F02900F00082FC2926D094
:2046F000FE2900F0048284E7317C012985D1C078002800F08281504610F0FCFA1621F1E18D
:20471000B888F18B10E050460DF0C0F9DCE1317C01290DD1C07800281CBF012088F80A0039
:204730008CD1B888B8F80C10884200F09581F1E150460EF018FDC7E1317C012941D180782C
:2047500050B10020B071A078012805D10020A070002150460FF090FFA87B01280AD1002034
:20477000286068600621012088F80E00504612F02DFE66E7E87B012818D1504610F0BAFA34
:20479000002088F80E0001203070504611F0C3FF0120B07100206873697A387806291ABF69
:2047B00000221A21002215F0EFFE4AE799F8050001286FD0308B401E308380B200284CD007
:2047D000A8E150460CF038FE3074F08A30830020A873E8739FE1307C01280ED1A87A012892
:2047F0001FD1504610F086FA002028722873E872A873A872E873687323E7504610F086FD66
:204810003074F08A30830020A87284E1307C01280DD1E87A012802BF002088F80E000B213F
:20483000A4D0308B401E308380B2B0B172E1504610F0B9FE3074F08A30830020E8726AE15F
:20485000317C012916D1807808B103218EE7308B401E308380B20028E8D1297A38780129E4
:2048700003D1222115F094FE29E10022222115F08BFE24E150460FF073FA25E1307C01289B
:2048900014D1287C02280AF1FD0204D13978002015F056FED2E6308B401E308380B200287E
:2048B0000CD13978222015F04BFE08E150460EF0D9FF3074F08A3083012028742AE1317C2F
:2048D000012905D1807810B1B88B3883B6E694E050460FF0ADFDF7E0307C01280AF20D11FC
:2048F00021D1087801280DD14878012809D1B9F8020000900020CA78B9F80030397815F030
:204910001BFE9BE6308B401E308380B2002810D1B9F8020000902220CA78B9F8003039788D
:2049300015F00AFECBE00120887050460EF056FC3074EFE0317C012903D180780028E0D1C1
:204950005BE0504610F09AFFBEE0307C01281CD16078012809D1207F0F281CBF002014F0CD
:20497000E1FC00206070002100E7A078012806D10020A0702322504612F0E0FA61E6207874
:2049900001283AD100202070EDE750460BF058FE9AE0317C012903D1C078002821D12CE0E5
:2049B00050460FF076FD8FE0307C01282CD19BF80C00810648BF1821D6D4C10712D5207F40
:2049D00016281CBF002014F0ADFC9BF80C0000F0FE008BF80C0000233978607F00220BF0F5
:2049F00021FF2BE6810708D500F0FD008BF80C000023397800221A20F1E7308B401E3083C1
:204A100080B200285BD085E050460BF067F85BE0317C012922D1C078C0B19BF80C009BF8CC
:204A30000B1059B9810610D500F0DF008BF80C0000209BF80A2039781346D0E700F0DF0002
:204A50008BF80C0001208BF80600F7E57988BBF80800491C88425DD1282143E018215046DD
:204A70000BF03CF830E0307C01282AD19BF800004FF4B3710AEB0105810614D500F0DF00E3
:204A900001078BF800000BD500F0F7008BF80000288B0090AB8AEA8A698A387815F080FD20
:204AB00000202870CAE5810704D500F0FD008BF80000F5E7308B401E308380B250BB222186
:204AD00010E050460DF0A2FA3074F08A308321E0504610F0F3FA0128E4D01BE0407AD0B13F
:204AF00099F80610504614F066F9012013E0B07E0F280CD1FC21504612F068FC608900901E
:204B10002389E288A188387815F052FD02E0002014F008FC0020BDE8F28F00BF5C4D00206A
:204B30002DE9F0475FEA000882B00BD1002014F0F9FB07E0404610F0C1FA012864D1404695
:204B500010F0D8F808F16605687D00285CD04FF49E7008EB00044FF4B070697CDFF894A439
:204B700008EB00094FF4C670022908F1EC07404408F1060635D0042949D005295FD0062939
:204B900000F08E800729D5D0092900F0F4800B2900F0C6800C2900F026810D2900F0D580EB
:204BB0000E2900F0F6800F2900F05D81102900F07881112900F09681122900F041811429B5
:204BD00000F0D681162900F09781172900F0C381FC2919D0FD2900F0F481FE2900F0F6819C
:204BF000A4E7287C012809D19AF80300002814D01621404614F0DFF8012006E040460FF0AE
:204C1000B6FA2874E88A28830020BDE8F687287C012810D19AF80200002800F01881FC21C9
:204C3000404612F0D3FB307808F1B80208F1B00115F07EFC86E740460CF04EFEE1E7287CE3
:204C5000012810D19AF8020028B1012088F89400002038607860B87A012869D106214046C6
:204C700012F0B4FB6EE708F1E7063078012809D1404612F0ADFA0128C6D10020B872012033
:204C90002874C1E770780028BED008F1C70208F1A00108F1D70015F07FFC0120307051E77D
:204CB000287C012838D19AF80200002840D0B08B3083404610F01EF801202870404611F078
:204CD0002AFD0120A871397A787C012900F010000CD130B10020607120684108A0790FF0FA
:204CF000ABF93078002115F053FC0FE048B14FF4A17008EB0003206842084146BE4815F04D
:204D100021F830780122002115F03EFC002038723873F872B87215E7404610F0F7FA70E76C
:204D3000287C012805D1F87A012808BFFC2196D08DE040460FF014F8012853D10020F87206
:204D500088F8940001202874FCE6287C01280ED19AF80200002809D0002088F894000120FA
:204D70002870404611F0D7FC0120A871BDE0404611F094FE45E7287C012806D19AF80200DD
:204D900000281CBFB08B3083A6E040460FF050FB37E7287C01281DD1387C022808F1FD020D
:204DB00004D13178002015F0CBFBC8E6032806D131781A2015F0C4FB00203874BFE6288BFF
:204DD000411E298389B200290CD13178222015F0B7FB42E040460EF045FD2874E88A288334
:204DF0000120387410E7297C012908F20D1021D14FF4897108EB0102017801290BD141789C
:204E1000012907D1518800911388C2783178002015F092FB93E6298B491E298389B2002942
:204E3000E0D1518800911388C2783178222015F083FB12E00121817040460EF0CFF9E0E6ED
:204E5000287C01280BD19AF802000028E2D1288B401E288380B20028C4D12221C9E6404607
:204E700010F00CFDCDE6287C012816D1607A012803D199F800000F281CE0207A012829D15A
:204E900000202072288D00090090A88CEB8C317842081A2015F048FB51E640460BF0D0FB5F
:204EB000AFE6287C012819D1607A012812D199F8000010281CBF002014F034FA00206072C8
:204ED000288D00090090A88CEB8C3178420899F80100DFE7287F0028DED1B8E740460BF0E0
:204EF00000FC8EE6287C012802D19AF80300F2E740460FF0CEFA84E6297C012926D1017B2B
:204F10004A062ED4CA070AD501F0FE0101730023317899F8010000220BF084FC0FE68A079A
:204F300007D501F0FD0101730023317800221A20F2E7288B411E298389B2002955D1317830
:204F50000023002222200BF06DFC86E7162140460AF0C4FD55E6297C012907D1017B4906C4
:204F7000BBD5017B01F0BF010173E8E51721EEE7297C012920D101788A0617D501F0DF0190
:204F90000A0701700ED501F0F7010170B9F81E000090B9F81A30B9F81C20B9F8181030787A
:204FB00015F0FEFA002089F80600C8E58A0794D501F0FD010170F5E7142140460DF026F884
:204FD0001FE6A97E404612F001FABBE6A87E0F280CD1FC21404612F0F9F9608A0090238A79
:204FF000E289A189307815F0E3FA0DE6002014F099F909E65C4D0020B92D01002DE9FE4FD7
:20501000DFF85084D8F80400009018B9BDE8F74F15F086BA0078DFF84094DFF840A4DFF8BB
:20503000404401281CBF0228042846F2A81741F64C5B05D0402818BF802800F0F98001E2A5
:2050500014F032FE0028FAD00098007807F08AFE05466E6816B9002014F064F9DFF804043B
:205070004078002800F0A58004F084FA14F048FC0190006802900146476828460BF080FF08
:2050900002286FD02978012904D0022927D0042945D0D7E1DFF8D0130968097A1AF801100B
:2050B000217018B915F038FA5844B0603069C17E01F0EF01C1763069C17E41F08001C176EA
:2050D0003069C17E01F0F00141F00201C176B868DFF8981308183169C8610120A4E005214B
:2050F000217018B915F018FA5844B0603069C17E01F0EF01C1763069C17E41F08001C176CA
:205110003069C17E01F0F00141F00201C176B868DFF85813081831690862022084E0062127
:20513000217018B915F0F8F95844B060D0480068807C12F067F93069C17E01F0EF01C1768D
:205150003069C17E41F08001C1763069C17E01F0F00141F00201C176B868C4490818316972
:20517000086260E002980078802811D108202070C0480078012803D0BA484078022801DBE5
:20519000012002E0D9F8280000787969C8720AE00720B84920700978786901291CBFD9F895
:2051B00028104978C1720198AE4980798870029844E1002D18D000992878A9420ED1401EFD
:2051D000012833D9C01E05D1A9480068807C12F019F92BE0002014F0A5F827E0012804D09D
:2051F000022815D0042817D02CE19F480068007A1AF80000207015F08FF93918B06815F00A
:2052100087F918B915F088F95844B06001200BE005202070022007E0062020709448006837
:20523000807C12F0EFF8042088F80200284605E18C484078002800F0B68004F09BF914F019
:205250005FFB00900068019045688648807814F057FB029014F02EFD0721084278D098F887
:20527000020007F07FFD0646019977680BF088FE02286DD03178012904D0022924D0042909
:2052900040D062E078490968097A1AF80110217018B915F041F95844B8603869C17E01F0AE
:2052B000EF01C1763869C17E41F08001C1763869C17E01F0F00141F00201C176A8686B49FD
:2052D00008183969C86192E00521217018B915F023F95844B8603869C17E01F0EF01C1760C
:2052F0003869C17E41F08001C1763869C17E01F0F00141F00201C176A8685C490818396931
:20531000086283E00621217018B915F005F95844B86057480068807C12F074F83869C17E1F
:2053300001F0EF01C1763869C17E41F08001C1763869C17E01F0F00141F00201C176A8683F
:205350004A4908183969086274E0002013F0EAFF02980099884224D001980078802811D192
:205370000820207043480078012803D03D484078022801DB012002E0D9F8280000786969DD
:20539000C8720AE007203B4920700978686901291CBFD9F828104978C1720098314980793F
:2053B000887001984AE014F085FC072108424ED098F8020007F0D6FC0646307875680128B8
:2053D00004D0022815D0042822D040E026480068007A1AF80000207015F09EF83918A868AE
:2053F00015F096F818B915F097F85844A860012021E00520207015F08FF83918A86815F038
:2054100087F818B915F088F85844A860022012E00620207015F080F83918A86815F078F8E6
:2054300018B915F079F85844A86011480068807C11F0E8FF042088F802003046BDE8FE4FBE
:2054500009F0A8BDBDE8FE4F002013F06BBFBDE8F78F00BFCC2F002048B50100289A0110C9
:205470006F4F0020684E0020104F0020F0D8FFFF184F0020734F00202DE9F04F0C46E0072C
:2054900089B00DD514F046FA38B100218160DFF800040068010018BF804784F00100F4E186
:2054B0001E252007DFF8EC6340F18A80DFF8E8030068807C14F024FA07464FF4947097F8A6
:2054D0002E8107EB0009002007908246DFF8C8030068807CFF2804BF002013F023FF4A46CE
:2054F000414630460EF0A9FE834605FB0BF0009035184946404615F043F8B0B1BBF1FF0FE9
:205510002CD00098305C40F00208E81D079005F1010908F0010087F82E0106224FF494706F
:205530004946384414F0BEF818E04946404614F079F9002818BFBBF1FF0F0FD005F10D0078
:2055500015F012F840B905F10D0015F00DF8002804BF687F012801D148F00208CE48006899
:20557000C07A022818BF032806D106F10D0014F0FBFF08B906F1070A0020BD1D06904346FA
:20559000288E000905900022E88D0490A88DCDF804A040080390CDF800900798029000205D
:2055B000297814F0B1FFD7F89C01BC49884228780CBF002101210CF0E5FC84F0080064E1FF
:2055D000E00610D500200690059004900390029001900090002300220021022014F094FFAC
:2055F00084F0100051E1A00710D500200690059004900390029001900090002301220021CD
:205610003C2014F081FF84F002003EE16007A44F40F1A180A34880784FF00008CDF81C80CE
:20563000FF2804BF002013F07DFE386890F8A00014F066F981464FF4947009EB000B3868FA
:20565000C07A99F82EA1022818BF032806D106F10D0014F089FF08B9F01D07905946504673
:2056700014F08EFF90B33868807A010018BF012804D13146584612F078FD04E05A4651462F
:2056900030460EF0DAFDFF283ED005FB00F806EB080506225946E81D14F004F816F80800A2
:2056B00040F0020A3868807E00F0010089F82E010622386800F114014FF49470484413F0BB
:2056D000F1FF05F1010B05F107081DE05946504614F0A8F8C0B15A46514630460EF0ADFD27
:2056F000FF2811D06843351805F10D0014F03CFF40B905F10D0014F037FF002804BF687F50
:20571000012801D14AF0020A09F12C0009F106050178069153464189090905910122A98B9B
:205730000491C088CDF8088040080390CDF800B0079801900020297814F0E6FED9F89C0198
:205750005649884228780CBF002101210CF01AFC84F0040099E0200610D5002006900590C9
:20577000049003900290019000900023012200213B2014F0C9FE84F0800086E0E0043BD564
:20579000F11D06F10D0014F0BBFE38684179012923D1017A012918BF04291ED1C17A0229B4
:2057B00018BF032919D1817E00F1140230460EF044FDFF2811D06843351805F10D0014F02A
:2057D000D3FE50B9E91D05F10D0014F099FE38680622E91D143013F065FF33484268334822
:2057F00000784FF4805110F031FF10B18E2014F083FE84F4805048E0A00505D514F02AFAD2
:205810002B4901200860FEE7600504D509F0C3FD84F4806039E0600405D5812014F06CFEE1
:2058300084F4804031E0A0042ED5224D286810B1002013F077FD4FF0FF3028600FF0C2F862
:205850001D4D296820316846096888471B4841682D681B4A00916B46816801910021029187
:20587000016909680391017B00688DF81010ADF812002D6813491448A8471449086004F074
:20589000E3FD84F4005000E0002009B0BDE8F08F204F002058240020184F0020A7470100D2
:2058B000104F0020684E0020784E00206E4F0020FC002043044F0020F04E0020001A002056
:2058D0002C2F0020501C0020002C0020EC4E00202DE9F043DFF8AC43DFF8AC3394F800803A
:2058F000DFF8A8E3DFF8A893DFF8A863DFF8A813B8F10D0F83B0404641F2064741F202423B
:205910004FF4A05553D8DFE818F0BB010E000E000E000E006D00A500E9001D015F015F0178
:20593000900190019701DFF87413DFF87473C3F800E041F2044E4C8874451CBFB1F81A80B6
:20595000F0450BD0B1F83290F1451CBF41F20A4E744503D0F04518BFF14502D1A6F800E001
:205970002AE0022CDFF83C73348036D94FF4806CB4EB0C041CD0241F012C1FD94FF47F7C26
:20599000B4EB0C041CD04FF4406CB4EB0C040FD0A41E012C0CD9241F0AD0641E012C0DD959
:2059B00040F2F930241A012C17D9241F08D05FE1022814BF3580BC4F1F60FDE0BB4FFBE7C1
:2059D000BB480068007A012803D14A804A834A86F2E74D804D834D86EEE7002013F0A2FC8F
:2059F000832049E1B348418831800229C3F800E014D940F20442891A2AD0491E0ED040F216
:205A1000FB32891A1DD00A3901291AD940F6F632891A03D0491E1BD0491E012940F2C6802A
:205A3000091F15D0491EF9D0491E11D04FF47E72891AF3D0491E0BD0C91E09D0491E0129A5
:205A500047D8817B478025290CBF2721491E817399483CE09948418831800229C3F800E07A
:205A700068D940F20442891A30D0491E62D040F2FB32891A23D00A39012920D940F6F63268
:205A9000891A57D0491E21D0491E012952D9891E13D0891E1AD0491E4CD0491E16D0891E86
:205AB0000BD040F2F632891A44D0491E0ED0C91E0CD0491E012902D90BE0814807E0817BDF
:205AD000478025290CBF2721491E81737D48186072E0002013F026FC84206BE099F80200DD
:205AF000FF2855D07849C3F800E01C2209685043084440F204444188744A3180091B012960
:205B100046D94FF47F74091B15D00A39012916D940F6F634091B032984BF491F01290FD94E
:205B3000891E012934D940F2FD34091B08D0491E012904D93AE041F20141418000E04580B5
:205B50001A6039E099F80200FF2821D05E49C3F800E01C240968604308445D4C41883180F2
:205B700040F20446891B012912D94FF47F76891B17D00A39012916D940F6F636891B13D0D8
:205B9000891E012984BFC91E01290DD9891E012976D940F2FD36891B06D0491E012902D97F
:205BB00004E0428000E045801C6005E0002013F0B9FB852014F0D0FC03B0BDE8F0434548C5
:205BD0000078012109F04ABC4A88328040F20443D21A55D040F6FC73D21A15D0083A4FD037
:205BF0004FF47F73D21A22D13B4C3C4A24683C4800680023CDE9002308343A4B246802228F
:205C1000A047394908803BE0092810D137480068408960B1364800780EF002FF002100205F
:205C300014F066FC002020702AE048883080002013F078FB85201FE04A883280022A0DD9E4
:205C500040F20440121A1BD040F6FC70121A05D0083A15D04FF47F70121AE8D1887B801C27
:205C7000C0B2B528A8BF662088730020488007E0002013F057FB8420BDE8FE4314F06CBCE3
:205C9000BDE8F7836F4F0020204F00203D9E0100684E0020504F00206C2F0020204A0020B2
:205CB000C140000039D5000039FA0000755B0110104F00209C4C0020F11D01006C4C002043
:205CD00029610000E1290100FC2F00205D850000C9B900006E4F0020F04E002002000080B3
:205CF000EC4E0020ED6A0100424F002008300020714F00202DE9F84FDFF8F443A078FF284F
:205D100004BF002013F00EFBA07813F0F9FD04464FF4C97004F1680625183068006804F118
:205D3000900708B100200EE0B07B002804BFB07E002809D13878002801BF28780028207FB0
:205D5000012801D1608CE0832089E18B0818401C6081204612F0DCFE01281EBFE54800788A
:205D7000012804D10020E0832089401C6081B07E01280CD1B28B6189208914F0B5FB30B113
:205D900021896289481C82422AD0B28B1FE0387801280CD17A886189208914F0A5FB30B130
:205DB00021896289481C82421AD07A880FE02878012815D16A886189208914F095FB00284B
:205DD0001FBF2189481C6289824209D06A88824206D0501E608180B214F082FB401EE083F0
:205DF0002878012801BF68882189491C884207D16A792A71002028701346A1790AF012FDB7
:205E10004FF49A702044007920B10020E0832089401C608104F12E07B07E012801BFB08B92
:205E30002189491C884237D1608104F18601204613F018F8B08CE189608400202077E083F7
:205E500060890818A0812189B08B14F049FBB988328C01FB0028708CF28C884204BF3B89ED
:205E70009A4202BFB18CFB88994207D0110900914208B38CA179002014F056FBB07F387069
:205E9000708CB880B08CF880F08C3881204613F0C7F90220B07601E0B7F80480E08BDFF80E
:205EB0005892411C01FB08F140F6C41808FB01F200922268DDF800C0D3686344DFF83CC226
:205ED000D360DCF800C08E4A9CF800C013884FEA9C1CBCF1030F12D199F80FC05FEACC7CA0
:205EF00048BF00230BD45B1C9BB2012B07D14FF49A7CA444BCF806C00CF2DC5C01E0B4F843
:205F100012C00CFB01FC4FF4C87EBCFBFEFCDFF8F4A10CF1010CC4F814C04FF01C0B138062
:205F300084F82000A161A279DAF800102068C3680BFB02F20A4492680261A279D4F814C0A3
:205F50000BFB02F20A44A3EB0C039360A2790BFB02F20A4492688260A0790BFB00F00844BF
:205F7000017B01F0F00141F002010173A179DAF800000BFB01F1084400214180287908B997
:205F900013F0D0F9A179DAF800000BFB01F10844297949080174A179DAF800000BFB01F1A9
:205FB0000844002141742879042812D1A179DAF800002A7A0BFB01F10844017C41EA820100
:205FD0000174A179DAF800000BFB01F10844202141740022A079DAF800100BFB00F00844B7
:205FF00042824948A2790068D4F814C000EB4212536903EB4C035361B27E022A07D1A279DE
:206010003E7800EB4212536908FB0633536199F80F20D20740D5A2790BFB02F20A449368C3
:20603000A3F5A8639360A2790BFB02F21144226889689160009BC91A1161A17900EB41119D
:206050004A6902F5F6624A612979042906D1A17900EB41114A6902F5B0624A61A17900EB1A
:2060700041114969C4F8341128490D6BBB88A2792D6808FB03F300EB42125B1BA3F5167360
:20609000D361A27900EB4210214A1278012A0EBF0121896A497818E0A279297900EB4212AD
:2060B000042952690CBF4FF44B614FF4E661511ABA8808FB02F2A2F516729142D4D308213E
:2060D000204612F078FE01200FE0C172A179DAF800000BFB01F108442168486007200D49B1
:2060F0000870204610F019FE0020BDE8F28F00BF684E0020784F00205C4D0020084F002099
:2061100020300020FC2F00200030002048B50100734F00206F4F00202DE9F84FDA4DDFF84B
:206130006C832868DA4F807CDFF8689313F0E8FB296804460020487104F12E0A286810F082
:206150001FFA012060711C2598F80100401C88F8010080200CF0A0FE20607969C160CE48A2
:2061700001894900AAF802105146C07940008AF80000BAF804004000AAF80400BAF80800A0
:206190000001AAF80800204612F06CFE0520A081204613F045F8386814F09EF9062210F81B
:2061B000081FC1F3801184F82E11811C4FF49470204413F077FA3968B84F0968002008713A
:2061D00041F62202A1793868694342520022A179694301444A80A17969430844426099F81E
:2061F0000200400609D5AE48008841F20A4188420CBFAC48AC48C4F89C012046D4F89C11B8
:206210008847A27939686A4311448873A1793868694308440021C173A1793868694308442D
:20623000807B8AF80B0094F8960108B913F07AF8A17938689D4E6943084494F89611491E36
:2062500001740022A17938686943084400214174A1793868694301444A82A179326802EBF7
:206270004112694301444A61A1796943084490498161A0790AF09CF8A279316852018850CC
:20629000A07940010A5822B90721204612F093FDF5E008441F2202763068A179DFF814B20E
:2062B00000EB411000214176DBF80000A17900EB011014F049F9A179DBF800203068DFF80F
:2062D000F8B102EB011200EB41114A6004F16801A27900EB421252680A60A27952018258FA
:2062F0008A60DBF8141091F800C094F806E05FEACC714CBF102100215FEA8C724CBF20227B
:2063100000225FEA4C734CBF402300235FEA0C7C4CBF4FF0800C4FF0000C1143194300EB25
:206330004E104CEA010141F00F0101723068A17900EB41100B2141723068A17900EB411048
:20635000042181723068A17900EB41105B49097801291CBFDBF828100978C1723068A1798C
:20637000626A00EB4111CA60A17900EB4110A16A01743068A17900EB4110A16A090A417443
:206390003068A17900EB4110A16A090C817408214B48007809F062F82168A2793868CB68EC
:2063B0006A4302449360CA680A61CA688A60A17969430844017B01F0EF010173A179386891
:2063D00069430844017B01F07F010173A179386869430844017B01F0F00141F0020101739C
:2063F000A179386869430844417B01F0F00141F0010140F6C4134173BAF804203068A179C1
:206410005A43DBF830301B6800EB4111D21AA2F516724A61A17900EB4110C17C01F0F001B1
:2064300041F00401C174A1793868694308442168486099F8010080061BD54FF49770204448
:20645000408F1B2801BF4FF497702018808F1B280BD14FF497702044C08FB0F5A47F04BF22
:20647000B4F86E01B0F5A47F03D0142120460EF003F9144908200870A07988F80200BDE884
:20649000F14FFEF7BBBD00BF184F0020684E0020AC4B0020882F0020844C0020FC2F0020FA
:2064B000504F0020A747010065550100003000205C4D00208C4E002048B50100734F002070
:2064D0006E4F00206F4F00202DE9F04F0F46BD4C0168616241688068ADF1140DA060BA48C0
:2064F00061608047B948616A01606168DFF8FC924160A168DFF8F0828160B549002FA246C0
:20651000C16068D03D68E8788DF8080028798DF8090002A813F0DCFFA86808B1AD490160A9
:20653000E86808B1AC490160AC4C2878207068786070A878BE68A0703178E1707368636026
:2065500072696261B168A160F168E160316921612E697B68A6621868A0616869E062A86996
:206570002063287F84F834002A6AA263786886681EB9002012F0D6FE00E026627868C0688D
:2065900018B9002012F0CEFE00E060627868406818B9002012F0C6FE00E0E0612869A06297
:2065B000F86881680E6806B98E4E8D494FF0010B4E60C66881F801B026B9002012F0B2FE99
:2065D000F86801E041460E6000684D46FE68A8617068E86105E0002012F0A4FE4FF0010BF6
:2065F0004D46D8F80000824944686A1C05F114035020A04718B1D8F8000080688047DAF8AD
:206610000400804703907B487C4C286100272771B946E770784EA770300BC6B2401CC1B284
:2066300026703846617028E0304639466A46042311F02EFB009BA078B3F5801F0ED043B993
:20665000B9F1000F03D048460FF03EFEA078B14610E030460FF038FEA0780BE0002804BF3D
:20667000301CA67006D00FF02FFE30460FF02CFEA77038466178761CF6B2B142D4DA98B96D
:20669000B9F1000F08D1207812F0E4FA0420E08020793946A0B912E084F8029011F078FC76
:2066B000484607F03DFE07E0B9F1000F02D048460FF00AFE11F06CFC2079394600B959462A
:2066D000081C02D1384612F02DFE3C464C4ED8F80000B4608069AC60804770604948478024
:2066F00080F800B0142013F0FBF9FF211422A86213F0C2FBE81CFF21022213F0BDFB1420E0
:2067100013F0EEF94049086008681422394613F0B3FB3846FAF74EF9584611F06DF93B487A
:206730000188FF2906D1022101807822001D394613F0A2FB032013F0C7FE042013F0C0FE77
:20675000052013F0B9FE062013F0B2FE07200EF0C3F92F4E0820307006F1400013F0A4FE6F
:206770000EF028FC363605200A21324611F0FEFE38B13846C0F10901401C06F8011B0A28EC
:20679000F8DBD8F80070234909200DF10A0201AB7E68087010202146B047A86AEA690A2709
