:2000000000400020C564010001C9011001C9011001C9011001C9011001C9011001C9011034
:1C00200001C9011001C9011001C9011001C9011001C9011001C901103FC9011089
:20003C0080B54FF4FC720FF278011A4810F02EFF194800210170012141740221C17601BDD3
:20005C002DE9F0410FF25021144838220B684C688D68CE680F69D1F814C0D1F818E0D1F824
:20007C001C80036044608560C6600761C0F814C0C0F818E0C0F81C8020312030521EE5D1F7
:20009C004A688B68CC680968016042608360C460BDE8F081480400215903002100C000210F
:2000BC00410500217D0500212D06002170B51D46004C204787B2000010B5014800470000FD
:2000DC00D509000070B5614C6148254650358047022809D14034E1885E4A914204D1E97C5E
:2000FC00890601D4911DE18070BD70B557495A4A084650300378002B10D08379012B0DD181
:20011C00037C5B09DB0709D0097D544DC1746C7F20202043687790476C7770BDFF21C17420
:20013C00904770BD10B54E48484C804702280ED121464031CA88474B9A4208D1CA7C5209CE
:20015C00D20704D0227D920601D49A1DCA8010BD70B53E4843494030C07C4009C00707D032
:20017C003E4D41482C8B2043288388472C8370BD884770BD10B53B48344CAC388047214609
:20019C0053310A789309DB0705D04034A2730A7803231A430A7010BD2C4940310871182876
:2001BC0012D004DC0A280BD00B2804D10AE025280CD02A280CD02D4980004018C0687047DE
:2001DC002B4870472B4870472B4870472B4870472B48704770B504461C484E252D5CAE09AB
:2001FC00F60716D0067D3007000F052803D00120054202D00DE00220FAE7E80905D07006D1
:20021C0003D54868800F012803D05B085B0052085200062B03D01020022B11D011E0FB20F7
:20023C00024002232046FFF741FF002807DAC100611A2039497E1422114200D1002070BD93
:20025C00024303432046FFF731FF70BD4401002137CB000004140000EBC80000A800002142
:20027C00F5B4000053AD00002020000080DF00001D050021F9040021CD040021930400210F
:20029C006D04002110B5034CFFF716FF20680028FAD110BD0011044068610000F825F965B0
:2002BC00F9754500450045002600260057A3520052004C00401F401F401F3F000000000053
:2002DC00304000400140034007400F404F40CF40CF41CF43CF47CF4FCF3FCF2FCF1FCF0F6C
:2002FC00000000000000000000000F00080000003F00000040003F000000040068000E0093
:20031C00DC00060043001A00050000000000020000000000000000000400C00000000400B3
:20033C00C000000007000000000000000000000000000000000000003040004001400340A6
:20035C0007400F404F40CF40CF7FCF6FCF5FCF4FCF3FCF2FCF1FCF0F00000000000000009D
:20037C0050C00091007070C00091007082312100319110B10070018101B100A1823132910D
:20039C0010B101911110418141227740F106007051C0019130181039833108D01831416FD1
:2003BC003100319110B18314141683680070251050C00091F4C340C12014036F3110410497
:2003DC005082F0229840512622C082312100319110B163393110410482C08231210031919B
:2003FC0010B163393110A2C082312100319110B150101531051405920070676452C03110A6
:20041C0031066131C1026A6412C13110213971065131E1026A64007051C0019101CCE2C0CC
:20043C006A64676411C1C2C06A6450B054B0007140804022D6440022C94060B08180111EC9
:20045C00C944007054A064B0F0800022C9404012B09032B070C1DF6811C122C16A6470C1C0
:20047C00E46851C00191E2C0823160820200329110B130C2EE68538253395339B16460C347
:20049C00F4688012B09032B00070676401C122C16A6401C1C2C06A645382B164C012B09074
:2004BC0032B00070676472C281C06A6422C111C16A6402C011C16A6462C031C36A6462C3D2
:2004DC0011C16A6402C311C16A6453825339B164E2C36F6411221C4142C281C86A6452C24E
:2004FC0011C16A6472C2E1CE6A6402C281C86A6402C201C86A64B0C030690070676442C211
:20051C0001C86A6452C211C06A6472C2E1C06A6402C001C16A6462C001C36A6422C101C127
:20053C006A6462C301C16A6402C301C16A645382B16400708180111E5C4150B054B000712B
:20055C00408040225D4154A064B0F1800122514500700022514160B04E61000000000000AA
:20057C000000000000000000067305720B720E7250B00071818060B050A09280F0EFF1928C
:20059C0002936A6741228C458080F1C11004301601110114016CB561B661B761B861B9618D
:2005BC00BA61BB61BD61BF61C161C36126632D63F0C002043231412A121432160111211412
:2005DC00016CDA61C561E061C761CB61B561B561B561F461C561FA61C761CB61B561B56104
:2005FC00B561F461C561FA61C761CB61B561B561B561E761C561ED61C761CB61B561B56121
:20061C00B561CF61CF61CF61CF61CF61CF61C064CF61F964CF610665CF613265CF6174676A
:20063C00CF611166CF61C0644E65F964CF61066511663265CF618280E0DFF2926A67B0B044
:20065C00D661B1B00673057230B06C61D0CF6A6784C203C0C0C37C64207851788278E378B7
:20067C001579B6780062C0CF6A6784C203C0C0C37C64307861789278F3781579C678006250
:20069C00B0CF6A6784C203C0C0C37C6440787178A27803791579D678109221923292439281
:2006BC005492659256911FC0FF914039F00601101031101400927067CF61E3B054A0F08076
:2006DC0050221A4640800022BE461262E3A000C86091598150B0918041228E46A0CF6A6734
:2006FC0012828231823942398B641282F2062F101F312F141682D622334640C1346200C5AF
:20071C0020140D6F6D39DE10F4C34E0482C082312E006D39A2C082312D001A828A39FA0606
:20073C002082803180390BC00B18BC10AC18038239149B141082F0060110103110145181C2
:20075C0010140C14C622C94631D0C1266462021011C0013010C00118021882312100C126C2
:20077C00919103B013B063B053B041800122BE46B481C491D581B51C774E95186591F0803E
:20079C00102269428C623D9110B13E9110B1E08000228146E6228142E0B0951865910F926B
:2007BC005981F914F0805022114210228C464D6390CF6A6763B052A03082F2C0200402107E
:2007DC0011C0013010C00118021882312100C1269191919113B003B063B053B064B054B055
:2007FC00007141800122BE4663B064B0F08050221142B181C191D1819118619131B0A462D0
:20081C002967E0A059810582591480C0007163B0BA6A6962E3A0018262818231823D80EF61
:20083C00F19202936A6703A0007037824739873930828039F006021011C0013010C0011849
:20085C00021882312100C126819102B012B030824039F006021011C0013010C001180218E9
:20087C0082312100C126919103B013B063B053B0007153A062B052B041800122BE46A4816E
:20089C00C491D581B51CFE4E95186591F0801022F0428C62B481C491D4814518751C084FEB
:2008BC00F0801022F0428C623D9110B13E9110B1E08000221247E6221243E0B065910F92DC
:2008DC005981F914F0805022114210228C4630632967E0A0598105825914F0C0007162B038
:2008FC00226BF062A2808B64CF6112824239F2068B6050B00071CF6170CF6A674082418096
:20091C000122BE46A481C491D58195186591F18011228C46336B41800122BE46A481C491AB
:20093C00D581C51C1C4B95186591F08010223F438C6260CF6A67408241800122BE46B48169
:20095C00C491D58195186591F18011228C46506B41800122BE46B481C491D581C51CB44A55
:20097C0095186591F08010225C438C62E092D08200226B47C0B20070A080F022874330B033
:20099C0002C1623101C0A080001E8043F022814380F86031603981632010101A136F236E5A
:2009BC0011161216826B00702DE9F84FDFF81885DFF8181588F80000002008600921DFF891
:2009DC00100501700D2141804FF408718180DFF80405DFF8041501608A7EDFF80005027042
:2009FC00FF2ACB7E437008BFFF2B0D7F85704E7FC6708F7F0771C97F417115D1FF2D08BFE8
:200A1C00FF2E11D1FF2F08BFFF290DD1DFF8D0140A7802704A7842708A788270CA78C27025
:200A3C000A79027149794171DFF8B81402780A70FF2542784A7082788A70C278CA7002791E
:200A5C000A7140794871DFF8A014DFF8A004057045708570C5700571457100200880DFF888
:200A7C009014DFF89004466B70780870DFF8881430780870DFF88414B0780870DFF880142D
:200A9C0070690079401E0870DFF87814F0780870DFF87414B069086008B918F047FCF0698A
:200ABC00DFF86844206008B918F040FC2068DFF86074006880472168091D38460968884743
:200ADC00DFF85004DFF850143862DFF850047862306A086008B918F029FC706ADFF8401400
:200AFC00086008B918F022FCDFF838B4DFF838649BF8040018F0E2FF306008B900F046B995
:200B1C009BF80500DFF8247418F0D8FF386008B9306838E19BF80600DFF8144418F0CEFF2C
:200B3C00206020B9306818F0D1FF38682BE19BF80700DFF8009418F0C1FFC9F8000038B9A5
:200B5C00306818F0C3FF386818F0C0FF20681AE1DFF8A41309789BF80000DFF8DCA3C91C50
:200B7C00484380B218F0AAFFCAF8080058B9306818F0ACFF386818F0A9FF206818F0A6FF40
:200B9C00D9F80000FFE0DC480078010000F00381BBF80210DFF8A4B3484380B218F08EFF33
:200BBC00CBF8040078B9306818F090FF386818F08DFF206818F08AFFD9F8000018F086FF47
:200BDC00DAF80800DFE0CC48007818F077FFDC49086098B9306818F079FF386818F076FF43
:200BFC00206818F073FFD9F8000018F06FFFDAF8080018F06BFFDBF80400C4E0BE4800784B
:200C1C001C21484318F05AFFCE490860B0B9306818F05CFF386818F059FF206818F056FFC7
:200C3C00D9F8000018F052FFDAF8080018F04EFFDBF8040018F04AFFC148A3E0AE4800781D
:200C5C00400118F03BFFC0490860D0B9306818F03DFF386818F03AFF206818F037FFD9F8A7
:200C7C00000018F033FFDAF8080018F02FFFDBF8040018F02BFFB248006818F027FFB1487C
:200C9C0080E09D480078000118F018FFAF490860F0B9306818F01AFF386818F017FF206853
:200CBC0018F014FFD9F8000018F010FFDAF8080018F00CFFDBF8040018F008FFA0480068F2
:200CDC0018F004FF9F48006818F000FF9E4859E089480078000118F0F1FE9D49086010BB1E
:200CFC00306818F0F3FE386818F0F0FE206818F0EDFED9F8000018F0E9FEDAF8080018F094
:200D1C00E5FEDBF8040018F0E1FE8D48006818F0DDFE8C48006818F0D9FE8B48006818F098
:200D3C00D5FE8A482EE0744800783021484318F0C5FE8849086070BB306818F0C7FE3868A0
:200D5C0018F0C4FE206818F0C1FED9F8000018F0BDFEDAF8080018F0B9FEDBF8040018F052
:200D7C00B5FE7748006818F0B1FE7648006818F0ADFE7548006818F0A9FE7448006818F0ED
:200D9C00A5FE7348006818F0A1FE002018F0CEFA4FF4804192E03168012008710022306877
:200DBC00057330684573306885733068C573306805743068457400203168C8723168487148
:200DDC00A0213068C180032101720720316848720020316888722821306841820121C1769C
:200DFC00002031684877316881F85E00012031680877316881F85D00396808713868057315
:200E1C0038684573386885733868C573386805743868457400203968C87239684871396886
:200E3C0088724FF420703968C88008818A7401213A68D17421680D7321684D7321688D7375
:200E5C002168CD7321680D7421684D7400212268D172012122681171002122685171216847
:200E7C00C8800881002088722168887405202168C8743948006880470546294800680068C0
:200E9C00804727490968091D00200968884719481C49C06809780088084330490880284657
:200EBC002F49096888470C212E4800F05DF80F4800F05EF800F060F84FF4005198F800006D
:200EDC00BDE8F44F0EF082BB6E4F0020044F0020604E0020084F0020B63F00502C4E00205F
:200EFC00E81200503C4E00200C4F0020344E00206D4F00201CB501007B4F00206B4F002053
:200F1C00724F00206C4F0020F04E0020F44E00207C4B0020D99A0100F84E0020E99A0100F4
:200F3C00FC4E0020C81C0020104F0020B42F0020184F0020B82F00207C2F0020684E002076
:200F5C00004F0020AC2F0020B02F0020884E00208C4E0020904E002038160020544F0020ED
:200F7C003C160020F84D0020DFF800F0E5710110DFF800F01D6E0110DFF800F04D71011057
:200F9C00B0B5174C241D20680004070C23D01248006800688047114991F90720824205DDF8
:200FBC0010F1800FB8BF6FF07F00C8718D88BD4210D80A68D4F8D40F801A801C1F2888BF16
:200FDC001F207F1B4008C7404FF6FF70EF19B84238BF071C8F80B0BDEC010010A42F002091
:040FFC003010094068
:20100000B41200001810000015AB0110FDB301106DC00110FDAE011099B5011000000000F7
:08102000000000002F00000099
:20102800B01200003C100000B1C00110A9BF011067C0011069B80110000000000000000035
:041048002D00000077
:20104C00B012000060100000BDC00110CDB30110D9BD01106DB3011000000000000000005B
:04106C002E00000052
:2010700000000000F01C002004000000000000000000000020000000E8C90110300000001E
:2010900028100000F81C00200400000000000000000000000C000000D8CA011018000000F9
:2010B0004C100000001D002004000000000000000000000024000000F0CA0110180000007C
:2010D00000000000081D00200400000000000000000000001000000018CA01102C00000088
:2010F00000100000101D0020040000000000000000000000200000006CCA011024000000F4
:20111000FFFFFFFF181D00200400000000000000000000002800000090CA011024000000B3
:20113000FFFFFFFF201D00200400000000000000000000001400000008CB01101800000032
:20115000FFFFFFFF281D002004000000000000000000000058000000B4C901103400000000
:20117000FFFFFFFF301D00200400000000000000000000001000000020CB011018000000CE
:20119000FFFFFFFF381D00200400000000000000000000001C000000B4CA011024000000FB
:2011B000FFFFFFFF401D00200400000000000000000000003800000044CA01102800000023
:2011D000FFFFFFFF481D00200400000000000000000000005400000078C901103C00000098
:0811F00001000000E0B4010061
:0411F80001000000F2
:0411FC0000000E00E1
:0412000000000F00DB
:0412040032000000B4
:0412080001000000E1
:04120C00581B00204B
:0412100000020000D8
:0412140000000000D6
:0412180001C90110F7
:04121C0000000000CE
:0412200000000000CA
:0412240008000000BE
:04122800000023009F
:04122C00001A002084
:0412300001000000B9
:04123400701B00200B
:0412380008000000AA
:04123C00181B00205B
:0412400000000000AA
:0412440000000000A6
:04124800080000009A
:04124C00000000009E
:04125000000000009A
:041254000000000096
:041258000000000092
:04125C00010000008D
:04126000681A0020E8
:041264000600000080
:041268000100000081
:04126C00AC1800209A
:04127000000000007A
:041274000000000076
:041278000002000070
:04127C00000000006E
:02128000290043
:02128200010069
:02128400250043
:021286002D0039
:021288002E0036
:02128A002F0033
:02128C0001005F
:01128E00015E
:081290000300000094B401000A
:0812980000000000000000004E
:0412A0000000010049
:0412A4000000030043
:0412A80013C401105A
:0412AC008D98010018
:0412B000B812000070
:0412B400B81200006C
:0412B8000000000032
:0412BC00701B002083
:0412C000159A01007A
:0412C4002000000006
:0412C800E8B3010086
:0412CC0010B301005A
:0412D00029C101101F
:0412D400437801005A
:0412D800B37C0100E2
:0412DC00A1C7011095
:0412E000A3C701108F
:0412E4000000000006
:0412E8000BB4010042
:0412EC000CB1010040
:0412F00024B1010024
:0412F400F4B0010051
:0212F8000200F2
:0212FA000900E9
:0212FC000100EF
:0212FE000000EE
:0113000001EB
:0413040095990100B6
:041308009D770100CC
:04130C00E58C01006B
:04131000517B01000C
:04131400817C0100D7
:04131800D577010084
:04131C00493401004F
:04132000EF9B01003E
:041324002D4C01004B
:0413280015C70110D4
:04132C0025C70110C0
:201330002DE9F04FD94C04F118012046ADF1540D14F0FCF904F1A8050021284619F052F932
:20135000D34E1020D349E561F21D09F0FBFFD2490025012204F59E700095134614F060FC10
:201370004FF400510091CD4944F620622B4604F5B07014F055FC4FF480410091C84949F6A2
:2013900040422B4604F5C27014F04AFC4FF400310091C4494FF4FA622B4604F5D47014F072
:2013B0003FFC4FF480010091BF494EF660222B4604F5E67014F034FC4FF480710091BB4902
:2013D00004F5F87044F620622B4614F029FC4FF480510091B64904F5057049F640422B4602
:2013F00014F01EFCB34F07F1180007F10C010FF0A1FDB149B86018F02BFCDFF8C082B86891
:201410004FF4E0214246521E16F048FAB8684FF4E021424616F042FADFF8A482B8684FF0AE
:20143000C0514246521E16F039FAB8684FF0C051424616F033FAA349A84607F12400C8224F
:201450002B46CDF8008014F0EBFB9F48294678604FF0804013F072FA606104F1C00104F1D4
:20147000B4000FF067FDDFF86492606321211E22484617F073FA964829464FF6FF7217F027
:201490006DFA944829464FF6FF7217F067FA924829464FF6FF7217F061FA904829464FF67F
:2014B000FF7217F05BFA67698D4D4FB14846067936B103212970AF604146E96016F04AF9CC
:2014D000884910200B2209F03DFF874E10200622A023314609F036FF10200722A023314671
:2014F00009F030FF10200822A023314609F02AFF10200922A023314609F024FF10200A22F1
:20151000A023314609F01EFF10200B22A023314609F018FF102002224FF4FA63314609F060
:2015300011FF314610200C22502309F00BFF314610200D22502309F005FF314610200E2223
:20155000502309F0FFFE314610200F22502309F0F9FE102031465023024609F0F3FE314614
:2015700010201122502309F0EDFE314610201222502309F0E7FE314610201322502309F02D
:20159000E1FE314610201722502309F0DBFE314610201822502309F0D5FE31461020152239
:2015B000C82309F0CFFE314610201622C82309F0C9FE3146102019224FF47A7309F0C2FE15
:2015D000314610201A22434609F0BCFE207816F061FECB490246102009F0B4FE8DF8308073
:2015F000ADF8228040F2053001210CAA0AF016FC40F2063002210DF122020AF00FFC04F1A2
:20161000D8024FF442700F210AF008FC04F58672162140F207300AF001FC0F2001210DF1E6
:2016300031028DF8310040F204400AF0F7FBCE4F04F19800CD4EB8613078E071387816F0C2
:2016500029FE0246F87A07F134030090D549019307F14403029307F1140303937B7810208C
:2016700009F070FEE179480000EB011080B210F023FFA063002839D0E779C7B34FF6FF713E
:201690003B465B1E20F8121BFBD130E0080200200CB40100A1B500102D6C0100219B010077
:2016B000B99A0100119B0100519B0100619B0100A99A0100F8180020957201000E00058020
:2016D0000E000010B99801007D960100C4190020C816002060180020C81700201418002098
:2016F000E01B002081B30010BD840110E779380110F0E2FE0746276457B1E37943B14046FA
:20171000F8803870B88078805B1E07F11007F7D104F1F700C949009042461523102009F0A2
:2017300011FEC74910204FF0FF3209F00BFEC54910204FF0FF3209F005FE1020C24F00905D
:20175000C34AC248132339460190102009F0FAFD3078800010F0B0FEBE4A0146934691600D
:2017700069B14FF6FF7016F065F8BB4910200BF12402009011230191394609F0E3FDB74924
:20179000102009F0DFFDB6491020042209F0DAFD01264FF0020A8DF832604FF003098DF8B6
:2017B00033A004278DF83490D74A8DF8357009A8921C1168137901600DF132020371404696
:2017D00031460DF049F80DF13302304601460DF043F80DAA504631460DF03EF80DF13502F0
:2017F000484631460DF038F8052109AA38460DF033F804F150009949CBF80400102009F011
:20181000A1FD207816F046FDD5490246102009F099FD207816F03EFDD2490246102009F0AF
:2018300091FD8DF836808DF838A08DF83A90B3468DF83B800EA88DF837B0D84E8DF839B034
:201850004FF4806200905B463146102009F07AFD0DF1390040F2024200905B463146102086
:2018700009F070FD0DF13A000090314640F203425B46102009F066FD0DF13B00314640F22D
:2018900006425B460090102009F05CFD0DF13600314640F211425B460090102009F052FD64
:2018B0000DF13700314640F204425B460090102009F048FD04F1E7001023314640F2054256
:2018D0000090184609F03EFDBE4904F1A002102009F038FDBC49102009F034FDBC4F04F27A
:2018F00023101090B94E1296139607F110001190F1E3780AC0F0EF83072017F00FFAEAE388
:2019100051880110780D33D2B80DC0F0E4836669109813F083FF00900F210022D1A330469F
:2019300016F09BFED7480021FA2211F086FA0020A064D5480021062211F07FFA50465946E2
:201950000DF12F028DF82F0040F209300AF066FA9F499F4AFF20C87240F2073016210AF00B
:201970005DFAC4F820B0B6E3600A0020694F002016F048FBC4491020109F84F822010A6833
:201990003A608988B9806069D7A300220F2116F064FE606B07215A4615F090FC002015F00D
:2019B0005DF998E33D430100F80D80F0F380606B390D07D2780DC0F08E8309204FF48011B0
:2019D00020628FE10621002215F078FC60690F210022D4A316F041FEAA480021FA2211F03C
:2019F0002CFA0020A064A8480021062211F025FA504659460DF12E028DF82E0040F20930B3
:201A10000AF00CFA7249724AFF20C87240F2073016210AF003FA062020625CE3380B21D232
:201A3000F80CC0F05883D94818F007FA606B06215A4615F043FC0820EEE7C046B923010027
:201A5000E98E0100BD920100EB81010070B401008C1000203C1300207CB40100ED160100BC
:201A7000ED95010013F0ACF8071C4FD1E06A401CE06260690F210022D1A316F0EEFDE06A37
:201A90000128C8D17F480021FA2211F0D6F90020A0640746C4F820B00F21D6A36069E762E8
:201AB0003A4616F0DAFDD1480C300068C00A0DD2CC48006803684FF480715A46084698476B
:201AD0005846C949C64F086000263E60C74800684008FBD3C3480068416850468847C049EE
:201AF000096881421ABFBE490860D04803220321B0FBF1F15143401A08302063009060696A
:201B1000C4A31021064629E00CB401005E4806781EB939680160BE88868000208DF82D00EC
:201B300059460DF12D0240F209300AF077F928492C20119EC872BB88B38039683160244A38
:201B500040F2073016210AF069F916F05BFA6669384613F063FE0F21D1A3009030462DE0B6
:201B700031810110C19C01000620206200262663380B0FD2F80C06D2B80C0BD2380DC0F047
:201B9000AA82072048E7C44818F057F90F21CAA3606913E016F036FA9DE2C046C178000002
:201BB0006069790D08D2B90DC0F095820F210022CDA316F052FDD4E60F21D3A3002216F0C0
:201BD0004CFD88E22D910100C5AB001040E2010014030020B80D80F09F80A07A002800F023
:201BF0008D80401E6DD0401E50D0401E40F07382F80AC0F07082CF49002014F06FFE04F1EA
:201C100080020CCA04F1780003C804F19007121A8B4197E8030004F18806121A8B4196E825
:201C300003000027801841EB0301CA0F12184FEA520047EB01033A46D90708435910464242
:201C500062EB010718F0CAFC04F1700106C904F17003891942EB070283E8060018F0BAFCAD
:201C7000BAE1C046526F75746520646973636F7665727920746F20257320636F6D706C6551
:201C9000746521009004002065020020F80AC0F0228217F043FB04F1880282E80300D04A5E
:201CB000032008210CF0D8FD01281CBF0320A07240F0118260690F210022D0A316F0CDFC9E
:201CD0000EE0F80AC0F0078217F028FB04F1800282E80300D249002014F000FE84F80AA05A
:201CF0004FF48061A06969E1436F6E6E656374656420746F20726F7574652100380E0ED231
:201D1000780EC0F0E88160690F210022CFA316F0A4FC002014F0A2FF14F040FEDBE184F8A2
:201D30000AB0D8E1526F75746520646972656374206164762074696D6564206F757421004F
:201D5000616AB80E54D2607A38B3401E0AD0401E40F0C181F80B2CD2380D12D2780DC0F090
:201D7000BA8139E1380C08D2F80CC0F0B481D24818F063F884F809A0ADE112F021FF021C87
:201D900006D1032013F034FBA5E1C046D403002000202B210FF0CAFD9DE1F80C0CD2B80B2F
:201DB00007D2380DC0F0978184F809B04FF4004198E713F09FF98EE1BE4818F03EF88AE13C
:201DD0004E6F20746172676574206164647220666F756E642120476F206261636B2100C00F
:201DF000AC2B0020CC010010A802504208800240B24828E1526F75746520627573792C20B8
:201E100074727920616761696E206C617465722100C046C052616E646F6D207761697420BE
:201E3000636F756E743A20256400C046EFBEADDE616AB80E80F00681A06AB90D80F0CD8033
:201E5000207A002800F0D380401E00F0BC80401E72D0401E10D0401E40F03D81B80AC0F047
:201E70003A8117F05BFA04F1900282E8030016F043FF98B905200CE0B80AC0F02C8117F077
:201E90004DFA04F1780282E8030016F035FF28B9042020721FE1C046B0030020A0698BE0F1
:201EB000526F757465206469726563742061647620746F3A20257300537461727465642021
:201ED000726F75746520646973636F76657279206E6F6E20636F6E6E65637461626C6520A2
:201EF0006164762100C046C0476F696E67206261636B20746F2070726576696F75732073D8
:201F1000746174652100C0464920616D20616C736F20726F75746520636F6E6E6563746518
:201F300064212057616974696E6720746F2070616972210098020020380AC0F0CC80BF4929
:201F500009686069CF885E466FB3A06B008812215246002318F03AFB059048B3B74909685B
:201F70008989ADF812A0891CADF81010002180F800B00F4605988DF818703B464170A66BF3
:201F900020788DF8193016F085F90090B449328804AB102009F0D6F9C6B24EB104A8122103
:201FB00018F010FB04E011210022C1A316F055FBA06936B9032121724FF4007118F0FEFAA9
:201FD00089E08021FAE7A089390E0BD2780EC0F08280002014F042FEA06A80477BE0C046EB
:201FF0009002002014F094F984F808A073E0780B18D2780D28BF84F808B06CE04572726F26
:202010007221204E6F74696669636174696F6E2073656E64206661696C65642100C046C0E0
:20203000800200204FF6FF70401E16F07FFB297860690022B8A3091DC9B216F00EFB0020A5
:202050002071C9E7BA48884745E0C04650616972696E67206661696C656421204469736320
:202070006F6E6E656374206E6F772100E678380B26D2F80E2FD3504613F0BAF96078AD4979
:2020900014F0CCFB297860690022B6A3091DC9B216F0E3FA2E786769A64813F0BFFB761D48
:2020B00003460022F1B2384616F0D7FAB94884F804B082E6680300208C03002011020020A7
:2020D000002E1CBF1421ABA37FF462AD0DF05AFC062016F035FEA069AD4A00214FF0FF339E
:2020F00018F068FA071CF6D0002007900BA907AA08A815F059FD00284DD1BDF82000D8461D
:20211000102841D120789DF82C1088423CD1079801884FF6FF728A4233D14088C00833D3E1
:20213000E66B8EB3A07806F10803401CA070BF49009372883379102009F004F95FFA80F93E
:20215000B9F1160F12D02078B9F1040F0ED0E66B16F0A0F803460020B3490090728810207D
:2021700009F0F0F8484611F02DF90DE0A0780090297860690022AEA3491DC9B216F06DFAF9
:2021900002E000F0B7F98046079820B1B8F1000F01D017F02BFEF80FC0F00D8105E1E66944
:2021B000304618F003FA864208BF002602D0866815F0C0FD301C00F0F88030886269297885
:2021D000401E00F0E980401E00F09580801F49D0083803D0103800F0AF80E3E0706883780D
:2021F000002B3BD0012B1BD0022B0CD0032B7ED1C378002B08BF92A309D003880093C0786B
:2022100096A3019005E0C378002B70D19AA3008800901046C91C0022C9B216F01EFA66E0C7
:20223000C3786BB90088C91C99A30090C9B21046002216F012FA4FF400010DE04802002056
:2022500000880090C91C0193C9B2104696A3002216F003FA4FF08071A0695AE097A3D6E744
:20227000539E010070680078010924D240093ED30E2017F023FB002839D168686978037900
:202290000A46934211D0FF2A31D000EBC203DB682BB900EBC100006915F05CFA27E000EBC5
:2022B000C20003690846984721E08068F4E7C0466C6F646121000D2017F000FBB8B96968B7
:2022D0006878097981420ED0FF2810D0401CC0B215F01CFCFF2802D1002015F017FC6870EF
:2022F0000BF0F2FD03E0002015F010FC6870706815F020FD56E07068A169037833B19B1ECE
:20231000F6D150460FA914F0E9FAF0E708464FF4806118F053F9EAE7436F6E6E6563746910
:202330006E672043616E63656C6C656400C046C01002002065020020D6F804801298C91CBD
:2023500064A30090C9B21046002216F086F9139800906649B8F80A200023102008F0F2FF5E
:20237000C5E7C046436F6E6E656374696E6720746F3A00C04572726F722121416C72656165
:202390006479207363616E6E696E672100C046C0FFFFFEC71C040020706800F0ABF87068B2
:2023B00017F024FD304615F0C5FCE06918F0FAF800283FF4F4AE380B11D304F1700003C812
:2023D0008DE803006069002246A30C2116F045F9206B002803DD401E3FF4C6AB2063206A8E
:2023F00009283FF678AE800001A109588F46C046292400007D200000411E0000511D00002C
:20241000E51B0000B11B0000811B00002D1A0000B919000015190000380BFFF46AAA07208C
:2024300016F08EFC3248C8E4FB990100DDFE00105273702073656E642072657472793A00C7
:2024500043786E20256420626F6E642073617665207375636365737300C046C043786E20E0
:20247000256420626F6E642073617665206661696C65643A2025640043786E202564206275
:202490006F6E64696E67207375636365737300C0636F6E6E48616E646C6520256420706140
:2024B0006972656400C046C070616972696E67206661696C65643A20256400C0636F6E6EE2
:2024D00048616E646C652025642070616972696E6700C04650617373636F64653A202564D2
:2024F00000C046C0703A20256400C046B57C0100F80300202DE9F04F05460120ADF1240DD0
:20251000904C07902878913800F06A83DFF83892DFF848831F3800F0A882203840F0C6836D
:20253000484606780590616C6769A878002800F06382401E00F0C981801E00F02B82401EFF
:2025500000F0AA81DFF82C93DFF82CA3401E00F0BE80401E49D0401E00F00E82801F40F064
:20257000A583E87800282ED1E66C05F10508002E1ADD04F5617738464146062216F062FBC1
:2025900070B928692B2116F027FB68B12879691D11F0CCFD002840F089834FF0806164E12A
:2025B000761E07F11907E6D1E87860B928692C2116F012FB38B12879691D11F0B7FD08B9B8
:2025D0000520206272E3E878022840F06F832869C07A2A2840F06A83286900906968AA6805
:2025F000EB6828680DF0FAFD60E3192204F27C404A43002110F021FC002610204146666452
:2026100008F0A0FEC7B2A88815F0A4FFE1792082814240F34B83A26B41004FF6FF7301EB12
:202630000011079D5352226C0301D65405FA00F0D118CE8082B23146484616F08FF9208ADD
:20265000314605FA00F082B2504616F087F9208A8540CE483146AAB216F080F927B9CC48E9
:2026700031461C2216F07AF9DDF814A0D4F814909AF800501020414608F064FE6D1C009017
:202690003246C9A3E9B2484615F0E7FF60699AF800103246C8A3091DC9B215F0DEFFE07908
:2026B000401EB84210D15546297860693246C6A3891CC9B215F0D1FF297860693246C7A3AA
:2026D000491DC9B215F0C9FF4FF40011CDE06B78002B40F0D380361D38460022C3A3F1B2AE
:2026F00015F0BBFF0598676906784146102008F029FE761C00900022ABA3F1B2384615F092
:20271000ACFF2E1D0020207105F1040CB5F80AE094F807800696B8F1000F10D0A66B0746C0
:20273000014642464FF6FF70123E36F8123F98420CD0521E07F1120701F10101F5D1944E64
:20275000152740E008020020E01B0020A6F800E08846604613F062F8B61C01460F223046B9
:202770000EF09AFB0798002200FA08F01FFA80FB4846594616F0F2F850460022594616F0F5
:20279000EDF84E46DFF8049200225946484616F0E5F8A06B4FEAC8033F18991903EB0A02FF
:2027B000BF1C7B4ECF60F088D76003EB0901CF60400904D230461C21002216F0CFF85FFA46
:2027D00088F794F807802549102008F0BBFD804512D807994FF0000840F2053004AA8DF8D9
:2027F000108009F01BFB059960690978C9A34246891CC9B215F031FF0599A36B0978606903
:202810007A0002EB0712491D9B18C9B200229B1C15F023FF304614F09DFF6889A081206AE2
:20283000032817D1069904F223100A688988026010268180676984F8226112F0EFFF009042
:2028500094F938010022C4A331460190384615F004FF206A052806D102E0C046F17F011094
:20287000688913F055FD4FF48011A06917F0A6FE1CE2C04660180020C8170020361D38460E
:202890000022C7A3F1B215F0E8FE6878009005980678C7A3761D0AE0E5794146102008F08F
:2028B00051FD854205D848460678C4A3B61C676966E0494660690978002243A3891CC9B2BA
:2028D00015F0CBFE4FF40021CFE70020E070062016F024FAE8786064E878E0B12C4802219A
:2028F000002216F03BF8079F04F27C4900264FF0190BBA46E878B04214DC0E2E0BDA574683
:2029100007FA06F082B2B548002116F027F8761CF6B20E2EF4DBE878009005980678D0A376
:20293000361DC4E768684FEAC60808EB00035A780BFB06F101EB09077A7010F808009B1C40
:2029500009F801001968B81C01609988818012F065FF083701460F2238460EF09DFA9F4876
:202970004044C7609D480AFA06F3002299B215F0F5FF771CFEB2BDE7E878361DCDA30090BA
:202990000022F1B2384615F068FE8FE114180020C4190020B61C38460022CAA3F1B215F039
:2029B0005CFE4FF4802160E7436F6E6E656374656420746F20256400446973636F6E6E6510
:2029D000637465642100C046526561647920746F2041647665727469736500C05265616425
:2029F0007920746F205363616E00C046436F6E6E65637465642100C06889E081E81C12F0D4
:202A10000DFF034631460022384615F026FE4E46317860690022AEA3491CC9B215F01DFE98
:202A3000317860690022AEA3091DC9B215F015FEEF1CC648396801607E684660079AC44993
:202A5000102008F07FFC04F163014FF441700CF099FC4FF0FF3084F82201032012F0C8FCEF
:202A700004F59E7017F0E9F920E169782078162922D049460A78606929797E2902F104028F
:202A900012D07F290DD01B2922D1E9686A8904F188000EF001FAA0694FF4007117F08EFD7F
:202AB00016E0298991A301E0297A94A30091D1B2002215F0D2FD0BE015F0ECFB0346042021
:202AD000A44900906A88102008F03CFC00285FD04146102008F036FC002853D0688815F09F
:202AF00039FD20822A790B2A2DD0012A02D1297A0A2928D0132A17D0012A02D1297A12294D
:202B100012D0216C0001085C00283BD0284609F0F7FA37E043616E2774206164763A206E5F
:202B30006F206C696E6B7300494660690978012A07D0627975A3521CD2B26271521ED2B24E
:202B50001AE076A317E0494660690978012A11D0EA68127875A30FE04E65787420686F708D
:202B700020616464723A2025732C20727373693A2025640071A32A7B0092491D0022C9B25A
:202B900015F06BFD297905F1080017F01BFD8DE0079810F017FCE5630020079086E0C0466F
:202BB000436F6E6E656374204661696C656400C0526561736F6E3A20256400C043616E27D2
:202BD0007420416476203A204D617820636F6E6E73207265616368656400C046C816002065
:202BF00068780E3845D0801E5CD02E385ED1A878A66C80285AD10A2E58D0002E05F1050994
:202C1000A0460DDD08F28A27344648463946062216F018F8002849D0641E07F11907F4D1C4
:202C30004A461168192000FB068404F52274A01C016091888180104612F0F0FD01460F223A
:202C500004F108000EF028F9E87AE07595F90C00207628796070771CC8F8487026E0C046D9
:202C70004465766963657320466F756E6420256400C0A88842F20301814217D1A968087858
:202C9000A0B9491C02A80A684968026002AF41603878314902AA00F0FD003870102008F052
:202CB00051FB03E00820002107F022FF079809B0BDE8F08F506172616D2055706461746584
:202CD000202564004164766572746973696E6700436F6E6E656374656420746F203000C015
:202CF000496E697469616C697A6564004D54552053697A653A20256400C046C046432056F5
:202D1000696F6C617465643A2025640057726974652073656E743A20256400C057726974B0
:202D300065204572726F7220256400C052656164207273703A20256400C046C05265616475
:202D5000204572726F7220256400C046F70F002095890100FB99010095B400102DE9F04F02
:202D70000F4685B0804617F8010B8DF800004FF4B07008EB00044FF49C7008EB00059DF81D
:202D900000104FF4C67008EB0006182908F1E70A08F1660908F20D1BDFF86C0700F2A1838C
:202DB000DFE811F019007200660194009F039F03FD007903140127010101100138019F03CD
:202DD0009F0384019F0368015C018503E402E40236029F03810217F8010B88F8860002225E
:202DF000394608F1880017F0D9FB0146022208F18A0017F0D3FB0146022208F18C0017F02E
:202E1000CDFB0146022208F18E0017F0C7FB074698F88600400088F8860008F1860108F1FD
:202E30008600022240884000488008F1860080884000888008F18600008900010881394628
:202E500008F1840017F0AAFB08F10601B9F81E004988401A80B247F6FF7188422BDA08F198
:202E7000860008F18601C0888988401C4900484308F186010989884228BF3B2080F0408263
:202E9000012089F81C001CE00522394608F1610017F084FB0146022208F1920017F07EFB6C
:202EB00008F1860008F1060180894988401A80B247F6FF71884280F2228208F186010120EF
:202ED000887208F10601002008834CE29AF81600C0070AD41A208AF80E009AF80D00012830
:202EF00008BF0D213FD00D21D7E1002089F8000089F80600082201208AF81100394608F15A
:202F1000B00017F04BFB0146022208F1B80017F045FB08F1A80401460822204617F03EFB85
:202F300007460821204617F035FB08F19C0404223946204617F032FB0421204617F02AFBDF
:202F500008F1A00017F022FB08F1980017F01AFBDFF8B805018841F0800101809AF80D0008
:202F7000012806D10421404605B0BDE8F04F14F069BA99F81000012804BF99F811000F2870
:202F90000BD1404611F02AFF0421404611F0BAFB0F2089F81A00FD217FE104217DE1012048
:202FB0008AF80F00ACE2002089F8000089F806008AF800000B2101208AF80D0000208AF8BA
:202FD00001006AE101208AF8100099E2002142187B5C547A23437B5452781A4008EB0103F7
:202FF000491C082983F8FD20F1DB404611F066FA7CE2002142187B5C547A23437B54527863
:203010001A4008EB0103491C082983F8FD20F1DB022053E299F8060008B93D2070E19BF865
:2030300000000128D1D017F8010B8BF8030002224FF489703946404417F0B0FA01464FF477
:203050008A700222404417F0A9FA01208BF800009BF8020000281BD10C211EE19AF81600F3
:20307000C00601D41220D9E0404612F077FC3DE2387845E1387820707878607099F8100029
:2030900001280DD199F811000F2802D0162803D036E20120687333E2307B40F001001EE258
:2030B00005B0BDE8F04F002016F046B99AF81600810706D41121084201D10F20AEE01A22F1
:2030D00054E03878797800EB01202882F978B87800EB012068827979387900EB0120A882E5
:2030F000F979B87900EB0120E882387A2876B97A787A00EB01206883397BF87A00EB012009
:20311000A883B97B787B00EB0120E883397CF87B00EB01202884B97C787C00EB01206884D5
:20313000397DF87C00EB0120A884B97D787D00EB0120E8844FF4AA7040440490688B03907F
:20315000287E029008F1060040880190E88A0090AB8A6A8A298A40460FF0FCFB68B19AF8CA
:203170001600400701D40F2058E01E22404605B0BDE8F04F0F2113F001BF688A08F18601E2
:203190008880A88AC880E88A0881022088F886000020488008F1060108F10600C08DC01D69
:2031B000A9F81E0008F18600898D808888420FD108F1860008F10601C088C98D884207D13A
:2031D00008F1860008F106010089098E88421DD099F81000012804BF99F811000F2807D04C
:2031F00099F8150020B10F2089F81A00FE2154E0FC21404611F086FAE88A0090AB8A6A8ADC
:20321000298A98F8060017F0B9F979E1102144E09AF817000921084203D116208BF80C0037
:2032300061E17978387801F00701084038700146707B0840F07212D0411E08420DD0400727
:2032500003D5B07B08B1042003E0F17A0220014201D0F07201E04008F9D1F07A08B9B07A50
:20327000F072F07A042803D1404612F03EFCA083F07A17F07FF93071A28BB17B012313F083
:20329000EDFB0146208B884205D3A28BB17B3079012313F0E3FB70801721404605B0BDE893
:2032B000F04F11F02FBA78783978814207D100F007000840387034D0421E10420FD01E22DD
:2032D0001821404613F05AFE98F80610002300221E200DF065FB307B40F04000FFE0F072E2
:2032F000F978B87800EB0120308108F1060130894988401A80B247F6FF71884206DB2820AA
:203310008BF80B0001208BF80A00F9E00120B071F07A042803D1404612F0E7FBA083F07AE5
:203330000BE099F81100162806D1B27A98F80610134600200DF034FBB07A3071A28BB17B40
:203350003079012313F08AFB0146208B884205D3A28BB17B3079012313F080FB7080307B35
:2033700040F04000307301202870C9E03878797800EB01206082F978B87800EB0120E0822A
:203390007979387900EB01202082F979B87900EB0120A082A18AE089884288BF0846B17ADD
:2033B000042904D1B0F5296FD8BF4FF42960E28BE0839042B07A14BF4FF001094FF000092B
:2033D000042803D1404612F090FB04E0A089E18A884288BF0846A28BA08390422089628A3C
:2033F000238B14BF01210021904288BF1046984241EA090114BF0122002242EA010520838E
:20341000A28BB17B3079012313F028FB0146208B884205D3A28BB17B3079012313F01EFB7A
:2034300070806189208A628B814288BF01466183914214BF0120002005438A42344998F8CE
:203450000620096801EB4211628B8041121DC00F0A7610B1404614F06FFA9DF800001428D5
:2034700010D145B1E08B0090638BA28B218B98F8060017F07BF8404605B0BDE8F04F15213E
:203490000EF082BE1DB1307840F008003070307840F020001BE038780E280ED00F2809D0C9
:2034B000122804D014280CD0162812D028E00020287225E00120287322E003208AF8150077
:2034D0001EE0307840F00200307040F01000307016E0307B40F00200307340F0100030732B
:2034F0000EE08BF80C10404611F030FE40B905B0BDE8F04F074800784FF480410CF06CB8FD
:2035100005B0BDE8F08F00BF382F0020524F0020B02F00206E4F00202DE9F04F0D4685B002
:20353000814615F8010B8DF800004FF49E7009EB00064FF4B0709DF8001009EB00044FF488
:20355000C670891E09EB0007152909F20D1B09F1E70809F1060ADFF8680700F29C83DFE811
:2035700011F00F019A031600440048007A039A03C3009A037D00D600810088001701E90113
:20359000280204018403E802E8022F02A00209F1A00608222946304617F000F8054608219C
:2035B000304616F0F7FF09F1980404222946204616F0F4FF0421204616F0ECFF00214842D8
:2035D000484409EB010290F89F0082F8BF00491C0829F4DB09F1C702314609F1D70016F082
:2035F000C1FF012088F8000066E3012088F8130062E398F80D1098F81600012900F010009B
:203610000DD130B10020707130684108B07910F059FD9AF80000002116F0A0FF11E050B130
:203630004FF4A17009EB0003306842084946DFF8940616F073FB9AF800000122002116F0FD
:2036500089FF012089F86600484613F064F809F166010120887188F80F002DE3012088F822
:20367000100029E3287888F80E00012088F8140022E398F8121001291DD198F800100129A2
:203690004DD098F81610090704D40E208BF80C00072100E2002142186B5C567A33436B5451
:2036B00052781A4009EB0103491C082983F8FD20F1DB0921EFE198F81610090758BF0E20DF
:2036D00058D5002142186B5C567A33436B5452781A4009EB0103491C082983F8FD20F1DB50
:2036F000484610F0EBFEDDE2002142186B5C567A33436B5452781A4009EB0103491C08298B
:2037100083F8FD20F1DB022088F81500D4E298F81200012804BF98F80000012806D13D204D
:203730008BF80B0001208BF80A00C5E29BF800000128FAD015F8010B8BF8030002224FF40A
:2037500089702946484416F029FF01464FF48A700222484416F022FF01208BF800009BF8A5
:2037700002000028E1D10C2195E198F81600C00658BF122040F19182484612F0EFF891E2D7
:2037900028788BF80B00F02100208BF80A000AE198F81600810707D41121084208BF0F20C7
:2037B00000F07B821A22F6E009F16601097C012902BF09F16601497C0F2911D009F1660189
:2037D000497D0A0003D009F16602527C22B109F16602127F012A05D1400758BF0F2064D579
:2037F0002322D8E021B109F16601497C012904D009F18601897A012905D1400758BF0F20B5
:2038100053D52A22C7E02878697800EB0120B081E978A87800EB0120F0816979287900EB53
:2038300001203082E979A87900EB01207082287A3075A97A687A00EB0120F082297BE87A54
:2038500000EB01203083A97B687B00EB01207083297CE87B00EB0120B083A97C687C00EB58
:203870000120F083297DE87C00EB01203084A97D687D00EB012070844FF4AA704844049052
:20389000F08A0390307D0290BAF802000190708A0090338AF289B18948460FF05BF838B1C2
:2038B00098F81600400758BF0F2040F1F68171E0F08909F186018880308AC880708A088145
:2038D000022089F886000020488009F16601BAF82E00C01DC88309F18600BAF82C108088E8
:2038F000884201BF09F18600C088BAF82E10884206D109F18600BAF830100089884217D029
:2039100009F16600407D28B109F166010F208876FE21C0E0FC21484610F0F4FE708A00902D
:20393000338AF289B1899AF8000016F027FEC3E10021B0E0A878E97800EB012628796979DD
:2039500000EB0124A879E97900EB012705F10B000490A3B2687AA97A00EB012080B20390F1
:20397000B2B2287A0290BAF802000190B8B200906978287800EB012081B248460EF0EAFF2B
:2039900058B198F81600400758BF0F208DD5484611F024FA1E220F2134E009F186000021A7
:2039B0008680C4800781484605B0BDE8F04F13F049BD2878207068786070012070727BE1B6
:2039D00098F81700C00758BF162040F1668109F16600407C16281ABFBA79012A232210D04E
:2039F000002818BF01280BD00F281EBF09F16600007F01281EBF09F18600807A012807D140
:203A10002A221621484605B0BDE8F04F13F0B6BA6978287801F0070108402870797B0840E3
:203A30001CBF411E0842F8720DD0400703D5B87B08B1042003E0F97A0220014201D0F87286
:203A500001E04008F9D1F87AB97A884204BF0020F872F87A08B938811CE0BAF82E00C01D02
:203A70003881F87A042803D1484612F03EF8A0830123F87A3871A28BB97B12F0EFFF01464B
:203A9000208B884205D3A28BB97B3879012312F0E5FF78801821484605B0BDE8F04F10F055
:203AB00031BE6978287801F0070108402870F97A08401CBF411E0842F8720DD0400703D508
:203AD000B87B08B1042003E0F97A0220014201D0F87201E04008F9D1F87AB97A884204BFAB
:203AF0000020F872F87A10B93881B87A0BE0BAF82E00C01D3881F87A042803D1484611F0A4
:203B1000F4FFA083F87A3871A28BB97B3879012312F0A4FF0146208B884205D3A28BB97B94
:203B30003879012312F09AFF7880387B40F02000AFE02878697800EB01206082E978A8788B
:203B500000EB0120E0826979287900EB01202082E979A87900EB0120A082A18AE0898842A7
:203B700088BF0846B97A042904D1B0F5296FD8BF4FF42960E28BE0839042B87A14BF0125FE
:203B90000025042803D1484611F0AFFF04E0A089E18A884288BF0846A28BA083904214BFE7
:203BB000012100212089628A238B2943904288BF1046984214BF0122002242EA01052083CD
:203BD000A28BB97B3879012312F048FF0146208B884205D3A28BB97B3879012312F03EFF4D
:203BF00078806189208A628B814288BF01466183914214BF0120002005438A4232499AF8FF
:203C10000020096801EB4211628B8041121DC00F0A7610B1484613F08FFE9DF800001428E8
:203C300010D145B1E08B0090638BA28B218B9AF8000016F09BFC484605B0BDE8F04F15214F
:203C50000EF0A2BA1DB1387840F008003870387840F0200015E028780F2809D0122804D0E9
:203C7000142808D016280ED026E00020307123E00120307220E0387840F00200387040F0BD
:203C90001000387018E0387B40F00200387340F01000387310E09DF800008BF80C00484647
:203CB00011F054FA40B905B0BDE8F04F074800784FF480410BF090BC05B0BDE8F08F00BF69
:203CD000382F0020352F0100B02F00206E4F00202DE9F04FDFF800B5DFF800659BF800005C
:203CF0001E25082887B000F26E82DFE810F072020900090009000900F0008601720272026A
:203D1000DFF8DC44DFF8DC942068DFF8DC84006800F10807062207F1080102A815F0BEFC9C
:203D30000622B91C684615F0B9FC3978C1F380108DF8140001F00F02C809032A35D16179A0
:203D5000C1F38001884239D12169062202A815F017F900283AD09DF81400694616F0F6FB58
:203D7000002833D03146684614F009FAFF282DD0D8F80010897A684335180A0018BF0229D1
:203D90000AD0012918BF032918D1325C691C484616F0D8FB102819D06A46E91D484610F044
:203DB000EFFB06226946E81D06E201F00F01052940F00F826179C1F38001884240F0FE81CD
:203DD0002169062202A815F0DBF8002800F0F681387847099DF81400694616F0B7FB40F2CE
:203DF000024A70B33146684614F0C9F98346BBF1FF0F6BD005FB0BF031180491D8F80010E2
:203E1000897A0A0018BF01290BD0022918BF03295CD1325C0498411C484616F093FB10286D
:203E300054D0504616F08AFB0498C11D6A46484610F0A6FB049806226946C01D15F02EFC55
:203E50001DE09BF80000022840D19DF814106A46304610F038FA8346BBF1FF0F36D005FBED
:203E70000BF03044417F012906D000292ED10D3016F060FB002829D0504616F05FFB05FB26
:203E90000BF0D8F80020315C91763044411CD8F800000622143015F001FCD449D44889784A
:203EB000490604D5F90758BF41F20A4101D541F20441418041834186CE480180CE49CF48D6
:203ED00008600121CE4800780BF086FB76E1CD4C2068006800F108070F21387808421CBFD9
:203EF00000F00F01062906D002291CBF00F00F00012840F06E810622B91C02A815F0CEFBEB
:203F10003878DFF80493C0F3801800F00F0001283FD1062207F10801684615F0BFFB3878AA
:203F3000C7096946384616F011FBE8B1D9F80000807C022818BF03285ED106F10D016846EE
:203F500016F0F4FA002857D0D9F800100120C8720622607940F0040060716946D9F800004C
:203F70000C3015F09BFB14E03078874211D10622711C684615F004F858B13078617960F3D1
:203F9000820161710622D9F80000711C0C3015F085FB02A9404616F0D9FA00282CD060697E
:203FB00002A9001F13F0A2FA002825D1314602A814F0E5F8FF281FD0D9F80010897C6843C1
:203FD00035180A0018BF02290BD0012918BF032912D1325C6069691C001F16F0B3FA1028A7
:203FF0000AD0606902AAE91D001F10F0C9FA062202A9E81D15F052FBEBE0844C20680068C5
:2040100000F108070F21387808421CBF00F00F00012874D10622B91C02A815F03FFB387888
:20403000DFF8EC91C0F3801800F00F00012846D1062207F10801684615F030FB3878C7090B
:204050006946384616F082FA20B3D9F80000C07A022818BF032852D106F10D0016F06AFA06
:2040700000284CD106F10D01684616F05FFA002830D0D9F80000062269460C3015F00EFBBF
:20409000607940F00400607106226946F01D15F005FB14E03078874211D10622711C68469F
:2040B00014F06EFF58B13078617960F3820161710622D9F80000711C0C3015F0EFFA02A9F1
:2040D000404616F043FA00284AD0314602A814F056F8FF2872D005FB00F7D9F80000817A26
:2040F000F51959BB807C15F007FC814699F82E01022811BF0328F15D00F0010081425DD1AE
:204110004FF4947009EB000606223146681C14F037FF30B9062231463E4814F031FF002887
:204130004CD0012089F82E010622607940F00800607102A9304615F0B1FA0DE02069F25DE2
:20415000691C001F16F0FEF9102837D0206902AAE91D001F10F014FA062202A9E81D2BE024
:20417000D9F80000817A49BB807C15F0C5FB074697F82E01022818BF03281FD102AA414644
:20419000304610F0A0F8FF2818D06843351805F10D0016F0CFF910B9687F01280ED187F8F2
:2041B0002E810622607900F0F70040EAC800607102A94FF49470384415F070FA21680968BE
:2041D0000020087105E0002015F0B6F8862016F0A9F907B0BDE8F08F6F4F0020082400202B
:2041F000F44B0020CC470020104F0020382F0020204A0020504F0020204F002029420000D4
:204210006E4F0020D04B0020B42F0020AC4B0020184F002078B501002DE9F84F012013F026
:20423000D9FB01280ED1DFF8E454296800204871286812F0A5F905F047FB040003D1812039
:2042500016F070F95DE201206071DFF8C464DFF8C4044178491C41702968A07981F8A0007E
:2042700040200EF0D7FE2060307901281CBF002015F062F8F0682168DFF89C6400F5B06092
:20429000C86030680068007903281CBF002015F053F83068DFF88494006800F1080A4FF4C2
:2042B000977004EB00089AF80000C0F3801088F8000006224FF494700AF10201204415F0C5
:2042D000EDF904220AF10E0104F1240015F0E6F9D9F80000A37900EB431004220AF10E0160
:2042F0000C3015F0DBF9D9F80000A37900EB431003220AF11201103015F0D0F904F12C0705
:204310009AF81500B87002220AF1160104F1300015F0C4F902220AF1180104F1320015F03D
:20433000BDF902220AF11A0104F1340015F0B6F93889608402220AF11C0104F1360015F08F
:20435000ADF9B87879894000B8700901B88879814000B88089B2F8884000F88080B2628CBE
:20437000521C43005A438A4200D238B9DFF8B003007880210BF030F93B21F5E004F12E0134
:20439000204614F079FD0520A081204614F052FF05220AF11E0104F1610015F07FF99AF886
:2043B00023004009387016F0B9F860822968DD4D498A401AA8F80C0004F161019AF82300A0
:2043D000DFF864A300F01F00F873204612F066FB31680968002008711C26A1792868714369
:2043F00041F6210242520022A179714301444A80A1797143084442609AF80200400609D54C
:20441000CA48008841F20A4188420CBFC848C948C4F89C012046D4F89C118847A27929680B
:20443000724311448873A1792868714308440021C173C148007870B1B88860B97873012061
:20445000208160812046D4F89C118847A2792968724311448873A179286871430844807BC6
:20447000787394F8960108B914F066FFA1792868DFF8C8B27143084494F89611491E0174EA
:204490000022A17928687143084400214174A0792968704308444282A279D9F8000000EB26
:2044B000421372430A445361A27972431144A44A8A61DBF8141091F800C094F806E05FEAE7
:2044D000CC714CBF102100215FEA8C724CBF202200225FEA4C734CBF402300235FEA0C7C12
:2044F0004CBF4FF0800C4FF0000C1143194300EB4E104CEA010141F00F010172D9F80000D5
:20451000A17900EB41100B214172D9F80000A17900EB411004218172D9F80000A17900EB41
:2045300041108849097801291CBFDBF828104978C172D9F80000A17900EB41101F210176E6
:20455000D9F80000A17900EB411000214176A0790BF0ECFFA279D9F8001052018850A0790D
:204570004201895821B90721204614F02EFCC8E07549096801EB001015F0CCFF724AA179F8
:204590001268D9F8000002EB011200EB41114A60A17900EB41114968F963A1794901405879
:2045B000786404215E4800780BF016F86249B888097800F1020E19B110B9F88800F1020E42
:2045D000608A00FB0EF04FF4C871B0FBF1F0401CC4F818E0606140F6C41394F806C029681F
:2045F000226806FB0CFC8C44CDF800C0D2F80CC003FB0ECCACEB0000A0F5A86C0098C0F8C5
:2046100008C0A0797043084480689060A07970430844017B01F0EF010173A179286871438B
:204630000844017B01F07F010173A179286871430844017B01F0F00141F002010173A179F3
:20465000286871430844417B01F0F00141F001014173A179286871430844216880680861B1
:204670006269D9F80000A17997F802C0520000EB411103FB0C2202F5F6624A61A17900EB69
:204690004110C17C01F0F00141F00401C174FA88D9F80000A1795A43DBF830301B6800EB84
:2046B0004111D21AA2F51672CA61A17900EB4110C17E01F0F00141F00401C176A1792868D4
:2046D00071430844216848609AF80100800615D5B8F83A001B2804BFB8F83C001B2809D19D
:2046F000B8F83E00B0F5A47F04BFB4F86E01B0F5A47F03D01421204610F004F81349072061
:204710000870BDE8F14F00F02DBD00BF104F0020B44D0020684E0020F44B0020B02F0020BF
:204730006E4F0020AC2F0020382F0020504F002033480100F5550100784E00201CB50100CC
:204750005C4D0020734F00208C4E00206F4F00202DE9F84F5FEA000A27D1002014F0ECFD11
:2047700023E050460FF049FD62E2317C012940F07E80C078002877D098F80000400088F80B
:204790000000B8F802004000A8F80200B8F804004000A8F80400B8F808000001A8F808007C
:2047B00001203077504610F019FB0AF16606707D002800F064824FF489700AEB00094FF4A8
:2047D000A2700AEB0004717C4FF4C6700AEB000B00290AF186080AF1EC050AF10607DFF8DB
:2047F000A404C2D0012946D0022931D0032957D0062900F0A480072900F01E82082900F08C
:20481000F180092900F00F810A2900F0B3800B2900F0CA800C2900F013810F2900F04981F6
:20483000112900F06A81122900F03881142900F0CE81162900F06C81182900F09D81F0296F
:2048500000F00082FC2926D0FE2900F0048284E7317C012985D1C078002800F0828150469D
:2048700010F0BCFA1621F1E1B888F18B10E050460DF0CAF9DCE1317C01290DD1C078002895
:204890001CBF012088F80A008CD1B888B8F80C10884200F09581F1E150460EF0AAFCC7E195
:2048B000317C012941D1807850B10020B071A078012805D10020A070002150460FF022FFA7
:2048D000A87B01280AD10020286068600621012088F80E00504612F0B5FD66E7E87B012838
:2048F00018D1504610F07AFA002088F80E0001203070504611F00FFF0120B0710020687364
:20491000697A387806291ABF00221A21002215F021FE4AE799F8050001286FD0308B401E01
:20493000308380B200284CD0A8E150460CF042FE3074F08A30830020A873E8739FE1307C50
:2049500001280ED1A87A01281FD1504610F046FA002028722873E872A873A872E873687314
:2049700023E7504610F0F0FC3074F08A30830020A87284E1307C01280DD1E87A012802BF2C
:20499000002088F80E000B21A4D0308B401E308380B2B0B172E1504610F04DFE3074F08A08
:2049B00030830020E8726AE1317C012916D1807808B103218EE7308B401E308380B2002841
:2049D000E8D1297A3878012903D1222115F0C6FD29E10022222115F0BDFD24E150460FF0EA
:2049F00005FA25E1307C012814D1287C02280AF1FD0204D13978002015F088FDD2E6308B7D
:204A1000401E308380B200280CD13978222015F07DFD08E150460EF06BFF3074F08A308314
:204A3000012028742AE1317C012905D1807810B1B88B3883B6E694E050460FF03FFDF7E082
:204A5000307C01280AF20D1121D1087801280DD14878012809D1B9F8020000900020CA7876
:204A7000B9F80030397815F04DFD9BE6308B401E308380B2002810D1B9F802000090222038
:204A9000CA78B9F80030397815F03CFDCBE00120887050460EF0E8FB3074EFE0317C01296F
:204AB00003D180780028E0D15BE0504610F02EFFBEE0307C01281CD16078012809D1207F69
:204AD0000F281CBF002014F037FC00206070002100E7A078012806D10020A0702322504642
:204AF00012F04CFA61E6207801283AD100202070EDE750460BF062FE9AE0317C012903D1B1
:204B1000C078002821D12CE050460FF008FD8FE0307C01282CD19BF80C00810648BF1821E6
:204B3000D6D4C10712D5207F16281CBF002014F003FC9BF80C0000F0FE008BF80C000023F2
:204B50003978607F00220BF02BFF2BE6810708D500F0FD008BF80C000023397800221A204C
:204B7000F1E7308B401E308380B200285BD085E050460BF071F85BE0317C012922D1C07860
:204B9000C0B19BF80C009BF80B1059B9810610D500F0DF008BF80C0000209BF80A203978DD
:204BB0001346D0E700F0DF008BF80C0001208BF80600F7E57988BBF80800491C88425DD1D8
:204BD000282143E0182150460BF046F830E0307C01282AD19BF800004FF4B3710AEB01057C
:204BF000810614D500F0DF0001078BF800000BD500F0F7008BF80000288B0090AB8AEA8AA5
:204C1000698A387815F0B2FC00202870CAE5810704D500F0FD008BF80000F5E7308B401E01
:204C3000308380B250BB222110E050460DF0ACFA3074F08A308321E0504610F087FA0128F6
:204C5000E4D01BE0407AD0B199F80610504614F0BCF8012013E0B07E0F280CD1FC2150465C
:204C700012F0F0FB608900902389E288A188387815F084FC02E0002014F05EFB0020BDE826
:204C9000F28F00BF5C4D00202DE9F0475FEA000882B00BD1002014F04FFB07E0404610F074
:204CB00055FA012864D1404610F098F808F16605687D00285CD04FF49E7008EB00044FF4F9
:204CD000B070697CDFF894A408EB00094FF4C670022908F1EC07404408F1060635D0042969
:204CF00049D005295FD0062900F08E800729D5D0092900F0F4800B2900F0C6800C2900F007
:204D100026810D2900F0D5800E2900F0F6800F2900F05D81102900F07881112900F096815B
:204D3000122900F04181142900F0D681162900F09781172900F0C381FC2919D0FD2900F013
:204D5000F481FE2900F0F681A4E7287C012809D19AF80300002814D01621404614F035F87F
:204D7000012006E040460FF048FA2874E88A28830020BDE8F687287C012810D19AF8020018
:204D9000002800F01881FC21404612F05BFB307808F1B80208F1B00115F0B0FB86E74046AF
:204DB0000CF058FEE1E7287C012810D19AF8020028B1012088F89400002038607860B87AB7
:204DD000012869D10621404612F03CFB6EE708F1E7063078012809D1404612F019FA0128D0
:204DF000C6D10020B87201202874C1E770780028BED008F1C70208F1A00108F1D70015F08E
:204E1000B1FB0120307051E7287C012838D19AF80200002840D0B08B308340460FF0DEFFEB
:204E300001202870404611F076FC0120A871397A787C012900F010000CD130B100206071F6
:204E500020684108A0790FF03DF93078002115F085FB0FE048B14FF4A17008EB000320681B
:204E700042084146BE4814F059FF30780122002115F070FB002038723873F872B87215E78E
:204E9000404610F061FA70E7287C012805D1F87A012808BFFC2196D08DE040460EF0A6FFAC
:204EB000012853D10020F87288F8940001202874FCE6287C01280ED19AF80200002809D017
:204ED000002088F8940001202870404611F023FC0120A871BDE0404611F000FE45E7287C03
:204EF000012806D19AF8020000281CBFB08B3083A6E040460FF0E2FA37E7287C01281DD15D
:204F1000387C022808F1FD0204D13178002015F0FDFAC8E6032806D131781A2015F0F6FA89
:204F300000203874BFE6288B411E298389B200290CD13178222015F0E9FA42E040460EF078
:204F5000D7FC2874E88A28830120387410E7297C012908F20D1021D14FF4897108EB0102E6
:204F7000017801290BD14178012907D1518800911388C2783178002015F0C4FA93E6298BEF
:204F9000491E298389B20029E0D1518800911388C2783178222015F0B5FA12E001218170F6
:204FB00040460EF061F9E0E6287C01280BD19AF802000028E2D1288B401E288380B200280F
:204FD000C4D12221C9E6404610F0A0FCCDE6287C012816D1607A012803D199F800000F2812
:204FF0001CE0207A012829D100202072288D00090090A88CEB8C317842081A2015F07AFA97
:2050100051E640460BF0DAFBAFE6287C012819D1607A012812D199F8000010281CBF0020FD
:2050300014F08AF900206072288D00090090A88CEB8C3178420899F80100DFE7287F0028D4
:20505000DED1B8E740460BF00AFC8EE6287C012802D19AF80300F2E740460FF060FA84E6A0
:20507000297C012926D1017B4A062ED4CA070AD501F0FE0101730023317899F801000022F8
:205090000BF08EFC0FE68A0707D501F0FD0101730023317800221A20F2E7288B411E2983F7
:2050B00089B2002955D131780023002222200BF077FC86E7162140460AF0CEFD55E6297CE9
:2050D000012907D1017B4906BBD5017B01F0BF010173E8E51721EEE7297C012920D10178AF
:2050F0008A0617D501F0DF010A0701700ED501F0F7010170B9F81E000090B9F81A30B9F889
:205110001C20B9F81810307815F030FA002089F80600C8E58A0794D501F0FD010170F5E709
:20513000142140460DF030F81FE6A97E404612F089F9BBE6A87E0F280CD1FC21404612F0C9
:2051500081F9608A0090238AE289A189307815F015FA0DE6002014F0EFF809E65C4D002097
:20517000352F01002DE9FE4FDFF85084D8F80400009018B9BDE8F74F15F0B8B90078DFF8C7
:205190004094DFF840A4DFF8404401281CBF0228042846F2A81741F64C5B05D0402818BFD2
:2051B000802800F0F98001E214F06AFD0028FAD00098007807F094FE05466E6816B90020E5
:2051D00014F0BAF8DFF804044078002800F0A58004F082FA14F090FB019000680290014664
:2051F000476828460BF08AFF02286FD02978012904D0022927D0042945D0D7E1DFF8D01320
:205210000968097A1AF80110217018B915F06AF95844B0603069C17E01F0EF01C176306968
:20523000C17E41F08001C1763069C17E01F0F00141F00201C176B868DFF8981308183169B5
:20525000C8610120A4E00521217018B915F04AF95844B0603069C17E01F0EF01C17630696B
:20527000C17E41F08001C1763069C17E01F0F00141F00201C176B868DFF8581308183169B5
:205290000862022084E00621217018B915F02AF95844B060D0480068807C12F0EFF83069B3
:2052B000C17E01F0EF01C1763069C17E41F08001C1763069C17E01F0F00141F00201C176A1
:2052D000B868C44908183169086260E002980078802811D108202070C0480078012803D05D
:2052F000BA484078022801DB012002E0D9F8280000787969C8720AE00720B849207009782B
:20531000786901291CBFD9F828104978C1720198AE4980798870029844E1002D18D00099AC
:205330002878A9420ED1401E012833D9C01E05D1A9480068807C12F0A1F82BE0002013F08E
:20535000FBFF27E0012804D0022815D0042817D02CE19F480068007A1AF80000207015F0A0
:20537000C1F83918B06815F0B9F818B915F0BAF85844B06001200BE005202070022007E047
:205390000620207094480068807C12F077F8042088F80200284605E18C484078002800F0F8
:2053B000B68004F099F914F0A7FA00900068019045688648807814F09FFA029014F066FCEB
:2053D0000721084278D098F8020007F089FD0646019977680BF092FE02286DD0317801296A
:2053F00004D0022924D0042940D062E078490968097A1AF80110217018B915F073F85844E5
:20541000B8603869C17E01F0EF01C1763869C17E41F08001C1763869C17E01F0F00141F0B0
:205430000201C176A8686B4908183969C86192E00521217018B915F055F85844B8603869D2
:20545000C17E01F0EF01C1763869C17E41F08001C1763869C17E01F0F00141F00201C176EF
:20547000A8685C4908183969086283E00621217018B915F037F85844B86057480068807C64
:2054900011F0FCFF3869C17E01F0EF01C1763869C17E41F08001C1763869C17E01F0F0017D
:2054B00041F00201C176A8684A4908183969086274E0002013F040FF02980099884224D0FB
:2054D00001980078802811D10820207043480078012803D03D484078022801DB012002E024
:2054F000D9F8280000786969C8720AE007203B4920700978686901291CBFD9F828104978D9
:20551000C172009831498079887001984AE014F0BDFB072108424ED098F8020007F0E0FCD1
:20553000064630787568012804D0022815D0042822D040E026480068007A1AF8000020704E
:2055500014F0D0FF3918A86814F0C8FF18B914F0C9FF5844A860012021E00520207014F020
:20557000C1FF3918A86814F0B9FF18B914F0BAFF5844A860022012E00620207014F0B2FF8D
:205590003918A86814F0AAFF18B914F0ABFF5844A86011480068807C11F070FF042088F8F9
:2055B00002003046BDE8FE4F09F0B2BDBDE8FE4F002013F0C1BEBDE8F78F00BF7C2F0020C0
:2055D0001CB50100289A01106F4F0020684E0020104F0020F0D8FFFF184F0020734F0020B4
:2055F0002DE9F04F0C46E00789B00DD514F08EF938B100218160DFF800040068010018BF61
:20561000804784F00100F4E11E252007DFF8EC6340F18A80DFF8E8030068807C14F06CF90F
:2056300007464FF4947097F82E8107EB0009002007908246DFF8C8030068807CFF2804BF1E
:20565000002013F079FE4A46414630460EF03BFE834605FB0BF0009035184946404614F022
:2056700075FFB0B1BBF1FF0F2CD00098305C40F00208E81D079005F1010908F0010087F81D
:205690002E0106224FF494704946384414F006F818E04946404614F0C1F8002818BFBBF1DA
:2056B000FF0F0FD005F10D0014F044FF40B905F10D0014F03FFF002804BF687F012801D198
:2056D00048F00208CE480068C07A022818BF032806D106F10D0014F02DFF08B906F1070AC0
:2056F0000020BD1D06904346288E000905900022E88D0490A88DCDF804A040080390CDF8C4
:205710000090079802900020297814F0E3FED7F89C01BC49884228780CBF002101210CF02D
:20573000EFFC84F0080064E1E00610D5002006900590049003900290019000900023002278
:205750000021022014F0C6FE84F0100051E1A00710D5002006900590049003900290019057
:2057700000900023012200213C2014F0B3FE84F002003EE16007A44F40F1A180A3488078ED
:205790004FF00008CDF81C80FF2804BF002013F0D3FD386890F8A00014F0AEF881464FF4F8
:2057B000947009EB000B3868C07A99F82EA1022818BF032806D106F10D0014F0BBFE08B917
:2057D000F01D07905946504614F0C0FE90B33868807A010018BF012804D13146584612F054
:2057F000CEFC04E05A46514630460EF06CFDFF283ED005FB00F806EB080506225946E81DE0
:2058100013F04CFF16F8080040F0020A3868807E00F0010089F82E010622386800F11401CB
:205830004FF49470484413F039FF05F1010B05F107081DE05946504613F0F0FFC0B15A460E
:20585000514630460EF03FFDFF2811D06843351805F10D0014F06EFE40B905F10D0014F07E
:2058700069FE002804BF687F012801D14AF0020A09F12C0009F10605017806915346418900
:20589000090905910122A98B0491C088CDF8088040080390CDF800B007980190002029788E
:2058B00014F018FED9F89C015649884228780CBF002101210CF024FC84F0040099E0200606
:2058D00010D5002006900590049003900290019000900023012200213B2014F0FBFD84F07C
:2058F000800086E0E0043BD5F11D06F10D0014F0EDFD38684179012923D1017A012918BFCA
:2059100004291ED1C17A022918BF032919D1817E00F1140230460EF0D6FCFF2811D0684309
:20593000351805F10D0014F005FE50B9E91D05F10D0014F0CBFD38680622E91D143013F00D
:20595000ADFE33484268334800784FF4805110F07DFE10B18E2014F0B5FD84F4805048E050
:20597000A00505D514F062F92B4901200860FEE7600504D509F0CDFD84F4806039E0600481
:2059900005D5812014F09EFD84F4804031E0A0042ED5224D286810B1002013F0CDFC4FF002
:2059B000FF3028600FF054F81D4D296820316846096888471B4841682D681B4A00916B4653
:2059D0008168019100210291016909680391017B00688DF81010ADF812002D68134914488C
:2059F000A8471449086004F0E1FD84F4005000E0002009B0BDE8F08F204F00200824002091
:205A1000184F002033480100104F0020684E0020784E00206E4F0020FC002043044F002089
:205A3000F04E0020B0190020DC2E0020001C0020B02B0020EC4E00202DE9F043DFF8AC4345
:205A5000DFF8AC3394F80080DFF8A8E3DFF8A893DFF8A863DFF8A813B8F10D0F83B040460E
:205A700041F2064741F202424FF4A05553D8DFE818F0BB010E000E000E000E006D00A500E7
:205A9000E9001D015F015F01900190019701DFF87413DFF87473C3F800E041F2044E4C8865
:205AB00074451CBFB1F81A80F0450BD0B1F83290F1451CBF41F20A4E744503D0F04518BF50
:205AD000F14502D1A6F800E02AE0022CDFF83C73348036D94FF4806CB4EB0C041CD0241FA1
:205AF000012C1FD94FF47F7CB4EB0C041CD04FF4406CB4EB0C040FD0A41E012C0CD9241F04
:205B10000AD0641E012C0DD940F2F930241A012C17D9241F08D05FE1022814BF3580BC4F38
:205B30001F60FDE0BB4FFBE7BB480068007A012803D14A804A834A86F2E74D804D834D867B
:205B5000EEE7002013F0F8FB832049E1B348418831800229C3F800E014D940F20442891A3A
:205B70002AD0491E0ED040F2FB32891A1DD00A3901291AD940F6F632891A03D0491E1BD061
:205B9000491E012940F2C680091F15D0491EF9D0491E11D04FF47E72891AF3D0491E0BD08C
:205BB000C91E09D0491E012947D8817B478025290CBF2721491E817399483CE0994841883F
:205BD00031800229C3F800E068D940F20442891A30D0491E62D040F2FB32891A23D00A3911
:205BF000012920D940F6F632891A57D0491E21D0491E012952D9891E13D0891E1AD0491EB4
:205C10004CD0491E16D0891E0BD040F2F632891A44D0491E0ED0C91E0CD0491E012902D904
:205C30000BE0814807E0817B478025290CBF2721491E81737D48186072E0002013F07CFB11
:205C500084206BE099F80200FF2855D07849C3F800E01C2209685043084440F20444418839
:205C7000744A3180091B012946D94FF47F74091B15D00A39012916D940F6F634091B0329ED
:205C900084BF491F01290FD9891E012934D940F2FD34091B08D0491E012904D93AE041F23F
:205CB0000141418000E045801A6039E099F80200FF2821D05E49C3F800E01C240968604358
:205CD00008445D4C4188318040F20446891B012912D94FF47F76891B17D00A39012916D9F1
:205CF00040F6F636891B13D0891E012984BFC91E01290DD9891E012976D940F2FD36891B77
:205D100006D0491E012902D904E0428000E045801C6005E0002013F00FFB852014F002FCB1
:205D300003B0BDE8F04345480078012109F054BC4A88328040F20443D21A55D040F6FC73E5
:205D5000D21A15D0083A4FD04FF47F73D21A22D13B4C3C4A24683C4800680023CDE900236C
:205D700008343A4B24680222A047394908803BE0092810D137480068408960B136480078CD
:205D90000EF094FE0021002014F098FB002020702AE048883080002013F0CEFA85201FE0C2
:205DB0004A883280022A0DD940F20440121A1BD040F6FC70121A05D0083A15D04FF47F70B4
:205DD000121AE8D1887B801CC0B2B528A8BF662088730020488007E0002013F0ADFA8420BB
:205DF000BDE8FE4314F09EBBBDE8F7836F4F0020204F0020159E0100684E0020504F00207B
:205E10001C2F0020204A002029420000B5D60000B5FB0000755B0110104F00209C4C00206F
:205E30006D1F01006C4C0020916200005D2B0100AC2F0020C586000031BB00006E4F002062
:205E5000F04E002002000080EC4E00202D6B0100424F0020B82F0020714F00202DE9F84F6A
:205E7000DFF8F443A078FF2804BF002013F064FAA07813F041FD04464FF4C97004F16806FF
:205E900025183068006804F1900708B100200EE0B07B002804BFB07E002809D13878002844
:205EB00001BF28780028207F012801D1608CE0832089E18B0818401C6081204612F032FE57
:205ED00001281EBFE5480078012804D10020E0832089401C6081B07E01280CD1B28B618945
:205EF000208914F0E7FA30B121896289481C82422AD0B28B1FE0387801280CD17A8861898E
:205F1000208914F0D7FA30B121896289481C82421AD07A880FE02878012815D16A886189EF
:205F3000208914F0C7FA00281FBF2189481C6289824209D06A88824206D0501E608180B23A
:205F500014F0B4FA401EE0832878012801BF68882189491C884207D16A792A71002028705E
:205F70001346A1790AF01CFD4FF49A702044007920B10020E0832089401C608104F12E07FD
:205F9000B07E012801BFB08B2189491C884237D1608104F18601204612F06EFFB08CE189E6
:205FB000608400202077E08360890818A0812189B08B14F07BFAB988328C01FB0028708C2C
:205FD000F28C884204BF3B899A4202BFB18CFB88994207D0110900914208B38CA179002065
:205FF00014F088FAB07F3870708CB880B08CF880F08C3881204613F01DF90220B07601E06F
:20601000B7F80480E08BDFF85892411C01FB08F140F6C41808FB01F200922268DDF800C006
:20603000D3686344DFF83CC2D360DCF800C08E4A9CF800C013884FEA9C1CBCF1030F12D178
:2060500099F80FC05FEACC7C48BF00230BD45B1C9BB2012B07D14FF49A7CA444BCF806C0B3
:206070000CF2DC5C01E0B4F812C00CFB01FC4FF4C87EBCFBFEFCDFF8F4A10CF1010CC4F80B
:2060900014C04FF01C0B138084F82000A161A279DAF800102068C3680BFB02F20A44926893
:2060B0000261A279D4F814C00BFB02F20A44A3EB0C039360A2790BFB02F20A44926882609B
:2060D000A0790BFB00F00844017B01F0F00141F002010173A179DAF800000BFB01F108441F
:2060F00000214180287908B913F026F9A179DAF800000BFB01F10844297949080174A17978
:20611000DAF800000BFB01F10844002141742879042812D1A179DAF800002A7A0BFB01F14B
:206130000844017C41EA82010174A179DAF800000BFB01F10844202141740022A079DAF830
:2061500000100BFB00F0084442824948A2790068D4F814C000EB4212536903EB4C03536179
:20617000B27E022A07D1A2793E7800EB4212536908FB0633536199F80F20D20740D5A27956
:206190000BFB02F20A449368A3F5A8639360A2790BFB02F21144226889689160009BC91AC2
:2061B0001161A17900EB41114A6902F5F6624A612979042906D1A17900EB41114A6902F5B2
:2061D000B0624A61A17900EB41114969C4F8341128490D6BBB88A2792D6808FB03F300EB28
:2061F00042125B1BA3F51673D361A27900EB4210214A1278012A0EBF0121896A497818E05D
:20621000A279297900EB4212042952690CBF4FF44B614FF4E661511ABA8808FB02F2A2F50B
:2062300016729142D4D30821204612F0CEFD01200FE0C172A179DAF800000BFB01F108447D
:206250002168486007200D490870204610F085FD0020BDE8F28F00BF684E0020784F00205E
:206270005C4D0020084F0020D02F0020AC2F0020B02F00201CB50100734F00206F4F002023
:206290002DE9F84FDA4DDFF86C832868DA4F807CDFF8689313F030FB29680446002048713B
:2062B00004F12E0A286810F06BF9012060711C2598F80100401C88F8010080200CF0AAFEC8
:2062D00020607969C160CE4801894900AAF802105146C07940008AF80000BAF80400400006
:2062F000AAF80400BAF808000001AAF80800204612F0C2FD0520A081204612F09BFF386874
:2063100014F0D0F8062210F8081FC1F3801184F82E11811C4FF49470204413F0BFF93968A6
:20633000B84F09680020087141F62202A1793868694342520022A179694301444A80A179D6
:2063500069430844426099F80200400609D5AE48008841F20A4188420CBFAC48AC48C4F8A7
:206370009C012046D4F89C118847A27939686A4311448873A1793868694308440021C17302
:20639000A179386869430844807B8AF80B0094F8960108B912F0D0FFA17938689D4E6943AD
:2063B000084494F89611491E01740022A17938686943084400214174A1793868694301441D
:2063D0004A82A179326802EB4112694301444A61A1796943084490498161A0790AF0A6F8D3
:2063F000A279316852018850A07940010A5822B90721204612F0E9FCF5E008441F220276C8
:206410003068A179DFF814B200EB411000214176DBF80000A17900EB011014F07BF8A1798F
:20643000DBF800203068DFF8F8B102EB011200EB41114A6004F16801A27900EB42125268E8
:206450000A60A279520182588A60DBF8141091F800C094F806E05FEACC714CBF10210021FB
:206470005FEA8C724CBF202200225FEA4C734CBF402300235FEA0C7C4CBF4FF0800C4FF0D7
:20649000000C1143194300EB4E104CEA010141F00F0101723068A17900EB41100B2141722E
:2064B0003068A17900EB4110042181723068A17900EB41105B49097801291CBFDBF82810A3
:2064D0000978C1723068A179626A00EB4111CA60A17900EB4110A16A01743068A17900EBA0
:2064F0004110A16A090A41743068A17900EB4110A16A090C817408214B48007809F06CF8D4
:206510002168A2793868CB686A4302449360CA680A61CA688A60A17969430844017B01F0D6
:20653000EF010173A179386869430844017B01F07F010173A179386869430844017B01F0B5
:20655000F00141F002010173A179386869430844417B01F0F00141F0010140F6C41341734E
:20657000BAF804203068A1795A43DBF830301B6800EB4111D21AA2F516724A61A17900EB38
:206590004110C17C01F0F00141F00401C174A1793868694308442168486099F80100800615
:2065B0001BD54FF497702044408F1B2801BF4FF497702018808F1B280BD14FF497702044FD
:2065D000C08FB0F5A47F04BFB4F86E01B0F5A47F03D0142120460EF095F8144908200870F8
:2065F000A07988F80200BDE8F14FFEF7BBBD00BF184F0020684E0020AC4B0020382F0020E4
:20661000844C0020AC2F0020504F002033480100F5550100B02F00205C4D00208C4E002037
:206630001CB50100734F00206E4F00206F4F00202DE9F04F0F46BD4C01686162416880686B
:20665000ADF1140DA060BA4861608047B948616A01606168DFF8FC924160A168DFF8F08293
:206670008160B549002FA246C16068D03D68E8788DF8080028798DF8090002A813F00EFF40
:20669000A86808B1AD490160E86808B1AC490160AC4C2878207068786070A878BE68A0703D
:2066B0003178E1707368636072696261B168A160F168E160316921612E697B68A6621868C2
:2066D000A0616869E062A8692063287F84F834002A6AA263786886681EB9002012F02CFE21
:2066F00000E026627868C06818B9002012F024FE00E060627868406818B9002012F01CFECE
:2067100000E0E0612869A062F86881680E6806B98E4E8D494FF0010B4E60C66881F801B034
:2067300026B9002012F008FEF86801E041460E6000684D46FE68A8617068E86105E000207C
:2067500012F0FAFD4FF0010B4D46D8F80000824944686A1C05F114035020A04718B1D8F888
:20677000000080688047DAF80400804703907B487C4C286100272771B946E770784EA77024
:20679000300BC6B2401CC1B226703846617028E0304639466A46042311F09CFA009BA07864
