:20000000004000203963010001C9011001C9011001C9011001C9011001C9011001C90110C1
:1C00200001C9011001C9011001C9011001C9011001C9011001C901103FC9011089
:20003C0080B54FF4FC720FF278011A4810F0D2FD194800210170012141740221C17601BD31
:20005C002DE9F0410FF25021144838220B684C688D68CE680F69D1F814C0D1F818E0D1F824
:20007C001C80036044608560C6600761C0F814C0C0F818E0C0F81C8020312030521EE5D1F7
:20009C004A688B68CC680968016042608360C460BDE8F081480400215903002100C000210F
:2000BC00410500217D0500212D06002170B51D46004C204787B2000010B5014800470000FD
:2000DC00D509000070B5614C6148254650358047022809D14034E1885E4A914204D1E97C5E
:2000FC00890601D4911DE18070BD70B557495A4A084650300378002B10D08379012B0DD181
:20011C00037C5B09DB0709D0097D544DC1746C7F20202043687790476C7770BDFF21C17420
:20013C00904770BD10B54E48484C804702280ED121464031CA88474B9A4208D1CA7C5209CE
:20015C00D20704D0227D920601D49A1DCA8010BD70B53E4843494030C07C4009C00707D032
:20017C003E4D41482C8B2043288388472C8370BD884770BD10B53B48344CAC388047214609
:20019C0053310A789309DB0705D04034A2730A7803231A430A7010BD2C4940310871182876
:2001BC0012D004DC0A280BD00B2804D10AE025280CD02A280CD02D4980004018C0687047DE
:2001DC002B4870472B4870472B4870472B4870472B48704770B504461C484E252D5CAE09AB
:2001FC00F60716D0067D3007000F052803D00120054202D00DE00220FAE7E80905D07006D1
:20021C0003D54868800F012803D05B085B0052085200062B03D01020022B11D011E0FB20F7
:20023C00024002232046FFF741FF002807DAC100611A2039497E1422114200D1002070BD93
:20025C00024303432046FFF731FF70BD4401002137CB000004140000EBC80000A800002142
:20027C00F5B4000053AD00002020000080DF00001D050021F9040021CD040021930400210F
:20029C006D04002110B5034CFFF716FF20680028FAD110BD0011044068610000F825F965B0
:2002BC00F9754500450045002600260057A3520052004C00401F401F401F3F000000000053
:2002DC00304000400140034007400F404F40CF40CF41CF43CF47CF4FCF3FCF2FCF1FCF0F6C
:2002FC00000000000000000000000F00080000003F00000040003F000000040068000E0093
:20031C00DC00060043001A00050000000000020000000000000000000400C00000000400B3
:20033C00C000000007000000000000000000000000000000000000003040004001400340A6
:20035C0007400F404F40CF40CF7FCF6FCF5FCF4FCF3FCF2FCF1FCF0F00000000000000009D
:20037C0050C00091007070C00091007082312100319110B10070018101B100A1823132910D
:20039C0010B101911110418141227740F106007051C0019130181039833108D01831416FD1
:2003BC003100319110B18314141683680070251050C00091F4C340C12014036F3110410497
:2003DC005082F0229840512622C082312100319110B163393110410482C08231210031919B
:2003FC0010B163393110A2C082312100319110B150101531051405920070676452C03110A6
:20041C0031066131C1026A6412C13110213971065131E1026A64007051C0019101CCE2C0CC
:20043C006A64676411C1C2C06A6450B054B0007140804022D6440022C94060B08180111EC9
:20045C00C944007054A064B0F0800022C9404012B09032B070C1DF6811C122C16A6470C1C0
:20047C00E46851C00191E2C0823160820200329110B130C2EE68538253395339B16460C347
:20049C00F4688012B09032B00070676401C122C16A6401C1C2C06A645382B164C012B09074
:2004BC0032B00070676472C281C06A6422C111C16A6402C011C16A6462C031C36A6462C3D2
:2004DC0011C16A6402C311C16A6453825339B164E2C36F6411221C4142C281C86A6452C24E
:2004FC0011C16A6472C2E1CE6A6402C281C86A6402C201C86A64B0C030690070676442C211
:20051C0001C86A6452C211C06A6472C2E1C06A6402C001C16A6462C001C36A6422C101C127
:20053C006A6462C301C16A6402C301C16A645382B16400708180111E5C4150B054B000712B
:20055C00408040225D4154A064B0F1800122514500700022514160B04E61000000000000AA
:20057C000000000000000000067305720B720E7250B00071818060B050A09280F0EFF1928C
:20059C0002936A6741228C458080F1C11004301601110114016CB561B661B761B861B9618D
:2005BC00BA61BB61BD61BF61C161C36126632D63F0C002043231412A121432160111211412
:2005DC00016CDA61C561E061C761CB61B561B561B561F461C561FA61C761CB61B561B56104
:2005FC00B561F461C561FA61C761CB61B561B561B561E761C561ED61C761CB61B561B56121
:20061C00B561CF61CF61CF61CF61CF61CF61C064CF61F964CF610665CF613265CF6174676A
:20063C00CF611166CF61C0644E65F964CF61066511663265CF618280E0DFF2926A67B0B044
:20065C00D661B1B00673057230B06C61D0CF6A6784C203C0C0C37C64207851788278E378B7
:20067C001579B6780062C0CF6A6784C203C0C0C37C64307861789278F3781579C678006250
:20069C00B0CF6A6784C203C0C0C37C6440787178A27803791579D678109221923292439281
:2006BC005492659256911FC0FF914039F00601101031101400927067CF61E3B054A0F08076
:2006DC0050221A4640800022BE461262E3A000C86091598150B0918041228E46A0CF6A6734
:2006FC0012828231823942398B641282F2062F101F312F141682D622334640C1346200C5AF
:20071C0020140D6F6D39DE10F4C34E0482C082312E006D39A2C082312D001A828A39FA0606
:20073C002082803180390BC00B18BC10AC18038239149B141082F0060110103110145181C2
:20075C0010140C14C622C94631D0C1266462021011C0013010C00118021882312100C126C2
:20077C00919103B013B063B053B041800122BE46B481C491D581B51C774E95186591F0803E
:20079C00102269428C623D9110B13E9110B1E08000228146E6228142E0B0951865910F926B
:2007BC005981F914F0805022114210228C464D6390CF6A6763B052A03082F2C0200402107E
:2007DC0011C0013010C00118021882312100C1269191919113B003B063B053B064B054B055
:2007FC00007141800122BE4663B064B0F08050221142B181C191D1819118619131B0A462D0
:20081C002967E0A059810582591480C0007163B0BA6A6962E3A0018262818231823D80EF61
:20083C00F19202936A6703A0007037824739873930828039F006021011C0013010C0011849
:20085C00021882312100C126819102B012B030824039F006021011C0013010C001180218E9
:20087C0082312100C126919103B013B063B053B0007153A062B052B041800122BE46A4816E
:20089C00C491D581B51CFE4E95186591F0801022F0428C62B481C491D4814518751C084FEB
:2008BC00F0801022F0428C623D9110B13E9110B1E08000221247E6221243E0B065910F92DC
:2008DC005981F914F0805022114210228C4630632967E0A0598105825914F0C0007162B038
:2008FC00226BF062A2808B64CF6112824239F2068B6050B00071CF6170CF6A674082418096
:20091C000122BE46A481C491D58195186591F18011228C46336B41800122BE46A481C491AB
:20093C00D581C51C1C4B95186591F08010223F438C6260CF6A67408241800122BE46B48169
:20095C00C491D58195186591F18011228C46506B41800122BE46B481C491D581C51CB44A55
:20097C0095186591F08010225C438C62E092D08200226B47C0B20070A080F022874330B033
:20099C0002C1623101C0A080001E8043F022814380F86031603981632010101A136F236E5A
:2009BC0011161216826B00702DE9F84FDFF81885DFF8181588F80000002008600921DFF891
:2009DC00100501700D2141804FF408718180DFF80405DFF8041501608A7EDFF80005027042
:2009FC00FF2ACB7E437008BFFF2B0D7F85704E7FC6708F7F0771C97F417115D1FF2D08BFE8
:200A1C00FF2E11D1FF2F08BFFF290DD1DFF8D0140A7802704A7842708A788270CA78C27025
:200A3C000A79027149794171DFF8B81402780A70FF2542784A7082788A70C278CA7002791E
:200A5C000A7140794871DFF8A014DFF8A004057045708570C5700571457100200880DFF888
:200A7C009014DFF89004466B70780870DFF8881430780870DFF88414B0780870DFF880142D
:200A9C0070690079401E0870DFF87814F0780870DFF87414B069086008B918F0A3FBF0692F
:200ABC00DFF86844206008B918F09CFB2068DFF86074006880472168091D384609688847E8
:200ADC00DFF85004DFF850143862DFF850047862306A086008B918F085FB706ADFF84014A5
:200AFC00086008B918F07EFBDFF838B4DFF838649BF8040018F03EFF306008B900F046B9DE
:200B1C009BF80500DFF8247418F034FF386008B9306838E19BF80600DFF8144418F02AFF74
:200B3C00206020B9306818F02DFF38682BE19BF80700DFF8009418F01DFFC9F8000038B9ED
:200B5C00306818F01FFF386818F01CFF20681AE1DFF8A41309789BF80000DFF8DCA3C91C98
:200B7C00484380B218F006FFCAF8080058B9306818F008FF386818F005FF206818F002FFD0
:200B9C00D9F80000FFE0DC480078010000F00381BBF80210DFF8A4B3484380B218F0EAFED8
:200BBC00CBF8040078B9306818F0ECFE386818F0E9FE206818F0E6FED9F8000018F0E2FEDB
:200BDC00DAF80800DFE0CC48007818F0D3FEDC49086098B9306818F0D5FE386818F0D2FE32
:200BFC00206818F0CFFED9F8000018F0CBFEDAF8080018F0C7FEDBF80400C4E0BE4800783A
:200C1C001C21484318F0B6FECE490860B0B9306818F0B8FE386818F0B5FE206818F0B2FE5B
:200C3C00D9F8000018F0AEFEDAF8080018F0AAFEDBF8040018F0A6FEC148A3E0AE4800780C
:200C5C00400118F097FEC0490860D0B9306818F099FE386818F096FE206818F093FED9F83B
:200C7C00000018F08FFEDAF8080018F08BFEDBF8040018F087FEB248006818F083FEB14810
:200C9C0080E09D480078000118F074FEAF490860F0B9306818F076FE386818F073FE206842
:200CBC0018F070FED9F8000018F06CFEDAF8080018F068FEDBF8040018F064FEA048006886
:200CDC0018F060FE9F48006818F05CFE9E4859E089480078000118F04DFE9D49086010BB0C
:200CFC00306818F04FFE386818F04CFE206818F049FED9F8000018F045FEDAF8080018F024
:200D1C0041FEDBF8040018F03DFE8D48006818F039FE8C48006818F035FE8B48006818F028
:200D3C0031FE8A482EE0744800783021484318F021FE8849086070BB306818F023FE38688C
:200D5C0018F020FE206818F01DFED9F8000018F019FEDAF8080018F015FEDBF8040018F0E2
:200D7C0011FE7748006818F00DFE7648006818F009FE7548006818F005FE7448006818F07D
:200D9C0001FE7348006818F0FDFD002018F02AFA4FF4804192E03168012008710022306864
:200DBC00057330684573306885733068C573306805743068457400203168C8723168487148
:200DDC00A0213068C180032101720720316848720020316888722821306841820121C1769C
:200DFC00002031684877316881F85E00012031680877316881F85D00396808713868057315
:200E1C0038684573386885733868C573386805743868457400203968C87239684871396886
:200E3C0088724FF420703968C88008818A7401213A68D17421680D7321684D7321688D7375
:200E5C002168CD7321680D7421684D7400212268D172012122681171002122685171216847
:200E7C00C8800881002088722168887405202168C8743948006880470546294800680068C0
:200E9C00804727490968091D00200968884719481C49C06809780088084330490880284657
:200EBC002F49096888470C212E4800F05DF80F4800F05EF800F060F84FF4005198F800006D
:200EDC00BDE8F44F0EF026BA6E4F0020044F0020604E0020084F0020B63F00502C4E0020BC
:200EFC00E81200503C4E00200C4F0020344E00206D4F0020E8B301007B4F00206B4F002089
:200F1C00724F00206C4F0020F04E0020F44E00207C4B002091990100F84E0020A199010086
:200F3C00FC4E0020E81C0020104F0020D02F0020184F0020D42F00209C2F0020684E0020FE
:200F5C00004F0020CC2B0020CC2F0020884E00208C4E0020904E002058160020544F002095
:200F7C005C160020F84D0020DFF800F0E5710110DFF800F01D6E0110DFF800F04D71011037
:200F9C00B0B5174C241D20680004070C23D01248006800688047114991F90720824205DDF8
:200FBC0010F1800FB8BF6FF07F00C8718D88BD4210D80A68D4F8D40F801A801C1F2888BF16
:200FDC001F207F1B4008C7404FF6FF70EF19B84238BF071C8F80B0BDEC010010C42F002071
:040FFC003010094068
:20100000B41200001810000015AB0110FDB301106DC00110FDAE011099B5011000000000F7
:08102000000000002F00000099
:20102800B01200003C100000B1C00110A9BF011067C0011069B80110000000000000000035
:041048002D00000077
:20104C00B012000060100000BDC00110CDB30110D9BD01106DB3011000000000000000005B
:04106C002E00000052
:2010700000000000101D002004000000000000000000000020000000E8C9011030000000FD
:2010900028100000181D00200400000000000000000000000C000000D8CA011018000000D8
:2010B0004C100000201D002004000000000000000000000024000000F0CA0110180000005C
:2010D00000000000281D00200400000000000000000000001000000018CA01102C00000068
:2010F00000100000301D0020040000000000000000000000200000006CCA011024000000D4
:20111000FFFFFFFF381D00200400000000000000000000002800000090CA01102400000093
:20113000FFFFFFFF401D00200400000000000000000000001400000008CB01101800000012
:20115000FFFFFFFF481D002004000000000000000000000058000000B4C9011034000000E0
:20117000FFFFFFFF501D00200400000000000000000000001000000020CB011018000000AE
:20119000FFFFFFFF581D00200400000000000000000000001C000000B4CA011024000000DB
:2011B000FFFFFFFF601D00200400000000000000000000003800000044CA01102800000003
:2011D000FFFFFFFF681D00200400000000000000000000005400000078C901103C00000078
:0811F00001000000ACB3010096
:0411F80001000000F2
:0411FC0000000E00E1
:0412000000000F00DB
:0412040032000000B4
:0412080001000000E1
:04120C00781B00202B
:0412100000020000D8
:0412140000000000D6
:0412180001C90110F7
:04121C0000000000CE
:0412200000000000CA
:0412240008000000BE
:04122800000023009F
:04122C00201A002064
:0412300001000000B9
:04123400901B0020EB
:0412380008000000AA
:04123C00381B00203B
:0412400000000000AA
:0412440000000000A6
:04124800080000009A
:04124C00000000009E
:04125000000000009A
:041254000000000096
:041258000000000092
:04125C00010000008D
:04126000881A0020C8
:041264000600000080
:041268000100000081
:04126C00CC1800207A
:04127000000000007A
:041274000000000076
:041278000002000070
:04127C00000000006E
:02128000290043
:02128200010069
:02128400250043
:021286002D0039
:021288002E0036
:02128A002F0033
:02128C0001005F
:01128E00015E
:081290000300000060B301003F
:0812980000000000000000004E
:0412A0000000010049
:0412A4000000030043
:0412A80013C401105A
:0412AC004597010061
:0412B000B812000070
:0412B400B81200006C
:0412B8000000000032
:0412BC00901B002063
:0412C000CD980100C4
:0412C4002000000006
:0412C800B4B20100BB
:0412CC00DCB1010090
:0412D00029C101101F
:0412D4007776010028
:0412D800E77A0100B0
:0412DC00A1C7011095
:0412E000A3C701108F
:0412E4000000000006
:0412E800D7B2010078
:0412EC00D8AF010076
:0412F000F0AF01005A
:0412F400C0AF010086
:0212F8000200F2
:0212FA000900E9
:0212FC000100EF
:0212FE000000EE
:0113000001EB
:041304004D980100FF
:04130800D17501009A
:04130C009D8B0100B4
:0413100085790100DA
:04131400B57A0100A5
:041318000976010051
:04131C008132010019
:04132000B79A010077
:04132400094A010071
:0413280015C70110D4
:04132C0025C70110C0
:201330002DE9F04FDC4C04F118012046ADF14C0D14F0ECF804F1A0050021284619F0B8F8EB
:20135000DA4E1020DA49E561F21D09F075FFD9490025012204F59A700095134614F050FB96
:201370004FF400510091D44944F620622B4604F5AC7014F045FB4FF480410091CF4949F6A9
:2013900040422B4604F5BE7014F03AFBCC494FF400304FF4FA622B46009004F5D07014F085
:2013B0002FFBC8494FF480004EF660222B46009004F5E27014F024FB4FF480710091C2491A
:2013D00044F620622B4604F5F47014F019FB4FF480510091BD4904F5037049F640422B4612
:2013F00014F00EFB4FF400010091B94904F50C704CF250322B4614F003FBB64F07F118003C
:2014100007F10C010FF03AFCB349B86018F084FBDFF8C882B8684FF4E0214246521E16F064
:2014300057F9B8684FF4E021424616F051F9DFF8B082B8684FF0C0514246521E16F048F958
:20145000B8684FF0C051424616F042F9A549009507F12400C8222B4614F0D2FAA248294620
:2014700078604FF0804013F085F9606104F1B80104F1AC000FF002FCDFF87092E06221219A
:201490001E22484617F0B2F9994829464FF6FF7217F0ACF9974829464FF6FF7217F0A6F960
:2014B000954829464FF6FF7217F0A0F9934829464FF6FF7217F09AF96769DFF844824FB173
:2014D0004846067936B141468F60CD6003220A7016F05AF88B4910200B2209F0ADFE8A4EC1
:2014F00010200622A023314609F0A6FE10200722A023314609F0A0FE10200822A0233146EF
:2015100009F09AFE10200922A023314609F094FE10200A22A023314609F08EFE10200B2292
:20153000A023314609F088FE102002224FF4FA63314609F081FE314610200C22502309F0BE
:201550007BFE314610200D22502309F075FE314610200E22502309F06FFE314610200F22C5
:20157000502309F069FE102031465023024609F063FE314610201122502309F05DFE3146B4
:2015900010201222502309F057FE314610201322502309F051FE314610201722502309F033
:2015B0004BFE314610201822502309F045FE314610201522C82309F03FFE31461020162264
:2015D000C82309F039FE3146102019224FF47A7309F032FE314610201A222B4609F02CFE2E
:2015F000207816F089FDD6490246102009F024FEA9468DF8295040F2053001210DF1290266
:20161000ADF81E900AF0B8FA40F2063002210DF11E020AF0B1FA04F1D0024FF442700F2181
:201630000AF0AAFA04F5827240F2073016210AF0A3FA0F2001210DF12A028DF82A0040F27C
:2016500004400AF099FAD64E04F19000D54DB0612878E071307816F04FFD0246F07A06F139
:201670003407009006F144030197D449029306F1140703977378102009F0DEFDE1794800CA
:2016900000EB011080B210F0BBFD206300283DD0E779002F3BD001E0080200204FF6FF7142
:2016B0003E46761E20F8121BFBD130E0D8B20100A1B50010616A0100E99901007199010096
:2016D000D9990100199A0100299A010061990100C999010018190020C97001000E00058093
:2016F0000E0000107197010035950100E4190020E816002080180020E8170020341800206A
:20171000001C002081B30010BD840110E779380110F076FD0746A76357B1E67946B1484698
:20173000F8803870B8807880761E07F11007F7D104F1EF00C94900904A461523102009F067
:201750007BFDC74910204FF0FF3209F075FDC54910204FF0FF3209F06FFDC34EC34F102080
:201770001323C34A00903146019709F065FD2878800010F045FDBF4A01469346916069B186
:201790004FF6FF7015F070FFBB4910200BF12402009011230191314609F04EFDDFF8DCA255
:2017B0001020514609F048FDB5491020042209F043FD0125022603278DF82B5004208DF866
:2017D0002C60D54A8DF82D7008AB8DF82E00921C1079116818710DF12B02196048462946EC
:2017F0000CF0DEFE0BAA284601460CF0D9FE0DF12D02304629460CF0D3FE0DF12E02384639
:2018100029460CF0CDFE0420052108AA0CF0C8FE04F14800CBF804005146102009F00CFDF7
:20183000207816F069FCD4490246102009F004FD207816F061FCD1490246102009F0FCFC88
:201850008DF8337030468DF8305001238DF832500DF131078DF82F901E468DF831004FF4D3
:2018700080620097D04D8DF834601020294609F0E3FC0DF1320040F2024233460090294614
:20189000102009F0D9FC0DF1330040F20342334600902946102009F0CFFC0DA80090294672
:2018B00040F206423346102009F0C6FC0DF12F00294640F2114233460090102009F0BCFC2F
:2018D0000CA8294640F2044233460090102009F0B3FC04F1DF001023294640F205420090FD
:2018F000184609F0A9FCCDF800902946102040F209424B4609F0A0FCBC4904F19802102081
:2019100009F09AFCBA49102009F096FC4F460F974E461096CC4D11954FF0010B129552E210
:20193000780A08D2780C03D2380EC0F04C8290E084F808B047E2072017F04CF943E2C046B3
:2019500051880110616AB80E44D2A16AB80D3FD2A07A002834D0401E26D0401E15D0401ECA
:2019700040F03182B80AC0F02E82606904F18001002306C99A4203BF1A1C9142BFA3C3A3B2
:201990001421002216F0B1FDC9E1380AC0F01B8211F05CFA012800F0BC810320A07212E21D
:2019B000800A0020694F0020380E02D2780E0FD209E20220A07214F053F904E27541010008
:2019D000780A80F0BB81780D28BF84F80AB0FAE18847F8E1C848B7E1616AB80E3CD2A06A53
:2019F000B90D80F0AE81607A28B3401E14D0401E40F0E981780FC0F0E681109904AA084640
:201A100082E80300032004AA08210CF0C9FD012800F0988003200CE0380E09D2780EC0F0F6
:201A3000D281606911210022C8A316F05EFD87E102206072C7E1780A07D2780DC0F0C38182
:201A500084F809B013F070FABDE113F06DFAA06A80474FF4803109E1CC4875E10121010090
:201A7000A18D0100759101004F8001003CB30100AC1000205C13002048B3010035140100AF
:201A9000A5940100B80D80F08980607B002877D0401E5ED0401E41D0401E40F09481F80AD4
:201AB000C0F09181C449002014F052FE04F178020CCA04F1700003C804F18807121A8B41E2
:201AD00097E8030004F18006121A8B4196E8030000250027801841EB0301CA0F12184FEA30
:201AF000520045EB0103D90708435910454267EB010618F0D9FC04F1680106C904F1680372
:201B1000491942EB060283E8060018F0C9FCA06A8047A84835E1C046D8B20100F80AC0F0C6
:201B3000528117F057FB04F1800282E80300A34A032008210CF034FD01281CBF0320607325
:201B500040F0418160690F210022C5A316F0CDFC0EE0F80AC0F0378117F03CFB04F178022C
:201B700082E80300C749002014F0F2FD022060734FF480617AE0C04631810110899B010064
:201B9000380E0ED2780EC0F01E8160690F210022C3A316F0AAFC002014F07AFF14F08AF9E9
:201BB00011E184F80DB00EE121760000616AB80E62D2207B00284DD0401E0BD0401E40F0F8
:201BD0000281F80BBFF43EAF380D3FD2780DC0F0FA80B5E0266C380C0CD2F80CC0F0F3805A
:201BF000BD4818F091F802202073ECE0E58F0100C5AB0010002E29DDB84F00203D460E904D
:201C10008146AD1C05F1010AC6485146052216F075FF28B997F918008145C4BF81460E95A1
:201C3000761E07F1190705F119050AF1190AEBD10E9FBD4880F8009047B100202B213A465C
:201C50000FF018FDBFE0C04640E20100032011F039F9B8E0F80C0DD2B80BBFF4F3AE380D6B
:201C7000C0F0B18084F80CB04FF40041A06918F013FCA8E0C34884E0C34865E02053706FFE
:201C900074206973206F70656E2100C053706F74206973206F636375706965642100616A17
:201CB000B80E50D2A06AB90D4BD2E07A00283ED0401E30D0401E21D0401E10D0401E40F036
:201CD0008280B80A7FD317F085FA04F1880282E8030016F06DFFC8B90520E07273E0B80AED
:201CF00071D317F077FA04F1700282E8030016F05FFF58B90420F0E712020020380A62D329
:201D100011F0A4F8012804D00320E0724FF40071ACE78021AAE7380E05D2780E53D3002042
:201D300014F0B6FE0CE013F09BFF0220D5E7780B04D2780D28BF84F80BB044E014F0DEF87A
:201D5000A06A80473FE0B64888473CE0426F6E64696E67206661696C656420776974682058
:201D70006D61737465722100E678380B10D2F80E0AD2380F27D3062011F0A4F813F024F81E
:201D9000C04817F0C1FF1EE00220F5E711020020002E1CBF0020071C03D10DF097FC4FF046
:201DB000FF37606967B914210022BEA316F09DFB09E0C046380400209002002088020020F7
:201DD000062016F019FFA06900216FF000524FF0FF3318F05DFB071CF5D0002006900AA9B2
:201DF00006AA07A815F0FAFD002871D1BDF81C005E46102867D120789DF82810884262D1C7
:201E1000069801884FF6FF728A4259D14088C00859D3656B002D56D0A07805F10803401C8B
:201E3000A070B04900936A882B79102009F004FA5FFA80F9B9F1160F26D02078B9F1040F4D
:201E500022D0656B16F058F903460020BE4900906A88102009F0F0F9484611F0CFF932E0EC
:201E70004572726F7221204E6F74696669636174696F6E2073656E64206661696C656421B0
:201E900000C046C078020020A078009098F8001060690022B7A3491DC9B216F026FB12E04B
:201EB00050616972696E67206661696C65642120446973636F6E6E656374206E6F772100E3
:201ED00000F0BCF90646069810B10EB117F0F2FEF80FC0F0188110E184030020AC04002034
:201EF000E569284618F0D0FA854208BF002602D0866815F039FE301C00F0FF806269318855
:201F100098F800009446491E00F0EE80491E00F0AD80891F5CD0083908D0103900F0CF8089
:201F3000E8E0C046580200203803002071688D78002D4BD0012D38D0022D27D0032D40F00C
:201F50009180CD7865B90988C01C00228DA30091C1B2604616F0C9FAB74817F0D5FE81E091
:201F70000A880092C978C01C8DA300220191C1B2604616F0BAFA4FF08071A06918F08CFA92
:201F900070E0C0466003002014020020CD78002D68D10988C01C009188A3C1B21046002263
:201FB00016F0A3FA4FF40001E7E7CD784DB989A309880091C01CC1B21046002216F095FA67
:201FD00050E00988009189A30195F3E78CA3EFE770680078010925D2400943D30E2017F019
:201FF000C9FB00283ED1D8F8040098F8011003790A46934211D0FF2A34D000EBC203DD68BD
:202010002DB900EBC100006915F0BEFA2AE000EBC20003690846984724E08068F4E7C046DB
:20203000130200200D2017F0A5FBD8B9D8F8041098F80100097981420FD0FF2812D0401CF8
:20205000C0B215F07DFCFF2802D1002015F078FC88F801000BF0DCFD04E0002015F070FC23
:2020700088F80100706815F07FFD43E07268A069117879B1891E07D0891E10D14FF08051A7
:202090000AE0C0461404002002200DF1350114F05FFB03E04FF4806118F0FEF9726810461E
:2020B000E1E7C0464572726F722121416C7265616479207363616E6E696E672100C0756805
:2020D0001199C01C009154A3C1B21046002216F00CFA1298009056496A890023102009F0D3
:2020F000ABF8BFE7DDFE0010706800F0A7F8706817F0E0FD304615F037FDE06918F0C0F9C0
:2021100000283FF4EDAE380B09D317F063F88DE803006069002244A30C2116F0E6F9266A4C
:20213000A6B1761E3FF420AE761E3FF4B8AD761E3FF43CAD761E3FF4A5AC761E3FF44CACF0
:20215000761E3FF4FFAB3EE6B3980100380BFFF4E7AB072016F050FD364817F0D5FD207A5B
:2021700000283FF430AE052010F0ACFE0020207229E6C0465273702073656E642072657416
:2021900072793A0043786E20256420626F6E642073617665207375636365737300C046C0C7
:2021B00043786E20256420626F6E642073617665206661696C65643A2025640043786E20FA
:2021D000256420626F6E64696E67207375636365737300C0636F6E6E48616E646C6520254D
:2021F000642070616972656400C046C070616972696E67206661696C65643A20256400C0FE
:20221000636F6E6E48616E646C652025642070616972696E6700C04650617373636F6465C9
:202230003A20256400C046C0703A20256400C046E97A0100F0030020380400202DE9F04F64
:2022500005460120ADF1240DD44C07902878913800F07A83DFF84893DFF848831F3800F08B
:20227000A282203840F0DC83484606780590E16B6769A878002800F05D82401E00F0C281DE
:20229000801E00F02582401E00F0A081DFF83493DFF834A3401E00F0C080401E4BD0401ED9
:2022B00000F00782801F40F0BB83E878002830D1666C05F10508002E1ADD04F568773846AF
:2022D0004146062216F01AFC70B928692B2116F0DFFB68B12879691D11F044FE002840F062
:2022F0009F834FF0806189E1761E07F11907E6D1E87870B928692C2116F0CAFB48B12879F3
:20231000691D11F02FFE002840F08A834FF0006174E1E878022840F083832869C07A2A28C2
:2023300040F07E83286900906968AA68EB6828680DF0F8FD74E3192204F593604A43002157
:2023500010F01FFC002610204146E66308F074FFC7B2A88816F030F8E1796082814240F3B8
:202370005F83226B41004FF6FF7301EB0011079D5352A26B0301D65405FA00F0D118CE803F
:2023900082B23146484616F031FA608A314605FA00F082B2504616F029FA608A8540CA48BF
:2023B0003146AAB216F022FA27B9C84831461C2216F01CFADDF814A0D4F814909AF800507C
:2023D0001020414608F038FF6D1C00903246C5A3E9B2484616F089F860699AF8001032467B
:2023F000C4A3091DC9B216F080F8E079401EB84210D15546297860693246C2A3891CC9B2B3
:2024100016F073F8297860693246C3A3491DC9B216F06BF84FF40011F0E06B78002B40F047
:20243000C380361D38460022BFA3F1B216F05DF80598676906784146102008F0FDFE761CCF
:2024500000900022A7A3F1B2384616F04EF82E1D0020207105F1040CB5F80AE094F8078057
:202470000696B8F1000F10D0266B0746014642464FF6FF70123E36F8123F984208D0521EC6
:2024900007F1120701F10101F5D1904E15273CE0A6F800E08846604613F0B0F8B61C014675
:2024B0000F2230460EF09CFB0798002200FA08F01FFA80FB4846594616F098F9504600220D
:2024D000594616F093F94E46DFF8FC9100225946484616F08BF9206B4FEAC8033F18991952
:2024F00003EB0A02BF1C794ECF60F088D76003EB0901CF60400904D230461C21002216F031
:2025100075F95FFA88F794F807802649102008F093FE804512D807994FF0000840F205302D
:2025300004AA8DF8108009F027FB059960690978B6A34246891CC9B215F0D7FF0599236BBD
:20255000097860697A0002EB0712491D9B18C9B200229B1C15F0C9FF304615F015F86889EE
:20257000276AE081032F16D1069904F21B100A688988026010258180666984F81A5113F0AC
:202590003DF8009094F930010022C8A329460190304615F0AAFF4FF480112FE008020020EA
:2025B000001C0020F17F0110361D38460022C6A3F1B215F09AFF6878009005980678C6A3BD
:2025D000761D0EE080180020E8170020E5794146102008F031FE854205D848460678CCA338
:2025F000B61C676969E0494660690978002245A3891CC9B215F079FF4FF40021A06917F0EC
:202610004BFF0DE20020E070062016F0E3FAE878E063E878E0B12D480221002216F0E6F8C6
:20263000079F04F5936A00264FF0190BB946E878B04214DC0E2E0BDA4F4607FA06F082B243
:20265000C048002116F0D2F8761CF6B20E2EF4DBE878009005980678B5A3361DC1E76868FE
:202670004FEAC60808EB00035A780BFB06F101EB0A077A7010F808009B1C0AF8010019684C
:20269000B81C01609988818012F0B8FF083701460F2238460EF0A4FAAA484044C760A948BB
:2026B00009FA06F3002299B216F0A0F8771CFEB2BDE7E878361DC4A300900022F1B238462F
:2026D00015F013FFACE1C04634180020E4190020B61C38460022CDA3F1B215F006FF4FF4E5
:2026F00080218BE7436F6E6E656374656420746F20256400446973636F6E6E6563746564A5
:202710002100C046526561647920746F2041647665727469736500C0526561647920746F0B
:20273000205363616E00C046436F6E6E65637465642100C068892082E81C12F05FFF03462A
:2027500031460022384615F0D0FE4E46317860690022B5A3491CC9B215F0C7FE31786069E3
:202770000022B5A3091DC9B215F0BFFEEF1CCF48396801607E684660079ACD49102008F0DD
:202790005BFD04F15B014FF441700CF09FFC4FF0FF3084F81A01032010F094FB04F59A703B
:2027B00017F0B2FA3CE169782078162938D048462979666900787E2900F104001DD07F29D1
:2027D00018D01B2938D1E9686A8904F180000EF007FA04F1800003C800229AA38DE80300E5
:2027F00030460C2115F081FEA0694FF4007117F053FE21E0298995A301E0297A97A3009153
:20281000C1B20022304615F070FE15E043616E2774206164763A206E6F206C696E6B7300B5
:2028300015F06AFC03460420A24900906A88102008F002FD002863D04146102008F0FCFC1A
:20285000002857D0688815F0B7FD60822A790B2A23D0012A02D1297A0A291ED0132A0DD0E7
:20287000012A02D1297A122908D0A16B0001085C00283FD0284609F0A1FB3BE04946606976
:202890000978012A07D0627978A3521CD2B26271521ED2B228E079A325E0494660690978F4
:2028B000012A1FD0EA68127878A31DE04E65787420686F7020616464723A2025732C207289
:2028D0007373693A20256400436F6E6E656374204661696C656400C0526561736F6E3A2005
:2028F000256400C06DA32A7B0092491D0022C9B215F0FBFD297905F1080017F0BDFD8FE068
:20291000079810F07BFC65630020079088E0C04643616E277420416476203A204D617820FC
:20293000636F6E6E73207265616368656400C0464465766963657320466F756E64202564EC
:2029500000C046C0E816002068780E3844D0801E62D02E3864D1A878266C802860D10A2E1B
:202970005ED0002E05F10509A0460DDD08F2A627344648463946062216F0C0F800284FD09C
:20299000641E07F11907F4D14A461168192000FB068404F52974A01C0160918881801046DE
:2029B00012F02CFE01460F2204F108000EF018F9E87AE07595F90C00207628796070771C6C
:2029D000C8F840702CE0C046506172616D2055706461746520256400A88842F2030181421D
:2029F0001ED1A9680878D8B9491C02A80A684968026002AF416038782F4902AA00F0FD000F
:202A10003870102008F018FC0AE0C0464164766572746973696E67000820002107F018FFFB
:202A3000079809B0BDE8F08F436F6E6E656374656420746F203000C0496E697469616C6931
:202A50007A65640054323A20257500C04D54552053697A653A20256400C046C04643205690
:202A7000696F6C617465643A2025640057726974652073656E743A20256400C05772697453
:202A900065204572726F7220256400C052656164207273703A20256400C046C05265616418
:202AB000204572726F7220256400C046171000204D880100B398010095B400102DE9F04F16
:202AD0000F4685B0804617F8010B8DF800004FF4B07008EB00044FF49C7008EB00059DF8C0
:202AF00000104FF4C67008EB0006182908F1E70A08F1660908F20D1BDFF86C0700F2A1832F
:202B1000DFE811F019007200660194009F039F03FD007903140127010101100138019F036F
:202B30009F0384019F0368015C018503E402E40236029F03810217F8010B88F88600022200
:202B5000394608F1880017F093FC0146022208F18A0017F08DFC0146022208F18C0017F05A
:202B700087FC0146022208F18E0017F081FC074698F88600400088F8860008F1860108F12A
:202B90008600022240884000488008F1860080884000888008F186000089000108813946CB
:202BB00008F1840017F064FC08F10601B9F81E004988401A80B247F6FF7188422BDA08F180
:202BD000860008F18601C0888988401C4900484308F186010989884228BF3B2080F0408206
:202BF000012089F81C001CE00522394608F1610017F03EFC0146022208F1920017F038FC99
:202C100008F1860008F1060180894988401A80B247F6FF71884280F2228208F18601012091
:202C3000887208F10601002008834CE29AF81600C0070AD41A208AF80E009AF80D000128D2
:202C500008BF0D213FD00D21D7E1002089F8000089F80600082201208AF81100394608F1FC
:202C7000B00017F005FC0146022208F1B80017F0FFFB08F1A80401460822204617F0F8FBF9
:202C900007460821204617F0EFFB08F19C0404223946204617F0ECFB0421204617F0E4FB54
:202CB00008F1A00017F0DCFB08F1980017F0D4FBDFF8B805018841F0800101809AF80D0037
:202CD000012806D10421404605B0BDE8F04F14F0D3BA99F81000012804BF99F811000F28A9
:202CF0000BD1404611F068FF0421404611F026FC0F2089F81A00FD217FE104217DE1012040
:202D10008AF80F00ACE2002089F8000089F806008AF800000B2101208AF80D0000208AF85C
:202D300001006AE101208AF8100099E2002142187B5C547A23437B5452781A4008EB010399
:202D5000491C082983F8FD20F1DB404611F0D2FA7CE2002142187B5C547A23437B54527899
:202D70001A4008EB0103491C082983F8FD20F1DB022053E299F8060008B93D2070E19BF808
:202D900000000128D1D017F8010B8BF8030002224FF489703946404417F06AFB01464FF45F
:202DB0008A700222404417F063FB01208BF800009BF8020000281BD10C211EE19AF81600DB
:202DD000C00601D41220D9E0404612F0B7FC3DE2387845E1387820707878607099F810008C
:202DF00001280DD199F811000F2802D0162803D036E20120687333E2307B40F001001EE2FB
:202E100005B0BDE8F04F002016F0F2B99AF81600810706D41121084201D10F20AEE01A22E7
:202E300054E03878797800EB01202882F978B87800EB012068827979387900EB0120A88287
:202E5000F979B87900EB0120E882387A2876B97A787A00EB01206883397BF87A00EB0120AB
:202E7000A883B97B787B00EB0120E883397CF87B00EB01202884B97C787C00EB0120688478
:202E9000397DF87C00EB0120A884B97D787D00EB0120E8844FF4AA7040440490688B039022
:202EB000287E029008F1060040880190E88A0090AB8A6A8A298A40460FF0F0FB68B19AF879
:202ED0001600400701D40F2058E01E22404605B0BDE8F04F0F2113F06BBF688A08F186011B
:202EF0008880A88AC880E88A0881022088F886000020488008F1060108F10600C08DC01D0C
:202F1000A9F81E0008F18600898D808888420FD108F1860008F10601C088C98D884207D1DC
:202F300008F1860008F106010089098E88421DD099F81000012804BF99F811000F2807D0EE
:202F500099F8150020B10F2089F81A00FE2154E0FC21404611F0F2FAE88A0090AB8A6A8A12
:202F7000298A98F8060017F073FA79E1102144E09AF817000921084203D116208BF80C001F
:202F900061E17978387801F00701084038700146707B0840F07212D0411E08420DD04007CA
:202FB00003D5B07B08B1042003E0F17A0220014201D0F07201E04008F9D1F07A08B9B07AF3
:202FD000F072F07A042803D1404612F07EFCA083F07A17F039FA3071A28BB17B012313F02B
:202FF00057FC0146208B884205D3A28BB17B3079012313F04DFC70801721404605B0BDE860
:20301000F04F11F09BBA78783978814207D100F007000840387034D0421E10420FD01E2213
:203030001821404613F0C4FE98F80610002300221E200DF059FB307B40F04000FFE0F07226
:20305000F978B87800EB0120308108F1060130894988401A80B247F6FF71884206DB28204C
:203070008BF80B0001208BF80A00F9E00120B071F07A042803D1404612F027FCA083F07A47
:203090000BE099F81100162806D1B27A98F80610134600200DF028FBB07A3071A28BB17BEF
:2030B0003079012313F0F4FB0146208B884205D3A28BB17B3079012313F0EAFB7080307B04
:2030D00040F04000307301202870C9E03878797800EB01206082F978B87800EB0120E082CD
:2030F0007979387900EB01202082F979B87900EB0120A082A18AE089884288BF0846B17A80
:20311000042904D1B0F5296FD8BF4FF42960E28BE0839042B07A14BF4FF001094FF00009CD
:20313000042803D1404612F0D0FB04E0A089E18A884288BF0846A28BA08390422089628A9E
:20315000238B14BF01210021904288BF1046984241EA090114BF0122002242EA0105208330
:20317000A28BB17B3079012313F092FB0146208B884205D3A28BB17B3079012313F088FB49
:2031900070806189208A628B814288BF01466183914214BF0120002005438A42344998F871
:2031B0000620096801EB4211628B8041121DC00F0A7610B1404614F0D9FA9DF8000014280E
:2031D00010D145B1E08B0090638BA28B218B98F8060017F035F9404605B0BDE8F04F152126
:2031F0000EF076BE1DB1307840F008003070307840F020001BE038780E280ED00F2809D078
:20321000122804D014280CD0162812D028E00020287225E00120287322E003208AF8150019
:203230001EE0307840F00200307040F01000307016E0307B40F00200307340F010003073CD
:203250000EE08BF80C10404611F09AFE40B905B0BDE8F04F074800784FF480410CF060B841
:2032700005B0BDE8F08F00BF582F0020524F0020CC2F00206E4F00202DE9F04F0D4685B069
:20329000814615F8010B8DF800004FF49E7009EB00064FF4B0709DF8001009EB00044FF42B
:2032B000C670891E09EB0007152909F20D1B09F1E70809F1060ADFF8680700F29C83DFE8B4
:2032D00011F00F019A031600440048007A039A03C3009A037D00D600810088001701E901B6
:2032F000280204018403E802E8022F02A00209F1A00608222946304617F0BAF80546082185
:20331000304617F0B1F809F1980404222946204617F0AEF80421204617F0A6F8002148425E
:20333000484409EB010290F89F0082F8BF00491C0829F4DB09F1C702314609F1D70017F023
:203350007BF8012088F8000066E3012088F8130062E398F80D1098F81600012900F010008A
:203370000DD130B10020707130684108B07910F0C5FD9AF80000002117F05AF811E050B1B3
:203390004FF4A17009EB0003306842084946DFF8940616F027FC9AF800000122002117F0EA
:2033B00043F8012089F86600484613F0EEF809F166010120887188F80F002DE3012088F888
:2033D000100029E3287888F80E00012088F8140022E398F8121001291DD198F80010012945
:2033F0004DD098F81610090704D40E208BF80C00072100E2002142186B5C567A33436B54F4
:2034100052781A4009EB0103491C082983F8FD20F1DB0921EFE198F81610090758BF0E2081
:2034300058D5002142186B5C567A33436B5452781A4009EB0103491C082983F8FD20F1DBF2
:20345000484610F057FFDDE2002142186B5C567A33436B5452781A4009EB0103491C0829C0
:2034700083F8FD20F1DB022088F81500D4E298F81200012804BF98F80000012806D13D20F0
:203490008BF80B0001208BF80A00C5E29BF800000128FAD015F8010B8BF8030002224FF4AD
:2034B00089702946484416F0E3FF01464FF48A700222484416F0DCFF01208BF800009BF8D4
:2034D00002000028E1D10C2195E198F81600C00658BF122040F19182484612F02FF991E239
:2034F00028788BF80B00F02100208BF80A000AE198F81600810707D41121084208BF0F206A
:2035100000F07B821A22F6E009F16601097C012902BF09F16601497C0F2911D009F166012B
:20353000497D0A0003D009F16602527C22B109F16602127F012A05D1400758BF0F2064D51B
:203550002322D8E021B109F16601497C012904D009F18601897A012905D1400758BF0F2057
:2035700053D52A22C7E02878697800EB0120B081E978A87800EB0120F0816979287900EBF6
:2035900001203082E979A87900EB01207082287A3075A97A687A00EB0120F082297BE87AF7
:2035B00000EB01203083A97B687B00EB01207083297CE87B00EB0120B083A97C687C00EBFB
:2035D0000120F083297DE87C00EB01203084A97D687D00EB012070844FF4AA7048440490F5
:2035F000F08A0390307D0290BAF802000190708A0090338AF289B18948460FF04FF838B171
:2036100098F81600400758BF0F2040F1F68171E0F08909F186018880308AC880708A0881E7
:20363000022089F886000020488009F16601BAF82E00C01DC88309F18600BAF82C1080888A
:20365000884201BF09F18600C088BAF82E10884206D109F18600BAF830100089884217D0CB
:2036700009F16600407D28B109F166010F208876FE21C0E0FC21484610F060FF708A009063
:20369000338AF289B1899AF8000016F0E1FEC3E10021B0E0A878E97800EB012628796979C6
:2036B00000EB0124A879E97900EB012705F10B000490A3B2687AA97A00EB012080B2039094
:2036D000B2B2287A0290BAF802000190B8B200906978287800EB012081B248460EF0DEFFDA
:2036F00058B198F81600400758BF0F208DD5484611F062FA1E220F2134E009F1860000210C
:203710008680C4800781484605B0BDE8F04F13F0B3BD2878207068786070012070727BE1EE
:2037300098F81700C00758BF162040F1668109F16600407C16281ABFBA79012A232210D0F0
:20375000002818BF01280BD00F281EBF09F16600007F01281EBF09F18600807A012807D1E2
:203770002A221621484605B0BDE8F04F13F020BB6978287801F0070108402870797B08401B
:203790001CBF411E0842F8720DD0400703D5B87B08B1042003E0F97A0220014201D0F87229
:2037B00001E04008F9D1F87AB97A884204BF0020F872F87A08B938811CE0BAF82E00C01DA5
:2037D0003881F87A042803D1484612F07EF8A0830123F87A3871A28BB97B13F059F801464A
:2037F000208B884205D3A28BB97B3879012313F04FF878801821484605B0BDE8F04F10F094
:203810009DBE6978287801F0070108402870F97A08401CBF411E0842F8720DD0400703D53E
:20383000B87B08B1042003E0F97A0220014201D0F87201E04008F9D1F87AB97A884204BF4D
:203850000020F872F87A10B93881B87A0BE0BAF82E00C01D3881F87A042803D1484612F045
:2038700034F8A083F87A3871A28BB97B3879012313F00EF80146208B884205D3A28BB97B9A
:203890003879012313F004F87880387B40F02000AFE02878697800EB01206082E978A878CA
:2038B00000EB0120E0826979287900EB01202082E979A87900EB0120A082A18AE08988424A
:2038D00088BF0846B97A042904D1B0F5296FD8BF4FF42960E28BE0839042B87A14BF0125A1
:2038F0000025042803D1484611F0EFFF04E0A089E18A884288BF0846A28BA083904214BF4A
:20391000012100212089628A238B2943904288BF1046984214BF0122002242EA010520836F
:20393000A28BB97B3879012312F0B2FF0146208B884205D3A28BB97B3879012312F0A8FF1B
:2039500078806189208A628B814288BF01466183914214BF0120002005438A4232499AF8A1
:203970000020096801EB4211628B8041121DC00F0A7610B1484613F0F9FE9DF80000142821
:2039900010D145B1E08B0090638BA28B218B9AF8000016F055FD484605B0BDE8F04F152137
:2039B0000EF096BA1DB1387840F008003870387840F0200015E028780F2809D0122804D098
:2039D000142808D016280ED026E00020307123E00120307220E0387840F00200387040F060
:2039F0001000387018E0387B40F00200387340F01000387310E09DF800008BF80C004846EA
:203A100011F0BEFA40B905B0BDE8F04F074800784FF480410BF084BC05B0BDE8F08F00BFAD
:203A3000582F00207D2C0100CC2F00206E4F00202DE9F04FDFF800B5DFF800659BF800007D
:203A50001E25082887B000F26E82DFE810F072020900090009000900F0008601720272020C
:203A7000DFF8DC44DFF8DC942068DFF8DC84006800F10807062207F1080102A815F06AFD92
:203A90000622B91C684615F065FD3978C1F380108DF8140001F00F02C809032A35D1617996
:203AB000C1F38001884239D12169062202A815F0C3F900283AD09DF81400694616F0B0FC94
:203AD000002833D03146684614F08BFAFF282DD0D8F80010897A684335180A0018BF0229F2
:203AF0000AD0012918BF032918D1325C691C484616F092FC102819D06A46E91D484610F02C
:203B10005BFC06226946E81D06E201F00F01052940F00F826179C1F38001884240F0FE8102
:203B30002169062202A815F087F9002800F0F681387847099DF81400694616F071FC40F208
:203B5000024A70B33146684614F04BFA8346BBF1FF0F6BD005FB0BF031180491D8F8001001
:203B7000897A0A0018BF01290BD0022918BF03295CD1325C0498411C484616F04DFC102855
:203B900054D0504616F044FC0498C11D6A46484610F012FC049806226946C01D15F0DAFC24
:203BB0001DE09BF80000022840D19DF814106A46304610F0A4FA8346BBF1FF0F36D005FB24
:203BD0000BF03044417F012906D000292ED10D3016F01AFC002829D0504616F019FC05FB53
:203BF0000BF0D8F80020315C91763044411CD8F800000622143015F0ADFCD449D448897841
:203C1000490604D5F90758BF41F20A4101D541F20441418041834186CE480180CE49CF4878
:203C300008600121CE4800780BF07AFB76E1CD4C2068006800F108070F21387808421CBF87
:203C500000F00F01062906D002291CBF00F00F00012840F06E810622B91C02A815F07AFCE0
:203C70003878DFF80493C0F3801800F00F0001283FD1062207F10801684615F06BFC3878A0
:203C9000C7096946384616F0CBFBE8B1D9F80000807C022818BF03285ED106F10D016846D7
:203CB00016F0AEFB002857D0D9F800100120C8720622607940F0040060716946D9F8000034
:203CD0000C3015F047FC14E03078874211D10622711C684615F0B0F858B13078617960F31B
:203CF000820161710622D9F80000711C0C3015F031FC02A9404616F093FB00282CD06069B9
:203D100002A9001F13F00CFB002825D1314602A814F067F9FF281FD0D9F80010897C684375
:203D300035180A0018BF02290BD0012918BF032912D1325C6069691C001F16F06DFB10288E
:203D50000AD0606902AAE91D001F10F035FB062202A9E81D15F0FEFBEBE0844C206800684E
:203D700000F108070F21387808421CBF00F00F00012874D10622B91C02A815F0EBFB38787F
:203D9000DFF8EC91C0F3801800F00F00012846D1062207F10801684615F0DCFB3878C70902
:203DB0006946384616F03CFB20B3D9F80000C07A022818BF032852D106F10D0016F024FB33
:203DD00000284CD106F10D01684616F019FB002830D0D9F80000062269460C3015F0BAFBFB
:203DF000607940F00400607106226946F01D15F0B1FB14E03078874211D10622711C684696
:203E100015F01AF858B13078617960F3820161710622D9F80000711C0C3015F09BFB02A940
:203E3000404616F0FDFA00284AD0314602A814F0D8F8FF2872D005FB00F7D9F80000817A8C
:203E5000F51959BB807C15F0B3FC814699F82E01022811BF0328F15D00F0010081425DD1A4
:203E70004FF4947009EB000606223146681C14F0E3FF30B9062231463E4814F0DDFF0028D2
:203E90004CD0012089F82E010622607940F00800607102A9304615F05DFB0DE02069F25DD8
:203EB000691C001F16F0B8FA102837D0206902AAE91D001F10F080FA062202A9E81D2BE0A0
:203ED000D9F80000817A49BB807C15F071FC074697F82E01022818BF03281FD102AA41463A
:203EF000304610F00CF9FF2818D06843351805F10D0016F089FA10B9687F01280ED187F86D
:203F10002E810622607900F0F70040EAC800607102A94FF49470384415F01CFB21680968B3
:203F30000020087105E0002015F062F9862016F063FA07B0BDE8F08F6F4F00202824002045
:203F5000F44B0020CC470020104F0020582F0020204A0020504F0020204F0020893F0000F9
:203F70006E4F0020D04B0020D02F0020AC4B0020184F002044B401002DE9F84F012013F0E2
:203F900043FC01280ED1DFF8E454296800204871286812F02FFA05F047FB040003D18120E6
:203FB00016F02AFA5DE201206071DFF8C464DFF8C4044178491C41702968A07981F8A00066
:203FD00040200EF0CBFE2060307901281CBF002015F00EF9F0682168DFF89C6400F5B06094
:203FF000C86030680068007903281CBF002015F0FFF83068DFF88494006800F1080A4FF4B9
:20401000977004EB00089AF80000C0F3801088F8000006224FF494700AF10201204415F067
:2040300099FA04220AF10E0104F1240015F092FAD9F80000A37900EB431004220AF10E01A8
:204050000C3015F087FAD9F80000A37900EB431003220AF11201103015F07CFA04F12C074D
:204070009AF81500B87002220AF1160104F1300015F070FA02220AF1180104F1320015F033
:2040900069FA02220AF11A0104F1340015F062FA3889608402220AF11C0104F1360015F0D8
:2040B00059FAB87879894000B8700901B88879814000B88089B2F8884000F88080B2628CB4
:2040D000521C43005A438A4200D238B9DFF8B003007880210BF024F93B21F5E004F12E01E3
:2040F000204614F025FE0520A081204614F0FEFF05220AF11E0104F1610015F02BFA9AF823
:2041100023004009387016F073F960822968DD4D498A401AA8F80C0004F161019AF8230087
:20413000DFF864A300F01F00F873204612F0D0FB31680968002008711C26A17928687143A1
:2041500041F6210242520022A179714301444A80A1797143084442609AF80200400609D5EE
:20417000CA48008841F20A4188420CBFC848C948C4F89C012046D4F89C118847A2792968AE
:20419000724311448873A1792868714308440021C173C148007870B1B88860B97873012004
:2041B000208160812046D4F89C118847A2792968724311448873A179286871430844807B69
:2041D000787394F8960108B915F012F8A1792868DFF8C8B27143084494F89611491E0174E7
:2041F0000022A17928687143084400214174A0792968704308444282A279D9F8000000EBC9
:20421000421372430A445361A27972431144A44A8A61DBF8141091F800C094F806E05FEA89
:20423000CC714CBF102100215FEA8C724CBF202200225FEA4C734CBF402300235FEA0C7CB4
:204250004CBF4FF0800C4FF0000C1143194300EB4E104CEA010141F00F010172D9F8000077
:20427000A17900EB41100B214172D9F80000A17900EB411004218172D9F80000A17900EBE4
:2042900041108849097801291CBFDBF828104978C172D9F80000A17900EB41101F21017689
:2042B000D9F80000A17900EB411000214176A0790BF0E0FFA279D9F8001052018850A079BC
:2042D0004201895821B90721204614F0DAFCC8E07549096801EB001016F086F8724AA1793B
:2042F0001268D9F8000002EB011200EB41114A60A17900EB41114968F963A179490140581C
:20431000786404215E4800780BF00AF86249B888097800F1020E19B110B9F88800F1020EF0
:20433000608A00FB0EF04FF4C871B0FBF1F0401CC4F818E0606140F6C41394F806C02968C1
:20435000226806FB0CFC8C44CDF800C0D2F80CC003FB0ECCACEB0000A0F5A86C0098C0F867
:2043700008C0A0797043084480689060A07970430844017B01F0EF010173A179286871432E
:204390000844017B01F07F010173A179286871430844017B01F0F00141F002010173A17996
:2043B000286871430844417B01F0F00141F001014173A17928687143084421688068086154
:2043D0006269D9F80000A17997F802C0520000EB411103FB0C2202F5F6624A61A17900EB0C
:2043F0004110C17C01F0F00141F00401C174FA88D9F80000A1795A43DBF830301B6800EB27
:204410004111D21AA2F51672CA61A17900EB4110C17E01F0F00141F00401C176A179286876
:2044300071430844216848609AF80100800615D5B8F83A001B2804BFB8F83C001B2809D13F
:20445000B8F83E00B0F5A47F04BFB4F86E01B0F5A47F03D01421204610F070F81349072097
:204470000870BDE8F14F00F02DBD00BF104F0020B44D0020684E0020F44B0020CC2F002046
:204490006E4F0020CC2B0020582F0020504F00206B460100D5530100784E0020E8B3010055
:2044B0005C4D0020734F00208C4E00206F4F00202DE9F84F5FEA000A27D1002014F098FE07
:2044D00023E050460FF0B5FD62E2317C012940F07E80C078002877D098F80000400088F842
:2044F0000000B8F802004000A8F80200B8F804004000A8F80400B8F808000001A8F808001F
:2045100001203077504610F057FB0AF16606707D002800F064824FF489700AEB00094FF40C
:20453000A2700AEB0004717C4FF4C6700AEB000B00290AF186080AF1EC050AF10607DFF87D
:20455000A404C2D0012946D0022931D0032957D0062900F0A480072900F01E82082900F02E
:20457000F180092900F00F810A2900F0B3800B2900F0CA800C2900F013810F2900F0498199
:20459000112900F06A81122900F03881142900F0CE81162900F06C81182900F09D81F02912
:2045B00000F00082FC2926D0FE2900F0048284E7317C012985D1C078002800F08281504640
:2045D00010F0FAFA1621F1E1B888F18B10E050460DF0BEF9DCE1317C01290DD1C078002806
:2045F0001CBF012088F80A008CD1B888B8F80C10884200F09581F1E150460EF016FDC7E1CB
:20461000317C012941D1807850B10020B071A078012805D10020A070002150460FF08EFFDD
:20463000A87B01280AD10020286068600621012088F80E00504612F01FFE66E7E87B01286F
:2046500018D1504610F0B8FA002088F80E0001203070504611F099FF0120B071002068733E
:20467000697A387806291ABF00221A21002215F0DBFE4AE799F8050001286FD0308B401EEA
:20469000308380B200284CD0A8E150460CF036FE3074F08A30830020A873E8739FE1307CFF
:2046B00001280ED1A87A01281FD1504610F084FA002028722873E872A873A872E873687379
:2046D00023E7504610F05AFD3074F08A30830020A87284E1307C01280DD1E87A012802BF64
:2046F000002088F80E000B21A4D0308B401E308380B2B0B172E1504610F08DFE3074F08A6B
:2047100030830020E8726AE1317C012916D1807808B103218EE7308B401E308380B20028E3
:20473000E8D1297A3878012903D1222115F080FE29E10022222115F077FE24E150460FF016
:2047500071FA25E1307C012814D1287C02280AF1FD0204D13978002015F042FED2E6308BF8
:20477000401E308380B200280CD13978222015F037FE08E150460EF0D7FF3074F08A308390
:20479000012028742AE1317C012905D1807810B1B88B3883B6E694E050460FF0ABFDF7E0B9
:2047B000307C01280AF20D1121D1087801280DD14878012809D1B9F8020000900020CA7819
:2047D000B9F80030397815F007FE9BE6308B401E308380B2002810D1B9F802000090222020
:2047F000CA78B9F80030397815F0F6FDCBE00120887050460EF054FC3074EFE0317C0129EB
:2048100003D180780028E0D15BE0504610F06EFFBEE0307C01281CD16078012809D1207FCB
:204830000F281CBF002014F0E3FC00206070002100E7A078012806D10020A0702322504638
:2048500012F0B6FA61E6207801283AD100202070EDE750460BF056FE9AE0317C012903D1F5
:20487000C078002821D12CE050460FF074FD8FE0307C01282CD19BF80C00810648BF18211D
:20489000D6D4C10712D5207F16281CBF002014F0AFFC9BF80C0000F0FE008BF80C000023E9
:2048B0003978607F00220BF01FFF2BE6810708D500F0FD008BF80C000023397800221A20FB
:2048D000F1E7308B401E308380B200285BD085E050460BF065F85BE0317C012922D1C0780F
:2048F000C0B19BF80C009BF80B1059B9810610D500F0DF008BF80C0000209BF80A20397880
:204910001346D0E700F0DF008BF80C0001208BF80600F7E57988BBF80800491C88425DD17A
:20493000282143E0182150460BF03AF830E0307C01282AD19BF800004FF4B3710AEB01052A
:20495000810614D500F0DF0001078BF800000BD500F0F7008BF80000288B0090AB8AEA8A47
:20497000698A387815F06CFD00202870CAE5810704D500F0FD008BF80000F5E7308B401EE9
:20499000308380B250BB222110E050460DF0A0FA3074F08A308321E0504610F0F1FA01283B
:2049B000E4D01BE0407AD0B199F80610504614F068F9012013E0B07E0F280CD1FC21504652
:2049D00012F05AFC608900902389E288A188387815F03EFD02E0002014F00AFC0020BDE8F6
:2049F000F28F00BF5C4D00202DE9F0475FEA000882B00BD1002014F0FBFB07E0404610F06B
:204A1000BFFA012864D1404610F0D6F808F16605687D00285CD04FF49E7008EB00044FF4F3
:204A3000B070697CDFF894A408EB00094FF4C670022908F1EC07404408F1060635D004290B
:204A500049D005295FD0062900F08E800729D5D0092900F0F4800B2900F0C6800C2900F0A9
:204A700026810D2900F0D5800E2900F0F6800F2900F05D81102900F07881112900F09681FE
:204A9000122900F04181142900F0D681162900F09781172900F0C381FC2919D0FD2900F0B6
:204AB000F481FE2900F0F681A4E7287C012809D19AF80300002814D01621404614F0E1F876
:204AD000012006E040460FF0B4FA2874E88A28830020BDE8F687287C012810D19AF802004F
:204AF000002800F01881FC21404612F0C5FB307808F1B80208F1B00115F06AFC86E740462D
:204B10000CF04CFEE1E7287C012810D19AF8020028B1012088F89400002038607860B87A65
:204B3000012869D10621404612F0A6FB6EE708F1E7063078012809D1404612F083FA01289E
:204B5000C6D10020B87201202874C1E770780028BED008F1C70208F1A00108F1D70015F030
:204B70006BFC0120307051E7287C012838D19AF80200002840D0B08B3083404610F01CF89B
:204B900001202870404611F000FD0120A871397A787C012900F010000CD130B1002060710E
:204BB00020684108A0790FF0A9F93078002115F03FFC0FE048B14FF4A17008EB0003206897
:204BD00042084146BE4815F00DF830780122002115F02AFC002038723873F872B87215E7C8
:204BF000404610F0CBFA70E7287C012805D1F87A012808BFFC2196D08DE040460FF012F87F
:204C1000012853D10020F87288F8940001202874FCE6287C01280ED19AF80200002809D0B9
:204C3000002088F8940001202870404611F0ADFC0120A871BDE0404611F06AFE45E7287CB1
:204C5000012806D19AF8020000281CBFB08B3083A6E040460FF04EFB37E7287C01281DD192
:204C7000387C022808F1FD0204D13178002015F0B7FBC8E6032806D131781A2015F0B0FBB6
:204C900000203874BFE6288B411E298389B200290CD13178222015F0A3FB42E040460EF060
:204CB00043FD2874E88A28830120387410E7297C012908F20D1021D14FF4897108EB01021C
:204CD000017801290BD14178012907D1518800911388C2783178002015F07EFB93E6298BD7
:204CF000491E298389B20029E0D1518800911388C2783178222015F06FFB12E001218170DE
:204D100040460EF0CDF9E0E6287C01280BD19AF802000028E2D1288B401E288380B2002845
:204D3000C4D12221C9E6404610F0E0FCCDE6287C012816D1607A012803D199F800000F2874
:204D50001CE0207A012829D100202072288D00090090A88CEB8C317842081A2015F034FB7E
:204D700051E640460BF0CEFBAFE6287C012819D1607A012812D199F8000010281CBF0020AC
:204D900014F036FA00206072288D00090090A88CEB8C3178420899F80100DFE7287F0028CA
:204DB000DED1B8E740460BF0FEFB8EE6287C012802D19AF80300F2E740460FF0CCFA84E6E4
:204DD000297C012926D1017B4A062ED4CA070AD501F0FE0101730023317899F8010000229B
:204DF0000BF082FC0FE68A0707D501F0FD0101730023317800221A20F2E7288B411E2983A6
:204E100089B2002955D131780023002222200BF06BFC86E7162140460AF0C2FD55E6297CA3
:204E3000012907D1017B4906BBD5017B01F0BF010173E8E51721EEE7297C012920D1017851
:204E50008A0617D501F0DF010A0701700ED501F0F7010170B9F81E000090B9F81A30B9F82B
:204E70001C20B9F81810307815F0EAFA002089F80600C8E58A0794D501F0FD010170F5E7F2
:204E9000142140460DF024F81FE6A97E404612F0F3F9BBE6A87E0F280CD1FC21404612F00E
:204EB000EBF9608A0090238AE289A189307815F0CFFA0DE6002014F09BF909E65C4D002069
:204ED0007D2C01002DE9FE4FDFF85084D8F80400009018B9BDE8F74F15F072BA0078DFF86A
:204EF0004094DFF840A4DFF8404401281CBF0228042846F2A81741F64C5B05D0402818BF75
:204F1000802800F0F98001E214F01EFE0028FAD00098007807F088FE05466E6816B90020DE
:204F300014F066F9DFF804044078002800F0A58004F082FA14F03CFC0190006802900146AC
:204F5000476828460BF07EFF02286FD02978012904D0022927D0042945D0D7E1DFF8D013CE
:204F70000968097A1AF80110217018B915F024FA5844B0603069C17E01F0EF01C176306950
:204F9000C17E41F08001C1763069C17E01F0F00141F00201C176B868DFF898130818316958
:204FB000C8610120A4E00521217018B915F004FA5844B0603069C17E01F0EF01C176306953
:204FD000C17E41F08001C1763069C17E01F0F00141F00201C176B868DFF858130818316958
:204FF0000862022084E00621217018B915F0E4F95844B060D0480068807C12F059F9306931
:20501000C17E01F0EF01C1763069C17E41F08001C1763069C17E01F0F00141F00201C17643
:20503000B868C44908183169086260E002980078802811D108202070C0480078012803D0FF
:20505000BA484078022801DB012002E0D9F8280000787969C8720AE00720B84920700978CD
:20507000786901291CBFD9F828104978C1720198AE4980798870029844E1002D18D000994F
:205090002878A9420ED1401E012833D9C01E05D1A9480068807C12F00BF92BE0002014F0C5
:2050B000A7F827E0012804D0022815D0042817D02CE19F480068007A1AF80000207015F09E
:2050D0007BF93918B06815F073F918B915F074F95844B06001200BE005202070022007E0B9
:2050F0000620207094480068807C12F0E1F8042088F80200284605E18C484078002800F031
:20511000B68004F099F914F053FB00900068019045688648807814F04BFB029014F01AFD7E
:205130000721084278D098F8020007F07DFD0646019977680BF086FE02286DD03178012924
:2051500004D0022924D0042940D062E078490968097A1AF80110217018B915F02DF95844CC
:20517000B8603869C17E01F0EF01C1763869C17E41F08001C1763869C17E01F0F00141F053
:205190000201C176A8686B4908183969C86192E00521217018B915F00FF95844B8603869BA
:2051B000C17E01F0EF01C1763869C17E41F08001C1763869C17E01F0F00141F00201C17692
:2051D000A8685C4908183969086283E00621217018B915F0F1F85844B86057480068807C4D
:2051F00012F066F83869C17E01F0EF01C1763869C17E41F08001C1763869C17E01F0F001BC
:2052100041F00201C176A8684A4908183969086274E0002013F0ECFF02980099884224D0F1
:2052300001980078802811D10820207043480078012803D03D484078022801DB012002E0C6
:20525000D9F8280000786969C8720AE007203B4920700978686901291CBFD9F8281049787B
:20527000C172009831498079887001984AE014F071FC072108424ED098F8020007F0D4FCCB
:20529000064630787568012804D0022815D0042822D040E026480068007A1AF800002070F1
:2052B00015F08AF83918A86815F082F818B915F083F85844A860012021E00520207015F0A6
:2052D0007BF83918A86815F073F818B915F074F85844A860022012E00620207015F06CF861
:2052F0003918A86815F064F818B915F065F85844A86011480068807C11F0DAFF042088F8CA
:2053100002003046BDE8FE4F09F0A6BDBDE8FE4F002013F06DBFBDE8F78F00BF9C2F0020A1
:20533000E8B30100289A01106F4F0020684E0020104F0020F0D8FFFF184F0020734F00208C
:205350002DE9F04F0C46E00789B00DD514F03AFA38B100218160DFF800040068010018BF56
:20537000804784F00100F4E11E252007DFF8EC6340F18A80DFF8E8030068807C14F018FA05
:2053900007464FF4947097F82E8107EB0009002007908246DFF8C8030068807CFF2804BFC1
:2053B000002013F025FF4A46414630460EF0A7FE834605FB0BF0009035184946404615F0AB
:2053D0002FF8B0B1BBF1FF0F2CD00098305C40F00208E81D079005F1010908F0010087F80D
:2053F0002E0106224FF494704946384414F0B2F818E04946404614F06DF9002818BFBBF124
:20541000FF0F0FD005F10D0014F0FEFF40B905F10D0014F0F9FF002804BF687F012801D1C6
:2054300048F00208CE480068C07A022818BF032806D106F10D0014F0E7FF08B906F1070AA8
:205450000020BD1D06904346288E000905900022E88D0490A88DCDF804A040080390CDF866
:205470000090079802900020297814F09DFFD7F89C01BC49884228780CBF002101210CF015
:20549000E3FC84F0080064E1E00610D5002006900590049003900290019000900023002227
:2054B0000021022014F080FF84F0100051E1A00710D500200690059004900390029001903F
:2054D00000900023012200213C2014F06DFF84F002003EE16007A44F40F1A180A3488078D5
:2054F0004FF00008CDF81C80FF2804BF002013F07FFE386890F8A00014F05AF981464FF441
:20551000947009EB000B3868C07A99F82EA1022818BF032806D106F10D0014F075FF08B9FE
:20553000F01D07905946504614F07AFF90B33868807A010018BF012804D13146584612F03B
:2055500050FD04E05A46514630460EF0D8FDFF283ED005FB00F806EB080506225946E81D93
:2055700013F0F8FF16F8080040F0020A3868807E00F0010089F82E010622386800F11401C2
:205590004FF49470484413F0E5FF05F1010B05F107081DE05946504614F09CF8C0B15A465F
:2055B000514630460EF0ABFDFF2811D06843351805F10D0014F028FF40B905F10D0014F0FA
:2055D00023FF002804BF687F012801D14AF0020A09F12C0009F106050178069153464189E8
:2055F000090905910122A98B0491C088CDF8088040080390CDF800B0079801900020297831
:2056100014F0D2FED9F89C015649884228780CBF002101210CF018FC84F0040099E02006FA
:2056300010D5002006900590049003900290019000900023012200213B2014F0B5FE84F063
:20565000800086E0E0043BD5F11D06F10D0014F0A7FE38684179012923D1017A012918BFB1
:2056700004291ED1C17A022918BF032919D1817E00F1140230460EF042FDFF2811D068433F
:20569000351805F10D0014F0BFFE50B9E91D05F10D0014F085FE38680622E91D143013F03B
:2056B00059FF33484268334800784FF4805110F007FF10B18E2014F06FFE84F4805048E000
:2056D000A00505D514F016FA2B4901200860FEE7600504D509F0C1FD84F4806039E060047B
:2056F00005D5812014F058FE84F4804031E0A0042ED5224D286810B1002013F079FD4FF03D
:20571000FF3028600FF0C0F81D4D296820316846096888471B4841682D681B4A00916B4689
:205730008168019100210291016909680391017B00688DF81010ADF812002D68134914482E
:20575000A8471449086004F0E1FD84F4005000E0002009B0BDE8F08F204F00202824002013
:20577000184F00206B460100104F0020684E0020784E00206E4F0020FC002043044F0020F6
:20579000F04E0020D0190020FC2E0020201C0020D02B0020EC4E00202DE9F043DFF8AC4368
:2057B000DFF8AC3394F80080DFF8A8E3DFF8A893DFF8A863DFF8A813B8F10D0F83B04046B1
:2057D00041F2064741F202424FF4A05553D8DFE818F0BB010E000E000E000E006D00A5008A
:2057F000E9001D015F015F01900190019701DFF87413DFF87473C3F800E041F2044E4C8808
:2058100074451CBFB1F81A80F0450BD0B1F83290F1451CBF41F20A4E744503D0F04518BFF2
:20583000F14502D1A6F800E02AE0022CDFF83C73348036D94FF4806CB4EB0C041CD0241F43
:20585000012C1FD94FF47F7CB4EB0C041CD04FF4406CB4EB0C040FD0A41E012C0CD9241FA6
:205870000AD0641E012C0DD940F2F930241A012C17D9241F08D05FE1022814BF3580BC4FDB
:205890001F60FDE0BB4FFBE7BB480068007A012803D14A804A834A86F2E74D804D834D861E
:2058B000EEE7002013F0A4FC832049E1B348418831800229C3F800E014D940F20442891A30
:2058D0002AD0491E0ED040F2FB32891A1DD00A3901291AD940F6F632891A03D0491E1BD004
:2058F000491E012940F2C680091F15D0491EF9D0491E11D04FF47E72891AF3D0491E0BD02F
:20591000C91E09D0491E012947D8817B478025290CBF2721491E817399483CE099484188E1
:2059300031800229C3F800E068D940F20442891A30D0491E62D040F2FB32891A23D00A39B3
:20595000012920D940F6F632891A57D0491E21D0491E012952D9891E13D0891E1AD0491E56
:205970004CD0491E16D0891E0BD040F2F632891A44D0491E0ED0C91E0CD0491E012902D9A7
:205990000BE0814807E0817B478025290CBF2721491E81737D48186072E0002013F028FC07
:2059B00084206BE099F80200FF2855D07849C3F800E01C2209685043084440F204444188DC
:2059D000744A3180091B012946D94FF47F74091B15D00A39012916D940F6F634091B032990
:2059F00084BF491F01290FD9891E012934D940F2FD34091B08D0491E012904D93AE041F2E2
:205A10000141418000E045801A6039E099F80200FF2821D05E49C3F800E01C2409686043FA
:205A300008445D4C4188318040F20446891B012912D94FF47F76891B17D00A39012916D993
:205A500040F6F636891B13D0891E012984BFC91E01290DD9891E012976D940F2FD36891B19
:205A700006D0491E012902D904E0428000E045801C6005E0002013F0BBFB852014F0BCFCEE
:205A900003B0BDE8F04345480078012109F048BC4A88328040F20443D21A55D040F6FC7394
:205AB000D21A15D0083A4FD04FF47F73D21A22D13B4C3C4A24683C4800680023CDE900230F
:205AD00008343A4B24680222A047394908803BE0092810D137480068408960B13648007870
:205AF0000EF000FF0021002014F052FC002020702AE048883080002013F07AFB85201FE090
:205B10004A883280022A0DD940F20440121A1BD040F6FC70121A05D0083A15D04FF47F7056
:205B3000121AE8D1887B801CC0B2B528A8BF662088730020488007E0002013F059FB8420B0
:205B5000BDE8FE4314F058BCBDE8F7836F4F0020204F0020DD9C0100684E0020504F00209C
:205B70003C2F0020204A0020893F0000FDD30000FDF80000755B0110104F00209C4C00200B
:205B9000B51C01006C4C0020F15F0000A5280100CC2B0020258400008DB800006E4F00204B
:205BB000F04E002002000080EC4E002061690100424F0020D42F0020714F00202DE9F84FBF
:205BD000DFF8F443A078FF2804BF002013F010FBA07813F0EDFD04464FF4C97004F1680649
:205BF00025183068006804F1900708B100200EE0B07B002804BFB07E002809D138780028E7
:205C100001BF28780028207F012801D1608CE0832089E18B0818401C6081204612F0DEFE4D
:205C300001281EBFE5480078012804D10020E0832089401C6081B07E01280CD1B28B6189E7
:205C5000208914F0A1FB30B121896289481C82422AD0B28B1FE0387801280CD17A88618975
:205C7000208914F091FB30B121896289481C82421AD07A880FE02878012815D16A886189D7
:205C9000208914F081FB00281FBF2189481C6289824209D06A88824206D0501E608180B222
:205CB00014F06EFB401EE0832878012801BF68882189491C884207D16A792A710020287046
:205CD0001346A1790AF010FD4FF49A702044007920B10020E0832089401C608104F12E07AC
:205CF000B07E012801BFB08B2189491C884237D1608104F18601204613F01AF8B08CE189E3
:205D1000608400202077E08360890818A0812189B08B14F035FBB988328C01FB0028708C13
:205D3000F28C884204BF3B899A4202BFB18CFB88994207D0110900914208B38CA179002007
:205D500014F042FBB07F3870708CB880B08CF880F08C3881204613F0C9F90220B07601E0AA
:205D7000B7F80480E08BDFF85892411C01FB08F140F6C41808FB01F200922268DDF800C0A9
:205D9000D3686344DFF83CC2D360DCF800C08E4A9CF800C013884FEA9C1CBCF1030F12D11B
:205DB00099F80FC05FEACC7C48BF00230BD45B1C9BB2012B07D14FF49A7CA444BCF806C056
:205DD0000CF2DC5C01E0B4F812C00CFB01FC4FF4C87EBCFBFEFCDFF8F4A10CF1010CC4F8AE
:205DF00014C04FF01C0B138084F82000A161A279DAF800102068C3680BFB02F20A44926836
:205E10000261A279D4F814C00BFB02F20A44A3EB0C039360A2790BFB02F20A44926882603D
:205E3000A0790BFB00F00844017B01F0F00141F002010173A179DAF800000BFB01F10844C1
:205E500000214180287908B913F0D2F9A179DAF800000BFB01F10844297949080174A1796E
:205E7000DAF800000BFB01F10844002141742879042812D1A179DAF800002A7A0BFB01F1EE
:205E90000844017C41EA82010174A179DAF800000BFB01F10844202141740022A079DAF8D3
:205EB00000100BFB00F0084442824948A2790068D4F814C000EB4212536903EB4C0353611C
:205ED000B27E022A07D1A2793E7800EB4212536908FB0633536199F80F20D20740D5A279F9
:205EF0000BFB02F20A449368A3F5A8639360A2790BFB02F21144226889689160009BC91A65
:205F10001161A17900EB41114A6902F5F6624A612979042906D1A17900EB41114A6902F554
:205F3000B0624A61A17900EB41114969C4F8341128490D6BBB88A2792D6808FB03F300EBCA
:205F500042125B1BA3F51673D361A27900EB4210214A1278012A0EBF0121896A497818E0FF
:205F7000A279297900EB4212042952690CBF4FF44B614FF4E661511ABA8808FB02F2A2F5AE
:205F900016729142D4D30821204612F07AFE01200FE0C172A179DAF800000BFB01F1084473
:205FB0002168486007200D490870204610F0EFFD0020BDE8F28F00BF684E0020784F002097
:205FD0005C4D0020084F0020EC2F0020CC2B0020CC2F0020E8B30100734F00206F4F0020A8
:205FF0002DE9F84FDA4DDFF86C832868DA4F807CDFF8689313F0DCFB296804460020487132
:2060100004F12E0A286810F0F5F9012060711C2598F80100401C88F8010080200CF09EFEEC
:2060300020607969C160CE4801894900AAF802105146C07940008AF80000BAF804004000A8
:20605000AAF80400BAF808000001AAF80800204612F06EFE0520A081204613F047F83868C3
:2060700014F08AF9062210F8081FC1F3801184F82E11811C4FF49470204413F06BFA3968E1
:20609000B84F09680020087141F62202A1793868694342520022A179694301444A80A17979
:2060B00069430844426099F80200400609D5AE48008841F20A4188420CBFAC48AC48C4F84A
:2060D0009C012046D4F89C118847A27939686A4311448873A1793868694308440021C173A5
:2060F000A179386869430844807B8AF80B0094F8960108B913F07CF8A17938689D4E6943AA
:20611000084494F89611491E01740022A17938686943084400214174A179386869430144BF
:206130004A82A179326802EB4112694301444A61A1796943084490498161A0790AF09AF881
:20615000A279316852018850A07940010A5822B90721204612F095FDF5E008441F220276BD
:206170003068A179DFF814B200EB411000214176DBF80000A17900EB011014F035F9A17977
:20619000DBF800203068DFF8F8B102EB011200EB41114A6004F16801A27900EB421252688B
:2061B0000A60A279520182588A60DBF8141091F800C094F806E05FEACC714CBF102100219E
:2061D0005FEA8C724CBF202200225FEA4C734CBF402300235FEA0C7C4CBF4FF0800C4FF07A
:2061F000000C1143194300EB4E104CEA010141F00F0101723068A17900EB41100B214172D1
:206210003068A17900EB4110042181723068A17900EB41105B49097801291CBFDBF8281045
:206230000978C1723068A179626A00EB4111CA60A17900EB4110A16A01743068A17900EB42
:206250004110A16A090A41743068A17900EB4110A16A090C817408214B48007809F060F882
:206270002168A2793868CB686A4302449360CA680A61CA688A60A17969430844017B01F079
:20629000EF010173A179386869430844017B01F07F010173A179386869430844017B01F058
:2062B000F00141F002010173A179386869430844417B01F0F00141F0010140F6C4134173F1
:2062D000BAF804203068A1795A43DBF830301B6800EB4111D21AA2F516724A61A17900EBDB
:2062F0004110C17C01F0F00141F00401C174A1793868694308442168486099F801008006B8
:206310001BD54FF497702044408F1B2801BF4FF497702018808F1B280BD14FF4977020449F
:20633000C08FB0F5A47F04BFB4F86E01B0F5A47F03D0142120460EF001F91449082008702D
:20635000A07988F80200BDE8F14FFEF7BBBD00BF184F0020684E0020AC4B0020582F002066
:20637000844C0020CC2B0020504F00206B460100D5530100CC2F00205C4D00208C4E00208E
:20639000E8B30100734F00206E4F00206F4F00202DE9F04F0F46BD4C016861624168806844
:2063B000ADF1140DA060BA4861608047B948616A01606168DFF8FC924160A168DFF8F08236
:2063D0008160B549002FA246C16068D03D68E8788DF8080028798DF8090002A813F0C8FF29
:2063F000A86808B1AD490160E86808B1AC490160AC4C2878207068786070A878BE68A070E0
:206410003178E1707368636072696261B168A160F168E160316921612E697B68A662186864
:20643000A0616869E062A8692063287F84F834002A6AA263786886681EB9002012F0D8FE17
:2064500000E026627868C06818B9002012F0D0FE00E060627868406818B9002012F0C8FE18
:2064700000E0E0612869A062F86881680E6806B98E4E8D494FF0010B4E60C66881F801B0D7
:2064900026B9002012F0B4FEF86801E041460E6000684D46FE68A8617068E86105E0002073
:2064B00012F0A6FE4FF0010B4D46D8F80000824944686A1C05F114035020A04718B1D8F87E
:2064D000000080688047DAF80400804703907B487C4C286100272771B946E770784EA770C7
:2064F000300BC6B2401CC1B226703846617028E0304639466A46042311F006FB009BA0789C
:20651000B3F5801F0ED043B9B9F1000F03D048460FF038FEA078B14610E030460FF032FE57
:20653000A0780BE0002804BF301CA67006D00FF029FE30460FF026FEA77038466178761C66
:20655000F6B2B142D4DA98B9B9F1000F08D1207812F0E6FA0420E08020793946A0B912E09E
:2065700084F8029011F050FC484607F03BFE07E0B9F1000F02D048460FF004FE11F044FCB0
:206590002079394600B95946081C02D1384612F02FFE3C464C4ED8F80000B4608069AC60E2
:2065B000804770604948478080F800B0142013F0E7F9FF211422A86213F0AEFBE81CFF216D
:2065D000022213F0A9FB142013F0DAF94049086008681422394613F09FFB3846FAF7EAF9D1
:2065F000584611F045F93B480188FF2906D1022101807822001D394613F08EFB032013F017
:20661000B3FE042013F0ACFE052013F0A5FE062013F09EFE07200EF0C1F92F4E0820307034
:2066300006F1400013F090FE0EF026FC363605200A21324611F0D6FE38B13846C0F1090137
:20665000401C06F8011B0A28F8DBD8F80070234909200DF10A0201AB7E680870102021462F
:20667000B047A86AEA690A270A309DF80A1000F8011BDAF808107F1EF7D1921E0398EA619B
:20669000884704F005F805B0BDE8F08F5416002041490010F8440020C8A40100E5810100FD
:2066B000F5930100A8190020D81C0020CB540100841D0020E81A0020E98A0100059501003A
:2066D00000D00100B42F0020902F0020801D0020E02F00206C170020DC110020F92F002013
:2066F0002DE9FF47C44C0F460646F80B80F05981B80880F04681207BDFF80893B90F80F0F4
:20671000BA80A07A002840F09A803809C0F09980E07A20B10020E072052010F0F3FF0025C0
:206730004FF00108B549657004F178002A4684F8088013F0D4FA607901281AD1A079C0B9FD
:20675000DFF8BCA2DAF8000000283CD048460068006B8047A1695346401A000BE0611968FC
:20677000226A8018B0EBC11F98BF20622BD9256201E084F8058040F609002087A24994F8C7
:2067900045000A1D00F0F00040F0010084F845001368658794F8440000F0F00084F84400D4
