:2000000000400020D55F010001C9011001C9011001C9011001C9011001C9011001C9011029
:1C00200001C9011001C9011001C9011001C9011001C9011001C901103FC9011089
:20003C0080B54FF4FC720FF278011A4810F00EFE194800210170012141740221C17601BDF4
:20005C002DE9F0410FF25021144838220B684C688D68CE680F69D1F814C0D1F818E0D1F824
:20007C001C80036044608560C6600761C0F814C0C0F818E0C0F81C8020312030521EE5D1F7
:20009C004A688B68CC680968016042608360C460BDE8F081480400215903002100C000210F
:2000BC00410500217D0500212D06002170B51D46004C204787B2000010B5014800470000FD
:2000DC00D509000070B5614C6148254650358047022809D14034E1885E4A914204D1E97C5E
:2000FC00890601D4911DE18070BD70B557495A4A084650300378002B10D08379012B0DD181
:20011C00037C5B09DB0709D0097D544DC1746C7F20202043687790476C7770BDFF21C17420
:20013C00904770BD10B54E48484C804702280ED121464031CA88474B9A4208D1CA7C5209CE
:20015C00D20704D0227D920601D49A1DCA8010BD70B53E4843494030C07C4009C00707D032
:20017C003E4D41482C8B2043288388472C8370BD884770BD10B53B48344CAC388047214609
:20019C0053310A789309DB0705D04034A2730A7803231A430A7010BD2C4940310871182876
:2001BC0012D004DC0A280BD00B2804D10AE025280CD02A280CD02D4980004018C0687047DE
:2001DC002B4870472B4870472B4870472B4870472B48704770B504461C484E252D5CAE09AB
:2001FC00F60716D0067D3007000F052803D00120054202D00DE00220FAE7E80905D07006D1
:20021C0003D54868800F012803D05B085B0052085200062B03D01020022B11D011E0FB20F7
:20023C00024002232046FFF741FF002807DAC100611A2039497E1422114200D1002070BD93
:20025C00024303432046FFF731FF70BD4401002137CB000004140000EBC80000A800002142
:20027C00F5B4000053AD00002020000080DF00001D050021F9040021CD040021930400210F
:20029C006D04002110B5034CFFF716FF20680028FAD110BD0011044068610000F825F965B0
:2002BC00F9754500450045002600260057A3520052004C00401F401F401F3F000000000053
:2002DC00304000400140034007400F404F40CF40CF41CF43CF47CF4FCF3FCF2FCF1FCF0F6C
:2002FC00000000000000000000000F00080000003F00000040003F000000040068000E0093
:20031C00DC00060043001A00050000000000020000000000000000000400C00000000400B3
:20033C00C000000007000000000000000000000000000000000000003040004001400340A6
:20035C0007400F404F40CF40CF7FCF6FCF5FCF4FCF3FCF2FCF1FCF0F00000000000000009D
:20037C0050C00091007070C00091007082312100319110B10070018101B100A1823132910D
:20039C0010B101911110418141227740F106007051C0019130181039833108D01831416FD1
:2003BC003100319110B18314141683680070251050C00091F4C340C12014036F3110410497
:2003DC005082F0229840512622C082312100319110B163393110410482C08231210031919B
:2003FC0010B163393110A2C082312100319110B150101531051405920070676452C03110A6
:20041C0031066131C1026A6412C13110213971065131E1026A64007051C0019101CCE2C0CC
:20043C006A64676411C1C2C06A6450B054B0007140804022D6440022C94060B08180111EC9
:20045C00C944007054A064B0F0800022C9404012B09032B070C1DF6811C122C16A6470C1C0
:20047C00E46851C00191E2C0823160820200329110B130C2EE68538253395339B16460C347
:20049C00F4688012B09032B00070676401C122C16A6401C1C2C06A645382B164C012B09074
:2004BC0032B00070676472C281C06A6422C111C16A6402C011C16A6462C031C36A6462C3D2
:2004DC0011C16A6402C311C16A6453825339B164E2C36F6411221C4142C281C86A6452C24E
:2004FC0011C16A6472C2E1CE6A6402C281C86A6402C201C86A64B0C030690070676442C211
:20051C0001C86A6452C211C06A6472C2E1C06A6402C001C16A6462C001C36A6422C101C127
:20053C006A6462C301C16A6402C301C16A645382B16400708180111E5C4150B054B000712B
:20055C00408040225D4154A064B0F1800122514500700022514160B04E61000000000000AA
:20057C000000000000000000067305720B720E7250B00071818060B050A09280F0EFF1928C
:20059C0002936A6741228C458080F1C11004301601110114016CB561B661B761B861B9618D
:2005BC00BA61BB61BD61BF61C161C36126632D63F0C002043231412A121432160111211412
:2005DC00016CDA61C561E061C761CB61B561B561B561F461C561FA61C761CB61B561B56104
:2005FC00B561F461C561FA61C761CB61B561B561B561E761C561ED61C761CB61B561B56121
:20061C00B561CF61CF61CF61CF61CF61CF61C064CF61F964CF610665CF613265CF6174676A
:20063C00CF611166CF61C0644E65F964CF61066511663265CF618280E0DFF2926A67B0B044
:20065C00D661B1B00673057230B06C61D0CF6A6784C203C0C0C37C64207851788278E378B7
:20067C001579B6780062C0CF6A6784C203C0C0C37C64307861789278F3781579C678006250
:20069C00B0CF6A6784C203C0C0C37C6440787178A27803791579D678109221923292439281
:2006BC005492659256911FC0FF914039F00601101031101400927067CF61E3B054A0F08076
:2006DC0050221A4640800022BE461262E3A000C86091598150B0918041228E46A0CF6A6734
:2006FC0012828231823942398B641282F2062F101F312F141682D622334640C1346200C5AF
:20071C0020140D6F6D39DE10F4C34E0482C082312E006D39A2C082312D001A828A39FA0606
:20073C002082803180390BC00B18BC10AC18038239149B141082F0060110103110145181C2
:20075C0010140C14C622C94631D0C1266462021011C0013010C00118021882312100C126C2
:20077C00919103B013B063B053B041800122BE46B481C491D581B51C774E95186591F0803E
:20079C00102269428C623D9110B13E9110B1E08000228146E6228142E0B0951865910F926B
:2007BC005981F914F0805022114210228C464D6390CF6A6763B052A03082F2C0200402107E
:2007DC0011C0013010C00118021882312100C1269191919113B003B063B053B064B054B055
:2007FC00007141800122BE4663B064B0F08050221142B181C191D1819118619131B0A462D0
:20081C002967E0A059810582591480C0007163B0BA6A6962E3A0018262818231823D80EF61
:20083C00F19202936A6703A0007037824739873930828039F006021011C0013010C0011849
:20085C00021882312100C126819102B012B030824039F006021011C0013010C001180218E9
:20087C0082312100C126919103B013B063B053B0007153A062B052B041800122BE46A4816E
:20089C00C491D581B51CFE4E95186591F0801022F0428C62B481C491D4814518751C084FEB
:2008BC00F0801022F0428C623D9110B13E9110B1E08000221247E6221243E0B065910F92DC
:2008DC005981F914F0805022114210228C4630632967E0A0598105825914F0C0007162B038
:2008FC00226BF062A2808B64CF6112824239F2068B6050B00071CF6170CF6A674082418096
:20091C000122BE46A481C491D58195186591F18011228C46336B41800122BE46A481C491AB
:20093C00D581C51C1C4B95186591F08010223F438C6260CF6A67408241800122BE46B48169
:20095C00C491D58195186591F18011228C46506B41800122BE46B481C491D581C51CB44A55
:20097C0095186591F08010225C438C62E092D08200226B47C0B20070A080F022874330B033
:20099C0002C1623101C0A080001E8043F022814380F86031603981632010101A136F236E5A
:2009BC0011161216826B00702DE9F84FDFF81885DFF8181588F80000002008600921DFF891
:2009DC00100501700D2141804FF408718180DFF80405DFF8041501608A7EDFF80005027042
:2009FC00FF2ACB7E437008BFFF2B0D7F85704E7FC6708F7F0771C97F417115D1FF2D08BFE8
:200A1C00FF2E11D1FF2F08BFFF290DD1DFF8D0140A7802704A7842708A788270CA78C27025
:200A3C000A79027149794171DFF8B81402780A70FF2542784A7082788A70C278CA7002791E
:200A5C000A7140794871DFF8A014DFF8A004057045708570C5700571457100200880DFF888
:200A7C009014DFF89004466B70780870DFF8881430780870DFF88414B0780870DFF880142D
:200A9C0070690079401E0870DFF87814F0780870DFF87414B069086008B918F0DBF8F069FA
:200ABC00DFF86844206008B918F0D4F82068DFF86074006880472168091D384609688847B3
:200ADC00DFF85004DFF850143862DFF850047862306A086008B918F0BDF8706ADFF8401470
:200AFC00086008B918F0B6F8DFF838B4DFF838649BF8040018F06EFC306008B900F046B97C
:200B1C009BF80500DFF8247418F064FC386008B9306838E19BF80600DFF8144418F05AFC1A
:200B3C00206020B9306818F05DFC38682BE19BF80700DFF8009418F04DFCC9F8000038B993
:200B5C00306818F04FFC386818F04CFC20681AE1DFF8A41309789BF80000DFF8DCA3C91C3E
:200B7C00484380B218F036FCCAF8080058B9306818F038FC386818F035FC206818F032FC1C
:200B9C00D9F80000FFE0DC480078010000F00381BBF80210DFF8A4B3484380B218F01AFCAA
:200BBC00CBF8040078B9306818F01CFC386818F019FC206818F016FCD9F8000018F012FC23
:200BDC00DAF80800DFE0CC48007818F003FCDC49086098B9306818F005FC386818F002FCA8
:200BFC00206818F0FFFBD9F8000018F0FBFBDAF8080018F0F7FBDBF80400C4E0BE480078B3
:200C1C001C21484318F0E6FBCE490860B0B9306818F0E8FB386818F0E5FB206818F0E2FBA7
:200C3C00D9F8000018F0DEFBDAF8080018F0DAFBDBF8040018F0D6FBC148A3E0AE48007885
:200C5C00400118F0C7FBC0490860D0B9306818F0C9FB386818F0C6FB206818F0C3FBD9F887
:200C7C00000018F0BFFBDAF8080018F0BBFBDBF8040018F0B7FBB248006818F0B3FBB1485C
:200C9C0080E09D480078000118F0A4FBAF490860F0B9306818F0A6FB386818F0A3FB2068BB
:200CBC0018F0A0FBD9F8000018F09CFBDAF8080018F098FBDBF8040018F094FBA0480068D2
:200CDC0018F090FB9F48006818F08CFB9E4859E089480078000118F07DFB9D49086010BB85
:200CFC00306818F07FFB386818F07CFB206818F079FBD9F8000018F075FBDAF8080018F070
:200D1C0071FBDBF8040018F06DFB8D48006818F069FB8C48006818F065FB8B48006818F074
:200D3C0061FB8A482EE0744800783021484318F051FB8849086070BB306818F053FB386805
:200D5C0018F050FB206818F04DFBD9F8000018F049FBDAF8080018F045FBDBF8040018F02E
:200D7C0041FB7748006818F03DFB7648006818F039FB7548006818F035FB7448006818F0C9
:200D9C0031FB7348006818F02DFB002017F062FF4FF4804192E031680120087100223068CD
:200DBC00057330684573306885733068C573306805743068457400203168C8723168487148
:200DDC00A0213068C180032101720720316848720020316888722821306841820121C1769C
:200DFC00002031684877316881F85E00012031680877316881F85D00396808713868057315
:200E1C0038684573386885733868C573386805743868457400203968C87239684871396886
:200E3C0088724FF420703968C88008818A7401213A68D17421680D7321684D7321688D7375
:200E5C002168CD7321680D7421684D7400212268D172012122681171002122685171216847
:200E7C00C8800881002088722168887405202168C8743948006880470546294800680068C0
:200E9C00804727490968091D00200968884719481C49C06809780088084330490880284657
:200EBC002F49096888470C212E4800F05DF80F4800F05EF800F060F84FF4005198F800006D
:200EDC00BDE8F44F0EF05EBA6E4F0020044F0020604E0020084F0020B63F00502C4E002084
:200EFC00E81200503C4E00200C4F0020344E00206D4F0020F8AD01007B4F00206B4F00207F
:200F1C00724F00206C4F0020F04E0020F44E00207C4B0020F1930100F84E002001940100D1
:200F3C00FC4E0020E81B0020104F0020D02E0020184F0020D42E00209C2E0020684E002002
:200F5C00004F0020CC2A0020CC2E0020884E00208C4E0020904E002058150020544F002098
:200F7C005C150020F84D0020DFF800F0E5710110DFF800F01D6E0110DFF800F04D71011038
:200F9C00B0B5174C241D20680004070C23D01248006800688047114991F90720824205DDF8
:200FBC0010F1800FB8BF6FF07F00C8718D88BD4210D80A68D4F8D40F801A801C1F2888BF16
:200FDC001F207F1B4008C7404FF6FF70EF19B84238BF071C8F80B0BDEC010010C42E002072
:040FFC003010094068
:20100000B41200001810000015AB0110FDB301106DC00110FDAE011099B5011000000000F7
:08102000000000002F00000099
:20102800B01200003C100000B1C00110A9BF011067C0011069B80110000000000000000035
:041048002D00000077
:20104C00B012000060100000BDC00110CDB30110D9BD01106DB3011000000000000000005B
:04106C002E00000052
:2010700000000000101C002004000000000000000000000020000000E8C9011030000000FE
:2010900028100000181C00200400000000000000000000000C000000D8CA011018000000D9
:2010B0004C100000201C002004000000000000000000000024000000F0CA0110180000005D
:2010D00000000000281C00200400000000000000000000001000000018CA01102C00000069
:2010F00000100000301C0020040000000000000000000000200000006CCA011024000000D5
:20111000FFFFFFFF381C00200400000000000000000000002800000090CA01102400000094
:20113000FFFFFFFF401C00200400000000000000000000001400000008CB01101800000013
:20115000FFFFFFFF481C002004000000000000000000000058000000B4C9011034000000E1
:20117000FFFFFFFF501C00200400000000000000000000001000000020CB011018000000AF
:20119000FFFFFFFF581C00200400000000000000000000001C000000B4CA011024000000DC
:2011B000FFFFFFFF601C00200400000000000000000000003800000044CA01102800000004
:2011D000FFFFFFFF681C00200400000000000000000000005400000078C901103C00000079
:0811F00001000000BCAD01008C
:0411F80001000000F2
:0411FC0000000E00E1
:0412000000000F00DB
:0412040032000000B4
:0412080001000000E1
:04120C00781A00202C
:0412100000020000D8
:0412140000000000D6
:0412180001C90110F7
:04121C0000000000CE
:0412200000000000CA
:0412240008000000BE
:04122800000023009F
:04122C002019002065
:0412300001000000B9
:04123400901A0020EC
:0412380008000000AA
:04123C00381A00203C
:0412400000000000AA
:0412440000000000A6
:04124800080000009A
:04124C00000000009E
:04125000000000009A
:041254000000000096
:041258000000000092
:04125C00010000008D
:0412600088190020C9
:041264000600000080
:041268000100000081
:04126C00CC1700207B
:04127000000000007A
:041274000000000076
:041278000002000070
:04127C00000000006E
:02128000290043
:02128200010069
:02128400250043
:021286002D0039
:021288002E0036
:02128A002F0033
:02128C0001005F
:01128E00015E
:081290000300000068AD01003D
:0812980000000000000000004E
:0412A0000000010049
:0412A4000000030043
:0412A80013C401105A
:0412AC00B5910100F7
:0412B000B812000070
:0412B400B81200006C
:0412B8000000000032
:0412BC00901A002064
:0412C0003D93010059
:0412C4002000000006
:0412C800CCAC0100A9
:0412CC00F4AB01007E
:0412D00029C101101F
:0412D400D7720100CC
:0412D8001377010087
:0412DC00A1C7011095
:0412E000A3C701108F
:0412E4000000000006
:0412E800EFAC010066
:0412EC00F0A9010064
:0412F00008AA010047
:0412F400D8A9010074
:0212F8000200F2
:0212FA000900E9
:0212FC000100EF
:0212FE000000EE
:0113000001EB
:04130400BD92010095
:04130800317201003D
:04130C0089860100CD
:04131000E57501007E
:04131400E17601007D
:0413180069720100F5
:04131C006931010032
:04132000D79401005D
:0413240081480100FB
:0413280015C70110D4
:04132C0025C70110C0
:201330002DE9F04FBC4C04F114012046ADF14C0D13F0A6FF04F180050021284618F0C4FD5F
:201350000122B649A56104F1EC0013460025009514F00EF8B2494FF400504FF4FA622B46B9
:20137000009004F5887014F003F8AE494FF480404FF4FA622B46009004F59A7013F0F8FF46
:20139000A94E06F1180006F10C010FF0B3FCA749B06018F0C9F8A64FB0684FF4E0213A46EB
:2013B000521E15F0C5FFB0684FF4E0213A4615F0BFFFA04FB0684FF0C0513A46521E15F0F9
:2013D000B7FFB0684FF0C0513A4615F0B1FFAA4606F12400C8222B469749CDF800A013F0FC
:2013F000C7FF9648294670604FF0804013F0FEF8206104F1980104F18C000FF07BFC904E1E
:20141000E06121211E22304616F092FF8D4829464FF6FF7216F08CFF8B4829464FF6FF7269
:2014300016F086FF894829464FF6FF7216F080FF874829464FF6FF7216F07AFF2769854DC1
:201450004FB13046067936B103212970AF605146E96015F0C9FE804E10200622A0233146C8
:2014700009F014FF10200722A023314609F00EFF10200822A023314609F008FF10200922C8
:20149000A023314609F002FF10200A22A023314609F0FCFE10200B22A023314609F0F6FEFB
:2014B000102002224FF4FA63314609F0EFFE10200C225023314609F0E9FE10200D225023D1
:2014D000314609F0E3FE10200E225023314609F0DDFE314610200F22502309F0D7FE102044
:2014F00031465023024609F0D1FE314610201122502309F0CBFE314610201222502309F08C
:20151000C5FE314610201322502309F0BFFE314610201722502309F0B9FE3146102018220F
:20153000502309F0B3FE314610201522C82309F0ADFE314610201622C82309F0A7FE314632
:20155000102019224FF47A7309F0A0FE314610201A22534609F09AFE207816F09BFBD549EA
:201570000246102009F092FE8DF82DA0ADF822A040F2053001210DF12D020AF027FB40F29D
:20159000063002210DF122020AF020FB04F1B0024FF442700F210AF019FB04F1D4021621CF
:2015B00040F207300AF012FB0F2001210DF12E028DF82E0040F204400AF008FBBE4F04F104
:2015D0007000BE4EB8613078A072387816F062FB0246F87A07F134030090B949019307F192
:2015F0004403029307F1140303937B78102009F04DFEA17A480000EB011080B210F036FE2E
:20161000206258B3A77A57B34FF6FF713B465B1E20F8121BFBD122E008020020FD660100B2
:2016300029940100D193010018180020296D01000E0005800E000010E1910100A58F010037
:20165000E4180020E815002080170020E816002034170020001B0020BD840110A77A38011A
:2016700010F004FE0746A76257B1A37A43B15046F8803870B88078805B1E07F11007F7D1B3
:2016900004F1BF00D349009052461523102009F0FDFDD14910204FF0FF3209F0F7FDCF4928
:2016B00010204FF0FF3209F0F1FD1020D34F0090D44AD348132339460190102009F0E6FD26
:2016D0003078800010F0D2FD0146D3488146816069B14FF6FF7015F0F7FDD049102009F1EF
:2016F0002402009011230191394609F0CFFDDFF830831020414609F0C9FDCA4910200422B1
:2017100009F0C4FD012602274FF0040B8DF82F6003208DF83070C4498DF832B009AB8DF858
:20173000310050460A6809791A600DF12F02197131460CF06DFF0CAA304601460CF068FFF6
:201750000DF13102384631460CF062FF03200DF1320231460CF05CFF052109AA58460CF060
:2017700057FF04F13800C9F804004146102009F08DFD207816F08EFACB490246102009F02C
:2017900085FD207816F086FAC8490246102009F07DFDD0468DF8337030468DF834600DF1D2
:2017B00033074FF480628DF8360003468DF83580C94E00971020314609F068FD0DA840F2E2
:2017D0000242012300903146102009F05FFD0DF1350040F20342012300903146102009F007
:2017F00055FD0DF1360040F20642012300903146102009F04BFDB94904F17802102009F0A3
:2018100045FDB749102009F041FDB74F04F2A2261096B44B1193129307F110000F907AE15B
:201830005FEA5B4024BF0120607074E104285F4600F0AF80A078002800F08880401E00F015
:201850008180401E27D0401E40F06581780A0FD2780BC0F06081504614F068FFA3485146B4
:20187000FA2211F040F984F804A084F801A052E117F0E8F904F1600282E803009C4A0320DD
:2018900008210CF0C5FE012840F0458120690F21C7A306464BE0216B380C13D2F80BC0F02F
:2018B0003A81206914215246CAA316F0C0FB16F0A9F830E15188011080090020694F0020B6
:2018D000893F0100002934DD884890F91830CF4F02290ADB1930491E90F918209342BCBF65
:2018F000131C871C1930491EF6D117B350468DF8390001210DF1390240F209300AF066F952
:2019100079492B200F9EC872BB88B38039683160754A40F2073016210AF058F916F072F801
:201930002669384613F04CFD1421C0A300903046EEE0206914215246C6A316F078FB84F81E
:2019500002A0E8E0B80BC0F0E680B0E767485146FA2211F0C8F80220C4F830A001210EAAF2
:201970008DF8380040F209300AF030F95E495E4A2A20C87240F2073016210AF027F916F079
:2019900041F8E0690621012215F0E2F90120A070C1E0C7480068390A48D2B80A20D2F80A2F
:2019B0000CD2780BC0F0B780606B192242431098514611F098F8C4F834A056E717F042F965
:2019D00004F1680282E8030010F00CFC012811D11AE0C046E520010019880100E58B0100FF
:2019F00017F030F904F1500282E8030010F0FAFB012809D00F21C6A389E0C046EB7B01008D
:201A100044AD0100AC0F002020690F215246C7A316F00DFB3BE0C0465C12002050AD010073
:201A3000AD140100158F010076AD0100C78801265FB3206A008812210222534618F040FA3F
:201A5000059010B39A49096802278989ADF81270891CADF81010314601708DF818A005983C
:201A700080F801A0266A20788DF819A016F012F90090C949328804AB102009F007FCC6B217
:201A90001EB104A8122118F017FA20692EB94FF40071606918F00CFA3DE00F215246CBA321
:201AB00016F0C5FA8021F4E73181011099950100A07901281ED15FEA9B402CD3CA4910204C
:201AD00002224FF4FA6309F0E1FB84F801A084F803A0CBA31AE0C04679760000558A0100E4
:201AF000C5AB001040E20100DC020020B003002068020020BC491020022241F6583309F0C4
:201B1000C5FB0120E0700DF019FEC6A311212069524616F08CFA6069CA4A51464FF0FF3343
:201B300018F0C2F95FEA000BF5D0504607900BA907AA08A815F068FD002871D1BDF82000CE
:201B50000127102867D120789DF82C10884262D1079801884FF6FF728A4259D14088C00813
:201B700059D3666A002E56D0607906F10803401C6071CA49009372883379102009F086FB07
:201B90005FFA80F8B8F1160F35D02078B8F1040F31D0666A16F07EF803465046BE4900907A
:201BB0007288102009F072FB404611F09BFA32E04572726F7221204E6F746966696361746B
:201BD000696F6E2073656E64206661696C65642100C046C0646972656374206164766572CC
:201BF000746973696E67206861732074696D6564206F7574210060790090297820695246F4
:201C1000A1A3491DC9B216F012FA04E0B203002000F08AFA0746079810B10FB117F052FD8D
:201C30005FEADB70C0F022821AE2C046646972656374206164766572746973696E672068E7
:201C50006173207374617274656420746F3A2025732100C04E6F207461726765742061646A
:201C7000647265737320666F756E642100C0A669304618F015F9864208BF574602D087688E
:201C900016F01EF8381C00F0EB81216938882E788846401E00F0DB81401E00F0A780801FEC
:201CB00054D0083806D0103800F07381D5E1C0463002002078688378FBB1012B14D0022BDC
:201CD0000DD0032B40F08C80C378002B08BFBBA314D00188C0A30091C278019210E0C378C9
:201CF000002B7DD1C3A309E0C278002A08BFC7A304D00088CBA30090EFE7CFA300880090BD
:201D1000F61C40465246F1B216F091F968E0C04653756363657373212057726F7465207443
:201D30006F207365727665722100C0464572726F722120577269746520746F20736572760D
:201D50006572206661696C65642100C078680078010923D2400943D30E2017F043FA0028E6
:201D70003ED16868697803790A46934211D0FF2A36D000EBC203DE682EB900EBC1000069F0
:201D900015F032FA2CE000EBC20003690846984726E08068F4E7C0461F9701000D2017F0F6
:201DB00021FAE8B9696868780979814214D0FF2816D0401CC0B215F0F3FBFF2802D150461F
:201DD00015F0EEFB68700BF05BFF09E04368696C6C2062726F2100C0504615F0E1FB687070
:201DF000786815F06DFF38E1BD8401107968087850B3801E00F0BB80801E00F0B580C6E081
:201E1000457874656E646564207363616E6E696E67206861732074696D6564206F757421E8
:201E300000C046C0457874656E646564207363616E6E696E6720686173207374617274651B
:201E5000642100C0FFFF03C023794BBB16F0FAFE04F1580282E80300B149504614F0C6FABC
:201E7000206D0090A06D01902978206952468BA3491DC9B216F0DBF860694FF4807118F0E8
:201E900017F80120207181E05273702073656E642072657472793A0023930100DDFE0010DF
:201EB000A049504614F0A2FA206DF61D524681A3F1B20090404616F0BAF8A06D00902978E8
:201ED000206952467DA30831C9B216F0B0F8206E00902978206952467CA30931C9B216F095
:201EF000A6F8A06E009029782069524679A30A31C9B216F09CF804F1500003C804F1580209
:201F10000CCA04F16806121A8B4196E8030004F16006121A8B4196E803000026801841EB41
:201F30000301CA0F12184FEA520046EB01033246D90708435910D0F1000862EB010917F097
:201F5000ABFF04F1480106C904F1480311EB080142EB090283E8060017F09AFF60694FF420
:201F7000805117F0A5FF11E05EA30F210AE002200DF1370114F03AFA9DF83700761D60A3D7
:201F9000F1B200904046524616F051F87968084627E7D7F804901198F61C52465BA3009010
:201FB000F1B2404616F043F8129800905B49B9F80A205346102009F069F911E743786E2089
:201FD000256420626F6E642073617665207375636365737300C046C043786E2025642062A3
:201FF0006F6E642073617665206661696C65643A2025640043786E20256420626F6E64695B
:202010006E67207375636365737300C0636F6E6E48616E646C6520256420706169726564CA
:2020300000C046C070616972696E67206661696C65643A20256400C0636F6E6E48616E648F
:202050006C652025642070616972696E6700786800F06AF8786817F035FB384615F030FEF2
:20207000A06917F011FF00283FF401AE6078071C07D07F1E3FF41CADBF1E012F7FF6D6ABB8
:2020900049E55FEA1B30FFF4CBAB0DF057FBE0690621012214F05CFE3DE5C04674313A209E
:2020B00025752C2074315F7072696D653A20257500C046C07431203A2025750074315F7022
:2020D00072696D653A20257500C046C074323A20257500C074325F7072696D653A20257519
:2020F00000C046C0436C69656E742068617320656E61626C656420636F6E6669672100C0ED
:202110004368617220333A20256400C050617373636F64653A20256400C046C015770100D3
:2021300058020020700200202DE9F04F05460120ADF11C0DCB4C06902878913800F012845F
:20215000DFF824A3DFF828931F3800F04583203840F079845046A8460590057861782769AC
:20217000E26998F80200002800F00083401E00F08782801E00F04982401E00F01E82DFF862
:20219000F4A2DFF8F4B2401E00F01181401E00F08680401E00F0E382801F40F0548498F8FE
:2021B0000300D4F83490002858D1B9F1000F08F1050A53DD04F529764D46304651460622DA
:2021D00016F012FA002845D1D8F81000C17A00262B2906D1103004F13C01062216F004FA95
:2021F00008B1002E3AD008F1050013F0E9F800901221324692A3384615F019FFE6700DF09E
:202210009DFA9A49102002224FF4FA6309F03EF8E0690621324614F09BFD0420607098F809
:20223000040008F1050114F081F8059D206929783246D6A3091DC9B215F0F9FE27692D787F
:2022500008F1050013F0BCF86D1D3246E9B203463846D7E16D1E06F11906AED198F80300EA
:20227000022840F0F083D8F81000C07A2A2840F0EA83B9F1000F04D160694FF4803117F026
:2022900017FED8F810000090D8F80410D8F80820D8F80C30D8F800000DF006FBD3E3032911
:2022B0000AD1A078022807D104F5D4700021FA2210F019FC0020A070E16A192204F5677004
:2022D0004A43002110F00FFC002510204946E56208F0DCFFC7B2B8F8040015F051FEE08155
:2022F000A17A814240F3AF83226A41004FF6FF7301EB0011069E5352A26A0301D55406FA88
:2023100000F0D118CD8082B22946504616F010F8E089294606FA00F082B2584616F008F8A0
:20233000E0898640D4482946B2B216F001F827B9D24829461C2215F0FBFFDDF814A0D4F875
:2023500010809AF800601020494608F09FFF761C00902A46B7A3F1B2404615F068FE20698D
:202370009AF800102A46B7A3091DC9B215F05FFEA07A401EB84210D15646317820692A464D
:20239000B4A3891CC9B215F052FE317820692A46B5A3491DC9B215F04AFE6078042840F005
:2023B00052834FF48051606917F082FD4BE398F80160002E40F0F28003290ED1A078022899
:2023D0000BD115F01FFB0320A070E0690621002214F0BEFC0598276905782D1D38460022DB
:2023F000C8A3E9B215F023FE0598266905784946102008F04BFF6D1C009000228DA3E9B2F1
:20241000304615F014FE0020E071B8F80AE0A77A08F1040C87B1256A064601463A464FF6CB
:20243000FF70123D35F8123F984227D0521E06F1120601F10101F5D1904E152557E0C046F1
:2024500054617267657420636F6E6E65637461626C65206469722061647620616464723AB8
:202470002025730008020020001B0020BD840110F17F011080170020E8160020A5F800E00A
:202490000F46604612F09CFFAD1C01460F2228460EF0E2FB06980022B8401FFA80F950462A
:2024B000494615F045FF58460022494615F040FF5546DFF8C4A100224946504615F038FF47
:2024D000206AFB0036185919B61CCE6003EB0B02D66003EB0A05EE60684EF088400904D2DE
:2024F00030461C21002215F023FFFDB2A77AB949102008F0CBFE874212D80699002740F262
:2025100005300DF112028DF8127009F05FFB059920690978CAA33A46891CC9B215F087FDCC
:202530000599236A097820696A0002EB0512491D9B18C9B200229B1C15F079FD304614F086
:2025500053FE6078042840F07E82B8F80A00054615F016FDE081A17A814208DDA26A0699FA
:20257000000100271154801887803E464680A089001FADF80800207815F08CFBB54900902E
:202590002A4602AB102008F081FE5CE2436F6E6E656374696E6720746F3A00C02D1D38465C
:2025B0000022CBA3E9B215F042FD98F80100009005990978CAA3491D21E0A57A49461020AA
:2025D00008F064FE854216D9514620690978002220A3891CC9B215F02AFDA17860690129FD
:2025F00004D0022904BF0020A0702CE20221A1704FF40041D8E651460978C9A3891C2069A3
:20261000C9B2002215F013FD1DE2AD1C38460022CBA3E9B215F00BFDA078012807D0022838
:2026300040F0118204F59A7017F06DF80BE204F58870F9E7436F6E6E656374656420746F04
:2026500020256400446973636F6E6E65637465642100C046526561647920746F2041647694
:2026700065727469736500C0526561647920746F205363616E00C04634170020E4180020D4
:202690000020A07106211046002214F061FB98F80300E06298F80300E8B1B14802210022BB
:2026B00015F046FE069E04F5677A00254FF0190BB14698F80300A8422ADC0E2D0BDA4E468D
:2026D00006FA05F082B2A548002115F031FE6D1CEDB20E2DF4DB98F8030000900599206903
:2026F00009780022C3A3091DC9B215F0A0FCE078002800F0A8816078012840F0A4814FF44D
:20271000003150E6436F6E6E65637465642100C0D8F80400EF0039184B780BFB05F202EB0D
:202730000A067370C05D891C0AF802000A68B01C02608988818012F043FE083601460F2225
:2027500030460EF089FA854809FA05F3002299B23F18FE6015F0ECFD6F1CFDB2A9E798F840
:202770000300291DBBA30090384649E7B8F80A00A08108F1030012F023FE03462946002290
:20279000384615F054FC5546297820690022B5A3491CC9B215F04BFC297820690022B5A347
:2027B000091DC9B215F043FC08F10300A84902680A6040684860069AD349102008F066FDCC
:2027D00004F13C014FF441700CF0B8FC04F1EC002AE7C046F17F01106978207816293BD0D7
:2027F00050462979266900787E2900F104001DD07F2918D01B293BD1E9686A8904F1600088
:202810000EF02AFA04F1600003C800229CA38DE8030030460C2115F00AFC60694FF48061F2
:2028300017F046FB24E0298997A301E0297A9AA30091C1B20022304615F0F9FB18E0C046FC
:2028500043616E2774206164763A206E6F206C696E6B7300A970010015F01CFA0346042046
:20287000AA4900906A88102008F010FD00286DD04946102008F00AFD00284AD0688815F044
:202890007FFBE0812A790B2A32D0012A02D1297A0A292DD0132A0DD0012A02D1297A1229AC
:2028B00008D0A16A0001085C002832D0284609F0FFFA2EE0514620690978012A16D0227ADA
:2028D00079A3521CD2B22272521ED2B21BE0C046436F6E6E656374204661696C656400C062
:2028F000526561736F6E3A20256400C072A309E0514620690978012A03D0EA68127872A32F
:2029100001E075A32A7B0092491D0022C9B215F08EFB297905F1080017F0CEFA93E0C046FE
:2029300043616E277420416476203A204D617820636F6E6E73207265616368656400C046CC
:202950004164766572746973696E6700069810F0C9FB65620020069075E0C046E815002090
:20297000E418002068780E384DD0801E67D02E3869D1A878266B802865D10A2E63D0002E4B
:2029900005F10509A0460DDD08F5D577344648463946062215F028FE002854D0641E07F16A
:2029B0001907F4D14A461168192000FB068404F5D474A01C016091888180104612F000FD8E
:2029D00001460F2204F108000EF046F9E87AE07595F90C00207628796070771CC8F83070EA
:2029F000009795F90C000190D8F81070152100223DA32DE44465766963657320466F756EF1
:202A10006420256400C0A88842F2030181421AD1A9680878B8B9491C0DF10A000A68496831
:202A300002600DF10A074160387839490DF10A0200F0FD003870102008F028FC03E008204C
:202A5000002107F02FFF069807B0BDE8F08FC046170F0020506172616D20557064617465E7
:202A700020256400436F6E6E656374656420746F203000C0496E697469616C697A65640081
:202A900054323A20257500C04D54552053697A653A20256400C046C046432056696F6C61EE
:202AB0007465643A2025640057726974652073656E743A20256400C057726974652045727C
:202AD000726F7220256400C052656164207273703A20256400C046C05265616420457272CB
:202AF0006F7220256400C0464E756D207363616E2072657175657374733A2025642C207204
:202B10007373693A20256400698301002393010095B400102DE9F04F0F4685B0804617F8C2
:202B3000010B8DF800004FF4B07008EB00044FF49C7008EB00059DF800104FF4C67008EB42
:202B50000006182908F1E70A08F1660908F20D1BDFF86C0700F2A183DFE811F019007200F7
:202B7000660194009F039F03FD007903140127010101100138019F039F0384019F03680130
:202B90005C018503E402E40236029F03810217F8010B88F886000222394608F1880017F0CB
:202BB0006FF90146022208F18A0017F069F90146022208F18C0017F063F90146022208F18F
:202BD0008E0017F05DF9074698F88600400088F8860008F1860108F1860002224088400026
:202BF000488008F1860080884000888008F18600008900010881394608F1840017F040F960
:202C100008F10601B9F81E004988401A80B247F6FF7188422BDA08F1860008F18601C088B5
:202C30008988401C4900484308F186010989884228BF3B2080F04082012089F81C001CE039
:202C50000522394608F1610017F01AF90146022208F1920017F014F908F1860008F10601C1
:202C700080894988401A80B247F6FF71884280F2228208F186010120887208F10601002096
:202C900008834CE29AF81600C0070AD41A208AF80E009AF80D00012808BF0D213FD00D215A
:202CB000D7E1002089F8000089F80600082201208AF81100394608F1B00017F0E1F80146F7
:202CD000022208F1B80017F0DBF808F1A80401460822204617F0D4F807460821204617F003
:202CF000CBF808F19C0404223946204617F0C8F80421204617F0C0F808F1A00017F0B8F8FC
:202D100008F1980017F0B0F8DFF8B805018841F0800101809AF80D00012806D104214046C9
:202D300005B0BDE8F04F14F0D7B899F81000012804BF99F811000F280BD1404611F078FE18
:202D50000421404611F036FB0F2089F81A00FD217FE104217DE101208AF80F00ACE200205B
:202D700089F8000089F806008AF800000B2101208AF80D0000208AF801006AE101208AF84C
:202D9000100099E2002142187B5C547A23437B5452781A4008EB0103491C082983F8FD20FA
:202DB000F1DB404611F0E2F97CE2002142187B5C547A23437B5452781A4008EB0103491CA2
:202DD000082983F8FD20F1DB022053E299F8060008B93D2070E19BF800000128D1D017F885
:202DF000010B8BF8030002224FF489703946404417F046F801464FF48A700222404417F056
:202E10003FF801208BF800009BF8020000281BD10C211EE19AF81600C00601D41220D9E0C4
:202E3000404612F06DFB3DE2387845E1387820707878607099F8100001280DD199F8110053
:202E50000F2802D0162803D036E20120687333E2307B40F001001EE205B0BDE8F04F00208A
:202E700015F0FEBE9AF81600810706D41121084201D10F20AEE01A2254E03878797800EB70
:202E900001202882F978B87800EB012068827979387900EB0120A882F979B87900EB012038
:202EB000E882387A2876B97A787A00EB01206883397BF87A00EB0120A883B97B787B00EBBD
:202ED0000120E883397CF87B00EB01202884B97C787C00EB01206884397DF87C00EB01201F
:202EF000A884B97D787D00EB0120E8844FF4AA7040440490688B0390287E029008F10600C1
:202F100040880190E88A0090AB8A6A8A298A404610F03AF868B19AF81600400701D40F20A6
:202F300058E01E22404605B0BDE8F04F0F2113F06FBD688A08F186018880A88AC880E88A25
:202F50000881022088F886000020488008F1060108F10600C08DC01DA9F81E0008F1860061
:202F7000898D808888420FD108F1860008F10601C088C98D884207D108F1860008F106013B
:202F90000089098E88421DD099F81000012804BF99F811000F2807D099F8150020B10F2067
:202FB00089F81A00FE2154E0FC21404611F002FAE88A0090AB8A6A8A298A98F8060016F0F9
:202FD0004FFF79E1102144E09AF817000921084203D116208BF80C0061E17978387801F05A
:202FF0000701084038700146707B0840F07212D0411E08420DD0400703D5B07B08B104205E
:2030100003E0F17A0220014201D0F07201E04008F9D1F07A08B9B07AF072F07A042803D1A6
:20303000404612F034FBA083F07A16F015FF3071A28BB17B012313F079FA0146208B8842D2
:2030500005D3A28BB17B3079012313F06FFA70801721404605B0BDE8F04F11F0ABB978785A
:203070003978814207D100F007000840387034D0421E10420FD01E221821404613F0C8FCB2
:2030900098F80610002300221E200DF069FB307B40F04000FFE0F072F978B87800EB01208D
:2030B000308108F1060130894988401A80B247F6FF71884206DB28208BF80B0001208BF867
:2030D0000A00F9E00120B071F07A042803D1404612F0DDFAA083F07A0BE099F8110016289A
:2030F00006D1B27A98F80610134600200DF038FBB07A3071A28BB17B3079012313F016FA6A
:203110000146208B884205D3A28BB17B3079012313F00CFA7080307B40F04000307301200D
:203130002870C9E03878797800EB01206082F978B87800EB0120E0827979387900EB0120F1
:203150002082F979B87900EB0120A082A18AE089884288BF0846B17A042904D1B0F5296F8F
:20317000D8BF4FF42960E28BE0839042B07A14BF4FF001094FF00009042803D1404612F024
:2031900086FA04E0A089E18A884288BF0846A28BA08390422089628A238B14BF012100214D
:2031B000904288BF1046984241EA090114BF0122002242EA01052083A28BB17B307901236E
:2031D00013F0B4F90146208B884205D3A28BB17B3079012313F0AAF970806189208A628B5E
:2031F000814288BF01466183914214BF0120002005438A42344998F80620096801EB4211AC
:20321000628B8041121DC00F0A7610B1404614F0DDF89DF80000142810D145B1E08B0090AF
:20323000638BA28B218B98F8060016F011FE404605B0BDE8F04F15210EF03CBE1DB1307849
:2032500040F008003070307840F020001BE038780E280ED00F2809D0122804D014280CD099
:20327000162812D028E00020287225E00120287322E003208AF815001EE0307840F0020007
:20329000307040F01000307016E0307B40F00200307340F0100030730EE08BF80C10404632
:2032B00011F052FD40B905B0BDE8F04F074800784FF480410CF06CB805B0BDE8F08F00BF99
:2032D000582E0020524F0020CC2E00206E4F00202DE9F04F0D4685B0814615F8010B8DF83E
:2032F00000004FF49E7009EB00064FF4B0709DF8001009EB00044FF4C670891E09EB000758
:20331000152909F20D1B09F1E70809F1060ADFF8680700F29C83DFE811F00F019A03160067
:20333000440048007A039A03C3009A037D00D600810088001701E901280204018403E80279
:20335000E8022F02A00209F1A00608222946304616F096FD05460821304616F08DFD09F1E4
:20337000980404222946204616F08AFD0421204616F082FD00214842484409EB010290F853
:203390009F0082F8BF00491C0829F4DB09F1C702314609F1D70016F057FD012088F80000DA
:2033B00066E3012088F8130062E398F80D1098F81600012900F010000DD130B1002070717E
:2033D00030684108B07910F0D7FC9AF80000002116F036FD11E050B14FF4A17009EB0003D7
:2033F000306842084946DFF8940616F003F99AF800000122002116F01FFD012089F86600D9
:20341000484612F0EEFE09F166010120887188F80F002DE3012088F8100029E3287888F829
:203430000E00012088F8140022E398F8121001291DD198F8001001294DD098F8161009073D
:2034500004D40E208BF80C00072100E2002142186B5C567A33436B5452781A4009EB01035A
:20347000491C082983F8FD20F1DB0921EFE198F81610090758BF0E2058D5002142186B5CCE
:20349000567A33436B5452781A4009EB0103491C082983F8FD20F1DB484610F067FEDDE24F
:2034B000002142186B5C567A33436B5452781A4009EB0103491C082983F8FD20F1DB02207D
:2034D00088F81500D4E298F81200012804BF98F80000012806D13D208BF80B0001208BF8E4
:2034F0000A00C5E29BF800000128FAD015F8010B8BF8030002224FF489702946484416F085
:20351000BFFC01464FF48A700222484416F0B8FC01208BF800009BF802000028E1D10C21B2
:2035300095E198F81600C00658BF122040F19182484611F0E5FF91E228788BF80B00F021E7
:2035500000208BF80A000AE198F81600810707D41121084208BF0F2000F07B821A22F6E049
:2035700009F16601097C012902BF09F16601497C0F2911D009F16601497D0A0003D009F12D
:203590006602527C22B109F16602127F012A05D1400758BF0F2064D52322D8E021B109F18F
:2035B0006601497C012904D009F18601897A012905D1400758BF0F2053D52A22C7E0287805
:2035D000697800EB0120B081E978A87800EB0120F0816979287900EB01203082E979A879FB
:2035F00000EB01207082287A3075A97A687A00EB0120F082297BE87A00EB01203083A97B0A
:20361000687B00EB01207083297CE87B00EB0120B083A97C687C00EB0120F083297DE87CDF
:2036300000EB01203084A97D687D00EB012070844FF4AA7048440490F08A0390307D0290E6
:20365000BAF802000190708A0090338AF289B18948460FF099FC38B198F81600400758BF0A
:203670000F2040F1F68171E0F08909F186018880308AC880708A0881022089F88600002042
:20369000488009F16601BAF82E00C01DC88309F18600BAF82C108088884201BF09F1860069
:2036B000C088BAF82E10884206D109F18600BAF830100089884217D009F16600407D28B17F
:2036D00009F166010F208876FE21C0E0FC21484610F070FE708A0090338AF289B1899AF8E6
:2036F000000016F0BDFBC3E10021B0E0A878E97800EB01262879697900EB0124A879E979FE
:2037100000EB012705F10B000490A3B2687AA97A00EB012080B20390B2B2287A0290BAF87C
:2037300002000190B8B200906978287800EB012081B248460FF028FC58B198F81600400785
:2037500058BF0F208DD5484611F072F91E220F2134E009F1860000218680C4800781484632
:2037700005B0BDE8F04F13F0B7BB2878207068786070012070727BE198F81700C00758BF67
:20379000162040F1668109F16600407C16281ABFBA79012A232210D0002818BF01280BD012
:2037B0000F281EBF09F16600007F01281EBF09F18600807A012807D12A221621484605B0BF
:2037D000BDE8F04F13F024B96978287801F0070108402870797B08401CBF411E0842F87291
:2037F0000DD0400703D5B87B08B1042003E0F97A0220014201D0F87201E04008F9D1F87A52
:20381000B97A884204BF0020F872F87A08B938811CE0BAF82E00C01D3881F87A042803D17E
:20383000484611F034FFA0830123F87A3871A28BB97B12F07BFE0146208B884205D3A28BB7
:20385000B97B3879012312F071FE78801821484605B0BDE8F04F10F0ADBD6978287801F0AA
:20387000070108402870F97A08401CBF411E0842F8720DD0400703D5B87B08B1042003E0B8
:20389000F97A0220014201D0F87201E04008F9D1F87AB97A884204BF0020F872F87A10B91B
:2038B0003881B87A0BE0BAF82E00C01D3881F87A042803D1484611F0EAFEA083F87A387185
:2038D000A28BB97B3879012312F030FE0146208B884205D3A28BB97B3879012312F026FE82
:2038F0007880387B40F02000AFE02878697800EB01206082E978A87800EB0120E0826979EE
:20391000287900EB01202082E979A87900EB0120A082A18AE089884288BF0846B97A042944
:2039300004D1B0F5296FD8BF4FF42960E28BE0839042B87A14BF01250025042803D1484682
:2039500011F0A5FE04E0A089E18A884288BF0846A28BA083904214BF012100212089628A0F
:20397000238B2943904288BF1046984214BF0122002242EA01052083A28BB97B38790123B1
:2039900012F0D4FD0146208B884205D3A28BB97B3879012312F0CAFD78806189208A628B38
:2039B000814288BF01466183914214BF0120002005438A4232499AF80020096801EB4211EA
:2039D000628B8041121DC00F0A7610B1484613F0FDFC9DF80000142810D145B1E08B0090BD
:2039F000638BA28B218B9AF8000016F031FA484605B0BDE8F04F15210EF05CBA1DB138783E
:203A100040F008003870387840F0200015E028780F2809D0122804D0142808D016280ED0D3
:203A300026E00020307123E00120307220E0387840F00200387040F01000387018E0387BCC
:203A500040F00200387340F01000387310E09DF800008BF80C00484611F076F940B905B0CE
:203A7000BDE8F04F074800784FF480410BF090BC05B0BDE8F08F00BF582E0020E12B0100F5
:203A9000CC2E00206E4F00202DE9F04FDFF800B5DFF800659BF800001E25082887B000F2D3
:203AB0006E82DFE810F072020900090009000900F000860172027202DFF8DC44DFF8DC940A
:203AD0002068DFF8DC84006800F10807062207F1080102A815F076FA0622B91C684615F0B7
:203AF00071FA3978C1F380108DF8140001F00F02C809032A35D16179C1F38001884239D1D4
:203B10002169062202A814F0CFFE00283AD09DF81400694616F08CF9002833D03146684603
:203B300014F02DF8FF282DD0D8F80010897A684335180A0018BF02290AD0012918BF03293A
:203B500018D1325C691C484616F06EF9102819D06A46E91D484610F06BFB06226946E81DB7
:203B700006E201F00F01052940F00F826179C1F38001884240F0FE812169062202A814F075
:203B900093FE002800F0F681387847099DF81400694616F04DF940F2024A70B3314668468B
:203BB00013F0EDFF8346BBF1FF0F6BD005FB0BF031180491D8F80010897A0A0018BF012981
:203BD0000BD0022918BF03295CD1325C0498411C484616F029F9102854D0504616F020F951
:203BF0000498C11D6A46484610F022FB049806226946C01D15F0E6F91DE09BF800000228F2
:203C100040D19DF814106A46304610F082F98346BBF1FF0F36D005FB0BF03044417F012947
:203C300006D000292ED10D3016F0F6F8002829D0504616F0F5F805FB0BF0D8F80020315C23
:203C500091763044411CD8F800000622143015F0B9F9D449D4488978490604D5F90758BF10
:203C700041F20A4101D541F20441418041834186CE480180CE49CF4808600121CE4800783F
:203C90000BF086FB76E1CD4C2068006800F108070F21387808421CBF00F00F01062906D02E
:203CB00002291CBF00F00F00012840F06E810622B91C02A815F086F93878DFF80493C0F3AB
:203CD000801800F00F0001283FD1062207F10801684615F077F93878C7096946384616F005
:203CF000A7F8E8B1D9F80000807C022818BF03285ED106F10D01684616F08AF8002857D0CA
:203D1000D9F800100120C8720622607940F0040060716946D9F800000C3015F053F914E050
:203D30003078874211D10622711C684614F0BCFD58B13078617960F3820161710622D9F8D4
:203D50000000711C0C3015F03DF902A9404616F06FF800282CD0606902A9001F13F010F9EE
:203D7000002825D1314602A813F009FFFF281FD0D9F80010897C684335180A0018BF0229E9
:203D90000BD0012918BF032912D1325C6069691C001F16F049F810280AD0606902AAE91D59
:203DB000001F10F045FA062202A9E81D15F00AF9EBE0844C2068006800F108070F2138784A
:203DD00008421CBF00F00F00012874D10622B91C02A815F0F7F83878DFF8EC91C0F3801857
:203DF00000F00F00012846D1062207F10801684615F0E8F83878C7096946384616F018F8F5
:203E100020B3D9F80000C07A022818BF032852D106F10D0016F000F800284CD106F10D0119
:203E3000684615F0F5FF002830D0D9F80000062269460C3015F0C6F8607940F0040060711E
:203E500006226946F01D15F0BDF814E03078874211D10622711C684614F026FD58B1307832
:203E7000617960F3820161710622D9F80000711C0C3015F0A7F802A9404615F0D9FF002814
:203E90004AD0314602A813F07AFEFF2872D005FB00F7D9F80000817AF51959BB807C15F00D
:203EB000BFF9814699F82E01022811BF0328F15D00F0010081425DD14FF4947009EB00061D
:203ED00006223146681C14F0EFFC30B9062231463E4814F0E9FC00284CD0012089F82E01B4
:203EF0000622607940F00800607102A9304615F069F80DE02069F25D691C001F15F094FF20
:203F1000102837D0206902AAE91D001F10F090F9062202A9E81D2BE0D9F80000817A49BBBC
:203F3000807C15F07DF9074697F82E01022818BF03281FD102AA414630460FF0EAFFFF281B
:203F500018D06843351805F10D0015F065FF10B9687F01280ED187F82E810622607900F02E
:203F7000F70040EAC800607102A94FF49470384415F028F8216809680020087105E000204C
:203F900014F06EFE862015F03FFF07B0BDE8F08F6F4F002028230020F44B0020CC47002002
:203FB000104F0020582E0020204A0020504F0020204F0020E13F00006E4F0020D04B0020BC
:203FD000D02E0020AC4B0020184F002054AE01002DE9F84F012013F047FA01280ED1DFF871
:203FF000E454296800204871286812F02FF805F047FB040003D1812015F006FF5DE201203C
:204010006071DFF8C464DFF8C4044178491C41702968A07981F8A00040200EF051FE206062
:20403000307901281CBF002014F01AFEF0682168DFF89C6400F5B060C86030680068007929
:2040500003281CBF002014F00BFE3068DFF88494006800F1080A4FF4977004EB00089AF858
:204070000000C0F3801088F8000006224FF494700AF10201204414F0A5FF04220AF10E01C4
:2040900004F1240014F09EFFD9F80000A37900EB431004220AF10E010C3014F093FFD9F858
:2040B0000000A37900EB431003220AF11201103014F088FF04F12C079AF81500B87002227D
:2040D0000AF1160104F1300014F07CFF02220AF1180104F1320014F075FF02220AF11A0109
:2040F00004F1340014F06EFF3889608402220AF11C0104F1360014F065FFB8787989400030
:20411000B8700901B88879814000B88089B2F8884000F88080B2628C521C43005A438A42FE
:2041300000D238B9DFF8B003007880210BF030F93B21F5E004F12E01204614F035FB0520D1
:20415000A081204614F00AFD05220AF11E0104F1610014F037FF9AF823004009387015F041
:204170004FFE60822968DD4D498A401AA8F80C0004F161019AF82300DFF864A300F01F0073
:20419000F873204612F0F2F931680968002008711C26A1792868714341F6210242520022FE
:2041B000A179714301444A80A1797143084442609AF80200400609D5CA48008841F20A4186
:2041D00088420CBFC848C948C4F89C012046D4F89C118847A2792968724311448873A17947
:2041F0002868714308440021C173C148007870B1B88860B978730120208160812046D4F80F
:204210009C118847A2792968724311448873A179286871430844807B787394F8960108B9ED
:2042300014F01EFDA1792868DFF8C8B27143084494F89611491E01740022A17928687143C5
:20425000084400214174A0792968704308444282A279D9F8000000EB421372430A445361DC
:20427000A27972431144A44A8A61DBF8141091F800C094F806E05FEACC714CBF102100219B
:204290005FEA8C724CBF202200225FEA4C734CBF402300235FEA0C7C4CBF4FF0800C4FF0D9
:2042B000000C1143194300EB4E104CEA010141F00F010172D9F80000A17900EB41100B21AA
:2042D0004172D9F80000A17900EB411004218172D9F80000A17900EB411088490978012939
:2042F0001CBFDBF828104978C172D9F80000A17900EB41101F210176D9F80000A17900EB20
:20431000411000214176A0790BF0F0FFA279D9F8001052018850A0794201895821B90721FB
:20433000204614F0EEF9C8E07549096801EB001015F062FD724AA1791268D9F8000002EBD7
:20435000011200EB41114A60A17900EB41114968F963A17949014058786404215E480078D4
:204370000BF016F86249B888097800F1020E19B110B9F88800F1020E608A00FB0EF04FF47D
:20439000C871B0FBF1F0401CC4F818E0606140F6C41394F806C02968226806FB0CFC8C4424
:2043B000CDF800C0D2F80CC003FB0ECCACEB0000A0F5A86C0098C0F808C0A079704308448A
:2043D00080689060A07970430844017B01F0EF010173A179286871430844017B01F07F0175
:2043F0000173A179286871430844017B01F0F00141F002010173A179286871430844417B23
:2044100001F0F00141F001014173A1792868714308442168806808616269D9F80000A17989
:2044300097F802C0520000EB411103FB0C2202F5F6624A61A17900EB4110C17C01F0F001F1
:2044500041F00401C174FA88D9F80000A1795A43DBF830301B6800EB4111D21AA2F51672D9
:20447000CA61A17900EB4110C17E01F0F00141F00401C176A1792868714308442168486042
:204490009AF80100800615D5B8F83A001B2804BFB8F83C001B2809D1B8F83E00B0F5A47F5A
:2044B00004BFB4F86E01B0F5A47F03D0142120460FF080FF134907200870BDE8F14F00F08A
:2044D0002DBD00BF104F0020B44D0020684E0020F44B0020CC2E00206E4F0020CC2A002041
:2044F000582E0020504F0020E34401004B510100784E0020F8AD01005C4D0020734F00204B
:204510008C4E00206F4F00202DE9F84F5FEA000A27D1002014F0A4FB23E050460FF093FC21
:2045300062E2317C012940F07E80C078002877D098F80000400088F80000B8F80200400039
:20455000A8F80200B8F804004000A8F80400B8F808000001A8F8080001203077504610F052
:2045700067FA0AF16606707D002800F064824FF489700AEB00094FF4A2700AEB0004717C03
:204590004FF4C6700AEB000B00290AF186080AF1EC050AF10607DFF8A404C2D0012946D09B
:2045B000022931D0032957D0062900F0A480072900F01E82082900F0F180092900F00F8125
:2045D0000A2900F0B3800B2900F0CA800C2900F013810F2900F04981112900F06A8112290C
:2045F00000F03881142900F0CE81162900F06C81182900F09D81F02900F00082FC2926D075
:20461000FE2900F0048284E7317C012985D1C078002800F08281504610F00AFA1621F1E15F
:20463000B888F18B10E050460DF084F9DCE1317C01290DD1C07800281CBF012088F80A0056
:204650008CD1B888B8F80C10884200F09581F1E150460EF024FCC7E1317C012941D1807802
:2046700050B10020B071A078012805D10020A070002150460FF09EFEA87B01280AD1002008
:20469000286068600621012088F80E00504612F023FC66E7E87B012818D1504610F0C8F914
:2046B000002088F80E0001203070504611F099FD0120B07100206873697A387806291ABF76
:2046D00000221A21002215F0B7FB4AE799F8050001286FD0308B401E308380B200284CD023
:2046F000A8E150460CF046FE3074F08A30830020A873E8739FE1307C01280ED1A87A012865
:204710001FD1504610F094F9002028722873E872A873A872E873687323E7504610F012FCAE
:204730003074F08A30830020A87284E1307C01280DD1E87A012802BF002088F80E000B2120
:20475000A4D0308B401E308380B2B0B172E1504610F01CFD3074F08A30830020E8726AE1DE
:20477000317C012916D1807808B103218EE7308B401E308380B20028E8D1297A38780129C5
:2047900003D1222115F05CFB29E10022222115F053FB24E150460FF083F925E1307C0128E3
:2047B00014D1287C02280AF1FD0204D13978002015F01EFBD2E6308B401E308380B200289A
:2047D0000CD13978222015F013FB08E150460EF0E9FE3074F08A3083012028742AE1317C3C
:2047F000012905D1807810B1B88B3883B6E694E050460FF0BBFCF7E0307C01280AF20D11D0
:2048100021D1087801280DD14878012809D1B9F8020000900020CA78B9F80030397815F010
:20483000E3FA9BE6308B401E308380B2002810D1B9F8020000902220CA78B9F800303978AA
:2048500015F0D2FACBE00120887050460EF062FB3074EFE0317C012903D180780028E0D1D3
:204870005BE0504610F024FEBEE0307C01281CD16078012809D1207F0F281CBF002014F025
:20489000EFF900206070002100E7A078012806D10020A0702322504612F0BAF861E6207872
:2048B00001283AD100202070EDE750460BF066FE9AE0317C012903D1C078002821D12CE0B8
:2048D00050460FF084FC8FE0307C01282CD19BF80C00810648BF1821D6D4C10712D5207F14
:2048F00016281CBF002014F0BBF99BF80C0000F0FE008BF80C0000233978607F00220BF0CB
:204910002FFF2BE6810708D500F0FD008BF80C000023397800221A20F1E7308B401E308393
:2049300080B200285BD085E050460BF0CBF85BE0317C012922D1C078C0B19BF80C009BF849
:204950000B1059B9810610D500F0DF008BF80C0000209BF80A2039781346D0E700F0DF00E3
:204970008BF80C0001208BF80600F7E57988BBF80800491C88425DD1282143E018215046BE
:204990000BF0A0F830E0307C01282AD19BF800004FF4B3710AEB0105810614D500F0DF0060
:2049B00001078BF800000BD500F0F7008BF80000288B0090AB8AEA8A698A387815F048FA3C
:2049D00000202870CAE5810704D500F0FD008BF80000F5E7308B401E308380B250BB222167
:2049F00010E050460DF066FA3074F08A308321E0504610F0A9F90128E4D01BE0407AD0B1A7
:204A100099F80610504613F07CFE012013E0B07E0F280CD1FC21504612F05EFA60890090F0
:204A30002389E288A188387815F01AFA02E0002014F016F90020BDE8F28F00BF5C4D00207B
:204A50002DE9F0475FEA000882B00BD1002014F007F907E0404610F077F9012864D14046B5
:204A70000FF0E6FF08F16605687D00285CD04FF49E7008EB00044FF4B070697CDFF894A406
:204A900008EB00094FF4C670022908F1EC07404408F1060635D0042949D005295FD006291A
:204AB00000F08E800729D5D0092900F0F4800B2900F0C6800C2900F026810D2900F0D580CC
:204AD0000E2900F0F6800F2900F05D81102900F07881112900F09681122900F04181142996
:204AF00000F0D681162900F09781172900F0C381FC2919D0FD2900F0F481FE2900F0F6817D
:204B1000A4E7287C012809D19AF80300002814D01621404613F0F5FD012006E040460FF074
:204B300092F92874E88A28830020BDE8F687287C012810D19AF80200002800F01881FC21CF
:204B5000404612F0C9F9307808F1B80208F1B00115F046F986E740460CF012FEE1E7287C47
:204B7000012810D19AF8020028B1012088F89400002038607860B87A012869D106214046A7
:204B900012F0AAF96EE708F1E7063078012809D1404612F087F80128C6D10020B872012048
:204BB0002874C1E770780028BED008F1C70208F1A00108F1D70015F047F90120307051E799
:204BD000287C012838D19AF80200002840D0B08B308340460FF02CFF01202870404611F045
:204BF00000FB0120A871397A787C012900F010000CD130B10020607120684108A0790FF007
:204C1000BBF83078002115F01BF90FE048B14FF4A17008EB0003206842084146BE4814F05A
:204C3000E9FC30780122002115F006F9002038723873F872B87215E7404610F083F970E731
:204C5000287C012805D1F87A012808BFFC2196D08DE040460EF024FF012853D10020F872D1
:204C700088F8940001202874FCE6287C01280ED19AF80200002809D0002088F894000120DB
:204C90002870404611F0ADFA0120A871BDE0404611F08CFC45E7287C012806D19AF80200F4
:204CB00000281CBFB08B3083A6E040460FF05EFA37E7287C01281DD1387C022808F1FD02E1
:204CD00004D13178002015F093F8C8E6032806D131781A2015F08CF800203874BFE6288B56
:204CF000411E298389B200290CD13178222015F07FF842E040460EF055FC2874E88A288341
:204D10000120387410E7297C012908F20D1021D14FF4897108EB0102017801290BD141787C
:204D3000012907D1518800911388C2783178002015F05AF893E6298B491E298389B200295E
:204D5000E0D1518800911388C2783178222015F04BF812E00121817040460EF0DBF8E0E6FE
:204D7000287C01280BD19AF802000028E2D1288B401E288380B20028C4D12221C9E64046E8
:204D900010F096FBCDE6287C012816D1607A012803D199F800000F281CE0207A012829D1B3
:204DB00000202072288D00090090A88CEB8C317842081A2015F010F851E640460BF0DEFB6D
:204DD000AFE6287C012819D1607A012812D199F8000010281CBF002013F042FF0020607297
:204DF000288D00090090A88CEB8C3178420899F80100DFE7287F0028DED1B8E740460BF0C1
:204E10000EFC8EE6287C012802D19AF80300F2E740460FF0DCF984E6297C012926D1017BF0
:204E30004A062ED4CA070AD501F0FE0101730023317899F8010000220BF092FC0FE68A076D
:204E500007D501F0FD0101730023317800221A20F2E7288B411E298389B2002955D1317811
:204E70000023002222200BF07BFC86E7162140460AF028FE55E6297C012907D1017B490632
:204E9000BBD5017B01F0BF010173E8E51721EEE7297C012920D101788A0617D501F0DF0171
:204EB0000A0701700ED501F0F7010170B9F81E000090B9F81A30B9F81C20B9F8181030785B
:204ED00014F0C6FF002089F80600C8E58A0794D501F0FD010170F5E7142140460CF0EAFFCF
:204EF0001FE6A97E404611F0F7FFBBE6A87E0F280CD1FC21404611F0EFFF608A0090238A65
:204F1000E289A189307814F0ABFF0DE6002013F0A7FE09E65C4D0020E12B01002DE9FE4FB3
:204F3000DFF85084D8F80400009018B9BDE8F74F14F04EBF0078DFF84094DFF840A4DFF8D0
:204F5000404401281CBF0228042846F2A81741F64C5B05D0402818BF802800F0F98001E286
:204F700014F0FAFA0028FAD00098007807F094FE05466E6816B9002013F072FEDFF804043C
:204F90004078002800F0A58004F082FA14F048F90190006802900146476828460BF08EFFE0
:204FB00002286FD02978012904D0022927D0042945D0D7E1DFF8D0130968097A1AF80110EC
:204FD000217018B914F000FF5844B0603069C17E01F0EF01C1763069C17E41F08001C176FF
:204FF0003069C17E01F0F00141F00201C176B868DFF8981308183169C8610120A4E005212C
:20501000217018B914F0E0FE5844B0603069C17E01F0EF01C1763069C17E41F08001C176DF
:205030003069C17E01F0F00141F00201C176B868DFF85813081831690862022084E0062108
:20505000217018B914F0C0FE5844B060D0480068807C11F05DFF3069C17E01F0EF01C176A7
:205070003069C17E41F08001C1763069C17E01F0F00141F00201C176B868C4490818316953
:20509000086260E002980078802811D108202070C0480078012803D0BA484078022801DBC6
:2050B000012002E0D9F8280000787969C8720AE00720B84920700978786901291CBFD9F876
:2050D00028104978C1720198AE4980798870029844E1002D18D000992878A9420ED1401EDE
:2050F000012833D9C01E05D1A9480068807C11F00FFF2BE0002013F0B3FD27E0012804D071
:20511000022815D0042817D02CE19F480068007A1AF80000207014F057FE3918B06814F01F
:205130004FFE18B914F050FE5844B06001200BE005202070022007E006202070944800687F
:20515000807C11F0E5FE042088F80200284605E18C484078002800F0B68004F099F914F001
:205170005FF800900068019045688648807814F057F8029014F0F6F90721084278D098F8AA
:20519000020007F089FD0646019977680BF096FE02286DD03178012904D0022924D00429D2
:2051B00040D062E078490968097A1AF80110217018B914F009FE5844B8603869C17E01F0C3
:2051D000EF01C1763869C17E41F08001C1763869C17E01F0F00141F00201C176A8686B49DE
:2051F00008183969C86192E00521217018B914F0EBFD5844B8603869C17E01F0EF01C17622
:205210003869C17E41F08001C1763869C17E01F0F00141F00201C176A8685C490818396911
:20523000086283E00621217018B914F0CDFD5844B86057480068807C11F06AFE3869C17E3A
:2052500001F0EF01C1763869C17E41F08001C1763869C17E01F0F00141F00201C176A86820
:205270004A4908183969086274E0002013F0F8FC02980099884224D001980078802811D168
:205290000820207043480078012803D03D484078022801DB012002E0D9F8280000786969BE
:2052B000C8720AE007203B4920700978686901291CBFD9F828104978C17200983149807920
:2052D000887001984AE014F04DF9072108424ED098F8020007F0E0FC0646307875680128CA
:2052F00004D0022815D0042822D040E026480068007A1AF80000207014F066FD3918A868C3
:2053100014F05EFD18B914F05FFD5844A860012021E00520207014F057FD3918A86814F0B5
:205330004FFD18B914F050FD5844A860022012E00620207014F048FD3918A86814F040FD96
:2053500018B914F041FD5844A86011480068807C11F0DEFD042088F802003046BDE8FE4FDF
:2053700009F0B2BDBDE8FE4F002013F079BCBDE8F78F00BF9C2E0020F8AD0100289A01101E
:205390006F4F0020684E0020104F0020F0D8FFFF184F0020734F00202DE9F04F0C46E0070D
:2053B00089B00DD513F046FF38B100218160DFF800040068010018BF804784F00100F4E163
:2053D0001E252007DFF8EC6340F18A80DFF8E8030068807C13F024FF07464FF4947097F883
:2053F0002E8107EB0009002007908246DFF8C8030068807CFF2804BF002013F031FC4A46A4
:20541000414630460EF085FD834605FB0BF0009035184946404614F00BFDB0B1BBF1FF0F22
:205430002CD00098305C40F00208E81D079005F1010908F0010087F82E0106224FF4947050
:205450004946384413F0BEFD18E04946404613F079FE002818BFBBF1FF0F0FD005F10D0051
:2054700014F0DAFC40B905F10D0014F0D5FC002804BF687F012801D148F00208CE480068E4
:20549000C07A022818BF032806D106F10D0014F0C3FC08B906F1070A0020BD1D0690434616
:2054B000288E000905900022E88D0490A88DCDF804A040080390CDF800900798029000203E
:2054D000297814F079FCD7F89C01BC49884228780CBF002101210CF0A9FC84F0080064E157
:2054F000E00610D500200690059004900390029001900090002300220021022014F05CFCC8
:2055100084F0100051E1A00710D500200690059004900390029001900090002301220021AD
:205530003C2014F049FC84F002003EE16007A44F40F1A180A34880784FF00008CDF81C80EA
:20555000FF2804BF002013F08BFB386890F8A00013F066FE81464FF4947009EB000B3868CC
:20557000C07A99F82EA1022818BF032806D106F10D0014F051FC08B9F01D0790594650468F
:2055900014F056FC90B33868807A010018BF012804D13146584612F0F2FA04E05A465146D4
:2055B00030460EF0B6FCFF283ED005FB00F806EB080506225946E81D13F004FD16F80800A4
:2055D00040F0020A3868807E00F0010089F82E010622386800F114014FF49470484413F09C
:2055F000F1FC05F1010B05F107081DE05946504613F0A8FDC0B15A46514630460EF089FC2C
:20561000FF2811D06843351805F10D0014F004FC40B905F10D0014F0FFFB002804BF687FA7
:20563000012801D14AF0020A09F12C0009F106050178069153464189090905910122A98B7C
:205650000491C088CDF8088040080390CDF800B0079801900020297814F0AEFBD9F89C01B4
:205670005649884228780CBF002101210CF0DEFB84F0040099E0200610D5002006900590E7
:20569000049003900290019000900023012200213B2014F091FB84F0800086E0E0043BD580
:2056B000F11D06F10D0014F083FB38684179012923D1017A012918BF04291ED1C17A0229D0
:2056D00018BF032919D1817E00F1140230460EF020FCFF2811D06843351805F10D0014F030
:2056F0009BFB50B9E91D05F10D0014F061FB38680622E91D143013F065FC3348426833487C
:2057100000784FF4805110F007FD10B18E2014F04BFB84F4805048E0A00505D513F0F2FE4E
:205730002B4901200860FEE7600504D509F0CDFD84F4806039E0600405D5812014F034FBF3
:2057500084F4804031E0A0042ED5224D286810B1002013F085FA4FF0FF3028600EF0D0FF24
:205770001D4D296820316846096888471B4841682D681B4A00916B46816801910021029168
:20579000016909680391017B00688DF81010ADF812002D6813491448A8471449086004F055
:2057B000E1FD84F4005000E0002009B0BDE8F08F204F002028230020184F0020E3440100AD
:2057D000104F0020684E0020784E00206E4F0020FC002043044F0020F04E0020D018002069
:2057F000FC2D0020201B0020D02A0020EC4E00202DE9F043DFF8AC43DFF8AC3394F80080B0
:20581000DFF8A8E3DFF8A893DFF8A863DFF8A813B8F10D0F83B0404641F2064741F202421B
:205830004FF4A05553D8DFE818F0BB010E000E000E000E006D00A500E9001D015F015F0159
:20585000900190019701DFF87413DFF87473C3F800E041F2044E4C8874451CBFB1F81A8097
:20587000F0450BD0B1F83290F1451CBF41F20A4E744503D0F04518BFF14502D1A6F800E0E2
:205890002AE0022CDFF83C73348036D94FF4806CB4EB0C041CD0241F012C1FD94FF47F7C07
:2058B000B4EB0C041CD04FF4406CB4EB0C040FD0A41E012C0CD9241F0AD0641E012C0DD93A
:2058D00040F2F930241A012C17D9241F08D05FE1022814BF3580BC4F1F60FDE0BB4FFBE7A2
:2058F000BB480068007A012803D14A804A834A86F2E74D804D834D86EEE7002013F0B0F965
:20591000832049E1B348418831800229C3F800E014D940F20442891A2AD0491E0ED040F2F6
:20593000FB32891A1DD00A3901291AD940F6F632891A03D0491E1BD0491E012940F2C6800B
:20595000091F15D0491EF9D0491E11D04FF47E72891AF3D0491E0BD0C91E09D0491E012986
:2059700047D8817B478025290CBF2721491E817399483CE09948418831800229C3F800E05B
:2059900068D940F20442891A30D0491E62D040F2FB32891A23D00A39012920D940F6F63249
:2059B000891A57D0491E21D0491E012952D9891E13D0891E1AD0491E4CD0491E16D0891E67
:2059D0000BD040F2F632891A44D0491E0ED0C91E0CD0491E012902D90BE0814807E0817BC0
:2059F000478025290CBF2721491E81737D48186072E0002013F034F984206BE099F80200B3
:205A1000FF2855D07849C3F800E01C2209685043084440F204444188744A3180091B012940
:205A300046D94FF47F74091B15D00A39012916D940F6F634091B032984BF491F01290FD92F
:205A5000891E012934D940F2FD34091B08D0491E012904D93AE041F20141418000E0458096
:205A70001A6039E099F80200FF2821D05E49C3F800E01C240968604308445D4C41883180D3
:205A900040F20446891B012912D94FF47F76891B17D00A39012916D940F6F636891B13D0B9
:205AB000891E012984BFC91E01290DD9891E012976D940F2FD36891B06D0491E012902D960
:205AD00004E0428000E045801C6005E0002013F0C7F8852014F098F903B0BDE8F0434548D6
:205AF0000078012109F054BC4A88328040F20443D21A55D040F6FC73D21A15D0083A4FD00E
:205B10004FF47F73D21A22D13B4C3C4A24683C4800680023CDE9002308343A4B246802226F
:205B3000A047394908803BE0092810D137480068408960B1364800780EF010FE0021002033
:205B500014F02EF9002020702AE048883080002013F086F885201FE04A883280022A0DD9F5
:205B700040F20440121A1BD040F6FC70121A05D0083A15D04FF47F70121AE8D1887B801C08
:205B9000C0B2B528A8BF662088730020488007E0002013F065F88420BDE8FE4314F034B9F4
:205BB000BDE8F7836F4F0020204F0020ED960100684E0020504F00203C2E0020204A00201C
:205BD000E13F00006DD4000021FA0000755B0110104F00209C4C0020991C01006C4C002043
:205BF0004960000009280100CC2A00207D840000E1B800006E4F0020F04E0020020000804D
:205C1000EC4E0020FD650100424F0020D42E0020714F00202DE9F84FDFF8F443A078FF285A
:205C300004BF002013F01CF8A07813F0F9FA04464FF4C97004F1680625183068006804F1F1
:205C5000900708B100200EE0B07B002804BFB07E002809D13878002801BF28780028207F91
:205C7000012801D1608CE0832089E18B0818401C6081204612F03AFC01281EBFE54800780F
:205C9000012804D10020E0832089401C6081B07E01280CD1B28B6189208914F07DF830B12F
:205CB00021896289481C82422AD0B28B1FE0387801280CD17A886189208914F06DF830B14C
:205CD00021896289481C82421AD07A880FE02878012815D16A886189208914F05DF8002867
:205CF0001FBF2189481C6289824209D06A88824206D0501E608180B214F04AF8401EE0830C
:205D10002878012801BF68882189491C884207D16A792A71002028701346A1790AF020FD89
:205D30004FF49A702044007920B10020E0832089401C608104F12E07B07E012801BFB08B73
:205D50002189491C884237D1608104F18601204612F02AFDB08CE189608400202077E083C2
:205D700060890818A0812189B08B14F011F8B988328C01FB0028708CF28C884204BF3B8909
:205D90009A4202BFB18CFB88994207D0110900914208B38CA179002014F01EF8B07F387085
:205DB000708CB880B08CF880F08C3881204612F0D5FE0220B07601E0B7F80480E08BDFF8DD
:205DD0005892411C01FB08F140F6C41808FB01F200922268DDF800C0D3686344DFF83CC207
:205DF000D360DCF800C08E4A9CF800C013884FEA9C1CBCF1030F12D199F80FC05FEACC7C81
:205E100048BF00230BD45B1C9BB2012B07D14FF49A7CA444BCF806C00CF2DC5C01E0B4F823
:205E300012C00CFB01FC4FF4C87EBCFBFEFCDFF8F4A10CF1010CC4F814C04FF01C0B138043
:205E500084F82000A161A279DAF800102068C3680BFB02F20A4492680261A279D4F814C084
:205E70000BFB02F20A44A3EB0C039360A2790BFB02F20A4492688260A0790BFB00F00844A0
:205E9000017B01F0F00141F002010173A179DAF800000BFB01F1084400214180287908B978
:205EB00012F0DEFEA179DAF800000BFB01F10844297949080174A179DAF800000BFB01F178
:205ED0000844002141742879042812D1A179DAF800002A7A0BFB01F10844017C41EA8201E1
:205EF0000174A179DAF800000BFB01F10844202141740022A079DAF800100BFB00F0084498
:205F100042824948A2790068D4F814C000EB4212536903EB4C035361B27E022A07D1A279BE
:205F30003E7800EB4212536908FB0633536199F80F20D20740D5A2790BFB02F20A449368A4
:205F5000A3F5A8639360A2790BFB02F21144226889689160009BC91A1161A17900EB41117E
:205F70004A6902F5F6624A612979042906D1A17900EB41114A6902F5B0624A61A17900EBFB
:205F900041114969C4F8341128490D6BBB88A2792D6808FB03F300EB42125B1BA3F5167341
:205FB000D361A27900EB4210214A1278012A0EBF0121896A497818E0A279297900EB42128E
:205FD000042952690CBF4FF44B614FF4E661511ABA8808FB02F2A2F516729142D4D308211F
:205FF000204612F08EFB01200FE0C172A179DAF800000BFB01F108442168486007200D497F
:206010000870204610F011FC0020BDE8F28F00BF684E0020784F00205C4D0020084F002083
:20603000EC2E0020CC2A0020CC2E0020F8AD0100734F00206F4F00202DE9F84FDA4DDFF825
:206050006C832868DA4F807CDFF8689313F0E8F8296804460020487104F12E0A28680FF067
:20607000F5FF012060711C2598F80100401C88F8010080200CF024FE20607969C160CE4824
:2060900001894900AAF802105146C07940008AF80000BAF804004000AAF80400BAF8080081
:2060B0000001AAF80800204612F07EFB0520A081204612F053FD386813F066FE062210F80F
:2060D000081FC1F3801184F82E11811C4FF49470204412F077FF3968B84F09680020087117
:2060F00041F62202A1793868694342520022A179694301444A80A17969430844426099F8FF
:206110000200400609D5AE48008841F20A4188420CBFAC48AC48C4F89C012046D4F89C1198
:206130008847A27939686A4311448873A1793868694308440021C173A1793868694308440E
:20615000807B8AF80B0094F8960108B912F088FDA17938689D4E6943084494F89611491E05
:2061700001740022A17938686943084400214174A1793868694301444A82A179326802EBD8
:206190004112694301444A61A1796943084490498161A0790AF0AAF8A2793168520188509F
:2061B000A07940010A5822B90721204612F0A9FAF5E008441F2202763068A179DFF814B2DC
:2061D00000EB411000214176DBF80000A17900EB011013F011FEA179DBF800203068DFF824
:2061F000F8B102EB011200EB41114A6004F16801A27900EB421252680A60A27952018258DB
:206210008A60DBF8141091F800C094F806E05FEACC714CBF102100215FEA8C724CBF20225B
:2062300000225FEA4C734CBF402300235FEA0C7C4CBF4FF0800C4FF0000C1143194300EB06
:206250004E104CEA010141F00F0101723068A17900EB41100B2141723068A17900EB411029
:20627000042181723068A17900EB41105B49097801291CBFDBF828100978C1723068A1796D
:20629000626A00EB4111CA60A17900EB4110A16A01743068A17900EB4110A16A090A417424
:2062B0003068A17900EB4110A16A090C817408214B48007809F06CF82168A2793868CB68C3
:2062D0006A4302449360CA680A61CA688A60A17969430844017B01F0EF010173A179386872
:2062F00069430844017B01F07F010173A179386869430844017B01F0F00141F0020101737D
:20631000A179386869430844417B01F0F00141F0010140F6C4134173BAF804203068A179A1
:206330005A43DBF830301B6800EB4111D21AA2F516724A61A17900EB4110C17C01F0F00192
:2063500041F00401C174A1793868694308442168486099F8010080061BD54FF49770204429
:20637000408F1B2801BF4FF497702018808F1B280BD14FF497702044C08FB0F5A47F04BF03
:20639000B4F86E01B0F5A47F03D0142120460EF011F8144908200870A07988F80200BDE858
:2063B000F14FFEF7BBBD00BF184F0020684E0020AC4B0020582E0020844C0020CC2A002041
:2063D000504F0020E34401004B510100CC2E00205C4D00208C4E0020F8AD0100734F0020C4
:2063F0006E4F00206F4F00202DE9F04F0F46BD4C0168616241688068ADF1140DA060BA48A1
:2064100061608047B948616A01606168DFF8FC924160A168DFF8F0828160B549002FA246A0
:20643000C16068D03D68E8788DF8080028798DF8090002A813F0A4FCA86808B1AD490160C5
:20645000E86808B1AC490160AC4C2878207068786070A878BE68A0703178E1707368636007
:2064700072696261B168A160F168E160316921612E697B68A6621868A0616869E062A86977
:206490002063287F84F834002A6AA263786886681EB9002012F0E4FB00E026627868C06863
:2064B00018B9002012F0DCFB00E060627868406818B9002012F0D4FB00E0E0612869A06262
:2064D000F86881680E6806B98E4E8D494FF0010B4E60C66881F801B026B9002012F0C0FB6F
:2064F000F86801E041460E6000684D46FE68A8617068E86105E0002012F0B2FB4FF0010BCC
:206510004D46D8F80000824944686A1C05F114035020A04718B1D8F8000080688047DAF88D
:206530000400804703907B487C4C286100272771B946E770784EA770300BC6B2401CC1B265
:2065500026703846617028E0304639466A46042311F0F0F8009BA078B3F5801F0ED043B9B5
:20657000B9F1000F03D048460FF05AFCA078B14610E030460FF054FCA0780BE0002804BFEA
:20659000301CA67006D00FF04BFC30460FF048FCA77038466178761CF6B2B142D4DA98B91A
:2065B000B9F1000F08D1207812F030F80420E08020793946A0B912E084F8029011F00AFA7D
:2065D000484607F047FE07E0B9F1000F02D048460FF026FC11F0FEF92079394600B9594658
:2065F000081C02D1384612F03BFB3C464C4ED8F80000B4608069AC608047706049484780FA
:2066100080F800B0142012F0EBFEFF211422A86213F081F8E81CFF21022213F07CF8142054
:2066300012F0DEFE4049086008681422394613F072F83846FAF7BEF9584610F049FF3B485A
:206650000188FF2906D1022101807822001D394613F061F8032013F08FFB042013F088FB12
:20667000052013F081FB062013F07AFB07200EF0D1F82F4E0820307006F1400013F06CFBF4
:206690000EF00AFB363605200A21324611F08EFC38B13846C0F10901401C06F8011B0A285E
:2066B000F8DBD8F80070234909200DF10A0201AB7E68087010202146B047A86AEA690A27EA
:2066D0000A309DF80A1000F8011BDAF808107F1EF7D1921E0398EA61884704F003F805B055
:2066F000BDE8F08F5415002041490010F8440020E09E0100AD7D0100658E0100A818002069
:20671000C81B00203B570100841C0020E8190020D5850100758F010000D00100B42E0020BF
:20673000902E0020801C0020E02E00206C160020DC100020F92E00202DE9FF47C44C0F46CB
:206750000646F80B80F05981B80880F04681207BDFF80893B90F80F0BA80A07A002840F0A8
:206770009A803809C0F09980E07A20B10020E072052010F0F7FD00254FF00108B5496570EF
:2067900004F178002A4684F8088012F0ADFF607901281AD1A079C0B9DFF8BCA2DAF80000D4
