:20000000004000205D64010001C9011001C9011001C9011001C9011001C9011001C901109C
:1C00200001C9011001C9011001C9011001C9011001C9011001C901103FC9011089
:20003C0080B54FF4FC720FF278011A4810F0BCFE194800210170012141740221C17601BD46
:20005C002DE9F0410FF25021144838220B684C688D68CE680F69D1F814C0D1F818E0D1F824
:20007C001C80036044608560C6600761C0F814C0C0F818E0C0F81C8020312030521EE5D1F7
:20009C004A688B68CC680968016042608360C460BDE8F081480400215903002100C000210F
:2000BC00410500217D0500212D06002170B51D46004C204787B2000010B5014800470000FD
:2000DC00D509000070B5614C6148254650358047022809D14034E1885E4A914204D1E97C5E
:2000FC00890601D4911DE18070BD70B557495A4A084650300378002B10D08379012B0DD181
:20011C00037C5B09DB0709D0097D544DC1746C7F20202043687790476C7770BDFF21C17420
:20013C00904770BD10B54E48484C804702280ED121464031CA88474B9A4208D1CA7C5209CE
:20015C00D20704D0227D920601D49A1DCA8010BD70B53E4843494030C07C4009C00707D032
:20017C003E4D41482C8B2043288388472C8370BD884770BD10B53B48344CAC388047214609
:20019C0053310A789309DB0705D04034A2730A7803231A430A7010BD2C4940310871182876
:2001BC0012D004DC0A280BD00B2804D10AE025280CD02A280CD02D4980004018C0687047DE
:2001DC002B4870472B4870472B4870472B4870472B48704770B504461C484E252D5CAE09AB
:2001FC00F60716D0067D3007000F052803D00120054202D00DE00220FAE7E80905D07006D1
:20021C0003D54868800F012803D05B085B0052085200062B03D01020022B11D011E0FB20F7
:20023C00024002232046FFF741FF002807DAC100611A2039497E1422114200D1002070BD93
:20025C00024303432046FFF731FF70BD4401002137CB000004140000EBC80000A800002142
:20027C00F5B4000053AD00002020000080DF00001D050021F9040021CD040021930400210F
:20029C006D04002110B5034CFFF716FF20680028FAD110BD0011044068610000F825F965B0
:2002BC00F9754500450045002600260057A3520052004C00401F401F401F3F000000000053
:2002DC00304000400140034007400F404F40CF40CF41CF43CF47CF4FCF3FCF2FCF1FCF0F6C
:2002FC00000000000000000000000F00080000003F00000040003F000000040068000E0093
:20031C00DC00060043001A00050000000000020000000000000000000400C00000000400B3
:20033C00C000000007000000000000000000000000000000000000003040004001400340A6
:20035C0007400F404F40CF40CF7FCF6FCF5FCF4FCF3FCF2FCF1FCF0F00000000000000009D
:20037C0050C00091007070C00091007082312100319110B10070018101B100A1823132910D
:20039C0010B101911110418141227740F106007051C0019130181039833108D01831416FD1
:2003BC003100319110B18314141683680070251050C00091F4C340C12014036F3110410497
:2003DC005082F0229840512622C082312100319110B163393110410482C08231210031919B
:2003FC0010B163393110A2C082312100319110B150101531051405920070676452C03110A6
:20041C0031066131C1026A6412C13110213971065131E1026A64007051C0019101CCE2C0CC
:20043C006A64676411C1C2C06A6450B054B0007140804022D6440022C94060B08180111EC9
:20045C00C944007054A064B0F0800022C9404012B09032B070C1DF6811C122C16A6470C1C0
:20047C00E46851C00191E2C0823160820200329110B130C2EE68538253395339B16460C347
:20049C00F4688012B09032B00070676401C122C16A6401C1C2C06A645382B164C012B09074
:2004BC0032B00070676472C281C06A6422C111C16A6402C011C16A6462C031C36A6462C3D2
:2004DC0011C16A6402C311C16A6453825339B164E2C36F6411221C4142C281C86A6452C24E
:2004FC0011C16A6472C2E1CE6A6402C281C86A6402C201C86A64B0C030690070676442C211
:20051C0001C86A6452C211C06A6472C2E1C06A6402C001C16A6462C001C36A6422C101C127
:20053C006A6462C301C16A6402C301C16A645382B16400708180111E5C4150B054B000712B
:20055C00408040225D4154A064B0F1800122514500700022514160B04E61000000000000AA
:20057C000000000000000000067305720B720E7250B00071818060B050A09280F0EFF1928C
:20059C0002936A6741228C458080F1C11004301601110114016CB561B661B761B861B9618D
:2005BC00BA61BB61BD61BF61C161C36126632D63F0C002043231412A121432160111211412
:2005DC00016CDA61C561E061C761CB61B561B561B561F461C561FA61C761CB61B561B56104
:2005FC00B561F461C561FA61C761CB61B561B561B561E761C561ED61C761CB61B561B56121
:20061C00B561CF61CF61CF61CF61CF61CF61C064CF61F964CF610665CF613265CF6174676A
:20063C00CF611166CF61C0644E65F964CF61066511663265CF618280E0DFF2926A67B0B044
:20065C00D661B1B00673057230B06C61D0CF6A6784C203C0C0C37C64207851788278E378B7
:20067C001579B6780062C0CF6A6784C203C0C0C37C64307861789278F3781579C678006250
:20069C00B0CF6A6784C203C0C0C37C6440787178A27803791579D678109221923292439281
:2006BC005492659256911FC0FF914039F00601101031101400927067CF61E3B054A0F08076
:2006DC0050221A4640800022BE461262E3A000C86091598150B0918041228E46A0CF6A6734
:2006FC0012828231823942398B641282F2062F101F312F141682D622334640C1346200C5AF
:20071C0020140D6F6D39DE10F4C34E0482C082312E006D39A2C082312D001A828A39FA0606
:20073C002082803180390BC00B18BC10AC18038239149B141082F0060110103110145181C2
:20075C0010140C14C622C94631D0C1266462021011C0013010C00118021882312100C126C2
:20077C00919103B013B063B053B041800122BE46B481C491D581B51C774E95186591F0803E
:20079C00102269428C623D9110B13E9110B1E08000228146E6228142E0B0951865910F926B
:2007BC005981F914F0805022114210228C464D6390CF6A6763B052A03082F2C0200402107E
:2007DC0011C0013010C00118021882312100C1269191919113B003B063B053B064B054B055
:2007FC00007141800122BE4663B064B0F08050221142B181C191D1819118619131B0A462D0
:20081C002967E0A059810582591480C0007163B0BA6A6962E3A0018262818231823D80EF61
:20083C00F19202936A6703A0007037824739873930828039F006021011C0013010C0011849
:20085C00021882312100C126819102B012B030824039F006021011C0013010C001180218E9
:20087C0082312100C126919103B013B063B053B0007153A062B052B041800122BE46A4816E
:20089C00C491D581B51CFE4E95186591F0801022F0428C62B481C491D4814518751C084FEB
:2008BC00F0801022F0428C623D9110B13E9110B1E08000221247E6221243E0B065910F92DC
:2008DC005981F914F0805022114210228C4630632967E0A0598105825914F0C0007162B038
:2008FC00226BF062A2808B64CF6112824239F2068B6050B00071CF6170CF6A674082418096
:20091C000122BE46A481C491D58195186591F18011228C46336B41800122BE46A481C491AB
:20093C00D581C51C1C4B95186591F08010223F438C6260CF6A67408241800122BE46B48169
:20095C00C491D58195186591F18011228C46506B41800122BE46B481C491D581C51CB44A55
:20097C0095186591F08010225C438C62E092D08200226B47C0B20070A080F022874330B033
:20099C0002C1623101C0A080001E8043F022814380F86031603981632010101A136F236E5A
:2009BC0011161216826B00702DE9F84FDFF81885DFF8181588F80000002008600921DFF891
:2009DC00100501700D2141804FF408718180DFF80405DFF8041501608A7EDFF80005027042
:2009FC00FF2ACB7E437008BFFF2B0D7F85704E7FC6708F7F0771C97F417115D1FF2D08BFE8
:200A1C00FF2E11D1FF2F08BFFF290DD1DFF8D0140A7802704A7842708A788270CA78C27025
:200A3C000A79027149794171DFF8B81402780A70FF2542784A7082788A70C278CA7002791E
:200A5C000A7140794871DFF8A014DFF8A004057045708570C5700571457100200880DFF888
:200A7C009014DFF89004466B70780870DFF8881430780870DFF88414B0780870DFF880142D
:200A9C0070690079401E0870DFF87814F0780870DFF87414B069086008B918F0C7FBF0690B
:200ABC00DFF86844206008B918F0C0FB2068DFF86074006880472168091D384609688847C4
:200ADC00DFF85004DFF850143862DFF850047862306A086008B918F0A9FB706ADFF8401481
:200AFC00086008B918F0A2FBDFF838B4DFF838649BF8040018F064FF306008B900F046B994
:200B1C009BF80500DFF8247418F05AFF386008B9306838E19BF80600DFF8144418F050FF28
:200B3C00206020B9306818F053FF38682BE19BF80700DFF8009418F043FFC9F8000038B9A1
:200B5C00306818F045FF386818F042FF20681AE1DFF8A41309789BF80000DFF8DCA3C91C4C
:200B7C00484380B218F02CFFCAF8080058B9306818F02EFF386818F02BFF206818F028FF38
:200B9C00D9F80000FFE0DC480078010000F00381BBF80210DFF8A4B3484380B218F010FFB1
:200BBC00CBF8040078B9306818F012FF386818F00FFF206818F00CFFD9F8000018F008FF3F
:200BDC00DAF80800DFE0CC48007818F0F9FEDC49086098B9306818F0FBFE386818F0F8FEC0
:200BFC00206818F0F5FED9F8000018F0F1FEDAF8080018F0EDFEDBF80400C4E0BE480078C8
:200C1C001C21484318F0DCFECE490860B0B9306818F0DEFE386818F0DBFE206818F0D8FEC3
:200C3C00D9F8000018F0D4FEDAF8080018F0D0FEDBF8040018F0CCFEC148A3E0AE4800789A
:200C5C00400118F0BDFEC0490860D0B9306818F0BFFE386818F0BCFE206818F0B9FED9F8A3
:200C7C00000018F0B5FEDAF8080018F0B1FEDBF8040018F0ADFEB248006818F0A9FEB14878
:200C9C0080E09D480078000118F09AFEAF490860F0B9306818F09CFE386818F099FE2068D0
:200CBC0018F096FED9F8000018F092FEDAF8080018F08EFEDBF8040018F08AFEA0480068EE
:200CDC0018F086FE9F48006818F082FE9E4859E089480078000118F073FE9D49086010BB9A
:200CFC00306818F075FE386818F072FE206818F06FFED9F8000018F06BFEDAF8080018F08C
:200D1C0067FEDBF8040018F063FE8D48006818F05FFE8C48006818F05BFE8B48006818F090
:200D3C0057FE8A482EE0744800783021484318F047FE8849086070BB306818F049FE38681A
:200D5C0018F046FE206818F043FED9F8000018F03FFEDAF8080018F03BFEDBF8040018F04A
:200D7C0037FE7748006818F033FE7648006818F02FFE7548006818F02BFE7448006818F0E5
:200D9C0027FE7348006818F023FE002018F04EFA4FF4804192E031680120087100223068F3
:200DBC00057330684573306885733068C573306805743068457400203168C8723168487148
:200DDC00A0213068C180032101720720316848720020316888722821306841820121C1769C
:200DFC00002031684877316881F85E00012031680877316881F85D00396808713868057315
:200E1C0038684573386885733868C573386805743868457400203968C87239684871396886
:200E3C0088724FF420703968C88008818A7401213A68D17421680D7321684D7321688D7375
:200E5C002168CD7321680D7421684D7400212268D172012122681171002122685171216847
:200E7C00C8800881002088722168887405202168C8743948006880470546294800680068C0
:200E9C00804727490968091D00200968884719481C49C06809780088084330490880284657
:200EBC002F49096888470C212E4800F05DF80F4800F05EF800F060F84FF4005198F800006D
:200EDC00BDE8F44F0EF066BB6E4F0020044F0020604E0020084F0020B63F00502C4E00207B
:200EFC00E81200503C4E00200C4F0020344E00206D4F002030B401007B4F00206B4F002040
:200F1C00724F00206C4F0020F04E0020F44E00207C4B0020DD990100F84E0020ED990100EE
:200F3C00FC4E0020A81C0020104F0020942F0020184F0020982F00205C2F0020684E0020F6
:200F5C00004F00208C2F0020902F0020884E00208C4E0020904E002018160020544F00204D
:200F7C001C160020F84D0020DFF800F0E5710110DFF800F01D6E0110DFF800F04D71011077
:200F9C00B0B5174C241D20680004070C23D01248006800688047114991F90720824205DDF8
:200FBC0010F1800FB8BF6FF07F00C8718D88BD4210D80A68D4F8D40F801A801C1F2888BF16
:200FDC001F207F1B4008C7404FF6FF70EF19B84238BF071C8F80B0BDEC010010842F0020B1
:040FFC003010094068
:20100000B41200001810000015AB0110FDB301106DC00110FDAE011099B5011000000000F7
:08102000000000002F00000099
:20102800B01200003C100000B1C00110A9BF011067C0011069B80110000000000000000035
:041048002D00000077
:20104C00B012000060100000BDC00110CDB30110D9BD01106DB3011000000000000000005B
:04106C002E00000052
:2010700000000000D01C002004000000000000000000000020000000E8C90110300000003E
:2010900028100000D81C00200400000000000000000000000C000000D8CA01101800000019
:2010B0004C100000E01C002004000000000000000000000024000000F0CA0110180000009D
:2010D00000000000E81C00200400000000000000000000001000000018CA01102C000000A9
:2010F00000100000F01C0020040000000000000000000000200000006CCA01102400000015
:20111000FFFFFFFFF81C00200400000000000000000000002800000090CA011024000000D4
:20113000FFFFFFFF001D00200400000000000000000000001400000008CB01101800000052
:20115000FFFFFFFF081D002004000000000000000000000058000000B4C901103400000020
:20117000FFFFFFFF101D00200400000000000000000000001000000020CB011018000000EE
:20119000FFFFFFFF181D00200400000000000000000000001C000000B4CA0110240000001B
:2011B000FFFFFFFF201D00200400000000000000000000003800000044CA01102800000043
:2011D000FFFFFFFF281D00200400000000000000000000005400000078C901103C000000B8
:0811F00001000000F4B301004E
:0411F80001000000F2
:0411FC0000000E00E1
:0412000000000F00DB
:0412040032000000B4
:0412080001000000E1
:04120C00381B00206B
:0412100000020000D8
:0412140000000000D6
:0412180001C90110F7
:04121C0000000000CE
:0412200000000000CA
:0412240008000000BE
:04122800000023009F
:04122C00E0190020A5
:0412300001000000B9
:04123400501B00202B
:0412380008000000AA
:04123C00F81A00207C
:0412400000000000AA
:0412440000000000A6
:04124800080000009A
:04124C00000000009E
:04125000000000009A
:041254000000000096
:041258000000000092
:04125C00010000008D
:04126000481A002008
:041264000600000080
:041268000100000081
:04126C008C180020BA
:04127000000000007A
:041274000000000076
:041278000002000070
:04127C00000000006E
:02128000290043
:02128200010069
:02128400250043
:021286002D0039
:021288002E0036
:02128A002F0033
:02128C0001005F
:01128E00015E
:0812900003000000A8B30100F7
:0812980000000000000000004E
:0412A0000000010049
:0412A4000000030043
:0412A80013C401105A
:0412AC008D97010019
:0412B000B812000070
:0412B400B81200006C
:0412B8000000000032
:0412BC00501B0020A3
:0412C0002999010067
:0412C4002000000006
:0412C800FCB2010073
:0412CC0024B2010047
:0412D00029C101101F
:0412D4009B77010003
:0412D800D77B0100BF
:0412DC00A1C7011095
:0412E000A3C701108F
:0412E4000000000006
:0412E8001FB301002F
:0412EC0020B001002D
:0412F00038B0010011
:0412F40008B001003D
:0212F8000200F2
:0212FA000900E9
:0212FC000100EF
:0212FE000000EE
:0113000001EB
:0413040095980100B7
:04130800F576010075
:04130C00098C010047
:04131000A97A0100B5
:04131400A57B0100B4
:041318002D7701002C
:04131C00D9330100C0
:04132000039B01002A
:04132400BD4B0100BC
:0413280015C70110D4
:04132C0025C70110C0
:201330002DE9F04FD04C04F118012046ADF1540D14F0C4F904F1A8050021284619F0DCF8EA
:20135000CE4E1020CE49E561F21D09F0DFFFCD490025012204F59E700095134614F026FA77
:201370004FF400510091C8494FF47A622B4604F5B07014F01BFA4FF480410091C3494FF481
:201390007A622B4604F5C27014F010FAC0494FF4803042F210722B46009004F5D47014F0C3
:2013B00005FA4FF400310091BA494FF47A622B4604F5E67014F0FAF94FF480010091B649EC
:2013D00041F270722B4604F5F87014F0EFF9B34F07F1180007F10C010FF03AFDB049B860CC
:2013F00018F0C0FBDFF8BC82B8684FF4E0214246521E16F0FFF9B8684FF4E021424616F0B9
:20141000F9F9DFF8A482B8684FF0C0514246521E16F0F0F9B8684FF0C051424616F0EAF995
:20143000A846C8222B46A149CDF8008007F1240014F0BCF99E48294678604FF0804013F020
:2014500045FA606104F1C00104F1B4000FF000FDDFF86092606321211E22484617F0FCF989
:20147000954829464FF6FF7217F0F6F9934829464FF6FF7217F0F0F9914829464FF6FF7276
:2014900017F0EAF98F4829464FF6FF7217F0E4F967698D4D4FB14846067936B10321297017
:2014B000AF604146E96016F001F9884910200B2209F02CFF864E10200622A023314609F08C
:2014D00025FF10200722A023314609F01FFF10200822A023314609F019FF10200922A0236B
:2014F000314609F013FF10200A22A023314609F00DFF10200B22A023314609F007FF1020F9
:2015100002224FF47A63314609F000FF314610200C22A02309F0FAFE314610200D22502336
:2015300009F0F4FE314610200E22A02309F0EEFE314610200F22502309F0E8FE1020314660
:20155000A023024609F0E2FE314610201122502309F0DCFE314610201222A02309F0D6FE0C
:20157000314610201322502309F0D0FE314610201722A02309F0CAFE31461020182250238D
:2015900009F0C4FE314610201522C82309F0BEFE314610201622C82309F0B8FE31461020E2
:2015B00019224FF47A7309F0B1FE314610201A22434609F0ABFE207816F016FECA490246ED
:2015D000102009F0A3FE8DF83080ADF8228040F2053001210CAA0AF005FC40F206300221F0
:2015F0000DF122020AF0FEFB04F1D8024FF442700F210AF0F7FB04F58672162140F2073055
:201610000AF0F0FB0F2001210DF131028DF8310040F204400AF0E6FBC54F04F19800C54E98
:20163000B8613078E071387816F0DEFD0246F87A07F134030090C049019307F1440302930D
:2016500007F1140303937B78102009F05FFEE179480000EB011080B210F0BCFEA0630028A7
:2016700038D0E779BFB301E0080200204FF6FF713B465B1E20F8121BFBD12CE020B30100D5
:20169000A1B50010856B0100359A0100BD990100159A0100259A0100759A0100D81800202C
:2016B000ED7101000E0005800E000010B99701007D950100A4190020A81600204018002073
:2016D000A8170020F4170020C01B002081B30010BD840110E779380110F07CFE0746276474
:2016F00057B1E37943B14046F8803870B88078805B1E07F11007F7D104F1F700DA490090BD
:2017100042461523102009F001FED84910204FF0FF3209F0FBFDD64910204FF0FF3209F067
:20173000F5FD1020D34F0090D44AD348132339460190102009F0EAFD3078800010F04AFEC6
:201750000146CF488246816069B14FF6FF7016F01DF8CC4910200AF12402009011230191CD
:20177000394609F0D3FDDFF820B31020594609F0CDFDC6491020042209F0C8FD0126022762
:201790004FF003098DF8326004208DF83370C04A8DF8349009AB8DF83500921C107911681A
:2017B00018710DF132021960404631460DF038F80DF13302304601460DF032F80DAA38466F
:2017D00031460DF02DF80DF13502484631460DF027F80420052109AA0DF022F804F15000B1
:2017F000CAF804005946102009F090FD207816F0FBFCD1490246102009F088FD207816F07B
:20181000F3FCCE490246102009F080FD8DF838708DF83760314640460EAF8DF83A904646E6
:201830008DF83600DFF818A38DF839104FF4806200970B468DF83B601020514609F066FD2D
:201850000DF1390040F20242012300905146102009F05CFD0DF13A000090514640F2034228
:201870000123102009F052FD0DF13B00514640F2064201230090102009F048FD0DF136001C
:20189000514640F2114201230090102009F03EFD0DF13700514640F20442012300901020DC
:2018B00009F034FD04F1E7001023514640F205420090184609F02AFDD84904F1A0021020D9
:2018D00009F024FDD649102009F020FDD64F04F223101090D34E1296139607F11000119070
:2018F000CCE31421C2A36BE151880110F80EC0F0C583012013F044FD6078CC4914F05AFFAC
:20191000297860694246C1A3091DC9B216F023FE2E786769C54813F071FF761D034642463F
:20193000F1B2384616F017FE01202071A6E3C046400A0020694F0020CD420100780D2FD242
:20195000B80DC0F09B836669109813F057FF00900F214246D7A3304616F0FDFDDD48414630
:20197000FA2211F0F8F9B148C4F848804146062211F0F1F9022001210DF12F028DF82F000B
:2019900040F209300AF02EFAA749A74AFF20C87240F2073016210AF025FAC4F820806DE30B
:2019B00016F0C2FAA1491020109F84F822010A683A608988B9806069D9A342460F2116F094
:2019D000CAFD606B0721012215F024FC404615F0F1F853E3F80D80F0F580606B390D07D277
:2019F000780DC0F04B8308204FF48011206200E20621424615F00EFC60690F214246DAA3B8
:201A100016F0A9FDB3484146FA2211F0A4F98748C4F848804146062211F09DF902200121F1
:201A30000DF12E028DF82E0040F209300AF0DAF97D497D4AFF20C87240F2073016210AF0FD
:201A5000D1F90520206219E3380B23D2F80CC0F01583DB4818F07BF9606B0621012215F0CC
:201A7000D9FB0720EEE7C046D5220100E98D0100BD9101003F81010084B301006C1000202D
:201A90001C13002090B3010009160100ED94010020B3010013F05CF8071C53D1E06A401CE9
:201AB000E06260690F214246D5A316F054FDE06A0128C6D187484146FA2211F04CF9C4F806
:201AD0004880C4F820806069C4F82C800F214246D7A316F040FDD3480C300068C00A0DD2C4
:201AF000CF480068036801224FF48070014698470120D849D64F086046463E60C9480068FE
:201B10004008FBD3C6480068416802208847D049096881421ABFCE490860D048B0FBF9F13D
:201B300001FB09F1401A401C206300906069D7A3102106462EE0C04631810110D59B0100CE
:201B500089780000394806781EB939680160BE88868040468DF82D0001210DF12D0240F297
:201B700009300AF03FF930492C20119EC872BB88B380396831602C4A40F2073016210AF084
:201B900031F916F0D1F96669384613F037FE0F21D5A30090304626E0C4F8308005202062EF
:201BB000380B0FD2F80C06D2B80C0BD2380DC0F06582062046E7C34818F0C9F80F21D0A3CE
:201BD000606910E016F0B0F958E26069790D08D2B90DC0F053820F214246D5A316F0BBFCF2
:201BF000DBE60F21DAA3424616F0B5FC46E2C0464572726F722121416C7265616479207359
:201C100063616E6E696E672100C046C0436F6E6E656374696E6720746F3A00C02D9001002C
:201C3000C5AB001040E201001403002069020020A07A00287ED0401E4ED0401E40F01E82F5
:201C5000F80AC0F01B82CD49404614F013FE04F180020CCA04F1780003C804F19007121A37
:201C70008B4197E8030004F18806121A8B4196E803000027801841EB0301CA0F12184FEADF
:201C9000520047EB01033A46D90708435910464262EB010718F02CFC04F1700106C904F161
:201CB0007003891942EB070283E8060018F01CFCB3E1C046526F75746520646973636F76E7
:201CD00065727920746F20257320636F6D706C65746521006C040020F80AC0F0CF8117F0B6
:201CF0009DFA04F1800282E80300CD49404614F0C1FD17F093FA04F1880282E8030005E096
:201D100060690F214246CAA316F025FCC54A484608210CF085FD0128F2D0022022E0C04645
:201D3000436F6E6E656374656420746F20726F7574652100380E14D2780EC0F09F81606942
:201D50000F214246C3A316F006FC10984146424611F001F884F838814FF0FF3084F822015A
:201D70005BE10120A07289E1526F75746520646972656374206164762074696D6564206FB3
:201D900075742100616AB80E66D2607A30B3401E0AD0401E40F07281F80B2ED2380D15D2BB
:201DB000780D80F03A8169E1380C0BD2F80CC0F06581B04817F0CBFF022060725EE1C0465C
:201DD000F803002012F0C4FE011C03D1022013F0D7FA53E12B200FF037FD4FE1F80C23D252
:201DF000B80B0AD2380DC0F0498101204FF400416072A06918F074FB40E113F043F93DE100
:201E10004E6F20746172676574206164647220666F756E642120476F206261636B2100C0CE
:201E3000CC01001008800240C74817F090FF25E1526F75746520627573792C207472792083
:201E5000616761696E206C617465722100C046C08C2B0020A8025042BC480EE1EFBEADDE15
:201E7000616AB80E80F00881207A002800F0CB80401E00F08580401E26D0401E11D0401E87
:201E900040F0FC80B80DC0F0F980C6E052616E646F6D207761697420636F756E743A2025F4
:201EB0006400B80AC0F0EA8017F0B8F904F1900282E8030016F0B2FE002840F0DF80042095
:201ED0002072DBE0D4030020B80AC0F0D78017F0A5F904F1780282E8030016F09FFE002899
:201EF00040F0CC804846EBE7526F757465206469726563742061647620746F3A20257300FC
:201F10005374617274656420726F75746520646973636F76657279206E6F6E20636F6E6E5A
:201F300065637461626C65206164762100C046C0476F696E67206261636B20746F207072D5
:201F50006576696F75732073746174652100C0464920616D20616C736F20726F75746520F9
:201F7000636F6E6E6563746564212057616974696E6720746F2070616972210098020020E0
:201F9000380A7BD3B44909686069CF88012667B3A06B008812210222434618F09DFA05902B
:201FB00040B3AD49096802278989ADF81270891CADF81010314601708DF81880059880F8D1
:201FD0000180A66B20788DF8198016F00DF90090BB49328804AB102009F098F9C6B24EB16F
:201FF00004A8122118F074FA04E011214246C0A316F0B1FAA06926B9022121724FF4007178
:20201000F8E68021F6E6780D38D2A089390E0BD2780E33D3404614F0CDFDA06A80472DE0BB
:20203000800200209002002013F0F4FE012047E74572726F7221204E6F746966696361740C
:20205000696F6E2073656E64206661696C65642100C046C050616972696E67206661696C6E
:2020700065642120446973636F6E6E656374206E6F7721008C030020BE488847A069BC4A14
:2020900041464FF0FF3318F01FFA071CF6D0404607900BA907AA08A815F018FD00284ED19B
:2020B000BDF820004FF0010A102841D120789DF82C1088423CD1079801884FF6FF728A42BD
:2020D00033D14088C00833D3E66B8EB3A07806F10803401CA070AF490093728833791020DD
:2020F00009F014F95FFA80FBBBF1160F12D02078BBF1040F0ED0E66B16F076F8034640467A
:20211000A34900907288102009F000F9584611F021F90DE0A07800902978606942469EA396
:20213000491DC9B216F017FA02E000F095F98246079820B1BAF1000F01D017F0E1FDF80F88
:20215000C0F0E880E0E0C0466803002011020020E669304618F0B4F9864208BF464602D06C
:20217000866815F079FD301C00F0CE80308862692978401E00F0BF80401E00F08F80801FAF
:2021900045D0083803D0103800F09C80B9E070688378002B39D0012B1BD0022B0CD0032BC5
:2021B00078D1C378002B08BF7FA309D003880093C07884A3019005E0C378002B6AD188A3DF
:2021D000008800901046C91C4246C9B216F0C3F960E0C3785BB90088C91C87A30090C9B2A6
:2021F0001046424616F0B7F94FF400010BE000880090C91C0193C9B2104685A3424616F0F4
:20221000AAF94FF08071A06956E086A3D8E770680078010922D240093CD30E2017F0CEFA11
:20223000002837D16868697803790A46934211D0FF2A2FD000EBC203DB682BB900EBC10080
:20225000006915F033FA25E000EBC2000369084698471FE08068F4E7480200200D2017F028
:20227000ADFAB8B969686878097981420ED0FF2810D0401CC0B215F0F5FBFF2802D1404618
:2022900015F0F0FB68700BF003FE03E0404615F0E9FB6870706815F0DFFC32E07068A16994
:2022B000037833B19B1EF6D102200FA914F0E2FAF0E708464FF4806118F012F9EAE7C04642
:2022D000679D0100D6F804A01298C91C5BA30090C9B21046424616F03EF9139800905D49E3
:2022F000BAF80A204346102009F010F8D2E7C0466C6F64612100706800F0AEF8706817F06B
:20231000FFFC304615F0A8FCE06918F0D5F800283FF41EAF380B11D304F1700003C88DE881
:2023300003006069424649A30C2116F014F9206B002803DD401E3FF42FAC2063206A0828D1
:202350003FF69CAE800001A109588F4689230000711E0000951D0000411C0000DB1B000056
:20237000B11B0000591A0000E51900004D190000FFEEFFC710020020E078390BFFF4B6AAD6
:2023900001283FF4AEAA0DF0E1FA17F093FA75E60F990100DDFE00105273702073656E641F
:2023B0002072657472793A0043786E20256420626F6E642073617665207375636365737300
:2023D00000C046C043786E20256420626F6E642073617665206661696C65643A202564005B
:2023F00043786E20256420626F6E64696E67207375636365737300C0636F6E6E48616E64F8
:202410006C652025642070616972656400C046C070616972696E67206661696C65643A200E
:20243000256400C0636F6E6E48616E646C652025642070616972696E6700C04650617373F9
:20245000636F64653A20256400C046C0703A20256400C046D97B01002DE9F04F05460120B9
:20247000ADF1240D914C07902878913800F074838F4EDFF850831F3800F0AB82203840F036
:20249000EE83304605900678616C6769A878002800F06682401E00F0CC81801E00F02E829C
:2024B000401E00F0AD81DFF83493DFF834A3401E00F0C180401E4CD0401E00F01682801FB6
:2024D00040F0CD83E878002840F0C983E66C05F10508002E1ADD04F55877384641460622F9
:2024F00016F042FB70B928692B2116F007FB68B12879691D11F0E2FD002840F0B0834FF091
:20251000806166E1761E07F11907E6D1E878002840F0A58328692C2116F0F0FA88B9E878D1
:20253000002840F09C832869C07A2A2840F09783286900906968AA68EB68286810F022FEA6
:202550008DE32879691D11F0B9FD08B90420206285E3192204F58B604A43002110F0FBFB8B
:20257000002610204146666408F0D0FEC7B2A88815F09AFFE1792082814240F37083A26BA5
:2025900041004FF6FF7301EB0011079D5352226C0301D65405FA00F0D118CE8082B2314660
:2025B000484616F059F9208A314605FA00F082B2504616F051F9208A8540CE483146AAB2A3
:2025D00016F04AF927B9CC4831461C2216F044F9DDF814A0D4F814909AF800501020414624
:2025F00008F094FE6D1C00903246C9A3E9B2484615F0B1FF60699AF800103246C8A3091DF2
:20261000C9B215F0A8FFE079401EB84210D15546297860693246C6A3891CC9B215F09BFF4C
:20263000297860693246C7A3491DC9B215F093FF4FF40011CDE06B78002B40F0D380361DE1
:2026500038460022C3A3F1B215F085FF0598676906784146102008F059FE761C0090002203
:20267000ABA3F1B2384615F076FF2E1D0020207105F1040CB5F80AE094F807800696B8F170
:20269000000F10D0A66B0746014642464FF6FF70123E36F8123F98420CD0521E07F1120754
:2026B00001F10101F5D1944E152740E008020020C01B0020A6F800E08846604613F09EF862
:2026D000B61C01460F2230460EF074FB0798002200FA08F01FFA80FB4846594616F0BCF88F
:2026F00050460022594616F0B7F84E46DFF8049200225946484616F0AFF8A06B4FEAC803B2
:202710003F18991903EB0A02BF1C7B4ECF60F088D76003EB0901CF60400904D230461C212B
:20273000002216F099F85FFA88F794F807802549102008F0EBFD804512D807994FF00008D1
:2027500040F2053004AA8DF8108009F04BFB059960690978C9A34246891CC9B215F0FBFE06
:202770000599A36B097860697A0002EB0712491D9B18C9B200229B1C15F0EDFE304614F0FC
:2027900095FF6889A081206A022817D1069904F223100A688988026010268180676984F8B7
:2027B000226113F02BF8009094F938010022C3A331460190384615F0CEFE206A042806D19E
:2027D00002E0C046F17F0110688913F023FB4FF48011A06917F084FE41E2C0464018002067
:2027F000A8170020361D38460022C6A3F1B215F0B2FE6878009005980678C6A3761D0AE0C5
:20281000E5794146102008F081FD854205D805980678C3A3B61C676937E005996069097857
:20283000002243A3891CC9B215F095FE4FF40021CFE70020E07017F005F9E8786064E878B5
:20285000E0B12D480221002216F006F8079F04F58B6A00264FF0190BB946E878B0421ADCB5
:202870000E2E0BDA4F4607FA06F082B2B948002115F0F2FF761CF6B20E2EF4DBE87800901A
:2028900067690598AEA30678361D0022F1B2384615F061FEE3E168684FEAC60808EB000361
:2028B0005A780BFB06F101EB0A077A7010F808009B1C0AF801001968B81C016099888180B0
:2028D00012F09CFF083701460F2238460EF072FAA0484044C7609F4809FA06F3002299B2C9
:2028F00015F0BAFF771CFEB2B7E7E878C6A30090CAE7C046F4170020A4190020B61C3846C1
:202910000022C5A3F1B215F026FE4FF4802160E7436F6E6E656374656420746F20256400E7
:20293000446973636F6E6E65637465642100C046526561647920746F2041647665727469A6
:20295000736500C0526561647920746F205363616E00C046436F6E6E65637465642100C0B8
:202970006889E081E81C12F049FF034631460022384615F0F0FD059E606931780022BCA3BF
:20299000491CC9B215F0E7FD606931780022BCA3091DC9B215F0DFFDEF1CB34839680160E1
:2029B0007E684660079AB149102008F0AFFC04F167014FF441700CF0C9FC4FF0FF3084F811
:2029D0002201002012F0DCFC04F59E7017F0BFF945E169782078162921D02A793178606920
:2029F0007E2A01F1040112D07F2A0DD01B2A22D1E9686A8904F188000EF0DCF9A0694FF4A8
:202A1000007117F06DFD16E02A89A0A301E02A7AA2A30092C9B2002215F09DFD0BE015F050
:202A3000E3FB03460420BD4900906A88102008F06DFC00285ED04146102008F067FC002892
:202A500052D0688815F030FD20822A790B2A2DD0012A02D1297A0A2928D0132A18D0012A8F
:202A700002D1297A122913D0216C0001085C00283AD0284609F028FB36E0C04643616E27AF
:202A900074206164763A206E6F206C696E6B730060693178012A07D0627984A3521CD2B277
:202AB0006271521ED2B219E084A316E060693178012A11D0EA68127884A30FE04E6578741A
:202AD00020686F7020616464723A2025732C20727373693A2025640080A32A7B0092491D22
:202AF0000022C9B215F037FD297905F1080017F0EFFCB4E0079810F02DFCE5630020079003
:202B1000ADE0C046436F6E6E656374204661696C656400C0526561736F6E3A20256400C018
:202B300043616E277420416476203A204D617820636F6E6E73207265616368656400C046CA
:202B50004465766963657320466F756E6420256400C046C0A816002068780E3862D0801E43
:202B700079D02E387BD1A878802878D1606D401C6065009060690E2100225CA315F0EBFCB6
:202B9000D4F8488040460A2869D0002805F1050926460DDD06F266274446484639460622DA
:202BB00015F0E2FF00285AD0641E07F11907F4D14A461168192000FB086404F51974A01C83
:202BD000016091888180104612F018FE01460F2204F108000EF0EEF8E87AE07595F90C0052
:202BF00020762879607008F10103B3647769B46D4846641CB46512F001FE009095F90C0057
:202C10003FA3661E019040E6506172616D2055706461746520256400416476657274697328
:202C3000696E6700A88842F20301814217D1A9680878A0B9491C02A80A684968026002AF04
:202C500041603878364902AA00F0FD003870102008F05CFB03E00820002107F02DFF0798E6
:202C700009B0BDE8F08FC046D70F0020B9880100436F6E6E656374656420746F203000C073
:202C9000496E697469616C697A6564004D54552053697A653A20256400C046C04643205655
:202CB000696F6C617465643A2025640057726974652073656E743A20256400C05772697411
:202CD00065204572726F7220256400C052656164207273703A20256400C046C052656164D6
:202CF000204572726F7220256400C0467363612072657120636F756E743A20256400C0461A
:202D10007363616E2072657120616464723A2025732C20727373693A202564000F99010050
:202D300095B400102DE9F04F0F4685B0804617F8010B8DF800004FF4B07008EB00044FF448
:202D50009C7008EB00059DF800104FF4C67008EB0006182908F1E70A08F1660908F20D1B93
:202D7000DFF86C0700F2A183DFE811F019007200660194009F039F03FD007903140127019B
:202D90000101100138019F039F0384019F0368015C018503E402E40236029F03810217F8E6
:202DB000010B88F886000222394608F1880017F07FFB0146022208F18A0017F079FB01469C
:202DD000022208F18C0017F073FB0146022208F18E0017F06DFB074698F88600400088F841
:202DF000860008F1860108F18600022240884000488008F1860080884000888008F18600FC
:202E1000008900010881394608F1840017F050FB08F10601B9F81E004988401A80B247F6D8
:202E3000FF7188422BDA08F1860008F18601C0888988401C4900484308F1860109898842DF
:202E500028BF3B2080F04082012089F81C001CE00522394608F1610017F02AFB014602229D
:202E700008F1920017F024FB08F1860008F1060180894988401A80B247F6FF71884280F2C3
:202E9000228208F186010120887208F10601002008834CE29AF81600C0070AD41A208AF801
:202EB0000E009AF80D00012808BF0D213FD00D21D7E1002089F8000089F8060008220120CF
:202ED0008AF81100394608F1B00017F0F1FA0146022208F1B80017F0EBFA08F1A804014641
:202EF0000822204617F0E4FA07460821204617F0DBFA08F19C0404223946204617F0D8FA18
:202F10000421204617F0D0FA08F1A00017F0C8FA08F1980017F0C0FADFF8B805018841F043
:202F3000800101809AF80D00012806D10421404605B0BDE8F04F14F031BA99F810000128E3
:202F500004BF99F811000F280BD1404611F00EFF0421404611F09EFB0F2089F81A00FD2128
:202F70007FE104217DE101208AF80F00ACE2002089F8000089F806008AF800000B21012027
:202F90008AF80D0000208AF801006AE101208AF8100099E2002142187B5C547A23437B5421
:202FB00052781A4008EB0103491C082983F8FD20F1DB404611F04AFA7CE2002142187B5C71
:202FD000547A23437B5452781A4008EB0103491C082983F8FD20F1DB022053E299F80600DB
:202FF00008B93D2070E19BF800000128D1D017F8010B8BF8030002224FF4897039464044F1
:2030100017F056FA01464FF48A700222404417F04FFA01208BF800009BF8020000281BD180
:203030000C211EE19AF81600C00601D41220D9E0404612F083FC3DE2387845E138782070EA
:203050007878607099F8100001280DD199F811000F2802D0162803D036E20120687333E213
:20307000307B40F001001EE205B0BDE8F04F002016F0E2B89AF81600810706D41121084285
:2030900001D10F20AEE01A2254E03878797800EB01202882F978B87800EB01206882797941
:2030B000387900EB0120A882F979B87900EB0120E882387A2876B97A787A00EB0120688394
:2030D000397BF87A00EB0120A883B97B787B00EB0120E883397CF87B00EB01202884B97CD0
:2030F000787C00EB01206884397DF87C00EB0120A884B97D787D00EB0120E8844FF4AA7072
:2031100040440490688B0390287E029008F1060040880190E88A0090AB8A6A8A298A40460D
:203130000FF0A6FB68B19AF81600400701D40F2058E01E22404605B0BDE8F04F0F2113F009
:20315000C9BE688A08F186018880A88AC880E88A0881022088F886000020488008F10601D9
:2031700008F10600C08DC01DA9F81E0008F18600898D808888420FD108F1860008F1060191
:20319000C088C98D884207D108F1860008F106010089098E88421DD099F81000012804BFFC
:2031B00099F811000F2807D099F8150020B10F2089F81A00FE2154E0FC21404611F06AFAB3
:2031D000E88A0090AB8A6A8A298A98F8060017F05FF979E1102144E09AF817000921084240
:2031F00003D116208BF80C0061E17978387801F00701084038700146707B0840F07212D09C
:20321000411E08420DD0400703D5B07B08B1042003E0F17A0220014201D0F07201E04008E2
:20323000F9D1F07A08B9B07AF072F07A042803D1404612F04AFCA083F07A17F025F9307172
:20325000A28BB17B012313F0B5FB0146208B884205D3A28BB17B3079012313F0ABFB7080DB
:203270001721404605B0BDE8F04F11F013BA78783978814207D100F007000840387034D0F2
:20329000421E10420FD01E221821404613F022FE98F80610002300221E200DF00FFB307B90
:2032B00040F04000FFE0F072F978B87800EB0120308108F1060130894988401A80B247F69C
:2032D000FF71884206DB28208BF80B0001208BF80A00F9E00120B071F07A042803D1404634
:2032F00012F0F3FBA083F07A0BE099F81100162806D1B27A98F80610134600200DF0DEFA7F
:20331000B07A3071A28BB17B3079012313F052FB0146208B884205D3A28BB17B30790123A2
:2033300013F048FB7080307B40F04000307301202870C9E03878797800EB01206082F97827
:20335000B87800EB0120E0827979387900EB01202082F979B87900EB0120A082A18AE08909
:20337000884288BF0846B17A042904D1B0F5296FD8BF4FF42960E28BE0839042B07A14BF72
:203390004FF001094FF00009042803D1404612F09CFB04E0A089E18A884288BF0846A28B69
:2033B000A08390422089628A238B14BF01210021904288BF1046984241EA090114BF01223B
:2033D000002242EA01052083A28BB17B3079012313F0F0FA0146208B884205D3A28BB17BE6
:2033F0003079012313F0E6FA70806189208A628B814288BF01466183914214BF0120002080
:2034100005438A42344998F80620096801EB4211628B8041121DC00F0A7610B1404614F02E
:2034300037FA9DF80000142810D145B1E08B0090638BA28B218B98F8060017F021F84046A5
:2034500005B0BDE8F04F15210EF02CBE1DB1307840F008003070307840F020001BE03878B4
:203470000E280ED00F2809D0122804D014280CD0162812D028E00020287225E0012028734F
:2034900022E003208AF815001EE0307840F00200307040F01000307016E0307B40F0020035
:2034B000307340F0100030730EE08BF80C10404611F014FE40B905B0BDE8F04F07480078F7
:2034D0004FF480410CF06CB805B0BDE8F08F00BF182F0020524F0020902F00206E4F00203C
:2034F0002DE9F04F0D4685B0814615F8010B8DF800004FF49E7009EB00064FF4B0709DF837
:20351000001009EB00044FF4C670891E09EB0007152909F20D1B09F1E70809F1060ADFF84D
:20353000680700F29C83DFE811F00F019A031600440048007A039A03C3009A037D00D60017
:20355000810088001701E901280204018403E802E8022F02A00209F1A00608222946304644
:2035700016F0A6FF05460821304616F09DFF09F1980404222946204616F09AFF0421204649
:2035900016F092FF00214842484409EB010290F89F0082F8BF00491C0829F4DB09F1C702CE
:2035B000314609F1D70016F067FF012088F8000066E3012088F8130062E398F80D1098F827
:2035D0001600012900F010000DD130B10020707130684108B07910F03DFD9AF800000021E4
:2035F00016F046FF11E050B14FF4A17009EB0003306842084946DFF8940616F019FB9AF8A5
:2036100000000122002116F02FFF012089F86600484613F04CF809F166010120887188F84A
:203630000F002DE3012088F8100029E3287888F80E00012088F8140022E398F812100129DA
:203650001DD198F8001001294DD098F81610090704D40E208BF80C00072100E200214218A5
:203670006B5C567A33436B5452781A4009EB0103491C082983F8FD20F1DB0921EFE198F8CE
:203690001610090758BF0E2058D5002142186B5C567A33436B5452781A4009EB0103491CAA
:2036B000082983F8FD20F1DB484610F0CFFEDDE2002142186B5C567A33436B5452781A40E0
:2036D00009EB0103491C082983F8FD20F1DB022088F81500D4E298F81200012804BF98F85D
:2036F0000000012806D13D208BF80B0001208BF80A00C5E29BF800000128FAD015F8010BDB
:203710008BF8030002224FF489702946484416F0CFFE01464FF48A700222484416F0C8FEE5
:2037300001208BF800009BF802000028E1D10C2195E198F81600C00658BF122040F19182CA
:20375000484612F0FBF891E228788BF80B00F02100208BF80A000AE198F81600810707D483
:203770001121084208BF0F2000F07B821A22F6E009F16601097C012902BF09F16601497CD1
:203790000F2911D009F16601497D0A0003D009F16602527C22B109F16602127F012A05D105
:2037B000400758BF0F2064D52322D8E021B109F16601497C012904D009F18601897A012992
:2037D00005D1400758BF0F2053D52A22C7E02878697800EB0120B081E978A87800EB012010
:2037F000F0816979287900EB01203082E979A87900EB01207082287A3075A97A687A00EB4F
:203810000120F082297BE87A00EB01203083A97B687B00EB01207083297CE87B00EB012026
:20383000B083A97C687C00EB0120F083297DE87C00EB01203084A97D687D00EB01207084E8
:203850004FF4AA7048440490F08A0390307D0290BAF802000190708A0090338AF289B1894E
:2038700048460FF005F838B198F81600400758BF0F2040F1F68171E0F08909F18601888097
:20389000308AC880708A0881022089F886000020488009F16601BAF82E00C01DC88309F11F
:2038B0008600BAF82C108088884201BF09F18600C088BAF82E10884206D109F18600BAF867
:2038D00030100089884217D009F16600407D28B109F166010F208876FE21C0E0FC21484670
:2038F00010F0D8FE708A0090338AF289B1899AF8000016F0CDFDC3E10021B0E0A878E978AE
:2039100000EB01262879697900EB0124A879E97900EB012705F10B000490A3B2687AA97A6D
:2039300000EB012080B20390B2B2287A0290BAF802000190B8B200906978287800EB012042
:2039500081B248460EF094FF58B198F81600400758BF0F208DD5484611F008FA1E220F2166
:2039700034E009F1860000218680C4800781484605B0BDE8F04F13F011BD287820706878A8
:203990006070012070727BE198F81700C00758BF162040F1668109F16600407C16281ABFE2
:2039B000BA79012A232210D0002818BF01280BD00F281EBF09F16600007F01281EBF09F17E
:2039D0008600807A012807D12A221621484605B0BDE8F04F13F07EBA6978287801F00701F7
:2039F00008402870797B08401CBF411E0842F8720DD0400703D5B87B08B1042003E0F97A4B
:203A10000220014201D0F87201E04008F9D1F87AB97A884204BF0020F872F87A08B938815B
:203A30001CE0BAF82E00C01D3881F87A042803D1484612F04AF8A0830123F87A3871A28B31
:203A5000B97B12F0B7FF0146208B884205D3A28BB97B3879012312F0ADFF78801821484633
:203A700005B0BDE8F04F10F015BE6978287801F0070108402870F97A08401CBF411E084231
:203A9000F8720DD0400703D5B87B08B1042003E0F97A0220014201D0F87201E04008F9D1B7
:203AB000F87AB97A884204BF0020F872F87A10B93881B87A0BE0BAF82E00C01D3881F87A41
:203AD000042803D1484612F000F8A083F87A3871A28BB97B3879012312F06CFF0146208B7B
:203AF000884205D3A28BB97B3879012312F062FF7880387B40F02000AFE02878697800EB85
:203B100001206082E978A87800EB0120E0826979287900EB01202082E979A87900EB0120E3
:203B3000A082A18AE089884288BF0846B97A042904D1B0F5296FD8BF4FF42960E28BE083BB
:203B50009042B87A14BF01250025042803D1484611F0BBFF04E0A089E18A884288BF084613
:203B7000A28BA083904214BF012100212089628A238B2943904288BF1046984214BF01220F
:203B9000002242EA01052083A28BB97B3879012312F010FF0146208B884205D3A28BB97BE2
:203BB0003879012312F006FF78806189208A628B814288BF01466183914214BF0120002084
:203BD00005438A4232499AF80020096801EB4211628B8041121DC00F0A7610B1484613F066
:203BF00057FE9DF80000142810D145B1E08B0090638BA28B218B9AF8000016F041FC484693
:203C100005B0BDE8F04F15210EF04CBA1DB1387840F008003870387840F0200015E02878CE
:203C30000F2809D0122804D0142808D016280ED026E00020307123E00120307220E03878E9
:203C500040F00200387040F01000387018E0387B40F00200387340F01000387310E09DF89A
:203C700000008BF80C00484611F038FA40B905B0BDE8F04F074800784FF480410BF090BC40
:203C900005B0BDE8F08F00BF182F0020512E0100902F00206E4F00202DE9F04FDFF800B5F8
:203CB000DFF800659BF800001E25082887B000F26E82DFE810F0720209000900090009003A
:203CD000F000860172027202DFF8DC44DFF8DC942068DFF8DC84006800F10807062207F1F0
:203CF000080102A815F05AFC0622B91C684615F055FC3978C1F380108DF8140001F00F0215
:203D1000C809032A35D16179C1F38001884239D12169062202A815F0B3F800283AD09DF8D9
:203D30001400694616F09CFB002833D03146684614F0CFF9FF282DD0D8F80010897A684345
:203D500035180A0018BF02290AD0012918BF032918D1325C691C484616F07EFB102819D0C9
:203D70006A46E91D484610F0D3FB06226946E81D06E201F00F01052940F00F826179C1F3DF
:203D90008001884240F0FE812169062202A815F077F8002800F0F681387847099DF8140011
:203DB000694616F05DFB40F2024A70B33146684614F08FF98346BBF1FF0F6BD005FB0BF0DB
:203DD00031180491D8F80010897A0A0018BF01290BD0022918BF03295CD1325C0498411C4A
:203DF000484616F039FB102854D0504616F030FB0498C11D6A46484610F08AFB04980622C7
:203E10006946C01D15F0CAFB1DE09BF80000022840D19DF814106A46304610F01CFA8346B3
:203E3000BBF1FF0F36D005FB0BF03044417F012906D000292ED10D3016F006FB002829D0F6
:203E5000504616F005FB05FB0BF0D8F80020315C91763044411CD8F800000622143015F025
:203E70009DFBD449D4488978490604D5F90758BF41F20A4101D541F2044141804183418609
:203E9000CE480180CE49CF4808600121CE4800780BF086FB76E1CD4C2068006800F1080759
:203EB0000F21387808421CBF00F00F01062906D002291CBF00F00F00012840F06E81062273
:203ED000B91C02A815F06AFB3878DFF80493C0F3801800F00F0001283FD1062207F108011F
:203EF000684615F05BFB3878C7096946384616F0B7FAE8B1D9F80000807C022818BF0328B3
:203F10005ED106F10D01684616F09AFA002857D0D9F800100120C8720622607940F0040055
:203F300060716946D9F800000C3015F037FB14E03078874211D10622711C684614F0A0FF60
:203F500058B13078617960F3820161710622D9F80000711C0C3015F021FB02A9404616F004
:203F70007FFA00282CD0606902A9001F13F06AFA002825D1314602A814F0ABF8FF281FD09E
:203F9000D9F80010897C684335180A0018BF02290BD0012918BF032912D1325C6069691C60
:203FB000001F16F059FA10280AD0606902AAE91D001F10F0ADFA062202A9E81D15F0EEFA61
:203FD000EBE0844C2068006800F108070F21387808421CBF00F00F00012874D10622B91CD7
:203FF00002A815F0DBFA3878DFF8EC91C0F3801800F00F00012846D1062207F108016846C8
:2040100015F0CCFA3878C7096946384616F028FA20B3D9F80000C07A022818BF032852D1C3
:2040300006F10D0016F010FA00284CD106F10D01684616F005FA002830D0D9F8000006223E
:2040500069460C3015F0AAFA607940F00400607106226946F01D15F0A1FA14E030788742F5
:2040700011D10622711C684614F00AFF58B13078617960F3820161710622D9F80000711C25
:204090000C3015F08BFA02A9404616F0E9F900284AD0314602A814F01CF8FF2872D005FB4D
:2040B00000F7D9F80000817AF51959BB807C15F0A3FB814699F82E01022811BF0328F15D72
:2040D00000F0010081425DD14FF4947009EB000606223146681C14F0D3FE30B9062231462D
:2040F0003E4814F0CDFE00284CD0012089F82E010622607940F00800607102A9304615F016
:204110004DFA0DE02069F25D691C001F16F0A4F9102837D0206902AAE91D001F10F0F8F9B2
:20413000062202A9E81D2BE0D9F80000817A49BB807C15F061FB074697F82E01022818BF53
:2041500003281FD102AA4146304610F084F8FF2818D06843351805F10D0016F075F910B9C8
:20417000687F01280ED187F82E810622607900F0F70040EAC800607102A94FF494703844F9
:2041900015F00CFA216809680020087105E0002015F052F8862016F04FF907B0BDE8F08F4E
:2041B0006F4F0020E8230020F44B0020CC470020104F0020182F0020204A0020504F002025
:2041D000204F0020F14100006E4F0020D04B0020942F0020AC4B0020184F00208CB4010034
:2041F0002DE9F84F012013F0A1FB01280ED1DFF8E454296800204871286812F08DF905F004
:2042100047FB040003D1812016F016F95DE201206071DFF8C464DFF8C4044178491C417020
:204230002968A07981F8A00040200EF081FE2060307901281CBF002014F0FEFFF06821689F
:20425000DFF89C6400F5B060C86030680068007903281CBF002014F0EFFF3068DFF8849432
:20427000006800F1080A4FF4977004EB00089AF80000C0F3801088F8000006224FF49470BE
:204290000AF10201204415F089F904220AF10E0104F1240015F082F9D9F80000A37900EB84
:2042B000431004220AF10E010C3015F077F9D9F80000A37900EB431003220AF1120110301C
:2042D00015F06CF904F12C079AF81500B87002220AF1160104F1300015F060F902220AF195
:2042F000180104F1320015F059F902220AF11A0104F1340015F052F93889608402220AF1A0
:204310001C0104F1360015F049F9B87879894000B8700901B88879814000B88089B2F888ED
:204330004000F88080B2628C521C43005A438A4200D238B9DFF8B003007880210BF030F9F1
:204350003B21F5E004F12E01204614F015FD0520A081204614F0EEFE05220AF11E0104F1AA
:20437000610015F01BF99AF823004009387016F05FF860822968DD4D498A401AA8F80C003A
:2043900004F161019AF82300DFF864A300F01F00F873204612F02EFB316809680020087175
:2043B0001C26A1792868714341F6210242520022A179714301444A80A179714308444260A4
:2043D0009AF80200400609D5CA48008841F20A4188420CBFC848C948C4F89C012046D4F8BC
:2043F0009C118847A2792968724311448873A1792868714308440021C173C148007870B1DF
:20441000B88860B978730120208160812046D4F89C118847A2792968724311448873A1792C
:20443000286871430844807B787394F8960108B914F002FFA1792868DFF8C8B27143084412
:2044500094F89611491E01740022A17928687143084400214174A07929687043084442822E
:20447000A279D9F8000000EB421372430A445361A27972431144A44A8A61DBF8141091F8CB
:2044900000C094F806E05FEACC714CBF102100215FEA8C724CBF202200225FEA4C734CBF2E
:2044B000402300235FEA0C7C4CBF4FF0800C4FF0000C1143194300EB4E104CEA010141F012
:2044D0000F010172D9F80000A17900EB41100B214172D9F80000A17900EB41100421817204
:2044F000D9F80000A17900EB41108849097801291CBFDBF828104978C172D9F80000A17944
:2045100000EB41101F210176D9F80000A17900EB411000214176A0790BF096FFA279D9F804
:20453000001052018850A0794201895821B90721204614F0CAFBC8E07549096801EB0010EF
:2045500015F072FF724AA1791268D9F8000002EB011200EB41114A60A17900EB41114968C5
:20457000F963A17949014058786404215E4800780BF016F86249B888097800F1020E19B174
:2045900010B9F88800F1020E608A00FB0EF04FF4C871B0FBF1F0401CC4F818E0606140F6CF
:2045B000C41394F806C02968226806FB0CFC8C44CDF800C0D2F80CC003FB0ECCACEB000044
:2045D000A0F5A86C0098C0F808C0A0797043084480689060A07970430844017B01F0EF01A5
:2045F0000173A179286871430844017B01F07F010173A179286871430844017B01F0F00124
:2046100041F002010173A179286871430844417B01F0F00141F001014173A1792868714355
:2046300008442168806808616269D9F80000A17997F802C0520000EB411103FB0C2202F58B
:20465000F6624A61A17900EB4110C17C01F0F00141F00401C174FA88D9F80000A1795A435D
:20467000DBF830301B6800EB4111D21AA2F51672CA61A17900EB4110C17E01F0F00141F059
:204690000401C176A179286871430844216848609AF80100800615D5B8F83A001B2804BF00
:2046B000B8F83C001B2809D1B8F83E00B0F5A47F04BFB4F86E01B0F5A47F03D01421204617
:2046D0000FF0E8FF134907200870BDE8F14F00F02DBD00BF104F0020B44D0020684E0020F5
:2046F000F44B0020902F00206E4F00208C2F0020182F0020504F0020C347010085550100A8
:20471000784E002030B401005C4D0020734F00208C4E00206F4F00202DE9F84F5FEA000A8B
:2047300027D1002014F088FD23E050460FF02DFD62E2317C012940F07E80C078002877D016
:2047500098F80000400088F80000B8F802004000A8F80200B8F804004000A8F80400B8F81D
:2047700008000001A8F8080001203077504610F0FDFA0AF16606707D002800F064824FF48E
:2047900089700AEB00094FF4A2700AEB0004717C4FF4C6700AEB000B00290AF186080AF1B1
:2047B000EC050AF10607DFF8A404C2D0012946D0022931D0032957D0062900F0A4800729AD
:2047D00000F01E82082900F0F180092900F00F810A2900F0B3800B2900F0CA800C2900F00C
:2047F00013810F2900F04981112900F06A81122900F03881142900F0CE81162900F06C8192
:20481000182900F09D81F02900F00082FC2926D0FE2900F0048284E7317C012985D1C07826
:20483000002800F08281504610F0A0FA1621F1E1B888F18B10E050460DF074F9DCE1317CFE
:2048500001290DD1C07800281CBF012088F80A008CD1B888B8F80C10884200F09581F1E14F
:2048700050460EF054FCC7E1317C012941D1807850B10020B071A078012805D10020A07032
:20489000002150460FF006FFA87B01280AD10020286068600621012088F80E00504612F048
:2048B0007DFD66E7E87B012818D1504610F05EFA002088F80E0001203070504611F0F7FEC3
:2048D0000120B07100206873697A387806291ABF00221A21002215F0C7FD4AE799F80500E1
:2048F00001286FD0308B401E308380B200284CD0A8E150460CF0ECFD3074F08A3083002009
:20491000A873E8739FE1307C01280ED1A87A01281FD1504610F02AFA002028722873E87239
:20493000A873A872E873687323E7504610F0D4FC3074F08A30830020A87284E1307C012847
:204950000DD1E87A012802BF002088F80E000B21A4D0308B401E308380B2B0B172E1504687
:2049700010F031FE3074F08A30830020E8726AE1317C012916D1807808B103218EE7308B9F
:20499000401E308380B20028E8D1297A3878012903D1222115F06CFD29E10022222115F06D
:2049B00063FD24E150460FF0E9F925E1307C012814D1287C02280AF1FD0204D139780020DD
:2049D00015F02EFDD2E6308B401E308380B200280CD13978222015F023FD08E150460EF047
:2049F0004FFF3074F08A3083012028742AE1317C012905D1807810B1B88B3883B6E694E04C
:204A100050460FF023FDF7E0307C01280AF20D1121D1087801280DD14878012809D1B9F81E
:204A3000020000900020CA78B9F80030397815F0F3FC9BE6308B401E308380B2002810D164
:204A5000B9F8020000902220CA78B9F80030397815F0E2FCCBE00120887050460EF0CCFBEB
:204A70003074EFE0317C012903D180780028E0D15BE0504610F03AFFBEE0307C01281CD1CD
:204A90006078012809D1207F0F281CBF002014F0D3FB00206070002100E7A078012806D178
:204AB0000020A0702322504612F014FA61E6207801283AD100202070EDE750460BF00CFE99
:204AD0009AE0317C012903D1C078002821D12CE050460FF0ECFC8FE0307C01282CD19BF8F2
:204AF0000C00810648BF1821D6D4C10712D5207F16281CBF002014F09FFB9BF80C0000F075
:204B1000FE008BF80C0000233978607F00220BF0D5FE2BE6810708D500F0FD008BF80C0063
:204B30000023397800221A20F1E7308B401E308380B200285BD085E050460BF071F85BE072
:204B5000317C012922D1C078C0B19BF80C009BF80B1059B9810610D500F0DF008BF80C00A9
:204B700000209BF80A2039781346D0E700F0DF008BF80C0001208BF80600F7E57988BBF8EF
:204B90000800491C88425DD1282143E0182150460BF046F830E0307C01282AD19BF80000B9
:204BB0004FF4B3710AEB0105810614D500F0DF0001078BF800000BD500F0F7008BF800006F
:204BD000288B0090AB8AEA8A698A387815F058FC00202870CAE5810704D500F0FD008BF8A5
:204BF0000000F5E7308B401E308380B250BB222110E050460DF056FA3074F08A308321E0D8
:204C1000504610F06BFA0128E4D01BE0407AD0B199F80610504614F058F8012013E0B07EA3
:204C30000F280CD1FC21504612F0B8FB608900902389E288A188387815F02AFC02E0002053
:204C500014F0FAFA0020BDE8F28F00BF5C4D00202DE9F0475FEA000882B00BD1002014F0AE
:204C7000EBFA07E0404610F039FA012864D1404610F07CF808F16605687D00285CD04FF467
:204C90009E7008EB00044FF4B070697CDFF894A408EB00094FF4C670022908F1EC07404498
:204CB00008F1060635D0042949D005295FD0062900F08E800729D5D0092900F0F4800B296B
:204CD00000F0C6800C2900F026810D2900F0D5800E2900F0F6800F2900F05D81102900F07B
:204CF0007881112900F09681122900F04181142900F0D681162900F09781172900F0C3813E
:204D1000FC2919D0FD2900F0F481FE2900F0F681A4E7287C012809D19AF80300002814D089
:204D30001621404613F0D1FF012006E040460FF02CFA2874E88A28830020BDE8F687287C82
:204D5000012810D19AF80200002800F01881FC21404612F023FB307808F1B80208F1B0012C
:204D700015F056FB86E740460CF002FEE1E7287C012810D19AF8020028B1012088F89400C6
:204D9000002038607860B87A012869D10621404612F004FB6EE708F1E7063078012809D14A
:204DB000404612F0E1F90128C6D10020B87201202874C1E770780028BED008F1C70208F1B9
:204DD000A00108F1D70015F057FB0120307051E7287C012838D19AF80200002840D0B08B25
:204DF000308340460FF0C2FF01202870404611F05EFC0120A871397A787C012900F0100005
:204E10000CD130B10020607120684108A0790FF021F93078002115F02BFB0FE048B14FF4B1
:204E3000A17008EB0003206842084146BE4814F0FFFE30780122002115F016FB002038722F
:204E50003873F872B87215E7404610F045FA70E7287C012805D1F87A012808BFFC2196D063
:204E70008DE040460EF08AFF012853D10020F87288F8940001202874FCE6287C01280ED172
:204E90009AF80200002809D0002088F8940001202870404611F00BFC0120A871BDE0404695
:204EB00011F0C8FD45E7287C012806D19AF8020000281CBFB08B3083A6E040460FF0C6FAFC
:204ED00037E7287C01281DD1387C022808F1FD0204D13178002015F0A3FAC8E6032806D123
:204EF00031781A2015F09CFA00203874BFE6288B411E298389B200290CD13178222015F0C4
:204F10008FFA42E040460EF0BBFC2874E88A28830120387410E7297C012908F20D1021D146
:204F30004FF4897108EB0102017801290BD14178012907D1518800911388C27831780020EC
:204F500015F06AFA93E6298B491E298389B20029E0D1518800911388C2783178222015F054
:204F70005BFA12E00121817040460EF045F9E0E6287C01280BD19AF802000028E2D1288B74
:204F9000401E288380B20028C4D12221C9E6404610F0ACFCCDE6287C012816D1607A01287F
:204FB00003D199F800000F281CE0207A012829D100202072288D00090090A88CEB8C317838
:204FD00042081A2015F020FA51E640460BF084FBAFE6287C012819D1607A012812D199F824
:204FF000000010281CBF002014F026F900206072288D00090090A88CEB8C3178420899F8DC
:205010000100DFE7287F0028DED1B8E740460BF0B4FB8EE6287C012802D19AF80300F2E7EA
:2050300040460FF044FA84E6297C012926D1017B4A062ED4CA070AD501F0FE010173002368
:20505000317899F8010000220BF038FC0FE68A0707D501F0FD0101730023317800221A20C7
:20507000F2E7288B411E298389B2002955D131780023002222200BF021FC86E7162140468D
:205090000AF0CEFD55E6297C012907D1017B4906BBD5017B01F0BF010173E8E51721EEE783
:2050B000297C012920D101788A0617D501F0DF010A0701700ED501F0F7010170B9F81E00CC
:2050D0000090B9F81A30B9F81C20B9F81810307815F0D6F9002089F80600C8E58A0794D5A5
:2050F00001F0FD010170F5E7142140460CF0DAFF1FE6A97E404612F051F9BBE6A87E0F28D8
:205110000CD1FC21404612F049F9608A0090238AE289A189307815F0BBF90DE6002014F087
:205130008BF809E65C4D0020512E01002DE9FE4FDFF85084D8F80400009018B9BDE8F74F76
:2051500015F05EB90078DFF84094DFF840A4DFF8404401281CBF0228042846F2A81741F662
:205170004C5B05D0402818BF802800F0F98001E214F010FD0028FAD00098007807F094FED4
:2051900005466E6816B9002014F056F8DFF804044078002800F0A58004F082FA14F02CFB2E
:2051B0000190006802900146476828460BF034FF02286FD02978012904D0022927D004296B
:2051D00045D0D7E1DFF8D0130968097A1AF80110217018B915F010F95844B0603069C17E2D
:2051F00001F0EF01C1763069C17E41F08001C1763069C17E01F0F00141F00201C176B86881
:20521000DFF8981308183169C8610120A4E00521217018B915F0F0F85844B0603069C17E7B
:2052300001F0EF01C1763069C17E41F08001C1763069C17E01F0F00141F00201C176B86840
:20525000DFF85813081831690862022084E00621217018B915F0D0F85844B060D0480068D0
:20527000807C12F0B7F83069C17E01F0EF01C1763069C17E41F08001C1763069C17E01F0F7
:20529000F00141F00201C176B868C44908183169086260E002980078802811D108202070BD
:2052B000C0480078012803D0BA484078022801DB012002E0D9F8280000787969C8720AE028
:2052D0000720B84920700978786901291CBFD9F828104978C1720198AE4980798870029887
:2052F00044E1002D18D000992878A9420ED1401E012833D9C01E05D1A9480068807C12F0C3
:2053100069F82BE0002013F097FF27E0012804D0022815D0042817D02CE19F480068007A5C
:205330001AF80000207015F067F83918B06815F05FF818B915F060F85844B06001200BE0AC
:2053500005202070022007E00620207094480068807C12F03FF8042088F80200284605E156
:205370008C484078002800F0B68004F099F914F043FA00900068019045688648807814F07C
:205390003BFA029014F00CFC0721084278D098F8020007F089FD0646019977680BF03CFE67
:2053B00002286DD03178012904D0022924D0042940D062E078490968097A1AF801102170C8
:2053D00018B915F019F85844B8603869C17E01F0EF01C1763869C17E41F08001C1763869C0
:2053F000C17E01F0F00141F00201C176A8686B4908183969C86192E00521217018B914F064
:20541000FBFF5844B8603869C17E01F0EF01C1763869C17E41F08001C1763869C17E01F03C
:20543000F00141F00201C176A8685C4908183969086283E00621217018B914F0DDFF5844B7
:20545000B86057480068807C11F0C4FF3869C17E01F0EF01C1763869C17E41F08001C1769C
:205470003869C17E01F0F00141F00201C176A8684A4908183969086274E0002013F0DCFECF
:2054900002980099884224D001980078802811D10820207043480078012803D03D4840787C
:2054B000022801DB012002E0D9F8280000786969C8720AE007203B492070097868690129B5
:2054D0001CBFD9F828104978C172009831498079887001984AE014F063FB072108424ED02C
:2054F00098F8020007F0E0FC064630787568012804D0022815D0042822D040E02648006846
:20551000007A1AF80000207014F076FF3918A86814F06EFF18B914F06FFF5844A86001200C
:2055300021E00520207014F067FF3918A86814F05FFF18B914F060FF5844A860022012E08C
:205550000620207014F058FF3918A86814F050FF18B914F051FF5844A86011480068807CF0
:2055700011F038FF042088F802003046BDE8FE4F09F0B2BDBDE8FE4F002013F05DBEBDE898
:20559000F78F00BF5C2F002030B40100289A01106F4F0020684E0020104F0020F0D8FFFF5A
:2055B000184F0020734F00202DE9F04F0C46E00789B00DD514F02AF938B100218160DFF8E0
:2055D00000040068010018BF804784F00100F4E11E252007DFF8EC6340F18A80DFF8E803D9
:2055F0000068807C14F008F907464FF4947097F82E8107EB0009002007908246DFF8C80344
:205610000068807CFF2804BF002013F015FE4A46414630460EF01FFE834605FB0BF00090FA
:2056300035184946404614F01BFFB0B1BBF1FF0F2CD00098305C40F00208E81D079005F1D3
:20565000010908F0010087F82E0106224FF494704946384413F0A2FF18E04946404614F05A
:205670005DF8002818BFBBF1FF0F0FD005F10D0014F0EAFE40B905F10D0014F0E5FE002833
:2056900004BF687F012801D148F00208CE480068C07A022818BF032806D106F10D0014F050
:2056B000D3FE08B906F1070A0020BD1D06904346288E000905900022E88D0490A88DCDF8AE
:2056D00004A040080390CDF80090079802900020297814F089FED7F89C01BC49884228788E
:2056F0000CBF002101210CF099FC84F0080064E1E00610D50020069005900490039002906B
:2057100001900090002300220021022014F06CFE84F0100051E1A00710D5002006900590D5
:20573000049003900290019000900023012200213C2014F059FE84F002003EE16007A44F72
:2057500040F1A180A34880784FF00008CDF81C80FF2804BF002013F06FFD386890F8A0001B
:2057700014F04AF881464FF4947009EB000B3868C07A99F82EA1022818BF032806D106F192
:205790000D0014F061FE08B9F01D07905946504614F066FE90B33868807A010018BF0128A9
:2057B00004D13146584612F094FC04E05A46514630460EF050FDFF283ED005FB00F806EB63
:2057D000080506225946E81D13F0E8FE16F8080040F0020A3868807E00F0010089F82E0166
:2057F0000622386800F114014FF49470484413F0D5FE05F1010B05F107081DE059465046E9
:2058100013F08CFFC0B15A46514630460EF023FDFF2811D06843351805F10D0014F014FE95
:2058300040B905F10D0014F00FFE002804BF687F012801D14AF0020A09F12C0009F106050D
:205850000178069153464189090905910122A98B0491C088CDF8088040080390CDF800B04C
:20587000079801900020297814F0BEFDD9F89C015649884228780CBF002101210CF0CEFB1E
:2058900084F0040099E0200610D50020069005900490039002900190009000230122002170
:2058B0003B2014F0A1FD84F0800086E0E0043BD5F11D06F10D0014F093FD38684179012963
:2058D00023D1017A012918BF04291ED1C17A022918BF032919D1817E00F1140230460EF05F
:2058F000BAFCFF2811D06843351805F10D0014F0ABFD50B9E91D05F10D0014F071FD38680F
:205910000622E91D143013F049FE33484268334800784FF4805110F065FE10B18E2014F0B9
:205930005BFD84F4805048E0A00505D514F008F92B4901200860FEE7600504D509F0CDFD28
:2059500084F4806039E0600405D5812014F044FD84F4804031E0A0042ED5224D286810B1F2
:20597000002013F069FC4FF0FF3028600FF038F81D4D296820316846096888471B48416824
:205990002D681B4A00916B468168019100210291016909680391017B00688DF81010ADF8EF
:2059B00012002D6813491448A8471449086004F0E1FD84F4005000E0002009B0BDE8F08F4D
:2059D000204F0020E8230020184F0020C3470100104F0020684E0020784E00206E4F002053
:2059F000FC002043044F0020F04E002090190020BC2E0020E01B0020902B0020EC4E002044
:205A10002DE9F043DFF8AC43DFF8AC3394F80080DFF8A8E3DFF8A893DFF8A863DFF8A813BD
:205A3000B8F10D0F83B0404641F2064741F202424FF4A05553D8DFE818F0BB010E000E00D7
:205A50000E000E006D00A500E9001D015F015F01900190019701DFF87413DFF87473C3F8B0
:205A700000E041F2044E4C8874451CBFB1F81A80F0450BD0B1F83290F1451CBF41F20A4EEF
:205A9000744503D0F04518BFF14502D1A6F800E02AE0022CDFF83C73348036D94FF4806C27
:205AB000B4EB0C041CD0241F012C1FD94FF47F7CB4EB0C041CD04FF4406CB4EB0C040FD07D
:205AD000A41E012C0CD9241F0AD0641E012C0DD940F2F930241A012C17D9241F08D05FE11F
:205AF000022814BF3580BC4F1F60FDE0BB4FFBE7BB480068007A012803D14A804A834A8648
:205B1000F2E74D804D834D86EEE7002013F094FB832049E1B348418831800229C3F800E09D
:205B300014D940F20442891A2AD0491E0ED040F2FB32891A1DD00A3901291AD940F6F63261
:205B5000891A03D0491E1BD0491E012940F2C680091F15D0491EF9D0491E11D04FF47E72AC
:205B7000891AF3D0491E0BD0C91E09D0491E012947D8817B478025290CBF2721491E81737E
:205B900099483CE09948418831800229C3F800E068D940F20442891A30D0491E62D040F2B0
:205BB000FB32891A23D00A39012920D940F6F632891A57D0491E21D0491E012952D9891EC9
:205BD00013D0891E1AD0491E4CD0491E16D0891E0BD040F2F632891A44D0491E0ED0C91EB2
:205BF0000CD0491E012902D90BE0814807E0817B478025290CBF2721491E81737D481860F6
:205C100072E0002013F018FB84206BE099F80200FF2855D07849C3F800E01C220968504380
:205C3000084440F204444188744A3180091B012946D94FF47F74091B15D00A39012916D94E
:205C500040F6F634091B032984BF491F01290FD9891E012934D940F2FD34091B08D0491E23
:205C7000012904D93AE041F20141418000E045801A6039E099F80200FF2821D05E49C3F878
:205C900000E01C240968604308445D4C4188318040F20446891B012912D94FF47F76891B40
:205CB00017D00A39012916D940F6F636891B13D0891E012984BFC91E01290DD9891E0129CC
:205CD00076D940F2FD36891B06D0491E012902D904E0428000E045801C6005E0002013F04B
:205CF000ABFA852014F0A8FB03B0BDE8F04345480078012109F054BC4A88328040F20443EB
:205D1000D21A55D040F6FC73D21A15D0083A4FD04FF47F73D21A22D13B4C3C4A24683C485A
:205D300000680023CDE9002308343A4B24680222A047394908803BE0092810D13748006879
:205D5000408960B1364800780EF078FE0021002014F03EFB002020702AE048883080002017
:205D700013F06AFA85201FE04A883280022A0DD940F20440121A1BD040F6FC70121A05D042
:205D9000083A15D04FF47F70121AE8D1887B801CC0B2B528A8BF662088730020488007E010
:205DB000002013F049FA8420BDE8FE4314F044BBBDE8F7836F4F0020204F0020299D01008D
:205DD000684E0020504F0020FC2E0020204A0020F14100007DD600007DFB0000755B01106C
:205DF000104F00209C4C0020891E01006C4C002059620000792A01008C2F00208D8600003F
:205E1000F9BA00006E4F0020F04E002002000080EC4E0020856A0100424F0020982F002020
:205E3000714F00202DE9F84FDFF8F443A078FF2804BF002013F000FAA07813F0DDFC0446AA
:205E50004FF4C97004F1680625183068006804F1900708B100200EE0B07B002804BFB07E7F
:205E7000002809D13878002801BF28780028207F012801D1608CE0832089E18B0818401C36
:205E90006081204612F0E0FD01281EBFE5480078012804D10020E0832089401C6081B07E8C
:205EB00001280CD1B28B6189208914F08DFA30B121896289481C82422AD0B28B1FE03878ED
:205ED00001280CD17A886189208914F07DFA30B121896289481C82421AD07A880FE0287883
:205EF000012815D16A886189208914F06DFA00281FBF2189481C6289824209D06A88824241
:205F100006D0501E608180B214F05AFA401EE0832878012801BF68882189491C884207D1D7
:205F30006A792A71002028701346A1790AF0C6FC4FF49A702044007920B10020E0832089C5
:205F5000401C608104F12E07B07E012801BFB08B2189491C884237D1608104F186012046D4
:205F700012F00AFFB08CE189608400202077E08360890818A0812189B08B14F021FAB988F3
:205F9000328C01FB0028708CF28C884204BF3B899A4202BFB18CFB88994207D0110900918A
:205FB0004208B38CA179002014F02EFAB07F3870708CB880B08CF880F08C3881204613F085
:205FD000B9F80220B07601E0B7F80480E08BDFF85892411C01FB08F140F6C41808FB01F21E
:205FF00000922268DDF800C0D3686344DFF83CC2D360DCF800C08E4A9CF800C013884FEA62
:206010009C1CBCF1030F12D199F80FC05FEACC7C48BF00230BD45B1C9BB2012B07D14FF411
:206030009A7CA444BCF806C00CF2DC5C01E0B4F812C00CFB01FC4FF4C87EBCFBFEFCDFF82E
:20605000F4A10CF1010CC4F814C04FF01C0B138084F82000A161A279DAF800102068C368BA
:206070000BFB02F20A4492680261A279D4F814C00BFB02F20A44A3EB0C039360A2790BFBB7
:2060900002F20A4492688260A0790BFB00F00844017B01F0F00141F002010173A179DAF885
:2060B00000000BFB01F1084400214180287908B913F0C2F8A179DAF800000BFB01F108445B
:2060D000297949080174A179DAF800000BFB01F10844002141742879042812D1A179DAF8A6
:2060F00000002A7A0BFB01F10844017C41EA82010174A179DAF800000BFB01F10844202197
:2061100041740022A079DAF800100BFB00F0084442824948A2790068D4F814C000EB4212A4
:20613000536903EB4C035361B27E022A07D1A2793E7800EB4212536908FB0633536199F821
:206150000F20D20740D5A2790BFB02F20A449368A3F5A8639360A2790BFB02F2114422682A
:2061700089689160009BC91A1161A17900EB41114A6902F5F6624A612979042906D1A17979
:2061900000EB41114A6902F5B0624A61A17900EB41114969C4F8341128490D6BBB88A279FA
:2061B0002D6808FB03F300EB42125B1BA3F51673D361A27900EB4210214A1278012A0EBFF2
:2061D0000121896A497818E0A279297900EB4212042952690CBF4FF44B614FF4E661511A4E
:2061F000BA8808FB02F2A2F516729142D4D30821204612F06AFD01200FE0C172A179DAF896
:2062100000000BFB01F108442168486007200D490870204610F04DFD0020BDE8F28F00BF4F
:20623000684E0020784F00205C4D0020084F0020B02F00208C2F0020902F002030B40100B3
:20625000734F00206F4F00202DE9F84FDA4DDFF86C832868DA4F807CDFF8689313F0CCFAD4
:20627000296804460020487104F12E0A286810F053F9012060711C2598F80100401C88F8B1
:20629000010080200CF054FE20607969C160CE4801894900AAF802105146C07940008AF84D
:2062B0000000BAF804004000AAF80400BAF808000001AAF80800204612F05EFD0520A081C4
:2062D000204612F037FF386814F076F8062210F8081FC1F3801184F82E11811C4FF49470C3
:2062F000204413F05BF93968B84F09680020087141F62202A1793868694342520022A17990
:20631000694301444A80A17969430844426099F80200400609D5AE48008841F20A41884281
:206330000CBFAC48AC48C4F89C012046D4F89C118847A27939686A4311448873A179386820
:20635000694308440021C173A179386869430844807B8AF80B0094F8960108B912F06CFF55
:20637000A17938689D4E6943084494F89611491E01740022A17938686943084400214174B7
:20639000A1793868694301444A82A179326802EB4112694301444A61A179694308449049FB
:2063B0008161A0790AF050F8A279316852018850A07940010A5822B90721204612F085FC09
:2063D000F5E008441F2202763068A179DFF814B200EB411000214176DBF80000A17900EB98
:2063F000011014F021F8A179DBF800203068DFF8F8B102EB011200EB41114A6004F16801F5
:20641000A27900EB421252680A60A279520182588A60DBF8141091F800C094F806E05FEAC1
:20643000CC714CBF102100215FEA8C724CBF202200225FEA4C734CBF402300235FEA0C7C92
:206450004CBF4FF0800C4FF0000C1143194300EB4E104CEA010141F00F0101723068A17974
:2064700000EB41100B2141723068A17900EB4110042181723068A17900EB41105B490978D8
:2064900001291CBFDBF828100978C1723068A179626A00EB4111CA60A17900EB4110A16AE2
:2064B00001743068A17900EB4110A16A090A41743068A17900EB4110A16A090C817408216A
:2064D0004B48007809F06CF82168A2793868CB686A4302449360CA680A61CA688A60A17914
:2064F00069430844017B01F0EF010173A179386869430844017B01F07F010173A1793868F6
:2065100069430844017B01F0F00141F002010173A179386869430844417B01F0F00141F0EC
:20653000010140F6C4134173BAF804203068A1795A43DBF830301B6800EB4111D21AA2F5ED
:2065500016724A61A17900EB4110C17C01F0F00141F00401C174A1793868694308442168DD
:20657000486099F8010080061BD54FF497702044408F1B2801BF4FF497702018808F1B2807
:206590000BD14FF497702044C08FB0F5A47F04BFB4F86E01B0F5A47F03D0142120460EF038
:2065B00079F8144908200870A07988F80200BDE8F14FFEF7BBBD00BF184F0020684E002054
:2065D000AC4B0020182F0020844C00208C2F0020504F0020C347010085550100902F0020DE
:2065F0005C4D00208C4E002030B40100734F00206E4F00206F4F00202DE9F04F0F46BD4C93
:206610000168616241688068ADF1140DA060BA4861608047B948616A01606168DFF8FC9209
:206630004160A168DFF8F0828160B549002FA246C16068D03D68E8788DF8080028798DF850
:20665000090002A813F0B4FEA86808B1AD490160E86808B1AC490160AC4C2878207068783B
:206670006070A878BE68A0703178E1707368636072696261B168A160F168E16031692161DE
:206690002E697B68A6621868A0616869E062A8692063287F84F834002A6AA2637868866882
:2066B0001EB9002012F0C8FD00E026627868C06818B9002012F0C0FD00E0606278684068C2
:2066D00018B9002012F0B8FD00E0E0612869A062F86881680E6806B98E4E8D494FF0010BD3
:2066F0004E60C66881F801B026B9002012F0A4FDF86801E041460E6000684D46FE68A86142
:206710007068E86105E0002012F096FD4FF0010B4D46D8F80000824944686A1C05F11403F6
:206730005020A04718B1D8F8000080688047DAF80400804703907B487C4C286100272771A7
:20675000B946E770784EA770300BC6B2401CC1B226703846617028E0304639466A460423BB
:2067700011F04AFA009BA078B3F5801F0ED043B9B9F1000F03D048460FF096FDA078B14635
:2067900010E030460FF090FDA0780BE0002804BF301CA67006D00FF087FD30460FF084FD58
