:2000000000400020695A010001C9011001C9011001C9011001C9011001C9011001C901109A
:1C00200001C9011001C9011001C9011001C9011001C9011001C901103FC9011089
:20003C0080B54FF4FC720FF278011A4810F0F6FB194800210170012141740221C17601BD0F
:20005C002DE9F0410FF25021144838220B684C688D68CE680F69D1F814C0D1F818E0D1F824
:20007C001C80036044608560C6600761C0F814C0C0F818E0C0F81C8020312030521EE5D1F7
:20009C004A688B68CC680968016042608360C460BDE8F081480400215903002100C000210F
:2000BC00410500217D0500212D06002170B51D46004C204787B2000010B5014800470000FD
:2000DC00D509000070B5614C6148254650358047022809D14034E1885E4A914204D1E97C5E
:2000FC00890601D4911DE18070BD70B557495A4A084650300378002B10D08379012B0DD181
:20011C00037C5B09DB0709D0097D544DC1746C7F20202043687790476C7770BDFF21C17420
:20013C00904770BD10B54E48484C804702280ED121464031CA88474B9A4208D1CA7C5209CE
:20015C00D20704D0227D920601D49A1DCA8010BD70B53E4843494030C07C4009C00707D032
:20017C003E4D41482C8B2043288388472C8370BD884770BD10B53B48344CAC388047214609
:20019C0053310A789309DB0705D04034A2730A7803231A430A7010BD2C4940310871182876
:2001BC0012D004DC0A280BD00B2804D10AE025280CD02A280CD02D4980004018C0687047DE
:2001DC002B4870472B4870472B4870472B4870472B48704770B504461C484E252D5CAE09AB
:2001FC00F60716D0067D3007000F052803D00120054202D00DE00220FAE7E80905D07006D1
:20021C0003D54868800F012803D05B085B0052085200062B03D01020022B11D011E0FB20F7
:20023C00024002232046FFF741FF002807DAC100611A2039497E1422114200D1002070BD93
:20025C00024303432046FFF731FF70BD4401002137CB000004140000EBC80000A800002142
:20027C00F5B4000053AD00002020000080DF00001D050021F9040021CD040021930400210F
:20029C006D04002110B5034CFFF716FF20680028FAD110BD0011044068610000F825F965B0
:2002BC00F9754500450045002600260057A3520052004C00401F401F401F3F000000000053
:2002DC00304000400140034007400F404F40CF40CF41CF43CF47CF4FCF3FCF2FCF1FCF0F6C
:2002FC00000000000000000000000F00080000003F00000040003F000000040068000E0093
:20031C00DC00060043001A00050000000000020000000000000000000400C00000000400B3
:20033C00C000000007000000000000000000000000000000000000003040004001400340A6
:20035C0007400F404F40CF40CF7FCF6FCF5FCF4FCF3FCF2FCF1FCF0F00000000000000009D
:20037C0050C00091007070C00091007082312100319110B10070018101B100A1823132910D
:20039C0010B101911110418141227740F106007051C0019130181039833108D01831416FD1
:2003BC003100319110B18314141683680070251050C00091F4C340C12014036F3110410497
:2003DC005082F0229840512622C082312100319110B163393110410482C08231210031919B
:2003FC0010B163393110A2C082312100319110B150101531051405920070676452C03110A6
:20041C0031066131C1026A6412C13110213971065131E1026A64007051C0019101CCE2C0CC
:20043C006A64676411C1C2C06A6450B054B0007140804022D6440022C94060B08180111EC9
:20045C00C944007054A064B0F0800022C9404012B09032B070C1DF6811C122C16A6470C1C0
:20047C00E46851C00191E2C0823160820200329110B130C2EE68538253395339B16460C347
:20049C00F4688012B09032B00070676401C122C16A6401C1C2C06A645382B164C012B09074
:2004BC0032B00070676472C281C06A6422C111C16A6402C011C16A6462C031C36A6462C3D2
:2004DC0011C16A6402C311C16A6453825339B164E2C36F6411221C4142C281C86A6452C24E
:2004FC0011C16A6472C2E1CE6A6402C281C86A6402C201C86A64B0C030690070676442C211
:20051C0001C86A6452C211C06A6472C2E1C06A6402C001C16A6462C001C36A6422C101C127
:20053C006A6462C301C16A6402C301C16A645382B16400708180111E5C4150B054B000712B
:20055C00408040225D4154A064B0F1800122514500700022514160B04E61000000000000AA
:20057C000000000000000000067305720B720E7250B00071818060B050A09280F0EFF1928C
:20059C0002936A6741228C458080F1C11004301601110114016CB561B661B761B861B9618D
:2005BC00BA61BB61BD61BF61C161C36126632D63F0C002043231412A121432160111211412
:2005DC00016CDA61C561E061C761CB61B561B561B561F461C561FA61C761CB61B561B56104
:2005FC00B561F461C561FA61C761CB61B561B561B561E761C561ED61C761CB61B561B56121
:20061C00B561CF61CF61CF61CF61CF61CF61C064CF61F964CF610665CF613265CF6174676A
:20063C00CF611166CF61C0644E65F964CF61066511663265CF618280E0DFF2926A67B0B044
:20065C00D661B1B00673057230B06C61D0CF6A6784C203C0C0C37C64207851788278E378B7
:20067C001579B6780062C0CF6A6784C203C0C0C37C64307861789278F3781579C678006250
:20069C00B0CF6A6784C203C0C0C37C6440787178A27803791579D678109221923292439281
:2006BC005492659256911FC0FF914039F00601101031101400927067CF61E3B054A0F08076
:2006DC0050221A4640800022BE461262E3A000C86091598150B0918041228E46A0CF6A6734
:2006FC0012828231823942398B641282F2062F101F312F141682D622334640C1346200C5AF
:20071C0020140D6F6D39DE10F4C34E0482C082312E006D39A2C082312D001A828A39FA0606
:20073C002082803180390BC00B18BC10AC18038239149B141082F0060110103110145181C2
:20075C0010140C14C622C94631D0C1266462021011C0013010C00118021882312100C126C2
:20077C00919103B013B063B053B041800122BE46B481C491D581B51C774E95186591F0803E
:20079C00102269428C623D9110B13E9110B1E08000228146E6228142E0B0951865910F926B
:2007BC005981F914F0805022114210228C464D6390CF6A6763B052A03082F2C0200402107E
:2007DC0011C0013010C00118021882312100C1269191919113B003B063B053B064B054B055
:2007FC00007141800122BE4663B064B0F08050221142B181C191D1819118619131B0A462D0
:20081C002967E0A059810582591480C0007163B0BA6A6962E3A0018262818231823D80EF61
:20083C00F19202936A6703A0007037824739873930828039F006021011C0013010C0011849
:20085C00021882312100C126819102B012B030824039F006021011C0013010C001180218E9
:20087C0082312100C126919103B013B063B053B0007153A062B052B041800122BE46A4816E
:20089C00C491D581B51CFE4E95186591F0801022F0428C62B481C491D4814518751C084FEB
:2008BC00F0801022F0428C623D9110B13E9110B1E08000221247E6221243E0B065910F92DC
:2008DC005981F914F0805022114210228C4630632967E0A0598105825914F0C0007162B038
:2008FC00226BF062A2808B64CF6112824239F2068B6050B00071CF6170CF6A674082418096
:20091C000122BE46A481C491D58195186591F18011228C46336B41800122BE46A481C491AB
:20093C00D581C51C1C4B95186591F08010223F438C6260CF6A67408241800122BE46B48169
:20095C00C491D58195186591F18011228C46506B41800122BE46B481C491D581C51CB44A55
:20097C0095186591F08010225C438C62E092D08200226B47C0B20070A080F022874330B033
:20099C0002C1623101C0A080001E8043F022814380F86031603981632010101A136F236E5A
:2009BC0011161216826B00702DE9F84FDFF81885DFF8181588F80000002008600921DFF891
:2009DC00100501700D2141804FF408718180DFF80405DFF8041501608A7EDFF80005027042
:2009FC00FF2ACB7E437008BFFF2B0D7F85704E7FC6708F7F0771C97F417115D1FF2D08BFE8
:200A1C00FF2E11D1FF2F08BFFF290DD1DFF8D0140A7802704A7842708A788270CA78C27025
:200A3C000A79027149794171DFF8B81402780A70FF2542784A7082788A70C278CA7002791E
:200A5C000A7140794871DFF8A014DFF8A004057045708570C5700571457100200880DFF888
:200A7C009014DFF89004466B70780870DFF8881430780870DFF88414B0780870DFF880142D
:200A9C0070690079401E0870DFF87814F0780870DFF87414B069086008B917F0E5FDF069EC
:200ABC00DFF86844206008B917F0DEFD2068DFF86074006880472168091D384609688847A5
:200ADC00DFF85004DFF850143862DFF850047862306A086008B917F0C7FD706ADFF8401462
:200AFC00086008B917F0C0FDDFF838B4DFF838649BF8040018F090F9306008B900F046B94F
:200B1C009BF80500DFF8247418F086F9386008B9306838E19BF80600DFF8144418F07CF9DC
:200B3C00206020B9306818F07FF938682BE19BF80700DFF8009418F06FF9C9F8000038B955
:200B5C00306818F071F9386818F06EF920681AE1DFF8A41309789BF80000DFF8DCA3C91C00
:200B7C00484380B218F058F9CAF8080058B9306818F05AF9386818F057F9206818F054F9A0
:200B9C00D9F80000FFE0DC480078010000F00381BBF80210DFF8A4B3484380B218F03CF98B
:200BBC00CBF8040078B9306818F03EF9386818F03BF9206818F038F9D9F8000018F034F9A7
:200BDC00DAF80800DFE0CC48007818F025F9DC49086098B9306818F027F9386818F024F94B
:200BFC00206818F021F9D9F8000018F01DF9DAF8080018F019F9DBF80400C4E0BE48007853
:200C1C001C21484318F008F9CE490860B0B9306818F00AF9386818F007F9206818F004F927
:200C3C00D9F8000018F000F9DAF8080018F0FCF8DBF8040018F0F8F8C148A3E0AE48007827
:200C5C00400118F0E9F8C0490860D0B9306818F0EBF8386818F0E8F8206818F0E5F8D9F80B
:200C7C00000018F0E1F8DAF8080018F0DDF8DBF8040018F0D9F8B248006818F0D5F8B148E0
:200C9C0080E09D480078000118F0C6F8AF490860F0B9306818F0C8F8386818F0C5F820685E
:200CBC0018F0C2F8D9F8000018F0BEF8DAF8080018F0BAF8DBF8040018F0B6F8A048006856
:200CDC0018F0B2F89F48006818F0AEF89E4859E089480078000118F09FF89D49086010BB28
:200CFC00306818F0A1F8386818F09EF8206818F09BF8D9F8000018F097F8DAF8080018F0F4
:200D1C0093F8DBF8040018F08FF88D48006818F08BF88C48006818F087F88B48006818F0F8
:200D3C0083F88A482EE0744800783021484318F073F88849086070BB306818F075F83868A8
:200D5C0018F072F8206818F06FF8D9F8000018F06BF8DAF8080018F067F8DBF8040018F0B2
:200D7C0063F87748006818F05FF87648006818F05BF87548006818F057F87448006818F04D
:200D9C0053F87348006818F04FF8002017F06CFC4FF4804192E03168012008710022306888
:200DBC00057330684573306885733068C573306805743068457400203168C8723168487148
:200DDC00A0213068C180032101720720316848720020316888722821306841820121C1769C
:200DFC00002031684877316881F85E00012031680877316881F85D00396808713868057315
:200E1C0038684573386885733868C573386805743868457400203968C87239684871396886
:200E3C0088724FF420703968C88008818A7401213A68D17421680D7321684D7321688D7375
:200E5C002168CD7321680D7421684D7400212268D172012122681171002122685171216847
:200E7C00C8800881002088722168887405202168C8743948006880470546294800680068C0
:200E9C00804727490968091D00200968884719481C49C06809780088084330490880284657
:200EBC002F49096888470C212E4800F05DF80F4800F05EF800F060F84FF4005198F800006D
:200EDC00BDE8F44F0EF044B86E4F0020044F0020604E0020084F0020B63F00502C4E0020A0
:200EFC00E81200503C4E00200C4F0020344E00206D4F00204CA801007B4F00206B4F002030
:200F1C00724F00206C4F0020F04E0020F44E00207C4B0020358E0100F84E0020458E010054
:200F3C00FC4E0020101B0020104F0020002E0020184F0020042E0020CC2D0020684E00204B
:200F5C00004F0020FC290020FC2D0020884E00208C4E0020904E002070140020544F002023
:200F7C0074140020F84D0020DFF800F0E5710110DFF800F01D6E0110DFF800F04D71011021
:200F9C00B0B5174C241D20680004070C23D01248006800688047114991F90720824205DDF8
:200FBC0010F1800FB8BF6FF07F00C8718D88BD4210D80A68D4F8D40F801A801C1F2888BF16
:200FDC001F207F1B4008C7404FF6FF70EF19B84238BF071C8F80B0BDEC010010F42D002043
:040FFC003010094068
:20100000B41200001810000015AB0110FDB301106DC00110FDAE011099B5011000000000F7
:08102000000000002F00000099
:20102800B01200003C100000B1C00110A9BF011067C0011069B80110000000000000000035
:041048002D00000077
:20104C00B012000060100000BDC00110CDB30110D9BD01106DB3011000000000000000005B
:04106C002E00000052
:2010700000000000401B002004000000000000000000000020000000E8C9011030000000CF
:2010900028100000481B00200400000000000000000000000C000000D8CA011018000000AA
:2010B0004C100000501B002004000000000000000000000024000000F0CA0110180000002E
:2010D00000000000581B00200400000000000000000000001000000018CA01102C0000003A
:2010F00000100000601B0020040000000000000000000000200000006CCA011024000000A6
:20111000FFFFFFFF681B00200400000000000000000000002800000090CA01102400000065
:20113000FFFFFFFF701B00200400000000000000000000001400000008CB011018000000E4
:20115000FFFFFFFF781B002004000000000000000000000058000000B4C9011034000000B2
:20117000FFFFFFFF801B00200400000000000000000000001000000020CB01101800000080
:20119000FFFFFFFF881B00200400000000000000000000001C000000B4CA011024000000AD
:2011B000FFFFFFFF901B00200400000000000000000000003800000044CA011028000000D5
:2011D000FFFFFFFF981B00200400000000000000000000005400000078C901103C0000004A
:0811F0000100000010A801003D
:0411F80001000000F2
:0411FC0000000E00E1
:0412000000000F00DB
:0412040032000000B4
:0412080001000000E1
:04120C009019002015
:0412100000020000D8
:0412140000000000D6
:0412180001C90110F7
:04121C0000000000CE
:0412200000000000CA
:0412240008000000BE
:04122800000023009F
:04122C00381800204E
:0412300001000000B9
:04123400A8190020D5
:0412380008000000AA
:04123C005019002025
:0412400000000000AA
:0412440000000000A6
:04124800080000009A
:04124C00000000009E
:04125000000000009A
:041254000000000096
:041258000000000092
:04125C00010000008D
:04126000A0180020B2
:041264000600000080
:041268000100000081
:04126C00E416002064
:04127000000000007A
:041274000000000076
:041278000002000070
:04127C00000000006E
:02128000290043
:02128200010069
:02128400250043
:021286002D0039
:021288002E0036
:02128A002F0033
:02128C0001005F
:01128E00015E
:0812900003000000BCA70100EF
:0812980000000000000000004E
:0412A0000000010049
:0412A4000000030043
:0412A80013C401105A
:0412AC00D98B0100D9
:0412B000B812000070
:0412B400B81200006C
:0412B8000000000032
:0412BC00A81900204D
:0412C000618D01003B
:0412C4002000000006
:0412C80020A701005A
:0412CC0048A601002F
:0412D00029C101101F
:0412D4008F71010015
:0412D800EF760100AC
:0412DC00A1C7011095
:0412E000A3C701108F
:0412E4000000000006
:0412E80043A7010017
:0412EC0044A4010015
:0412F0005CA40100F9
:0412F4002CA4010025
:0212F8000200F2
:0212FA000900E9
:0212FC000100EF
:0212FE000000EE
:0113000001EB
:04130400E18C010077
:04130800796C0100FB
:04130C00A9800100B3
:041310006170010007
:041314005D71010006
:04131800B16C0100B3
:04131C00012C01009F
:041320000B8F01002E
:041324001D43010064
:0413280015C70110D4
:04132C0025C70110C0
:201330002DE9F04FC94C201D04F12001ADF1340D13F0F4FC04F168050021284618F0EEFA2D
:201350006562B24D05F1180005F10C010FF0BAFAAF49A86017F002FEAE4EA8684FF4E0219C
:201370003246521E15F022FDA8684FF4E021324615F01CFDA84EA8684FF0C0513246521E29
:2013900015F014FDA8684FF0C051324615F00EFDA24905F12400C822002314F047F9A04801
:2013B000002168604FF0804012F06EFE9D4E206121211E22304616F0CBFC9B4800214FF64D
:2013D000FF7216F0C5FC994800214FF6FF7216F0BFFC974800214FF6FF7216F0B9FC9548FE
:2013F00000214FF6FF7216F0B3FC2769924D4FB13046067936B103212970AF600021E960D0
:2014100015F016FC04F1500004F15C010FF05AFAE06108B918F07EFA884904F1E00064220D
:20143000002314F003F9864904F582704FF47A72002314F0FBF8834904F594700722002361
:2014500014F0F4F8804E10200622A023314609F02FFD10200722A023314609F029FD102025
:201470000822A023314609F023FD10200922A023314609F01DFD10200A22A023314609F0A8
:2014900017FD10200B22A023314609F011FD102002224FF4FA63314609F00AFD3146102078
:2014B0000C22502309F004FD314610200D22502309F0FEFC314610200E22502309F0F8FC0E
:2014D000314610200F22502309F0F2FC102031465023024609F0ECFC31461020112250233A
:2014F00009F0E6FC314610201222502309F0E0FC314610201322502309F0DAFC3146102019
:201510001722502309F0D4FC314610201822502309F0CEFC314610201522082309F0C8FC69
:20153000314610201622082309F0C2FC3146102019224FF47A7309F0BBFC314610201A2235
:20155000002309F0B5FC207916F0CAF8D4490246102009F0ADFC002080468DF82500012164
:201570000DF12502ADF81A8040F2053009F0C2FF40F2063002210DF11A0209F0BBFF04F189
:2015900080024FF442700F2109F0B4FF04F1A40240F20730182109F0ADFF0F2001210DF1B7
:2015B00026028DF8260040F2044009F0A3FFCF4F04F14000CE4EB8613078A072387816F03F
:2015D0008FF80246F87A07F134030090C949019307F14403029307F1140303937B781020B9
:2015F00009F066FCA17A480000EB011080B210F049FBA06260B3A77A5FB34FF6FF713B462D
:201610005B1E20F8121BFBD123E0C04630170020396701000E0005800E000010058C0100DC
:20163000C9890100FC1700200015002098160020001600204C160020281A0020AD8D0100BC
:20165000BD8D01009D8D0100BD84011008020020A77AF80010F016FB0746276357B1A37A62
:2016700043B14046F8803870B88078805B1E07F10807F7D104F18F00B54900904246152376
:20169000102009F015FCB34910204FF0FF3209F00FFCB14910204FF0FF3209F009FC102098
:2016B000AE4F0090AF4AAE48132339460190102009F0FEFB3078800010F0E4FAAA4A0146F5
:2016D0009246916069B14FF6FF7015F03BFBD34910200AF11402009014230191394609F0FA
:2016F000E7FBDFF83C931020494609F0E1FBD3491020042209F0DCFB012702264FF0040BDE
:201710008DF8277003208DF82860CD498DF82AB007AB8DF8290040460A6809791A600DF1A6
:201730002702197139460DF0B9FB0AAA384601460DF0B4FB0DF12902304639460DF0AEFBCD
:2017500003200DF12A0239460DF0A8FB052107AA58460DF0A3FB04F13400CAF8040049467F
:20177000102009F0A5FB207915F0BAFFCC490246102009F09DFB207915F0B2FFC949024672
:20179000102009F095FB8DF82C703B468DF82E7030460DF12B078DF82D804FF480628DF839
:2017B0002B00C14E00971020314609F081FB0BA840F20242012300903146102009F078FB3C
:2017D0000DF12D0040F20342012300903146102009F06EFB0DF12E0040F206420123009040
:2017F0003146102009F064FBC54904F14802102009F05EFBC349102009F05AFBDFF808B3EF
:20181000BFE05FEA1830C0F0BC806069002828DDBE4E02280CDB06F11901401E96F9182053
:2018300091F918309A42B8BF0E1C1931401EF5D1B0780090F0780190307902907079039073
:20185000B0790490206918210022C4A316F015F9B11C01200DF01EFF01201421C9A3E07042
:201870008BE0AA4800210A2210F089FE00206061B64837E0A07810B1401E63D081E02069DD
:201890005FEA182138D25FEA98210BD25FEA582077D3E0690721002214F062FF71E0C04673
:2018B0005188011011210022BEA316F0E6F8E0690621002214F054FFA07948B116F054FC44
:2018D000297820690022C9A3091DC9B216F0D5F8206910210022334616F0CFF800200DF08D
:2018F00049F9C74817F023FC4BE0C04678080020694F0020253A010010210022C5A316F097
:20191000BCF8206933461121002216F0B6F8206912210022334616F0B0F8E0690621012261
:2019300014F01EFFA07901282BD015F0F1F9297820690022C4A3091DC9B216F09EF8012039
:20195000A0711EE017F0E2FF17F0DCFF19E0C046851B0100598201001586010037760100D8
:2019700098A70100A40E0020541100205FEAD82007D30020C2A3E07015212069002216F0E9
:201990007CF8206AC64A00214FF0FF3317F0B6FF5FEA0008F5D00020059009A905AA06A801
:2019B00015F070FB002855D1BDF81800012710284BD120799DF82410884246D105980188A7
:2019D0004FF6FF728A423DD14088C0083DD3E66A002E3AD0607906F10803401C6071C84926
:2019F000009372883379102009F062FA5FFA80F9B9F1160F16D02079B9F1040F12D0E66A0A
:201A100015F06EFE03460020CA4900907288102009F04EFA484611F0B1F816E0A4A7010054
:201A30004D0F010060790090297820690022C3A3491DC9B216F021F807E0C046398901006E
:201A5000CAA7010000F0F2F90746059810B10FB117F04CFB5FEAD870C0F0488140E1606A7B
:201A7000064617F047FF864208BF002702D0876815F04CFE381C00F03381216938882E780F
:201A90008946401E00F02381401E00F0D080801F3ED008380AD0103800F004811DE1C0464F
:201AB00031810110C18F01009D7200007868837803B3012B15D0022B0DD0032B40F0A680C3
:201AD000C378002B08BFA1A315D00188A6A30091C278019211E0C378002B40F09780A9A386
:201AF00009E0C278002A08BFACA304D00088B1A30090EEE7B4A300880090F61CB9E0C0463E
:201B10008D840100C5AB001040E20100A403002078680078010951D2400977D30E2017F0EC
:201B300073F8002872D16868697803790A46934236D0FF2A6AD000EBC203DE6846B900EB24
:201B5000C100006915F074F860E0C0463003002000EBC20003690846984757E05065657238
:201B700020616464723A20307825782C307825782C307825782C307825782C307825780A2D
:201B900000C046C0446972656374206164766572746973696E67207374617274656421001C
:201BB0008068CFE754696D652073796E632068617320737461727465642100C00D2017F083
:201BD00023F818BB69686878097981421AD0FF281CD0401CC0B215F021FAFF2802D100200C
:201BF00015F01CFA68700BF047FE0FE0446973636F766572792043616E63656C6C65640060
:201C10000C030020002015F009FA6870786815F07DFD62E053746172746564205061737356
:201C3000697665207363616E6E696E67210078680378A3B19B1EEAD102200DF12F0114F047
:201C5000B3FB67A311E0C046506173736976656C79205363616E6E696E672E2E2E0000200A
:201C70000DF12F0114F0A0FB60A39DF82F00761D0090F1B24846002215F0FFFEC6E7C04695
:201C9000446972656374206164766572746973696E672074696D6564206F75742100C04647
:201CB000FF0F00C0D7F804A0F61C4846002252A3CDF800B0F1B215F0E0FECDF800B059490A
:201CD000BAF80A201020002309F0F2F89EE7786800F0ACF8786817F009FA384615F016FD69
:201CF000606A17F003FE00283FF4B9AEE07812A640B1401E3FF43AAE801E3FF4BBAD40E667
:201D1000DDFE0010E0695FEA1821FFF47AAD0621012214F025FD002001460DF0BBFC4248CE
:201D300017F005FA20691421002237A315F0A5FE334621E6478D010000C046C052737020BB
:201D500073656E642072657472793A0043786E20256420626F6E642073617665207375636A
:201D70006365737300C046C043786E20256420626F6E642073617665206661696C65643ABC
:201D90002025640043786E20256420626F6E64696E67207375636365737300C0636F6E6E30
:201DB00048616E646C652025642070616972656400C046C070616972696E67206661696C1D
:201DD00065643A20256400C0636F6E6E48616E646C652025642070616972696E6700C046D4
:201DF0004368617220333A20256400C04368617220313A20256400C050617373636F6465BB
:201E10003A20256400C046C04164766572746973696E67206F6E6C79207363616E6E6162B1
:201E30006C65210091710100300300202DE9F04F05460120ADF12C0DA24C099028789138C2
:201E500000F07683DFF88092DFF804831F3800F0CC82203840F0E9834846294606780890A6
:201E7000D4F81CA0256988780A91002800F09082401E00F0E981801E00F06082401E00F001
:201E9000CB81DFF8D092401E00F0E080401E61D0401E00F04B82801F40F0C7830846657811
:201EB000C078002840F0C183084690F804900F2D00F1050880F2B98375B104F526772E46BC
:201ED00040463946062216F09FF8002800F0AD83761E07F11907F3D143461E689B88192104
:201EF00004F2962069436D1C07464218921CEDB21660091993800A9881F8979200696570D0
:201F1000C67AEEB9A669DDF8288008F1050886B97DB13E46BF1C40463946062216F074F8CD
:201F300030B16D1E06F1190607F11907F3D100E0A661206A4FF4007117F0D4FCD4F81CA0AF
:201F5000099A5046072114F00BFC04F1E00017F0EEF86AE350460721002214F001FC0A9D6E
:201F7000687808990090097820690022D0A3491DC9B215F082FD1020414608F099FFC7B27C
:201F9000A88815F023FDE081A17A814240F34D83A26A41004FF6FF7301EB0011099E53524D
:201FB000226B0025C30006FA00F0D118D55482B2CD804846294615F0CBFEE08906FA00F0F5
:201FD00082B2C348294615F0C3FEE0898640C1482946B2B215F0BCFE47B9D34829461C22EB
:201FF00015F0B6FE04F1BC0017F0A3F8DDF820A0D4F810909AF800601020414608F058FFCC
:20201000761C00902A46CEA3F1B2484615F035FD20699AF800102A46CDA3091DC9B215F094
:202030002CFDA07A401EB84240F0FF825646317820692A46CAA3891CC9B215F01EFD3678AB
:20205000CCA3761D20692A460546F2E008464778002F40F0D180361D28460022C9A3F1B2A9
:2020700015F00BFD0898266905784146102008F01FFF6D1C00900022B1A3E9B2304615F025
:20209000FCFC4FF0000884F80780DDF828C0A77ABCF80AE00CF1040C87B1A56A3A46464612
:2020B00041464FF6FF70123D35F8123F98420DD0521E06F1120601F10101F5D19A4D1526F6
:2020D0003FE0C04608020020281A0020A5F800E00F46604612F09AFEAD1C01460F2228467E
:2020F0000EF0A2FB09984246B8401FFA80FA4846514615F02DFE4D46DFF8D491424651463E
:20211000484615F025FEDFF8CCB142465146584615F01EFEA06AFB0036185919B61C03EB42
:202130000902814DCE60E888D66003EB0B01CE60400904D228461C21424615F009FEFEB2AC
:20215000A77A0349102008F0B3FE874216D803E0F17F01109816002009998DF81E8040F249
:2021700005300DF11E0209F0C5F90899206909784246C8A3891CC9B215F07FFC0899A36A59
:2021900009782069720002EB0612491D9B18C9B242469B1C15F071FC284614F049FD0A980F
:2021B0004089054615F012FCE081A17A814208DD226B0999C00011548018A0F80480A0F824
:2021D0000280A089001FADF81400207915F088FAC14900902A4605AB102008F069FEBF49FB
:2021F000102008F065FE099DE06907212A4614F0B7FA2846A07018E2361D28460022BCA34E
:20221000F1B215F03AFC0A984078089F00903878BBA3401DC1B2DDE1A57A4146102008F0D5
:2022300047FE85420AD8484625690678B7A3B61C0022F1B2284615F020FCF6E14846256993
:20225000067847A3B61C76E00020A07106210022504614F085FA0A98C078F8B1324802212B
:20227000002215F075FD099EDFF8C0A204F2962800254FF0190BB1460A98C078A8422BDCD7
:202290000E2D0BDA4E4606FA05F082B20021504615F05EFD6D1CEDB20E2DF4DB0A98C0782E
:2022B000089F00903E78CCA30025361DCAE6C046526561736F6E20636F646520666F7220DA
:2022D000646973636F6E6E6563743A20256400C0001600204C1600200A984068EF003918DF
:2022F0004B780BFB05F202EB08067370C05D891C08F802000A68B01C02608988818012F0B8
:2023100085FD083601460F2230460EF08DFA574409FA05F0002281B2FE60504615F018FD84
:202330006F1CFDB2A8E7C046FC1700200846C078C2A3361D0090F1B200227BE7C3A376E7D3
:20235000436F6E6E656374656420746F20256400446973636F6E6E65637465642100C04634
:20237000526561647920746F2041647665727469736500C0526561647920746F205363619F
:202390006E00C046436F6E6E65637465642100C00F467889A081F81C12F038FD03463146C3
:2023B0000022284615F069FB4D46297820690022A9A3491CC9B215F060FB2978206900225D
:2023D000A9A3091DC9B215F058FBF81C994902680A6040684860099A9749102008F068FD7E
:2023F000206A802117F07EFA1FE169782079162913D049462A79206909787E2A04D07F2A26
:2024100017D12A899BA301E02A7A9EA30092091D0022C9B215F031FB0BE015F061F90346F4
:202430000420C34900906A88102008F041FD002856D04146102008F03BFD002845D0688812
:2024500015F0C4FAE0812A790B2A2DD0012A02D1297A0A2928D0132A0DD0012A02D1297AEC
:20247000122908D0216B11F8300000282DD028460AF0E2F829E0494620690978012A07D069
:20249000227A84A3521CD2B22272521ED2B216E084A313E043616E2774206164763A206E0F
:2024B0006F206C696E6B7300494620690978012A03D0EA6812787FA301E082A32A7B00928A
:2024D000491D0022C9B215F0D8FA297905F1080017F004FAA9E0C046B96A0100F17F011039
:2024F000099810F04BFBE562002009909DE0C046436F6E6E656374204661696C656400C073
:20251000526561736F6E3A20256400C043616E277420416476203A204D617820636F6E6E4A
:2025300073207265616368656400C0460015002068780E3859D0801E73D02E3875D1A878F5
:20255000802872D120691421002262A315F095FAD4F81490A846B9F10A0F66D0B9F1000FF7
:2025700008F105060DDD04F5CF754F4630462946062215F049FD002857D07F1E05F1190533
:20259000F4D13268192000FB094000F5CE70811C0A60B7888F8098F80B10C17598F90C1039
:2025B000017698F8041041703078009070780190B0780290F07803903079049020694BA325
:2025D0000022172115F059FA60691521401C606151A300902569AFE6446576696365732093
:2025F000466F756E6420256400C0A88842F2030181421AD1A9680878B8B9491C0DF11600D5
:202610000A68496802600DF116074160387849490DF1160200F0FD003870102008F048FC10
:2026300003E00820002107F04FFF09980BB0BDE8F08FC0460F0E0020897D010050617261CB
:202650006D20557064617465202564004164766572746973696E6700436F6E6E6563746522
:202670006420746F203000C0496E697469616C697A6564004D54552053697A653A202564C9
:2026900000C046C046432056696F6C617465643A2025640057726974652073656E743A2061
:2026B000256400C05772697465204572726F7220256400C052656164207273703A2025644F
:2026D00000C046C052656164204572726F7220256400C046466F756E642061207363616E8D
:2026F00020726571756573742100C046667572737474205065657220616464723A20307869
:2027100025782C307825782C307825782C307825782C307825780A004E756D207363616E49
:202730002072657175657374733A20256400C046478D010095B400102DE9F04F0F4685B0F7
:20275000804617F8010B8DF800004FF4B07008EB00044FF49C7008EB00059DF800104FF47A
:20277000C67008EB0006182908F1E70A08F1660908F20D1BDFF86C0700F2A183DFE811F03D
:2027900019007200660194009F039F03FD007903140127010101100138019F039F03840194
:2027B0009F0368015C018503E402E40236029F03810217F8010B88F886000222394608F133
:2027D000880017F087F80146022208F18A0017F081F80146022208F18C0017F07BF80146BC
:2027F000022208F18E0017F075F8074698F88600400088F8860008F1860108F186000222DE
:2028100040884000488008F1860080884000888008F18600008900010881394608F184007B
:2028300017F058F808F10601B9F81E004988401A80B247F6FF7188422BDA08F1860008F111
:202850008601C0888988401C4900484308F186010989884228BF3B2080F04082012089F866
:202870001C001CE00522394608F1610017F032F80146022208F1920017F02CF808F186005F
:2028900008F1060180894988401A80B247F6FF71884280F2228208F186010120887208F1A1
:2028B0000601002008834CE29AF81600C0070AD41A208AF80E009AF80D00012808BF0D2154
:2028D0003FD00D21D7E1002089F8000089F80600082201208AF81100394608F1B00016F0BF
:2028F000F9FF0146022208F1B80016F0F3FF08F1A80401460822204616F0ECFF07460821D9
:20291000204616F0E3FF08F19C0404223946204616F0E0FF0421204616F0D8FF08F1A000CF
:2029300016F0D0FF08F1980016F0C8FFDFF8B805018841F0800101809AF80D00012806D165
:202950000421404605B0BDE8F04F13F0CDBF99F81000012804BF99F811000F280BD14046CC
:2029700011F0B4FD0421404611F072FA0F2089F81A00FD217FE104217DE101208AF80F0000
:20299000ACE2002089F8000089F806008AF800000B2101208AF80D0000208AF801006AE125
:2029B00001208AF8100099E2002142187B5C547A23437B5452781A4008EB0103491C0829D3
:2029D00083F8FD20F1DB404611F01EF97CE2002142187B5C547A23437B5452781A4008EB1B
:2029F0000103491C082983F8FD20F1DB022053E299F8060008B93D2070E19BF800000128B0
:202A1000D1D017F8010B8BF8030002224FF489703946404416F05EFF01464FF48A700222F6
:202A3000404416F057FF01208BF800009BF8020000281BD10C211EE19AF81600C00601D4EA
:202A50001220D9E0404612F081FA3DE2387845E1387820707878607099F8100001280DD1DB
:202A700099F811000F2802D0162803D036E20120687333E2307B40F001001EE205B0BDE82B
:202A9000F04F002015F0F6BD9AF81600810706D41121084201D10F20AEE01A2254E03878DA
:202AB000797800EB01202882F978B87800EB012068827979387900EB0120A882F979B8794C
:202AD00000EB0120E882387A2876B97A787A00EB01206883397BF87A00EB0120A883B97B73
:202AF000787B00EB0120E883397CF87B00EB01202884B97C787C00EB01206884397DF87C31
:202B100000EB0120A884B97D787D00EB0120E8844FF4AA7040440490688B0390287E029097
:202B300008F1060040880190E88A0090AB8A6A8A298A40460FF074FF68B19AF8160040074F
:202B500001D40F2058E01E22404605B0BDE8F04F0F2113F065BC688A08F186018880A88ACA
:202B7000C880E88A0881022088F886000020488008F1060108F10600C08DC01DA9F81E000A
:202B900008F18600898D808888420FD108F1860008F10601C088C98D884207D108F18600A0
:202BB00008F106010089098E88421DD099F81000012804BF99F811000F2807D099F815004B
:202BD00020B10F2089F81A00FE2154E0FC21404611F03EF9E88A0090AB8A6A8A298A98F8AE
:202BF000060016F067FE79E1102144E09AF817000921084203D116208BF80C0061E17978BC
:202C1000387801F00701084038700146707B0840F07212D0411E08420DD0400703D5B07B7D
:202C300008B1042003E0F17A0220014201D0F07201E04008F9D1F07A08B9B07AF072F07AAD
:202C5000042803D1404612F048FAA083F07A16F02DFE3071A28BB17B012313F071F901460A
:202C7000208B884205D3A28BB17B3079012313F067F970801721404605B0BDE8F04F11F026
:202C9000E7B878783978814207D100F007000840387034D0421E10420FD01E2218214046CE
:202CB00013F0BEFB98F80610002300221E200DF03FFB307B40F04000FFE0F072F978B878EB
:202CD00000EB0120308108F1060130894988401A80B247F6FF71884206DB28208BF80B00E3
:202CF00001208BF80A00F9E00120B071F07A042803D1404612F0F1F9A083F07A0BE099F816
:202D10001100162806D1B27A98F80610134600200DF00EFBB07A3071A28BB17B307901233B
:202D300013F00EF90146208B884205D3A28BB17B3079012313F004F97080307B40F04000B4
:202D5000307301202870C9E03878797800EB01206082F978B87800EB0120E082797938791D
:202D700000EB01202082F979B87900EB0120A082A18AE089884288BF0846B17A042904D1A4
:202D9000B0F5296FD8BF4FF42960E28BE0839042B07A14BF4FF001094FF00009042803D153
:202DB000404612F09AF904E0A089E18A884288BF0846A28BA08390422089628A238B14BFD9
:202DD00001210021904288BF1046984241EA090114BF0122002242EA01052083A28BB17BDC
:202DF0003079012313F0ACF80146208B884205D3A28BB17B3079012313F0A2F8708061891E
:202E1000208A628B814288BF01466183914214BF0120002005438A42344998F80620096837
:202E300001EB4211628B8041121DC00F0A7610B1404614F009F89DF80000142810D145B123
:202E5000E08B0090638BA28B218B98F8060016F029FD404605B0BDE8F04F15210EF07ABD54
:202E70001DB1307840F008003070307840F020001BE038780E280ED00F2809D0122804D01F
:202E900014280CD0162812D028E00020287225E00120287322E003208AF815001EE0307805
:202EB00040F00200307040F01000307016E0307B40F00200307340F0100030730EE08BF886
:202ED0000C10404611F08EFC40B905B0BDE8F04F074800784FF480410CF040B805B0BDE80A
:202EF000F08F00BF882D0020524F0020FC2D00206E4F00202DE9F04F0D4685B0814615F817
:202F1000010B8DF800004FF49E7009EB00064FF4B0709DF8001009EB00044FF4C670891EA5
:202F300009EB0007152909F20D1B09F1E70809F1060ADFF8680700F29C83DFE811F00F0103
:202F50009A031600440048007A039A03C3009A037D00D600810088001701E901280204011B
:202F70008403E802E8022F02A00209F1A00608222946304616F0AEFC05460821304616F0C4
:202F9000A5FC09F1980404222946204616F0A2FC0421204616F09AFC00214842484409EBF9
:202FB000010290F89F0082F8BF00491C0829F4DB09F1C702314609F1D70016F06FFC01209C
:202FD00088F8000066E3012088F8130062E398F80D1098F81600012900F010000DD130B1E3
:202FF0000020707130684108B07910F013FC9AF80000002116F04EFC11E050B14FF4A1705E
:2030100009EB0003306842084946DFF8940616F005F89AF800000122002116F037FC012094
:2030300089F86600484612F026FE09F166010120887188F80F002DE3012088F8100029E30E
:20305000287888F80E00012088F8140022E398F8121001291DD198F8001001294DD098F837
:203070001610090704D40E208BF80C00072100E2002142186B5C567A33436B5452781A4000
:2030900009EB0103491C082983F8FD20F1DB0921EFE198F81610090758BF0E2058D50021DB
:2030B00042186B5C567A33436B5452781A4009EB0103491C082983F8FD20F1DB484610F036
:2030D000A3FDDDE2002142186B5C567A33436B5452781A4009EB0103491C082983F8FD20F0
:2030F000F1DB022088F81500D4E298F81200012804BF98F80000012806D13D208BF80B007E
:2031100001208BF80A00C5E29BF800000128FAD015F8010B8BF8030002224FF48970294656
:20313000484416F0D7FB01464FF48A700222484416F0D0FB01208BF800009BF802000028B5
:20315000E1D10C2195E198F81600C00658BF122040F19182484611F0F9FE91E228788BF8F5
:203170000B00F02100208BF80A000AE198F81600810707D41121084208BF0F2000F07B8223
:203190001A22F6E009F16601097C012902BF09F16601497C0F2911D009F16601497D0A00CC
:2031B00003D009F16602527C22B109F16602127F012A05D1400758BF0F2064D52322D8E072
:2031D00021B109F16601497C012904D009F18601897A012905D1400758BF0F2053D52A2264
:2031F000C7E02878697800EB0120B081E978A87800EB0120F0816979287900EB012030821B
:20321000E979A87900EB01207082287A3075A97A687A00EB0120F082297BE87A00EB012041
:203230003083A97B687B00EB01207083297CE87B00EB0120B083A97C687C00EB0120F083F6
:20325000297DE87C00EB01203084A97D687D00EB012070844FF4AA7048440490F08A0390FF
:20327000307D0290BAF802000190708A0090338AF289B18948460FF0D3FB38B198F81600D4
:20329000400758BF0F2040F1F68171E0F08909F186018880308AC880708A0881022089F86E
:2032B00086000020488009F16601BAF82E00C01DC88309F18600BAF82C108088884201BF27
:2032D00009F18600C088BAF82E10884206D109F18600BAF830100089884217D009F1660079
:2032F000407D28B109F166010F208876FE21C0E0FC21484610F0ACFD708A0090338AF289C5
:20331000B1899AF8000016F0D5FAC3E10021B0E0A878E97800EB01262879697900EB012481
:20333000A879E97900EB012705F10B000490A3B2687AA97A00EB012080B20390B2B2287A21
:203350000290BAF802000190B8B200906978287800EB012081B248460FF062FB58B198F849
:203370001600400758BF0F208DD5484611F0AEF81E220F2134E009F1860000218680C48094
:203390000781484605B0BDE8F04F13F0ADBA2878207068786070012070727BE198F817001E
:2033B000C00758BF162040F1668109F16600407C16281ABFBA79012A232210D0002818BF1C
:2033D00001280BD00F281EBF09F16600007F01281EBF09F18600807A012807D12A221621E2
:2033F000484605B0BDE8F04F13F01AB86978287801F0070108402870797B08401CBF411EF1
:203410000842F8720DD0400703D5B87B08B1042003E0F97A0220014201D0F87201E04008BD
:20343000F9D1F87AB97A884204BF0020F872F87A08B938811CE0BAF82E00C01D3881F87A26
:20345000042803D1484611F048FEA0830123F87A3871A28BB97B12F073FD0146208B884296
:2034700005D3A28BB97B3879012312F069FD78801821484605B0BDE8F04F10F0E9BC6978E8
:20349000287801F0070108402870F97A08401CBF411E0842F8720DD0400703D5B87B08B112
:2034B000042003E0F97A0220014201D0F87201E04008F9D1F87AB97A884204BF0020F87233
:2034D000F87A10B93881B87A0BE0BAF82E00C01D3881F87A042803D1484611F0FEFDA08336
:2034F000F87A3871A28BB97B3879012312F028FD0146208B884205D3A28BB97B387901237A
:2035100012F01EFD7880387B40F02000AFE02878697800EB01206082E978A87800EB0120F8
:20353000E0826979287900EB01202082E979A87900EB0120A082A18AE089884288BF084644
:20355000B97A042904D1B0F5296FD8BF4FF42960E28BE0839042B87A14BF01250025042868
:2035700003D1484611F0B9FD04E0A089E18A884288BF0846A28BA083904214BF0121002113
:203590002089628A238B2943904288BF1046984214BF0122002242EA01052083A28BB97BD5
:2035B0003879012312F0CCFC0146208B884205D3A28BB97B3879012312F0C2FC78806189F0
:2035D000208A628B814288BF01466183914214BF0120002005438A4232499AF80020096876
:2035F00001EB4211628B8041121DC00F0A7610B1484613F029FC9DF80000142810D145B131
:20361000E08B0090638BA28B218B9AF8000016F049F9484605B0BDE8F04F15210EF09AB950
:203630001DB1387840F008003870387840F0200015E028780F2809D0122804D0142808D055
:2036500016280ED026E00020307123E00120307220E0387840F00200387040F0100038703F
:2036700018E0387B40F00200387340F01000387310E09DF800008BF80C00484611F0B2F87A
:2036900040B905B0BDE8F04F074800784FF480410BF064BC05B0BDE8F08F00BF882D002035
:2036B00079260100FC2D00206E4F00202DE9F04FDFF800B5DFF800659BF800001E25082811
:2036D00087B000F26E82DFE810F072020900090009000900F000860172027202DFF8DC440C
:2036F000DFF8DC942068DFF8DC84006800F10807062207F1080102A815F076F90622B91C08
:20371000684615F071F93978C1F380108DF8140001F00F02C809032A35D16179C1F38001D9
:20373000884239D12169062202A814F0DDFD00283AD09DF81400694616F0A4F8002833D014
:203750003146684613F041FFFF282DD0D8F80010897A684335180A0018BF02290AD00129E2
:2037700018BF032918D1325C691C484616F086F8102819D06A46E91D484610F0A7FA0622FA
:203790006946E81D06E201F00F01052940F00F826179C1F38001884240F0FE812169062253
:2037B00002A814F0A1FD002800F0F681387847099DF81400694616F065F840F2024A70B3C2
:2037D0003146684613F001FF8346BBF1FF0F6BD005FB0BF031180491D8F80010897A0A002D
:2037F00018BF01290BD0022918BF03295CD1325C0498411C484616F041F8102854D050463C
:2038100016F038F80498C11D6A46484610F05EFA049806226946C01D15F0E6F81DE09BF88F
:203830000000022840D19DF814106A46304610F0BEF88346BBF1FF0F36D005FB0BF03044B0
:20385000417F012906D000292ED10D3016F00EF8002829D0504616F00DF805FB0BF0D8F89A
:203870000020315C91763044411CD8F800000622143015F0B9F8D449D4488978490604D55F
:20389000F90758BF41F20A4101D541F20441418041834186CE480180CE49CF48086001219A
:2038B000CE4800780BF05AFB76E1CD4C2068006800F108070F21387808421CBF00F00F01B5
:2038D000062906D002291CBF00F00F00012840F06E810622B91C02A815F086F83878DFF8D5
:2038F0000493C0F3801800F00F0001283FD1062207F10801684615F077F83878C709694624
:20391000384615F0BFFFE8B1D9F80000807C022818BF03285ED106F10D01684615F0A2FF3C
:20393000002857D0D9F800100120C8720622607940F0040060716946D9F800000C3015F025
:2039500053F814E03078874211D10622711C684614F0CAFC58B13078617960F38201617165
:203970000622D9F80000711C0C3015F03DF802A9404615F087FF00282CD0606902A9001FC8
:2039900013F006F8002825D1314602A813F01DFEFF281FD0D9F80010897C684335180A00BB
:2039B00018BF02290BD0012918BF032912D1325C6069691C001F15F061FF10280AD06069CF
:2039D00002AAE91D001F10F081F9062202A9E81D15F00AF8EBE0844C2068006800F1080722
:2039F0000F21387808421CBF00F00F00012874D10622B91C02A814F0F7FF3878DFF8EC91A0
:203A1000C0F3801800F00F00012846D1062207F10801684614F0E8FF3878C709694638469D
:203A300015F030FF20B3D9F80000C07A022818BF032852D106F10D0015F018FF00284CD1B0
:203A500006F10D01684615F00DFF002830D0D9F80000062269460C3014F0C6FF607940F0B4
:203A70000400607106226946F01D14F0BDFF14E03078874211D10622711C684614F034FCDF
:203A900058B13078617960F3820161710622D9F80000711C0C3014F0A7FF02A9404615F041
:203AB000F1FE00284AD0314602A813F08EFDFF2872D005FB00F7D9F80000817AF51959BBC8
:203AD000807C15F0BFF8814699F82E01022811BF0328F15D00F0010081425DD14FF49470FB
:203AF00009EB000606223146681C14F0FDFB30B9062231463E4814F0F7FB00284CD0012034
:203B100089F82E010622607940F00800607102A9304614F069FF0DE02069F25D691C001FE5
:203B300015F0ACFE102837D0206902AAE91D001F10F0CCF8062202A9E81D2BE0D9F80000B5
:203B5000817A49BB807C15F07DF8074697F82E01022818BF03281FD102AA414630460FF011
:203B700026FFFF2818D06843351805F10D0015F07DFE10B9687F01280ED187F82E81062278
:203B9000607900F0F70040EAC800607102A94FF49470384414F028FF216809680020087166
:203BB00005E0002014F066FD862015F057FE07B0BDE8F08F6F4F002058220020F44B0020D7
:203BD000CC470020104F0020882D0020204A0020504F0020204F0020053C00006E4F002058
:203BF000D04B0020002E0020AC4B0020184F0020A8A801002DE9F84F012013F073F9012827
:203C10000ED1DFF8E454296800204871286811F067FF05F047FB040003D1812015F01EFE74
:203C30005DE201206071DFF8C464DFF8C4044178491C41702968A07981F8A00040200EF0B5
:203C50008BFD2060307901281CBF002014F012FDF0682168DFF89C6400F5B060C8603068EF
:203C70000068007903281CBF002014F003FD3068DFF88494006800F1080A4FF4977004EBFE
:203C900000089AF80000C0F3801088F8000006224FF494700AF10201204414F0A5FE042219
:203CB0000AF10E0104F1240014F09EFED9F80000A37900EB431004220AF10E010C3014F096
:203CD00093FED9F80000A37900EB431003220AF11201103014F088FE04F12C079AF815004C
:203CF000B87002220AF1160104F1300014F07CFE02220AF1180104F1320014F075FE0222B9
:203D10000AF11A0104F1340014F06EFE3889608402220AF11C0104F1360014F065FEB87841
:203D300079894000B8700901B88879814000B88089B2F8884000F88080B2628C521C430009
:203D50005A438A4200D238B9DFF8B003007880210BF004F93B21F5E004F12E01204614F0CD
:203D700043FA0520A081204614F014FC05220AF11E0104F1610014F037FE9AF82300400968
:203D9000387015F067FD60822968DD4D498A401AA8F80C0004F161019AF82300DFF864A3A2
:203DB00000F01F00F873204612F0EAF831680968002008711C26A1792868714341F6210292
:203DD00042520022A179714301444A80A1797143084442609AF80200400609D5CA48008832
:203DF00041F20A4188420CBFC848C948C4F89C012046D4F89C118847A279296872431144C2
:203E10008873A1792868714308440021C173C148007870B1B88860B978730120208160810F
:203E30002046D4F89C118847A2792968724311448873A179286871430844807B787394F8F7
:203E5000960108B914F016FCA1792868DFF8C8B27143084494F89611491E01740022A1799E
:203E700028687143084400214174A0792968704308444282A279D9F8000000EB421372437E
:203E90000A445361A27972431144A44A8A61DBF8141091F800C094F806E05FEACC714CBFCF
:203EB000102100215FEA8C724CBF202200225FEA4C734CBF402300235FEA0C7C4CBF4FF036
:203ED000800C4FF0000C1143194300EB4E104CEA010141F00F010172D9F80000A17900EB40
:203EF00041100B214172D9F80000A17900EB411004218172D9F80000A17900EB411088494B
:203F1000097801291CBFDBF828104978C172D9F80000A17900EB41101F210176D9F800005D
:203F3000A17900EB411000214176A0790BF0C6FFA279D9F8001052018850A0794201895806
:203F500021B90721204614F0ECF8C8E07549096801EB001015F07AFC724AA1791268D9F892
:203F7000000002EB011200EB41114A60A17900EB41114968F963A1794901405878640421E9
:203F90005E4800780AF0EAFF6249B888097800F1020E19B110B9F88800F1020E608A00FBAA
:203FB0000EF04FF4C871B0FBF1F0401CC4F818E0606140F6C41394F806C02968226806FB9F
:203FD0000CFC8C44CDF800C0D2F80CC003FB0ECCACEB0000A0F5A86C0098C0F808C0A07995
:203FF0007043084480689060A07970430844017B01F0EF010173A179286871430844017BCB
:2040100001F07F010173A179286871430844017B01F0F00141F002010173A179286871439D
:204030000844417B01F0F00141F001014173A1792868714308442168806808616269D9F87F
:204050000000A17997F802C0520000EB411103FB0C2202F5F6624A61A17900EB4110C17C9D
:2040700001F0F00141F00401C174FA88D9F80000A1795A43DBF830301B6800EB4111D21AFA
:20409000A2F51672CA61A17900EB4110C17E01F0F00141F00401C176A17928687143084438
:2040B000216848609AF80100800615D5B8F83A001B2804BFB8F83C001B2809D1B8F83E00D5
:2040D000B0F5A47F04BFB4F86E01B0F5A47F03D0142120460FF0BCFE134907200870BDE89B
:2040F000F14F00F02DBD00BF104F0020B44D0020684E0020F44B0020FC2D00206E4F0020DC
:20411000FC290020882D0020504F00207F3F0100E74B0100784E00204CA801005C4D002020
:20413000734F00208C4E00206F4F00202DE9F84F5FEA000A27D1002014F09CFA23E05046BA
:204150000FF0CFFB62E2317C012940F07E80C078002877D098F80000400088F80000B8F896
:2041700002004000A8F80200B8F804004000A8F80400B8F808000001A8F80800012030778A
:20419000504610F0A3F90AF16606707D002800F064824FF489700AEB00094FF4A2700AEB07
:2041B0000004717C4FF4C6700AEB000B00290AF186080AF1EC050AF10607DFF8A404C2D0CE
:2041D000012946D0022931D0032957D0062900F0A480072900F01E82082900F0F180092949
:2041F00000F00F810A2900F0B3800B2900F0CA800C2900F013810F2900F04981112900F096
:204210006A81122900F03881142900F0CE81162900F06C81182900F09D81F02900F000824D
:20423000FC2926D0FE2900F0048284E7317C012985D1C078002800F08281504610F046F9F6
:204250001621F1E1B888F18B10E050460DF0C2F8DCE1317C01290DD1C07800281CBF01207E
:2042700088F80A008CD1B888B8F80C10884200F09581F1E150460EF05EFBC7E1317C01292D
:2042900041D1807850B10020B071A078012805D10020A070002150460FF0DAFDA87B0128A2
:2042B0000AD10020286068600621012088F80E00504612F019FB66E7E87B012818D15046C9
:2042D00010F004F9002088F80E0001203070504611F0D1FC0120B07100206873697A38782E
:2042F00006291ABF00221A21002215F0CFFA4AE799F8050001286FD0308B401E308380B22C
:2043100000284CD0A8E150460CF084FD3074F08A30830020A873E8739FE1307C01280ED112
:20433000A87A01281FD1504610F0D0F8002028722873E872A873A872E873687323E750461A
:2043500010F04EFB3074F08A30830020A87284E1307C01280DD1E87A012802BF002088F8F5
:204370000E000B21A4D0308B401E308380B2B0B172E1504610F058FC3074F08A30830020F2
:20439000E8726AE1317C012916D1807808B103218EE7308B401E308380B20028E8D1297ADE
:2043B0003878012903D1222115F074FA29E10022222115F06BFA24E150460FF0BFF825E159
:2043D000307C012814D1287C02280AF1FD0204D13978002015F036FAD2E6308B401E3083EC
:2043F00080B200280CD13978222015F02BFA08E150460EF05BFE3074F08A308301202874F5
:204410002AE1317C012905D1807810B1B88B3883B6E694E050460FF0F7FBF7E0307C0128DA
:204430000AF20D1121D1087801280DD14878012809D1B9F8020000900020CA78B9F8003090
:20445000397815F0FBF99BE6308B401E308380B2002810D1B9F8020000902220CA78B9F8A2
:204470000030397815F0EAF9CBE00120887050460EF09CFA3074EFE0317C012903D180785F
:204490000028E0D15BE0504610F038FDBEE0307C01281CD16078012809D1207F0F281CBF41
:2044B000002014F0E7F800206070002100E7A078012806D10020A0702322504611F0B0FF1E
:2044D00061E6207801283AD100202070EDE750460BF03CFE9AE0317C012903D1C0780028E5
:2044F00021D12CE050460FF0C0FB8FE0307C01282CD19BF80C00810648BF1821D6D4C10745
:2045100012D5207F16281CBF002014F0B3F89BF80C0000F0FE008BF80C0000233978607F4E
:2045300000220BF005FF2BE6810708D500F0FD008BF80C000023397800221A20F1E7308B95
:20455000401E308380B200285BD085E050460BF047F85BE0317C012922D1C078C0B19BF83F
:204570000C009BF80B1059B9810610D500F0DF008BF80C0000209BF80A2039781346D0E7F7
:2045900000F0DF008BF80C0001208BF80600F7E57988BBF80800491C88425DD1282143E0A2
:2045B000182150460BF01CF830E0307C01282AD19BF800004FF4B3710AEB0105810614D5C8
:2045D00000F0DF0001078BF800000BD500F0F7008BF80000288B0090AB8AEA8A698A387898
:2045F00015F060F900202870CAE5810704D500F0FD008BF80000F5E7308B401E308380B23B
:2046100050BB222110E050460DF0A4F93074F08A308321E0504610F0E5F80128E4D01BE0FF
:20463000407AD0B199F80610504613F07AFD012013E0B07E0F280CD1FC21504612F054F920
:20465000608900902389E288A188387815F032F902E0002014F00EF80020BDE8F28F00BFA1
:204670005C4D00202DE9F0475FEA000882B00BD1002013F0FFFF07E0404610F0B3F8012853
:2046900064D140460FF022FF08F16605687D00285CD04FF49E7008EB00044FF4B070697C02
:2046B000DFF894A408EB00094FF4C670022908F1EC07404408F1060635D0042949D005294D
:2046D0005FD0062900F08E800729D5D0092900F0F4800B2900F0C6800C2900F026810D2997
:2046F00000F0D5800E2900F0F6800F2900F05D81102900F07881112900F09681122900F034
:204710004181142900F0D681162900F09781172900F0C381FC2919D0FD2900F0F481FE29C8
:2047300000F0F681A4E7287C012809D19AF80300002814D01621404613F0F3FC012006E079
:2047500040460FF0CEF82874E88A28830020BDE8F687287C012810D19AF80200002800F0A9
:204770001881FC21404612F0BFF8307808F1B80208F1B00115F05EF886E740460CF050FD98
:20479000E1E7287C012810D19AF8020028B1012088F89400002038607860B87A012869D1CC
:2047B0000621404612F0A0F86EE708F1E7063078012809D1404611F07DFF0128C6D10020D9
:2047D000B87201202874C1E770780028BED008F1C70208F1A00108F1D70015F05FF80120F3
:2047F000307051E7287C012838D19AF80200002840D0B08B308340460FF068FE012028709D
:20481000404611F038FA0120A871397A787C012900F010000CD130B1002060712068410844
:20483000A0790EF0F7FF3078002115F033F80FE048B14FF4A17008EB0003206842084146D7
:20485000BE4814F0EBFB30780122002115F01EF8002038723873F872B87215E7404610F0C6
:20487000BFF870E7287C012805D1F87A012808BFFC2196D08DE040460EF060FE012853D1F6
:204890000020F87288F8940001202874FCE6287C01280ED19AF80200002809D0002088F8EA
:2048B000940001202870404611F0E5F90120A871BDE0404611F084FB45E7287C012806D189
:2048D0009AF8020000281CBFB08B3083A6E040460FF09AF937E7287C01281DD1387C0228EE
:2048F00008F1FD0204D13178002014F0ABFFC8E6032806D131781A2014F0A4FF002038745E
:20491000BFE6288B411E298389B200290CD13178222014F097FF42E040460EF0C7FB28745A
:20493000E88A28830120387410E7297C012908F20D1021D14FF4897108EB010201780129D8
:204950000BD14178012907D1518800911388C2783178002014F072FF93E6298B491E2983F3
:2049700089B20029E0D1518800911388C2783178222014F063FF12E00121817040460EF0F9
:2049900015F8E0E6287C01280BD19AF802000028E2D1288B401E288380B20028C4D122212E
:2049B000C9E6404610F0AAFACDE6287C012816D1607A012803D199F800000F281CE0207A72
:2049D000012829D100202072288D00090090A88CEB8C317842081A2014F028FF51E64046E4
:2049F0000BF0B4FBAFE6287C012819D1607A012812D199F8000010281CBF002013F03AFECC
:204A100000206072288D00090090A88CEB8C3178420899F80100DFE7287F0028DED1B8E733
:204A300040460BF0E4FB8EE6287C012802D19AF80300F2E740460FF018F984E6297C0129B5
:204A500026D1017B4A062ED4CA070AD501F0FE0101730023317899F8010000220BF068FC8E
:204A70000FE68A0707D501F0FD0101730023317800221A20F2E7288B411E298389B200293E
:204A900055D131780023002222200BF051FC86E7162140460AF0A4FD55E6297C012907D1C1
:204AB000017B4906BBD5017B01F0BF010173E8E51721EEE7297C012920D101788A0617D55B
:204AD00001F0DF010A0701700ED501F0F7010170B9F81E000090B9F81A30B9F81C20B9F83E
:204AF0001810307814F0DEFE002089F80600C8E58A0794D501F0FD010170F5E714214046B1
:204B10000CF028FF1FE6A97E404611F0EDFEBBE6A87E0F280CD1FC21404611F0E5FE608A78
:204B30000090238AE289A189307814F0C3FE0DE6002013F09FFD09E65C4D0020792601001C
:204B50002DE9FE4FDFF85084D8F80400009018B9BDE8F74F14F066BE0078DFF84094DFF8F5
:204B700040A4DFF8404401281CBF0228042846F2A81741F64C5B05D0402818BF802800F00B
:204B9000F98001E214F0FCF90028FAD00098007807F07EFE05466E6816B9002013F06AFDC1
:204BB000DFF804044078002800F0A58004F08AF914F048F801900068029001464768284667
:204BD0000BF064FF02286FD02978012904D0022927D0042945D0D7E1DFF8D0130968097A95
:204BF0001AF80110217018B914F018FE5844B0603069C17E01F0EF01C1763069C17E41F061
:204C10008001C1763069C17E01F0F00141F00201C176B868DFF8981308183169C861012001
:204C3000A4E00521217018B914F0F8FD5844B0603069C17E01F0EF01C1763069C17E41F0BA
:204C50008001C1763069C17E01F0F00141F00201C176B868DFF858130818316908620220BF
:204C700084E00621217018B914F0D8FD5844B060D0480068807C11F053FE3069C17E01F01B
:204C9000EF01C1763069C17E41F08001C1763069C17E01F0F00141F00201C176B868C449CA
:204CB00008183169086260E002980078802811D108202070C0480078012803D0BA484078F6
:204CD000022801DB012002E0D9F8280000787969C8720AE00720B849207009787869012900
:204CF0001CBFD9F828104978C1720198AE4980798870029844E1002D18D000992878A94253
:204D10000ED1401E012833D9C01E05D1A9480068807C11F005FE2BE0002013F0ABFC27E028
:204D3000012804D0022815D0042817D02CE19F480068007A1AF80000207014F06FFD39180B
:204D5000B06814F067FD18B914F068FD5844B06001200BE005202070022007E0062020705D
:204D700094480068807C11F0DBFD042088F80200284605E18C484078002800F0B68004F042
:204D9000A1F813F05FFF00900068019045688648807813F057FF029014F0F8F807210842BC
:204DB00078D098F8020007F073FD0646019977680BF06CFE02286DD03178012904D002293F
:204DD00024D0042940D062E078490968097A1AF80110217018B914F021FD5844B86038699F
:204DF000C17E01F0EF01C1763869C17E41F08001C1763869C17E01F0F00141F00201C17656
:204E1000A8686B4908183969C86192E00521217018B914F003FD5844B8603869C17E01F050
:204E3000EF01C1763869C17E41F08001C1763869C17E01F0F00141F00201C176A8685C4990
:204E500008183969086283E00621217018B914F0E5FC5844B86057480068807C11F060FD30
:204E70003869C17E01F0EF01C1763869C17E41F08001C1763869C17E01F0F00141F002016B
:204E9000C176A8684A4908183969086274E0002013F0F0FB02980099884224D00198007898
:204EB000802811D10820207043480078012803D03D484078022801DB012002E0D9F8280062
:204ED00000786969C8720AE007203B4920700978686901291CBFD9F828104978C17200982D
:204EF00031498079887001984AE014F04FF8072108424ED098F8020007F0CAFC0646307856
:204F10007568012804D0022815D0042822D040E026480068007A1AF80000207014F07EFCEA
:204F30003918A86814F076FC18B914F077FC5844A860012021E00520207014F06FFC391807
:204F5000A86814F067FC18B914F068FC5844A860022012E00620207014F060FC3918A86862
:204F700014F058FC18B914F059FC5844A86011480068807C11F0D4FC042088F80200304651
:204F9000BDE8FE4F09F0BABCBDE8FE4F002013F071BBBDE8F78F00BFCC2D00204CA8010067
:204FB000289A01106F4F0020684E0020104F0020F0D8FFFF184F0020734F00202DE9F04F57
:204FD0000C46E00789B00DD513F046FE38B100218160DFF800040068010018BF804784F0E5
:204FF0000100F4E11E252007DFF8EC6340F18A80DFF8E8030068807C13F024FE07464FF425
:20501000947097F82E8107EB0009002007908246DFF8C8030068807CFF2804BF002013F0B1
:2050300029FB4A46414630460EF0C1FC834605FB0BF0009035184946404614F023FCB0B1BA
:20505000BBF1FF0F2CD00098305C40F00208E81D079005F1010908F0010087F82E010622C1
:205070004FF494704946384413F0BEFC18E04946404613F079FD002818BFBBF1FF0F0FD0F3
:2050900005F10D0014F0F2FB40B905F10D0014F0EDFB002804BF687F012801D148F0020815
:2050B000CE480068C07A022818BF032806D106F10D0014F0DBFB08B906F1070A0020BD1D84
:2050D00006904346288E000905900022E88D0490A88DCDF804A040080390CDF800900798B5
:2050F00002900020297814F091FBD7F89C01BC49884228780CBF002101210CF0E7FB84F082
:20511000080064E1E00610D5002006900590049003900290019000900023002200210220BA
:2051300014F074FB84F0100051E1A00710D500200690059004900390029001900090002362
:20515000012200213C2014F061FB84F002003EE16007A44F40F1A180A34880784FF00008D4
:20517000CDF81C80FF2804BF002013F083FA386890F8A00013F066FD81464FF4947009EB04
:20519000000B3868C07A99F82EA1022818BF032806D106F10D0014F069FB08B9F01D0790E6
:2051B0005946504614F06EFB90B33868807A010018BF012804D13146584612F006FA04E08F
:2051D0005A46514630460EF0F2FBFF283ED005FB00F806EB080506225946E81D13F004FC2D
:2051F00016F8080040F0020A3868807E00F0010089F82E010622386800F114014FF49470F9
:20521000484413F0F1FB05F1010B05F107081DE05946504613F0A8FCC0B15A465146304605
:205230000EF0C5FBFF2811D06843351805F10D0014F01CFB40B905F10D0014F017FB002848
:2052500004BF687F012801D14AF0020A09F12C0009F106050178069153464189090905910D
:205270000122A98B0491C088CDF8088040080390CDF800B0079801900020297814F0C6FA98
:20529000D9F89C015649884228780CBF002101210CF01CFB84F0040099E0200610D500204A
:2052B00006900590049003900290019000900023012200213B2014F0A9FA84F0800086E016
:2052D000E0043BD5F11D06F10D0014F09BFA38684179012923D1017A012918BF04291ED10F
:2052F000C17A022918BF032919D1817E00F1140230460EF05CFBFF2811D06843351805F184
:205310000D0014F0B3FA50B9E91D05F10D0014F079FA38680622E91D143013F065FB334846
:205330004268334800784FF4805110F03FFC10B18E2014F063FA84F4805048E0A00505D5B2
:2053500013F0FAFD2B4901200860FEE7600504D50BF0CDF984F4806039E0600405D5812012
:2053700014F04CFA84F4804031E0A0042ED5224D286810B1002013F07DF94FF0FF30286094
:205390000EF00CFF1D4D296820316846096888471B4841682D681B4A00916B4681680191F7
:2053B00000210291016909680391017B00688DF81010ADF812002D6813491448A8471449E1
:2053D000086004F0E1FD84F4005000E0002009B0BDE8F08F204F002058220020184F00202E
:2053F0007F3F0100104F0020684E0020784E00206E4F0020FC002043044F0020F04E002096
:20541000E81700202C2D0020481A0020002A0020EC4E00202DE9F043DFF8AC43DFF8AC33F9
:2054300094F80080DFF8A8E3DFF8A893DFF8A863DFF8A813B8F10D0F83B0404641F206476A
:2054500041F202424FF4A05553D8DFE818F0BB010E000E000E000E006D00A500E9001D0186
:205470005F015F01900190019701DFF87413DFF87473C3F800E041F2044E4C8874451CBFFE
:20549000B1F81A80F0450BD0B1F83290F1451CBF41F20A4E744503D0F04518BFF14502D101
:2054B000A6F800E02AE0022CDFF83C73348036D94FF4806CB4EB0C041CD0241F012C1FD9AB
:2054D0004FF47F7CB4EB0C041CD04FF4406CB4EB0C040FD0A41E012C0CD9241F0AD0641EF3
:2054F000012C0DD940F2F930241A012C17D9241F08D05FE1022814BF3580BC4F1F60FDE05F
:20551000BB4FFBE7BB480068007A012803D14A804A834A86F2E74D804D834D86EEE7002008
:2055300013F0A8F8832049E1B348418831800229C3F800E014D940F20442891A2AD0491E47
:205550000ED040F2FB32891A1DD00A3901291AD940F6F632891A03D0491E1BD0491E012957
:2055700040F2C680091F15D0491EF9D0491E11D04FF47E72891AF3D0491E0BD0C91E09D083
:20559000491E012947D8817B478025290CBF2721491E817399483CE0994841883180022949
:2055B000C3F800E068D940F20442891A30D0491E62D040F2FB32891A23D00A39012920D9F0
:2055D00040F6F632891A57D0491E21D0491E012952D9891E13D0891E1AD0491E4CD0491E7A
:2055F00016D0891E0BD040F2F632891A44D0491E0ED0C91E0CD0491E012902D90BE08148FA
:2056100007E0817B478025290CBF2721491E81737D48186072E0002013F02CF884206BE04F
:2056300099F80200FF2855D07849C3F800E01C2209685043084440F204444188744A3180DF
:20565000091B012946D94FF47F74091B15D00A39012916D940F6F634091B032984BF491FD7
:2056700001290FD9891E012934D940F2FD34091B08D0491E012904D93AE041F2014141800D
:2056900000E045801A6039E099F80200FF2821D05E49C3F800E01C240968604308445D4C8C
:2056B0004188318040F20446891B012912D94FF47F76891B17D00A39012916D940F6F636AA
:2056D000891B13D0891E012984BFC91E01290DD9891E012976D940F2FD36891B06D0491EC2
:2056F000012902D904E0428000E045801C6005E0002012F0BFFF852014F0B0F803B0BDE860
:20571000F04345480078012109F028BC4A88328040F20443D21A55D040F6FC73D21A15D0BE
:20573000083A4FD04FF47F73D21A22D13B4C3C4A24683C4800680023CDE9002308343A4BA2
:2057500024680222A047394908803BE0092810D137480068408960B1364800780EF04CFD6D
:205770000021002014F046F8002020702AE048883080002012F07EFF85201FE04A88328095
:20579000022A0DD940F20440121A1BD040F6FC70121A05D0083A15D04FF47F70121AE8D179
:2057B000887B801CC0B2B528A8BF662088730020488007E0002012F05DFF8420BDE8FE432C
:2057D00014F04CB8BDE8F7836F4F0020204F002015910100684E0020504F00206C2D002030
:2057F000204A0020053C000065D000003DF50000755B0110104F00209C4C002039170100AE
:205810006C4C00206D5C0000A1220100FC290020C58200008DB600006E4F0020F04E002009
:2058300002000080EC4E002011600100424F0020042E0020714F00202DE9F84FDFF8F443BC
:20585000A078FF2804BF002012F014FFA07813F0F9F904464FF4C97004F1680625183068F6
:20587000006804F1900708B100200EE0B07B002804BFB07E002809D13878002801BF2878DF
:205890000028207F012801D1608CE0832089E18B0818401C6081204612F038FB01281EBFD4
:2058B000E5480078012804D10020E0832089401C6081B07E01280CD1B28B6189208913F0C5
:2058D00095FF30B121896289481C82422AD0B28B1FE0387801280CD17A886189208913F002
:2058F00085FF30B121896289481C82421AD07A880FE02878012815D16A886189208913F064
:2059100075FF00281FBF2189481C6289824209D06A88824206D0501E608180B213F062FFF6
:20593000401EE0832878012801BF68882189491C884207D16A792A71002028701346A179C3
:205950000AF0F6FC4FF49A702044007920B10020E0832089401C608104F12E07B07E012866
:2059700001BFB08B2189491C884237D1608104F18601204612F038FCB08CE1896084002098
:205990002077E08360890818A0812189B08B13F029FFB988328C01FB0028708CF28C88425C
:2059B00004BF3B899A4202BFB18CFB88994207D0110900914208B38CA179002013F036FF9B
:2059D000B07F3870708CB880B08CF880F08C3881204612F0DFFD0220B07601E0B7F8048023
:2059F000E08BDFF85892411C01FB08F140F6C41808FB01F200922268DDF800C0D36863447E
:205A1000DFF83CC2D360DCF800C08E4A9CF800C013884FEA9C1CBCF1030F12D199F80FC020
:205A30005FEACC7C48BF00230BD45B1C9BB2012B07D14FF49A7CA444BCF806C00CF2DC5C03
:205A500001E0B4F812C00CFB01FC4FF4C87EBCFBFEFCDFF8F4A10CF1010CC4F814C04FF054
:205A70001C0B138084F82000A161A279DAF800102068C3680BFB02F20A4492680261A2794E
:205A9000D4F814C00BFB02F20A44A3EB0C039360A2790BFB02F20A4492688260A0790BFB20
:205AB00000F00844017B01F0F00141F002010173A179DAF800000BFB01F108440021418082
:205AD000287908B912F0D6FDA179DAF800000BFB01F10844297949080174A179DAF80000FB
:205AF0000BFB01F10844002141742879042812D1A179DAF800002A7A0BFB01F10844017C7B
:205B100041EA82010174A179DAF800000BFB01F10844202141740022A079DAF800100BFB09
:205B300000F0084442824948A2790068D4F814C000EB4212536903EB4C035361B27E022A59
:205B500007D1A2793E7800EB4212536908FB0633536199F80F20D20740D5A2790BFB02F2DE
:205B70000A449368A3F5A8639360A2790BFB02F21144226889689160009BC91A1161A17956
:205B900000EB41114A6902F5F6624A612979042906D1A17900EB41114A6902F5B0624A61A7
:205BB000A17900EB41114969C4F8341128490D6BBB88A2792D6808FB03F300EB42125B1B41
:205BD000A3F51673D361A27900EB4210214A1278012A0EBF0121896A497818E0A279297990
:205BF00000EB4212042952690CBF4FF44B614FF4E661511ABA8808FB02F2A2F51672914294
:205C1000D4D30821204612F08CFA01200FE0C172A179DAF800000BFB01F108442168486012
:205C300007200D490870204610F0E9FA0020BDE8F28F00BF684E0020784F00205C4D00208B
:205C5000084F00201C2E0020FC290020FC2D00204CA80100734F00206F4F00202DE9F84FB3
:205C7000DA4DDFF86C832868DA4F807CDFF8689312F0E8FF296804460020487104F12E0AD6
:205C900028680FF02DFF012060711C2598F80100401C88F8010080200CF05EFD206079693F
:205CB000C160CE4801894900AAF802105146C07940008AF80000BAF804004000AAF80400E8
:205CD000BAF808000001AAF80800204612F08CFA0520A081204612F05DFC386813F07EFD3C
:205CF000062210F8081FC1F3801184F82E11811C4FF49470204412F077FE3968B84F096865
:205D10000020087141F62202A1793868694342520022A179694301444A80A179694308447C
:205D3000426099F80200400609D5AE48008841F20A4188420CBFAC48AC48C4F89C012046C2
:205D5000D4F89C118847A27939686A4311448873A1793868694308440021C173A179386871
:205D700069430844807B8AF80B0094F8960108B912F080FCA17938689D4E6943084494F808
:205D90009611491E01740022A17938686943084400214174A1793868694301444A82A17935
:205DB000326802EB4112694301444A61A1796943084490498161A0790AF080F8A279316851
:205DD00052018850A07940010A5822B90721204612F0A7F9F5E008441F2202763068A17935
:205DF000DFF814B200EB411000214176DBF80000A17900EB011013F029FDA179DBF80020C3
:205E10003068DFF8F8B102EB011200EB41114A6004F16801A27900EB421252680A60A2797C
:205E3000520182588A60DBF8141091F800C094F806E05FEACC714CBF102100215FEA8C725F
:205E50004CBF202200225FEA4C734CBF402300235FEA0C7C4CBF4FF0800C4FF0000C1143E4
:205E7000194300EB4E104CEA010141F00F0101723068A17900EB41100B2141723068A17902
:205E900000EB4110042181723068A17900EB41105B49097801291CBFDBF828100978C172C7
:205EB0003068A179626A00EB4111CA60A17900EB4110A16A01743068A17900EB4110A16A1E
:205ED000090A41743068A17900EB4110A16A090C817408214B48007809F040F82168A279DE
:205EF0003868CB686A4302449360CA680A61CA688A60A17969430844017B01F0EF0101733D
:205F1000A179386869430844017B01F07F010173A179386869430844017B01F0F00141F01D
:205F300002010173A179386869430844417B01F0F00141F0010140F6C4134173BAF80420C0
:205F50003068A1795A43DBF830301B6800EB4111D21AA2F516724A61A17900EB4110C17CA6
:205F700001F0F00141F00401C174A1793868694308442168486099F8010080061BD54FF496
:205F900097702044408F1B2801BF4FF497702018808F1B280BD14FF497702044C08FB0F562
:205FB000A47F04BFB4F86E01B0F5A47F03D0142120460DF04DFF144908200870A07988F8BB
:205FD0000200BDE8F14FFEF7BBBD00BF184F0020684E0020AC4B0020882D0020844C002065
:205FF000FC290020504F00207F3F0100E74B0100FC2D00205C4D00208C4E00204CA801009A
:20601000734F00206E4F00206F4F00202DE9F04F0F46BD4C0168616241688068ADF1140DA4
:20603000A060BA4861608047B948616A01606168DFF8FC924160A168DFF8F0828160B54999
:20605000002FA246C16068D03D68E8788DF8080028798DF8090002A813F0BCFBA86808B1D2
:20607000AD490160E86808B1AC490160AC4C2878207068786070A878BE68A0703178E17032
:206090007368636072696261B168A160F168E160316921612E697B68A6621868A061686910
:2060B000E062A8692063287F84F834002A6AA263786886681EB9002012F0DCFA00E0266205
:2060D0007868C06818B9002012F0D4FA00E060627868406818B9002012F0CCFA00E0E061E3
:2060F0002869A062F86881680E6806B98E4E8D494FF0010B4E60C66881F801B026B900207D
:2061100012F0B8FAF86801E041460E6000684D46FE68A8617068E86105E0002012F0AAFA4F
:206130004FF0010B4D46D8F80000824944686A1C05F114035020A04718B1D8F800008068BF
:206150008047DAF80400804703907B487C4C286100272771B946E770784EA770300BC6B27F
:20617000401CC1B226703846617028E0304639466A46042311F01CF8009BA078B3F5801F78
:206190000ED043B9B9F1000F03D048460FF092FBA078B14610E030460FF08CFBA0780BE071
:2061B000002804BF301CA67006D00FF083FB30460FF080FBA77038466178761CF6B2B142A4
:2061D000D4DA98B9B9F1000F08D1207811F02EFF0420E08020793946A0B912E084F8029063
:2061F00011F036F9484607F031FE07E0B9F1000F02D048460FF05EFB11F02AF92079394617
:2062100000B95946081C02D1384612F033FA3C464C4ED8F80000B4608069AC6080477060E6
:206230004948478080F800B0142012F0FBFDFF211422A86212F089FFE81CFF21022212F06C
:2062500084FF142012F0EEFD4049086008681422394612F07AFF3846FAF7ACFB584610F045
:2062700075FE3B480188FF2906D1022101807822001D394612F069FF032013F0A7FA042061
:2062900013F0A0FA052013F099FA062013F092FA07200EF00DF82F4E0820307006F140003B
:2062B00013F084FA0EF046FA363605200A21324611F0A2FB38B13846C0F10901401C06F8C1
:2062D000011B0A28F8DBD8F80070234909200DF10A0201AB7E68087010202146B047A86A04
:2062F000EA690A270A309DF80A1000F8011BDAF808107F1EF7D1921E0398EA61884704F065
:2063100003F805B0BDE8F08F6C14002041490010F844002034990100F977010071880100CA
:20633000C0170020F01A002063550100B41B002000190020F57F01009989010000D00100E2
:20635000E42D0020C02D0020B01B0020102E002084150020D40F0020292E00202DE9FF4717
:20637000C44C0F460646F80B80F05981B80880F04681207BDFF80893B90F80F0BA80A07A7F
:20639000002840F09A803809C0F09980E07A20B10020E072052010F023FD00254FF0010822
:2063B000B549657004F178002A4684F8088012F0AFFE607901281AD1A079C0B9DFF8BCA2B6
:2063D000DAF8000000283CD048460068006B8047A1695346401A000BE0611968226A801891
:2063F000B0EBC11F98BF20622BD9256201E084F8058040F609002087A24994F845000A1D03
:2064100000F0F00040F0010084F845001368658794F8440000F0F00084F8440023F00200AE
:206430001060E5636FF002020A6004F1380341F8103C08688008FCD30A60486840F00200FF
:206450004860914A1068914920F00200A56140F400701060032341F8043C41F230038B603B
:206470004046086050238B6008604FF4CA638B60086041F80C0C0220156010F0B1FC1120CF
:2064900008F0CCFD307C10B90E2008F0C7FD25726572A078012803D006F1400013F082F995
:2064B0007B4812F037FD7B490878F8B10D7004F1D400042112F0E4FA18E0380914D2B80BB9
:2064D000C0F0CE8004F1280012F02DFE061C08D0706830B17568F068B6F91C10002220233C
:2064F000A84727F40057BBE00020A07227F00807B6E020B1042010F073FC00202073B16872
:20651000088840F602084FF0000A80450AD0B0F5C15F07D00A8B4FF61F60104040F4347096
:20653000088306E00A8A4FF61F60104040F434700882A069D8B14D46686D0168042088477A
:20655000A8B12868006B8047A169814226BF401A401E401A000BF060708AF168401840F610
:20657000C411F06081422CBFB0F5FA7FF160B5699DB14948A84210D094F8450010F00F0F13
:206590000BD1718D08F10700884206D130466FF4807152464FF00073A847404904F1780077
:2065B000524612F0B5FDA07958B10220ADF80000684611F0EDF884F806A0BDF80800A4F887
:2065D0007400012060702079401C207104F1240084F807A012F0A7FD002808BF47F00207AF
:2065F00002D0192012F03AFC75692DB1514630464FF080630A46A84727F0005730E004F1AB
:206610003005284612F08FFD07F028FB284612F08AFD27F0020708B147F0020720E013F00C
:20663000BDF8014604F12C0012F07DFD0646B569A80810D27EB125EA0500B061084613F010
:20665000A9F8706850B12A46F068B6F91C1075680023A84702E0084613F09CF827F4804775
:2066700027B104F1D400394612F00AFA0090BDE8FF87C046C00B0020AD7F0100F02D0020CE
:206690008C01001010100440000004600C41044055CF0000EC2D0020C32D010071D1000064
:2066B0002DE9F04F09AFADF13C0D08900A92388809911E46ADF81800101C08BF002000F024
:2066D0008481002700F101094FF0FF3A4FF0010BB8466CE1252940F063811078521C0A9281
:2066F0002D2818BFADF8068005D15846551CADF8060010780A9530281CBF4246434605D162
:206710000A9908785A465B46491C0A912A28CDF80080554616D1306804930A99CDF808A0AD
:20673000C01C4B1C20F00300001D306050F8044C0A93002C0878009418D5ADF806B06442E3
:20675000009413E044460AE0610001EBC40140180A99A0F1300408780094491C0A913028F0
:2067700001DB3A28F0DBCDF808A004932E282BD10A9908782A2801F101010A9111D130682C
:20679000CDF80880C01C20F00300001D306050F8045C002D48BF454608782B46491C0A91A8
