:2000000000400020D513010001C9011001C9011001C9011001C9011001C9011001C9011075
:1C00200001C9011001C9011001C9011001C9011001C9011001C901103FC9011089
:20003C0080B54FF4FC720FF278011A480CF062FE194800210170012141740221C17601BDA4
:20005C002DE9F0410FF25021144838220B684C688D68CE680F69D1F814C0D1F818E0D1F824
:20007C001C80036044608560C6600761C0F814C0C0F818E0C0F81C8020312030521EE5D1F7
:20009C004A688B68CC680968016042608360C460BDE8F081480400215903002100C000210F
:2000BC00410500217D0500212D06002170B51D46004C204787B2000010B5014800470000FD
:2000DC00D509000070B5614C6148254650358047022809D14034E1885E4A914204D1E97C5E
:2000FC00890601D4911DE18070BD70B557495A4A084650300378002B10D08379012B0DD181
:20011C00037C5B09DB0709D0097D544DC1746C7F20202043687790476C7770BDFF21C17420
:20013C00904770BD10B54E48484C804702280ED121464031CA88474B9A4208D1CA7C5209CE
:20015C00D20704D0227D920601D49A1DCA8010BD70B53E4843494030C07C4009C00707D032
:20017C003E4D41482C8B2043288388472C8370BD884770BD10B53B48344CAC388047214609
:20019C0053310A789309DB0705D04034A2730A7803231A430A7010BD2C4940310871182876
:2001BC0012D004DC0A280BD00B2804D10AE025280CD02A280CD02D4980004018C0687047DE
:2001DC002B4870472B4870472B4870472B4870472B48704770B504461C484E252D5CAE09AB
:2001FC00F60716D0067D3007000F052803D00120054202D00DE00220FAE7E80905D07006D1
:20021C0003D54868800F012803D05B085B0052085200062B03D01020022B11D011E0FB20F7
:20023C00024002232046FFF741FF002807DAC100611A2039497E1422114200D1002070BD93
:20025C00024303432046FFF731FF70BD4401002137CB000004140000EBC80000A800002142
:20027C00F5B4000053AD00002020000080DF00001D050021F9040021CD040021930400210F
:20029C006D04002110B5034CFFF716FF20680028FAD110BD0011044068610000F825F965B0
:2002BC00F9754500450045002600260057A3520052004C00401F401F401F3F000000000053
:2002DC00304000400140034007400F404F40CF40CF41CF43CF47CF4FCF3FCF2FCF1FCF0F6C
:2002FC00000000000000000000000F00080000003F00000040003F000000040068000E0093
:20031C00DC00060043001A00050000000000020000000000000000000400C00000000400B3
:20033C00C000000007000000000000000000000000000000000000003040004001400340A6
:20035C0007400F404F40CF40CF7FCF6FCF5FCF4FCF3FCF2FCF1FCF0F00000000000000009D
:20037C0050C00091007070C00091007082312100319110B10070018101B100A1823132910D
:20039C0010B101911110418141227740F106007051C0019130181039833108D01831416FD1
:2003BC003100319110B18314141683680070251050C00091F4C340C12014036F3110410497
:2003DC005082F0229840512622C082312100319110B163393110410482C08231210031919B
:2003FC0010B163393110A2C082312100319110B150101531051405920070676452C03110A6
:20041C0031066131C1026A6412C13110213971065131E1026A64007051C0019101CCE2C0CC
:20043C006A64676411C1C2C06A6450B054B0007140804022D6440022C94060B08180111EC9
:20045C00C944007054A064B0F0800022C9404012B09032B070C1DF6811C122C16A6470C1C0
:20047C00E46851C00191E2C0823160820200329110B130C2EE68538253395339B16460C347
:20049C00F4688012B09032B00070676401C122C16A6401C1C2C06A645382B164C012B09074
:2004BC0032B00070676472C281C06A6422C111C16A6402C011C16A6462C031C36A6462C3D2
:2004DC0011C16A6402C311C16A6453825339B164E2C36F6411221C4142C281C86A6452C24E
:2004FC0011C16A6472C2E1CE6A6402C281C86A6402C201C86A64B0C030690070676442C211
:20051C0001C86A6452C211C06A6472C2E1C06A6402C001C16A6462C001C36A6422C101C127
:20053C006A6462C301C16A6402C301C16A645382B16400708180111E5C4150B054B000712B
:20055C00408040225D4154A064B0F1800122514500700022514160B04E61000000000000AA
:20057C000000000000000000067305720B720E7250B00071818060B050A09280F0EFF1928C
:20059C0002936A6741228C458080F1C11004301601110114016CB561B661B761B861B9618D
:2005BC00BA61BB61BD61BF61C161C36126632D63F0C002043231412A121432160111211412
:2005DC00016CDA61C561E061C761CB61B561B561B561F461C561FA61C761CB61B561B56104
:2005FC00B561F461C561FA61C761CB61B561B561B561E761C561ED61C761CB61B561B56121
:20061C00B561CF61CF61CF61CF61CF61CF61C064CF61F964CF610665CF613265CF6174676A
:20063C00CF611166CF61C0644E65F964CF61066511663265CF618280E0DFF2926A67B0B044
:20065C00D661B1B00673057230B06C61D0CF6A6784C203C0C0C37C64207851788278E378B7
:20067C001579B6780062C0CF6A6784C203C0C0C37C64307861789278F3781579C678006250
:20069C00B0CF6A6784C203C0C0C37C6440787178A27803791579D678109221923292439281
:2006BC005492659256911FC0FF914039F00601101031101400927067CF61E3B054A0F08076
:2006DC0050221A4640800022BE461262E3A000C86091598150B0918041228E46A0CF6A6734
:2006FC0012828231823942398B641282F2062F101F312F141682D622334640C1346200C5AF
:20071C0020140D6F6D39DE10F4C34E0482C082312E006D39A2C082312D001A828A39FA0606
:20073C002082803180390BC00B18BC10AC18038239149B141082F0060110103110145181C2
:20075C0010140C14C622C94631D0C1266462021011C0013010C00118021882312100C126C2
:20077C00919103B013B063B053B041800122BE46B481C491D581B51C774E95186591F0803E
:20079C00102269428C623D9110B13E9110B1E08000228146E6228142E0B0951865910F926B
:2007BC005981F914F0805022114210228C464D6390CF6A6763B052A03082F2C0200402107E
:2007DC0011C0013010C00118021882312100C1269191919113B003B063B053B064B054B055
:2007FC00007141800122BE4663B064B0F08050221142B181C191D1819118619131B0A462D0
:20081C002967E0A059810582591480C0007163B0BA6A6962E3A0018262818231823D80EF61
:20083C00F19202936A6703A0007037824739873930828039F006021011C0013010C0011849
:20085C00021882312100C126819102B012B030824039F006021011C0013010C001180218E9
:20087C0082312100C126919103B013B063B053B0007153A062B052B041800122BE46A4816E
:20089C00C491D581B51CFE4E95186591F0801022F0428C62B481C491D4814518751C084FEB
:2008BC00F0801022F0428C623D9110B13E9110B1E08000221247E6221243E0B065910F92DC
:2008DC005981F914F0805022114210228C4630632967E0A0598105825914F0C0007162B038
:2008FC00226BF062A2808B64CF6112824239F2068B6050B00071CF6170CF6A674082418096
:20091C000122BE46A481C491D58195186591F18011228C46336B41800122BE46A481C491AB
:20093C00D581C51C1C4B95186591F08010223F438C6260CF6A67408241800122BE46B48169
:20095C00C491D58195186591F18011228C46506B41800122BE46B481C491D581C51CB44A55
:20097C0095186591F08010225C438C62E092D08200226B47C0B20070A080F022874330B033
:20099C0002C1623101C0A080001E8043F022814380F86031603981632010101A136F236E5A
:2009BC0011161216826B00702DE9F84FDFF81485DFF8141588F80000002008600921DFF899
:2009DC000C0501700D2141804FF408718180DFF80005DFF8001501608A7EDFF8FC04027053
:2009FC00FF2ACB7E437008BFFF2B0D7F85704E7FC6708F7F0771C97F417115D1FF2D08BFE8
:200A1C00FF2E11D1FF2F08BFFF290DD1DFF8CC140A7802704A7842708A788270CA78C27029
:200A3C000A79027149794171DFF8B41402780A70FF2542784A7082788A70C278CA70027922
:200A5C000A7140794871DFF89C14DFF89C04057045708570C5700571457100200880DFF890
:200A7C008C14DFF88C04466B70780870DFF8841430780870DFF88014B0780870DFF87C1441
:200A9C0070690079401E0870DFF87414F0780870DFF87014B069086008B912F0F7FFF069E5
:200ABC00DFF86444206008B912F0F0FF2068DFF85C74006880472168091D3846096888479E
:200ADC00DFF84C04DFF84C143862DFF84C047862306A086008B912F0D9FF706ADFF83C1463
:200AFC00086008B912F0D2FFDFF834B4DFF834649BF8040013F0ECFA306008B900F043B9F3
:200B1C009BF80500DFF8207413F0E2FA386008B9306835E19BF80600DFF8104413F0D8FA37
:200B3C00206020B9306813F0DBFA386828E19BF80700DFF8FC9313F0CBFAC9F8000038B9AD
:200B5C00306813F0CDFA386813F0CAFA206817E1DFF8A01309789BF80000DFF8D8A3891C9B
:200B7C00484380B213F0B4FACAF8080058B9306813F0B6FA386813F0B3FA206813F0B0FA40
:200B9C00D9F80000FCE0DB480078010000F00081BBF80210DFF8A0B3484380B213F098FA3E
:200BBC00CBF8040078B9306813F09AFA386813F097FA206813F094FAD9F8000013F090FA47
:200BDC00DAF80800DCE0CB48007813F081FADB49086080B9306813F083FA386813F080FA60
:200BFC00D9F8000013F07CFADAF8080013F078FADBF80400C4E0BF4800781C21484313F07B
:200C1C0067FACF490860B0B9306813F069FA386813F066FA206813F063FAD9F8000013F0B1
:200C3C005FFADAF8080013F05BFADBF8040013F057FAC248A3E0AF480078400113F048FA60
:200C5C00C0490860D0B9306813F04AFA386813F047FA206813F044FAD9F8000013F040FAE4
:200C7C00DAF8080013F03CFADBF8040013F038FAB248006813F034FAB14880E09D480078F0
:200C9C00000113F025FAB0490860F0B9306813F027FA386813F024FA206813F021FAD9F817
:200CBC00000013F01DFADAF8080013F019FADBF8040013F015FAA148006813F011FAA048DE
:200CDC00006813F00DFA9F4859E08A480078000113F0FEF99D49086010BB306813F000FA73
:200CFC00386813F0FDF9206813F0FAF9D9F8000013F0F6F9DAF8080013F0F2F9DBF804005F
:200D1C0013F0EEF98D48006813F0EAF98C48006813F0E6F98B48006813F0E2F98A482EE093
:200D3C00744800783021484313F0D2F98849086070BB306813F0D4F9386813F0D1F92068F8
:200D5C0013F0CEF9D9F8000013F0CAF9DAF8080013F0C6F9DBF8040013F0C2F977480068BE
:200D7C0013F0BEF97648006813F0BAF97548006813F0B6F97448006813F0B2F973480068F5
:200D9C0013F0AEF9002012F081FE4FF4804192E031680120087100223068057330684573C1
:200DBC00306885733068C573306805743068457400203168C87231684871A0213068C18076
:200DDC00032101720720316848720020316888722821306841820121C176002031684877BE
:200DFC00316881F85E00012031680877316881F85D00396808713868057338684573386895
:200E1C0085733868C573386805743868457400203968C87239684871396888724FF42070B1
:200E3C003968C88008818A7401213A68D17421680D7321684D7321688D732168CD732168F0
:200E5C000D7421684D7400212268D1720121226811710021226851712168C88008810020A8
:200E7C0088722168887405202168C874394800688047054629480068006880472749096809
:200E9C00091D00200968884719481D49C06809780088084330490880284630490968884745
:200EBC000C212F4800F05EF80F4800F05FF800F061F84FF4005198F80000BDE8F44F0AF03F
:200EDC0011BD00BF6E4F0020044F0020604E0020084F0020B63F00502C4E0020E8120050AB
:200EFC003C4E00200C4F0020344E00206D4F0020845901007B4F00206B4F0020724F0020B0
:200F1C006C4F0020F04E0020F44E00207C4B0020ED400100F84E0020FD400100FC4E0020F7
:200F3C0050160020104F0020D4270020184F0020D8270020A8270020684E0020004F00209B
:200F5C003C240020D0270020884E00208C4E0020904E0020D0100020544F0020D410002029
:200F7C00F84D0020DFF800F0E5710110DFF800F01D6E0110DFF800F04D710110164880B536
:200F9C0007683FB315498B6803EA5300C00E21D2134A106880081DD2486880081AD210689A
:200FBC00096810F0050F4FEA114101F0F00101F5E0710AD1B9420DD2190F38BF40F00100D7
:200FDC00D90E38BF40F0040003E0B94202D920F00500106080BDC04628500940AC3F005066
:040FFC0000000940A8
:20100000B41200001810000015AB0110FDB301106DC00110FDAE011099B5011000000000F7
:08102000000000002F00000099
:20102800B01200003C100000B1C00110A9BF011067C0011069B80110000000000000000035
:041048002D00000077
:20104C00B012000060100000BDC00110CDB30110D9BD01106DB3011000000000000000005B
:04106C002E00000052
:20107000000000007016002004000000000000000000000020000000E8C9011030000000A4
:2010900028100000781600200400000000000000000000000C000000D8CA0110180000007F
:2010B0004C1000008016002004000000000000000000000024000000F0CA01101800000003
:2010D00000000000881600200400000000000000000000001000000018CA01102C0000000F
:2010F0000010000090160020040000000000000000000000200000006CCA0110240000007B
:20111000FFFFFFFF981600200400000000000000000000002800000090CA0110240000003A
:20113000FFFFFFFFA01600200400000000000000000000001400000008CB011018000000B9
:20115000FFFFFFFFA816002004000000000000000000000058000000B4C901103400000087
:20117000FFFFFFFFB01600200400000000000000000000001000000020CB01101800000055
:20119000FFFFFFFFB81600200400000000000000000000001C000000B4CA01102400000082
:2011B000FFFFFFFFC01600200400000000000000000000003800000044CA011028000000AA
:2011D000FFFFFFFFC81600200400000000000000000000005400000078C901103C0000001F
:0811F000010000004C59010050
:0411F80001000000F2
:0411FC0000000E00E1
:0412000000000F00DB
:0412040032000000B4
:0412080001000000E1
:04120C0000150020A9
:0412100000020000D8
:0412140000000000D6
:0412180001C90110F7
:04121C0000000000CE
:0412200000000000CA
:0412240008000000BE
:04122800000023009F
:04122C008413002007
:0412300001000000B9
:041234001815002069
:0412380008000000AA
:04123C00C0140020BA
:0412400000000000AA
:0412440000000000A6
:04124800080000009A
:04124C00000000009E
:04125000000000009A
:041254000000000096
:041258000000000092
:04125C00010000008D
:04126000EC1300206B
:041264000600000080
:041268000100000081
:04126C006C120020E0
:04127000000000007A
:041274000000000076
:041278000002000070
:04127C00000000006E
:02128000290043
:02128200010069
:02128400250043
:021286002D0039
:021288002E0036
:02128A002F0033
:02128C0001005F
:01128E00015E
:0812900003000000F858010002
:0812980000000000000000004E
:0412A0000000010049
:0412A4000000030043
:0412A80013C401105A
:0412AC00E73E010018
:0412B000B812000070
:0412B400B81200006C
:0412B8000000000032
:0412BC0018150020E1
:0412C00039400100B0
:0412C4002000000006
:0412C8005C5801006D
:0412CC00685701005E
:0412D00029C101101F
:0412D400C312010040
:0412D800FB16010000
:0412DC00A1C7011095
:0412E000A3C701108F
:0412E4000000000006
:0412E8007F5801002A
:0412EC006455010044
:0412F0007C55010028
:0412F4004C55010054
:0212F8000200F2
:0212FA000900E9
:0212FC000100EF
:0212FE000000EE
:0113000001EB
:04130400C93F0100DC
:04130800D5230100E8
:04130C00F5340100B3
:041310008927010028
:04131400EF270100BE
:041318000D2401009F
:04131C008DEB000055
:04132000C3410100C4
:04132400C9FF0000FD
:0413280015C70110D4
:04132C0025C70110C0
:201330002DE9F04FDA4C04F10C012046ADF1440D0FF0D0FA04F1500004F15C010BF02EFD45
:20135000206208B913F0A2FB04F138050021284613F098FB00270122CE49256104F19C00CB
:20137000134600970FF02EFB04F1C0004FF4FA62C94900973B460FF025FB4FF0804039462A
:201390000EF0AAFCC54EA0601F2206233146102007F0AEF95020ADF81C008DF83570B9467D
:2013B000ADF81A904FF448758DF836904FF47A73ADF820900121ADF81E500DF13502ADF8EF
:2013D000223040F2053003F007FD40F2063002210DF11A0203F000FD04F17D024FF442704F
:2013F0001E2103F0F9FC04F1440240F207300C2103F0F2FC4FF4447001210DF1360203F0C2
:20141000EBFC40F21130022107AA03F0E5FC40F2123002210DF11E0203F0DEFC40F21330C3
:20143000022108AA03F0D8FC4FF4457002210DF1220203F0D1FC04F168003A461523CF49D6
:201450000090102007F054F9314610200622A02307F04EF9314610200722A02307F048F9DD
:20147000314610200822A02307F042F9314610200922A02307F03CF90120CDF81490C04D3E
:201490008DF8370083468DF8380005AF8DF839904FF4816204238DF83AB029460097102006
:2014B00007F026F90DF137004FF4806200905B462946102007F01CF90EA840F20242009014
:2014D0005B462946102007F013F90DF1390040F2034200905B462946102007F009F90DF144
:2014F0003A0040F2064200905B462946102007F0FFF8C84910204FF0FF3207F0F9F8C649C2
:2015100010204FF0FF3207F0F3F8C44EC44F10201323C44A00903146019707F0E9F8C2481F
:20153000007880000CF0E6FCC04D0146A96069B14FF6FF7010F09AFFBD49102005F11402BF
:20155000009011230191314607F0D2F80220D8468DF83C0003278DF83B8004268DF83D7026
:20157000C9498DF83E6009AB48460A6809791A600DF13B02197159460AF05AF90FAA58466E
:2015900059460AF055F902200DF13D0259460AF04FF90DF13E02594638460AF049F9052157
:2015B00009AA30460AF044F904F11C0004F12402C5496860102007F09BF8207811F0A8FBC3
:2015D000C2490246102007F093F8207811F0A0FBBF490246102007F08BF8BE49102007F09A
:2015F00087F8BD491020324607F082F8BB4DB2A04FF6FF712860484611F05AFAA768DFF8DD
:20161000E0A257B12E7946B150468760052101704946C160284610F0B9FECB4E06F1180081
:2016300006F10C010BF0BAFBCB49B06012F0F2FDCA4FB0684FF4E0213A46521E10F04AFF23
:20165000B0684FF4E0213A4610F044FFC54FB0684FF0C0513A46521E10F03CFFB0684FF05D
:20167000C0513A4610F036FFBF49CDF80090C8224B4606F124000FF0A5F9BC48BC4970602B
:20169000102007F035F8BB4D28786F78F7B907E008020020911301007D400100BD840110E1
:2016B00004F11801296211F033FB05F15407CDF80090024605F14400019005F11C060297E8
:2016D000C4490396AB78102007F012F85546E068C14A49464FF0FF3313F0D0F9071CF6D05D
:2016F000484604900DA904AA06A811F05FF8002840F0DD80BDF818102078D846102940F09D
:20171000CF809DF83410884240F0CA80049E31884FF6FF728A4200F08D803378913B31D0FB
:201730001F3B40F0BD807178162910D03279A06829787E2A08D07F2A1AD13289C8A30092AA
:201750004A4611F044FC13E0327AC9A3F7E711F0DFFACDF800B0C14972880346102006F0FD
:20177000C7FF28B940460DF0E7F8C846666197E0317906F1080013F07DF991E0E5DC0000B0
:201790004D4B000070780E3825D0801E3DD02E3840F08680B0780C2840F08280F378A16835
:2017B0002878ABB9401CC2B2B5A3084611464A4611F00DFCF079012814BFB6A0B7A000900C
:2017D000A1682878B7A3801CC2B20846114664E0401CB8A3F8E7B08842F2030181425FD104
:2017F000B1680E78002E5BD1491C0BA80A68496802600BAE41603078BF490BAA00F0FD0097
:201810003070102006F074FF4AE00820494606F0CBF845E081360100393A0100672C010000
:20183000D4580100E40B0020694F0020940E0020E05801007088400832D3666986B3607864
:2018500006F10803401C6070AA49009372883379102006F04DFF5FFA80FABAF1160F15D024
:201870002078BAF1040F11D0666911F051FACDF800907A4972880346102006F039FF5046B7
:201890000DF05AF80CE0C04639590100607800902978A0688CA3491CC9B24A4611F097FB21
:2018B000049820B1B8F1000F01D012F080FDF80FC0F0AF80A7E0C046424C452050657269AD
:2018D00070686572616C00C0953801005188011031810110CDD10000A53C01009C140020F1
:2018F000881500202069064613F0C0F8864208BF4E4602D0866811F021FA301CB04600F05A
:2019100082800188491E78D0491E53D0891E77D18078010930D2400972D30E2012F0FCFA4C
:2019300000286DD16868697803790A46934217D0FF2A65D000EBC203DE683EB900EBC10001
:20195000006910F023FD5BE0B812002000EBC20003690846984753E0AD1F01000E000580F0
:201970008068EEE70E000010153F010067430100C5AB0010C00500200D2012F0CDFA0028F9
:201990003ED169686878097981420ED0FF2837D0401CC0B210F0D6FEFF2802D1484610F0FC
:2019B000D1FE687008F0E4FE2AE0484610F0CAFE687025E083782E78D4F808A0761C6BB196
:2019D0009B1E1DD102200DF13F0110F081F943A30AE0C046F3150100030000C048460DF148
:2019F0003F0110F075F940A39DF83F00F1B24A460090504611F0EBFA02E0807804F030FA3B
:201A1000404611F09BF9206913F02CF800283FF469AF78080FD3206A06215A4610F0DAFAF1
:201A30008DF840B040F20530594610AA03F0D4F9324812F0DDFCB808FFF449AE206A0621F1
:201A50004A4610F0C7FA8DF8419040F2053059460DF1410203F0C0F939E6C046274001004F
:201A70004D54552053697A653A20256400C046C046432056696F6C617465643A2025640038
:201A90005048592055706461746520436F6D706C6574650032204D62707300C031204D62C5
:201AB000707300C043757272656E74205048593A20257300504859204368616E67652066B0
:201AD00061696C75726500C05273702073656E642072657472793A20256400C0436861723E
:201AF00020333A20256400C04368617220313A20256400C0DDFE001095B40010C802002040
:201B10002DE9F04F0F4685B0804617F8010B8DF800004FF4B07008EB00044FF49C7008EBD4
:201B300000059DF800104FF4C67008EB0006182908F1E70A08F1660908F20D1BDFF86C077A
:201B500000F2A183DFE811F019007200660194009F039F03FD007903140127010101100104
:201B700038019F039F0384019F0368015C018503E402E40236029F03810217F8010B88F89F
:201B900086000222394608F1880012F067FF0146022208F18A0012F061FF0146022208F16F
:201BB0008C0012F05BFF0146022208F18E0012F055FF074698F88600400088F8860008F143
:201BD000860108F18600022240884000488008F1860080884000888008F186000089000123
:201BF0000881394608F1840012F038FF08F10601B9F81E004988401A80B247F6FF71884274
:201C10002BDA08F1860008F18601C0888988401C4900484308F186010989884228BF3B2009
:201C300080F04082012089F81C001CE00522394608F1610012F012FF0146022208F192009F
:201C500012F00CFF08F1860008F1060180894988401A80B247F6FF71884280F2228208F1FC
:201C700086010120887208F10601002008834CE29AF81600C0070AD41A208AF80E009AF830
:201C90000D00012808BF0D213FD00D21D7E1002089F8000089F80600082201208AF811000E
:201CB000394608F1B00012F0D9FE0146022208F1B80012F0D3FE08F1A804014608222046A8
:201CD00012F0CCFE07460821204612F0C3FE08F19C0404223946204612F0C0FE042120469A
:201CF00012F0B8FE08F1A00012F0B0FE08F1980012F0A8FEDFF8B805018841F0800101804A
:201D10009AF80D00012806D10421404605B0BDE8F04F10F023BA99F81000012804BF99F8D5
:201D300011000F280BD140460EF080FA042140460DF014FF0F2089F81A00FD217FE1042149
:201D50007DE101208AF80F00ACE2002089F8000089F806008AF800000B2101208AF80D004F
:201D700000208AF801006AE101208AF8100099E2002142187B5C547A23437B5452781A40BE
:201D900008EB0103491C082983F8FD20F1DB40460DF0F0FD7CE2002142187B5C547A2343EE
:201DB0007B5452781A4008EB0103491C082983F8FD20F1DB022053E299F8060008B93D2023
:201DD00070E19BF800000128D1D017F8010B8BF8030002224FF489703946404412F03EFE03
:201DF00001464FF48A700222404412F037FE01208BF800009BF8020000281BD10C211EE1F7
:201E10009AF81600C00601D41220D9E040460EF0A1FE3DE2387845E138782070787860706C
:201E300099F8100001280DD199F811000F2802D0162803D036E20120687333E2307B40F02A
:201E500001001EE205B0BDE8F04F002011F024BE9AF81600810706D41121084201D10F204E
:201E7000AEE01A2254E03878797800EB01202882F978B87800EB012068827979387900EBD8
:201E90000120A882F979B87900EB0120E882387A2876B97A787A00EB01206883397BF87A3C
:201EB00000EB0120A883B97B787B00EB0120E883397CF87B00EB01202884B97C787C00EB49
:201ED00001206884397DF87C00EB0120A884B97D787D00EB0120E8844FF4AA70404404906B
:201EF000688B0390287E029008F1060040880190E88A0090AB8A6A8A298A40460CF090FDCF
:201F100068B19AF81600400701D40F2058E01E22404605B0BDE8F04F0F210FF015BF688A19
:201F300008F186018880A88AC880E88A0881022088F886000020488008F1060108F1060085
:201F5000C08DC01DA9F81E0008F18600898D808888420FD108F1860008F10601C088C98D24
:201F7000884207D108F1860008F106010089098E88421DD099F81000012804BF99F811002A
:201F90000F2807D099F8150020B10F2089F81A00FE2154E0FC2140460DF0E0FDE88A009010
:201FB000AB8A6A8A298A98F8060012F047FD79E1102144E09AF817000921084203D1162083
:201FD0008BF80C0061E17978387801F00701084038700146707B0840F07212D0411E08422F
:201FF0000DD0400703D5B07B08B1042003E0F17A0220014201D0F07201E04008F9D1F07A8A
:2020100008B9B07AF072F07A042803D140460EF068FEA083F07A12F00DFD3071A28BB17B7C
:2020300001230FF063FC0146208B884205D3A28BB17B307901230FF059FC70801721404652
:2020500005B0BDE8F04F0DF089BD78783978814207D100F007000840387034D0421E1042BB
:202070000FD01E22182140460FF06EFE98F80610002300221E200AF017FC307B40F04000B6
:20209000FFE0F072F978B87800EB0120308108F1060130894988401A80B247F6FF71884204
:2020B00006DB28208BF80B0001208BF80A00F9E00120B071F07A042803D140460EF011FE93
:2020D000A083F07A0BE099F81100162806D1B27A98F80610134600200AF0E6FBB07A3071D0
:2020F000A28BB17B307901230FF000FC0146208B884205D3A28BB17B307901230FF0F6FB05
:202110007080307B40F04000307301202870C9E03878797800EB01206082F978B87800EB84
:202130000120E0827979387900EB01202082F979B87900EB0120A082A18AE089884288BF45
:202150000846B17A042904D1B0F5296FD8BF4FF42960E28BE0839042B07A14BF4FF001096C
:202170004FF00009042803D140460EF0BAFD04E0A089E18A884288BF0846A28BA0839042D3
:202190002089628A238B14BF01210021904288BF1046984241EA090114BF0122002242EA14
:2021B00001052083A28BB17B307901230FF09EFB0146208B884205D3A28BB17B30790123EE
:2021D0000FF094FB70806189208A628B814288BF01466183914214BF0120002005438A42C0
:2021F000344998F80620096801EB4211628B8041121DC00F0A7610B1404610F0B9F99DF832
:202210000000142810D145B1E08B0090638BA28B218B98F8060012F009FC404605B0BDE85C
:20223000F04F15210BF046BC1DB1307840F008003070307840F020001BE038780E280ED017
:202250000F2809D0122804D014280CD0162812D028E00020287225E00120287322E0032070
:202270008AF815001EE0307840F00200307040F01000307016E0307B40F00200307340F0B9
:20229000100030730EE08BF80C1040460EF002F940B905B0BDE8F04F074800784FF4804112
:2022B00009F026BB05B0BDE8F08F00BF64270020524F0020D02700206E4F00202DE9F04FE7
:2022D000D34C04F118012046ADF1440D0EF002FB00264FF6FF70012132466670CD4F208269
:2022F000134604F1A400009139460EF06BFB0221324604F1C8000091134639460EF062FB4C
:202310000425324604F1EC003946009513460EF059FB04F14409AA4610224846314684F887
:2023300002A00CF068F904F1540B1022584631460CF061F904F11C08C8F8006004F10A075E
:202350003E70E671267207206072CDF80090DFF81893022210200346494606F0C9F91020EC
:2023700003224946CDF800B0034606F0C1F91020524653464946CDF8008006F0B9F94FF00F
:20239000080B4FF0030907F12A000C9007F179000D9007F11E000E9007F15A000F90243703
:2023B000109717E06078A28FE18FB4F84050B4F8423006280ED1ADF81A20ADF81C10ADF83A
:2023D0001E50C048ADF8203012F014F8012006A90BF0C4FCA069BA4A31464FF0FF3312F0F2
:2023F0004DFB071CF6D002960DF122000DF12E0102AA10F0DBF9002840F0CA81BDF82210AD
:202410002078102940F0C0819DF82E10884240F0BB81029D29884FF6FF728A4200F0A98175
:202430002B78A23B00F08C812E3B40F0AD81A978B046002900F04881891E00F01781491EB9
:20245000012940F2E980891E00F0A880491E7BD0491E5CD0083900F06381891E40F06681D0
:2024700094F83A30A888052BADF80C0047D001208DF81600934811F0BDFF94F83A000128EB
:202490001ED004281CD003280DD002280BD00298C188ADF80E100189ADF810104189ADF8B5
:2024B0001210818927E0A08FE58FADF80E00B4F84030ADF81050B4F84210ADF812301AE083
:2024D000A08FE9888842D8BF081CADF80E002989E08F8842D8BF081CADF810006989B4F81B
:2024F00040008842D8BF081CADF81200A989B4F84200884200DC0846ADF8140001E08DF81D
:202510001660AF49102003AA06F0F2F80EE1AD4811F070FF6B78002B40F00881E888608213
:202530002889A0826889E082664811F0A7FD002840F0FC80656A002D00F0F8802B68608A5D
:20255000A18AE28A9847F1E0AA88B549102006F0CFF80C98414606220CF04DF86682A68263
:20257000E682A8792073574811F044FF954811F041FF4FF001084FF6FF702379208253B9E8
:20259000A879082812BF84F801A005206070404611F09CFDCAE084F80190C7E06B787BBB60
:2025B000291D0C980A680260898881800623637068892082E8896082288AA082688AE08231
:2025D000E878E07294F83A00012818BF02280BD1994910201F2206F08BF84FF47A7180B241
:2025F000414338480FF02EFD68895346009091490193EA7810202D1D2B4606F079F898E0E9
:202610006878312840F08980E67084F801A090E0C0050020DD4001006B78002B7DD1A878D6
:20263000E1896278032812D0E078257921B9012814BF2671E67005E0054303D07F480FF0BA
:2026500001FD6278072AE0D10620607071E0062A07D0E578002D08BF84F8019069D00220A9
:20267000F3E70720F1E7C046753801006B78002B53D1EB78617893B902291DD007291BD0D0
:20269000062902D12079012816D1032914D06B4811F0F4FC80B9012011F018FD0CE010F06F
:2026B00037FB0246A079624900900D9843460190102006F01DF868706D78002D2DD135E045
:2026D00007000080880600206B7833BB5C485749009002221020034606F00AF859484A464A
:2026F000524900901020034606F002F8ED1C0E9829680160A988012381802078637010F0D4
:2027100007FB024601230F9D6079494900901020019505F0EDFFC0B258B184F801B008E05D
:20273000AA8841491020052305F0E2FFB8F1010F2AD1256A45B3296831B36078884723E045
:202750006879132820D12889012808D1607B022805D11C4811F04EFE10F05AF814E0364958
:202770001020052205F0C4FF81B216480FF06AFC0AE06888C00B07D333482C4952465346A4
:202790000090102005F0B4FF029808B111F00FFE2579E078790830D355EA00032DD0204641
:2027B00000788DB9E179257A8DF82410109A8DF8255013680DF126052B609288AA8005E09D
:2027D00005160110AC0600208DF82490617A8DF82C10A17A8DF82D1010F09AFA1149024603
:2027F00009AB102005F084FF38B1256A84F801B01DB1296809B158468847B80803D3134950
:2028100030460BF0ABFAF808FFF4E4AD607B401E3FF4C8AD401E7FF4DDAD0FF0F9FFD9E51D
:20283000FD04010059440110C11701106DAA00000945011085A40000F5840110640600203C
:202850000406002014060020DC050020FA0500202DE9F84F01200FF0D9FE01280ED1DFF8B1
:20287000E45429680020487128680EF011FE04F011FC040003D1812012F0D4F85DE2012061
:202890006071DFF8C464DFF8C4044178491C41702968A07981F8A00040200BF05DFF2060F0
:2028B000307901281CBF002011F0F6F8F0682168DFF89C6400F5B060C860306800680079EE
:2028D00003281CBF002011F0E7F83068DFF88494006800F1080A4FF4977004EB00089AF81D
:2028F0000000C0F3801088F8000006224FF494700AF10201204411F015FA04220AF10E01F4
:2029100004F1240011F00EFAD9F80000A37900EB431004220AF10E010C3011F003FAD9F81F
:202930000000A37900EB431003220AF11201103011F0F8F904F12C079AF81500B8700222AD
:202950000AF1160104F1300011F0ECF902220AF1180104F1320011F0E5F902220AF11A01D2
:2029700004F1340011F0DEF93889608402220AF11C0104F1360011F0D5F9B87879894000F9
:20299000B8700901B88879814000B88089B2F8884000F88080B2628C521C43005A438A4296
:2029B00000D238B9DFF8B0030078802108F0A0FF3B21F5E004F12E01204610F039FE0520F3
:2029D000A081204611F006F805220AF11E0104F1610011F0A7F99AF823004009387012F081
:2029F0001DF860822968DD4D498A401AA8F80C0004F161019AF82300DFF864A300F01F0043
:202A1000F87320460EF092FF31680968002008711C26A1792868714341F6210242520022F3
:202A3000A179714301444A80A1797143084442609AF80200400609D5CA48008841F20A411D
:202A500088420CBFC848C948C4F89C012046D4F89C118847A2792968724311448873A179DE
:202A70002868714308440021C173C148007870B1B88860B978730120208160812046D4F8A6
:202A90009C118847A2792968724311448873A179286871430844807B787394F8960108B985
:202AB00010F0FAFFA1792868DFF8C8B27143084494F89611491E01740022A1792868714383
:202AD000084400214174A0792968704308444282A279D9F8000000EB421372430A44536174
:202AF000A27972431144A44A8A61DBF8141091F800C094F806E05FEACC714CBF1021002133
:202B10005FEA8C724CBF202200225FEA4C734CBF402300235FEA0C7C4CBF4FF0800C4FF070
:202B3000000C1143194300EB4E104CEA010141F00F010172D9F80000A17900EB41100B2141
:202B50004172D9F80000A17900EB411004218172D9F80000A17900EB4110884909780129D0
:202B70001CBFDBF828104978C172D9F80000A17900EB41101F210176D9F80000A17900EBB7
:202B9000411000214176A07909F0A6FCA279D9F8001052018850A0794201895821B90721E2
:202BB000204610F0E4FCC8E07549096801EB001011F030FF724AA1791268D9F8000002EBAE
:202BD000011200EB41114A60A17900EB41114968F963A17949014058786404215E4800786C
:202BF00008F086FE6249B888097800F1020E19B110B9F88800F1020E608A00FB0EF04FF4A2
:202C1000C871B0FBF1F0401CC4F818E0606140F6C41394F806C02968226806FB0CFC8C44BB
:202C3000CDF800C0D2F80CC003FB0ECCACEB0000A0F5A86C0098C0F808C0A0797043084421
:202C500080689060A07970430844017B01F0EF010173A179286871430844017B01F07F010C
:202C70000173A179286871430844017B01F0F00141F002010173A179286871430844417BBA
:202C900001F0F00141F001014173A1792868714308442168806808616269D9F80000A17921
:202CB00097F802C0520000EB411103FB0C2202F5F6624A61A17900EB4110C17C01F0F00189
:202CD00041F00401C174FA88D9F80000A1795A43DBF830301B6800EB4111D21AA2F5167271
:202CF000CA61A17900EB4110C17E01F0F00141F00401C176A17928687143084421684860DA
:202D10009AF80100800615D5B8F83A001B2804BFB8F83C001B2809D1B8F83E00B0F5A47FF1
:202D300004BFB4F86E01B0F5A47F03D0142120460CF014FF134907200870BDE8F14F01F08F
:202D5000DFBA00BF104F0020B44D0020684E0020F44B0020D02700206E4F00203C240020C2
:202D700064270020504F00202BFC000043080100784E0020845901005C4D0020734F0020F7
:202D90008C4E00206F4F00202DE9F0475FEA000882B00BD1002010F07FFE07E040460DF098
:202DB00079FB012864D140460DF040FA08F16605687D00285CD04FF49E7008EB00044FF44C
:202DD000B070697CDFF894A408EB00094FF4C670022908F1EC07404408F1060635D0042988
:202DF00049D005295FD0062900F08E800729D5D0092900F0F4800B2900F0C6800C2900F026
:202E100026810D2900F0D5800E2900F0F6800F2900F05D81102900F07881112900F096817A
:202E3000122900F04181142900F0D681162900F09781172900F0C381FC2919D0FD2900F032
:202E5000F481FE2900F0F681A4E7287C012809D19AF80300002814D01621404610F087FB4D
:202E7000012006E040460CF0F2FB2874E88A28830020BDE8F687287C012810D19AF802008F
:202E9000002800F01881FC2140460FF067F9307808F1B80208F1B00111F0B8FD86E74046C1
:202EB0000AF0FEFAE1E7287C012810D19AF8020028B1012088F89400002038607860B87A36
:202ED000012869D1062140460FF048F96EE708F1E7063078012809D140460FF025F80128E1
:202EF000C6D10020B87201202874C1E770780028BED008F1C70208F1A00108F1D70011F0B1
:202F100081FD0120307051E7287C012838D19AF80200002840D0B08B308340460DF086F998
:202F30000120287040460EF07DFB0120A871397A787C012900F010000CD130B10020607112
:202F500020684108A0790CF01BFB3078002111F055FD0FE048B14FF4A17008EB000320688F
:202F700042084146BE4811F0A9F930780122002111F040FD002038723873F872B87215E798
:202F900040460DF05BFB70E7287C012805D1F87A012808BFFC2196D08DE040460CF084F9FD
:202FB000012853D10020F87288F8940001202874FCE6287C01280ED19AF80200002809D036
:202FD000002088F894000120287040460EF02AFB0120A871BDE040460EF0C8FC45E7287C5C
:202FF000012806D19AF8020000281CBFB08B3083A6E040460CF0BEFC37E7287C01281DD1A1
:20301000387C022808F1FD0204D13178002011F0EDFCC8E6032806D131781A2011F0E6FCCC
:2030300000203874BFE6288B411E298389B200290CD13178222011F0D9FC42E040460BF0AC
:20305000C1FF2874E88A28830120387410E7297C012908F20D1021D14FF4897108EB010218
:20307000017801290BD14178012907D1518800911388C2783178002011F0B4FC93E6298B20
:20309000491E298389B20029E0D1518800911388C2783178222011F0A5FC12E00121817027
:2030B00040460BF083FCE0E6287C01280BD19AF802000028E2D1288B401E288380B200280C
:2030D000C4D12221C9E640460DF01CFDCDE6287C012816D1607A012803D199F800000F28B7
:2030F0001CE0207A012829D100202072288D00090090A88CEB8C317842081A2011F06EFCC4
:2031100051E6404609F0DEFAAFE6287C012819D1607A012812D199F8000010281CBF00201B
:2031300010F0BAFC00206072288D00090090A88CEB8C3178420899F80100DFE7287F0028C4
:20315000DED1B8E7404609F00EFB8EE6287C012802D19AF80300F2E740460CF03CFC84E6E3
:20317000297C012926D1017B4A062ED4CA070AD501F0FE0101730023317899F80100002217
:2031900009F092FB0FE68A0707D501F0FD0101730023317800221A20F2E7288B411E298315
:2031B00089B2002955D1317800230022222009F07BFB86E71621404608F024FE55E6297CB2
:2031D000012907D1017B4906BBD5017B01F0BF010173E8E51721EEE7297C012920D10178CE
:2031F0008A0617D501F0DF010A0701700ED501F0F7010170B9F81E000090B9F81A30B9F8A8
:203210001C20B9F81810307811F010FC002089F80600C8E58A0794D501F0FD010170F5E74A
:20323000142140460AF046FC1FE6A97E40460EF095FFBBE6A87E0F280CD1FC2140460EF0C7
:203250008DFF608A0090238AE289A189307811F0F5FB0DE6002010F01FFC09E65C4D002097
:2032700079E600002DE9F84FDFF8F443A078FF2804BF002010F010FCA07810F061FE044685
:203290004FF4C97004F1680625183068006804F1900708B100200EE0B07B002804BFB07E6B
:2032B000002809D13878002801BF28780028207F012801D1608CE0832089E18B0818401C22
:2032D0006081204610F06CF801281EBFE5480078012804D10020E0832089401C6081B07EF3
:2032F00001280CD1B28B6189208911F073FB30B121896289481C82422AD0B28B1FE03878F5
:2033100001280CD17A886189208911F063FB30B121896289481C82421AD07A880FE028788A
:20333000012815D16A886189208911F053FB00281FBF2189481C6289824209D06A88824248
:2033500006D0501E608180B211F040FB401EE0832878012801BF68882189491C884207D1DF
:203370006A792A71002028701346A17909F09CFA4FF49A702044007920B10020E0832089DE
:20339000401C608104F12E07B07E012801BFB08B2189491C884237D1608104F186012046C0
:2033B00010F046F9B08CE189608400202077E08360890818A0812189B08B11F007FBB988C7
:2033D000328C01FB0028708CF28C884204BF3B899A4202BFB18CFB88994207D01109009176
:2033F0004208B38CA179002011F0F8FAB07F3870708CB880B08CF880F08C3881204610F0AD
:20341000E9FA0220B07601E0B7F80480E08BDFF85892411C01FB08F140F6C41808FB01F2D7
:2034300000922268DDF800C0D3686344DFF83CC2D360DCF800C08E4A9CF800C013884FEA4D
:203450009C1CBCF1030F12D199F80FC05FEACC7C48BF00230BD45B1C9BB2012B07D14FF4FD
:203470009A7CA444BCF806C00CF2DC5C01E0B4F812C00CFB01FC4FF4C87EBCFBFEFCDFF81A
:20349000F4A10CF1010CC4F814C04FF01C0B138084F82000A161A279DAF800102068C368A6
:2034B0000BFB02F20A4492680261A279D4F814C00BFB02F20A44A3EB0C039360A2790BFBA3
:2034D00002F20A4492688260A0790BFB00F00844017B01F0F00141F002010173A179DAF871
:2034F00000000BFB01F1084400214180287908B910F0D2FAA179DAF800000BFB01F1084438
:20351000297949080174A179DAF800000BFB01F10844002141742879042812D1A179DAF891
:2035300000002A7A0BFB01F10844017C41EA82010174A179DAF800000BFB01F10844202182
:2035500041740022A079DAF800100BFB00F0084442824948A2790068D4F814C000EB421290
:20357000536903EB4C035361B27E022A07D1A2793E7800EB4212536908FB0633536199F80D
:203590000F20D20740D5A2790BFB02F20A449368A3F5A8639360A2790BFB02F21144226816
:2035B00089689160009BC91A1161A17900EB41114A6902F5F6624A612979042906D1A17965
:2035D00000EB41114A6902F5B0624A61A17900EB41114969C4F8341128490D6BBB88A279E6
:2035F0002D6808FB03F300EB42125B1BA3F51673D361A27900EB4210214A1278012A0EBFDE
:203610000121896A497818E0A279297900EB4212042952690CBF4FF44B614FF4E661511A39
:20363000BA8808FB02F2A2F516729142D4D3082120460FF09CFF01200FE0C172A179DAF850
:2036500000000BFB01F108442168486007200D49087020460EF049FA0020BDE8F28F00BF44
:20367000684E0020784F00205C4D0020084F0020F02700203C240020D02700208459010091
:20369000734F00206F4F00202DE9F04F09AFADF13C0D08900A92388809911E46ADF81800B7
:2036B000101C08BF002000F08481002700F101094FF0FF3A4FF0010BB8466CE1252940F044
:2036D00063811078521C0A922D2818BFADF8068005D15846551CADF8060010780A953028FE
:2036F0001CBF4246434605D10A9908785A465B46491C0A912A28CDF80080554616D13068E3
:2037100004930A99CDF808A0C01C4B1C20F00300001D306050F8044C0A93002C087800947A
:2037300018D5ADF806B06442009413E044460AE0610001EBC40140180A99A0F1300408783E
:203750000094491C0A91302801DB3A28F0DBCDF808A004932E282BD10A9908782A2801F1A7
:2037700001010A9111D13068CDF80880C01C20F00300001D306050F8045C002D48BF4546D2
:2037900008782B46491C0A9111E0454643460AE0690001EBC50140180A99A0F130050878DD
:2037B0002B46491C0A91302801DB3A28F0DB02930AB1224604926C2804D04C2818BFADF881
:2037D000048005D10A990878ADF804B0491C0A910BA9CDF80C800FAB07916428059300F098
:2037F0008B80692800F08880BDF818C0752872D078286ED06F286AD0702850D063283DD0BA
:2038100073281ED009980A990128A1F101010A9115D96B490C68B5F1FF3F03D0A84288BF75
:203830006D1C00D8099D029508A80AA932466B46A047C7190A99039801F1010974E0404673
:203850002AE030680A99C01C20F00300001D306050F8040CBCF1000F01F10109014608B95F
:2038700055A00146079110F093FB0390B5F1FF3F5BD0A842C4BF281C039056E03068C01C46
:2038900020F00300001D306010F8040C5D468DF82C000A990395584601F1010945E00820CA
:2038B00035680490E81C20F00300001D306050F8041C082210230FA80BF0D2F9401E0790CC
:2038D000402101700A99079801F1010929E0082302E0102300E00A230A99306801F101093B
:2038F000C01C20F00300001D306050F8041CAA42BCBF2A1C049210E00A99306801F101094A
:20391000C01C20F00300001D306050F8041CAA42BCBF2A1C04926FF009030FA80BF0A0F99A
:203930000790059D281A0390009C241ABDF8065000945DB906E008A8202109AA0FF071FBE5
:20395000009C7F1C641E0094F5D503980546401E039075B9BDF80600E8B10098401E009061
:2039700019D408A8202109AA0FF05BFB00987F1CF4E70798411C0791017809AA08A80FF0D4
:2039900050FB03987F1CE1E708A809AA0FF049FB7F1C09F101094A460A9812F8011C401CD4
:2039B00000290A907FF48AAE089808B14146017038460FB0BDE8F08F286E756C6C2900C00B
:2039D000585901002DE9FF47BA4C0F460646F80B80F04681B80880F03381207BDFF8E09220
:2039F000B90F80F0A780A07A002840F087803809C0F08680E07A20B10020E07205200EF028
:203A100083FD00254FF001086570284684F8088007F0ABFEA84904F178002A4610F0D9FC1F
:203A3000607901281AD1A079C0B9DFF89082D8F8000000283CD048460068006B8047A169D8
:203A50004346401A000BE0611968226A8018B0EBC11F98BF20622BD9256201E084F80580C1
:203A700040F609002087974994F845000A1D00F0F00040F0010084F845001368658794F8B3
:203A9000440000F0F00084F8440023F002001060E5636FF002020A6004F1380341F8103CE3
:203AB00008688008FCD30A60486840F002004860A5610EF077F88448056002200EF024FD56
:203AD000112007F075FF307C10B90E2007F070FF25726572A078012803D006F1400010F078
:203AF00071FF7A4810F072FB79490878F8B10D7004F1D400042110F05DF918E0380914D24C
:203B1000B80BC0F0CE8004F1280010F06DFC061C08D0706830B17568F068B6F91C10002269
:203B30002023A84727F40057BBE00020A07227F00807B6E020B104200EF0E6FC00202073C0
:203B5000B168088840F602084FF0000A80450AD0B0F5C15F07D00A8B4FF61F60104040F40B
:203B70003470088306E00A8A4FF61F60104040F434700882A069D8B14D46686D016804208F
:203B90008847A8B12868006B8047A169814226BF401A401E401A000BF060708AF168401861
:203BB00040F6C411F06081422CBFB0F5FA7FF160B5699DB14748A84210D094F8450010F0E7
:203BD0000F0F0BD1718D08F10700884206D130466FF4807152464FF00073A8473E4904F1BD
:203BF0007800524610F0F5FBA07958B10220ADF8000068460FF03EFA84F806A0BDF8080008
:203C1000A4F87400012060702079401C207104F1240084F807A010F0E7FB002808BF47F0C9
:203C3000020702D0192010F079FA75692DB1514630464FF080630A46A84727F0005730E045
:203C500004F13005284610F0CFFB06F083FF284610F0CAFB27F0020708B147F0020720E02E
:203C700010F0ACFE014604F12C0010F0BDFB0646B569A80810D27EB125EA0500B0610846CC
:203C900010F098FE706850B12A46F068B6F91C1075680023A84702E0084610F08BFE27F43F
:203CB000804727B104F1D400394610F083F80090BDE8FF870009002041340100CC27002025
:203CD0008C0100101010044000000460419F0000C827002047E900006DA20000BB482DE928
:203CF000F84F0025BA4CB849056094F8E200002800F06581012800F02F81B64E02283CD06D
:203D1000032840F05C8151F8250CD4F8B8100029A0F5C060C4F8D400B8BF49420028B8BF3E
:203D30004042814226DA4FF08057D7F8A4014568B4F8BC0030214FF47F4208230090304609
:203D5000A847D7F8A4014568B4F8C00004214FF4F802122300903046A847D7F8A401B4F82B
:203D7000D070456820214FF440620A2330460097A847012584F8D8501CE151F8258C10F036
:203D900037FA2F4600B901273946934F38680028FCD0B146012609F10409D9F82CA03E6037
:203DB00009B110F02BFACAF30720C4F8BC0010F01FFAAA4600B9B2463B68002BFCD0D9F893
:203DD00000B0BAF1000F3E6001D010F017FACBF38440C4F8C00010F00BFAAA4600B9B24645
:203DF0003B68002BFCD0D9F81C90BAF1000F3E6001D010F003FAC9F38120C4F8D000B8F5E0
:203E1000C061C4F8B81000F09C8094F8D80068B9C4F8D410D4F8C000C4F8C800D4F8BC70B4
:203E3000C4F8C470D4F8D030C4F8CC30D4F8D410D4F8BC30002954BF02206FF0010004F1E3
:203E5000C802176801EB41014018411000EB917107EBA1001060D4F8C810C4F8C4300029C5
:203E70001CDD1E293CDDD4F8CC0030B93429B4BF15391E21C4F8C81025E02A29BABFD4F8CA
:203E9000C8000B381E20C4F8C800D4F8C4003F28B4BF401C3F20C4F8C4001FE0D4F8CC0009
:203EB000032812D011F10B0FC6BFD4F8C8000B30301CC4F8C800D4F8C4000028C4BF401E0C
:203ED000051CC4F8C450032508E011F1150FC6BFD4F8C8001530301CC4F8C800C4F8CC50A5
:203EF0004FF08057D7F8A401B4F8C43030214FF47F424568374800930823A847D7F8A401E6
:203F100004214FF400321123456832480096A847B4F8C860D7F8A40104214FF4F802122338
:203F300045682C480096A847D7F8A40120214FF440620A23B4F8CC60456826480096A8478C
:203F500001E084F8D85040F2FF50404502D8801C40452FD2082030E051F8251C1F4F4BF25D
:203F7000F5204843060A3868C0F3814001280CD11B480068006880470DF0F6FD10F044F940
:203F90003111C010484306EBE03694F8E50030B91448006820F07F408019460801E084F83C
:203FB000E5501148310C0660012741600F4D8760287808B90B2000E0052084F8E40004F0CF
:203FD00001FABDE8F88FC0462D400C402C500C40B80F002000A00C4000800C40B43F005041
:203FF000EC010010102009403C600C408E5801002DE9F04F0C46E00789B00CD50FF0AAFF1C
:2040100030B100218160AF480068010018BF804784F0010052E1A00710D500200690059030
:20403000049003900290019000900023012200213C2010F0BBFC84F002003FE11E256007DC
:20405000A14EA24F40F1A080002007908346A0488078FF2804BF00200FF01EFD386890F873
:20407000A0000FF06DFF80464FF4947008EB000A3868C07A98F82E91022818BF032806D1EF
:2040900006F10D0010F08EFC08B906F1070B5146484610F083FC90B33868807A010018BF5F
:2040B000012804D1314650460EF0A7FD04E05246494630460BF031FBFF283ED005FB00F96D
:2040D00006EB090506225146E81D0FF02BFE16F8090040F00209E81D079006223868807E31
:2040F00000F0010088F82E0105F1010A386800F114014FF4947040440FF014FE1DE05146F9
:2041100048460FF0C7FEC0B15246494630460BF004FBFF2811D06843351805F10D0010F032
:2041300041FC40B905F10D0010F03CFC002804BF687F012801D149F0020908F12C0008F1CF
:204150000605017806914B464189090905910122A98B0491C088CDF804B040080390CDF8E4
:2041700000A0079802900020297810F01FFCD8F89C015849884228780CBF0021012109F003
:2041900011FC84F0040099E0200610D500200690059004900390029001900090002301229B
:2041B00000213B2010F002FC84F0800086E0E0043BD5F11D06F10D0010F0ECFB38684179D4
:2041D000012923D1017A012918BF04291ED1C17A022918BF032919D1817E00F1140230464A
:2041F0000BF09BFAFF2811D06843351805F10D0010F0D8FB50B9E91D05F10D0010F0CAFB72
:2042100038680622E91D14300FF08CFD32484268324800784FF480510DF07EF910B18E20E7
:2042300010F0B4FB84F4805048E0A00505D50FF0DFFF2B4901200860FEE7600504D508F0DB
:20425000C2FC84F4806039E0600405D5812010F09DFB84F4804031E0A0042ED5214D2868BA
:2042700010B100200FF018FC4FF0FF3028600BF0BDFD1D4D296820316846096888471B48F2
:2042900041682D681A4A00916B468168019100210291016909680391017B00688DF8101003
:2042B000ADF812002D6813491348A8471349086003F00CFE84F4005000E0002009B0BDE815
:2042D000F08F00BF204F0020881D0020104F0020684E00202BFC0000784E00206E4F0020FD
:2042F000FC002043044F0020F04E00207013002008270020A815002040240020EC4E0020D1
:204310002DE9FE4FDFF8B082D8F80400029018B9BDE8F74F10F036BB0078DFF8A0A2A84E87
:20433000DFF8A0B2A84C01281CBF0228042846F2A81705D0402818BF802800F0968034E128
:204350000FF07AFF0028FAD00298007805F092FA8146D9F8045015B900200FF09DFB607807
:20437000002859D002F09EFD0FF0EAFD0190006800900146476848460BF032F8022827D016
:2043900099F800100129DAD190490968097A1BF80110317028B910F0F1FA00F5E8504C3090
:2043B000A8602869C17E01F0EF01C1762869C17E41F08001C1762869C17E01F0F00141F061
:2043D0000201C176B868824908182969C86147E000980078802810D1082030707D48007808
:2043F000012802D06078022801DB012002E0DAF8280000787969C8720AE0072075493070D4
:204410000978786901291CBFDAF828104978C17201988079A07072E0B9F1000F8FD0029980
:2044300099F80000494505D101281CBF00200FF033FB18E0012840F0B88064480068007A0F
:204450001BF80000307010F099FA3918A86810F091FA28B910F092FA00F5E8504C30A860FC
:20447000012088F8020048469BE06078002873D002F018FD0FF064FD8146D9F800000190AD
:204490004568A0780FF05CFD02900FF0DBFE0721084239D098F8020005F0ECF9009047685F
:2044B00001990AF09DFF02282ED000990978012927D146490968097A1BF80110317028B92F
:2044D00010F05CFA00F5E8504C30B8603869C17E01F0EF01C1763869C17E41F08001C176F4
:2044F0003869C17E01F0F00141F00201C176A868374908183969C861012088F802000098C9
:204510004FE000200FF0C8FA0298484522D001980078802810D1082030702E4800780128E9
:2045300002D06078022801DB012002E0DAF8280000786969C8720AE0072026493070097899
:20455000686901291CBFDAF828104978C17299F80600A070019824E00FF074FE0721084250
:2045700028D098F8020005F085F9054628786C6801281FD115480068007A1BF80000307064
:2045900010F0FCF93918A06810F0F4F928B910F0F5F900F5E8504C30A060012088F80200B5
:2045B0002846BDE8FE4F06F073BEBDE8FE4F00200FF072BABDE8F78FA8270020845901002F
:2045D0006F4F0020289A0110684E0020104F0020F0D8FFFF734F00202DE9FE4F0F46994C80
:2045F0000168616241688068A0609748616080479648616A01606168DFF870B24160A16811
:20461000DFF8648281609249002FA246C16069D03D68E8788DF8080028798DF8090002A835
:2046300010F0A4F9A86808B18A490160E86808B189490160894C2878207068786070A878BF
:20465000BE68A0703178E1707368636072696261B168A160F168E160316921612E697B6894
:20467000A6621868A0616869E062A8692063287F84F834002A6AA263786886681EB9002045
:204690000FF00AFA00E026627868C06818B900200FF002FA00E060627868406818B9002090
:2046B0000FF0FAF900E0E0612869A062F86881680E6806B96B4E6A494FF001094E60C66835
:2046D00081F801902EB900200FF0E6F9F868454601E045462E6000685C46FE68A0617068AD
:2046F000E06106E000200FF0D7F94FF001095C46454628685E494668621C04F1140350203F
:20471000B04710B1286880688047DAF804008047594F0026834669467E7056483E7004224F
:20473000206130460EF08CF80098B0F5801F0CD020B90EF0DFFB05F055FA08E00DF076F9EF
:204750000FF030FC0420788001E00EF0D3FB4B4FB0462868C7F808808069A6608047786060
:204770004748468080F8009014200FF0B7FCFF211422A0620FF042FEE01CFF2102220FF010
:204790003DFE14200FF0AAFC3E4908600868142231460FF033FE3046FCF70CF948460DF0C0
:2047B00069FF39480188FF2906D1022101807822001D31460FF022FE032010F0D3F8042075
:2047D00010F0CCF8052010F0C5F8062010F0BEF807200BF095FB2D4E0820307006F140001B
:2047F00010F0B0F80BF0FEFD363605200A2132460FF038F838B14046C0F10901401C06F824
:20481000011B0A28F8DB2F68214909200DF10A0201AB7D68087010204146A847A06AE2692F
:204830000A270A309DF80A1000F8011BDAF808107F1EF7D1921E5846E261884702F0D4FFC6
:20485000BDE8FE8FCC10002041490010F8440020A44A0100FD2D0100453C0100481300200D
:2048700028160020E7FC0000E81600204C14002089340100053D0100E41600209C2700204B
:20489000E0160020E4270020F0110020140D0020FD2700202DE9F04F0546A64CA878216AE4
:2048B000ADF11C0D801F00F03D81C01E00F02881401E77D0401E55D0C01E49D0401E40F0B0
:2048D0003481207A617A00283ED1607800283AD0A88810F033F8071C00F02781A87A4008DD
:2048F00009D3787938B1E968890A04D2B91D01AA07F0A0FD28B3207B022802D1A87A000985
:204910001FD36078AE887979C0B1607CB0B90120607405F10802304603F020FE002840F00B
:204930000481206A002800F000814368002B00F0FC80002130460A469847F6E00521304645
:2049500003E0032100E00521A8880FF0F3FFECE0002900F0EA804B68002B00F0E6806A78B4
:204970000221CBE00FF09AFB002800F0DE80276A0FB1386868B9286900280CBFE06901204F
:2049900069890FF0D3FF002800F0CF8068890121DBE7286900903C6869892A7B6B7BE81CC2
:2049B000A047C2E068784FF00008002840F09580A8794008C0F09180606A002840F08D8071
:2049D00001A841460E220FF019FDA8880FF0B6FF061C00F0AA806869002859D081464146C2
:2049F000062209F111000FF0D0F8C24620B3484606220FF0CAF8D8B999F8100009F1110B13
:204A1000474605907F1C5846FFB28BF800700EF087FA0A280BDA484B059A0101A1EB4001F0
:204A300058188079824202D1002FEBD100E01FB947464FF0010A6F61BAF1000F09D109F18E
:204A5000110101A806220FF06DF999F810008DF80A00BAF1010F1BD06F69CFB1387C07F124
:204A7000110106228DF80A0001A80FF05BF906F10C00B11D06220FF055F9B01D07F1110144
:204A900006220FF04FF9387C40F00200707107E07079B11D06228DF80A0001A80FF042F998
:204AB000A9799DF81120C1F3800010438DF81100080905D39DF8110040F008008DF8110084
:204AD00001A8294602F0C2FC28B92078022106F00FFF40462AE04FF015080FF0E3FB206A0B
:204AF00018B343680BB3A8886A7801219847B8F1000F1AD0206A032142464368A8881BE7AA
:204B1000E878291D002207F095FC0A280DDA410001EB800005F10C0225300421C0B205F08A
:204B30009DFF02E0A8880BF0E1FC012007B0BDE8F08FC046140D0020060E00207CB5A34D47
:204B5000144602460026A2F58062192A1BD8DFE812F031012A012201190111010C01040147
:204B7000FD00F300E700DF00D700C500B9001A001A00970081007A0065005C0052004700FA
:204B90003A0030002500282880F29A80022940F0978021880FF0C6FE064614E1012940F021
:204BB00011812178284601750121C17407F0CCFE09E1012940F00681002C00F003812846E5
:204BD0001230024614E0102940F0FC80002C00F0F98028465C30102221460FF0A3F8F2E0CE
:204BF000012940F0EF80002C00F0EC802A46921D21781046E4E0262940F0E480002C00F083
:204C1000E180284626226C30E6E7012940F0DA80002C00F0D7802846401D9CE0602900D13C
:204C300044B9012940F0CE80002C00F0CB8028460D3090E005F19200214660220FF072F863
:204C500001206873BFE0012940F0BC8020780FF065FEB8E0012940F0B5802178022900F33B
:204C7000B180284600F10C0211702178022918BF301C02D11021C17201200FF04BFEA2E0FC
:204C9000072940F09F80611C684606220EF02EFF20786946324607F0CDFB04460A2C0FDA20
:204CB0000FF034FE38B9204604F0B8FC0EF0AAFA0BF098FB87E0284601212C30015582E079
:204CD000022680E001297DD12A462178907B0028917378D12078012875D1E9E72846027B79
:204CF00001296FD1022A04D02178072901DB102904DD022A66D12178102963D1C17262E09D
:204D100001295FD121780A295CDA2846093057E0012957D12178022954DA284608304FE030
:204D300000294FD10FF0F2FD10B90FF0C9F8BDE7284601210F3043E0042943D121682448D7
:204D500088423FD328461C3001603CE0012939D12B4603F10A00217832E0012932D121781C
:204D700002292FDA2846C01D2AE010292AD128464C3030E7012925D12178022922DA284617
:204D9000001D1DE001291DD1217804291ADC2846C01C02462DE7012914D12178022911DAB1
:204DB0002846821C25E702290CD1218828461630018008E0012905D12178022902DC05480E
:204DD000017000E0182630467CBDC046140D00203F420F00150D00202DE9FC41A0F201374F
:204DF00014468846022F40F232819B4E9C493F1F0F2F04D9143F4CD0BF1E1CD011E0DFE82E
:204E100017F0CF00C9000D01FA00C100B9002601AF00A700100010009D008F007F007400A5
:204E30006600282880F21381B8F1020F40F00F818849238807E1B8F1010F40F00881F078EE
:204E5000012800F00481324620781179107189B9002800F0FC805078012800F0B580042871
:204E700000F0B280062800F0AF80052800F0AC80BDE8FC812078002840F0E98050780328FC
:204E900000F0AF80072800F0AC80052840F0DF80A7E0B8F1010F40F0DA802078012840F021
:204EB000D68006F1EC000FF0E9F8002840F0CF803446002004F13A0108F050FF002840F0B9
:204ED000C68004F1C8000FF095FABDE8FC81B8F1020F40F0BC8020880A28C0F2B880B0F580
:204EF000486F00F3B4808E1C17E0B8F1020F40F0AE802088B0F5FA7F80F2A9800E460CE06A
:204F1000B8F1020F40F0A38020880628C0F29F80B0F5486F00F39B803E363080BDE8FC811D
:204F3000B8F1020F40F0938020880628C0F28F80B0F5486F00F38B803C36EEE7B8F1010F73
:204F500040F085802078062880F28180454E0EE0B8F1010F7BD12078042878DA0A3606E011
:204F7000B8F1010F73D12078082870DA09363070BDE8FC81B8F1010F69D12078042866DA1A
:204F90000836F4E7B8F1010F61D1207804285EDCF61DECE7B8F1020F59D120880E36BCE7A6
:204FB000B8F1010F53D13079012850D032462078D178D07069B9002849D05078012803D052
:204FD000042818BF052842D101200FF07FF8BDE8FC81207800283AD15078022818BF052804
:204FF00035D110780DF094FE1C490246102003F07FFBBDE8FC8106F1830500211F222846C9
:2050100009F0F9FA21464246284607F079FE44463078B4710DF07CFE002311E006F1640587
:2050300000211F22284609F0E6FA21464246284607F066FE4446307874710DF069FE012360
:205050000094094901950246102003F051FBBDE8FC81C046BD840110C005002099450110BF
:2050700000060020FA050020094501102DE9F04F9E4C20780E46F10BADF11C0DC9036ED183
:20509000B0085ED2606AA16A720807D2F00828BF86F0040680F02581002023E1858861B930
:2050B00004F11800924A00904FF6FF71022301200FF028FC0146A16221B304A800900027C8
:2050D000019702230293FF220392228B28460DF1120301F0F1FC58B99DF813009DF812202C
:2050F000A16A12EB002204D0498928460CF058FAA16A228B08463B464FF6FF710FF0FEFBE0
:205110000146A162206A00291CBF012186F001061FD168B14368616A5BB188880022012129
:205130009847206A676A4368B888032100229847616A88880EF018FF0EF092FC86F001061C
:20515000CFE00020014602F081F930B1012186F00206207806F0CCFBC3E00221F7E708F04B
:20517000C1F85FEA000800F0BA80054628784FF0010AB03812D0401E03D01F3800F0A5804F
:20519000A7E02879002840F0A480B8F80200B8F80610B8F808200CF003FA9DE02879401E96
:2051B00041D0083803D0743800F0828087E068781A2879D0688881460FF06EF8801E18D0A9
:2051D000401E7CD1288901280AD16889032807D1E9688A78484604210BF00CFD024600E039
:2051F0001822206A00286AD04368002B67D0042116E02989688852460129814609D169895A
:20521000032906D1E9688F781FB910210BF0F2FC0246206A002852D04368002B4FD00521FA
:20523000484698474BE02B7A688805F10807082B814639D10FF030F8801E12D0401E33D11F
:20525000287B0A2818BF122205D16889042100220BF0D0FC0246206A30B3436823B304212E
:2052700020E07888102100220BF0C4FC237D834693B148460FF062FB70B11E490B784BB96A
:205290004179831D524601F00101084619460EF055FC01E05046E074206A28B143681BB178
:2052B00005215A467888984768880EF05DFE06E06A880EF0F1FF014610460BF0F9FD2979FA
:2052D00005F108000FF0D6FB03E04046FFF7E2FA8246BAF1000F02D028460EF009FA86F478
:2052F0000046B0B207B0BDE8F08FC046140D0020605601005A4F00202DE9FC418A4C8B4A56
:2053100026788B4F8B4D8C490D2E30464FF4A05351D8DFE816F007010E000E000E000E003B
:20533000FF00FF006B00FF00AB00AB00DC00DC00E3008249176041F204464C88804FB442AC
:205350001CBFB1F81AE0B6450BD0B1F83280B0451CBF41F20A46B44203D0B64518BFB045AB
:2053700002D12E8017607AE0022C764E2C8041F2024736D94FF4806CB4EB0C041CD0241F95
:20539000012C1FD94FF47F7CB4EB0C041CD04FF4406CB4EB0C040FD0A41E012C0CD9241F6B
:2053B0000AD0641E012C0DD940F2F930241A012C17D9241F08D0ADE0022814BF2B80624EB8
:2053D00016604CE0614EFBE761480068007A012803D14F804F834F86F2E74B804B834B8649
:2053F000EEE700200EF058FB832097E059488078FF281ED0584917601C24096860430844D7
:20541000564C4188298040F20445491B012910D94FF47F75491B15D00A39012916D940F664
:20543000F635491B032984BF491F01290FD9891E012977D940F2FD35491B08D0491E012992
:2054500004D906E041F20141418000E04380146005E000200EF020FB85200FF0E3FABDE8E8
:20547000FC413F480078012106F042BA4A882A8040F20443D21A55D040F6FC73D21A15D050
:20549000083A4FD04FF47F73D21A22D1354C364A2468364800680023CDE900230834344B5D
:2054B00024680222A047334908803BE0092810D131480068408960B1304800780AF0C4FCAF
:2054D000002100200FF016FA002020702AE04888288000200EF0E0FA85201FE04A882A8022
:2054F000022A0DD940F20440121A1BD040F6FC70121A05D0083A15D04FF47F70121AE8D11C
:20551000887B801CC0B2B528A8BF662088730020488007E000200EF0BFFA8420BDE8F6417F
:205530000FF080BABDE8F3816F4F0020204F0020D7430100504F002048270020204A0020A9
:205550006128000061A1000061BD0000755B0110104F0020684E00203C240020A5620000D5
:205570006E4F0020F04E002002000080EC4E0020BD190100424F0020D8270020714F00207D
:205590002DE9F04F8246DAF800600C465FEA0208ADF11C0D14BF00214FF0FF3106F148009E
:2055B00083460FF0A3F9002808BF0B2000F00681002565708448F460B8F1010F057004D0CA
:2055D00065700220F4600DF0B3F92078012840F2AB80801E012868D9801E012833D9801E30
:2055F000012800F2DF800FF0E9F906904FF0805000F5EE77D0F8DC01A378466A00932178A5
:205610002846062908BF0120019001200290A068228AE1686368B047814606980FF0CAF9CB
:20563000B9F1000F40F0C080B8F1000F02D00EF049FB02E050460DF020FE002800F0A48096
:205650003868806A2AE00FF0B9F906904FF0805000F5EE77D0F8DC01012306680093A16823
:20567000A27860682478AC46042C08BF9C466346B047814606980FF09DF9B9F1000F40F04E
:205690009380B8F1000F02D00EF01CFB02E050460DF0F3FD002877D03868406880474949D3
:2056B000C1F8B0510D6081467EE00FF087F906904FF0805000F5EE76D0F8DC01E38A87690F
:2056D0000093E0680190208B0290A0780390207D04900121059122782846022A08BF081C5E
:2056F000E1786268A368B847814606980FF062F9B9F1000F58D1B8F1000F02D00EF0E2FA68
:2057100002E050460DF0B9FD00283DD03068006A80475FEA000947D13068C569A168E28AAB
:205730002369E078A847BEE70FF048F906904FF0805000F5EE76D0F8DC01E38AC7680093CF
:20575000E0680190208B0290A0780390207D2946049001200590257805B901460846626868
:20577000A368E178B847814606980FF023F9B9F1000F19D1B8F1000F02D00EF0A3FA02E08C
:2057900050460DF07AFD08B9142017E03068406980475FEA000907D1306802692169E078EC
:2057B000904780E74FF0FF39B8F1010F02D002200CF0AAFE58460FF005F9484607B0BDE84E
:2057D000F08FC04650450240FC27002010B50B7884074CBF43F0020303F0FD0304064CBFFC
:2057F00043F0800303F07F0304074CBF43F0080303F0F70384064CBF43F0200303F0DF036D
:205810000B70AA21084203D0107840F00C0003E018B9107800F0F300107010BD2DE9F0419E
:205830000F461546387802281E464FF0000864D1786801784078069C01EB002080B22100DC
:205850001CBFB0F5285F0B205CD14FF42851401A0AD0401E1CD0401E49D0401E20D0401E7C
:2058700026D0C5383FD048E0F8680EF0C9FD079A80B2031B9342B8BF021B92B210191628C5
:2058900003DA3280F86801190EE04FF00D0838E0F8680088022131802870000A687030E04F
:2058B000062030800622F96828460EF03BFA28E0F868B0B108213180018829700188090A77
:2058D00069704188A9704188090AE970818829718188090A6971C188A971C088000AE87121
:2058F0000FE030800DE049480078C00705D401203080F8680078287003E0A6F800804FF0E2
:2059100001084046BDE8F0812DE9FC4B0E46804630780027022891461D4673D17068017893
:2059300040780A9CDFF8E4B001EB002080B24FF42851401A08D0401E2BD0401E4ED0401E2F
:205950003AD0C63858D05DE0F0680EF059FD80B2A04204D32919162903DB0D2753E007273F
:2059700051E0F3682A46494618190EF0DBF92C19F068A4B2C4F11602002120440EF03EFD0B
:20599000DBF8040000283ED0026810003BD0002121E07CBB022DE0D199F8000099F80110F9
:2059B00000EB0120F1680880DBF8040058B30268100028D001210EE0E4B9062DCDD1F068C0
:2059D000062249460EF0AEF9DBF80400D8B10268100018D003214046904714E054B9012DE9
:2059F000BBD199F80000010013BF0128F1680870802708E00B2706E09BF80000C00758BF95
:205A1000032700D501273846BDE8F68B581600202DE9F04FDFF800B29BF80000002887B04D
:205A300004D0401E032804D9801F012840F2F180E9E07A4CDFF8E8812068DFF8E8910068A2
:205A5000794D00F10807062207F1080104A80EF069F90622B91C68460EF064F93978C1F3D0
:205A700080108DF80C001E26C80901F00F02032A37D16179C1F38001884231D1216906221C
:205A900004A80DF025FE00282AD09DF80C0069460EF084FF002823D0294668460DF0ADF85D
:205AB000FF281DD0D9F80010897A70432E180A0018BF02290AD0012918BF032910D12A5C6B
:205AD000711C40460EF00EFF102809D06A46F11D404609F0B1FF06226946F01D0EF022F99D
:205AF0008CE001F00F01052940F093806179C1F380018842F4D12169062204A80DF0E8FDDA
:205B100000287BD0387847099DF80C0069460EF045FF40F2024A70B3294668460DF06DF850
:205B30008346BBF1FF0F69D006FB0BF029180291D9F80010897A0A0018BF01290BD00229D4
:205B500018BF03295AD12A5C0298411C40460EF0C9FE102852D050460EF0C0FE0298C11D1B
:205B70006A46404609F068FF029806226946C01D0EF0D8F81BE09BF8000002283ED19DF807
:205B90000C106A46284609F0C8FD8346BBF1FF0F34D006FB0BF02818417F012904D069BB58
:205BB0000D300EF0FFFE48B350460EF097FE06FB0BF0D9F80020295C91762818411CD9F892
:205BD0000000062214300EF0ADF8184918488978490604D5F90758BF41F20A4101D541F21E
:205BF00004414180418341861248018012491348086001211248007805F07AFE21680968B0
:205C10000020087105E000200DF046FF86200EF009FF07B0BDE8F08F6F4F0020F44B0020D0
:205C3000CC470020104F0020881D002064270020204A0020504F0020204F002061280000D1
:205C50006E4F00202DE9F04F0128ADF1140D40F0E980DFF808B2DBF8DC00012840F0DF8089
:205C70000220CBF8DC000EF035FE029001200BF031FC5FEA000806D00120CBF8DC000298C6
:205C90000EF024FED0E00EF01DFE4FF0000903906748684CC0F80090A06A01680120884722
:205CB000012818BFCDF8009004D1484609F0CCFB012000906048614FC0F80090386811203A
:205CD0000EF0B4FA00280CBF4D46012510200EF0ADFA08B145F002050F200EF0A7FA08B10B
:205CF00045F004050B200EF0A1FA20B12068544E016B308888470A200EF098FA20B1206891
:205D1000504E016B308888474F48012606602068816945F0200088474C4806600EF080FAB6
:205D300000F001010191400814D2206A8168484888478246BAF1040FF7D0BAF1010F04D1F2
:205D5000206A42684248032190474249086820F003000860484600F0A9FB23683868986BB4
:205D70008047019801280CD0BAF1010F04D1206A42683748314690473649086840F00300FB
:205D900008602D48066020684169284688470B200EF04CFA20B12068294BC16A188888476B
:205DB0000A200EF043FA20B12068264BC16A18888847254806600322CBF8DC20234BC3F82A
:205DD00000902068416B284688470128F9D1386804200BF07FFB044615481F490660386871
:205DF00008688009FCD30098012802D1304609F02BFB0EF003FA08200BF06CFB0746039835
:205E1000CBF8DC600EF05AFD09F01EFD02980EF05DFD57EA040018BF4FF0FF3804E06FF043
:205E3000040801E06FF00108404605B0BDE8F08F0C400940B8010010000222432C20094044
:205E5000E2540100DE5401002820086080010443004003402422084014100940B80F0020EB
:205E70002DE9F041834D844C0346ADF1280D2978A068A3705B1E7BD05B1E72D09B1E58D0F3
:205E90005B1E44D05B1E04D05B1E3ED05B1E3AD037E07549102002F02BFC7449C6B201AB0F
:205EB0001020721E02F024FC58B900962978A068002251A3C91CC9B20DF089F80DF10600B8
:205ED0000EE006AE40F21530314603F067FD2978A06800224CA3C91CC9B20DF078F83046CE
:205EF0002D78A4680AF096FD6D1C03460022E9B220460DF06CF84FF6FF7000210CF0D8FD58
:205F100077E00A4628E043A32EE044A32AE0142008F012FDA0682978002246A30DF057F8A2
:205F300000204FF6FF710CF0C3FD2A78501CC1B211E0142008F000FD2978A068002240A377
:205F5000C91CC9B20DF043F800204FF6FF710CF0AFFD2A781146A068921CD2B20EF030F9C2
:205F700047E03BA3C91CC9B200220DF030F840E04FF4417008A903F011FD9DF821608DF804
:205F9000056000278DF808709DF822308DF807709DF824108DF806309DF820008DF80A10AD
:205FB0009DF825208DF804009DF823608DF80B2001AB2F498DF809601A680A605868486040
:205FD000D4F808802E7808A80AF024FD361D0346F1B23A4640460CF0FAFF2978A0681FA347
:205FF0003A46C91CC9B20CF0F2FF04F19C000EF0FFF90AB0BDE8F0814E756D20436F6E6E8F
:20601000733A20256400C046436F6E6E656374656400C0464572726F7200C046436F6E6EDD
:206030006563746564204164766572746973696E6700C04654696D6564204F757400C04654
:20605000446973636F6E6E656374656400C046C04164766572746973696E6700496E697483
:2060700069616C697A656400F17F0110097F01104F0B002088150020080200202DE9F84F56
:206090000024794D794EDFF8E8B1DFF8E8A1DFF8E881DFF8E8911820D9F8001060430AEB2E
:2060B0000007487A0122A240104209D0087A38F8100038801BF80400B8730020F87302E0AE
:2060D00040F6010038800020788007F118007860387B00F0EF0040F080003873097A012927
:2060F0000ED141F28830B860387B00F0F00040F005003873787B00F0F00040F0020013E043
:20611000002C0CBF0221002100F0F00008433873DCB90EF033FC00F5C870CAF80800022083
:20613000797B01F0F00108437873641C3E61032C7D61B0DBD9F80000007A01280EBFCAF889
:2061500034A00020CAF8340005E00020022CB860E5D10120E4E70CF05FFE306048488069F6
:206170000078C1074CBF1021002182074CBF2022002243074CBF4023002300074CBF8020ED
:20619000002011431943084340F00F00307100207071D9F8000000F108018A7802F003022F
:2061B0007271CB789B0003F004031A4372718B7CDB0003F0080343F010031A4372710A78EC
:2061D000012A18BF042A06D10021B171F171B16000F1140217E04A7DB27100F15D025378EF
:2061F000F3714B7D2BB1097DC1EB411101441E3100E00021B160517821B11178C1EB41113B
:2062100001445F311F4AF160726100F10C0131611D4AF17E01F0E00141F08601F1761B4951
:20623000F161127871792AB1327902F0FE0241F040013271164A927852064CBF41F02001DC
:2062500001F0DF01717100212980A970E97029716971E9802981A972E972E9600068C0F8D9
:2062700004A0BDE8F18F00BFB44D0020F44B0020409A0110204A0020109A0110104F002057
:2062900084590100D0470020784E002000204E006427002080488078FF2800D170472DE955
:2062B000F84F0DF04DFE044604F217100178012908BF417800F0AC8004F17400807B02280B
:2062D00003D104F17401002088734FF492702518E98908001CBF287B05F00AFB6089208157
:2062F0006E48C779817A067BC37A427BC9197118591811441FFA81FC4FF48D7104EB010E1C
:20631000BEF80410491CAEF80410BEF800106144AEF80010827ABEF802105118AEF802107E
:206330001C21D5F800905E4AB9F1000F1DD094F806A0D2F8008001FB0AFAC2449AF80EA0A3
:2063500039F81AB0DC4429F81AC094F806C001FB0CFCC4449CF80EC009EB4C0C90F80A90E9
:20637000BCF84A80C844ACF84A80002F08BF002B04D1002E04BF437B002B27D02389E68933
:20639000F318A38100232374237F012B04BF638CE38343788BB10123237704F174039B78EA
:2063B000002B02BF04F174039B7B002B05D104F174031B7F0BB9638CE3832B7D1E0030D079
:2063D000022B04BFC37A002B27D129E0E383837A3BB100232374237F012B07D1638CE38350
:2063F00004E0BEF806305B1CAEF80630A38926899E4206D0B342CCD2F31A41F2AB07BB4257
:20641000C7DA207C08B1052E01D0082100E03E212046BDE8F44F0DF0AAB8437A0BB10223BF
:206430002B75204BC77B1E682368FF0707D50169D9600022A17906EB41114A610DE0A77932
:2064500006EB471676692E61A5791268694311448968D9600021E183217713494969097801
:2064700089074CBF807B812084F874002046FCF78BFC01280ED00121204607F045FF2046D5
:206490000CF0E8FEFCF7EEFE012803D0BDE8F14FFDF736BFBDE8F18F684E00205C4D00209D
:2064B0003C240020D0270020845901002DE9F84FDFF8F4B10746ABF13500DFF8E0910068B0
:2064D000800880F0D98071480068006880477A490831D1F8008000254FEA28725FEA98519C
:2064F00002F101020AD2C0F13E0110F10A0F4FEAE101D8BF08218A42B8BF0A1C644BD3F8F2
:206510007C11C1F304611629A8BF20391B68C3F30443162BA8BF203B9A465118162905DADC
:2065300011F10A0FB8BF6FF0090100E01521594B594E01F01F0242F4F8521A80326812F027
:20655000030F18BF0125D20828BF45F002050FB145F004054A4692F90730C31A052B04DAE4
:206570009379AB4208BF918866D0DFF834E10F28A0F10F0C25DB0CEB0013A3F1F00C4FEA5A
:206590002C26072E88BF07263446062C88BF06245EF82470042303EB84037446E358DB1B62
:2065B00003F0FF04EF0824BFC3F307273C44AF0824BFC3F307473C446F0828BF04EB1364B5
:2065D00001E0002426465EF826E0EF080EF0FF0324BFCEF307273B44AF0824BFCEF30747ED
:2065F0003B446F0828BF03EB1E63A4B2ACEB0626AAEB01017443002904F1800403EB142311
:20661000D8BF0121342408F0FF074C43A1B27943B1FBF3F14FF6FF738B4238BF191C8028D5
:2066300089B2918005DA10F1800FB8BF6FF07F0000E07F20D07195711A4800681F291060F2
:206650004FF0000008D340F2FF128A4206D24908401C8A42FBD301E01F219180134F0F3906
:20667000090940EAC10047EA0001CBF8FB1F0026CBF8FF6FBDE8F88F0D490E4F4A46082010
:206690000F60921D1070BDE8F88FC046EC0100103C1100506E62084024220840C0270020D3
:2066B0009C130050082009403500094000E7A48030100940FDFDA400AC3F0050F8B57E4EF6
:2066D00004463068C06E0025002840F0F18010200DF004FD31680028C86600F0E7808F6E3B
:2066F000102221460DF01EFB30680178002940F08E80C16ED7F8982011F80CCF02F00103D3
:206710000CF0010C634518BF0023520843EA4202C7F89820C2F34003D1F800C0CCF3400CF0
:20673000634506BF530803F00103002322F0020242EA4302C7F89820C2F38003D1F800C0A8
:20675000CCF3800C634506BF930803F00103002322F0040242EA8302C7F89820C2F3C00304
:20677000D1F800C0CCF3C00C634506BFD30803F00103002322F0080242EAC302C7F898200F
:20679000C2F30023D1F800C0CCF3002C634506BF130A03F00103002322F4807242EA0322A0
